:1007E0000033000000070000190E000000000000A8
:1007F00000000000000000000000000000000000F9
:100800000228D99002E4120D49E56F902EC2B4017E
:1008100004741180027491F0902EC77401F0902E30
:10082000CA7418F0120EAB7402F0220231DB74AA03
:100830007583F5758255A574557583FA7582AAA5D9
:1008400074A57583F5758255A5220002200190409C
:100850007FE493FF64326003EF7002002253A87FAD
:100860000080FD021AFB12215812257A900189742A
:1008700001F0221231DE022E5C00000231D8120C8F
:1008800001FDACF0D39FEC9E40329001BE120C15DE
:10089000120EE4D3EF9430EE9475400C9002DC74A9
:1008A00075F0A37430F0800D120C0C120EF890024B
:1008B000DCF0A3EFF0E490024B02092D120C12FFC2
:1008C000AEF09001BE120C15FDACF0C39FFFEC9E84
:1008D000FED3EF9410EE9427400C9002DC7427F0C6
:1008E000A37410F08012120C12FFC3ED9FFEEC9562
:1008F000F09002DCF0A3CEF09002DCE0FFA3E090E9
:10090000024BCFF0A3EFF0300018D3E0942C90020C
:100910004BE09401401390024D7427F0A37410F043
:100920008007E490024DF0A3F0E49002DCF0A3F025
:100930009001E2E0606B120CE3C394E8EE648094F3
:100940008350159001BB120C15C39470E5F09417F9
:10095000500690022B7420F0D3120DF4401AD3905D
:1009600002DDE095279002DCE09526400B90019097
:10097000E4F0A37464F0801BD3900191E0940090A4
:100980000190E09400400C9001BB120C159002DC29
:10099000120DA5D209900196740FF0A374A0F080F7
:1009A0000890022B7420120C90120CE3D3120DF558
:1009B0005003020BD79001BB120C2D120E38C390BE
:1009C00002DDE094C89002DCE0648094805007E48B
:1009D00090022FF0A3F090022FE0FEA3E0FF900220
:1009E000DDE02FF09002DCE03EF0E0FEA3E0FF123D
:1009F0000EFFE47BB87A88F9F8C3121722500A90E8
:100A000002DC7488F0A374B8F0D3900193E09400F2
:100A1000900192E09400500790002EE0B42018124C
:100A20000CE3C39496EE64809480500B120DF44056
:100A30003A7C007D0A80103000319001E2E0700DB8
:100A4000120CE37C027DBC120E56F0801E120CE3E9
:100A5000C39527EE952650137C027DBC120E5612CC
:100A60000C90120E3F120C2D120CC39001E2E0709C
:100A700003020BB9900194E07002A3E06003020B43
:100A8000B9120CE3120EFFE54D2FF54DE54C3EF586
:100A90004CE54B3DF54BE54A3CF54A054FE54F70BB
:100AA00002054EC3E55494E8E55394035003020B4A
:100AB0005BAE4EAF4FCBEFCB120D25AF4DAE4CAD75
:100AC0004BAC4A1216909002DEEEF0A3EFF0C3E5B5
:100AD000519FFFE5509EFE1231C39002E0EEF0A35D
:100AE000EFF0D3943CEE94005006E5514550700C65
:100AF0009002DEE0F550A3E0F551804ED39002DF86
:100B0000E095519002DEE09550401B120DC5400467
:100B1000740A800BD3EF943CEE9400402D740525AD
:100B200051F551E48020120DC5400A74F62551F5A7
:100B30005174FF8011D3EF943CEE9400400C74FB91
:100B40002551F55174FF3550F550E4F54DF54CF550
:100B50004BF54AF54EF54FF553F554D3E551940056
:100B6000E5509400402A9002DDE09551FF9002DCB0
:100B7000E09550FE1231C3120EEE5008120E61E4E1
:100B8000F555800CE555C394075005120E610555C7
:100B9000E5DB20E2359001C4120C157D0F120DFD2E
:100BA0009002DC120C7E120EFFEB7B10120CD19027
:100BB00001C4120C2DF9EE800CE5DB20E20C120EC4
:100BC0003F120C2DC98FF01216359001C4120C156E
:100BD00024A8FFE5F0801D9001BB120C2D120D9E84
:100BE0009001C4120C2D120D9E9002DDE024A8FF8E
:100BF0009002DCE03461F99001C1120C2D120CC39B
:100C0000229001BEE0FBA3E0FAA3E0F91215D2FFA7
:100C1000AEF09001B8E0FBA3E0FAA3E0F90215D230
:100C20009001E5A3A3E0F9A3E0FF9001BEE0FBA3E0
:100C3000E0FAA3E022F07E007F057D007B007A00D1
:100C400079601217EB7E007F127D007BFE7A0079BF
:100C5000001217EBE4900210F0A3F090020EF0A344
:100C6000F0900212F0A3F0A3F0A3F0A3F0A3F022FF
:100C7000E4FCFDE0F8A3E0F9A3E0FAA3E022C8EC6D
:100C8000C8C9EDC9CAEECACBEFCBE0FEA3E0FF2294
:100C9000F09001947403F0A374E8F07B007A00797B
:100CA0004A7E007F127D000217EB43AB025389FDA1
:100CB0005395FD5396FD227D14E0FEA3E0FF7C00DA
:100CC00002151FC98FF0021635A3F0A37401F0A31B
:100CD000222FFFEA3EFEE93DFDE83CFCE4FAF9F88C
:100CE0000216909002DCE0FEA3E0FF22E4FCFDEBA4
:100CF0002FFFEA3EFEED39FDEC38FC22E0FEA3E0DA
:100D0000FFD39400EE940022E50A25E0242AF8E6B9
:100D1000FE08E62290018C7402F0A37458F022A31E
:100D2000E0FEA3E0FBCAEECAE4F9F822C3FF90029A
:100D300037E09F900236E095F0227F087A0179E54E
:100D40007E007D007B010217EBE4F0902EC0740260
:100D5000F022E50D25E0241CF582E43402F583E061
:100D6000FEA3E0FF22F090022DE03400F0E0FFA3AC
:100D7000E0A3CFF0A3EFF0229002DAA3A3E0F9A35F
:100D8000E0FF9001B822E0FCA3E0FDA3E0FEA3E0B9
:100D900022E2FF08E2CF900214F0A3EFF022F9E480
:100DA000F5F0021635FFE5F0F0A3EFF022902EC02B
:100DB0007419F022E4F50EF50DF50CF50B229000F8
:100DC0002EE06420229002E0E0FEA3E0FFD39450E6
:100DD000EE94002290018E7402F0A374BCF0229075
:100DE00001B6E0FCA3E0FD22AB0EAA0DA90CA80BF6
:100DF000D3021738EF9400EE6480948022FFAEF0A7
:100E00007C000217BE9002DDE0940A9002DCE094C0
:100E1000002290022EE094C890022DE0940022FD62
:100E2000E4356DFCED2FFFEC35F0FE22E52924883A
:100E3000FFE5283413FED322F9EE8FF00216359029
:100E400002DCE0F9A3E0FF9001C42225E0242AF8A7
:100E5000A60F08A610221215869002DCEEF0A3EF72
:100E6000229002DCE550F0A3E551F022E4900192DB
:100E7000F0A3F022900237E09D900236E09C229091
:100E800002DDE09F9002DCE09E22F9746175F0A81B
:100E900002163590004D7410F022F0A3F0900198E6
:100EA000F0A3F022E4F0A374C8F022902EC4E4F082
:100EB000A322FEEF2401FFE43EC31322C3EF940AF2
:100EC000EE6480948022902EC0E4F0902E1EE022EA
:100ED000E22401F218E23400F222C9EDC9CAEECAD6
:100EE000CBEFCB22FFC3ED9FFFEC95F0FE22C3EFCB
:100EF0009464EE6480948022C39FFFE5F09E22EE0E
:100F00003395E0FDFC2290022C7464F022F9E41287
:100F100015FD90022EE022C3E55F956AE55E9569B6
:100F2000229002DA02175C90023A120C73FBE9C0BD
:100F3000E0EAC0E0EBC0E09001D3120C15FFE4FC46
:100F4000FDD0E0FBD0E0FAD0E0F9EB2FFFEA35F07E
:100F5000120CF490023A12175C90023FE004F07019
:100F60000690023EE004F0900240E07002A3E060D0
:100F70000302122290023A120D86FFEEC0E0EFC08B
:100F8000E0120D1FD0E0FFD0E0FE12169090023A62
:100F900012175C90023AA3A3E0FFA3E0900238CFBF
:100FA000F0A3EFF0A312177400000000E490023EDB
:100FB000F0A3F0A3F0A374C8F090018AE07002A33C
:100FC000E06003021222900242E07002A3E060039C
:100FD0000212229001E2E0700302108E900234E0CF
:100FE000FEA3E0FF4E7022900238E0FDA3E09002E5
:100FF00034CDF0A3EDF09001BB120C15FD9002363C
:10100000E5F0F0A3EDF00210BB900238E0FCA3E0A5
:10101000FDC3EF9DFFEE9CFE1231C3900248120CFF
:101020002D120E38900232E07026900248120C15F4
:10103000C3940DE5F09400500F9001BB120C15FF06
:10104000900236120DA680229002327401F0801AAE
:10105000900248120C15C39402E5F09400500BE482
:10106000900234120C68900232F0900238E0FEA335
:10107000E0FFD3900235E09F900234E09E4007E409
:10108000900233F080359002337401F0802DE490AB
:101090000234120C68900232F0900244E07002A315
:1010A000E0700280109001BB120C15C39496E5F01D
:1010B00094005007E4900244120C68900232E070F1
:1010C00003021222900236120CFC500302122290EC
:1010D00001BB120C15120EF8FE1231C39002DCEEA9
:1010E000F0A3EFF0A3E4F0A3748CF09001BB120C1A
:1010F00015FDACF0D3120E7440109002DEE013FE2A
:10110000A3E013FFD3120E7F5013C3120E7450349A
:101110009002DEE0FEA3E0FF120E7F4027E4900283
:1011200032F0900234F0A3F09001BB120C15120DB6
:101130002C90024274015006F0A3742CF022F0A30C
:101140007490F0229001BB120C15D3120D2D500398
:10115000021201D3120E055003021201900233E075
:1011600064016003021201120C2AF974FF75F0FB8E
:101170001215FDD3900247E0942C900246E09401B2
:101180004071900245E02405F0900244E03400F004
:101190002000609001BB120C15FFC374709F741780
:1011A00095F0504F900245E024C8F527900244E0A6
:1011B0003400F526C3E52794E8E5269403401BAEEA
:1011C00026AF277C007D0912151FEF7803CEC313CD
:1011D000CE13D8F9F56E8E6D8019E527AE2678020C
:1011E000C333CE33CED8F9FF7C007D031215318E88
:1011F0006D8F6E900247E02405F0900246E03400C7
:10120000F09001BB120C15120D2C5016120E054059
:1012100011900233E0700B120C2AF9E475F00512FC
:1012200015FD22208A0302151E90018CE07002A396
:10123000E0600302151E90018AE07002A3E06003E3
:1012400002151E900218E07002A3E0600302151E52
:10125000120DBE600302151E9001E2E07030900195
:10126000CD120C15FFAEF09001BB120C15D39FE50B
:10127000F09E400302151E120D3AE4900224F0A3E2
:10128000F0120E6D900190120E9AF5698003756947
:1012900000756A1EE4F5B2F5BA122F97900228E0A5
:1012A000F55CA3E0F55DC207758D20438D20758D3B
:1012B0008043AA08D2AF758B02758EAF200A241224
:1012C0000DBE701F200D1CE5DB20E217758AC420BF
:1012D0000D0DE5DB20E2087587030000008006D2D3
:1012E000078002D207758B11758A5053AAF7D390E5
:1012F000018BE0949090018AE09401400EA3E024D9
:1013000070F090018AE034FEF08007E490018AF0EA
:10131000A3F0D3900197E09490900196E09401405F
:101320000EA3E02470F0900196E034FEF08007E414
:10133000900196F0A3F0900068E075F003A4902E61
:10134000C3F0A3E4F0A3F0120CAA53997F12080390
:10135000120DAD902EC0E030E2F9902EC0E4F09076
:101360002E02E0F56BA3E0F56C438902120CB0434A
:101370008002123082120DAD902EC0E030E2F912E0
:101380000EC6F522A3E0F523E56C2529FFE56B35B4
:1013900028FEC3EF9523F525EE9522F524120E2C99
:1013A000E5259FE5249E40048E248F25902EC4E4DD
:1013B000F0439980900214E524F0A3E525F0C3E5FD
:1013C0005D9525FFE55C9524FE1231C38E5E8F5F2F
:1013D000120F1740030214FBAE24AF257C007D0FD3
:1013E0001217BE120F21AF68AE67AD66AC659002F2
:1013F000DA120C73FBD31217389002DA4017120D71
:10140000869568FFEE9567FEED9566FDEC9565FCAB
:10141000120F21800712177400000000E47F607E25
:10142000EAFDFC9002DA120C73FBD3121738400A63
:101430009002DA1217740000EA60120C127D091291
:101440000DFD9002DA120C737B0A120CD1120F21DF
:101450009001E2E0703CAE5CAF5DFC7D091217BE0E
:10146000C8ECC8120EDAE4FCFDEB2525FFEA3524B2
:10147000120CF4E47B0A120CDD8E5C8F5D9002DAB4
:10148000120C23120CC3120D78120C2D120CC30275
:1014900014FB120D78120C2D120CC39001BE120C0D
:1014A00015FFAEF09002DA120C70FBD31217384021
:1014B0005A120C01120EF8FEC3EF956EEE956D50A8
:1014C0000302150B90022CE0D39400402E120E1252
:1014D00050299001BE120C15FFE56E2446120E1F16
:1014E000120C12D39FE5F09E400E120C2A75F014D8
:1014F000120F0D2414120D65120F0620070D120F86
:10150000175008120DBE70030212A8900231E004B9
:10151000120C359001E404F090018E120EA422EF1B
:101520008DF0A4A8F0CF8CF0A428CE8DF0A42EFED0
:1015300022BC000BBE0029EF8DF084FFADF022E449
:10154000CCF875F008EF2FFFEE33FEEC33FCEE9D88
:10155000EC984005FCEE9DFE0FD5F0E9E4CEFD22AF
:10156000EDF8F5F0EE8420D21CFEADF075F008EF3A
:101570002FFFED33FD4007985006D5F0F222C398B7
:10158000FD0FD5F0EA22C2D5EC30E709B2D5E4C3AD
:101590009DFDE49CFCEE30E715B2D5E4C39FFFE46B
:1015A0009EFE121531C3E49DFDE49CFC80031215E0
:1015B0003130D507C3E49FFFE49EFE22C5F0F8A3B7
:1015C000E028F0C5F0F8E582158270021583E03856
:1015D000F022BB010A89828A83E0F5F0A3E0225061
:1015E0000687F009E71922BBFE07E3F5F009E319C6
:1015F0002289828A83E493F5F074019322BB010768
:1016000089828A830215BC500B09C5F027F7C5F003
:101610001937F722BBFE0D09F8E325F0F3C5F019E1
:10162000E338F322F889828A8374019325F0C5F0A8
:10163000F8E4933822BB010A89828A83F0E5F0A39B
:10164000F0225006F709A7F01922BBFE06F3E5F0D9
:1016500009F3192275F008758200EF2FFFEE33FEB3
:10166000CD33CDCC33CCC58233C5829BED9AEC997A
:10167000E58298400CF582EE9BFEED9AFDEC99FC1C
:101680000FD5F0D6E4CEFBE4CDFAE4CCF9A8822263
:10169000B800C1B90059BA002DEC8BF084CFCECD83
:1016A000FCE5F0CBF97818EF2FFFEE33FEED33FDBC
:1016B000EC33FCEB33FB10D703994004EB99FB0FA1
:1016C000D8E5E4F9FA227818EF2FFFEE33FEED3378
:1016D000FDEC33FCC933C910D7059BE99A4007ECF0
:1016E0009BFCE99AF90FD8E0E4C9FAE4CCFB227537
:1016F000F010EF2FFFEE33FEED33FDCC33CCC833CB
:10170000C810D7079BEC9AE899400AED9BFDEC9A2C
:10171000FCE899F80FD5F0DAE4CDFBE4CCFAE4C8A4
:10172000F922EB9FF5F0EA9E42F0E99D42F0EC646D
:1017300080C864809845F022EB9FF5F0EA9E42F065
:10174000E99D42F0E89C45F022E8600FECC313FCF1
:10175000ED13FDEE13FEEF13FFD8F122ECF0A3ED35
:10176000F0A3EEF0A3EFF022ECF208EDF208EEF2B7
:1017700008EFF222A8828583F0D083D08212178BE3
:1017800012178B12178B12178BE473E493A3C58384
:10179000C5F0C583C8C582C8F0A3C583C5F0C5839D
:1017A000C8C582C822D083D082E493F20874019322
:1017B000F208740293F208740393F2740473EC8ECB
:1017C000F0A4CCC5F0CCCDF8EFA4CEC5F02DFDE44F
:1017D0003CFCE8A42EC8C5F03DFDE43CFCEFA4FFB2
:1017E000E5F028FEE43DFDE43CFC22EF4E6012EF04
:1017F00060010EEDBB010B89828A83F0A3DFFCDE62
:10180000FA2289F05007F709DFFCA9F022BBFEFCA1
:10181000F309DFFCA9F022120D4B120EABF0539925
:101820007FF50BF50CF50DF50EF50A120803120CF9
:10183000AA120DAD902EC0E030E2F9902EC0E4F077
:10184000438902120CB0438002902E02E0FEA3E016
:10185000250CF50CEE350BF50B123082120DAD9008
:101860002EC0E030E2F9120EC6FEA3E0250EF50E02
:10187000EE350DF50D050AE50AC3940340AD439915
:1018800080902EC5E4F0E529240CFFE52834FEFE07
:10189000D3EF950CEE950B4016900218E07002A362
:1018A000E070139002187403F0A374E8F08007E46A
:1018B000900218F0A3F0900210120CFC401FCBEF26
:1018C000CBCAEECAEB250EFFEA350DFEE433FDE48C
:1018D00033FC78011217498E0D8F0E800A9002108A
:1018E000E50DF0A3E50EF0900212120CFC4020CBA7
:1018F000EFCBCAEECAEB250CFFEA350BFEE433FD55
:10190000E433FCE47B02120CDD8E0B8F0C800A901A
:101910000212E50BF0A3E50CF0E50C2529FFE50B21
:101920003528FEC3EF950EF510EE950DF50F120E4E
:101930002CE5109FE50F9E40048E0F8F1090020E35
:10194000E50FF0A3E510F0A3E50DF0A3E50EF0A37D
:10195000E50BF0A3E50CF0AF10AE0F122701EE126D
:101960000D9690002EE0B420097BFE7A00790012DB
:101970000CA17800E2FB08E2F908E2FA08E2CBF8F1
:10198000900214E0FEA3E0FF120CEC78001217683E
:101990007805120ED0C3780AE294E818E294035056
:1019A00003021A667804E2FE08E2FFE4FCFDECC0E4
:1019B000E0120EDA7800E2FC08E2FD08E2FE08E23E
:1019C000FFD0E0F81216909002E0EEF0A3EFF0C323
:1019D0007807E29FFF18E29EFE1231C39002E2EE0A
:1019E000F0A3EFF07806E2FE08E2120D00403D9011
:1019F00002E2E0FCA3E0FD9405EC9400502EED948F
:101A000003EC9400401F9002E0E0FCA3E0FDD3EF64
:101A10009DEE9C400BE224FFF218E234FFF28005B9
:101A20007807120ED078087403F280267808E2D383
:101A300094004003E214F27808E2600818E27002B1
:101A400018E2700E9002E0E0FFA3E07806CFF20803
:101A5000EFF278001217A500000000E47804F20805
:101A6000F27809F208F27806E2FE08E2120D004070
:101A700061900215E09FFF900214E09EFE9002E04C
:101A8000F0A3EFF0D394F9EE6480947F4017E094D4
:101A9000079002E0E064809480500A18120D91E4EF
:101AA000780BF2802D9002E0E0FEA3E0FF1231C33C
:101AB000D3EF940FEE648094804005780B7403F2AA
:101AC000780BE2C39403500A7806120D91780BE26A
:101AD00004F2900214E0F548A3E0F549750A01E527
:101AE0000A120D0AFFE50A25E02428F8C6EEC6080A
:101AF000C6EFC6050AE50AB410E522C0E0C083C0FF
:101B000082C0D0E8C0E0D2AF90019DE004F0D39055
:101B1000018BE0940090018AE09400400CA3E02443
:101B2000FFF090018AE034FFF0D390018DE0940043
:101B300090018CE09400400CA3E024FFF090018C15
:101B4000E034FFF0D390018FE0940090018EE09498
:101B500000400CA3E024FFF090018EE034FFF0D3AE
:101B6000900191E09400900190E09400400CA3E07B
:101B700024FFF0900190E034FFF0D3900193E094C3
:101B800000900192E09400400CA3E024FFF090014B
:101B900092E034FFF0D390019BE0940090019AE032
:101BA0009400400CA3E024FFF090019AE034FFF091
:101BB000D3900199E09400900198E09400400CA328
:101BC000E024FFF0900198E034FFF0D3900195E01D
:101BD0009400900194E09400400CA3E024FFF09066
:101BE0000194E034FFF090022CE0D394014003E034
:101BF00014F090022BE0D394004003E014F0C3787B
:101C00000AE294E818E29403500A08E22401F21868
:101C1000E23400F2C3E55494E8E553940350080518
:101C200054E55470020553D3900241E094009002B1
:101C300040E09400400CA3E024FFF0900240E03428
:101C4000FFF0D3900243E09400900242E094004001
:101C50000CA3E024FFF0900242E034FFF0D39002A6
:101C600019E09401900218E09400400CA3E024FFD6
:101C7000F0900218E034FFF0D3900197E0940090C8
:101C80000196E09400400CA3E024FFF0900196E060
:101C900034FFF0D390024EE0940090024DE09400A7
:101CA000400CA3E024FFF090024DE034FFF0D3900D
:101CB0000117E09401900116E09400400CA3E02489
:101CC000FFF0900116E034FFF0D0E0F8D0D0D082E1
:101CD000D083D0E032900224E0FEA3E0FFC394045E
:101CE000EE9400502A120DDFEF25E0FFEE33FE7474
:101CF0001C2FF58274023EF583ECF0A3EDF0900208
:101D000025E004F07006900224E004F0021E327513
:101D10000D01120D52E50D25E0241AF582E434027E
:101D2000F583EEF0A3EFF0050DE50DB404E49001AA
:101D3000E2E07003021DD69001BE120C15FFAEF05A
:101D4000120DDFD39FEC9E5003021DD4ED9FFFECDC
:101D50009EFED3EF94F4EE94014079A3120C151279
:101D60000EE49002DFF0A3EFF01231C3120EEE503A
:101D700063E49002E1F0A3F09002DFE0FEA3E0FF55
:101D80001231C3D3EF9428EE648094804025D39021
:101D900002E0E094009002DFE0648094809002E131
:101DA0004008E4F0A37405F0801074FFF0A374FB06
:101DB000F08007E49002E1F0A3F0120C12FF900211
:101DC000E2E02FFE9002E1E035F0900222F0A3CE97
:101DD000F0021E32804D120C12FF120DDFC3EF9D78
:101DE000FFE5F09CFE1231C3C3EF940FEE648094C4
:101DF0008050309001BE120C15FFC39001B7E09FD8
:101E0000FF9001B6E095F0FE1231C3120EBC5005F2
:101E10009001BE80039001B8120C15FF900222E5DC
:101E2000F0800B9001B6E0FFA3E0900222CFF0A378
:101E3000EFF0E4F50CF50BF50AF509F50DD390027A
:101E400025E0950D900224E09400401E120D52E40E
:101E5000FCFDE50C2FF50CE50B3EF50BED350AF519
:101E60000AEC3509F509050D80D3AF0CAE0BAD0AB0
:101E7000AC09EEC0E0EFC0E0900224120D20D0E0EB
:101E8000FFD0E0FE1216908F0C8E0B8D0A8C09226B
:101E90009001E2E07003021F16120D3A120DD49069
:101EA000022BE0702EA3E0702A9001BB120C15FFEC
:101EB000AEF0D394E8EE94034019EF9470EE9417CB
:101EC000501190022AE0FF04F0EF9428400A120F0C
:101ED000068005E490022AF090022CE06401600381
:101EE000022000C3120E1240030220009001BE1215
:101EF0000C15FFE56E2432120E1F120C12D39FE553
:101F0000F09E400E120C2A75F005120F0D240512DA
:101F10000D65120F0622E490022C120C6690022A24
:101F2000F09001E5120C73FBE9C0E0EAC0E0EBC001
:101F3000E0120C12FFE4FCFDD0E0FBD0E0FAD0E0B0
:101F4000F9EB2FFFEA35F0120CF49001E512175C63
:101F50009001EAE004F070069001E9E004F09001DD
:101F60008EE07002A3E060030220009001E5120DF4
:101F700086FFEEC0E0EFC0E0120D1FD0E0FFD0E022
:101F8000FE1216909001E512175C9001BE120C151E
:101F90002432FFE435F0FE9001E5120C70FBD31201
:101FA0001738403990018AE07002A3E0702F2009B1
:101FB0002C9001ECE004F070069001EBE004F0D30B
:101FC0009001ECE094059001EBE09400401E120CAF
:101FD00020120CC3E49001EBF0A3F0800F120C2050
:101FE000120CC3E49001EBF0A3F0C2099001E512DA
:101FF000177400000000E49001E9F0A3F0120DD482
:1020000022C0E0C0F0C083C082C0D0E8C0E0E9C018
:10201000E0EAC0E0EBC0E0ECC0E0EDC0E0EEC0E024
:10202000EFC0E0D2AFE5DB30E41AD20DC20CE5DB45
:1020300030E1030220B39002EDE5DFF09002F0E41E
:10204000F0022132E5DB30E55ED20A300C04C20C2E
:102050008002C20D9002F2123120E06003022132B0
:10206000EF241C123127E0641060030221321208B1
:102070002E75F20075F30875EEFF75EF3F75EA8176
:1020800075F60075EB0700E5EC30E7FB75EC0090AA
:1020900002EE123120E5F3F0EF241C123127E5F2B5
:1020A000F075EB30022132C20CE5DB30E13EE5DBBE
:1020B00030E00F9002F1E0FF04F012312EE0F5DF86
:1020C00080709002F1E0FFB40819208A16D28A903D
:1020D00001B27401F09002EEE0FCA3E0240712319B
:1020E00034E4F0EF641A704AD20B80469002F0E0BC
:1020F000700EA3E5DFF09002F07401F0D20C803294
:102100009002F1E0902F6193B4FF089002EDE5DFBB
:10211000F080199002F1E0FF12312EE5DFF0EFB40C
:10212000240A90018C7401F0A374F4F09002F1E0A1
:1021300004F075DBFFD0E0FFD0E0FED0E0FDD0E0A2
:10214000FCD0E0FBD0E0FAD0E0F9D0E0F8D0D0D07D
:1021500082D083D0F0D0E0327E007FFF7D007B0113
:102160007A0079171217EB9002EE7400F0A374173F
:10217000F090013D7401F0A37400F0A374CBF090D3
:1021800001437401F0A37400F074BF122DC87400F1
:10219000F0A374A7F09001407401F0A37400F0A3C1
:1021A00074D9F09001497401F0A37400F074E51241
:1021B0002DC87400F0A37432122DC97401F0A374F9
:1021C00015F0902DE0E493FF9002EEE0FCA3E0FD1B
:1021D000F5828C83A3EFF0900015E0FFED2404124C
:1021E0002DA2900014E0FFED2405122DA290001600
:1021F000E0FFED2406122DA2902DE2E493FFED24E2
:1022000012122DA2902DE3E493FFED2414122DA2BF
:102210009001527401F0A37400F0A3744FF0E4FF36
:10222000EF25E02401F582E4342EF583E493FE12D9
:102230002DD0EEF0122DD0E0FEEF25E02400F58247
:10224000E4342EF583E49324C0F582E4342EF58340
:10225000EEF00FEFB416C9902F56E090006BF0909F
:102260002F56E0900081F0902F56E090006CF09097
:102270002F56E0900082F09001127401F09001114D
:10228000F090004D7410F090002EF090003BF0A301
:102290007420F090018A7407F0A374D0F022120D1C
:1022A000B4F515F516852A11852B12852A13852B71
:1022B00014F50A120D08FFD3E5149FE5139E40079D
:1022C0008E138F14850A16C3E5129FE5119E5007E1
:1022D0008E118F12850A15050AE50AB40FD5E4F5AB
:1022E0000FF510F50AE516650A602EE515650A601A
:1022F00028E510450F7010E50A25E0242AF8E6F5D8
:102300000F08E6F5108012120D082510FFE50F3EAC
:10231000120EB2F50FEF13F510050AE50AB40FC55A
:10232000900228E50FF0A3E510F0E516C3940C50D9
:1023300005E516120E4BE515C3940C5005E5151274
:102340000E4B120DB4F50A120D08FFE4FCFDE50E6C
:102350002FF50EE50D3EF50DED350CF50CEC350BBE
:10236000F50B050AE50AB40FDEAF68AE67AD66ACE3
:1023700065120DE8401AE50E9568F50EE50D9567B6
:10238000F50DE50C9566F50CE50B9565F50B8003F1
:10239000120DB4E47F607EEAFDFC120DE8400BE410
:1023A000750E60750DEAF50CF50BAE0DAF0E2290B3
:1023B00002E0EFF09002E5E4F0A374FFF0E4A3F094
:1023C000A3F0A304F0A374FFF0902EC07402F09069
:1023D0002EC37408F0E49002E1F0A3F09002E1E073
:1023E000FEA3E0FFC39409EE940040030224A3EF90
:1023F0009407EE940040067E007F0180199002E170
:10240000A3E004FFE47E01C8EFC8088006CEA2E77F
:1024100013CE13D8F8FF9002E3EEF0A3EFF0902E66
:10242000C07419F0902EC0E030E2F9902EC0E4F0B4
:102430009002E0E0FF75F002A42400122DAEE0FC53
:10244000A3E0FD902EC07402F0D3ED94FFEC940F46
:1024500040179002E3E0FCA3E0FD75F002EF122DBF
:10246000ABEC8DF01215BC80299002E0E075F00213
:10247000122DABC083C082E0FEA3E0FF9002E3E038
:10248000FCA3E0FDC3EF9DFFEE9CD082D083F0A3C0
:10249000EFF09002E2E004F070069002E1E004F058
:1024A0000223DC7F0022E4F56F1230AD902E42E073
:1024B000FEA3E0FFBE0109BFFF06756F011230AD3C
:1024C000902E42E0FEA3E024A4FFEE34FE9002DE54
:1024D000F0A3EFF0120CAA53997F122F9712080362
:1024E000120D4B902EC314F0120DAD902EC0E030A3
:1024F000E2F9902EC0E4F0902E027D12120CB98EFB
:10250000288F297D0F1217BEEF24E0F568EE34B155
:10251000F567ED34FFF566EC34FFF565438902128B
:102520000CB043800243998053997F123082902EE1
:102530005EE4F0A374FFF07F0F1223AF902EC4E48B
:10254000F0439980A3F09001B5E0900034F0E56F7E
:10255000902E42B4010C120CB7EF24E8FFEE3403C6
:10256000800A120CB7EF24A4FFEE3406F99001D6CE
:10257000120C2DC98FF0121635227F997A0179B687
:10258000120D409001B87401F0A37400F07457125A
:102590000CC97400F07459120CC97400F0A3745B78
:1025A000120CCA7400F0A37445120CCA7400F0A394
:1025B0007441120CCA7400F0A3743FF09001D374FC
:1025C00001F0A37400F0A37439F09002487401F094
:1025D000A37400F0A37497F09001D67401F0A37473
:1025E00000F0A3742F120CCA7400F0A37435F0909D
:1025F00001CA7401F0A37400F0A37449120CCA74E8
:1026000000F0A3743D120CCA7400F0A3744BF07573
:102610006D00756EC89001CA120C2DF9E56D856EBE
:10262000F01216359001CD120C2DF9E475F06412FC
:1026300016357526007527969001D0120C2DF9E5F8
:10264000268527F00216359002DCEEF0A3EF120C7F
:10265000359002DCE07002A3E060031224A6122889
:1026600047E4900224F0A3F07F0F123027120D14DC
:10267000A3120DD7E490022C120C669001B6E0F97B
:10268000A3E0FFA3120C2D120CC39001BB120C2D62
:10269000120D9E9001C1120C2D120E8A9001C412CF
:1026A0000C2D120D9E9001C7120C2D120E8A120EC7
:1026B00093E49001E2F09001E5121774000000002D
:1026C000E49001E9120C689001B6120C25120CC3BB
:1026D000E49001E4F090019A120E9A900196F0A312
:1026E000F0FE7F16FD7B017A0279321217EB900122
:1026F000D3120C15900238120DA5900240120EA4B0
:10270000229002E4EEF0A3EFF0E5634562700C90D6
:1027100002E4E0F562A3E0F56380169002E5E025AF
:1027200063FF9002E4E03562120EB2F562EF13F53A
:10273000630564E564D3940A400D85626085636136
:10274000E4F562F563F564D3E5619400E560940017
:10275000404C9002E5E09561FF9002E4E09560FE58
:102760001231C3120EBC501EAE60AF617C007D03FF
:102770001217BE9002E4120C7E120CEC78021217B3
:10278000499002E480139002E5E02561FF9002E4A5
:10279000E03560C313FEEF13FFEEF0A3EFF09002FD
:1027A000E4E0FEA3E0FF2230002090024DE0700242
:1027B000A3E06008756D27756E108006756D1B753A
:1027C0006E587526177527708014900244E07002C9
:1027D000A3E0700AF56D756EC8F526752796900111
:1027E000BB120C15FFAEF0C3956EEE956D500F90B9
:1027F00001E2E0601AC3EF9527EE952640119001A3
:1028000092E07002A3E070279001E204F080209033
:10281000002EE0B42005120E6C8006900192120E7C
:10282000A4E49001E2F0900190F0A3F0120E9390D6
:1028300001E2E0601190003BE090004DB4100474A0
:1028400010F0227420F0224389025395FD5396FD27
:102850004380021231677F0C122968CAEECACBEF9F
:10286000CB7F0C122968EF2BFFEE3AFE9002DFF0CF
:10287000A3EFF07C007D0F12151F9002DFEEF0A396
:10288000EFF01231A51215D245F0700A9002DFE088
:10289000FFA3E0CF803D1215D2FFAEF07C007D0893
:1028A0001217BEC8ECC8C9EDC9CAEECACBEFCB90AF
:1028B00002DFE0FEA3E0FFE4FCFDEB2FFFEA3EFEBB
:1028C000ED39FDEC38FCE47B09FAF9F812169012A8
:1028D00031A5EE8FF012163522787FE4F6D8FD751B
:1028E000816F022923020000022FCAE493A3F8E4B7
:1028F00093A34003F68001F208DFF48029E493A358
:10290000F85407240CC8C333C4540F4420C8834070
:1029100004F456800146F6DFE4800B01020408103F
:10292000204080902A5EE47E019360BCA3FF543F68
:1029300030E509541FFEE493A360010ECF54C02577
:10294000E060A840B8E493A3FAE493A3F8E493A367
:10295000C8C582C8CAC583CAF0A3C8C582C8CAC5CB
:1029600083CADFE9DEE780BECDEFCD43AD105399DA
:10297000EF439A10539BEF1231BC147E00C8EDC890
:10298000088005C333CE33CED8F9FF902EC4EEF0C5
:10299000A3EFF0902EC8EEF0A3EFF074101231B157
:1029A000902EC0E030E2F9902EC0E4F07402F07492
:1029B000201231B1902EC0E030E2F9902E00E0FEFE
:1029C000A3E0FF1231BC902EC4E4F0A3F0902EC817
:1029D000F0A3F0902EC0F0439910539AEF539BEF61
:1029E0005390EF229001A7E014601B14604324026F
:1029F000705D9001B1E0B4010A9001A7122A50D293
:102A000005D200C203227F02122E9EEF60077F02D2
:102A10001231CFC2059001B1E070349001A7740269
:102A2000F0D203C205C2007F031231CF7F03022C14
:102A3000BD7F03122E9EEF60167F031231CF9001EF
:102A4000B1E09001A77003F08003122A50C2032264
:102A50007401F07F021231CF7F02122CBD2241019E
:102A6000AB004101AC004101A8004101B0004201AE
:102A70001603E84101B200C102C101C1044101B124
:102A8000004101A700C103C100C1054102F000419E
:102A900002F1004202EB0000C10AC10CC10B41026D
:102AA000ED104101B3004101B510C106C109C108D3
:102AB00041024F00016F0002280000046500000081
:102AC000004101B41041025000C10D41001200004C
:102AD0002008062003033005123008067F017E001F
:102AE0008003E4FFFE122647C20822900198E0709E
:102AF00002A3E06005120DBE703A200003122B9F66
:102B00001228477F01123027121CD59002DAEEF00E
:102B1000A3EFF07B017A0279DA122D5B9002DA12D0
:102B20000D7D120C2D120CC312087E1227A7120F56
:102B300027121E90122B3822900116E07004A3E099
:102B4000640170119001B2E07004D28A04F0E49044
:102B50000116F0A3F090004DE0FC9001B4E06C6031
:102B60003D90004DE0FE9001B4F090001EE0900119
:102B7000B0F0540FF0EEB42005E04420800AECB42D
:102B8000100B9001B0E04410F090001EF0C28AE4F7
:102B90009001B2F09001167403F0A374E8F02230B3
:102BA0000B5FC20B902E42E0FFA3E09002DECFF05D
:102BB000A3EFF01230ADE56F902E42B4010C120C71
:102BC000B7EF24E8FFEE3403800A120CB7EF24A419
:102BD000FFEE34069002DCF0A3EFF09002DCE0F9A7
:102BE000A3E0FF9001D6120C2D120CC3120D4B90D6
:102BF00002DEE0FFA3E0902E42CFF0A3EFF0120D33
:102C000014229002DA7408F0A3E4F0A3743FF0A356
:102C100074DFF0E4FDFCF9758A10538AEF0090022E
:102C2000DAE0FEA3E02DF582EE3CF583E493FF6944
:102C3000F90DBD00010CBC37E5BDDFE29002DC12EE
:102C4000313BE493699002EE700912313BA37407A3
:102C5000F0800612313BA3E4F0758A50538AEF00EE
:102C600022900189E024FE6013146023146027245D
:102C70000370499001897402F0122DDB7F017E0000
:102C80001226479001897403F0E49001A8F0229085
:102C900001897404F0221229E4122D0E1229E49005
:102CA0000218E07004A3E06401700C900218F0A315
:102CB000F09001897402F0E490019DF0229002DA14
:102CC000EFF0E024D1123147E060037F012290024F
:102CD000DAE0FF24D11231477401F0EF12314FE4F2
:102CE00093FE740193FFE4FCFD902F60E0F8A3E0F5
:102CF000F9A3E0FAA3E02FFFEA3EFEED39EC3890AD
:102D000002DAE012315BEEF0A3EFF07F0022120D49
:102D1000BE702990024FE07003120D1490024F74A0
:102D200001F090003CE0B42008122AD01212238057
:102D30000312305590019C7401F0801CE490024F06
:102D4000F090003CE0B42005122AD08003123055E8
:102D500090019CE06002E4F00231879002DCEBF02D
:102D6000A3EAF0A3E9F090018CE07002A3E07031D7
:102D70009001E4E0602BE49001E4F0122847120D8A
:102D8000147508017F01123027121CD59002DC1245
:102D90000C2D120E380508E508C3940F40E6120EFC
:102DA0006C22F582E43CF583EFF022A42440F58206
:102DB000E5F0342EF583229002EEE0FEA3E022241B
:102DC0001AF582E43EF58322A3F0A37401F0A32256
:102DD00074672FF582E43400F58322120E932200EB
:102DE0000701AB33E4FF300A169002EEE0FCA3E0EB
:102DF000F5828C83E0FE54F0FFEE540FF0C20A22FD
:102E0000029103060A180DA00EA60FFF0C020BFF7D
:102E100023F724072504070127002A0028002B0098
:102E200029012C012D042E042F0426040770021101
:102E300003060A100D400E800FFF0C020BFF23F457
:102E400024042504070127102A1028042B04290331
:102E50002C032D202E202F1026200000758B119082
:102E60002F647440F0E4FEE4FFEF75F003A42463E4
:102E7000F582E43402F583E5822EF582E43583F5AC
:102E800083E4F00FEFB40AE10EEEB403DA7F0990A9
:102E900002D1E4F0A3DFFC902F647480F022CBEF2A
:102EA000CB123144E06036902F60A3A3E0FEA3E094
:102EB000FFEB12315BE0FCA3E0FDD39FEC9E501DC5
:102EC000C3EF9DFFEE9CFEEB12314FC37401939F45
:102ED000E4939E4008123144E4F07F01227F0022F7
:102EE000758A50538AEF9000157411F09000147495
:102EF00022F09000167433F0E4F5AB75AC1DF5AD1F
:102F0000F5AF7589FF75913C7599FFF59675931C22
:102F1000F59BF595F592F59AD28A9001B204F0D21C
:102F20000E22122DB7F5828E83A3E0B4AA03122CD1
:102F300002122DB7FF122DBFE0B41008EF122DBF03
:102F4000E4F0D208122DB72413122DC1E0FFB41003
:102F5000069001B17401F0EFB42005E49001B1F0E6
:102F60002200000000FFFFFFFF0000FFFFFFFFFF48
:102F7000FFFFFFFF00FF000000FFFF000000FFFF5A
:102F8000FFFFFFFFFF00000000FFFFFFFFFFFFFF4D
:102F9000FFFFFF00000000120D4B120EABF0FF749C
:102FA000672FF582E43400F583E0FEEF25E024008E
:102FB000F582E4342EF583E49324C0F582E4342EC4
:102FC000F583EEF00FEFB416D62212084E1230FA47
:102FD00053A87F122EE0120866122FF943A8801220
:102FE0000873900112E060069001897401F0122DBF
:102FF000E4122F22122C6180F59002EEE0FFA3E094
:103000009002F2CFF0A3EFF0E4F5DA75DA4043DA9C
:103010002075D74675D64675DA5875D90143A90883
:1030200075B80875F808229002DFEFF0122F97E4C8
:10303000F5099002DFE0FFE509C39F50071218175A
:10304000050980EE902EC0E4F012229E9001B6EEAB
:10305000F0A3EFF022E4F5B2F5BA758D20438D2090
:10306000538D7F53AAF7F58BE5DB20E211200D0E7F
:10307000E4F58A758703000000758A50D208758BC5
:1030800011229002E4120D49902EC27411F0E56FE6
:10309000902EC7B40104740180027470F0902ECA9F
:1030A0007418F0902EC47480F0A3E4F022120CAADD
:1030B00053997F122F97902E42E4F0A374FFF012E1
:1030C00008037F011223AF438902120CB043800230
:1030D0004399802201F40028002801F4009603E8B7
:1030E00001F403E81770006403E800320258025844
:1030F000012C01F403E8271000C85391FC4392030C
:103100007F40208804EF4402FF208904EF4404FF3D
:10311000EF64466005E4F5DA80FE900012EFF022DD
:10312000E0FEA3E0FF241BF582E43EF58322A3E04A
:10313000FCA3E02FF582E43CF58322E0FEA3E0F55A
:10314000828E832274D12BF582E43402F58322250A
:10315000E024E8F582E43430F5832225E02451F5BB
:1031600082E43402F583221231BC902EC77474F0CD
:10317000902ECD74C0F0A374FFF0A3F0902EC37412
:1031800001F0902ECAF022E5B230E005E5AA20E079
:1031900013E490019EF075B28E75B6F9F5B743B29F
:1031A0000143AA01229001D3E0FBA3E0FAA3E0F9D6
:1031B00022902EC2F0902EC07419F022902EC0746E
:1031C00002F022EE30E707C3E49FFFE49EFE227484
:1031D000D12F123147E4F022D2AF32D2AF320231D6
:1031E0008700000000000000000000000000000058
:1031F00000000000000000000000000000000000CF
:1032000000000000000000000000000000000000BE
:1032100000000000000000000000000000000000AE
:10322000000000000000000000000000000000009E
:103FD0000000000000000000000000000000002FB2
:103FE00000000000000000000000000000000000D1
:103FF00000000000000000000000000000000000C1
:00000001FF
