:1007E000006F000000040000C74600000000000089
:1007F00000000000000000000000000000000000F9
:1008000078FFE4B8200118F6D8F99000007F007E48
:1008100007E4F0A3DFFCDEFA7581720229E1122001
:10082000271226389002217401F02202331C74AA88
:100830007583F5758255A574557583FA7582AAA5D9
:1008400074A57583F5758255A5220002242A90406F
:100850007FE493FF64326003EF7002002253A87FAD
:100860000080FD021E56EE30E707C3E49FFFE49EC2
:10087000FE2274CC2F123278E4F022023319208A3F
:1008800003020CF5900224E07002A3E06003020C66
:10089000F5900222E07002A3E06003020CF59001E3
:1008A00071E07002A3E06003020CF512160F600302
:1008B000020CF5900134E0703090011F121472FFA9
:1008C000AEF090010D121472D39FE5F09E4003022A
:1008D0000CF5121589E490017DF0A3F01216CC906E
:1008E00002281216EDF56F8003756F00757014E421
:1008F000F5B2F5BA900181E0F557A3E0F558900103
:1009000081E0F524A3E0F525900165E0F571A3E011
:10091000F572900163E0F522A3E0F523C209758D1D
:1009200020438D20758D8043AA08D2AF758B027548
:100930008EAF20062412160F701F200C1CE5DB2042
:10094000E217758AC4200C0DE5DB20E208758703E9
:100950000000008006D2098002D209758B11758AC9
:100960005053AAF7D3900223E09490900222E0948F
:1009700001400EA3E02470F0900222E034FEF080EB
:1009800007E4900222F0A3F0D390022FE09490901D
:10099000022EE09401400EA3E02470F090022EE0BD
:1009A00034FEF08007E490022EF0A3F0122CA49005
:1009B0000125121472FFAEF0900191EEF0A3EFF05A
:1009C000C390018EE09FFF90018DE09EFE120866AD
:1009D00090019D12148A1215694389021214E5438D
:1009E000800212313F900055E075F006A4902EC3AE
:1009F000F0A3E4F0A3F01214DF53997F1232271210
:100A00001557902EC0E030E2F9121557902EC0E035
:100A100030E2F9902EC0E4F0AE71AF72FC7D0312AB
:100A20000DEC902E02121660CEC313CE13D8F9F53A
:100A3000728E714389021214E5438002121554909C
:100A40002EC0E030E2F9121557902EC0E030E2F9E6
:100A5000902EC0E4F0AE22AF23FC7D03120DEC908B
:100A60002E1E121660CEC313CE13D8F9F5238E2294
:100A7000E5722527FFE5713526FEC3EF9523F54B7B
:100A8000EE9522F54AAE24AF25CBEFCBCAEECAEBEA
:100A9000254BFFEA354A121708120FC18E248F2505
:100AA000121686E5259FE5249E40048E248F25900E
:100AB0002EC4E4F0439980900167E524F0A3E52576
:100AC000F0C3E5589525FFE5579524FE1208668E7C
:100AD000598F5A1217514003020CCBAE24AF257C1C
:100AE000007D1012101112175BAF6EAE6DAD6CACC5
:100AF0006B9002D51214C8FBD3120FB09002D540F0
:100B00001712155E956EFFEE956DFEED956CFDEC82
:100B1000956BFC12175B8007120FE000000000E4E9
:100B20007F607EEAFDFC9002D51214C8FBD3120F41
:100B3000B0400A9002D5120FE00000EA6090013444
:100B4000E0701A12146FFFAEF07C007D09121011D4
:100B50009002D51214C87B0A12151880079002D58E
:100B600012155EFF12175B900134E07036AE57AF7E
:100B700058FC7D091214B5E4FCFDEB2525FFEA3590
:100B800024121510E47B0A1215248E578F589002F8
:100B9000D512148012152A1215D712148A12152A8A
:100BA000020CCB1215D712148A12152A90011012BA
:100BB0001472FFAEF09002D51214C5FBD3120FB021
:100BC0005003020CDB12145E121636FE12169E4003
:100BD00003020CDB12145E121636FEE4FCFDC8ECB8
:100BE000C8EDC0E0EEC0E0EFC0E090010D1214725D
:100BF000FFD0E0FBD0E0FAD0E0F9EF2BFFE5F03AD0
:100C0000121510E47B0212152490010D12148A12A1
:100C1000156990010D121472D39430E5F09475406B
:100C200008747575F030120EAD90018BE06063D3DF
:100C3000900190E0940090018FE094004054900166
:100C40000D121472FF90018F12172DE5F09CFE1209
:100C500008669002D9EEF0A3EFF090010D12147225
:100C60001214D395F0501012166D400B121487F920
:100C7000E475F005120E7590010D121472FFD31277
:100C800014D595F0400CD312166D4006121487123D
:100C90001737900185E0D394004030121653502B43
:100CA000900110121472FF9001ADE0245A1215FF4A
:100CB00012146FD39FE5F09E400E12148775F02832
:100CC00012174724281215C412174020090D1217B5
:100CD00051500812160F700302091E90018AE00499
:100CE000121492E49001631214F090013504F09014
:100CF00002261215A322E709F608DFFA8046E70963
:100D0000F208DFFA803E88828C83E709F0A3DFFADD
:100D10008032E309F608DFFA8078E309F208DFFAA7
:100D2000807088828C83E309F0A3DFFA8064898273
:100D30008A83E0A3F608DFFA805889828A83E0A3D9
:100D4000F208DFFA804C80D280FA80C680D48069B5
:100D500080F28033801080A680EA809A80A880DAB2
:100D600080E280CA803389828A83ECFAE493A3C844
:100D7000C582C8CCC583CCF0A3C8C582C8CCC58306
:100D8000CCDFE9DEE7800D89828A83E493A3F6084D
:100D9000DFF9ECFAA9F0EDFB2289828A83ECFAE014
:100DA000A3C8C582C8CCC583CCF0A3C8C582C8CCB3
:100DB000C583CCDFEADEE880DB89828A83E493A303
:100DC000F208DFF980CC88F0EF60010E4E60C38836
:100DD000F0ED2402B4040050B9F582EB2402B4040F
:100DE0000050AF2323458223900D4673EF8DF0A46E
:100DF000A8F0CF8CF0A428CE8DF0A42EFE22C2D570
:100E0000EC30E709B2D5E4C39DFDE49CFCEE30E78D
:100E100015B2D5E4C39FFFE49EFE12106AC3E49DA1
:100E2000FDE49CFC800312106A30D507C3E49FFFE9
:100E3000E49EFE22C5F0F8A3E028F0C5F0F8E582B4
:100E4000158270021583E038F022BB010A89828A7C
:100E500083E0F5F0A3E022500687F009E71922BBF2
:100E6000FE07E3F5F009E3192289828A83E493F50A
:100E7000F074019322BB010789828A83020E3450E9
:100E80000B09C5F027F7C5F01937F722BBFE0D098E
:100E9000F8E325F0F3C5F019E338F322F889828AE4
:100EA0008374019325F0C5F0F8E4933822BB010A5E
:100EB00089828A83F0E5F0A3F0225006F709A7F0B3
:100EC0001922BBFE06F3E5F009F3192275F0087547
:100ED0008200EF2FFFEE33FECD33CDCC33CCC58275
:100EE00033C5829BED9AEC99E58298400CF582EE31
:100EF0009BFEED9AFDEC99FC0FD5F0D6E4CEFBE419
:100F0000CDFAE4CCF9A88222B800C1B90059BA00E0
:100F10002DEC8BF084CFCECDFCE5F0CBF97818EF3B
:100F20002FFFEE33FEED33FDEC33FCEB33FB10D73C
:100F300003994004EB99FB0FD8E5E4F9FA227818FD
:100F4000EF2FFFEE33FEED33FDEC33FCC933C91058
:100F5000D7059BE99A4007EC9BFCE99AF90FD8E08A
:100F6000E4C9FAE4CCFB2275F010EF2FFFEE33FE5C
:100F7000ED33FDCC33CCC833C810D7079BEC9AE8CF
:100F800099400AED9BFDEC9AFCE899F80FD5F0DA50
:100F9000E4CDFBE4CCFAE4C8F922EB9FF5F0EA9E3D
:100FA00042F0E99D42F0EC6480C864809845F022EC
:100FB000EB9FF5F0EA9E42F0E99D42F0E89C45F097
:100FC00022E8600FECC313FCED13FDEE13FEEF13EC
:100FD000FFD8F122ECF0A3EDF0A3EEF0A3EFF022A6
:100FE000A8828583F0D083D082120FF7120FF712F8
:100FF0000FF7120FF7E473E493A3C583C5F0C5831D
:10100000C8C582C8F0A3C583C5F0C583C8C582C85A
:1010100022EC8EF0A4CCC5F0CCCDF8EFA4CEC5F078
:101020002DFDE43CFCE8A42EC8C5F03DFDE43CFCED
:10103000EFA4FFE5F028FEE43DFDE43CFC22EF4E8A
:101040006012EF60010EEDBB010B89828A83F0A371
:10105000DFFCDEFA2289F05007F709DFFCA9F02255
:10106000BBFEFCF309DFFCA9F022BC000BBE00298B
:10107000EF8DF084FFADF022E4CCF875F008EF2F8F
:10108000FFEE33FEEC33FCEE9DEC984005FCEE9D4C
:10109000FE0FD5F0E9E4CEFD22EDF8F5F0EE842068
:1010A000D21CFEADF075F008EF2FFFED33FD4007C9
:1010B000985006D5F0F222C398FD0FD5F0EA22121F
:1010C000145EFDACF0D39FEC9E40329001101214E0
:1010D00072121712D3EF9430EE9475400C9002D731
:1010E0007475F0A37430F0800D12146912163690E6
:1010F00002D7F0A3EFF0E49001A502116E12146F75
:10110000FFAEF0900110121472FDACF0C39FFFEC23
:101110009EFED3EF9410EE9427400C9002D77427D4
:10112000F0A37410F0801212146FFFC3ED9FFEEC59
:1011300095F09002D7F0A3CEF09002D7E0FFA3E0A5
:101140009001A5CFF0A3EFF0300018D3E0942C90DD
:1011500001A5E0940140139001A77427F0A3741037
:10116000F08007E49001A7F0A3F0E49002D7F0A389
:10117000F0900134E0605F1214F8C39488EE64804C
:10118000949350069001847420F0D312163D401DB4
:101190009001041215829002D8E09F9002D7E09E41
:1011A000400B900228E4F0A37464F0801BD39002FB
:1011B00029E09400900228E09400400C90010D1268
:1011C00014729002D7121598D20B90022E7403F06D
:1011D000A374E8F080179001847420F090022C74BE
:1011E00001F0A374F4F07A00794C1214A61214F8EA
:1011F000D312163E500302143490010D12148A12B9
:101200001569C39002D8E094C89002D7E064809436
:10121000805007E4900188F0A3F0900188E0FEA3DD
:10122000E0FF9002D8E02FF09002D7E03EF0E0FE21
:10123000A3E0FF121726E47BB87A88F9F8C3120FEF
:101240009A500A9002D77488F0A374B8F0D3900231
:101250002BE0940090022AE09400500790001BE0DD
:10126000B420181214F8C39496EE64809480500B46
:1012700012163D402F7C007D0A801E300026900112
:1012800034E070209001ACE0FCA3E0FD1214F8C340
:101290009DEE9C500F7C007D64120DFE9002D7EEF7
:1012A000F0A3EFF0900134E0700302140E90022CD2
:1012B000E07002A3E0600302140E1214F812172665
:1012C000E54F2FF54FE54E3EF54EE54D3DF54DE52D
:1012D0004C3CF54C0551E55170020550C3E5559461
:1012E000F4E554940150030213B0AE50AF51CBEF6C
:1012F000CB121542AF4FAE4EAD4DAC4C120F089015
:1013000002D9EEF0A3EFF0C3E5539FFFE5529EFE36
:101310001208669002DBEEF0A3EFF0D39432EE9465
:10132000005006E5534552700C9002D9E0F552A3E7
:10133000E0F553806AD39002DAE095539002D9E049
:101340009552402912157F9450EE94005051D3EFDE
:10135000943CEE94004004740A800BD3EF9428EE82
:101360009400403B74052553F553E4802E12157FFD
:101370009450EE94005028D3EF943CEE9400400A31
:1013800074F62553F55374FF8011D3EF9428EE942F
:1013900000400C74FB2553F55374FF3552F552E4AD
:1013A000F54FF54EF54DF54CF550F551F554F55515
:1013B000D3E5539400E5529400402A9002D8E0957A
:1013C00053FF9002D7E09552FE12086612171C5088
:1013D000081216C0E4F556800CE556C39403500578
:1013E0001216C00556E5DB20E23D9001161214727C
:1013F000FFAEF07D0F1214B31214F8121726EB7B18
:101400001012151890011612148AF9EE8014E5DBFB
:1014100020E2149002D7E0F9A3E0FF900116121425
:101420008AC98FF0120EAD90011612147224A8FF13
:10143000E5F0801D90010D12148A1215EE90011630
:1014400012148A1215EE9002D8E024A8FF9002D759
:10145000E03461F990011312148A12152A229001C6
:1014600010E0FBA3E0FAA3E0F9120E4AFFAEF09001
:10147000010AE0FBA3E0FAA3E0F9020E4A9001366C
:10148000A3A3E0F9A3E0FF900110E0FBA3E0FAA31F
:10149000E022F07E007F057D007B007A00795B1200
:1014A000103E7A0079607E007F0B7D007B00021089
:1014B0003E7D037C00121011C8ECC8C9EDC9CAEE0C
:1014C000CACBEFCB22E4FCFDE0F8A3E0F9A3E0FAFD
:1014D000A3E022FFC3900190E09F90018FE02243A0
:1014E000AB025389FD5395FD5396FD2290018DE487
:1014F000F0A3F0A3F0A3F0229002D7E0FEA3E0FF58
:1015000022A3F0A37401F0A322F9EB2FFFEA35F038
:10151000FEED39FDEC38FC222FFFEA3EFEE93DFDF1
:10152000E83CFCE4FAF9F8020F08C98FF0020EADAE
:10153000E50A25E02428F8E6FE08E622A3E0FEA35B
:10154000E0FBCAEECAE4F9F8229002247402F0A388
:101550007458F0221231FC902EC07419F022E0FC75
:10156000A3E0FDA3E0FEA3E022F9EE8FF0020EADB2
:10157000902E427D14E0FEA3E0FF7C00020DEC9073
:1015800002DBE0FEA3E0FFD3227F087A0179367EFA
:10159000007D007B0102103EFFE5F0F0A3EFF0229A
:1015A0009001ACE4F0A374C8F022902EC07402F055
:1015B00022E50D25E02475F582E43401F583E0FE93
:1015C000A3E0FF22F0900186E03400F0E0FFA3E00A
:1015D000A3CFF0A3EFF0229002D5A3A3E0F9A3E0FC
:1015E000FF90010A22900108E0FCA3E0FD22F9E44B
:1015F000F5F0020EADE4F50EF50DF50CF50B22FD40
:101600009001ACE03400FCED2FFFEC35F0FE2290B1
:10161000001BE06420229002267402F0A374BCF048
:10162000229002DDE0FEA3E0FF22AB0EAA0DA90C82
:10163000A80BD3020FB0C39FFFE5F09E22EF9400EA
:10164000EE64809480229002D8E0940A9002D7E061
:10165000940022900187E094DC900186E0940522BA
:10166000E0FCA3E02FFFEC3EFEEF7802229002DACE
:10167000E0940A9002D9E0940022902EE7F0902E98
:10168000EAF0902EE822E5272488FFE5263413FEB1
:10169000D322900108E0FFA3E090017BCF22D390FA
:1016A00001ADE09F9001ACE09E22900167E566F0FD
:1016B000A3E567F02225E02428F8A60F08A610224B
:1016C0009002D7E552F0A3E553F022E490022AF00D
:1016D000A3F022900104E4F0A37496F022F974615F
:1016E00075F0A8020EAD90003A7410F022F0A3F04D
:1016F000900230F0A3F022902EC4E4F0A322FEEF7B
:101700002401FFE43EC31322FEE433FDE433FC78FE
:101710000122FFC3ED9FFFEC95F0FE22C3EF945032
:10172000EE6480948022EE3395E0FDFC22E0FCA381
:10173000E0FDC3EF9DFF22F974FF75F0FB020E750B
:101740009001857464F022F9E4120E75900187E02F
:1017500022C3E55A9570E559956F229002D5020F84
:10176000D41215AA1216F7F053997FF50BF50CF564
:101770000DF50EF50A1232271214DF121557902EAE
:10178000C0E030E2F9902EC0E4F04389021214E583
:10179000438002902E02E0FEA3E0250CF50CEE350E
:1017A0000BF50B121554902EC0E030E2F9902EC0CC
:1017B000E4F0902E1EE0FEA3E0250EF50EEE350DB2
:1017C000F50D050AE50AC3940640AA439980902EB8
:1017D000C5E4F0E527240CFFE52634FEFED3EF95A3
:1017E0000CEE950B4015900171E07002A3E07012B1
:1017F00090017104F0A374F4F08007E4900171F09B
:10180000A3F09001631215829400EE940040381208
:1018100014B1E4FCFDEB250EFFEA350D121510782E
:1018200002120FC18E0D8F0EA3E0FEA3E0FF121473
:10183000B1E4FCFDEB250CFFEA350B121510780224
:10184000120FC18E0B8F0CE50C2527FFE50B3526FB
:10185000FEC3EF950EF510EE950DF50F121686E509
:10186000109FE50F9E40048E0F8F10900161E50FD1
:10187000F0A3E510F0A3E50DF0A3E50EF0A3E50B52
:10188000F0A3E50CF0D390016EE0940090016DE0C0
:1018900094004071900134E0600F90010D121472B9
:1018A000C394A0E5F0940F5009E490016BF0A3F00D
:1018B0008053D390016CE0940090016BE094004061
:1018C0003090016DE0FEA3E0FF121A471214BE90A3
:1018D000016BE0FEA3E0FF7C007D03120DECEB2F1B
:1018E000FFEA3EFEEF7802CEC313CE13D8F9FF8095
:1018F0000C90016DE0FEA3E0FFC3121A4790016B4C
:10190000EEF0A3EFF0D390016CE0940A90016BE04D
:10191000940090016F40097428F0A37446F080078A
:101920007408F0A37410F0900161E0FFA3E090014F
:101930006DCFF0A3EFF0AF10AE0F12286F900167DC
:10194000EEF0A3EFF090001BE0B420031214A2907D
:101950000167E0FEA3E0FFE4FCFDE5632FF563E52E
:10196000623EF562ED3561F561EC3560F560056567
:10197000E56570020564C3E56994E8E56894034091
:101980002AAE64AF65CBEFCB121542AF63AE62AD4A
:1019900061AC60120F088E668F67E4F563F562F53F
:1019A00061F560F564F565F568F569D3E567940060
:1019B000E56694004074900168E09567FF900167C8
:1019C000E09566FE9002DBF0A3EFF090016FE0FD82
:1019D000FBC3E49BFBE49400FAD3EF9BEA6480F83A
:1019E000EE648098401BEDFF9002DCE09F7480F86D
:1019F0009002DBE064809850081216AAE4F56A8031
:101A0000299002DBE0FEA3E0FF120866900170E07F
:101A1000FDD3EF9D7480F86E984003756A03E56A04
:101A2000C3940350051216AA056A900167E0F548B1
:101A3000A3E0F54978287C007D007B007A00792AB4
:101A40007E007F20020DC6900162E09FFF90016141
:101A5000E09EFE120866229001931214C8FBE9C0B2
:101A6000E0EAC0E0EBC0E0900125121472FFE4FC54
:101A7000FDD0E0FBD0E0FAD0E012150990019312FE
:101A80000FD4900198E004F07006900197E004F004
:101A9000900199E07002A3E06003021C839001931F
:101AA00012155EFFEEC0E0EFC0E012153CD0E0FF83
:101AB000D0E0FE120F08900193120FD4900193A36F
:101AC000A3E0FFA3E0900191CFF0A3EFF0A3120FEA
:101AD000E000000000E4900197F0A3F0A3F0A374ED
:101AE000C8F0900222E07002A3E06003021C839021
:101AF000019BE07002A3E06003021C83900134E0CC
:101B00007003021BAA90018DE0FEA3E0FF4E70223D
:101B1000900191E0FDA3E090018DCDF0A3EDF09058
:101B2000010D121472FD90018FE5F0F0A3EDF002AB
:101B30001BB190019112172DEE9CFE1208669001C8
:101B40009D12148A12156990018BE0702690019DF8
:101B5000121472C3940DE5F09400500F90010D1211
:101B60001472FF90018F121599801E90018B7401E1
:101B7000F0801690019D121472C39402E5F0940057
:101B800050071214EC90018BF09001911215829085
:101B9000018EE09F90018DE09E4007E490018CF063
:101BA000800F90018C7401F080071214EC90018B6F
:101BB000F090018BE07003021C8390018F1215825C
:101BC0009400EE94005003021C8390010D121472D5
:101BD000121636FE1208669002D7EEF0A3EFF0A3BD
:101BE000E4F0A37464F090010D121472FFAEF0D310
:101BF0001214D59E40159002D9E0FCA3E0FDD390CD
:101C000002D8E09D9002D7E09C501A1214D49E5046
:101C10003A9002D9E0FEA3E0FF9002D8E09F900244
:101C2000D7E09E4026E490018BF090018DF0A3F068
:101C300090010D1214721214D395F090019B74014F
:101C4000F0A3742CF0E490018CF02290010D12149A
:101C500072FFD31214D595F0400CD31216464006ED
:101C600012148712173790010D1214721214D395A3
:101C7000F05010121646400B121487F9E475F00567
:101C8000120E752290017DE0FEA3E0FFC39404EEE6
:101C90009400502A1215E5EF25E0FFEE33FE74752F
:101CA0002FF58274013EF583ECF0A3EDF090017EF8
:101CB000E004F0700690017DE004F0021DF8750D5F
:101CC000011215B1E50D25E02473F582E43401F528
:101CD00083EEF0A3EFF0050DE50DB404E4900134BC
:101CE000E07003021D9E900110121472FFAEF012FC
:101CF00015E5D39FEC9E5003021DF1ED9FFFEC9E76
:101D0000FED3EF94F4EE94015003021DF1A31214DC
:101D1000721217129002DAF0A3EFF012086612178F
:101D20001C5063E49002DCF0A3F09002DAE0FEA322
:101D3000E0FF120866D3EF9432EE64809480402571
:101D4000D39002DBE094009002DAE064809480900B
:101D500002DC4008E4F0A37405F0801074FFF0A3E7
:101D600074FBF08007E49002DCF0A3F012146FFF24
:101D70009002DDE02FFE9002DCE035F090017BF078
:101D8000A3CEF0021DF8121692F0A3EFF09001AA74
:101D9000E004F070069001A9E004F0021DF81214AE
:101DA0006FFF1215E5C3EF9DFFE5F09CFE1208667C
:101DB000C3EF9428EE648094805036900110121482
:101DC00072FFC3900109E09FFF900108E095F0FECB
:101DD000120866C3EF9414EE64809480500590015D
:101DE00010800390010A121472FF90017BE5F080CD
:101DF00003121692F0A3EFF0E4F50CF50BF50AF5DB
:101E000009F50DD390017EE0950D90017DE09400E1
:101E1000401E1215B1E4FCFDE50C2FF50CE50B3E60
:101E2000F50BED350AF50AEC3509F509050D80D3FA
:101E3000AF0CAE0BAD0AAC09EEC0E0EFC0E0900114
:101E40007D12153DD0E0FFD0E0FE120F088F0C8E02
:101E50000B8D0A8C0922C0E0C083C082C0D0D2AFF3
:101E6000900235E004F0D3900223E0940090022227
:101E7000E09400400CA3E024FFF0900222E034FF45
:101E8000F0D3900225E09400900224E09400400CEE
:101E9000A3E024FFF0900224E034FFF0D390022767
:101EA000E09400900226E09400400CA3E024FFF0B0
:101EB000900226E034FFF0D3900229E094009002D3
:101EC00028E09400400CA3E024FFF0900228E034C6
:101ED000FFF0D390022BE0940090022AE09400409F
:101EE0000CA3E024FFF090022AE034FFF0D390022C
:101EF00033E09400900232E09400400CA3E024FF11
:101F0000F0900232E034FFF0D3900231E094009080
:101F10000230E09400400CA3E024FFF0900230E097
:101F200034FFF0D390022DE0940090022CE0940056
:101F3000400CA3E024FFF090022CE034FFF090016D
:101F400085E0D394014003E014F0900184E0D39441
:101F5000004003E014F0C3E56994E8E56894035099
:101F6000080569E56970020568C3E55594F4E55410
:101F7000940150080555E55570020554D390019A17
:101F8000E09400900199E09400400CA3E024FFF05D
:101F9000900199E034FFF0D390019CE0940090010F
:101FA0009BE09400400CA3E024FFF090019BE03400
:101FB000FFF0D3900172E09401900171E094004031
:101FC0000CA3E024FFF0900171E034FFF0D3900205
:101FD0002FE0940090022EE09400400CA3E024FF38
:101FE000F090022EE034FFF0D39001A8E09400902E
:101FF00001A7E09400400CA3E024FFF09001A7E0CB
:1020000034FFF0D39001AFE094019001AEE0940072
:10201000400CA3E024FFF09001AEE034FFF0D0D0FC
:10202000D082D083D0E0327E007FFF7D007B017ABA
:1020300000790412103E9002E97400F0A37404F0D9
:102040009001D57401F0A37400F0A374B8F090016E
:10205000DB7401F0A37400F074AC1230F67400F07D
:10206000A37494F09001D87401F0A37400F0A374E9
:10207000C6F09001E17401F0A37400F074D2123044
:10208000F67400F0A3741F1230F77401F0A3740209
:10209000F0902DE0E493FF9002E9E0FCA3E0FDF571
:1020A000828C83A3EFF0900002E0FFED2404123055
:1020B000D0900001E0FFED24051230D0900003E045
:1020C000FFED24061230D0902DE2E493FFED2412B0
:1020D0001230D0902DE3E493FFED24141230D09011
:1020E00001EA7401F0A37400F0A3743CF0E4FF75FE
:1020F000F002EFA42401F582E5F0342EF583E49399
:10210000FE74542FF582E43400F583EEF0EF25E001
:10211000242DF582E4342EF583E493FE1230FEEE96
:10212000F01230FEE0FEEF25E0242CF582E4342EA0
:10213000F583E49324C0F582E4342EF583EEF00FAA
:10214000EFB416AB902F56E0900058F0902F56E069
:1021500090006EF0902F56E0900059F0902F56E0CE
:1021600090006FF09000FF7401F09000FEF090007E
:102170003A7410F090001BF0900028F0A37420F047
:102180009002227413F0A37488F022900134E0606E
:1021900076121589121616900184E07025A3E0705E
:1021A0002190010D121472D39488E5F0941340121B
:1021B000900183E0FF04F0EFD39428400A12174007
:1021C0008005E4900183F0900185E06401600302E2
:1021D00022ECC312165340030222EC900110121499
:1021E00072FF9001ADE024321215FF12146FD39FDD
:1021F000E5F09E400E12148775F00A121747240A64
:102200001215C412174022E49001851214F0A3F0B5
:10221000900183F09001361214C8FBE9C0E0EAC0D7
:10222000E0EBC0E012146FFFE4FCFDD0E0FBD0E077
:10223000FAD0E0121509900136120FD490013BE05C
:1022400004F0700690013AE004F0900226E070027B
:10225000A3E060030222EC90013612155EFFEEC08F
:10226000E0EFC0E012153CD0E0FFD0E0FE120F0816
:10227000900136120FD49001101214722432FFE430
:1022800035F0FE9001361214C5FBD3120FB0403961
:10229000900222E07002A3E0702F200B2C90013DF1
:1022A000E004F0700690013CE004F0D390013DE0C2
:1022B000940590013CE09400401E12147D12152AF2
:1022C000E490013CF0A3F0800F12147D12152AE473
:1022D00090013CF0A3F0C20B900136120FE0000019
:1022E0000000E490013AF0A3F0121616221215F540
:1022F000F515F516852811852912852813852914C9
:10230000F50A121530FFD3E5149FE5139E40078EA2
:10231000138F14850A16C3E5129FE5119E50078E90
:10232000118F12850A15050AE50AB410D5E4F50FD8
:10233000F510F50AE516650A602EE515650A6028B0
:10234000E510450F7010E50A25E02428F8E6F50FA2
:1023500008E6F51080121215302510FFE50F3E1229
:1023600016FEF50FEF13F510050AE50AB410C59037
:102370000181E50FF0A3E510F0E516C3940D5005BB
:10238000E5161216B5E515C3940D5005E5151216A0
:10239000B51215F5F50A121530FFC3E5109FFFE5DC
:1023A0000F9EFE120866D3EF941EEE648094804068
:1023B0000FE4FCFDE50E2510F50EE50D350F800F41
:1023C000121530FFE4FCFDE50E2FF50EE50D3EF590
:1023D0000DED350CF50CEC350BF50B050AE50AC3D4
:1023E000941040B2AF6EAE6DAD6CAC6B12162A405D
:1023F0001AE50E956EF50EE50D956DF50DE50C954E
:102400006CF50CE50B956BF50B80031215F5E47F6D
:10241000607EEAFDFC12162A400BE4750E60750D15
:10242000EAF50CF50BAE0DAF0E22C0E0C083C08202
:10243000C0D0ECC0E0EDC0E0EEC0E0EFC0E0D2AF55
:10244000E5DB30E419D20CC208E5DB30E102802E76
:102450009002E8E5DFF09002EBE4F002252EE5DBE8
:1024600030E50FD206300805C20802252EC20C0244
:10247000252EC208E5DB30E140E5DB30E0109002BC
:10248000ECE0FF04F01232F9E0F5DF02252E9002B5
:10249000ECE0FFB40819208A16D28A90024A74012F
:1024A000F09002E9E0FCA3E024071232FFE4F0EF31
:1024B000641A707AD20702252E9002EBE0700EA308
:1024C000E5DFF09002EB7401F0D20880619002EC3D
:1024D000E090310993FFB4FF089002E8E5DFF08057
:1024E00047EF640F70299002ECE0FFA3E0FCA3E04B
:1024F000FD1232FEE0540FF09002ECE0FF04F0ED2C
:102500001232FEE0FFE5DF54F0FEEF4EF0801F9048
:1025100002ECE0FF1232F9E5DFF0EFB4240A90029A
:10252000247401F0A374F4F09002ECE004F075DB85
:10253000FFD0E0FFD0E0FED0E0FDD0E0FCD0D0D076
:1025400082D083D0E0329002DBEFF09002E0E4F042
:10255000A374FFF0E4A3F0A3F0A304F0A374FFF0CE
:10256000902EC07402F0902EC37408F0E49002DC48
:10257000F0A3F09002DCE0FEA3E0FFC39409EE9428
:10258000004003022635EF9407EE940040067E00DB
:102590007F0180199002DCA3E004FFE47E01C8EF14
:1025A000C8088006CEA2E713CE13D8F8FF9002DE4B
:1025B000EEF0A3EFF0902EC07419F0902EC0E03032
:1025C000E2F99002DBE0FF75F002A424001230E58E
:1025D000E0FCA3E0FD902EC07402F0D3ED94FFEC7C
:1025E000940F40179002DEE0FCA3E0FD75F002EFCF
:1025F0001230E2EC8DF0120E3480299002DBE0758F
:10260000F0021230E2C083C082E0FEA3E0FF90023D
:10261000DEE0FCA3E0FDC3EF9DFFEE9CD082D08303
:10262000F0A3EFF09002DDE004F070069002DCE031
:1026300004F00225737F00227FA37A017908121526
:102640008F90010A7401F0A37400F0744412150114
:102650007400F074461215017400F0A3744812154A
:10266000027400F0A374321215027400F0A3742EE9
:102670001215027400F0A3742CF09001257401F07F
:10268000A37400F0A37426F090019D7401F0A3746C
:1026900000F0A374841215027400F0A37486F09005
:1026A00001287401F0A37400F0A3741C12150274C5
:1026B00000F0A37422F090011C7401F0A37400F0E8
:1026C000A374361215027400F0A3742A1215027452
:1026D00000F0A37438F01215A090011C12148AF9AE
:1026E000E475F0C8120EAD90011F12148AF9E4755A
:1026F000F064120EAD1216D390012212148AF9E47E
:1027000075F096020EAD9002D7EEF0A3EF12149280
:102710009002D7E07002A3E06003122915122CA4E6
:10272000E490017DF0A3F07F10123175121549A3DA
:102730001216199001851214EFA3F0900108E0F928
:10274000A3E0FFA312148A12152A90010D12148A15
:102750001215EE90011312148A1216DD9001161252
:10276000148A1215EE90011912148A1216DD12162F
:10277000E6E4900134F0900136120FE00000000012
:10278000E490013A1214F090010812148212152AF2
:10279000E4900135F09002321216ED90022EF0A373
:1027A000F0FE7F12FD7B017A01798B12103E9001C1
:1027B000251214729001911215989001991215A387
:1027C00022D3900223E09400900222E09400400380
:1027D00002286E3000299001A7E07002A3E090016A
:1027E000AC6009740BF0A374B8F080077405F0A313
:1027F00074DCF09001047405F0A37414F0800612E8
:1028000015A01216D390010D121472FFAEF012161D
:102810009E4013900134E0601ED3900105E09F902C
:102820000104E09E501190022AE07002A3E070279C
:1028300090013404F0802090001BE0B420051216B3
:10284000CB800690022A1215A3E4900134F0900286
:1028500028F0A3F01216E6900134E06011900028F1
:10286000E090003AB410047410F0227420F022902A
:1028700002DDEEF0A3EFF0E55E455D700C9002DD49
:10288000E0F55DA3E0F55E80169002DEE0255EFFD8
:102890009002DDE0355D1216FEF55DEF13F55E0585
:1028A0005FE55FD3940A400D855D5B855E5CE4F572
:1028B0005DF55EF55FD3E55C9400E55B9400405107
:1028C0009002DEE0955CFF9002DDE0955BFE120871
:1028D00066C3EF940AEE64809480AE5BAF5C5015E3
:1028E0001214B1121621E4FCFDEB2FFFEA3E121583
:1028F0001078028011CBEFCBCAEECA121621EB2F53
:10290000FFEA3E121708120FC19002DDEEF0A3EFAE
:10291000F0121621227F01122EA9902E42E0FEA372
:10292000E024B1FFEE34FE9002D9F0A3EFF01214D0
:10293000DF53997F12313F1232271215AA902EC30E
:1029400014F0121557902EC0E030E2F9902EC0E43A
:10295000F0902E027D181215758E268F277D10128D
:102960001011EF24E0F56EEE34B1F56DED34FFF5A6
:102970006CEC34FFF56B4389021214E5438002438B
:102980009980902EC5E4F0900107E0900021F012AC
:102990001570EF2490FFEE341AF990012812148A72
:1029A000C98FF0020EAD0231D0E493A3F8E493A3F3
:1029B0004003F68001F208DFF48029E493A3F85481
:1029C00007240CC8C333C4540F4420C8834004F404
:1029D00056800146F6DFE4800B0102040810204017
:1029E00080902B16E47E019360BCA3FF543F30E53A
:1029F00009541FFEE493A360010ECF54C025E0608C
:102A0000A840B8E493A3FAE493A3F8E493A3C8C559
:102A100082C8CAC583CAF0A3C8C582C8CAC583CA4A
:102A2000DFE9DEE780BE90023FE014601B146043E4
:102A30002402705D900249E0B4010A90023F122A1C
:102A400092D205D200C203227F0212308EEF6007BD
:102A50007F02120872C205900249E0703490023F72
:102A60007402F0D203C205C2007F031208727F0312
:102A7000022E587F0312308EEF60167F0312087209
:102A8000900249E090023F7003F08003122A92C244
:102A900003227401F07F021208727F02122E582264
:102AA000CDEFCD43AD105399EF439A10539BEF9068
:102AB0002EC07402F0147E00C8EDC8088005C33330
:102AC000CE33CED8F9FF902EC4EEF0A3EFF0902EC7
:102AD000C8EEF0A3EFF074101232CF902EC0E030A9
:102AE000E2F9902EC0E4F07402F074201232CF901C
:102AF0002EC0E030E2F9902E00E0FEA3E0FF902E21
:102B0000C4E4F0A3F0902EC0F0439910539AEF5311
:102B10009BEF5390EF22C10C41024300410244005D
:102B200041024000410248004201AE03E841024A2E
:102B300000C102C101C1044102490041023F00C17C
:102B400003C100C1054102EB004102EC004202E674
:102B50000000C106C108C1074102E810410103009D
:102B600041010710C10BC10A4101AB000226000060
:102B7000046B000000004101061041024B00009070
:102B800001AEE07004A3E06401701190024AE070AD
:102B900004D28A04F0E49001AEF0A3F090003AE091
:102BA000FC900106E06C603D90003AE0FE9001066A
:102BB000F090000BE0900248F0540FF0EEB42005C6
:102BC000E04420800AECB4100B900248E04410F07E
:102BD00090000BF0C28AE490024AF09001AE7403B8
:102BE000F0A374E8F0229002D57408F0A3E4F0A3F7
:102BF000743FF0A374DFF0E4FDFCF9758A10538A8A
:102C0000EF009002D5E0FEA3E02DF582EE3CF583C7
:102C1000E493FF69F90DBD00010CBC37E5BDDFE2AF
:102C20009002D7123306E493699002E970091233D7
:102C300006A37404F08006123306A3E4F0758A50EC
:102C4000538AEF0022200A06200303300509E4FF1F
:102C5000FE122706C20A22900230E07002A3E06052
:102C60000512160F703A200003123009122CA47FAF
:102C700001123175121C849002D5EEF0A3EFF07BA7
:102C8000017A0279D5122F3A9002D51215DC12146E
:102C90008A12152A1210BF1227C1121A5712218B3D
:102CA000122B7F224389025395FD5396FD438002E8
:102CB0001232987F0C122AA0CAEECACBEFCB7F0C3F
:102CC000122AA0EF2BFFEE3A9002DBF0A3EFF09078
:102CD0000125E0FBA3E0FAA3E0F9120E4A45F070EB
:102CE000051232BB8015120E4AFD1232BBFEEF2DCB
:102CF000FFEE35F0C313FEEF13FFEE8FF0120EADB3
:102D000022900221E024FE60131460231460272423
:102D10000370499002217402F01233157F017E0086
:102D20001227069002217403F0E4900240F02290F2
:102D300002217404F022122A26122EF2122A269060
:102D40000171E07004A3E06401700C900171F0A3C4
:102D5000F09002217402F0E4900235F0221230EE7D
:102D6000F5828E83A3E0B4AA03122BE61230EEFFA5
:102D70001230D9E0B41008EF1230D9E4F0D20A12C0
:102D800030EEFF241B1230DBE0700DEF241C1230FC
:102D9000DBE0B41003122FC61230EE24131230DB26
:102DA000E0FFB410069002497401F0EFB42005E48E
:102DB000900249F0229002E9E0FFA3E09002EDCFFB
:102DC000F0A3EFF0E4F5DA75DA4043DA2075D74086
:102DD00075DA5875D90143A90875B80875F808223D
:102DE0000402AB6FE4FF3006169002E9E0FCA3E0BA
:102DF000F5828C83E0FE54F0FFEE540FF0C2062201
:102E0000029103040A140DA00EA60FFF0C020BFF83
:102E100023F7240625040701270E2A0E28082B086D
:102E200029032C032D082E082F082608021103065B
:102E30000A100D400E800FFF0C020BFF23F4240438
:102E40002504070127102A1028042B0429032C032A
:102E50002D202E202F1026209002D5EFF0E024CC3C
:102E6000123278E060037F01229002D5E0FF24CC8B
:102E70001232787401F0EF123280E493FE74019301
:102E8000FFE4FCFD902F60E0F8A3E0F9A3E0FAA3D3
:102E9000E02FFFEA3EFEED39EC389002D5E0123229
:102EA0008CEEF0A3EFF07F0022CDEFCD1214DF12F5
:102EB000313FED601C53997F1231FC902E5EE4F09F
:102EC000A374FFF07F0F122546902EC4E4F04399BF
:102ED0008053997F902E42E4F0A374FFF0123227C2
:102EE0007F011225464389021214E543800243996B
:102EF000802212160F70299001ABE0700312154961
:102F00009001AB7401F0900029E0B42008122C4528
:102F100012087E80031231A39002347401F08017EE
:102F2000E49001ABF0900029E0B42003122C45900E
:102F30000234E06002E4F00232DB9002D7EBF0A34F
:102F4000EAF0A3E9F0900224E07002A3E07031906F
:102F50000135E0602BE4900135F0122CA4121549E4
:102F60007508017F01123175121C849002D712146A
:102F70008A1215690508E508C3941040E61216CBBD
:102F800022758A50538AEF9000027411F09000016C
:102F90007422F09000037433F0E4F5AB75AC1DF5CA
:102FA000ADF5AF7589FF75913F7599FFF5967593EE
:102FB0001CF59BF595F592F59A5388FCD28A900200
:102FC0004A04F0D20D2212082EE4F5F275F30875CA
:102FD000EEFF75EF3F75EA81F5F675EB0700E5EC5E
:102FE00030E7FBE4F5EC9002E9E0FEA3E0FF241BF0
:102FF000F582E43EF583E5F3F0EF241CF582E43E30
:10300000F583E5F2F075EB302230073FC207902ED2
:1030100042E0FFA3E09002D7CFF0A3EFF0E4FF126D
:103020002EA9121570EF2490FFEE341AFE9001289D
:1030300012148A1215691215AA9002D7E0FFA3E0B4
:10304000902E42CFF0A3EFF012154922758B11900C
:103050002F647440F0E4FEE4FFEF75F003A4245EF7
:10306000F582E43402F583E5822EF582E43583F5BA
:1030700083E4F00FEFB40AE10EEEB403DA7F0990B7
:1030800002CCE4F0A3DFFC902F647480F022CBEF3D
:10309000CB123275E06036902F60A3A3E0FEA3E070
:1030A000FFEB12328CE0FCA3E0FDD39FEC9E501DA1
:1030B000C3EF9DFFEE9CFEEB123280C37401939F21
:1030C000E4939E4008123275E4F07F01227F0022D3
:1030D000F582E43CF583EFF022241AF582E43EF514
:1030E0008322A42440F582E5F0342EF58322900259
:1030F000E9E0FEA3E022A3F0A37401F0A322746A26
:103100002FF582E43400F5832200000000FFFFFF6A
:10311000FF0000FFFFFFFFFFFFFFFFFF00FF0000BA
:1031200000FFFF000000FFFFFFFFFFFFFF000000A8
:1031300000FFFFFFFFFFFFFFFFFFFF000000001287
:1031400015AA1216F7F0FF74542FF582E43400F537
:1031500083E0FE75F002EFA42400F582E5F0342E42
:10316000F583E49324C0F582E4342EF583EEF00F6A
:10317000EFB416D3229002DAEFF012313FE4F509F2
:103180009002DAE0FFE509C39F50071217610509B5
:1031900080EE902EC0E4F01222ED900108EEF0A334
:1031A000EFF022E4F5B2F5BA758D20438D20538DF2
:1031B0007F53AAF7F58BE5DB20E211200C0EE4F536
:1031C0008A758703000000758A50D20A758B112218
:1031D00012084E53A87F122F8112081E122DB543DC
:1031E000A88012330F9000FFE06006900221740166
:1031F000F0122DE4122D5D122D0180F51215AA900A
:103200002EC27411F0902EC77470F0902ECA7413F1
:10321000F0740412167A7402F0902EEBF0902EC423
:103220007480F0A3E4F0221215AA902EC27491F0DB
:10323000902EC77401F0902ECA7414F0740E1216FA
:103240007A7408F0902EEBF01216F77402F0220157
:10325000F40028002801F4009603E801F403E817BD
:1032600070006403E8003202580258012C01F40394
:10327000E8271000C874CC2BF582E43402F58322D1
:1032800025E02463F582E43432F5832225E0244CE2
:10329000F582E43402F58322902EC07402F0902E61
:1032A000C77474F0902ECD74C0F0A374FFF0A3F037
:1032B000902EC37401F0902ECAF0229002DCE0C47C
:1032C000F8540FC868FF9002DBE0C454F048229025
:1032D0002EC2F0902EC0E04419F022E5B230E00595
:1032E000E5AA20E013E4900236F075B28E75B6F9C7
:1032F000F5B743B20143AA0122A3E0FCA3E02FF5F6
:1033000082E43CF58322E0FEA3E0F5828E83221264
:10331000331F02304C1216E622D2AF32D2AF320245
:1033200032DB000000000000000000000000000090
:10333000000000000000000000000000000000008D
:10334000000000000000000000000000000000007D
:10335000000000000000000000000000000000006D
:10336000000000000000000000000000000000005D
:103FD0000000000000000000000000000000001EC3
:103FE00000000000000000000000000000000000D1
:103FF00000000000000000000000000000000000C1
:00000001FF
