:1007E0000067000000020000951C000000000000EF
:1007F00000000000000000000000000000000000F9
:1008000078FFE4B8200118F6D8F99000007F007E48
:1008100007E4F0A3DFFCDEFA7581700222C4121A2D
:10082000891220509001747401F022022BDC74AA0A
:100830007583F5758255A574557583FA7582AAA5D9
:1008400074A57583F5758255A52200021E48904057
:100850007FE493FF64326003EF7002002253A87FAD
:100860000080FD021906EE30E707C3E49FFFE49E17
:10087000FE2274B72F122B28E4F022022BD9E709AD
:10088000F608DFFA8046E709F208DFFA803E888240
:100890008C83E709F0A3DFFA8032E309F608DFFA78
:1008A0008078E309F208DFFA807088828C83E3099C
:1008B000F0A3DFFA806489828A83E0A3F608DFFA76
:1008C000805889828A83E0A3F208DFFA804C80D2C4
:1008D00080FA80C680D4806980F28033801080A640
:1008E00080EA809A80A880DA80E280CA8033898298
:1008F0008A83ECFAE493A3C8C582C8CCC583CCF044
:10090000A3C8C582C8CCC583CCDFE9DEE7800D89EA
:10091000828A83E493A3F608DFF9ECFAA9F0EDFBF1
:100920002289828A83ECFAE0A3C8C582C8CCC58339
:10093000CCF0A3C8C582C8CCC583CCDFEADEE88092
:10094000DB89828A83E493A3F208DFF980CC88F004
:10095000EF60010E4E60C388F0ED2402B404005035
:10096000B9F582EB2402B4040050AF23234582235F
:100970009008CE73EF8DF0A4A8F0CF8CF0A428CE11
:100980008DF0A42EFE22C2D5EC30E709B2D5E4C327
:100990009DFDE49CFCEE30E715B2D5E4C39FFFE477
:1009A0009EFE120BF2C3E49DFDE49CFC8003120B3F
:1009B000F230D507C3E49FFFE49EFE22C5F0F8A302
:1009C000E028F0C5F0F8E582158270021583E03862
:1009D000F022BB010A89828A83E0F5F0A3E022506D
:1009E0000687F009E71922BBFE07E3F5F009E319D2
:1009F0002289828A83E493F5F074019322BB010774
:100A000089828A830209BC500B09C5F027F7C5F01B
:100A10001937F722BBFE0D09F8E325F0F3C5F019ED
:100A2000E338F322F889828A8374019325F0C5F0B4
:100A3000F8E4933822BB010A89828A83F0E5F0A3A7
:100A4000F0225006F709A7F01922BBFE06F3E5F0E5
:100A500009F3192275F008758200EF2FFFEE33FEBF
:100A6000CD33CDCC33CCC58233C5829BED9AEC9986
:100A7000E58298400CF582EE9BFEED9AFDEC99FC28
:100A80000FD5F0D6E4CEFBE4CDFAE4CCF9A882226F
:100A9000B800C1B90059BA002DEC8BF084CFCECD8F
:100AA000FCE5F0CBF97818EF2FFFEE33FEED33FDC8
:100AB000EC33FCEB33FB10D703994004EB99FB0FAD
:100AC000D8E5E4F9FA227818EF2FFFEE33FEED3384
:100AD000FDEC33FCC933C910D7059BE99A4007ECFC
:100AE0009BFCE99AF90FD8E0E4C9FAE4CCFB227543
:100AF000F010EF2FFFEE33FEED33FDCC33CCC833D7
:100B0000C810D7079BEC9AE899400AED9BFDEC9A38
:100B1000FCE899F80FD5F0DAE4CDFBE4CCFAE4C8B0
:100B2000F922EB9FF5F0EA9E42F0E99D42F0EC6479
:100B300080C864809845F022EB9FF5F0EA9E42F071
:100B4000E99D42F0E89C45F022E8600FECC313FCFD
:100B5000ED13FDEE13FEEF13FFD8F122ECF0A3ED41
:100B6000F0A3EEF0A3EFF022A8828583F0D083D02B
:100B700082120B7F120B7F120B7F120B7FE473E448
:100B800093A3C583C5F0C583C8C582C8F0A3C58338
:100B9000C5F0C583C8C582C822EC8EF0A4CCC5F0D0
:100BA000CCCDF8EFA4CEC5F02DFDE43CFCE8A42E9E
:100BB000C8C5F03DFDE43CFCEFA4FFE5F028FEE4F1
:100BC0003DFDE43CFC22EF4E6012EF60010EEDBBF8
:100BD000010B89828A83F0A3DFFCDEFA2289F050C0
:100BE00007F709DFFCA9F022BBFEFCF309DFFCA933
:100BF000F022BC000BBE0029EF8DF084FFADF02287
:100C0000E4CCF875F008EF2FFFEE33FEEC33FCEE8A
:100C10009DEC984005FCEE9DFE0FD5F0E9E4CEFD7D
:100C200022EDF8F5F0EE8420D21CFEADF075F00850
:100C3000EF2FFFED33FD4007985006D5F0F222C3A9
:100C400098FD0FD5F0EA22208A03020FD090017799
:100C5000E07002A3E06003020FD0900207E0700290
:100C6000A3E06003020FD012115B6003020FD0906B
:100C700001CCE070309001B7120FE5FFAEF09001AB
:100C8000A5120FE5D39FE5F09E4003020FD012108E
:100C90004BE4900213F0A3F01211C490017B1211E7
:100CA000DBF56B8003756B00756C64E4F5B2F5BA27
:100CB000900217E0F557A3E0F558C209758D20435F
:100CC0008D20758D8043AA08D2AF758B02758EAFCB
:100CD00020062412115B701F200C1CE5DB20E2179C
:100CE000758AC4200C0DE5DB20E20875870300003F
:100CF000008006D2098002D209758B11758A505383
:100D0000AAF7D3900176E09490900175E0940140A9
:100D10000EA3E02470F0900175E034FEF08007E44B
:100D2000900175F0A3F0D3900182E094909001813E
:100D3000E09401400EA3E02470F0900181E034FEC5
:100D4000F08007E4900181F0A3F01229CE900055C5
:100D5000E075F006A4902EC3F0A3E4F0A3F0121007
:100D60003E53997F122BBB12113B902EC0E030E214
:100D7000F9902EC0E4F0902E02E0F56DA3E0F56E40
:100D8000438902121044438002121138902EC0E0B1
:100D900030E2F91211EFF522A3E0F523E4256EFF0E
:100DA000E56D3424FEC3EF9523F525EE9522F52459
:100DB000D3E5259488E524943740067524377525B6
:100DC00088902EC4E4F0439980900205E524F0A3B6
:100DD000E525F0C3E5589525FFE5579524FE120853
:100DE000668E598F5A1212024003020FA9AE24AF29
:100DF000257C007D12120B9912120C7FE07E397D4A
:100E0000027C009002C0121008FBD3120B38900233
:100E1000C040171210FB94E0FFEE9439FEED9402EF
:100E2000FDEC9400FC12120C8007120B680000000D
:100E300000E47F607EEAFDFC9002C0121008FBD344
:100E4000120B38400A9002C0120B680000EA6012D0
:100E50000FE2FFAEF07C007D09120B999002C012E8
:100E600010082FFFEA3EFEE93DFDE83CFC12118927
:100E700012120C9001CCE07033AE57AF58FC7D09D4
:100E8000121128E4FCFDEB2525FFEA352412106D34
:100E90001211898E578F589002C0120FF312102A28
:100EA0001210ED120FFD12102A020FA91210ED12EE
:100EB0000FFD12102A9001A8120FE5FFAEF090026C
:100EC000C0121005FBD3120B385003020FB9120FDA
:100ED000D1121154FEC3EF9570EE956F5003020FBF
:100EE000B99001A5120FE5FFAEF07C007D02120B58
:100EF00099C8ECC8EDC0E0EEC0E0EFC0E0120FD141
:100F0000121154FEE4FCFDD0E0FBD0E0FAD0E0F991
:100F1000EB2FFFEA3E12106D7B0312118B9001A59F
:100F2000120FFD1210AA9001A5120FE5D39430E51F
:100F3000F094754008747575F030120A3590021AF5
:100F4000E0606612116C40619001A5120FE512116C
:100F500054FE1208669002C4EEF0A3EFF09001A5D3
:100F6000120FE5FFC312103250199002C5E094141D
:100F70009002C4E09400400B120FFAF9E475F005FA
:100F80001209FD90021BE060209001A5120FE512EE
:100F900010304015D39002C5E094289002C4E0942C
:100FA000004006120FFA1211F920090D1212025018
:100FB0000812115B7003020CBC900219E0041211BC
:100FC000101210139001CD7401F09001791211925A
:100FD000229001A8E0FBA3E0FAA3E0F91209D2FFF6
:100FE000AEF09001A2E0FBA3E0FAA3E0F90209D27F
:100FF0009001CEA3A3E0F9A3E0FF9001A8E0FBA33A
:10100000E0FAA3E022E4FCFDE0F8A3E0F9A3E0FAB3
:10101000A3E0227A0079607E007F0B7D007B0002D6
:101020000BC6A3F0A37401F0A322C98FF0020A3506
:10103000D3FF90021FE09F90021EE095F02243AB89
:10104000025389FD5395FD5396FD227F087A01795D
:10105000CE7E007D007B01020BC6E50A25E024263A
:10106000F8E6FE08E622F9EB2FFFEA35F0FEED394F
:10107000FDEC38FC229001777402F0A37458F02242
:10108000A3E0FEA3E0FBCAEECAE4F9F822902EC06A
:101090007402F0902EC27412F0902EC77401F0907A
:1010A0002EC422F9E4F5F0020A35F9EE8FF0020AB7
:1010B00035902E42E0FEA3E0FF7C007D14120974FF
:1010C0009001C022E50D25E0240BF582E43402F501
:1010D00083E0FEA3E0FF229002C2E0FEA3E0FF2235
:1010E000900220E0FCA3E0FDC3EF9DFF229002C030
:1010F000A3A3E0F9A3E0FF9001A222E0FCA3E0FD9E
:10110000A3E0FEA3E02290021CF0A3F0A3F0A32230
:10111000F07E007F057D007B007A00795B020BC6C4
:10112000FFE5F0F0A3EFF022120B99C8ECC8C9ED6F
:10113000C9CAEECACBEFCB22122BC5902EC07419B0
:10114000F0227403F0A374E8F022E4F50EF50DF537
:101150000CF50B22C39FFFE5F09E2290001BE0647C
:101160002022D3EF9414EE648094802290021EE03B
:10117000FEA3E0FFD39400EE940022902EC07402F0
:10118000F0902EC4E4F0A3F0227B0AE4FAF9F8020E
:101190000A90E4F0A374C8F022AB0EAA0DA90CA823
:1011A0000BD3020B387402F0A374BCF0229002053A
:1011B000E566F0A3E567F02225E02426F8A60F08EF
:1011C000A61022E490017DF0A3F022F9746175F07D
:1011D000A8020A3590003A7410F022F0A3F09001B2
:1011E00083F0A3F022FEEF2401FFE43EC31322901C
:1011F0002EC0E4F0902E1EE022F974FF75F0FB0281
:1012000009FDC3E55A956CE559956B229002C00221
:101210000B5C900222121008FBE9C0E0EAC0E0EB90
:10122000C0E09001BD120FE5FFE4FCFDD0E0FBD073
:10123000E0FAD0E0121066900222120B5C900227B6
:10124000E004F07006900226E004F0900228E070BE
:1012500002A3E060030213DD9002221210FBFFEEF6
:10126000C0E0EFC0E0121080D0E0FFD0E0FE120A34
:1012700090900222120B5C900222A3A3E0FFA3E055
:10128000900220CFF0A3EFF0A3120B680000000043
:10129000E490022612110974C8F0900175E0700202
:1012A000A3E060030213DD9001CCE0700302136C35
:1012B00090021CE0FEA3E0FF4E7022900220E0FDB1
:1012C000A3E090021CCDF0A3EDF09001A5120FE574
:1012D000FD90021EE5F0F0A3EDF00213551210E0B0
:1012E000EE9CFE12086690022E120FFD1210AA90BC
:1012F000021AE0702690022E120FE5C3940EE5F05C
:101300009400500F9001A5120FE5FF90021E1211DC
:1013100021802090021A7401F0801890022E120F82
:10132000E5C39402E5F094005009E4121106F09030
:10133000021AF0900220E0FEA3E0FFD390021DE02D
:101340009F90021CE09E4007E490021BF0800690F4
:10135000021B7401F0E490022AF0A3F0900234F032
:10136000900231120FFD1210A30213DD90022AE049
:10137000FEA3E0FF4E7015900220E0FDA3E0900276
:101380002ACDF0A3EDF0A312114280511210E0EE2D
:101390009CFE120866900231120FFD1210AA9002F4
:1013A0002CE07002A3E07035900231120FE5D39467
:1013B00019E5F09400400C90022C7413F0A374888B
:1013C000F0800BE4900234F090022C121142900253
:1013D00020E0FFA3E090022ACFF0A3EFF09001CC31
:1013E000E07008121106F090021AF022120FD1FDDF
:1013F000ACF0D39FEC9E40349001A8120FE5FFC3E0
:10140000ED9FFFEC95F0FED3EF9430EE9475400D18
:101410009002C27475F0A37430F002146F120FDCE6
:101420001211549002C2F0A3EFF08043120FE2FFBA
:10143000AEF09001A8120FE5FDACF0C39FFFEC9E4B
:10144000FED3EF9410EE9427400C9002C274D8F0B3
:10145000A374F0F08012120FE2FFC3ED9FFEEC9533
:10146000F09002C2F0A3CEF0E49002C2F0A3F0909C
:1014700001CCE060501210D7D39400EE64809480C9
:10148000401A9001BA120FE5FDD3EF9DEE95F040A2
:101490000B90017BE4F0A37464F0801BD390017C7B
:1014A000E0940090017BE09400400C9001A5120FA5
:1014B000E59002C2121120D20B900181740FF0A3AB
:1014C00074A0F0800D90017F1211427A00794C12C5
:1014D0001017D39002C3E094009002C2E06480949D
:1014E000805003021596E0F9A3E0FF9001A5120FCA
:1014F000FD12102A1210D7EE3395E0FDFCE47BB804
:101500007A88F9F8C3120B22500A9002C27488F04C
:10151000A374B8F0D390017EE0940090017DE09434
:1015200000500790001BE0B4201D1210D7C3949602
:10153000EE648094805010EF9400EE6480948040BC
:10154000257C007D0A801430001C1210D7C394A0A3
:10155000EE6480948F500F7C007D321209869002D9
:10156000C2EEF0A3EFF09001CCE0600C90017FE0C0
:101570007002A3E0700280009002C2E0F9A3E0FFD5
:101580009001AE120FFD12102A9001AE120FE52449
:10159000A8FFE5F0801D9001A5120FFD1210A39089
:1015A00001AE120FFD1210A39002C3E024A8FF9019
:1015B00002C2E03461F99001AB120FFD12102A2231
:1015C00012117B53997FF50BF50CF50DF50EF50A0D
:1015D000122BBB12103E12113B902EC0E030E2F9EC
:1015E000902EC0E4F0438902121044438002902EF2
:1015F00002E0FEA3E0250CF50CEE350BF50B121105
:1016000038902EC0E030E2F91211EFFEA3E0250E73
:10161000F50EEE350DF50D050AE50AC3940640B04A
:10162000439980902EC5E4F0D3740C950C742295E8
:101630000B4012900207E07002A3E0700F900207C7
:101640001211428007E4900207F0A3F0E4250CFF9A
:10165000E50B3424FEC3EF950EF510EE950DF50F56
:10166000D3E5109488E50F94374006750F37751051
:10167000889001FDE50FF0A3E510F0900201E50D63
:10168000F0A3E50EF0A3E50BF0A3E50CF0AF10AE70
:101690000F12211F900205EEF0A3EFF090001BE067
:1016A000B42003121013900205E0FEA3E0FFE4FC57
:1016B000FDE5632FF563E5623EF562ED3561F561A9
:1016C000EC3560F5600565E56570020564C3E569A4
:1016D00094E8E5689403402AAE64AF65CBEFCB1283
:1016E0001086AF63AE62AD61AC60120A908E668FF9
:1016F00067E4F563F562F561F560F564F565F56835
:10170000F569D3E5679400E56694004053900206BE
:10171000E09567FF900205E09566FE9002C6F0A393
:10172000EFF0D394F9EE6480947F4015E094079035
:1017300002C6E06480948050081211ADE4F56A801E
:101740001F9002C6E0FEA3E0FF120866121162407D
:1017500003756A03E56AC3940350051211AD056A67
:10176000900205E0F54AA3E0F54B78267C007D0069
:101770007B007A0079287E007F2402094E9001CCFC
:10178000E0700302181A12104B9001791211A59003
:10179000021AE0700302190512116C5003021905B8
:1017A0009001A5120FE5121154FE1208669002C2B4
:1017B000EEF0A3EFF0D39496EE9400400CE4900288
:1017C0001AF090021CF0A3F02290021BE06020901F
:1017D00001A5120FE51210304015D39002C3E0941A
:1017E000289002C2E094004006120FFA1211F990FC
:1017F00001A5120FE5C31210314003021905900232
:10180000C3E094149002C2E0940050030219051240
:101810000FFAF9E475F0050209FD9001CE121008E7
:10182000FBE9C0E0EAC0E0EBC0E0120FE2FFE4FC3D
:10183000FDD0E0FBD0E0FAD0E01210669001CE12AD
:101840000B5C9001D3E004F070069001D2E004F04C
:10185000900179E07002A3E060030219059001CEC7
:101860001210FBFFEEC0E0EFC0E0121080D0E0FFEE
:10187000D0E0FE120A909001CE120B5C9001A812EB
:101880000FE52432FFE435F0FE9001CE121005FB87
:10189000D3120B38403F900175E07002A3E0703521
:1018A000900234E0702F200B2C9001D5E004F070F2
:1018B000069001D4E004F0D39001D5E094059001A6
:1018C000D4E09400401E120FF012102AE49001D4CC
:1018D000F0A3F0800F120FF012102AE49001D4F060
:1018E000A3F0C20B9001CE120B6800000000E49040
:1018F00001D2F0A3F0900234E0900179600412115B
:1019000092221211A522C0E0C083C082C0D0D2AF03
:10191000900188E004F0D3900176E0940090017586
:10192000E09400400CA3E024FFF0900175E034FF48
:10193000F0D3900178E09400900177E09400400C9F
:10194000A3E024FFF0900177E034FFF0D390017A18
:10195000E09400900179E09400400CA3E024FFF0B3
:10196000900179E034FFF0D390017CE09400900185
:101970007BE09400400CA3E024FFF090017BE03476
:10198000FFF0D390017EE0940090017DE094004050
:101990000CA3E024FFF090017DE034FFF0D3900130
:1019A00086E09400900185E09400400CA3E024FFC1
:1019B000F0900185E034FFF0D3900184E094009032
:1019C0000183E09400400CA3E024FFF0900183E049
:1019D00034FFF0D3900180E0940090017FE0940008
:1019E000400CA3E024FFF090017FE034FFF0C3E55A
:1019F0006994E8E568940350080569E56970020593
:101A000068C3E55594E8E554940350080555E55539
:101A100070020554D3900229E09400900228E094CB
:101A200000400CA3E024FFF0900228E034FFF0D344
:101A300090022DE0940090022CE09400400CA3E072
:101A400024FFF090022CE034FFF0D3900208E094E1
:101A500001900207E09400400CA3E024FFF0900204
:101A600007E034FFF0D3900182E09400900181E020
:101A70009400400CA3E024FFF0900181E034FFF0DB
:101A8000D0D0D082D083D0E0327E007FFF7D007B3B
:101A9000017A007904120BC69002D27400F0A3748C
:101AA00004F09001287401F0A37400F0A374B8F05E
:101AB00090012E7401F0A37400F074AC12294C74E0
:101AC00000F0A37494F090012B7401F0A37400F063
:101AD000A374C6F09001347401F0A37400F074D2C2
:101AE00012294C7400F0A3741F12294D7401F0A345
:101AF0007402F0902DE0E493FF9002D2E0FCA3E0AA
:101B0000FDF5828C83A3EFF0900002E0FFED24044A
:101B1000122926900001E0FFED24051229269000ED
:101B200003E0FFED2406122926902DE2E493FFED59
:101B30002412122926902DE3E493FFED2414122998
:101B40002690013D7401F0A37400F0A3743CF0E40E
:101B5000FF75F002EFA42401F582E5F0342EF58341
:101B6000E493FE74542FF582E43400F583EEF0EF35
:101B700025E0242DF582E4342EF583E493FE12292A
:101B800054EEF0122954E0FEEF25E0242CF582E417
:101B9000342EF583E49324C0F582E4342EF583EEED
:101BA000F00FEFB416AB902F56E0900058F0902F46
:101BB00056E090006EF0902F56E0900059F0902F74
:101BC00056E090006FF09000FF7401F09000FEF07E
:101BD00090003A7410F090001BF0900028F0A3746D
:101BE00020F09001757413F0A37488F02212114A4A
:101BF000F515F516852611852712852613852714D8
:101C0000F50A12105AFFD3E5149FE5139E40078E84
:101C1000138F14850A16C3E5129FE5119E50078E97
:101C2000118F12850A15050AE50AB412D5E4F50FDD
:101C3000F510F50AE516650A602EE515650A6028B7
:101C4000E510450F7010E50A25E02426F8E6F50FAB
:101C500008E6F510801212105A2510FFE50F3E120B
:101C600011E5F50FEF13F510050AE50AB412C5905A
:101C70000217E50FF0A3E510F0E516C3940F500529
:101C8000E5161211B8E515C3940F5005E5151211AC
:101C9000B812114AF50A12105AFFC3E5109FFFE56A
:101CA0000F9EFE120866D3EF9419EE648094804074
:101CB0000FE4FCFDE50E2510F50EE50D350F800F48
:101CC00012105AFFE4FCFDE50E2FF50EE50D3EF572
:101CD0000DED350CF50CEC350BF50B050AE50AC3DB
:101CE000941240B27FE07E397D027C00121199404F
:101CF0001AE50E94E0F50EE50D9439F50DE50C941A
:101D000002F50CE50B9400F50B800312114AE47FF9
:101D1000607EEAFDFC121199400BE4750E60750DB2
:101D2000EAF50CF50BAE0DAF0E22900213E0FEA308
:101D3000E0FFC39404EE9400502F9001A0E0FCA3B8
:101D4000E0FDEF25E0FFEE33FE740B2FF582740209
:101D50003EF583ECF0A3EDF0900214E004F0700681
:101D6000900213E004F0021DEA750D011210C4E5A3
:101D70000D25E02409F582E43402F583EEF0A3EFAB
:101D8000F0050DE50DB404E4120FE2FF9001A0127E
:101D900010E3E5F09CFE120866C3EF9428EE648021
:101DA000948050379001CCE070239001A8120FE589
:101DB000FFC39001A1E09FFF9001A0E095F0FE120B
:101DC0000866C312116350059001A880039001A218
:101DD000120FE5FF900211E5F0800B9001A0E0FFEB
:101DE000A3E0900211CFF0A3EFF0E4F50CF50BF5B2
:101DF0000AF509F50DD3900214E0950D900213E059
:101E00009400401E1210C4E4FCFDE50C2FF50CE517
:101E10000B3EF50BED350AF50AEC3509F509050D14
:101E200080D3AF0CAE0BAD0AAC09EEC0E0EFC0E062
:101E3000900213121081D0E0FFD0E0FE120A908FC2
:101E40000C8E0B8D0A8C0922C0E0C083C082C0D0EA
:101E5000ECC0E0EDC0E0EEC0E0EFC0E0D2AFE5DB0B
:101E600030E419D20CC208E5DB30E102802E90028A
:101E7000D1E5DFF09002D4E4F0021F46E5DB30E567
:101E80000FD206300805C208021F46C20C021F46C8
:101E9000C208E5DB30E13AE5DB30E0109002D5E046
:101EA000FF04F0122BA5E0F5DF021F469002D5E0FB
:101EB000FFB40813208A10D28A9002D2E0FCA3E07B
:101EC0002407122BABE4F0EF641A707AD207021FDA
:101ED000469002D4E0700EA3E5DFF09002D47401C6
:101EE000F0D20880619002D5E090299893FFB4FF6A
:101EF000089002D1E5DFF08047EF640F702990026F
:101F0000D5E0FFA3E0FCA3E0FD122BAAE0540FF004
:101F10009002D5E0FF04F0ED122BAAE0FFE5DF54BC
:101F2000F0FEEF4EF0801F9002D5E0FF122BA5E5EA
:101F3000DFF0EFB4240A9001777401F0A374F4F099
:101F40009002D5E004F075DBFFD0E0FFD0E0FED0DA
:101F5000E0FDD0E0FCD0D0D082D083D0E03290023F
:101F6000C4EFF09002C9E4F0A374FFF0E4A3F0A37F
:101F7000F0A304F0A374FFF0902EC07402F0902E32
:101F8000C37408F0E49002C5F0A3F09002C5E0FE2F
:101F9000A3E0FFC39409EE9400400302204DEF94A8
:101FA00007EE940040067E007F0180199002C5A3D1
:101FB000E004FFE47E01C8EFC8088006CEA2E71364
:101FC000CE13D8F8FF9002C7EEF0A3EFF0902EC02A
:101FD0007419F0902EC0E030E2F99002C4E0FF7571
:101FE000F002A4240012293BE0FCA3E0FD902EC0E7
:101FF0007402F0D3ED94FFEC940F40179002C7E009
:10200000FCA3E0FD75F002EF122938EC8DF0120907
:10201000BC80299002C4E075F002122938C083C048
:1020200082E0FEA3E0FF9002C7E0FCA3E0FDC3EF67
:102030009DFFEE9CD082D083F0A3EFF09002C6E02B
:1020400004F070069002C5E004F0021F8B7F0022AE
:102050007F957A0179A01210519001A27401F0A32A
:102060007400F074441210227400F07446121022AE
:102070007400F0A374481210237400F0A374321299
:1020800010237400F0A3742E1210237400F0A374B4
:102090002CF09001BD7401F0A37400F0A37426F03D
:1020A00090022E7401F0A37400F0A3748412102324
:1020B0007400F0A37486F09001C07401F0A3740062
:1020C000F0A3741C1210237400F0A37422F090018A
:1020D000B47401F0A37400F0A374361210237400DA
:1020E000F0A3742A1210237400F0A37438F0756FF3
:1020F000007570C89001B4120FFDF9E56F8570F09E
:10210000120A359001B7120FFDF9E475F064120A56
:10211000359001BA120FFDF9E475F096020A359078
:1021200002C8EEF0A3EFF0E55E455D700C9002C8CA
:10213000E0F55DA3E0F55E80169002C9E0255EFF44
:102140009002C8E0355D1211E5F55DEF13F55E050F
:102150005FE55FD3940A400D855D5B855E5CE4F5C9
:102160005DF55EF55FD3E55C9400E55B9400405C53
:102170009002C9E0955CFF9002C8E0955BFE1208F2
:1021800066C3EF940AEE648094805028AE5BAF5C27
:102190007C007D031211289002C8E0FEA3E0FFE45A
:1021A000FCFDEB2FFFEA3E12106D7802120B4990F6
:1021B00002C880139002C9E0255CFF9002C8E03598
:1021C0005BC313FEEF13FFEEF0A3EFF09002C8E045
:1021D000FEA3E0FF229002C2EEF0A3EF12111090D6
:1021E00002C2E07002A3E060031224791225FCE42D
:1021F000900213F0A3F07F12122A00121075A3129E
:1022000011A59001A0E0F9A3E0FFA3120FFD1210A9
:102210002A9001A5120FFD1210A39001AB120FFD21
:102220001211CB9001AE120FFD1210A39001B1124A
:102230000FFD1211CB1211D4E49001CCF09001CE1D
:10224000120B6800000000E49001D2121109F09016
:1022500001A0120FF512102AE49001CDF090018533
:102260001211DB900181F0A3F0FE7F14FD7B017A57
:1022700002791A120BC69001BD120FE590022012CE
:10228000112090022812119222022A5BE493A3F8F3
:10229000E493A34003F68001F208DFF48029E4937D
:1022A000A3F85407240CC8C333C4540F4420C88374
:1022B0004004F456800146F6DFE4800B0102040876
:1022C000102040809026AEE47E019360BCA3FF54B2
:1022D0003F30E509541FFEE493A360010ECF54C0C4
:1022E00025E060A840B8E493A3FAE493A3F8E4934C
:1022F000A3C8C582C8CAC583CAF0A3C8C582C8CA54
:10230000C583CADFE9DEE780BE300008756F1B7544
:1023100070588006756F007570C89001A5120FE5A2
:10232000FFAEF0C39570EE956F50159001CCE06054
:10233000209001BA120FE5FDC3EF9DEE95F040111C
:1023400090017DE07002A3E070279001CC04F08042
:102350002090001BE0B420051211C3800690017D7F
:10236000121192E49001CCF090017BF0A3F01211D5
:10237000D49001CCE06011900028E090003AB410B5
:10238000047410F0227420F022900192E014601B7B
:102390001460432402705D90019CE0B4010A900136
:1023A000921223F5D205D200C203227F02122869BD
:1023B000EF60077F02120872C20590019CE0703442
:1023C0009001927402F0D203C205C2007F0312088A
:1023D000727F030227047F03122869EF60167F03D0
:1023E00012087290019CE09001927003F080031239
:1023F00023F5C203227401F07F021208727F0212D9
:10240000270422CDEFCD43AD105399EF439A1053DB
:102410009BEF902EC07402F0147E00C8EDC80880B7
:1024200005C333CE33CED8F9FF902EC4EEF0A3EF20
:10243000F0902EC8EEF0A3EFF07410122B0E902E39
:10244000C0E030E2F9902EC0E4F07402F074201283
:102450002B0E902EC0E030E2F9902E00E0FEA3E0BB
:10246000FF902EC4E4F0A3F0902EC0F043991053D7
:102470009AEF539BEF5390EF22122AB2902E42E034
:10248000FEA3E02493FFEE34FEFE121162400A9098
:102490002E427401F0A3746DF053997F122BC590F6
:1024A0002E5EE4F0A374FFF07F0F121F5E902E5E8D
:1024B000E0FEA3E0D394F0EE94014007902E5EE49A
:1024C000F0A3F0902EC4E4F0439980A3F090019F14
:1024D000E0900021F01210B1120FFDF9EE8FF00222
:1024E0000A359002C07408F0A3E4F0A3743FF0A38F
:1024F00074DFF0E4FDFCF9758A10538AEF00900256
:10250000C0E0FEA3E02DF582EE3CF583E493FF6985
:10251000F90DBD00010CBC37E5BDDFE29002C2122F
:102520002BB2E493699002D27009122BB2A3740209
:10253000F08006122BB2A3E4F0758A50538AEF00A4
:1025400022200A06200303300509E4FFFE1221D5EC
:10255000C20A22900183E07002A3E0600512115BC1
:10256000703A20000312295F1225FC7F01122A0015
:10257000121D2A9002C0EEF0A3EFF07B017A0279DF
:10258000C012279D9002C01210F2120FFD12102AE5
:102590001213EC12230912121212177D1228EB22C9
:1025A000900174E024FE6013146023146027240358
:1025B00070499001747402F0122BD57F017E0012D5
:1025C00021D59001747403F0E4900193F0229001FE
:1025D000747404F022122389122755122389900261
:1025E00007E07004A3E06401700C900207F0A3F010
:1025F0009001747402F0E4900188F0224389025340
:1026000095FD5396FD438002122B487F0C12240344
:10261000CAEECACBEFCB7F0C122403EF2BFFEE3AAE
:102620009002C5F0A3EFF0122B1AF91209D245F06F
:102630007006122AFFEE80181209D2FBAAF0122AA5
:10264000FFEF2BFFEE3AC313F9EF13FF122B1AC95A
:102650008FF0120A3522122944F5828E83A3E0B44A
:10266000AA031224E2122944FF12292FE0B4100811
:10267000EF12292FE4F0D20A122944FF241B122959
:1026800031E0700DEF241C122931E0B41003122741
:10269000E41229442413122931E0FFB410069001FA
:1026A0009C7401F0EFB42005E490019CF022C10C71
:1026B00041019600410197004101930041019B00B7
:1026C000C102C101C10441019C0041019200C1034A
:1026D000C100C1054102D4004102D5004202CF0031
:1026E00000C106C108C1074102D11041019D00414E
:1026F000019F10C10BC10A4102350041019E1041EA
:10270000023600009002C0EFF0E024B7122B28E060
:1027100060037F01229002C0E0FF24B7122B2874CF
:1027200001F0EF122B30E493FE740193FFE4FCFD03
:10273000902F60E0F8A3E0F9A3E0FAA3E02FFFEA0E
:102740003EFEED39EC389002C0E0122B3CEEF0A3D7
:10275000EFF07F002212115B7029900235E07003C8
:102760001210759002357401F0900029E0B4200831
:10277000122541120C478003122A2E900187740102
:10278000F08017E4900235F0900029E0B4200312A5
:102790002541900187E06002E4F0022B6B9002C2B9
:1027A000EBF0A3EAF0A3E9F0900177E07002A3E078
:1027B00070319001CDE0602BE49001CDF01225FC4A
:1027C0001210757508017F01122A00121D2A90024D
:1027D000C2120FFD1210AA0508E508C3941240E6C4
:1027E0001211C32212082EE4F5F275F30875EEFFFC
:1027F00075EF3F75EA81F5F675EB0700E5EC30E71C
:10280000FBE4F5EC9002D2E0FEA3E0FF241BF5828E
:10281000E43EF583E5F3F0EF241CF582E43EF58316
:10282000E5F2F075EB3022758B11902F647440F057
:10283000E4FEE4FFEF75F003A42449F582E43402DA
:10284000F583E5822EF582E43583F583E4F00FEF1E
:10285000B40AE10EEEB403DA7F099002B7E4F0A304
:10286000DFFC902F647480F022CBEFCB122B25E09D
:102870006036902F60A3A3E0FEA3E0FFEB122B3C99
:10288000E0FCA3E0FDD39FEC9E501DC3EF9DFFEE47
:102890009CFEEB122B30C37401939FE4939E40087F
:1028A000122B25E4F07F01227F0022758A50538A83
:1028B000EF9000027411F09000017422F090000378
:1028C0007433F0E4F5AB75AC1DF5ADF5AF7589FF6C
:1028D00075913F7599FFF59675931CF59BF595F5E8
:1028E00092F59A5388FCD28AD20D2290003AE0FCED
:1028F00090019EE06C602E90003AE0FE90019EF008
:1029000090000BE090019BF0540FF0EEB42005E036
:102910004420800AECB4100B90019BE04410F0902E
:10292000000BF0C28A22F582E43CF583EFF022240A
:102930001AF582E43EF58322A42440F582E5F034C2
:102940002EF583229002D2E0FEA3E022A3F0A3742E
:1029500001F0A322746A2FF582E43400F58322305B
:102960000735C207902E42E0FFA3E09002C2CFF0ED
:10297000A3EFF0122AB21210B1120FFD1210AA909A
:102980002EC07402F09002C2E0FFA3E0902E42CF6E
:10299000F0A3EFF01210752200000000FFFFFFFF10
:1029A0000000FFFFFFFFFFFFFFFFFF00FF00000031
:1029B000FFFF000000FFFFFFFFFFFFFF0000000020
:1029C000FFFFFFFFFFFFFFFFFFFF000000001211EE
:1029D0007BFF74542FF582E43400F583E0FE75F03C
:1029E00002EFA42400F582E5F0342EF583E493246D
:1029F000C0F582E4342EF583EEF00FEFB416D32247
:102A00009002C5EFF01229CEE4F5099002C5E0FF6F
:102A1000E509C39F50071215C0050980EE902EC02E
:102A2000E4F0121BED9001A0EEF0A3EFF022E4F52C
:102A3000B2F5BA758D20438D20538D7F53AAF7F5DB
:102A40008BE5DB20E211200C0EE4F58A758703008C
:102A50000000758A50D20A758B112212084E53A8B5
:102A60007F1228AB12081E122A8743A880122BCF90
:102A70009000FFE060069001747401F0122B89123F
:102A800026561225A080F59002D2E0FFA3E0900226
:102A9000D6CFF0A3EFF0E4F5DA75DA4043DA20752B
:102AA000D74075DA5875D90143A90875B80875F883
:102AB000082212103E53997F1229CE902E42E4F044
:102AC000A374FFF0122BBB7F01121F5E4389021219
:102AD00010444380024399802201F4002800280119
:102AE000F4009603E801F403E81770006403E800BB
:102AF0003202580258012C01F403E8271000C89054
:102B000002C5E0FEA3E0FF7C007D12020974902E56
:102B1000C2F0902EC0E04419F0229001BDE0FBA36A
:102B2000E0FAA3E02274B72BF582E43402F58322A5
:102B300025E024EDF582E4342AF5832225E02437CC
:102B4000F582E43402F58322902EC07402F0902EB8
:102B5000C77474F0902ECD74C0F0A374FFF0A3F08E
:102B6000902EC37401F0902ECAF022E5B230E00539
:102B7000E5AA20E013E4900189F075B28E75B6F9EC
:102B8000F5B743B20143AA0122E4FF3006169002D2
:102B9000D2E0FCA3E0F5828C83E0FE54F0FFEE541B
:102BA0000FF0C20622A3E0FCA3E02FF582E43CF57F
:102BB0008322E0FEA3E0F5828E832212108DE4F0E2
:102BC000A37402F02212108D7480F0A3E4F022129C
:102BD0002BDF0228271211D422D2AF32D2AF320219
:102BE0002B6B00000000000000000000000000004F
:102BF00000000000000000000000000000000000D5
:102C000000000000000000000000000000000000C4
:102C100000000000000000000000000000000000B4
:102C200000000000000000000000000000000000A4
:102C30000000000000000000000000000000000094
:102C40000000000000000000000000000000000084
:102C50000000000000000000000000000000000074
:102C60000000000000000000000000000000000064
:102C70000000000000000000000000000000000054
:102C80000000000000000000000000000000000044
:102C90000000000000000000000000000000000034
:102CA0000000000000000000000000000000000024
:102CB0000000000000000000000000000000000014
:102CC0000000000000000000000000000000000004
:102CD00000000000000000000000000000000000F4
:102CE00000000000000000000000000000000000E4
:102CF00000000000000000000000000000000000D4
:102D000000000000000000000000000000000000C3
:102D100000000000000000000000000000000000B3
:102D200000000000000000000000000000000000A3
:102D30000000000000000000000000000000000093
:102D40000000000000000000000000000000000083
:102D50000000000000000000000000000000000073
:102D60000000000000000000000000000000000063
:102D70000000000000000000000000000000000053
:102D80000000000000000000000000000000000043
:102D90000000000000000000000000000000000033
:102DA0000000000000000000000000000000000023
:102DB0000000000000000000000000000000000013
:102DC0000000000000000000000000000000000003
:102DD00000000000000000000000000000000000F3
:102DE0000200AB67000000000000000000000000CF
:102DF00000000000000000000000000000000000D3
:102E0000021203030A140DA00EB60FFF0C020BFFF3
:102E100023F724062504070127082A0828022B0285
:102E200029032C032D082E082F042608021103065F
:102E30000A100D400E800FFF0C020BFF23F4240438
:102E40002504070127102A1028042B0429032C032A
:102E50002D202E202F102620000000000000000052
:102E60000000000000000000000000000000000062
:102E70000000000000000000000000000000000052
:102E80000000000000000000000000000000000042
:102E90000000000000000000000000000000000032
:103FD000000000000000000000000000000000835E
:103FE00000000000000000000000000000000000D1
:103FF00000000000000000000000000000000000C1
:00000001FF
