:1007E000006C0000000800009D28000000000000D0
:1007F00000000000000000000000000000000000F9
:1008000078FFE4B8200118F6D8F99000007F007E48
:1008100007E4F0A3DFFCDEFA7581700229B9121F2C
:10082000F112260290021F7401F0220232D174AA42
:100830007583F5758255A574557583FA7582AAA5D9
:1008400074A57583F5758255A522000223F49040A6
:100850007FE493FF64326003EF7002002253A87FAD
:100860000080FD021E20121580749112167B7416F2
:10087000121503E4F0A37402F022000232CE208AA3
:1008800003020CBD900222E07002A3E06003020CA0
:10089000BD900220E07002A3E06003020CBD900155
:1008A0006FE07002A3E06003020CBD1215EB600361
:1008B000020CBD900134E0703090011F12142EFF25
:1008C000AEF090010D12142ED39FE5F09E4003026E
:1008D0000CBD121560E490017BF0A3F01216A890F5
:1008E00002261216C9F56D8003756D00756E14E44D
:1008F000F5B2F5BA90017FE0FEA3E08E55F5568E75
:1009000024F525900163E0F56FA3E0F57090016197
:10091000E0F522A3E0F523C209758D20438D2075F3
:100920008D8043AA08D2AF758B02758EAF20062446
:100930001215EB701F200C1CE5DB20E217758AC432
:10094000200C0DE5DB20E20875870300000080061F
:10095000D2098002D209758B11758A5053AAF7D338
:10096000900221E09490900220E09401400EA3E0D8
:100970002470F0900220E034FEF08007E490022022
:10098000F0A3F0D390022DE0949090022CE094011B
:10099000400EA3E02470F090022CE034FEF08007BB
:1009A000E490022CF0A3F01230B8900055E025E05E
:1009B00025E0902EC3F0A3E4F0A3F012149953990C
:1009C0007F12086612152B902EC0E030E2F9121546
:1009D0002B902EC0E030E2F9902EC0E4F0AE6FAF65
:1009E00070FC7D03120DB4902E0212163DCEC3137F
:1009F000CE13D8F9F5708E6F43890212149F43808D
:100A000002121528902EC0E030E2F912152B902E1C
:100A1000C0E030E2F9902EC0E4F0AE22AF23FC7DBE
:100A200003120DB4902E1E12163DCEC313CE13D852
:100A3000F9F5238E22E5702527FFE56F3526FEC3E5
:100A4000EF9523F549EE9522F548AE24AF25121611
:100A5000DDEB2549FFEA3548121556120F898E2421
:100A60008F25121657E5259FE5249E40048E248F7E
:100A700025902EC4E4F0439980900165E524F0A30D
:100A8000E525F0C3E5569525FFE5559524FE123280
:100A9000B38E578F581217194003020C93AE24AF30
:100AA000257C007D0F120FD9121723AF6CAE6BADF2
:100AB0006AAC699002D3121470FBD3120F789002C3
:100AC000D3401712153C956CFFEE956BFEED956AC1
:100AD000FDEC9569FC1217238007120FA800000097
:100AE00000E47F607EEAFDFC9002D3121470FBD319
:100AF000120F78400A9002D3120FA80000EA60900B
:100B00000134E0701512142B7D091216069002D3E1
:100B10001214707B0A1214C380079002D312153C82
:100B2000FF121723900134E07042AE55AF56FC7DA2
:100B300009120FD9C8ECC8C9EDC9CAEECACBEFCBB0
:100B4000E4FCFDEB2525FFEA35241214EEE47B0AD4
:100B50001214CF8E558F569002D312143C1214D516
:100B60001215AD1214461214D5020C931215AD12C3
:100B700014461214D590011012142EFFAEF09002FC
:100B8000D312146DFBD3120F785003020CA312146E
:100B90001A1215D4FE12166F4003020CA390010D19
:100BA00012142EFFAEF07C007D02120FD9C8ECC8E3
:100BB000EDC0E0EEC0E0EFC0E012141A1215D4FE52
:100BC000E4FCFDD0E0FBD0E0FAD0E0F9EB2FFFEA47
:100BD0003E1214EEE47B031214CF90010D12144662
:100BE00012156F90010D12142ED39430E5F0947508
:100BF0004008747575F030120E75900189E0605AE6
:100C000090018D1215359400EE9400404D90010D29
:100C100012142E1215D4FE1232B39002D7EEF0A3A6
:100C2000EFF090010D12142E12148D95F050101249
:100C3000164A400B121443F9E475F005120E3D906C
:100C4000010D12142EFFD312148F95F0400CD31205
:100C5000164A40061214431216FF900183E0D39403
:100C6000004030121630502B90011012142EFF90BD
:100C700001ABE0245A1215DB12142BD39FE5F09E32
:100C8000400E12144375F02812170F242812159ADB
:100C900012170820090D12171950081215EB7003CE
:100CA000020919900188E00412144EE490016112C7
:100CB00014AA90013504F090022412157922E70954
:100CC000F608DFFA8046E709F208DFFA803E8882FC
:100CD0008C83E709F0A3DFFA8032E309F608DFFA34
:100CE0008078E309F208DFFA807088828C83E30958
:100CF000F0A3DFFA806489828A83E0A3F608DFFA32
:100D0000805889828A83E0A3F208DFFA804C80D27F
:100D100080FA80C680D4806980F28033801080A6FB
:100D200080EA809A80A880DA80E280CA8033898253
:100D30008A83ECFAE493A3C8C582C8CCC583CCF0FF
:100D4000A3C8C582C8CCC583CCDFE9DEE7800D89A6
:100D5000828A83E493A3F608DFF9ECFAA9F0EDFBAD
:100D60002289828A83ECFAE0A3C8C582C8CCC583F5
:100D7000CCF0A3C8C582C8CCC583CCDFEADEE8804E
:100D8000DB89828A83E493A3F208DFF980CC88F0C0
:100D9000EF60010E4E60C388F0ED2402B4040050F1
:100DA000B9F582EB2402B4040050AF23234582231B
:100DB000900D0E73EF8DF0A4A8F0CF8CF0A428CE88
:100DC0008DF0A42EFE22C2D5EC30E709B2D5E4C3E3
:100DD0009DFDE49CFCEE30E715B2D5E4C39FFFE433
:100DE0009EFE121032C3E49DFDE49CFC80031210B1
:100DF0003230D507C3E49FFFE49EFE22C5F0F8A37E
:100E0000E028F0C5F0F8E582158270021583E0381D
:100E1000F022BB010A89828A83E0F5F0A3E0225028
:100E20000687F009E71922BBFE07E3F5F009E3198D
:100E30002289828A83E493F5F074019322BB01072F
:100E400089828A83020DFC500B09C5F027F7C5F093
:100E50001937F722BBFE0D09F8E325F0F3C5F019A9
:100E6000E338F322F889828A8374019325F0C5F070
:100E7000F8E4933822BB010A89828A83F0E5F0A363
:100E8000F0225006F709A7F01922BBFE06F3E5F0A1
:100E900009F3192275F008758200EF2FFFEE33FE7B
:100EA000CD33CDCC33CCC58233C5829BED9AEC9942
:100EB000E58298400CF582EE9BFEED9AFDEC99FCE4
:100EC0000FD5F0D6E4CEFBE4CDFAE4CCF9A882222B
:100ED000B800C1B90059BA002DEC8BF084CFCECD4B
:100EE000FCE5F0CBF97818EF2FFFEE33FEED33FD84
:100EF000EC33FCEB33FB10D703994004EB99FB0F69
:100F0000D8E5E4F9FA227818EF2FFFEE33FEED333F
:100F1000FDEC33FCC933C910D7059BE99A4007ECB7
:100F20009BFCE99AF90FD8E0E4C9FAE4CCFB2275FE
:100F3000F010EF2FFFEE33FEED33FDCC33CCC83392
:100F4000C810D7079BEC9AE899400AED9BFDEC9AF4
:100F5000FCE899F80FD5F0DAE4CDFBE4CCFAE4C86C
:100F6000F922EB9FF5F0EA9E42F0E99D42F0EC6435
:100F700080C864809845F022EB9FF5F0EA9E42F02D
:100F8000E99D42F0E89C45F022E8600FECC313FCB9
:100F9000ED13FDEE13FEEF13FFD8F122ECF0A3EDFD
:100FA000F0A3EEF0A3EFF022A8828583F0D083D0E7
:100FB00082120FBF120FBF120FBF120FBFE473E4F4
:100FC00093A3C583C5F0C583C8C582C8F0A3C583F4
:100FD000C5F0C583C8C582C822EC8EF0A4CCC5F08C
:100FE000CCCDF8EFA4CEC5F02DFDE43CFCE8A42E5A
:100FF000C8C5F03DFDE43CFCEFA4FFE5F028FEE4AD
:101000003DFDE43CFC22EF4E6012EF60010EEDBBB3
:10101000010B89828A83F0A3DFFCDEFA2289F0507B
:1010200007F709DFFCA9F022BBFEFCF309DFFCA9EE
:10103000F022BC000BBE0029EF8DF084FFADF02242
:10104000E4CCF875F008EF2FFFEE33FEEC33FCEE46
:101050009DEC984005FCEE9DFE0FD5F0E9E4CEFD39
:1010600022EDF8F5F0EE8420D21CFEADF075F0080C
:10107000EF2FFFED33FD4007985006D5F0F222C365
:1010800098FD0FD5F0EA2212141AFDACF0D39FECB4
:101090009E403290011012142E1216E4D3EF9430B9
:1010A000EE9475400C9002D57475F0A37430F08006
:1010B0000D1214251215D49002D5F0A3EFF0E49090
:1010C00001A302113612142BFFAEF090011012147E
:1010D0002EFDACF0C39FFFEC9EFED3EF9410EE9478
:1010E00027400C9002D57427F0A37410F0801212E0
:1010F000142BFFC3ED9FFEEC95F09002D5F0A3CE2C
:10110000F09002D5E0FFA3E09001A3CFF0A3EFF0B1
:10111000300018D3E0942C9001A3E0940140139088
:1011200001A57427F0A37410F08007E49001A5F0E6
:10113000A3F0E49002D5F0A3F0900134E0605F12D8
:1011400014BAC39488EE648094935006900182741C
:1011500020F0D312161A401D90010412153590028A
:10116000D6E09F9002D5E09E400B900226E4F0A3CB
:101170007464F0801BD3900227E09400900226E074
:101180009400400C90010D12142E9002D51215C23D
:10119000D20B90022C7403F0A374E8F08017900136
:1011A000827420F090022A7401F0A374F4F07A00A3
:1011B000794A1214621214BAD312161B5003021386
:1011C000F090010D12144612156FC39002D6E094F0
:1011D000C89002D5E0648094805007E4900186F0C6
:1011E000A3F0900186E0FEA3E0FF9002D6E02FF08E
:1011F0009002D5E03EF0E0FEA3E0FF1216F8E47B9B
:10120000B87A88F9F8C3120F62500A9002D5748830
:10121000F0A374B8F0D3900229E09400900228E083
:101220009400500790001BE0B420181214BAC39425
:1012300096EE64809480500B12161A402F7C007D2D
:101240000A801E300026900134E070209001AAE050
:10125000FCA3E0FD1214BAC39DEE9C500F7C007DF0
:1012600064120DC69002D5EEF0A3EFF0900134E0C9
:1012700070030213CA90022AE07002A3E060030226
:1012800013CA1214BA1216F8E54D2FF54DE54C3E6F
:10129000F54CE54B3DF54BE54A3CF54A054FE54F2E
:1012A0007002054EC3E55394F4E5529401500302D5
:1012B000136CAE4EAF4FCBEFCB1214FCAF4DAE4C18
:1012C000AD4BAC4A120ED09002D7EEF0A3EFF0C3B4
:1012D000E5519FFFE5509EFE1232B39002D9EEF029
:1012E000A3EFF0D39450EE94005070E55145506058
:1012F0006AD39002D8E095519002D7E095504029EA
:101300001215329450EE94005051D3EF943CEE9469
:10131000004004740A800BD3EF9428EE9400403B05
:1013200074052551F551E4802E1215329450EE9437
:10133000005028D3EF943CEE9400400A74F62551F7
:10134000F55174FF8011D3EF9428EE9400400C7493
:10135000FB2551F55174FF3550F550E4F54DF54C32
:10136000F54BF54AF54EF54FF552F553D3E551944B
:1013700000E5509400402A9002D6E09551FF90027B
:10138000D5E09550FE1232B31216EE500812169C9C
:10139000E4F554800CE554C39403500512169C05E3
:1013A00054E5DB20E23D90011612142E7D07121643
:1013B000069002D512147B1216F8EB7B081214C3A8
:1013C000900116121446F9EE8014E5DB20E2149029
:1013D00002D5E0F9A3E0FF900116121446C98FF080
:1013E000120E7590011612142E24A8FFE5F0801D30
:1013F00090010D1214461215BB90011612144612DC
:1014000015BB9002D6E024A8FF9002D5E03461F924
:101410009001131214461214D522900110E0FBA380
:10142000E0FAA3E0F9120E12FFAEF090010AE0FB21
:10143000A3E0FAA3E0F9020E12900136A3A3E0F9AB
:10144000A3E0FF900110E0FBA3E0FAA3E022F07E0E
:10145000007F057D007B007A0079591210067A0022
:10146000795E7E007F0B7D007B00021006E4FCFDB0
:10147000E0F8A3E0F9A3E0FAA3E022C8ECC8C9EDC4
:10148000C9CAEECACBEFCBE0FEA3E0FF22FFC390B8
:10149000018EE09F90018DE02243AB025389FD5302
:1014A00095FD5396FD2290018BE4F0A3F0A3F0A3E9
:1014B000F022A3F0A37401F0A3229002D5E0FEA3D2
:1014C000E0FF222FFFEA3EFEE93DFDE83CFCE4FAA6
:1014D000F9F8020ED0C98FF0020E75E50A25E02456
:1014E00028F8E6FE08E622F9EB2FFFEA35F0FEEDDC
:1014F00039FDEC38FC22A3E0FEA3E0FBCAEECAE40F
:10150000F9F822902ECAF0902EE77408F0902EEA97
:10151000F0902EE8F0902EEBF0902EC42290022254
:101520007402F0A37458F02212329F902EC07419E6
:10153000F0229002D9E0FEA3E0FFD322E0FCA3E07A
:10154000FDA3E0FEA3E022902E427D14E0FEA3E086
:10155000FF7C00020DB4FEE433FDE433FC7801228D
:101560007F087A0179367E007D007B01021006F942
:10157000EE8FF0020E759001AAE4F0A374C8F02279
:10158000902EC07402F022E50D25E02473F582E46C
:101590003401F583E0FEA3E0FF22F0900184E03403
:1015A00000F0E0FFA3E0A3CFF0A3EFF0229002D37E
:1015B000A3A3E0F9A3E0FF90010A22F9E4F5F00209
:1015C0000E75FFE5F0F0A3EFF022E4F50EF50DF552
:1015D0000CF50B22C39FFFE5F09E22FD9001AAE0CF
:1015E0003400FCED2FFFEC35F0FE2290001BE06490
:1015F00020229002247402F0A374BCF0229001080F
:10160000E0FCA3E0FD22FFAEF07C00020FD9AB0EA0
:10161000AA0DA90CA80BD3020F78EF9400EE6480FA
:101620009480229002D6E0940A9002D5E0940022A1
:10163000900185E094DC900184E0940522E0FCA315
:10164000E02FFFEC3EFEEF7802229002D8E0940AF1
:101650009002D7E0940022E5272488FFE526341382
:10166000FED322900108E0FFA3E0900179CF22D3BE
:101670009001ABE09F9001AAE09E22902EC2F090D4
:101680002EC77401F022900165E564F0A3E565F0D2
:101690002225E02428F8A60F08A610229002D5E5FE
:1016A00050F0A3E551F022E4900228F0A3F022903C
:1016B0000104E4F0A37496F022F9746175F0A802B5
:1016C0000E7590003A7410F022F0A3F090022EF004
:1016D000A3F022FEEF2401FFE43EC31322CBEFCBA5
:1016E000CAEECA22FFC3ED9FFFEC95F0FE22C3EFC6
:1016F0009450EE6480948022EE3395E0FDFC22F954
:1017000074FF75F0FB020E3D9001837464F022F9C2
:10171000E4120E3D900185E022C3E558956EE55731
:10172000956D229002D3020F9C121580902EC4E476
:10173000F0A3F053997FF50BF50CF50DF50EF50AB6
:1017400012086612149912152B902EC0E030E2F99F
:10175000902EC0E4F043890212149F438002902E21
:1017600002E0FEA3E0250CF50CEE350BF50B12158F
:1017700028902EC0E030E2F9902EC0E4F0902E1EAA
:10178000E0FEA3E0250EF50EEE350DF50D050AE59C
:101790000AC3940440AA439980902EC5E4F0E5273B
:1017A000240CFFE52634FEFED3EF950CEE950B409E
:1017B0001590016FE07002A3E0701290016F04F0C9
:1017C000A374F4F08007E490016FF0A3F09001613E
:1017D0001215359400EE9400402E1216DDEB250E06
:1017E000FFEA350D121556120F898E0D8F0EA3E0EC
:1017F000FEA3E0FBCAEECAEB250CFFEA350B12157F
:1018000056120F898E0B8F0CE50C2527FFE50B3543
:1018100026FEC3EF950EF510EE950DF50F12165737
:10182000E5109FE50F9E40048E0F8F1090015FE53D
:101830000FF0A3E510F0A3E50DF0A3E50EF0A3E58E
:101840000BF0A3E50CF0D390016CE0940090016BD9
:10185000E094004074900134E0600F90010D121488
:101860002EC394A0E5F0940F5009E4900169F0A311
:10187000F08056D390016AE09400900169E09400F2
:10188000403390016BE0FEA3E0FF121A0BCAEECAD0
:10189000CBEFCB900169E0FEA3E0FF7C007D03125B
:1018A0000DB4EB2FFFEA3EFEEF7802CEC313CE134A
:1018B000D8F9FF800C90016BE0FEA3E0FFC3121A81
:1018C0000B900169EEF0A3EFF0D390016AE0940A67
:1018D000900169E0940090016D40097428F0A374B0
:1018E00046F080077408F0A37410F090015FE0FFE9
:1018F000A3E090016BCFF0A3EFF0AF10AE0F122773
:101900008B900165EEF0A3EFF090001BE0B4200394
:1019100012145E900165E0FEA3E0FFE4FCFDE561CA
:101920002FF561E5603EF560ED355FF55FEC355E06
:10193000F55E0563E56370020562C3E56794E8E55B
:10194000669403402AAE62AF63CBEFCB1214FCAFB8
:1019500061AE60AD5FAC5E120ED08E648F65E4F553
:1019600061F560F55FF55EF562F563F566F567D3E1
:10197000E5659400E56494004074900166E0956527
:10198000FF900165E09564FE9002D9F0A3EFF0901E
:10199000016DE0FDFBC3E49BFBE49400FAD3EF9BF5
:1019A000EA6480F8EE648098401BEDFF9002DAE074
:1019B0009F7480F89002D9E06480985008121686CF
:1019C000E4F56880299002D9E0FEA3E0FF1232B36B
:1019D00090016EE0FDD3EF9D7480F86E9840037522
:1019E0006803E568C39403500512168605689001E4
:1019F00065E0F546A3E0F54778287C007D007B0094
:101A00007A00792A7E007F1E020D8E900160E09F91
:101A1000FF90015FE09EFE1232B3229001911214FA
:101A200070FBE9C0E0EAC0E0EBC0E09001251214D1
:101A30002EFFE4FCFDD0E0FBD0E0FAD0E01214E78A
:101A4000900191120F9C900196E004F070069001B5
:101A500095E004F0900197E07002A3E06003021C9F
:101A60004D90019112153CFFEEC0E0EFC0E0121462
:101A7000F6D0E0FFD0E0FE120ED0900191120F9C44
:101A8000900191A3A3E0FFA3E090018FCFF0A3EF1B
:101A9000F0A3120FA800000000E4900195F0A3F05D
:101AA000A3F0A374C8F0900220E07002A3E06003EA
:101AB000021C4D900199E07002A3E06003021C4DEE
:101AC000900134E07003021B7490018BE0FEA3E0F0
:101AD000FF4E702290018FE0FDA3E090018BCDF0CE
:101AE000A3EDF090010D12142EFD90018DE5F0F0A4
:101AF000A3EDF0021B7B90018FE0FCA3E0FDC3EFA0
:101B00009DFFEE9CFE1232B390019B1214461215FB
:101B10006F900189E0702690019B12142EC3940DE2
:101B2000E5F09400500F90010D12142EFF90018DDE
:101B30001215C3801E9001897401F0801690019BDC
:101B400012142EC39402E5F0940050071214A690CC
:101B50000189F090018F12153590018CE09F900162
:101B60008BE09E4007E490018AF0800F90018A7418
:101B700001F080071214A6900189F0900189E070AD
:101B800003021C4D90018D1215359400EE94005007
:101B900003021C4D90010D12142E1215D4FE1232A8
:101BA000B39002D5EEF0A3EFF0A3E4F0A37464F0D9
:101BB00090010D12142EFFAEF0D312148F9E40151B
:101BC0009002D7E0FCA3E0FDD39002D6E09D900206
:101BD000D5E09C501A12148E9E503A9002D7E0FE27
:101BE000A3E0FF9002D6E09F9002D5E09E4026E45D
:101BF000900189F090018BF0A3F090010D12142E4A
:101C000012148D95F09001997401F0A3742CF0E4F6
:101C100090018AF02290010D12142EFFD312148F1E
:101C200095F0400CD312162340061214431216FFEF
:101C300090010D12142E12148D95F05010121623CF
:101C4000400B121443F9E475F005120E3D22900189
:101C50007BE0FEA3E0FFC39404EE9400502A12152B
:101C6000FDEF25E0FFEE33FE74732FF58274013E25
:101C7000F583ECF0A3EDF090017CE004F0700690A9
:101C8000017BE004F0021DC2750D01121587E50D00
:101C900025E02471F582E43401F583EEF0A3EFF042
:101CA000050DE50DB404E4900134E07003021D68F5
:101CB00090011012142EFFAEF01215FDD39FEC9E72
:101CC0005003021DBBED9FFFEC9EFED3EF94F4EE9C
:101CD00094015003021DBBA312142E1216E49002AD
:101CE000D8F0A3EFF01232B31216EE5063E4900274
:101CF000DAF0A3F09002D8E0FEA3E0FF1232B3D3F3
:101D0000EF9432EE648094804025D39002D9E09421
:101D1000009002D8E0648094809002DA4008E4F0F9
:101D2000A37405F0801074FFF0A374FBF08007E447
:101D30009002DAF0A3F012142BFF9002DBE02FFEEA
:101D40009002DAE035F0900179F0A3CEF0021DC2E6
:101D5000121663F0A3EFF09001A8E004F070069073
:101D600001A7E004F0021DC212142BFF1215FDC3DF
:101D7000EF9DFFE5F09CFE1232B3C3EF9428EE64B2
:101D8000809480503690011012142EFFC3900109E8
:101D9000E09FFF900108E095F0FE1232B3C3EF948C
:101DA00014EE648094805005900110800390010A25
:101DB00012142EFF900179E5F08003121663F0A350
:101DC000EFF0E4F50CF50BF50AF509F50DD39001EC
:101DD0007CE0950D90017BE09400401E121587E495
:101DE000FCFDE50C2FF50CE50B3EF50BED350AF58A
:101DF0000AEC3509F509050D80D3AF0CAE0BAD0A21
:101E0000AC09EEC0E0EFC0E090017B1214F7D0E027
:101E1000FFD0E0FE120ED08F0C8E0B8D0A8C0922A3
:101E2000C0E0C083C082C0D0D2AF900233E004F0E3
:101E3000D3900221E09400900220E09400400CA393
:101E4000E024FFF0900220E034FFF0D3900223E082
:101E50009400900222E09400400CA3E024FFF09054
:101E60000222E034FFF0D3900225E0940090022497
:101E7000E09400400CA3E024FFF0900224E034FF43
:101E8000F0D3900227E09400900226E09400400CEA
:101E9000A3E024FFF0900226E034FFF0D390022963
:101EA000E09400900228E09400400CA3E024FFF0AE
:101EB000900228E034FFF0D3900231E094009002C9
:101EC00030E09400400CA3E024FFF0900230E034B6
:101ED000FFF0D390022FE0940090022EE094004097
:101EE0000CA3E024FFF090022EE034FFF0D3900228
:101EF0002BE0940090022AE09400400CA3E024FF21
:101F0000F090022AE034FFF0900183E0D394014086
:101F100003E014F0900182E0D394004003E014F059
:101F2000C3E56794E8E566940350080567E56770C4
:101F3000020566C3E55394F4E55294015008055335
:101F4000E55370020552D3900198E09400900197F8
:101F5000E09400400CA3E024FFF0900197E034FFF0
:101F6000F0D390019AE09400900199E09400400C25
:101F7000A3E024FFF0900199E034FFF0D3900170CA
:101F8000E0940190016FE09400400CA3E024FFF086
:101F900090016FE034FFF0D390022DE094009002A6
:101FA0002CE09400400CA3E024FFF090022CE034DD
:101FB000FFF0D39001A6E094009001A5E0940040CA
:101FC0000CA3E024FFF09001A5E034FFF0D39001D2
:101FD000ADE094019001ACE09400400CA3E024FF3C
:101FE000F09001ACE034FFF0D0D0D082D083D0E0CC
:101FF000327E007FFF7D007B017A0079041210069B
:102000009002E77400F0A37404F09001D37401F01F
:10201000A37400F0A374B8F09001D97401F0A37414
:1020200000F074AC1230A57400F0A37494F0900129
:10203000D67401F0A37400F0A374C6F09001DF74AD
:1020400001F0A37400F074D21230A57400F0A374F0
:102050001F1230A67401F0A37402F0902DE0E493F7
:10206000FF9002E7E0FCA3E0FDF5828C83A3EFF094
:10207000900002E0FFED240412307F900001E0FFA9
:10208000ED240512307F900003E0FFED24061230AE
:102090007F902DE2E493FFED241212307F902DE328
:1020A000E493FFED241412307F9001E87401F0A353
:1020B0007400F0A3743CF0E4FF75F002EFA4240177
:1020C000F582E5F0342EF583E493FE74542FF58207
:1020D000E43400F583EEF0EF25E0242DF582E434BE
:1020E0002EF583E493FE1230ADEEF01230ADE0FE3B
:1020F000EF25E0242CF582E4342EF583E49324C00C
:10210000F582E4342EF583EEF00FEFB416AB902F8A
:1021100056E0900058F0902F56E090006EF0902F0F
:1021200056E0900059F0902F56E090006FF090002C
:10213000FF7401F09000FEF090003A7410F09000EF
:102140001BF0900028F0A37420F09002207413F08C
:10215000A37488F022900134E060761215601215A5
:10216000F2900182E07025A3E0702190010D12141D
:102170002ED39488E5F094134012900181E0FF047F
:10218000F0EFD39428400A1217088005E4900181EB
:10219000F0900183E0640160030222B6C31216309E
:1021A00040030222B690011012142EFF9001ABE002
:1021B00024321215DB12142BD39FE5F09E400E1231
:1021C000144375F00A12170F240A12159A121708F1
:1021D00022E49001831214AAA3F0900181F09001EF
:1021E00036121470FBE9C0E0EAC0E0EBC0E0121464
:1021F0002BFFE4FCFDD0E0FBD0E0FAD0E01214E7C6
:10220000900136120F9C90013BE004F070069001A3
:102210003AE004F0900224E07002A3E0600302229E
:10222000B690013612153CFFEEC0E0EFC0E012148C
:10223000F6D0E0FFD0E0FE120ED0900136120F9CD7
:1022400090011012142E2432FFE435F0FE90013676
:1022500012146DFBD3120F784039900220E0700207
:10226000A3E0702F200B2C90013DE004F07006904D
:10227000013CE004F0D390013DE0940590013CE086
:102280009400401E1214391214D5E490013CF0A3BE
:10229000F0800F1214391214D5E490013CF0A3F031
:1022A000C20B900136120FA800000000E490013A22
:1022B000F0A3F01215F2221215CAF515F5168528AD
:1022C00011852912852813852914F50A1214DBFFBC
:1022D000D3E5149FE5139E40078E138F14850A16CD
:1022E000C3E5129FE5119E50078E118F12850A15C6
:1022F000050AE50AB40FD5E4F50FF510F50AE51661
:10230000650A602EE515650A6028E510450F701016
:10231000E50A25E02428F8E6F50F08E6F510801216
:102320001214DB2510FFE50F3E1216D3F50FEF1345
:10233000F510050AE50AB40FC590017FE50FF0A37B
:10234000E510F0E516C3940C5005E516121691E55C
:1023500015C3940C5005E5151216911215CAF50A0D
:102360001214DBFFC3E5109FFFE50F9EFE1232B390
:10237000D3EF941EEE64809480400FE4FCFDE50EE4
:102380002510F50EE50D350F800F1214DBFFE4FC70
:10239000FDE50E2FF50EE50D3EF50DED350CF50CBA
:1023A000EC350BF50B050AE50AC3940F40B2AF6C90
:1023B000AE6BAD6AAC6912160E401AE50E956CF55F
:1023C0000EE50D956BF50DE50C956AF50CE50B9595
:1023D00069F50B80031215CAE47F607EEAFDFC12EA
:1023E000160E400BE4750E60750DEAF50CF50BAE9C
:1023F0000DAF0E22C0E0C083C082C0D0ECC0E0EDC3
:10240000C0E0EEC0E0EFC0E0D2AFE5DB30E419D2CF
:102410000CC208E5DB30E102802E9002E6E5DFF039
:102420009002E9E4F00224F8E5DB30E50FD2063053
:102430000805C2080224F8C20C0224F8C208E5DB31
:1024400030E140E5DB30E0109002EAE0FF04F012FA
:102450003289E0F5DF0224F89002EAE0FFB40819BF
:10246000208A16D28A9002487401F09002E7E0FCBC
:10247000A3E0240712328FE4F0EF641A707AD207D7
:102480000224F89002E9E0700EA3E5DFF09002E983
:102490007401F0D20880619002EAE09030F193FF7D
:1024A000B4FF089002E6E5DFF08047EF640F702983
:1024B0009002EAE0FFA3E0FCA3E0FD12328EE054BC
:1024C0000FF09002EAE0FF04F0ED12328EE0FFE53B
:1024D000DF54F0FEEF4EF0801F9002EAE0FF123270
:1024E00089E5DFF0EFB4240A9002227401F0A374AE
:1024F000F4F09002EAE004F075DBFFD0E0FFD0E0FA
:10250000FED0E0FDD0E0FCD0D0D082D083D0E0324D
:102510009002D9EFF09002DEE4F0A374FFF0E4A3A0
:10252000F0A3F0A304F0A374FFF0902EC07402F0A7
:10253000902EC37408F0E49002DAF0A3F09002DA6F
:10254000E0FEA3E0FFC39409EE940040030225FFE0
:10255000EF9407EE940040067E007F018019900200
:10256000DAA3E004FFE47E01C8EFC8088006CEA22B
:10257000E713CE13D8F8FF9002DCEEF0A3EFF09053
:102580002EC07419F0902EC0E030E2F99002D9E02C
:10259000FF75F002A42400123094E0FCA3E0FD904B
:1025A0002EC07402F0D3ED94FFEC940F401790020C
:1025B000DCE0FCA3E0FD75F002EF123091EC8DF051
:1025C000120DFC80299002D9E075F002123091C002
:1025D00083C082E0FEA3E0FF9002DCE0FCA3E0FD0C
:1025E000C3EF9DFFEE9CD082D083F0A3EFF090026A
:1025F000DBE004F070069002DAE004F002253D7F93
:1026000000227FA17A01790812156690010A7401EF
:10261000F0A37400F074441214B27400F074461203
:1026200014B27400F0A374481214B37400F0A374CD
:10263000321214B37400F0A3742E1214B37400F0A9
:10264000A3742CF09001257401F0A37400F0A3741E
:1026500026F090019B7401F0A37400F0A37484121F
:1026600014B37400F0A37486F09001287401F0A3F1
:102670007400F0A3741C1214B37400F0A37422F05D
:1026800090011C7401F0A37400F0A374361214B30B
:102690007400F0A3742A1214B37400F0A37438F019
:1026A00012157690011C121446F9E475F0C8120E4A
:1026B0007590011F121446F9E475F064120E75123C
:1026C00016AF900122121446F9E475F096020E75C9
:1026D0009002D5EEF0A3EF12144E9002D5E07002F6
:1026E000A3E060031228ED122CD8E490017BF0A344
:1026F000F07F0F12312712151DA31215F5900183DB
:102700001214A9A3F0900108E0F9A3E0FFA31214AA
:10271000461214D590010D1214461215BB900113E8
:102720001214461216B99001161214461215BB90D7
:1027300001191214461216B91216C2E4900134F0AF
:10274000900136120FA800000000E490013A121424
:10275000AA90010812143E1214D5E4900135F090AD
:1027600002301216C990022CF0A3F0FE7F12FD7BFE
:10277000017A01798912100690012512142E900118
:102780008F1215C2900197121579229002DBEEF09C
:10279000A3EFF0E55C455B700C9002DBE0F55BA31A
:1027A000E0F55C80169002DCE0255CFF9002DBE047
:1027B000355B1216D3F55BEF13F55C055DE55DD374
:1027C000940A400D855B59855C5AE4F55BF55CF530
:1027D0005DD3E55A9400E5599400405A9002DCE03C
:1027E000955AFF9002DBE09559FE1232B3C3EF9485
:1027F0000AEE64809480AE59AF5A501C7C007D0371
:10280000120FD99002DB12147BE4FCFDEB2FFFEAE0
:102810003E1214EE780280131216DD9002DBE0FE09
:10282000A3E0FFEB2FFFEA3E121556120F8990022C
:10283000DBEEF0A3EFF09002DBE0FEA3E0FF22D39B
:10284000900221E09400900220E0940040030228CE
:10285000EC3000299001A5E07002A3E09001AA608D
:1028600009740BF0A374B8F080077405F0A374DC4E
:10287000F09001047405F0A37414F080061215762C
:102880001216AF90010D12142EFFAEF012166F400B
:1028900013900134E0601ED3900105E09F90010485
:1028A000E09E5011900228E07002A3E07027900192
:1028B0003404F0802090001BE0B420051216A7809D
:1028C00006900228121579E4900134F0900226F067
:1028D000A3F01216C2900134E06011900028E0903D
:1028E000003AB410047410F0227420F0227F011218
:1028F0002E58902E42E0FEA3E024B1FFEE34FE906D
:1029000002D7F0A3EFF012149953997F1230B81246
:102910000866121580902EC314F012152B902EC04D
:10292000E030E2F9902EC0E4F0902E027D181215EE
:102930004C8E268F277D0F120FD9EF24E0F56CEE19
:1029400034B1F56BED34FFF56AEC34FFF56943897A
:102950000212149F438002439980902EC5E4F090A8
:102960000107E0900021F0121547EF2490FFEE34AC
:102970001AF9900128121446C98FF0020E7502311F
:1029800082E493A3F8E493A34003F68001F208DF06
:10299000F48029E493A3F85407240CC8C333C45427
:1029A0000F4420C8834004F456800146F6DFE480DB
:1029B0000B0102040810204080902AEEE47E01936F
:1029C00060BCA3FF543F30E509541FFEE493A360AD
:1029D000010ECF54C025E060A840B8E493A3FAE408
:1029E00093A3F8E493A3C8C582C8CAC583CAF0A359
:1029F000C8C582C8CAC583CADFE9DEE780BE9002C7
:102A00003DE014601B1460432402705D900247E0B7
:102A1000B4010A90023D122A6AD205D200C20322F2
:102A20007F0212303DEF60077F021232BFC2059075
:102A30000247E0703490023D7402F0D203C205C236
:102A4000007F031232BF7F03022D8A7F0312303DC5
:102A5000EF60167F031232BF900247E090023D7094
:102A600003F08003122A6AC203227401F07F02126B
:102A700032BF7F02122D8A22CDEFCD43AD10539984
:102A8000EF439A10539BEF902EC07402F0147E0017
:102A9000C8EDC8088005C333CE33CED8F9FF902ED9
:102AA000C4EEF0A3EFF0902EC8EEF0A3EFF0741098
:102AB00012320E902EC0E030E2F9902EC0E4F07495
:102AC00002F0742012320E902EC0E030E2F9902E07
:102AD00000E0FEA3E0FF902EC4E4F0A3F0902EC02F
:102AE000F0439910539AEF539BEF5390EF22C10C90
:102AF000410241004102420041023E0041024600C3
:102B00004201AC03E841024800C102C101C10441D5
:102B100002470041023D00C103C100C1054102E975
:102B2000004102EA004202E40000C106C108C107F8
:102B30004102E6104101030041010710C10BC10A27
:102B40004101A900022600000469000000004101C3
:102B5000061041024900009001ACE07004A3E0645B
:102B6000017011900248E07004D28A04F0E49001F0
:102B7000ACF0A3F090003AE0FC900106E06C603D00
:102B800090003AE0FE900106F090000BE0900246C3
:102B9000F0540FF0EEB42005E04420800AECB410AD
:102BA0000B900246E04410F090000BF0C28AE490D3
:102BB0000248F09001AC7403F0A374E8F022900294
:102BC000D37408F0A3E4F0A3743FF0A374DFF0E43F
:102BD000FDFCF9758A10538AEF009002D3E0FEA342
:102BE000E02DF582EE3CF583E493FF69F90DBD001D
:102BF000010CBC37E5BDDFE29002D5123296E493BA
:102C0000699002E77009123296A37408F0800612E8
:102C10003296A3E4F0758A50538AEF0022200A0608
:102C2000200303300509E4FFFE1226D0C20A2290D9
:102C3000022EE07002A3E060051215EB703A20004E
:102C400003122FB8122CD87F01123127121C4E907C
:102C500002D3EEF0A3EFF07B017A0279D3122EE9D2
:102C60009002D31215B21214461214D51210871204
:102C7000283F121A1B122155122B572290021FE0D7
:102C800024FE60131460231460272403704990020B
:102C90001F7402F0122DDB7F017E001226D09002FD
:102CA0001F7403F0E490023EF02290021F7404F0BF
:102CB000221229FE122EA11229FE90016FE070044B
:102CC000A3E06401700C90016FF0A3F090021F74F8
:102CD00002F0E4900233F0224389025395FD5396AB
:102CE000FD4380021232487F0C122A78CAEECACB0A
:102CF000EFCB7F0C122A78EF2BFFEE3A9002D8F040
:102D0000A3EFF012321AF9120E1245F070061231CA
:102D1000FFEE8018120E12FBAAF01231FFEF2BFF0C
:102D2000EE3AC313F9EF13FF12321AC98FF0120EE5
:102D3000752212309DF5828E83A3E0B4AA03122B74
:102D4000BE12309DFF123088E0B41008EF123088B8
:102D5000E4F0D20A12309DFF241B12308AE0700D7D
:102D6000EF241C12308AE0B41003122F7512309D2C
:102D7000241312308AE0FFB410069002477401F069
:102D8000EFB42005E4900247F0229002D3EFF0E088
:102D900024CA123228E060037F01229002D3E0FFB0
:102DA00024CA1232287401F0EF123230E493FE7418
:102DB0000193FFE4FCFD902F60E0F8A3E0F9A3E0AD
:102DC000FAA3E02FFFEA3EFEED39EC389002D3E0A3
:102DD00012323CEEF0A3EFF07F00221216C2220066
:102DE0000804AB6CE4FF3006169002E7E0FCA3E0B9
:102DF000F5828C83E0FE54F0FFEE540FF0C2062201
:102E0000029103060A160DA00EA60FFF0C020BFF7F
:102E100023F724062504070127082A0828082B0879
:102E200029032C032D082E082F082608021103065B
:102E30000A100D400E800FFF0C020BFF23F4240438
:102E40002504070127102A1028042B0429032C032A
:102E50002D202E202F102620CDEFCD1214991230C8
:102E6000B8ED601C53997F12329F902E5EE4F0A360
:102E700074FFF07F0F122510902EC4E4F043998068
:102E800053997F902E42E4F0A374FFF01208667FFE
:102E90000112251043890212149F43800243998036
:102EA000221215EB70299001A9E0700312151D90F4
:102EB00001A97401F0900029E0B42008122C1D1221
:102EC000087E80031231559002327401F08017E4BD
:102ED0009001A9F0900029E0B42003122C1D90026B
:102EE00032E06002E4F002326B9002D5EBF0A3EA2C
:102EF000F0A3E9F0900222E07002A3E070319001AB
:102F000035E0602BE4900135F0122CD812151D75B8
:102F100008017F01123127121C4E9002D51214466F
:102F200012156F0508E508C3940F40E61216A72294
:102F3000758A50538AEF9000027411F0900001746A
:102F400022F09000037433F0E4F5AB75AC1DF5ADE1
:102F5000F5AF7589FF75913F7599FFF59675931CCF
:102F6000F59BF595F592F59A5388FCD28A90024824
:102F700004F0D20D2212082EE4F5F275F30875EE76
:102F8000FF75EF3F75EA81F5F675EB0700E5EC306C
:102F9000E7FBE4F5EC9002E7E0FEA3E0FF241BF57D
:102FA00082E43EF583E5F3F0EF241CF582E43EF580
:102FB00083E5F2F075EB302230073FC207902E42D6
:102FC000E0FFA3E09002D5CFF0A3EFF0E4FF122ED4
:102FD00058121547EF2490FFEE341AFE9001281284
:102FE000144612156F1215809002D5E0FFA3E090F1
:102FF0002E42CFF0A3EFF012151D22758B11902FEA
:10300000647440F0E4FEE4FFEF75F003A4245CF583
:1030100082E43402F583E5822EF582E43583F5837C
:10302000E4F00FEFB40AE10EEEB403DA7F09900288
:10303000CAE4F0A3DFFC902F647480F022CBEFCBC6
:10304000123225E06036902F60A3A3E0FEA3E0FFDC
:10305000EB12323CE0FCA3E0FDD39FEC9E501DC37D
:10306000EF9DFFEE9CFEEB123230C37401939FE4A0
:10307000939E4008123225E4F07F01227F0022F562
:1030800082E43CF583EFF022241AF582E43EF583D6
:1030900022A42440F582E5F0342EF583229002E745
:1030A000E0FEA3E022A3F0A37401F0A322746A2F30
:1030B000F582E43400F58322121580902EC4E4F0EA
:1030C000A3F0FF74542FF582E43400F583E0FE751D
:1030D000F002EFA42400F582E5F0342EF583E493AA
:1030E00024C0F582E4342EF583EEF00FEFB416D34E
:1030F0002200000000FFFFFFFF0000FFFFFFFFFFB7
:10310000FFFFFFFF00FF000000FFFF000000FFFFC8
:10311000FFFFFFFFFF00000000FFFFFFFFFFFFFFBB
:10312000FFFFFF000000009002D8EFF01230B8E47B
:10313000F5099002D8E0FFE509C39F50071217294F
:10314000050980EE902EC0E4F01222B7900108EE3F
:10315000F0A3EFF022E4F5B2F5BA758D20438D208F
:10316000538D7F53AAF7F58BE5DB20E211200C0E7F
:10317000E4F58A758703000000758A50D20A758BC2
:10318000112212084E53A87F122F3012081E12313E
:10319000AE43A8801232C89000FFE0600690021F84
:1031A0007401F0122DE4122D32122C7C80F5900265
:1031B000E7E0FFA3E09002EBCFF0A3EFF0E4F5DA55
:1031C00075DA4043DA2075D74075DA5875D901436E
:1031D000A90875B80875F8082201F400280028012C
:1031E000F4009603E801F403E81770006403E800B4
:1031F0003202580258012C01F403E8271000C8904D
:1032000002D8E0FEA3E0FF7C007D0F020DB4902EFB
:10321000C2F0902EC0E04419F022900125E0FBA3FB
:10322000E0FAA3E02274CA2BF582E43402F583228B
:1032300025E024EDF582E43431F5832225E0244AAB
:10324000F582E43402F58322902EC07402F0902EB1
:10325000C77474F0902ECD74C0F0A374FFF0A3F087
:10326000902EC37401F0902ECAF022E5B230E00532
:10327000E5AA20E013E4900234F075B28E75B6F939
:10328000F5B743B20143AA0122A3E0FCA3E02FF566
:1032900082E43CF58322E0FEA3E0F5828E832212D5
:1032A0001580741112167B74141215037480F0A328
:1032B000E4F022EE30E707C3E49FFFE49EFE2274B1
:1032C000CA2F123228E4F0221232D4022FFBD2AFDE
:1032D00032D2AF3202326B0000000000000000006A
:1032E00000000000000000000000000000000000DE
:1032F00000000000000000000000000000000000CE
:1033000000000000000000000000000000000000BD
:1033100000000000000000000000000000000000AD
:103FD000000000000000000000000000000000B031
:103FE00000000000000000000000000000000000D1
:103FF00000000000000000000000000000000000C1
:00000001FF