:1007E000006C000000010000ECE0000000000000D0
:1007F00000000000000000000000000000000000F9
:100800000227511214B822D2AF3200021FEDD2AF2C
:10081000320000022EDF02302C0000020807000028
:10082000000000021BA3000000000002080EE70900
:10083000F608DFFA8046E709F208DFFA803E888290
:100840008C83E709F0A3DFFA8032E309F608DFFAC8
:100850008078E309F208DFFA807088828C83E309EC
:10086000F0A3DFFA806489828A83E0A3F608DFFAC6
:10087000805889828A83E0A3F208DFFA804C80D214
:1008800080FA80C680D4806980F28033801080A690
:1008900080EA809A80A880DA80E280CA80338982E8
:1008A0008A83ECFAE493A3C8C582C8CCC583CCF094
:1008B000A3C8C582C8CCC583CCDFE9DEE7800D893B
:1008C000828A83E493A3F608DFF9ECFAA9F0EDFB42
:1008D0002289828A83ECFAE0A3C8C582C8CCC5838A
:1008E000CCF0A3C8C582C8CCC583CCDFEADEE880E3
:1008F000DB89828A83E493A3F208DFF980CC88F055
:10090000EF60010E4E60C388F0ED2402B404005085
:10091000B9F582EB2402B4040050AF2323458223AF
:1009200090087E73EF8DF0A4A8F0CF8CF0A428CEB1
:100930008DF0A42EFE22C2D5EC30E709B2D5E4C377
:100940009DFDE49CFCEE30E715B2D5E4C39FFFE4C7
:100950009EFE120BB5C3E49DFDE49CFC8003120BCC
:10096000B530D507C3E49FFFE49EFE22C5F0F8A38F
:10097000E028F0C5F0F8E582158270021583E038B2
:10098000F022BB010A89828A83E0F5F0A3E02250BD
:100990000687F009E71922BBFE07E3F5F009E31922
:1009A0002289828A83E493F5F074019322BB0107C4
:1009B00089828A8302096C500B09C5F027F7C5F0BC
:1009C0001937F722BBFE0D09F8E325F0F3C5F0193E
:1009D000E338F322F889828A8374019325F0C5F005
:1009E000F8E4933822BB010A89828A83F0E5F0A3F8
:1009F000F0225006F709A7F01922BBFE06F3E5F036
:100A000009F3192275F008758200EF2FFFEE33FE0F
:100A1000CD33CDCC33CCC58233C5829BED9AEC99D6
:100A2000E58298400CF582EE9BFEED9AFDEC99FC78
:100A30000FD5F0D6E4CEFBE4CDFAE4CCF9A88222BF
:100A4000B800C1B90059BA002DEC8BF084CFCECDDF
:100A5000FCE5F0CBF97818EF2FFFEE33FEED33FD18
:100A6000EC33FCEB33FB10D703994004EB99FB0FFD
:100A7000D8E5E4F9FA227818EF2FFFEE33FEED33D4
:100A8000FDEC33FCC933C910D7059BE99A4007EC4C
:100A90009BFCE99AF90FD8E0E4C9FAE4CCFB227593
:100AA000F010EF2FFFEE33FEED33FDCC33CCC83327
:100AB000C810D7079BEC9AE899400AED9BFDEC9A89
:100AC000FCE899F80FD5F0DAE4CDFBE4CCFAE4C801
:100AD000F922EB9FF5F0EA9E42F0E99D42F0EC64CA
:100AE00080C864809845F022EB9FF5F0EA9E42F0C2
:100AF000E99D42F0E89C45F022E8600FECC313FC4E
:100B0000ED13FDEE13FEEF13FFD8F122E8600FEFB7
:100B1000C333FFEE33FEED33FDEC33FCD8F122ECB2
:100B2000F0A3EDF0A3EEF0A3EFF022A8828583F00E
:100B3000D083D082120B42120B42120B42120B4294
:100B4000E473E493A3C583C5F0C583C8C582C8F028
:100B5000A3C583C5F0C583C8C582C822EC8EF0A4A6
:100B6000CCC5F0CCCDF8EFA4CEC5F02DFDE43CFC17
:100B7000E8A42EC8C5F03DFDE43CFCEFA4FFE5F081
:100B800028FEE43DFDE43CFC22EF4E6012EF6001E4
:100B90000EEDBB010B89828A83F0A3DFFCDEFA2213
:100BA00089F05007F709DFFCA9F022BBFEFCF3092E
:100BB000DFFCA9F022BC000BBE0029EF8DF084FF02
:100BC000ADF022E4CCF875F008EF2FFFEE33FEEC29
:100BD00033FCEE9DEC984005FCEE9DFE0FD5F0E950
:100BE000E4CEFD22EDF8F5F0EE8420D21CFEADF04F
:100BF00075F008EF2FFFED33FD4007985006D5F054
:100C0000F222C398FD0FD5F0EA22208A03020F7763
:100C10009002B5E07002A3E06003020F779002B388
:100C2000E07002A3E06003020F7790016CE07002B5
:100C3000A3E06003020F771213F06003020F7790B6
:100C40000131E07030900125121290FFAEF090015A
:100C500013121290D39FE5F09E4003020F771213F8
:100C60001CE4900178F0A3F012149E9002B91214C3
:100C7000BFF56E8003756E00756F0FE4F5B2122E2E
:100C80004490017CE0F553A3E0F554C208758D2033
:100C9000438D20758D8043A808D2AF758B02758E69
:100CA000C82005241213F0701F200B1CE5DB20E286
:100CB00017758AC4200B0DE5DB20E2087587030059
:100CC00000008006D2088002D208758B11758A5008
:100CD00053A8F7D39002B4E094909002B3E094014B
:100CE000400EA3E02470F09002B3E034FEF08007E1
:100CF000E49002B3F0A3F0D39002C0E0949090028D
:100D0000BFE09401400EA3E02470F09002BFE034F5
:100D1000FEF08007E49002BFF0A3F0122E441213FD
:100D2000F71226AF0BEBB405F8900108E0F570A3BD
:100D3000E0F57190010CE0F522A3E0F523E57125C3
:100D400027FFE5703526FEC3EF9523F525EE9522A6
:100D5000F524E5272488FFE5263413FED3E5259FF7
:100D6000E5249E40048E248F25902E23E4F04389B1
:100D70000A1212FD5380F5438902900162E524F0C6
:100D8000A3E525F0C3E5549525FFE5539524FE1210
:100D900030BC8E558F561214F84003020F38AE2423
:100DA000AF257C007D0F120B5C121502AF6DAE6C8F
:100DB000AD6BAC6A9002DC1212B3FBD3120AE8905E
:100DC00002DC4017121375956DFFEE956CFEED95E4
:100DD0006BFDEC956AFC1215028007120B2B0000CC
:100DE0000000E47F607EEAFDFC9002DC1212B3FB9F
:100DF000D3120AE8400A9002DC120B2B0000EA60D2
:100E000012128DFFAEF07C007D09120B5C9002DCAB
:100E10001212B37B0A12132B121502900131E070EB
:100E200036AE53AF54FC7D09121306E4FCFDEB25EE
:100E300025FFEA35241212CBE47B0A1213378E53B6
:100E40008F549002DC12129E1213161213A112126A
:100E5000A8121316020F381213A11212A812131699
:100E6000900116121290FFAEF09002DC1212B0FB4D
:100E7000D3120AE85003020F4812127C1213E9FE43
:100E80001214654003020F48900113121290FFAE36
:100E9000F07C007D02120B5CC8ECC8EDC0E0EEC037
:100EA000E0EFC0E012127C1213E9FEE4FCFDD0E09A
:100EB000FBD0E0FAD0E0F91212C6E47B031213373C
:100EC0009001131212A81213CE900113121290D394
:100ED0009430E5F094754008747575F0301209E5AA
:100EE00090017FE06052121410404D9001131212D5
:100EF000901213E9FE1230BC9002E0EEF0A3EFF086
:100F00009001131212901212E295F0501012143840
:100F1000400B1212A5F9E475F0051209AD9001130A
:100F2000121290FFD31212E495F0400CD312143831
:100F300040061212A51214EF20080D1214F85008E2
:100F40001213F07003020C8D90017EE0041213AFB7
:100F50001212D3E490015E121362F0900187120B1B
:100F60002B0000000012135E74C8F090013274016F
:100F7000F09002B712139A2212127CFDACF0D39FAC
:100F8000EC9E40329001161212901214DED3EF94B0
:100F900030EE9475400C9002DE7475F0A37430F05E
:100FA000800D1212871213E99002DEF0A3EFF0E435
:100FB00090019702101F12128DFFAEF090011612D1
:100FC0001290FDACF0C39FFFEC9EFED3EF9410EEA9
:100FD000942740089002DE12145D801212128DFFD9
:100FE000C3ED9FFEEC95F09002DEF0A3CEF09002F0
:100FF000DEE0FFA3E0900197CFF0A3EFF030001404
:10100000D3E0942C900197E09401400F9001991245
:10101000145D8007E4900199F0A3F0E49002DEF003
:10102000A3F0900131E0604D1212EED39400EE6413
:1010300080948040179001041214D7EF9DEE9C40DD
:101040000B9002B9E4F0A37464F0801BD39002BA51
:10105000E094009002B9E09400400C900113121249
:10106000909002DE1213C6D20A9002BF740FF0A352
:1010700074A0F080119002BD7403F0A374E8F07ABC
:101080000079481212D7D39002DFE094009002DE7C
:10109000E0648094805003021240E0F9A3E0FF90E6
:1010A00001131212A81213161212EE1214E8E47BA6
:1010B000B87A88F9F8C3120AD2500A9002DE74880E
:1010C000F0A374B8F0D39002BCE094009002BBE0AF
:1010D0009400500790001BE0B4201D1212EEC39440
:1010E00096EE648094805010EF9400EE64809480BB
:1010F000402F7C007D0A801E300026900131E07078
:10110000209001A0E0FCA3E0FD1212EEC39DEE9C36
:10111000500F7C027DBC1209369002DEEEF0A3EF88
:10112000F0900131E0700302121A9002BDE07002EB
:10113000A3E0600302121A1212EE1214E8E54B2F1C
:10114000F54BE54A3EF54AE5493DF549E5483CF5AC
:1011500048054DE54D7002054CC3E55194D0E5506E
:101160009407405AAE4CAF4DCBEFCB121357AF4B59
:10117000AE4AAD49AC48120A409002E0EEF0A3EF4F
:10118000F0C3E54F9FFFE54E9EFE1230BC9002E299
:10119000EEF0A3EFF0D39450EE94005006E54F45E7
:1011A0004E700A9002E0E0F54EA3E0F54FE4F54BF7
:1011B000F54AF549F548F54CF54DF550F551D3E5AF
:1011C0004F9400E54E9400402812126A900164EE9C
:1011D000F0A3EFF0C312126A121406500812149210
:1011E000E4F552800CE552C39403500512149205A5
:1011F00052E5DB20E23D90011C121290FFAEF07D23
:101200000F1213041212EE1214E8EB7B1012132BC0
:1012100090011C1212A8F9EE8014E5DB20E2149074
:1012200002DEE0F9A3E0FF90011C1212A8C98FF0C2
:101230001209E590011C12129024A8FFE5F0801D10
:101240009001131212A81213BF90011C1212A812BF
:1012500013BF9002DFE024A8FF9002DEE03461F9C2
:101260009001191212A8121316229002DFE0954F76
:10127000FF9002DEE0954EFE1230BC22900116E097
:10128000FBA3E0FAA3E0F9120982FFAEF09001108F
:10129000E0FBA3E0FAA3E0F9020982900133A3A3E3
:1012A000E0F9A3E0FF900116E0FBA3E0FAA3E0223F
:1012B000E4FCFDE0F8A3E0F9A3E0FAA3E022E0FEFD
:1012C000A3E0FFE4FCFDEB2FFFEA3EFEED39FDEC71
:1012D00038FC227A00795E7E007F0B7D007B000265
:1012E0000B89FFC3900184E09F900183E02290026C
:1012F000DEE0FEA3E0FF2243AB0A5389F55395F5E8
:101300005396F5227C00120B5CC8ECC8C9EDC9CA23
:10131000EECACBEFCB22C98FF00209E57F087A0134
:1013200079337E007D007B01020B892FFFEA3EFEB0
:10133000E93DFDE83CFCE4FAF9F8020A40A3F0A319
:101340007401F0A322E50825E02428F8E6FE08E66B
:1013500022A3E0FEA3E0FBCAEECAE4F9F822900162
:101360008BE4F0A3F0A3F0A322F09002B57402F096
:10137000A37458F022E0FCA3E0FDA3E0FEA3E0226A
:10138000902E12E0FEA3E0FF7C007D0A120924EFFC
:10139000245CFFEE3412229001A0E4F0A374C8F0A4
:1013A000229002DCA3A3E0F9A3E0FF90011022F059
:1013B0007E007F077D007B007A007957020B89F958
:1013C000E4F5F00209E5FFE5F0F0A3EFF022F9EE15
:1013D0008FF00209E5E0FCA3E0FDC3EF9DFF22E4EE
:1013E000F50CF50BF50AF50922C39FFFE5F09E22E7
:1013F00090001BE0642022E4900108F0A3F090012B
:101400000CF0A3F0FB22C3EF9428EE6480948022BA
:10141000900183E0FEA3E0FFD39400EE940022ABA2
:101420000CAA0BA90AA809D3020AE89002DFE094EB
:101430000A9002DEE09400229002E1E0941490020F
:10144000E0E094002225E02470F582E43401F58385
:101450002290010EE0FFA3E0900176CF227427F0E6
:10146000A37410F022D39001A1E09F9001A0E09E10
:1014700022E03CF0902E20E4F00FEF22900162E594
:1014800064F0A3E565F02225E02428F8A60D08A65F
:101490000E229002DEE54EF0A3E54FF022E490022A
:1014A000BBF0A3F022900104E4F0A37496F022F9BB
:1014B000746175F0A80209E590003A7410F022F00A
:1014C000A3F09002C1F0A3F022902E207409F02224
:1014D000E0FEA3E0780222E0FCA3E0FDD322FFC3FC
:1014E000ED9FFFEC95F0FE22EE3395E0FDFC22F936
:1014F00074FF75F0FB0209ADC3E556956FE5559590
:101500006E229002DC020B1F1213F71226AF0BEBB8
:10151000B405F8E527240CFFE52634FEFE9001080B
:10152000E0FCA3E0FDC39FEC9E501590016CE070C1
:1015300002A3E0701290016C04F0A374F4F0800731
:10154000E490016CF0A3F0E5272DFFE5263CFE902A
:10155000010C1213D5EE9CFE9002E4F0A3EFF0E52F
:10156000272488FBE5263413FAD3EF9BEE9A400834
:101570009002E4EAF0A3EBF09002E4E0FFA3E09035
:10158000015CCFF0A3EFF0A3ECF0A3EDF090010825
:10159000E0FFA3E0900160CFF0A3EFF0D3900169EA
:1015A000E09400900168E094004071900131E060A7
:1015B0000F900113121290C394A0E5F0940F5009FC
:1015C000E4900166F0A3F08053D3900167E09400AB
:1015D000900166E094004030900168E0FEA3E0FFD7
:1015E00012176212130F900166E0FEA3E0FF7C0069
:1015F0007D03120924EB2FFFEA3EFEEF7802CEC3F3
:1016000013CE13D8F9FF800C900168E0FEA3E0FF31
:10161000C3121762900166EEF0A3EFF0D39001675A
:10162000E0940A900166E0940090016A40097428F1
:10163000F0A37446F080077403F0A3740AF09001DD
:101640005CE0FFA3E0900168CFF0A3EFF09002E42C
:10165000E0FEA3E0FF1222D4900162EEF0A3EFF0CF
:1016600090001BE0B420031212D3900162E0FEA3AD
:10167000E0FFE4FCFDE5612FF561E5603EF560ED1E
:10168000355FF55FEC355EF55E0563E56370020579
:1016900062C3E56794E8E5669403402AAE62AF63EF
:1016A000CBEFCB121357AF61AE60AD5FAC5E120AE9
:1016B000408E648F65E4F561F560F55FF55EF56277
:1016C000F563F566F567D3E5659400E5649400403D
:1016D00074900163E09565FF900162E09564FE906F
:1016E00002E6F0A3EFF090016AE0FDFBC3E49BFB90
:1016F000E49400FAD3EF9BEA6480F8EE64809840AB
:101700001BEDFF9002E7E09F7480F89002E6E06432
:101710008098500812147CE4F56880299002E6E075
:10172000FEA3E0FF1230BC90016BE0FDD3EF9D748F
:1017300080F86E984003756803E568C3940350050C
:1017400012147C0568900162E0F546A3E0F5477845
:10175000287C007D007B007A00792A7E007F1E02B3
:1017600008FE90015DE09FFF90015CE09EFE12305C
:10177000BC229001871212B3FB9001AC1212BE90F2
:101780000187120B1F90018CE004F0700690018B12
:10179000E004F090018DE07002A3E060030219B252
:1017A000900187121375FFEEC0E0EFC0E0121351F5
:1017B000D0E0FFD0E0FE120A40900187120B1F908C
:1017C0000187A3A3E0FFA3E0900185CFF0A3EFF092
:1017D000A3120B2B0000000012135E74C8F09002DD
:1017E000B3E07002A3E060030219B290018FE070D1
:1017F00002A3E060030219B2900131E07003021805
:10180000AE900181E0FEA3E0FF4E7022900185E0E2
:10181000FDA3E0900181CDF0A3EDF0900113121231
:1018200090FD900183E5F0F0A3EDF00218BA90016D
:10183000851213D5EE9CFE1230BC9001911212A8B5
:101840001213CE90017FE07026900191121290C386
:101850009414E5F09400500F900113121290FF9031
:1018600001831213C7802390017F7401F0801B90C5
:101870000191121290C39402E5F09400500CE49090
:101880000181121362F090017FF0900185E0FEA3C8
:10189000E0FFD3900182E09F900181E09E4007E449
:1018A000900180F080149001807401F0800CE4902D
:1018B0000181121362F090017FF090017FE07003CC
:1018C0000219B212141050030219B290011312122D
:1018D000901213E9FE1230BC9002DEEEF0A3EFF09E
:1018E000A3E4F0A37464F0900113121290D39494C3
:1018F000E5F09411400A9002E07403F0A37420F024
:101900009002DEE0FFA3E0900195CFF0A3EFF0900E
:101910000113121290FFAEF0D31212E49E40129007
:1019200002E01214D79002DFE09D9002DEE09C50AE
:101930001A1212E39E50439002E0E0FEA3E0FF90F3
:1019400002DFE09F9002DEE09E402FE490017FF0F6
:10195000900181F0A3F09001131212901212E295FF
:10196000F090018F74015007F0A3742CF08005F003
:10197000A37490F0E4900180F02290011312129071
:10198000FFD31212E495F0400CD312142B40061230
:1019900012A51214EF9001131212901212E295F098
:1019A000501012142B400B1212A5F9E475F0051219
:1019B00009AD22900178E0FEA3E0FFC39404EE9409
:1019C00000502F90010EE0FCA3E0FDEF25E0FFEEBC
:1019D00033FE74702FF58274013EF583ECF0A3EDB5
:1019E000F0900179E004F07006900178E004F002D4
:1019F0001B379002E67401F09002E6E0FF121445F6
:101A0000E0FCA3E0FDEF25E0246EF582E43401F56F
:101A100083ECF0A3EDF09002E6E004F0E0B404D82B
:101A2000900131E07003021AE4900116121290FF47
:101A3000AEF090010E1214D79FEC9E5003021B30A3
:101A4000ED9FFFEC9EFED3EF94F4EE940150030261
:101A50001B30A31212901214DE9002E7F0A3EFF0F5
:101A60001230BCC3EF9464EE64809480505EE490C6
:101A700002E9F0A3F09002E7E0FEA3E0FF1230BC21
:101A8000D31214074025D39002E8E094009002E7B7
:101A9000E0648094809002E94008E4F0A37405F0CB
:101AA000801074FFF0A374FBF08007E49002E9F06B
:101AB000A3F012128DFF9002EAE02FFE9002E9E0FF
:101AC00035F0900176F0A3CEF0021B37121451F0DE
:101AD000A3EFF090019CE004F0700690019BE004FD
:101AE000F0021B3712128DFF90010E1213D5E5F094
:101AF0009CFE1230BC121406503690011612129041
:101B0000FFC390010FE09FFF90010EE095F0FE12E1
:101B100030BCC3EF9414EE6480948050059001169D
:101B20008003900110121290FF900176E5F080037F
:101B3000121451F0A3EFF09002E2120B2B00000000
:101B400000E49002E6F09002E6E0FFD3900179E035
:101B50009F900178E09400401D9002E21212B3FBC6
:101B6000A3E01214451212BE9002E2120B1F900263
:101B7000E6E004F080D09002E2121375FFEEC0E0C0
:101B8000EFC0E0900178121352D0E0FFD0E0FE12D7
:101B90000A409002E2120B1F9002E2A3A3E0FEA310
:101BA000E0FF22C0E0C083C082C0D0D2AF9002C6A6
:101BB000E004F0E5752401F575E43574F574E43559
:101BC00073F573E43572F572D39002B4E09400902B
:101BD00002B3E09400400CA3E024FFF09002B3E0D5
:101BE00034FFF0D39002B6E094009002B5E0940088
:101BF000400CA3E024FFF09002B5E034FFF0D39056
:101C000002B8E094009002B7E09400400CA3E024F6
:101C1000FFF09002B7E034FFF0D39002BAE09400F6
:101C20009002B9E09400400CA3E024FFF09002B9C8
:101C3000E034FFF0D39002BCE094009002BBE0944B
:101C400000400CA3E024FFF09002BBE034FFF0D38F
:101C50009002C4E094009002C3E09400400CA3E022
:101C600024FFF09002C3E034FFF0D39002C2E0946E
:101C7000009002C1E09400400CA3E024FFF0900229
:101C8000C1E034FFF0D39002BEE094009002BDE0CA
:101C90009400400CA3E024FFF09002BDE034FFF07C
:101CA000C3E56794E8E566940350080567E5677047
:101CB000020566C3E55194D0E550940750080551DC
:101CC000E55170020550D390018EE0940090018D93
:101CD000E09400400CA3E024FFF090018DE034FF7D
:101CE000F0D3900190E0940090018FE09400400CBC
:101CF000A3E024FFF090018FE034FFF0D390016D5A
:101D0000E0940190016CE09400400CA3E024FFF00B
:101D100090016CE034FFF0D39002C0E09400900298
:101D2000BFE09400400CA3E024FFF09002BFE03439
:101D3000FFF0D390019AE09400900199E094004064
:101D40000CA3E024FFF0900199E034FFF0D0D0D054
:101D500082D083D0E0327E007FFF7D007B017A005D
:101D60007904120B899002EE7400F0A37404F090D1
:101D700002667401F0A37400F0A374B8F090026CD2
:101D80007401F0A37400F074AC122CB57400F0A3CD
:101D90007494F09002697401F0A37400F0A374C607
:101DA000F09002727401F0A37400F074D2122CB59A
:101DB0007400F0A3741F122CB67401F0A37402F027
:101DC000902DE0E493FF9002EEE0FCA3E0FDF582AD
:101DD0008C83A3EFF0900002E0FFED2404122C9B13
:101DE000900001E0FFED2405122C9B900003E0FF22
:101DF000ED2406122C9B902DE2E493FFED241212A9
:101E00002C9B902DE3E493FFED2414122C9B900265
:101E10007B7401F0A37400F0A3743CF0E4FF75F050
:101E200002EFA42401F582E5F0342EF583E493FE5D
:101E300074542FF582E43400F583EEF0EF25E024AE
:101E400023F582E4342EF583E493FE122CBDEEF0EC
:101E5000122CBDE0FEEF25E02422F582E4342EF5BD
:101E600083E4932420F582E4342EF583EEF00FEF23
:101E7000B411AB902F56E0900058F0902F56E090A0
:101E8000006AF09000FF7401F09000FEF090003ABC
:101E90007410F090001BF0900028F0A37420F090D4
:101EA00002B37407F0A374D0F0221213DFF513F518
:101EB0001485280F852910852811852912F5081207
:101EC0001345FFD3E5129FE5119E40078E118F1237
:101ED000850814C3E5109FE50F9E50078E0F8F10E5
:101EE0008508130508E508B40FD5E4F50DF50EF5E2
:101EF00008E51465086034E5136508602EE50E45B5
:101F00000D7010E50825E02428F8E6F50D08E6F543
:101F10000E8018121345250EFFE50D3EFEEF24013D
:101F2000FFE43EC313F50DEF13F50E0508E508B405
:101F30000FBF90017CE50DF0A3E50EF0E514C3940E
:101F40000C5005E514121487E513C3940C5005E5F5
:101F5000131214871213DFF508121345FFC3E50EA1
:101F60009FFFE50D9EFE1230BCD3EF9414EE64800B
:101F70009480400FE4FCFDE50C250EF50CE50B35D7
:101F80000D800F121345FFE4FCFDE50C2FF50CE569
:101F90000B3EF50BED350AF50AEC3509F509050898
:101FA000E508C3940F40B2AF6DAE6CAD6BAC6A1276
:101FB000141F401AE50C956DF50CE50B956CF50BAF
:101FC000E50A956BF50AE509956AF5098003121390
:101FD000DFE47F607EEAFDFC12141F400BE4750C09
:101FE00060750BEAF50AF509AE0BAF0C22C0E0C034
:101FF00083C082C0D075D018D2AFE5DB30E419D2EF
:102000000BC207E5DB30E102802E9002EDE5DFF048
:102010009002F0E4F00220E2E5DB30E50FD205307B
:102020000705C2070220E2C20B0220E2C207E5DB7D
:1020300030E13AE5DB30E0109002F1E0FF04F0120D
:102040003077E0F5DF0220E29002F1E0FFB4081300
:10205000208A10D28A9002EEE0FCA3E0240712301E
:102060007DE4F0EF641A707AD2060220E29002F06A
:10207000E0700EA3E5DFF09002F07401F0D207806B
:10208000619002F1E0902D7393FFB4FF089002ED90
:10209000E5DFF08047EF640F70299002F1E0FFA3C5
:1020A000E0FCA3E0FD12307CE0540FF09002F1E080
:1020B000FF04F0ED12307CE0FFE5DF54F0FEEF4E60
:1020C000F0801F9002F1E0FF123077E5DFF0EFB40F
:1020D000240A9002B57401F0A374F4F09002F1E0C8
:1020E00004F075DBFFD0D0D082D083D0E0329001F5
:1020F00031E0600612131C0221D69001331212B394
:10210000FBE9C0E0EAC0E0EBC0E012128DFFE4FCA6
:10211000FDD0E0FBD0E0FAD0E0F9EB2FFFEA35F09C
:102120001212CB900133120B1F900138E004F070B3
:1021300006900137E004F09002B7E07002A3E0607F
:10214000030221E0900133121375FFEEC0E0EFC0EF
:10215000E0121351D0E0FFD0E0FE120A40900133AC
:10216000120B1F9001161212902432FFE435F0FE7C
:102170009001331212B0FBD3120AE840399002B337
:10218000E07002A3E0702F200A2C90013AE004F0E6
:102190007006900139E004F0D390013AE094059084
:1021A0000139E09400401E12129B121316E49001B4
:1021B00039F0A3F0800F12129B121316E49001392C
:1021C000F0A3F0C20A900133120B2B00000000E4D0
:1021D000900137F0A3F09002B77402F0A374BCF042
:1021E000229001C2E0FEA3E0FFC39001ABE09FFF9D
:1021F0009001AAE09EFE1230BCD3EF940AEE6480F8
:10220000948040209001A2120B2B00000000E4906B
:1022100001A6F0A3F09001C2E0FFA3E09001AACFD5
:10222000F0A3EFF09001A2122A349001C21229EE1D
:102230009001A2120B1F9001A7E004F0700690011C
:10224000A6E004F09001A6E0FEA3E0FFD3940AEE1E
:1022500094004031CBEFCBCAEECAE4F9F89001A26A
:10226000122A28120A409001A8EEF0A3EFF0A3EE84
:10227000F0A3EFF09001A2120B2B00000000E490FD
:1022800001A6F0A3F0D39001A9E094009001A8E08A
:10229000940040309001ACE0FEA3E0FF7C007D03A1
:1022A000120B5CC8ECC8C9EDC9CAEECACBEFCB9023
:1022B00001A81229EEE47B04FAF9F8120A40900111
:1022C000ACEE800B9001C2E0FFA3E09001ACCFF038
:1022D000A3EFF0229002E8EEF0A3EFF0E4FFFEFDA2
:1022E000FCAB5CAA5BA95AA859C3120AE89002E8A1
:1022F0007010E0FEA3E0FFE48F5C8E5BF55AF559A9
:10230000802FE0FEA3E0FFEF255CFFEE355BFEE4EF
:10231000355AFDE43559FCEF2401FFE43EFEE43D6F
:10232000FDE43CFC7801120AF98F5C8E5B8D5A8CBF
:1023300059055DE55DD3940A4011855B57855C586E
:10234000E4F55CF55BF55AF559F55DD3E558940075
:10235000E557940040569002E9E09558FF9002E856
:10236000E09557FE1230BCC3EF940AEE648094806F
:10237000AE57AF58500F7D031213049002E81212AB
:10238000BE7802801CCBEFCBCAEECA9002E8E0FE1A
:10239000A3E0FFEB2FFFEA3EFEE433FDE433FC78DD
:1023A00001120AF99002E8EEF0A3EFF09002E8E0E3
:1023B000FEA3E0FF229002E2EFF0122C8C7402F0F8
:1023C000A3E4F0902E2204F0A3E04401F0E4900294
:1023D000E3F0A3F09002E3E0FEA3E0FFC3940AEE73
:1023E00094004003022492EF9408EE940040067E8D
:1023F000007F0180199002E3A3E004FFE47E02C89D
:10240000EFC8088006CEA2E713CE13D8F8FF9002DB
:10241000E5EEF0A3EFF0902E207409F0902E20E06E
:1024200030E2F99002E2E0FF75F002A42400122CE1
:1024300092E0FCA3E0FD902E20E4F0D3ED94FEECBE
:10244000940740179002E5E0FCA3E0FD75F002EF71
:10245000122C8FEC8DF012096C80269002E2E012B3
:102460002C8CC083C082E0FEA3E0FF9002E5E0FC7C
:10247000A3E0FDC3EF9DFFEE9CD082D083F0A3EFDD
:10248000F09002E4E004F070069002E3E004F00251
:1024900023D47F00227F8F7A01790E1213229001BC
:1024A000107401F0A37400F0744412133D7400F032
:1024B000744612133D7400F0A3744812133E740066
:1024C000F0A3743212133E7400F0A3742E12133E64
:1024D0007400F0A3742CF090012B7401F0A374002D
:1024E000F0A37426F09001917401F0A37400F0A39E
:1024F0007484F090012E7401F0A37400F0A3741C96
:10250000F09001227401F0A37400F0A3743612134A
:102510003E7400F0A3742A12133E7400F0A37438C2
:10252000F01213979001221212A8F9E475F0C81264
:1025300009E59001251212A8F9E475F0641209E585
:102540001214A59001281212A8F9E475F096020958
:10255000E59002DEEEF0A3EF1213AF9002DEE07022
:1025600002A3E060031227E0E4900178F0A3F07F7B
:102570000F122E7812136AA37402F0A374BCF090A9
:10258000010EE0F9A3E0FFA31212A81213169001A6
:10259000131212A81213BF9001191212A81214AF2D
:1025A00090011C1212A81213BF90011F1212A81240
:1025B00014AF1214B8E4900131F0900133120B2BD8
:1025C00000000000900137121361F090010E12120A
:1025D000A0121316E4900132F09002C31214BF90BF
:1025E00002BFF0A3F0FE7F12FD7B017A01797F121A
:1025F0000B8990012B1212909001851213C6900145
:102600008D12139A22D39002B4E094009002B3E0AA
:10261000940040030226AE300025900199E070023C
:10262000A3E09001A0600512145D8007741BF0A365
:102630007458F09001047417F0A37470F0800612BF
:1026400013971214A5900113121290FFAEF01214FA
:10265000654013900131E0601ED3900105E09F902A
:102660000104E09E50119002BBE07002A3E07027CD
:1026700090013104F0802090001BE0B4200512147A
:102680009D80069002BB12139AE4900131F09002F3
:10269000B9F0A3F01214B8900131E0601190002855
:1026A000E090003AB410047410F0227420F022126A
:1026B00012F7E490010AF0A3F090019EF0A3F0FF5E
:1026C0001230461214C9902E20E030E2F9902E020A
:1026D000E0FCA3E0FD90010BE02DF090010A121444
:1026E00071B403DCE4FF12305F1214C9902E20E0B5
:1026F00030E2F9902E0EE0FCA3E0FD90019FE02D6A
:10270000F090019E121471B403DC90010A1214D0EF
:10271000CEC313CE13D8F9FF900109E02FF090013A
:1027200008E03EF090019E1214D0CEC313CE13D811
:10273000F9FF90010DE02FF090010CE03EF0902E9B
:1027400023E4F0902E20F043890A1212FD5380F505
:1027500022787FE4F6D8FD75817502279B02000080
:10276000022DA9E493A3F8E493A34003F68001F2B9
:1027700008DFF48029E493A3F85407240CC8C3337A
:10278000C4540F4420C8834004F456800146F6DF49
:10279000E4800B010204081020408090286CE47E45
:1027A000019360BCA3FF543F30E509541FFEE4933E
:1027B000A360010ECF54C025E060A840B8E493A305
:1027C000FAE493A3F8E493A3C8C582C8CAC583CA30
:1027D000F0A3C8C582C8CAC583CADFE9DEE780BEE8
:1027E0007F01122FC4902E12E0FEA3E02408FFEE1A
:1027F00034FD9002E0F0A3EFF01212F7122E441213
:102800003046902E227401F01214C9902E20E03030
:10281000E2F9902E021214D0CEC313CE13D8F9FFD2
:102820007C007D0F1209248E268F27120B5CEF246B
:10283000E0F56DEE34B1F56CED34FFF56BEC34FF83
:10284000F56A902E20E4F043890A1212FD5380F5B8
:10285000902E23F0900107E0900021F0121380F9F0
:1028600090012E1212A8C98FF00209E5C10B410296
:10287000D4004102D5004102DB004102D1004102F7
:10288000D900C101C1034102DA004102D000C102F6
:10289000C100C1044102F0004102F1004202EB001C
:1028A00000C105C107C1064102ED1041010300410D
:1028B000010710C10AC10941019D00022600000460
:1028C0006A00000000016900410106104101AF00EB
:1028D0000472000000004101AE00410232004201DA
:1028E000C20000440233000000004201AC0000417D
:1028F000023700009002D0E014601B1460432402F1
:10290000705D9002DAE0B4010A9002D0122960D220
:1029100004D200C202227F02122D3BEF60077F0229
:102920001230C8C2049002DAE070349002D074020F
:10293000F0D202C204C2007F031230C87F03022F0C
:10294000997F03122D3BEF60167F031230C890026F
:10295000DAE09002D07003F08003122960C20222F4
:102960007401F07F021230C87F02122F9922758AFB
:1029700010E4F5B275B6FF75B7FF75B2A243B201A8
:102980001230AF9002377401F0E5A830E203008006
:10299000F89001AEE0FFE4FCFDFE122A1E122A2888
:1029A0007808120B0C122A1E122A34900232E0FF11
:1029B000EB4FFFEAFEE9FDE8FCA3122A21A3A3E006
:1029C000FFA3E09001C2CFF0A3EFF0758A50538AC5
:1029D000EF538BEF53A8FBE4F5B212302C0221E148
:1029E000CBEFCB74382BF582E43402F58322E0FE82
:1029F000A3E0FFE4FCFDEB2FFFEA3EFEED39FDEC2A
:102A000038FC22FEEB25E024B0F582E43401F583A6
:102A100022EB25E024FEF582E4342FF58322900298
:102A200033120B1F90023322E0FCA3E0FDA3E0FE73
:102A3000A3E0FF22E0F8A3E0F9A3E0FAA3E0FB2281
:102A40009002DC7408F0A3E4F0A3743FF0A374DFF9
:102A5000F0E4FDFCF9758A10538AEF009002DCE087
:102A6000FEA3E02DF582EE3CF583E493FF69F90DBA
:102A7000BD00010CBC37E5BDDFE29002DE12308400
:102A8000E493699002EE7009123084A37401F0801F
:102A900006123084A3E4F0758A50538AEF00222096
:102AA0000906200203300409E4FFFE122551C20981
:102AB000229002C1E07002A3E060051213F07037AB
:102AC000200003122D037F01122E781219B39002F9
:102AD000DCEEF0A3EFF07B017A0279DC122BFB90A5
:102AE00002DC1213A61212A8121316120F78122665
:102AF000051217721220EE122CC822122CADF5828C
:102B00008E83A3E0B4AA03122A40122CADFF122C2C
:102B1000A4E0B41008EF122CA4E4F0D209122CADFA
:102B2000FF241B122CA6E0700DEF241C122CA6E033
:102B3000B41003122BAA122CAD2413122CA6E0FF02
:102B4000B410069002DA7401F0EFB42005E49002AC
:102B5000DAF0229002B2E024FE60131460231460C5
:102B600027240370449002B27402F01208037F011C
:102B70007E001225519002B27403F0E49002D1F06D
:102B8000229002B27404F0221228F4122C4412286B
:102B9000F490016CE07004A3E06401700C90016C8F
:102BA000F0A3F09002B27402F022758A10538AEFFB
:102BB00000122DE4E4F5F275F30875EEFF75EF3FB2
:102BC00075EA81F5F675EB0700E5EC30E7FBE4F517
:102BD000EC9002EEE0FEA3E0FF241BF582E43EF55C
:102BE00083E5F3F0EF241CF582E43EF583E5F2F093
:102BF00075EB30758A50538AEF00229002DEEBF0BD
:102C0000A3EAF0A3E9F09002B5E07002A3E070330C
:102C1000900132E0602DE49001321213699002E1DC
:102C20007401F07F01122E781219B39002DE121295
:102C3000A81213CE9002E1E004F0E0C3940F40E349
:102C400012149D221213F0702990019DE07003125E
:102C5000136A90019D7401F0900029E0B4200812DD
:102C60002A9F120C0A8003122F419002C57401F0B2
:102C70008017E490019DF0900029E0B42003122A0F
:102C80009F9002C5E06002E4F002302C75F002A4CF
:102C90002410F582E5F0342EF58322F582E43CF52C
:102CA00083EFF022241AF582E43EF583229002EEAF
:102CB000E0FEA3E022A3F0A37401F0A32274662F28
:102CC000F582E43400F5832290003AE0FC9001069E
:102CD000E06C602E90003AE0FE900106F090000B50
:102CE000E09002D9F0540FF0EEB42005E0442080CB
:102CF0000AECB4100B9002D9E04410F090000BF0F5
:102D0000C28A22300634C206902E12E0FFA3E09061
:102D100002DECFF0A3EFF0E4FF122FC4121380FE07
:102D200090012E1212A81213CE9002DEE0FFA3E053
:102D3000902E12CFF0A3EF121369221229E0E06067
:102D40002FE575FFE574122A03E0FCA3E0FDD39F95
:102D5000EC9E501CC3EF9DFFEE9CFE122A11C37423
:102D600001939FE4939E40081229E3E4F07F01223F
:102D70007F002200000000FFFFFFFF0000FFFFFFB9
:102D8000FFFFFFFFFFFF00FF000000FFFF0000004C
:102D9000FFFFFFFFFFFFFF00000000FFFFFFFFFF3F
:102DA000FFFFFFFFFF0000000053A87F122F11124A
:102DB00030A2122F6E12308D43A88012296E90001F
:102DC000FFE0600B9002B27401F0E49000FFF0129B
:102DD0003010122AFB122B5312296E80E1000000E2
:102DE0000100AB6C74AA7583F5758255A574557591
:102DF00083FA7582AAA574A57583F5758255A522F7
:102E000001910201070E0AB00BB60CFF090008FF82
:102E10000D770E050F040401111212081307141088
:102E200010100111020607100A100B800CFF090296
:102E300008FF0DF40E040F04040111101204130313
:102E400014201020902E23E4F0FF74542FF582E418
:102E50003400F583E0FE75F002EFA42400F582E56E
:102E6000F0342EF583E4932420F582E4342EF583A8
:102E7000EEF00FEFB411D3229002E2EFF0122E44E5
:102E8000E49002E3F09002E2E0FFA3E0C39F500B66
:102E90001215089002E3E004F080EA902E20E4F09E
:102EA000121EAA90010EEEF0A3EFF022E4FEE4FF62
:102EB000EF75F003A424C4F582E43401F583E582C0
:102EC0002EF582E43583F583E4F00FEFB40AE10ECA
:102ED000EEB403DA7F09900238E4F0A3DFFC22C0ED
:102EE000E0C083C082900237E0600DE4F0538B7F36
:102EF000758B11438B088012538B7F53A8FBE5B56C
:102F00009001AEF0E5B4900232F0D082D083D0E0F0
:102F100032758A50538AEFE4F58F9000027411F0F5
:102F20009000017422F09000037433F0E4F5AB7567
:102F3000AC0F7589FF75913FF595F592D28AD20C49
:102F400022E4F5B2F5BA758D20438D20538D7F5361
:102F5000AAF7F58BE5DB20E211200B0EE4F58A756C
:102F60008703000000758A50D209758B11229002E8
:102F7000EEE0FFA3E09002F2CFF0A3EFF0E4F5DA89
:102F800075DA4043DA2075D74075DA5875D90143B0
:102F9000A80275B80475F804221229E0E060037FE6
:102FA00001221229E37401F0122A11E493FE740144
:102FB00093FFEF2575FFEE3574122A03EEF0A3EFB1
:102FC000F07F0022CDEFCD1212F7122E44ED6008F3
:102FD00012305F7F071223B51230467F011223B5EE
:102FE00043890A1212FD5380F52201F400280028BB
:102FF00001F4009603E801F403E81770006403E8A5
:10300000003202580258012C01F403E8271000C8CE
:10301000E4FF3005169002EEE0FCA3E0F5828C831D
:10302000E0FE54F0FFEE540FF0C20522E5B230E0AE
:1030300005E5A820E40F75B28E75B6F9E4F5B7433F
:10304000B20143A81022902E217491F0902E247486
:1030500001F0902E27740EF0902E237402F022902F
:103060002E217411F0902E2404F0902E277405F078
:10307000902E237480F022A3E0FCA3E02FF582E4DD
:103080003CF58322E0FEA3E0F5828E83227E007F62
:103090000A7D007B017A0179A2120B8912081602BF
:1030A0002EAC121D561224959002B27401F02253D8
:1030B0008B7F758B10438B0843A80422EE30E70703
:1030C000C3E49FFFE49EFE2274382F1229E6E4F049
:1030D00022000000000000000000000000000000CE
:1030E00000000000000000000000000000000000E0
:1030F00000000000000000000000000000000000D0
:1031000000000000000000000000000000000000BF
:1031100000000000000000000000000000000000AF
:103FD0000000000000000000000000000000006C75
:103FE00000000000000000000000000000000000D1
:103FF00000000000000000000000000000000000C1
:00000001FF
