:1007E0000034000000020000F6EA000000000000F3
:1007F00000000000000000000000000000000000F9
:100800000224B612122153997F122A6D902E42743F
:1008100001F0A3E4F0122CB17F01121DB74389024D
:100820001212274380024399802200022D1874AAD5
:100830007583F5758255A574557583FA7582AAA5D9
:1008400074A57583F5758255A5220002208190401C
:100850007FE493FF64326003EF7002002253A87FAD
:100860000080FD0218C4121A5012215A90021F74FF
:1008700001F022122D1B0228F40000022D15208AFF
:1008800003020C06D3900221E09400900220E09431
:10089000004003020C06900222E07002A3E0600315
:1008A000020C06900182E07002A3E06003020C06D5
:1008B0001213786003020C0690013EE07030900144
:1008C000291211D4FFAEF09001171211D4D39FE575
:1008D000F09E4003020C061212C6E490018EF0A3B3
:1008E000F01213F490022612140BF56A8003756A55
:1008F00000756B12E4F5B2F5BA900192E0F55DA3D4
:10090000E0F55EC207758D20438D20758D8043AA6A
:1009100008D2AF758B02758EAF200A24121378703F
:100920001F200D1CE5DB20E217758AC4200D0DE5A4
:10093000DB20E2087587030000008006D2078002F2
:10094000D207758B11758A5053AAF7D3900221E014
:100950009490900220E09401400EA3E02470F09067
:100960000220E034FEF08007E4900220F0A3F0D3F0
:1009700090022DE0949090022CE09401400EA3E0B0
:100980002470F090022CE034FEF08007E490022CFA
:10099000F0A3F0122A6D902E05E49325E025E09057
:1009A0002EC3F0A3E4F0A3F012122153997F122C6E
:1009B000B1121359902EC0E030E2F9902EC0E4F04D
:1009C000902E02E0F56CA3E0F56D43890212122728
:1009D000438002122CCD121359902EC0E030E2F960
:1009E000121430F522A3E0F52390017AE522F0A35A
:1009F000E523F0A3E56CF0A3E56DF02527FFE56C9A
:100A00003526FEC3EF9523F525EE9522F524121326
:100A1000D0E5259FE5249E40048E248F25902EC48A
:100A2000E4F043998090017EE524F0A3E525F0C32E
:100A3000E55E9525FFE55D9524FE122CFC8E5F8F0B
:100A40006012144C4003020BE2AE24AF257C007D03
:100A500014120EA6121456AF69AE68AD67AC66905C
:100A600002D2121216FBD3120E209002D24017129D
:100A7000133F9569FFEE9568FEED9567FDEC956671
:100A8000FC1214568007120E5C00000000E47F6028
:100A90007EEAFDFC9002D2121216FBD3120E204009
:100AA0000A9002D2120E5C0000EA601211D1FFAE71
:100AB000F07C007D09120EA69002D21212167B0A5B
:100AC00012127112145690013EE07036AE5DAF5EA8
:100AD000FC7D09121252E4FCFDEB2525FFEA3524CA
:100AE00012123BE47B0A12127D8E5D8F5E9002D261
:100AF0001211E212128B1213311211EC12128B022C
:100B00000BE21213311211EC12128B90011A121116
:100B1000D4FFAEF09002D2121213FBD3120E20506B
:100B200003020BF21211C0121371FEC3EF956FEEA8
:100B3000956E5003020BF29001171211D4FFAEF024
:100B40007C007D02120EA6C8ECC8EDC0E0EEC0E04D
:100B5000EFC0E01211C0121371FEE4FCFDD0E0FB07
:100B6000D0E0FAD0E0F9121236E47B0312127D9045
:100B700001171211EC1213609001171211D4D394C3
:100B800030E5F094754008747575F030120D1D90C5
:100B90000195E0604D12126240489001171211D485
:100BA000121371FE122CFC9002D6EEF0A3EFF0901F
:100BB00001171211D41212B850101213BB400B12AD
:100BC00011E9F9E475F006120CE59001171211D441
:100BD000D31212B9400CD31213BB40061211E91202
:100BE000144320070D12144C50081213787003029E
:100BF0000905900194E0041211F49001427401F08F
:100C000090022412141522EF8DF0A4A8F0CF8CF0DE
:100C1000A428CE8DF0A42EFE22BC000BBE0029EF2E
:100C20008DF084FFADF022E4CCF875F008EF2FFFD3
:100C3000EE33FEEC33FCEE9DEC984005FCEE9DFEA1
:100C40000FD5F0E9E4CEFD22EDF8F5F0EE8420D2E8
:100C50001CFEADF075F008EF2FFFED33FD40079857
:100C60005006D5F0F222C398FD0FD5F0EA22C2D586
:100C7000EC30E709B2D5E4C39DFDE49CFCEE30E71F
:100C800015B2D5E4C39FFFE49EFE120C19C3E49D88
:100C9000FDE49CFC8003120C1930D507C3E49FFFD0
:100CA000E49EFE22C5F0F8A3E028F0C5F0F8E58246
:100CB000158270021583E038F022BB010A89828A0E
:100CC00083E0F5F0A3E022500687F009E71922BB84
:100CD000FE07E3F5F009E3192289828A83E493F59C
:100CE000F074019322BB010789828A83020CA4500D
:100CF0000B09C5F027F7C5F01937F722BBFE0D0920
:100D0000F8E325F0F3C5F019E338F322F889828A75
:100D10008374019325F0C5F0F8E4933822BB010AEF
:100D200089828A83F0E5F0A3F0225006F709A7F044
:100D30001922BBFE06F3E5F009F3192275F00875D8
:100D40008200EF2FFFEE33FECD33CDCC33CCC58206
:100D500033C5829BED9AEC99E58298400CF582EEC2
:100D60009BFEED9AFDEC99FC0FD5F0D6E4CEFBE4AA
:100D7000CDFAE4CCF9A88222B800C1B90059BA0072
:100D80002DEC8BF084CFCECDFCE5F0CBF97818EFCD
:100D90002FFFEE33FEED33FDEC33FCEB33FB10D7CE
:100DA00003994004EB99FB0FD8E5E4F9FA2278188F
:100DB000EF2FFFEE33FEED33FDEC33FCC933C910EA
:100DC000D7059BE99A4007EC9BFCE99AF90FD8E01C
:100DD000E4C9FAE4CCFB2275F010EF2FFFEE33FEEE
:100DE000ED33FDCC33CCC833C810D7079BEC9AE861
:100DF00099400AED9BFDEC9AFCE899F80FD5F0DAE2
:100E0000E4CDFBE4CCFAE4C8F922EB9FF5F0EA9ECE
:100E100042F0E99D42F0EC6480C864809845F0227D
:100E2000EB9FF5F0EA9E42F0E99D42F0E89C45F028
:100E300022E8600FECC313FCED13FDEE13FEEF137D
:100E4000FFD8F122ECF0A3EDF0A3EEF0A3EFF02237
:100E5000ECF208EDF208EEF208EFF222A8828583A8
:100E6000F0D083D082120E73120E73120E73120E14
:100E700073E473E493A3C583C5F0C583C8C582C872
:100E8000F0A3C583C5F0C583C8C582C822D083D06E
:100E900082E493F208740193F208740293F20874E6
:100EA0000393F2740473EC8EF0A4CCC5F0CCCDF8AF
:100EB000EFA4CEC5F02DFDE43CFCE8A42EC8C5F09F
:100EC0003DFDE43CFCEFA4FFE5F028FEE43DFDE43D
:100ED0003CFC22EF4E6012EF60010EEDBB010B896E
:100EE000828A83F0A3DFFCDEFA2289F05007F7093B
:100EF000DFFCA9F022BBFEFCF309DFFCA9F0221203
:100F000011C0FDACF0D39FEC9E403390011A12113A
:100F1000D4FFC3ED9FFFEC95F0FED3EF9430EE9439
:100F200075400C9002D47475F0A37430F0801612E2
:100F300011CB1213719002D4F0A3EFF08007E4906C
:100F400002D4F0A3F090013EE0604990012C121110
:100F5000D4FFD39002D5E09F9002D4E095F0400BEF
:100F6000900226E4F0A37464F0801BD3900227E083
:100F70009400900226E09400400C9001171211D4C6
:100F80009002D4121351D20990022C740FF0A37462
:100F9000A0F0801390022A7403F0A374E8F07B00A1
:100FA0007A00795212120AD39002D5E0940090028E
:100FB000D4E0648094805003021196E0F9A3E0FF2E
:100FC0009001171211EC12128B121291E47BB87A75
:100FD00088F9F8C3120E0A500A9002D47488F0A35C
:100FE00074B8F0D3900229E09400900228E09400B5
:100FF0005007900027E0B420121213B19496EE64CB
:1010000080948050067C007D0A8019300021900178
:101010003EE0701B1213B194A0EE6480948F500FC9
:101020007C007D32120C6E9002D4EEF0A3EFF090B3
:10103000013EE0700302117590022AE07002A3E005
:101040006003021175121291E5552FF555E5543ED6
:10105000F554E5533DF553E5523CF5520557E55738
:1010600070020556C3E55B94E8E55A940350030209
:101070001119AE56AF57CBEFCB1212B1AF55AE54DC
:10108000AD53AC52120D789002D6121391E5599FD0
:10109000FFE5589EFE122CFC9002D8EEF0A3EFF074
:1010A000D39464EE94005006E5594558700C9002B4
:1010B000D6E0F558A3E0F559804ED39002D7E095DD
:1010C000599002D6E09558401B12137F4004740AD1
:1010D000800BD3EF943CEE9400402D74052559F518
:1010E00059E4802012137F400A74F62559F559748B
:1010F000FF8011D3EF943CEE9400400C74FB255913
:10110000F55974FF3558F558E4F555F554F553F590
:1011100052F556F557F55AF55BD3E5599400E55865
:10112000940040309002D5E09559FF9002D4E095AC
:1011300058FE122CFCC3EF9464EE64809480500837
:101140001213E8E4F55C800CE55CC39407500512CB
:1011500013E8055C9001201211D4FFAEF07D0F1250
:101160001250121291EB7B10121271900120121189
:10117000ECF9EE800F9002D4E0F9A3E0FF9001209B
:101180001211ECC98FF0120D1D9001201211D42400
:10119000A8FFE5F0801D9001171211EC12134A9080
:1011A00001201211EC12134A9002D5E024A8FF90FE
:1011B00002D4E03461F990011D1211EC12128B225D
:1011C00090011AE0FBA3E0FAA3E0F9120CBAFFAE1B
:1011D000F0900114E0FBA3E0FAA3E0F9020CBA904E
:1011E0000143A3A3E0F9A3E0FF90011AE0FBA3E011
:1011F000FAA3E022F07E007F057D007B007A007973
:1012000061120ED37BFE7A0079007E007F0B7D0099
:10121000020ED3E4FCFDE0F8A3E0F9A3E0FAA3E0BA
:101220002243AB025389FD5395FD5396FD22E0FE08
:10123000A3E0FFE4FCFDEB2FFFEA3EFEED39FDEC01
:1012400038FC22E50A25E02428F8E6FE08E6FF221D
:101250007C00120EA6C8ECC8C9EDC9CAEECACBEF15
:10126000CB22900199E0FEA3E0FFD39400EE94001E
:10127000222FFFEA3EFEE93DFDE83CFCE4FAF9F8E6
:10128000020D78A3F0A37401F0A322C98FF0020D20
:101290001D9002D4E0FEA3E0FFEE3395E0FDFC22BA
:1012A0009002227402F0A37458F022A3E0FEA3E09F
:1012B000FBCAEECAE4F9F822C3FF90019AE09F90BE
:1012C0000199E095F0227F087A0179437E007D0044
:1012D0007B01020ED3E4F0902EC07402F022E4F001
:1012E000A3F0A3F0A322902E42E0FEA3E0FF7C0037
:1012F0007D14120C0790013222E0FCA3E0FDC3EF45
:101300009D227806E2FF08E2CF900180F0A3EFF083
:1013100022E50D25E02486F582E43401F583E0FE24
:10132000A3E0FF229002D5E0940A9002D4E094005A
:10133000229002D2A3A3E0F9A3E0FF90011422E0DF
:10134000FCA3E0FDA3E0FEA3E022F9E4F5F0020D2A
:101350001DFFE5F0F0A3EFF022902EC07419F022EB
:10136000F9EE8FF0020D1DE4F50EF50DF50CF50B01
:1013700022C39FFFE5F09E22900027E06420229088
:1013800002D8E0FEA3E0FFD39450EE940022900236
:10139000D8EEF0A3EFF0C322F50DED350CF50CEC13
:1013A000350BF50B22AB0EAA0DA90CA80BD3020E20
:1013B000209002D4E0FEA3E0FFC3229002D7E09485
:1013C0000A9002D6E0940022EF25E0FFEE33FE22E1
:1013D000E5272488FFE5263413FED322E4FCFDE54F
:1013E0000E2FF50EE50D3E229002D4E558F0A3E550
:1013F00059F022E4900228F0A3F022F9746175F00C
:10140000A8020D1D9000467410F022F0A3F0900287
:101410002EF0A3F022E4F0A374C8F022E493902EFF
:10142000C7F0902EC422C3EF940AEE648094802209
:10143000902EC0E4F0902E1EE0223EFE7C007D0344
:10144000020C19F974FF75F0FA020CE5C3E560951A
:101450006BE55F956A229002D2020E441212D79079
:101460002EC4E4F0A3F053997FF50BF50CF50DF5C0
:101470000EF50A122CB1121221121359902EC0E04F
:1014800030E2F9902EC0E4F0438902121227438023
:1014900002902E02E0FEA3E0250CF50CEE350BF5D4
:1014A0000B122CCD121359902EC0E030E2F9121419
:1014B00030FEA3E0250EF50EEE350DF50D050AE51F
:1014C0000AC3940440AD439980902EC5E4F0E5270B
:1014D000240CFFE52634FEFED3EF950CEE950B4071
:1014E00016900182E07002A3E070139001827403F1
:1014F000F0A374E8F08007E4900182F0A3F090017B
:101500007A12126540161213C8E50E2FFFE50D1270
:10151000143A90017AEEF0A3EFF0800A90017AE598
:101520000DF0A3E50EF090017C1212654016121327
:10153000C8E50C2FFFE50B12143A90017CEEF0A3E6
:10154000EFF0800A90017CE50BF0A3E50CF0900130
:101550007DE02527FF90017CE03526FE90017A1280
:1015600012F9F510EE9CF50F1213D0E5109FE50F60
:101570009E40048E0F8F10900176E50FF0A3E510CA
:10158000F0FFAE0F1222E4EE1213097800E2FB081E
:10159000E2F908E2FA08E2CBF890018012122E7804
:1015A00000120E507805E22401F218E23400F2C372
:1015B0007809E294E818E29403500302165E780476
:1015C000E2FE08E2FFE4FCFDECC0E01212587800F5
:1015D000E2FC08E2FD08E2FE08E2FFD0E0F8120DAE
:1015E0007812138E7807E29FFF18E29EFE122CFC01
:1015F0009002DAEEF0A3EFF07806E2FE08E2FF4E8A
:1016000060109002DAE0FCA3E0FDD39405EC9400B6
:1016100040109002D8E0FBA3E07806CBF208EBF292
:101620008028C3ED9403EC9400401F9002D812125E
:10163000F9EE9C7807E2500A2401F218E23400F235
:10164000800824FFF218E234FFF27800120E8D00B9
:10165000000000E47804F208F27808F208F2780654
:10166000E2FE08E21212694046900181E09FFF907D
:101670000180E09EFE122CFC12138E9407EE940063
:101680005009121302E4780AF28024D39002D9E0C0
:1016900094149002D8E094004005780A7403F2781C
:1016A0000AE2C394035008121302780AE204F2908B
:1016B0000180E0FEA3E0FF90017EEEF0A3EFF08E4C
:1016C00050F551750A01E50A121245E50A25E02494
:1016D00026F8C6EEC608C6EFC6050AE50AB415E642
:1016E0002290019D121216FBE9C0E0EAC0E0EBC0B7
:1016F000E090012F1211D4FFE4FCFDD0E0FBD0E01C
:10170000FAD0E0F9EB2FFFEA35F012123B90019D81
:10171000120E449001A2E004F070069001A1E004D2
:10172000F09001A3E07002A3E060030218B2900100
:101730009D12133FFFEEC0E0EFC0E01212ABD0E00D
:10174000FFD0E0FE120D7890019D120E4490019D95
:10175000A3A3E0FFA3E090019BCFF0A3EFF0A312BF
:101760000E5C000000009001A11212DE74C8F0901F
:101770000220E07002A3E060030218B290013EE094
:1017800070030218B2900197E0FEA3E0FF4E7022B2
:1017900090019BE0FDA3E0900197CDF0A3EDF090C8
:1017A00001171211D4FD900199E5F0F0A3EDF002BC
:1017B000181490019B1212F9FFEE9CFE122CFC9063
:1017C00001A51211EC121360900195E070249001B4
:1017D000A51211D4C39404E5F09400500F900117A2
:1017E0001211D4FF90019912135280069001957442
:1017F00001F090019BE0FEA3E0FFD3900198E09FF1
:10180000900197E09E4007E4900196F080069001D9
:10181000967401F0900195E070030218B212126202
:1018200050030218B29001171211D4121371FE1254
:101830002CFC9002D4EEF0A3EFF09001171211D41B
:10184000FFAEF0900199E0FCA3E0FDC39FEC9E5039
:101850000B9002D5E094C812132A5013D3ED9FECDD
:101860009E4019D39002D5E0943212132A400DE421
:10187000900195F0900197F0A3F080369001171237
:1018800011D4FFD3ED9FEC95F0400CD312132440FC
:10189000061211E91214439001171211D41212B852
:1018A0005010121324400B1211E9F9E475F00612DE
:1018B0000CE590013EE0700B9001971212DFF09062
:1018C0000195F022C0E0C083C082C0D0E8C0E0D261
:1018D000AF900233E004F0D3900221E09400900234
:1018E00020E09400400CA3E024FFF0900220E034BC
:1018F000FFF0D3900223E09400900222E094004095
:101900000CA3E024FFF0900222E034FFF0D3900219
:1019100025E09400900224E09400400CA3E024FF12
:10192000F0900224E034FFF0D3900227E09400907E
:101930000226E09400400CA3E024FFF0900226E091
:1019400034FFF0D3900229E09400900228E0940044
:10195000400CA3E024FFF0900228E034FFF0D39085
:101960000231E09400900230E09400400CA3E024A7
:10197000FFF0900230E034FFF0D390022FE09400AB
:1019800090022EE09400400CA3E024FFF090022E81
:10199000E034FFF0D390022BE0940090022AE09410
:1019A00000400CA3E024FFF090022AE034FFF0C3D3
:1019B0007809E294E818E29403500A08E22401F25C
:1019C00018E23400F2C3E55B94E8E55A940350084A
:1019D000055BE55B7002055AD39001A4E09400908A
:1019E00001A3E09400400CA3E024FFF09001A3E0E9
:1019F00034FFF0D3900183E09401900182E09400E1
:101A0000400CA3E024FFF0900182E034FFF0D3907B
:101A1000022DE0940090022CE09400400CA3E024FE
:101A2000FFF090022CE034FFF0D3900141E09400ED
:101A3000900140E09400400CA3E024FFF0900140AE
:101A4000E034FFF0D0E0F8D0D0D082D083D0E032C4
:101A50007E007FFF7D007B017A007910120ED3900B
:101A600002E67400F0A37410F09001D37401F0A3A7
:101A70007400F0A374C4F09001D97401F0A3740051
:101A8000F074B8122A5A7400F0A374A0F09001D632
:101A90007401F0A37400F0A374D2F09001DF74011C
:101AA000F0A37400F074DE122A5A7400F0A3742BB1
:101AB000122A5B7401F0A3740EF0902DE0E493FF02
:101AC0009002E6E0FCA3E0FDF5828C83A3EFF090AA
:101AD000000EE0FFED2404122A3490000DE0FFED2B
:101AE0002405122A3490000FE0FFED2406122A3458
:101AF000902DE2E493FFED2412122A34902DE3E4BA
:101B000093FFED2414122A349001E87401F0A374B9
:101B100000F0A37448F0E4FF75F004EFA42401F58D
:101B200082E5F0342EF583E493FE122A62EEF01281
:101B30002A62E0FE75F004EFA42400F582E5F0349B
:101B40002EF583E49324C0F582E4342EF583EEF081
:101B50000FEFB416C3902F56E0900064F0902F560C
:101B6000E090007AF0902F56E0900065F0902F56AC
:101B7000E090007BF090010B7401F090010AF0906E
:101B800000467410F0900027F0900034F0A3742009
:101B9000F09002207407F0A374D0F02290018E120E
:101BA00013B49404EE9400502B900112E0FCA3E0D7
:101BB000FD1213C874862FF58274013EF583ECF094
:101BC000A3EDF090018FE004F0700690018EE00428
:101BD000F0021C55750D01121311E50D25E024844A
:101BE000F582E43401F583EEF0A3EFF0050DE50D89
:101BF000B404E41211D1FF9001121212F9FFE5F0C2
:101C00009CFE122CFCC3EF940FEE6480948050363F
:101C100090013EE0702290011A1211D4FFC390018E
:101C200013E09FFF900112E095F0FE122CFC1214BD
:101C300026500590011A80039001141211D4FF90D0
:101C4000018CE5F0800B900112E0FFA3E090018C85
:101C5000CFF0A3EFF0E4F50CF50BF50AF509F50D5F
:101C6000D390018FE0950D90018EE09400401E12FC
:101C70001311E4FCFDE50C2FF50CE50B3EF50BED27
:101C8000350AF50AEC3509F509050D80D3AF0CAE20
:101C90000BAD0AAC09EEC0E0EFC0E090018E12126D
:101CA000ACD0E0FFD0E0FE120D788F0C8E0B8D0AC9
:101CB0008C0922121367F515F5168528118529124E
:101CC00085281385291485290E85280DF50CF50B1B
:101CD000750A01121243D3E5149FE5139E40048E4A
:101CE000138F14C3E5129FE5119E50048E118F12BD
:101CF0001212431213DC121398050AE50AB414D326
:101D0000E5142512FFE5133511FAC3E50E9FFFE533
:101D10000D9AFEE50C9400FDE50B9400FCE47B12AB
:101D200012127D8E0F8F10900192E50FF0A3E51037
:101D3000F0121367F50A121243C3E5109FFFE50F77
:101D40009EFE122CFCD3EF9419EE64809480400F19
:101D5000E4FCFDE50E2510F50EE50D350F800612AD
:101D600012431213DC121398050AE50AC3941440B7
:101D7000C5AF69AE68AD67AC661213A5401AE50E33
:101D80009569F50EE50D9568F50DE50C9567F50C73
:101D9000E50B9566F50B8003121367E47F607EEA1E
:101DA000FDFC1213A5400BE4750E60750DEAF50CF1
:101DB000F50BAE0DAF0E229002D8EFF09002DDE4ED
:101DC000F0A374FFF0E4A3F0A3F0A304F0A374FF66
:101DD000F0902EC07402F0902EC37408F0E49002CC
:101DE000D9F0A3F09002D9E0FEA3E0FFC39409EE7E
:101DF00094004003021EABEF9407EE940040067E71
:101E0000007F0180199002D9A3E004FFE47E01C89D
:101E1000EFC8088006CEA2E713CE13D8F8FF9002D1
:101E2000DBEEF0A3EFF0902EC07419F0902EC0E01E
:101E300030E2F9902EC0E4F09002D8E0FF75F00295
:101E4000A42400122A49E0FCA3E0FD902EC07402F5
:101E5000F0D3ED94FFEC940F40179002DBE0FCA36D
:101E6000E0FD75F002EF122A46EC8DF0120CA48012
:101E7000299002D8E075F002122A46C083C082E0A1
:101E8000FEA3E0FF9002DBE0FCA3E0FDC3EF9DFFBB
:101E9000EE9CD082D083F0A3EFF09002DAE004F061
:101EA00070069002D9E004F0021DE47F0022900148
:101EB0003EE060061212C6021F96900143121216EF
:101EC000FBE9C0E0EAC0E0EBC0E01211D1FFE4FCA6
:101ED000FDD0E0FBD0E0FAD0E0F9EB2FFFEA35F0DF
:101EE00012123B900143120E44900148E004F0703E
:101EF00006900147E004F0900224E07002A3E06045
:101F000003021FA090014312133FFFEEC0E0EFC099
:101F1000E01212ABD0E0FFD0E0FE120D789001434A
:101F2000120E4490011A1211D42432FFE435F0FE4F
:101F3000900143121213FBD3120E2040399002205D
:101F4000E07002A3E0702F20092C90014AE004F019
:101F50007006900149E004F0D390014AE0940590A6
:101F60000149E09400401E1211DF12128BE490012F
:101F700049F0A3F0800F1211DF12128BE490014997
:101F8000F0A3F0C209900143120E5C00000000E4CF
:101F9000900147F0A3F09002247402F0A374BCF007
:101FA000229002D4EEF0A3EF1211F4E490017AF043
:101FB000A3F0900176F0A3F090017C1212DFF0A361
:101FC000F0A3F09002D4E07002A3E060031222209C
:101FD000122424E490018EF0A3F07F14122B6F12D0
:101FE00012A0A37402F0A374BCF0900112E0FEA34F
:101FF000E0FFE4FCFD9001A9120E44900112E0F90B
:10200000A3E0FFA31211EC12128B9001171211EC36
:1020100012134A90011D1211EC1213FB90012012B1
:1020200011EC12134A9001231211EC1213FB12143B
:1020300004E490013EF0900143120E5C00000000A9
:102040009001471212DEF09001121211E412128B6D
:10205000E4900142F090023012140B90022CF0A395
:10206000F0FE7F10FD7B017A017995120ED390016D
:102070002F1211D490019B1213519001A312141529
:1020800022C0E0C083C082C0D0ECC0E0EFC0E0D28C
:10209000AFE5DB30E419D20DC20CE5DB30E10280A4
:1020A0002E9002E5E5DFF09002E8E4F0022148E539
:1020B000DB30E50FD20A300C05C20C022148C20DFC
:1020C000022148C20CE5DB30E138E5DB30E00F905F
:1020D00002E9E0FF04F0122CE6E0F5DF806A9002EE
:1020E000E9E0FFB40813208A10D28A9002E6E0FCEF
:1020F000A3E02407122CECE4F0EF641A704AD20B30
:1021000080469002E8E0700EA3E5DFF09002E874EC
:1021100001F0D20C80329002E9E0902AA693B4FF3D
:10212000089002E5E5DFF080199002E9E0FF122C4B
:10213000E6E5DFF0EFB4240A9002227401F0A37404
:10214000F4F09002E9E004F075DBFFD0E0FFD0E0AE
:10215000FCD0D0D082D083D0E0327F9B7A0179123C
:102160001212CC9001147401F0A37400F074501298
:1021700012837400F074521212837400F0A374542A
:102180001212847400F0A3743E1212847400F0A33F
:10219000743A1212847400F0A37438F090012F7412
:1021A00001F0A37400F0A37432F09001A57401F063
:1021B000A37400F0A37490F09001327401F0A37442
:1021C00000F0A374281212847400F0A3742EF0900F
:1021D00001267401F0A37400F0A3744212128474F7
:1021E00000F0A374361212847400F0A37444F075E6
:1021F0006E00756FC89001261211ECF9E56E856FBF
:10220000F0120D1D9001291211ECF9E475F0641221
:102210000D1D90012C1211ECF9E475F096020D1DC4
:10222000120803902E42E0FEA3E024A4FFEE34FE49
:102230009002D6F0A3EFF012122153997F122A6D6B
:10224000122CB11212D7902EC314F0121359902EE3
:10225000C0E030E2F9902EC0E4F0902E059375F0C6
:1022600004A4FFAEF0902E02E0FCA3E0FD120C07E8
:102270008E268F277C007D14120EA6EF24E0F569D0
:10228000EE34B1F568ED34FFF567EC34FFF56643E5
:10229000890212122743800243998053997F122C9E
:1022A000CD902E5EE4F0A374FFF07F0F121DB79067
:1022B0002E5EE0FEA3E0D394F0EE94014007902E52
:1022C0005EE4F0A3F0902EC4E4F0439980A3F09074
:1022D0000111E090002DF01212E61211ECF9EE8FD0
:1022E000F0020D1D9002DCEEF0A3EFF0E564456313
:1022F000700C9002DCE0F563A3E0F564801C9002B2
:10230000DDE02564FF9002DCE03563FEEF2401FF91
:10231000E43EC313F563EF13F5640565E565D394F7
:102320000A400D856361856462E4F563F564F565D3
:10233000D3E5629400E561940040479002DDE095AA
:1023400062FF9002DCE09561FE122CFC1214265014
:1023500019AE61AF627D031212509002DC12122E90
:102360007802120E319002DC80139002DDE02562CB
:10237000FF9002DCE03561C313FEEF13FFEEF0A324
:10238000EFF09002DCE0FEA3E0FF22300008756E63
:102390001B756F588006756E00756FC89001171217
:1023A00011D4FFAEF0C3956FEE956E501590013EBF
:1023B000E0602090012C1211D4FDC3EF9DEE95F04A
:1023C0004011900228E07002A3E0702790013E04C3
:1023D000F08020900027E0B420051213F3800690CF
:1023E0000228121415E490013EF0900226F0A3F0AA
:1023F00012140490013EE0FFA3E06F600FEFF0B411
:10240000010A900140744EF0A37420F090013EE068
:102410006011900034E0900046B410047410F02273
:102420007420F0224389025395FD5396FD438002A8
:10243000122C397F0C122545CAEECACBEFCB7F0C8C
:10244000122545EF2BFFEE3AFE9002D7F0A3EFF0F6
:102450007C007D14120C079002D7EEF0A3EFF0126F
:102460002C77120CBA45F0700A9002D7E0FFA3E077
:10247000CF803D120CBAFFAEF07C007D08120EA694
:10248000C8ECC8C9EDC9CAEECACBEFCB9002D7E001
:10249000FEA3E0FFE4FCFDEB2FFFEA3EFEED39FD7D
:1024A000EC38FCE47B09FAF9F8120D78122C77EE7F
:1024B0008FF0120D1D22787FE4F6D8FD75816F0232
:1024C0002500020000022B12E493A3F8E493A3403A
:1024D00003F68001F208DFF48029E493A3F854079F
:1024E000240CC8C333C4540F4420C8834004F4569A
:1024F000800146F6DFE4800B0102040810204080D2
:1025000090263BE47E019360BCA3FF543F30E50975
:10251000541FFEE493A360010ECF54C025E060A8D1
:1025200040B8E493A3FAE493A3F8E493A3C8C58264
:10253000C8CAC583CAF0A3C8C582C8CAC583CADFD2
:10254000E9DEE780BECDEFCD43AD105399EF439A5E
:1025500010539BEF122C8E147E00C8EDC808800526
:10256000C333CE33CED8F9FF902EC4EEF0A3EFF0F4
:10257000902EC8EEF0A3EFF07410122C83902EC0B2
:10258000E030E2F9902EC0E4F07402F07420122CD6
:1025900083902EC0E030E2F9902E00E0FEA3E0FF31
:1025A000122C8E902EC4E4F0A3F0902EC8F0A3F06D
:1025B000902EC0F0439910539AEF539BEF5390EF36
:1025C0002290023DE014601B1460432402705D9071
:1025D0000247E0B4010A90023D12262DD205D20036
:1025E000C203227F02122936EF60077F02122D08F4
:1025F000C205900247E0703490023D7402F0D203AD
:10260000C205C2007F03122D087F030228197F0331
:10261000122936EF60167F03122D08900247E090D2
:10262000023D7003F0800312262DC203227401F0D4
:102630007F02122D087F0212281922410241004117
:1026400002420041023E0041024600C102C101C1F6
:10265000044102470041023D00C103C100C10541E0
:1026600002E8004102E9004202E30000C10AC10C95
:10267000C10B4102E51041010F0041011110C106DB
:10268000C109C1084101AD00022600000466000036
:1026900000004101101041024800C10D41000B0033
:1026A0000020080620030330050FE4FFFE121FA1DF
:1026B000C2089001A87401F02290022EE07002A3DB
:1026C000E06005121378703A200003122ADC12240D
:1026D000247F01122B6F121B9C9002D2EEF0A3EF0D
:1026E000F07B017A0279D212286A9002D212133654
:1026F0001211EC12128B120EFF12238B1216E11222
:102700001EAE1229F9229002D27408F0A3E4F0A3BD
:10271000743FF0A374DFF0E4FDFCF9758A10538A6E
:10272000EF009002D2E0FEA3E02DF582EE3CF583AF
:10273000E493FF69F90DBD00010CBC37E5BDDFE294
:102740009002D4122CF3E493699002E67009122CE3
:10275000F3A37402F08006122CF3A3E4F0758A5000
:10276000538AEF002290021FE024FE6013146023BE
:102770001460272403704990021F7402F0122D1177
:102780007F017E00121FA190021F7403F0E49002EB
:102790003EF02290021F7404F0221225C112297803
:1027A0001225C1900182E07004A3E06401700C90D6
:1027B0000182F0A3F090021F7402F0E4900233F063
:1027C00022122A52F5828E83A3E0B4AA03122706AE
:1027D000122A52FF122A3DE0B41008EF122A3DE4FB
:1027E000F0D208122A52FF241B122A3FE0700DEF8C
:1027F000241C122A3FE0B410031228B1122A5224DA
:1028000013122A3FE0FFB410069002477401F0EF64
:10281000B42005E4900247F0229002D2EFF0E024C9
:10282000C9122C19E060037F01229002D2E0FF243C
:10283000C9122C197401F0EF122C21E493FE7401DB
:1028400093FFE4FCFD902F60E0F8A3E0F9A3E0FA29
:10285000A3E02FFFEA3EFEED39EC389002D2E01201
:102860002C2DEEF0A3EFF07F00229002D4EBF0A32A
:10287000EAF0A3E9F0900222E07002A3E070319048
:102880000142E0602BE4900142F01224241212A0D5
:102890007508017F01122B6F121B9C9002D412113C
:1028A000EC1213600508E508C3941440E61213F314
:1028B0002212082EE4F5F275F30875EEFF75EF3F6E
:1028C00075EA81F5F675EB0700E5EC30E7FBE4F51A
:1028D000EC9002E6E0FEA3E0FF241BF582E43EF567
:1028E00083E5F3F0EF241CF582E43EF583E5F2F096
:1028F00075EB3022758B11902F647440F0E4FEE488
:10290000FFEF75F003A4245BF582E43402F583E560
:10291000822EF582E43583F583E4F00FEFB40AE10B
:102920000EEEB403DA7F099002C9E4F0A3DFFC9055
:102930002F647480F022CBEFCB122C16E06036901F
:102940002F60A3A3E0FEA3E0FFEB122C2DE0FCA37D
:10295000E0FDD39FEC9E501DC3EF9DFFEE9CFEEB70
:10296000122C21C37401939FE4939E4008122C16ED
:10297000E4F07F01227F002212137870299001ADCC
:10298000E070031212A09001AD7401F0900035E0E8
:10299000B420081226A112087E8003122B9D9002FB
:1029A000327401F08010E49001ADF01226A1900283
:1029B00032E06002E4F0022C59758A50538AEF909D
:1029C000000E7411F090000D7422F090000F74331B
:1029D000F0E4F5AB75AC1DF5ADF5AF7589FF7591FC
:1029E0003F7599FFF59675931CF59BF595F592F556
:1029F0009A5388FCD28AD20E22900046E0FC9001C5
:102A000010E06C602E900046E0FE900110F0900007
:102A100017E0900246F0540FF0EEB42005E0442099
:102A2000800AECB4100B900246E04410F0900017BE
:102A3000F0C28A22F582E43CF583EFF022241AF5F5
:102A400082E43EF58322A42440F582E5F0342EF59D
:102A500083229002E6E0FEA3E022A3F0A37401F03B
:102A6000A32274602FF582E43400F583221212D77A
:102A7000902EC4E4F0A3F0FF74602FF582E43400DC
:102A8000F583E0FE75F004EFA42400F582E5F03450
:102A90002EF583E49324C0F582E4342EF583EEF022
:102AA0000FEFB416D32200000000FFFFFFFF00006D
:102AB000FFFFFFFFFFFFFFFFFF00FF000000FFFF22
:102AC000000000FFFFFFFFFFFFFF00000000FFFF0F
:102AD000FFFFFFFFFFFFFFFF00000000300B32C2CF
:102AE0000B902E42E0FFA3E09002D4CFF0A3EFF0D2
:102AF0001208031212E61211EC1213601212D79090
:102B000002D4E0FFA3E0902E42CFF0A3EFF0121228
:102B1000A02212084E122BF053A87F1229B91208D6
:102B200066122B4143A88012087390010BE06006E7
:102B300090021F7401F0122C951227C11227658094
:102B4000F59002E6E0FFA3E09002EACFF0A3EFF0F9
:102B5000E4F5DA75DA4043DA2075D74075D640756A
:102B6000DA5875D90143A90875B80875F808229094
:102B700002D7EFF0122A6DE4F5099002D7E0FFE5E5
:102B800009C39F500712145C050980EE902EC0E423
:102B9000F0121CB3900112EEF0A3EFF022E4F5B2B4
:102BA000F5BA758D20438D20538D7F53AAF7F58B91
:102BB000E5DB20E211200D0EE4F58A7587030000A5
:102BC00000758A50D208758B112201F40028002864
:102BD00001F4009603E801F403E81770006403E8C9
:102BE000003202580258012C01F403E8271000C8F3
:102BF0005391FC4392037F40208804EF4402FF205E
:102C00008904EF4404FFEF64406005E4F5DA80FED8
:102C100090000BEFF02274C92BF582E43402F583A7
:102C20002225E024DEF582E4342BF5832225E024FE
:102C300049F582E43402F58322122C8E902EC7745B
:102C400074F0902ECD74C0F0A374FFF0A3F0902E1A
:102C5000C37401F0902ECAF022E5B230E005E5AA77
:102C600020E013E4900234F075B28E75B6F9F5B732
:102C700043B20143AA012290012FE0FBA3E0FAA393
:102C8000E0F922902EC2F0902EC07419F022902EFE
:102C9000C07402F022E4FF300A169002E6E0FCA3C2
:102CA000E0F5828C83E0FE54F0FFEE540FF0C20A90
:102CB000229002DC1212D5902E01E493902EC2F0E5
:102CC000902E2D12141CE4F0A37402F0229002DC6A
:102CD0001212D5902EC27412F0902E5912141C7438
:102CE00080F0A3E4F022A3E0FCA3E02FF582E43C13
:102CF000F58322E0FEA3E0F5828E8322EE30E70723
:102D0000C3E49FFFE49EFE2274C92F122C19E4F045
:102D10002212140422D2AF32D2AF32022C59000058
:102D200000000000000000000000000000000000A3
:102D30000000000000000000000000000000000093
:102D40000000000000000000000000000000000083
:102D50000000000000000000000000000000000073
:102D60000000000000000000000000000000000063
:102D70000000000000000000000000000000000053
:102D80000000000000000000000000000000000043
:102D90000000000000000000000000000000000033
:102DA0000000000000000000000000000000000023
:102DB0000000000000000000000000000000000013
:102DC0000000000000000000000000000000000003
:102DD00000000000000000000000000000000000F3
:102DE0000201AB3400000000000000000000000001
:102DF00000000000000000000000000000000000D3
:102E000002121212030304040A1010140DA0A0A051
:102E10000EB6B6B60FFFFFFF0C0202020BFFFFFF5C
:102E200023F7F7F72406060625040400070101012D
:102E3000270404042A040404280000022B000002D2
:102E4000290303032C0303032D0808082E08080890
:102E50002F08080826080808072111700211030628
:102E60000A100D400E800FFF0C020BFF23F4240408
:102E70002504070127102A1028042B0429032C03FA
:102E80002D202E202F102620000000000000000022
:102E90000000000000000000000000000000000032
:102EA0000000000000000000000000000000000022
:102EB0000000000000000000000000000000000012
:102EC0000000000000000000000000000000000002
:103FD0000000000000000000000000000000005C85
:103FE00000000000000000000000000000000000D1
:103FF00000000000000000000000000000000000C1
:00000001FF
