:10000000001B00000003000052620000000000001E
:1000100000000000000000000000000000000000E0
:1000200078FFE4B8200118F6D8F99000007F007E30
:1000300007E4F0A3DFFCDEFA75817402352B12268B
:1000400052122CBE9001747401F022023EE874AA90
:100050007583F5758255A574557583FA7582AAA5C1
:1000600074A57583F5758255A522000229DB9040A1
:100070007FE493FF64316003EF7002002253A87F96
:100080000080FD022505121760902EC27490F0903A
:100090002EC774011216927402F022022DDDE709B8
:1000A000F608DFFA8046E709F208DFFA803E888228
:1000B0008C83E709F0A3DFFA8032E309F608DFFA60
:1000C0008078E309F208DFFA807088828C83E30984
:1000D000F0A3DFFA806489828A83E0A3F608DFFA5E
:1000E000805889828A83E0A3F208DFFA804C80D2AC
:1000F00080FA80C680D4806980F28033801080A628
:1001000080EA809A80A880DA80E280CA803389827F
:100110008A83ECFAE493A3C8C582C8CCC583CCF02B
:10012000A3C8C582C8CCC583CCDFE9DEE7800D89D2
:10013000828A83E493A3F608DFF9ECFAA9F0EDFBD9
:100140002289828A83ECFAE0A3C8C582C8CCC58321
:10015000CCF0A3C8C582C8CCC583CCDFEADEE8807A
:10016000DB89828A83E493A3F208DFF980CC88F0EC
:10017000EF60010E4E60C388F0ED2402B40400501D
:10018000B9F582EB2402B4040050AF232345822347
:100190009008CE73EF8DF0A4A8F0CF8CF0A428CEF9
:1001A0008DF0A42EFE22BC000BBE0029EF8DF08442
:1001B000FFADF022E4CCF875F008EF2FFFEE33FE30
:1001C000EC33FCEE9DEC984005FCEE9DFE0FD5F067
:1001D000E9E4CEFD22EDF8F5F0EE8420D21CFEAD70
:1001E000F075F008EF2FFFED33FD4007985006D56E
:1001F000F0F222C398FD0FD5F0EA22C2D5EC30E729
:1002000009B2D5E4C39DFDE49CFCEE30E715B2D500
:10021000E4C39FFFE49EFE120986C3E49DFDE49CB7
:10022000FC800312098630D507C3E49FFFE49EFEDD
:1002300022C5F0F8A3E028F0C5F0F8E58215827039
:10024000021583E038F022BB010A89828A83E0F537
:10025000F0A3E022500687F009E71922BBFE07E36E
:10026000F5F009E3192289828A83E493F5F0740199
:100270009322BB0110E58229F582E5833AF583E0FC
:10028000F5F0A3E0225009E92582F886F008E6227D
:10029000BBFE0AE92582F8E2F5F008E222E5832AAE
:1002A000F583E993F5F0A3E99322BB010789828ADC
:1002B00083020A11500B09C5F027F7C5F01937F76B
:1002C00022BBFE0D09F8E325F0F3C5F019E338F37E
:1002D00022F889828A8374019325F0C5F0F8E493AB
:1002E0003822BB010DC58229C582C5833AC5830268
:1002F0000A115011C58229F808E5F026F618F5F024
:10030000E58236F622BBFE11C58229F808E225F007
:10031000F5F0F218E23582F222F8E58229F582E55D
:10032000832AF58374019325F0F5F0E4933822BB1A
:10033000010A89828A83F0E5F0A3F0225006F709CA
:10034000A7F01922BBFE06F3E5F009F31922F8BB6A
:100350000111E58229F582E5833AF583E8F0E5F0BD
:10036000A3F0225009E92582C8F608A6F022BBFEB8
:1003700009E92582C8F2E5F008F22275F0087582D5
:1003800000EF2FFFEE33FECD33CDCC33CCC582331F
:10039000C5829BED9AEC99E58298400CF582EE9B24
:1003A000FEED9AFDEC99FC0FD5F0D6E4CEFBE4CD42
:1003B000FAE4CCF9A88222B800C1B90059BA002DDC
:1003C000EC8BF084CFCECDFCE5F0CBF97818EF2F95
:1003D000FFEE33FEED33FDEC33FCEB33FB10D703C4
:1003E000994004EB99FB0FD8E5E4F9FA227818EF6D
:1003F0002FFFEE33FEED33FDEC33FCC933C910D7CC
:10040000059BE99A4007EC9BFCE99AF90FD8E0E4D8
:10041000C9FAE4CCFB2275F010EF2FFFEE33FEEDAE
:1004200033FDCC33CCC833C810D7079BEC9AE8997E
:10043000400AED9BFDEC9AFCE899F80FD5F0DAE460
:10044000CDFBE4CCFAE4C8F922EB9FF5F0EA9E423A
:10045000F0E99D42F0EC6480C864809845F022EB9E
:100460009FF5F0EA9E42F0E99D42F0E89C45F022BB
:10047000E8600FECC313FCED13FDEE13FEEF13FF6A
:10048000D8F122ECF0A3EDF0A3EEF0A3EFF022A858
:10049000828583F0D083D082120C86120C86120CD7
:1004A00086120C86E473E493A3C583C5F0C583C8A4
:1004B000C582C8F0A3C583C5F0C583C8C582C8225C
:1004C000A42582F582E5F03583F58322EC8EF0A435
:1004D000CCC5F0CCCDF8EFA4CEC5F02DFDE43CFCAE
:1004E000E8A42EC8C5F03DFDE43CFCEFA4FFE5F018
:1004F00028FEE43DFDE43CFC22EF4E6012EF60017B
:100500000EEDBB010B89828A83F0A3DFFCDEFA22A9
:1005100089F05007F709DFFCA9F022BBFEFCF309C4
:10052000DFFCA9F022208A0302102D90017AE070EE
:1005300002A3E0600302102D1216E2600302102DE8
:100540009001D2E070449001BD12156AFFAEF090A8
:1005500001AB12156AD39FE5F09E400302102D12E5
:10056000156712157EF9E5F08FF0120B0F12160BBE
:10057000E4900219F0A3F090017C1215CC12170F31
:1005800090017E12174FF56F8003756F0075700F25
:10059000E4F5B2F5BA90021DE0F55BA3E0F55CC2AC
:1005A0000930060302101C758D20438D20758D8047
:1005B00043AA08D2AF758B02758EAF20062412169F
:1005C000E2701F200C1CE5DB20E217758AC4200CAA
:1005D0000DE5DB20E2087587030000008006D209E4
:1005E0008002D209758B11758A5053AAF7D39001F6
:1005F00079E09490900178E09401400EA3E024709B
:10060000F0900178E034FEF08007E4900178F0A3E8
:10061000F0123C18900055E075F003A4902EC3F042
:10062000A3E4F0A3F01215DA53997F1208661216AC
:10063000B4902EC0E030E2F9902EC0E4F0902E028B
:10064000E0F571A3E0F5724389021215E0438002E0
:100650001216B1902EC0E030E2F9121771F522A304
:10066000E0F523E42572FFE571340CFEC3EF95231A
:10067000F525EE9522F524D3E5259488E524941FED
:10068000400675241F752588902EC4E4F043998098
:1006900090020DE524F0A3E525F0C3E55C9525FF68
:1006A000E55B9524FE123EC98E5D8F5E12178B406E
:1006B0000302100CAE24AF257C007D14120CAC128A
:1006C00017957FE07EA112158AFBD3120C3F900292
:1006D000C6401712166994E0FFEE94A1FEED940057
:1006E000FDEC9400FC1217958007120C6F000000BF
:1006F000007F607EEA12158AFBD3120C3F400A90FD
:1007000002C6120C6F0000EA60121567FFAEF07CA3
:10071000007D09120CAC12158D7B0A1215E7121719
:10072000959001D2E0702DAE5BAF5CFC7D09121597
:10073000FBE4FCFDEB2525FFEA352412162DE47BB6
:100740000A1215F38E5B8F5C9002C6121578121593
:10075000D402100C9002C6A3A3E0F9A3E0FF90011D
:10076000A81215821215D49001AE12156AFFAEF0D0
:10077000E4FCFD12158DFBD3120C3F500302101C3C
:100780001215561216D4FEC3EF9574EE95735003EE
:1007900002101C9001AB12156AFFAEF07C007D02C6
:1007A000120CACC8ECC8EDC0E0EEC0E0EFC0E01247
:1007B00015561216D4FEE4FCFDD0E0FBD0E0FAD0D2
:1007C000E0F9EB2FFFEA3E12162DE47B031215F33E
:1007D0009001AB1215821216DB900220E0604D12E0
:1007E00016F340489001AB12156A1216D4FE123E61
:1007F000C99002CAEEF0A3EFF09001AB12156AFFA8
:10080000C31215BD5010121702400B12157FF9E4E8
:1008100075F004120A8A9001AB12156A1215BB40DA
:100820000B121702500612157F12178220090D12A3
:10083000178B50081216E27003020D8190021FE020
:100840000412167D12159B9001D37401F0229001C1
:100850002BE0FBA3E0FAA3E09002C7F9E0FF75F0FC
:1008600002A4F58285F083120A52FDACF090012EAD
:10087000E0FBA3E0FAA3E0F9229002C6E0FF75F0E6
:1008800002A4F58285F083020A52F583E0FCA3E01E
:10089000FDEF25E0240AF582E43401F5832290017E
:1008A0009FE0FFED2407F582E43CF583EFF022EFB3
:1008B00075F002A4F58285F08322C201C204745B44
:1008C0002BF582E43401F583E4F074612BF582E4C6
:1008D0003401F583222475F582E43401F583E07553
:1008E000F002A42440F582E5F0342EF58322746AE8
:1008F0002FF582E43400F583E0FEEF25E0242CF5AB
:1009000082E4342EF583E49324C0F582E4342EF59A
:1009100083EEF0229002CBE0FD25E02449F582E44D
:100920003401F583229002D8E0FCA3E0FD2407F512
:1009300082E43CF583E090019FF054F0FFF02290B8
:1009400002C7E025E0244FF582E43401F5832290CC
:1009500002CBE0FF2458F582E43401F583E004F093
:1009600074582FF582E43401F583229002C9E0FE29
:10097000A3E0FF900150E02FF090014FE03EF0E047
:10098000FEA3E0FFD322F0EF25E025E0245BF58213
:10099000E4343EF583E49322F582E43AF583EFF004
:1009A00022E0FEA3E02DFFEE35F0CDEFCDFF90026B
:1009B000D8E0FAA3E0FB22F090019104F0E490016A
:1009C0000CF0A3F0A3F0A3F022E0FF9002D8E0FC2B
:1009D000A3E022241AF582E43EF583229002D8E0B7
:1009E000FEA3E0229002C7E0245EF582E43401F524
:1009F0008322745B2BF582E43401F58322F583E4D2
:100A000093FC740193FDEF25E02274622BF582E4E0
:100A10003401F583E4229002C8E0FEA3E0FF2274D3
:100A2000222FF582E43401F58322FFEE34FEFE7CB2
:100A3000007D0A1209747D32120986EF2225E02416
:100A400010F582E43401F58322E4900165F0900111
:100A50009822C3E0FDEF9D7480F86E9822902EC01E
:100A60007402F022EC8DF0020B2E25E02404F582B6
:100A7000E43401F583E5F0F0A322F0C201C204E4FE
:100A8000900166F0900199F022F582E43401F5833B
:100A9000E022120A27FFAEF090012B22FDACF0906D
:100AA000012B22A3F0A37401F0A322C39DFFE5F064
:100AB0009CFE229002C7E0FD7F05229002C7E0FD68
:100AC0007F0422E4F0A3F090012B22F5ABF5AD7585
:100AD00089FF7599FF22E0FEA3E0C394B4EE940071
:100AE000229002C6E004F022120A27C39FFFE5F01D
:100AF0009E22121556FDACF0D39FEC9E403490011F
:100B0000AE12156AFFC3ED9FFFEC95F0FED3EF9494
:100B100030EE9475400D9002C87475F0A37430F0F7
:100B20000213551215611216D49002C8F0A3EFF00B
:100B30008043121567FFAEF09001AE12156AFDAC4E
:100B4000F0C39FFFEC9EFED3EF9410EE9427400C71
:100B50009002C874D8F0A374F0F08012121567FFE9
:100B6000C3ED9FFEEC95F09002C8F0A3CEF0E490A8
:100B700002C8F0A3F09001D2E060461215B2D394FF
:100B800000EE64809480401A9001C012156AFDD373
:100B9000EF9DEE95F0400B90017EE4F0A37432F0EF
:100BA000801BD390017FE0940090017EE094004090
:100BB0000C9001AB12156A9002C812169AD20B80E3
:100BC0000D9001821215CC7A00795012159FD390A6
:100BD00002C9E094009002C8E0648094805003024F
:100BE000152CE0F9A3E0FF9001AB1215821215D489
:100BF0001215B212177BE47BB87A88F9F8C3120C8D
:100C000029500A9002C87488F0A374B8F0D39001F8
:100C100081E09400900180E09400500790001BE078
:100C2000B4201D1215B2C39464EE648094805010F9
:100C3000EF9400EE6480948040257C007D0A80144F
:100C400030001C1215B2C394D0EE64809487500F0C
:100C50007C007D321209DB9002C8EEF0A3EFF09029
:100C600001D2E0700302150B900182E07002A3E054
:100C7000600302150B1215B212177BE5532FF553C3
:100C8000E5523EF552E5513DF551E5503CF5500534
:100C900055E55570020554C3E55994D0E5589407BD
:100CA000402AAE54AF55CBEFCB12163BAF53AE52EA
:100CB000AD51AC50120B978E568F57E4F553F55249
:100CC000F551F550F554F555F558F559D3E55794C8
:100CD00000E556940040301215B29557EE955650E7
:100CE0001AC3EF9557FFEE9556FEC3EF943CEE9472
:100CF00000500812172DE4F55A800CE55AC39405EC
:100D0000500512172D055A9001B412156AFFAEF066
:100D10007D0F1215F91215B212177BEB7B1012150D
:100D2000E79001B4121582F9EE800F9002C8E0F945
:100D3000A3E0FF9001B4121582C98FF0120B0F903F
:100D400001B412156A24A8FFE5F0801D9001AB12D2
:100D500015821216429001B41215821216429002A8
:100D6000C9E024A8FF9002C8E03461F99001B112F3
:100D700015821215D4229001AEE0FBA3E0FAA3E0A5
:100D8000F9120A27FFAEF09001A8E0FBA3E0FAA356
:100D9000E0F9020A279001D4A3A3E0F9A3E0FF90B1
:100DA00001AEE0FBA3E0FAA3E022E4FDFC9002C662
:100DB000E0F8A3E0F9A3E0FAA3E0227A0079647EE8
:100DC000007F0B7D007B00020CD9A3F0A37401F01F
:100DD000A3229002C8E0FEA3E0FF22D3FF900224EA
:100DE000E09F900223E095F022A3F0A37403F0A308
:100DF00074E8F022C98FF0020B0F43AB025389FD58
:100E00005395FD5396FD222FFFEA3EFEE93DFDE896
:100E10003CFCE4FAF9F8020B977C00120CACC8EC2D
:100E2000C8C9EDC9CAEECACBEFCB227F087A0179D7
:100E3000D47E007D007B01020CD9E50A25E0242642
:100E4000F8E6FE08E622F9EB2FFFEA35F0FEED3971
:100E5000FDEC38FC22A3E0FEA3E0FBCAEECAE4F9F5
:100E6000F822F9E4F5F0020B0FE50D25E02411F569
:100E700082E43402F583E0FEA3E0FF22900225E045
:100E8000FCA3E0FDC3EF9DFF22E0FCA3E0FDA3E097
:100E9000FEA3E022900221F0A3F0A3F022F07E0056
:100EA0007F057D007B007A00795F020CD9902EC00F
:100EB0007402F0902EC4E4F0A322FFE5F0F0A3EF5B
:100EC000F022902E42E0FEA3E0FF7C007D14020998
:100ED00074123E9E902EC07419F022E4F50EF50DAA
:100EE000F50CF50B22E4FDFCAB0EAA0DA90CA80B2A
:100EF000D3020C3FC39FFFE5F09E22F9EE8FF00274
:100F00000B0F90001BE0642022D3EF9414EE64805A
:100F1000948022900223E0FEA3E0FFD39400EE949D
:100F200000229002CBE094649002CAE0940022E494
:100F3000900180F0A3F02290020DE56AF0A3E56B2A
:100F4000F02225E02426F8A60F08A610229002C859
:100F5000E556F0A3E557F022F9746175F0A8020B8D
:100F60000F90003A7410F022E4F0A3F0A3F022F006
:100F7000A3F0900184F0A3F022E4F0A374C8F0225F
:100F8000902EC07402F022FEEF2401FFE43EC31352
:100F900022902EC0E4F0902E1EE022EE3395E0FD6C
:100FA000FC22F974FF75F0FC020A8AC3E55E9570B5
:100FB000E55D956F229002C6020C63E4FB1210AA55
:100FC000E0640160030219D01211D2E0FA6003025A
:100FD0001884EB64017067121105BF2003D38001F0
:100FE000C34005E490019FF0900199E0FF64017017
:100FF0001C900198E090019FB4010AE04409F0C2FE
:1010000001D2048025E0440112125A802EEF6402BE
:10101000701E900191E060071210AAE4F0800B901E
:10102000019FE04405F0C201C2041211EAF0800BF6
:1010300090019FE04401F0C201C20412107EEB64F3
:1010400002704D121105BF2003D38001C34005E497
:1010500090019FF0900199E0FF6401701C9001984D
:10106000E090019FB4010AE04406F0D201C204807E
:101070001CE0440412125A8014EF90019FB4020540
:10108000E044058003E04404F0C201C20412107E73
:10109000900191E06002E4F0900184E4F0A37464B4
:1010A000F00219C3EA640160030219C3EB64016032
:1010B0000302195A1211BC2407F582E43E121113DF
:1010C000BF2003D38001C34005E490019FF090014D
:1010D00098E0FF640270499001A0E0FCA3E0C39493
:1010E000B4EC9400400E900194E0FCA3E094B4ECC6
:1010F0009400501FC201C2041211D2E4F0745C2BA0
:10110000F582E434011210A6E4F01211EA121197EC
:1011100002195190019FE0440AF0D201D204803FAD
:10112000EF6401704C90019412115F943CEE9400B6
:10113000401BEF94B4EE940050139001A01212B62D
:10114000500B12109AE4F012122A121197900166B5
:10115000E090019FB4010EE04406F0D201C20412F7
:1011600011EAF0800CE04402F0D201C2041212290C
:10117000F090019F1211A9121084EB6402706412A6
:101180001105BF2003D38001C34005E490019FF007
:101190009001A012115F943CEE9400401BEF94B4B8
:1011A000EE940050139001941212B6500B12109A44
:1011B000E4F0900165121197900165E064017020E0
:1011C000900199E090019FB4010AE04409F0C20146
:1011D000D204800CE04408F0C201D204121229F0BB
:1011E00012107E1210AAE4F0900191E07002C28AFF
:1011F0000BEB6403600302179D7F04229002C7EF8C
:10120000F09002CA740CF02405A3F012104D900265
:10121000C712105C12127C12105075F002EF1210FF
:101220006112128B9002C8F0A3EFF0123EC9900237
:10123000CA1212324003021A9D9002C7E0FF121137
:10124000C8E0600AEF121123E4F0A3F0800C121141
:10125000F612111FEE8FF0120A1112111F12115FF8
:10126000940FEE6480948040199002C7E0FD121143
:1012700023E4F0A3F012104DED121090E475F0018C
:101280008021C3EF94F1EE6480947F50199002C7DF
:10129000E0FF121123E4F0A3F012104D12108F742E
:1012A000FFF5F0120AC29002C7E0FD2422121202DA
:1012B000E4F07F04123D0C121293021B649002C7EB
:1012C000E0FF2422121202E070481211FF7401F0B4
:1012D0001211F6123EC9C3EF9432EE64809480502E
:1012E0003190012B1210509002C7E012105EFBAA41
:1012F000F01211F67C007D031209DBC3EB9FFFEABD
:101300009EFE12104D9002C7E0121090EE8FF01268
:101310000B2E1211F6123EC99002C7E0FD12121DEB
:10132000E0FAA3E0D39FEA9E4026745E2D1211CA14
:10133000E070239002C7E07F0512346D1212931201
:1013400032B1EF601112102E12108F12124480066B
:10135000121293123D0CC39002C9E094F49002C89B
:10136000E06480947F501A12129B12346D12129B0B
:101370001232B1EF601112102E12108F121244802F
:101380000612129B123D0C12104D9002C712105CF7
:1013900012127C12105075F002EF12106112128BB3
:1013A0009001341210509002C7E0121090EE8FF0AE
:1013B000020B2E900227121590FBE9C0E0EAC0E074
:1013C000EBC0E09001C312156AFFE4FCFDD0E0FB26
:1013D000D0E0FAD0E0121626900227120C63900299
:1013E0002CE004F0700690022BE004F090022DE057
:1013F0007002A3E06003021D3A900227121669FFF3
:10140000EEC0E0EFC0E0121635D0E0FFD0E0FE12F3
:101410000B97900227120C63900227A3A3E0FFA36F
:10142000E0900225CFF0A3EFF0A3120C6F000000B4
:101430000090022B121748A374C8F0900178E07056
:1014400002A3E06003021D3A9001D2E07003021C87
:10145000CC900221E0FEA3E0FF4E7022900225E036
:10146000FDA3E0900221CDF0A3EDF09001AB1215A9
:101470006AFD900223E5F0F0A3EDF0021CB5121610
:101480005CEE9CFE123EC99002331215821216DBEE
:10149000900220E0702690023312156AC39432E560
:1014A000F09400500F9001AB12156AFF90022312C6
:1014B000169B80219002207401F080199002331253
:1014C000156AC39402E5F09400500AE4121674A35E
:1014D000F0900220F0E490022FF0A3F0900239F097
:1014E000900236121582121642021D3A90022FE027
:1014F000FEA3E0FF4E7012900225E0FDA3E09002F3
:101500002FCDF0ED1215C9805112165CEE9CFE1223
:101510003EC99002361215821216DB900231E0703D
:1015200002A3E0703590023612156AD39419E5F0E3
:101530009400400C9002317413F0A37488F0800B77
:10154000E4900239F09002311215CC900225E0FFB0
:10155000A3E090022FCFF0A3EFF09001D2E070094A
:10156000121674A3F0900220F02212168DF05399F7
:101570007FF50BF50CF50DF50EF50A120866121540
:10158000DA1216B4902EC0E030E2F9902EC0E4F0EA
:101590004389021215E0438002902E02E0FEA3E090
:1015A000250CF50CEE350BF50B1216B1902EC0E0A4
:1015B00030E2F9121771FEA3E0250EF50EEE350D9F
:1015C000F50D050AE50AC3940340B0439980902EB7
:1015D000C5E4F0250CFFE50B340CFEC3EF950EF5CA
:1015E00010EE950DF50FD3E5109488E50F941F408C
:1015F00006750F1F751088900207E50FF0A3E51020
:10160000F0A3E50DF0A3E50EF0A3E50BF0A3E50CC8
:10161000F0AF10AE0F1237C190020DEEF0A3EFF055
:1016200090001BE0B4200312159B90020DE0FEA376
:10163000E0FFE4FCFDE5672FF567E5663EF566ED46
:101640003565F565EC3564F5640569E56970020595
:1016500068C3E56D94E8E56C9403402AAE68AF6911
:10166000CBEFCB12163BAF67AE66AD65AC64120B29
:10167000978E6A8F6BE4F567F566F565F564F56836
:10168000F569F56CF56DD3E56B9400E56A9400405F
:101690006490020EE0956BFF90020DE0956AFE905B
:1016A00002CCF0A3EFF0D394F6EE6480947F401266
:1016B000E0940A9002CCE0648094805005121717E1
:1016C00080309002CCE0FEA3E0FFC394F1EE648092
:1016D000947F500DEF940FEE648094804003756EFC
:1016E00005E56EC39405500D121717056EE56EB42F
:1016F0000403E4F56E90020DE0F54EA3E0F54F789B
:10170000267C007D007B007A0079287E007F2802FD
:10171000094E9002C6747EF0E4A3F09002C7E0FD8B
:10172000C3940340030220447F021232B1EF6004ED
:10173000121229F09002C7E0FF245B1211D5E0607D
:1017400003021FD2EFB4010F121072E0FFA3E0906A
:1017500001A0CFF0A3EFF09002C7E0B4020F121087
:1017600072E0FFA3E0900194CFF0A3EFF09002C7E6
:10177000E0FF25E02416F582E4340112106AE0FE51
:10178000A3E0C39DEE9C40449002C7E09002C6F0E7
:10179000245B1211D57401F0900165E004F0900112
:1017A00098F09002C7E0FD24611210AD7401F0E4DE
:1017B000FF12208B12208B12346D9002C7E0FD7F48
:1017C0000812346D1211C47401F080129002C7E047
:1017D000FDE4FF1232B1EF60051211C4E4F0900293
:1017E000C7E0FD7F011232B1EF6070E49001660244
:1017F00020369002C7E0FF25E0241CF582E4340186
:1018000012106AE0FEA3E0C39DEE9C40399002C72F
:10181000E0FD9002C6F07F081232B1EF603D90010A
:101820002BE0FBA3E0FAA3E09002C712103B1210DA
:101830008F12124412205324611210AD7401F090E3
:101840000166E004801012205324611210AD74016F
:10185000F0900166E004F0900199F09002C7E00476
:10186000F0021EFB9002C6E0FF900170E06F600284
:10187000EFF0229002C7E0FD245BF582E43401F52D
:1018800083E4F07F08123D0C9002C7E0FDE4FF12F4
:10189000346D9002C7E0FD7F01123D0C9002C7E05D
:1018A000FD7F0112346D9002C7E022123D0C9002C0
:1018B000C7E0FD7F0222900174E024FE601C1460EA
:1018C0002F1470030221D62403600302222E9001FC
:1018D000747402F01235F0123EE4123EB77F017EBE
:1018E000001230B19001747403F0E4900197F0227B
:1018F000123E2790016DE070030221B7900197E03E
:1019000004F0E49002C5F09002C5E0FFC3940340E8
:10191000030221B29001281210509002C5E0FE127D
:10192000103E75F002EE121093121244900128122C
:1019300010509002C5E0FE12105E12127C12105080
:1019400075F002EE121093121244EF640170391216
:1019500011BCFF240A1211B5E4F0EF240B1211B5EB
:10196000E4F09001281210509002C5E012105EE5DC
:10197000F01211AAFD240E1210869002C5E012107A
:101980005EFFED240F1210869002C5E064027039EC
:101990001211BCFF240C1211B5E4F0EF240D12114A
:1019A000B5E4F09001281210509002C5E012105ECC
:1019B000E5F01211AAFD24101210869002C5E01263
:1019C000105EFFED24111210869002C5E004F002B3
:1019D00020E7E490016DF0900197E0C39403406E1E
:1019E000900103747EF0E490016EF0900197F09006
:1019F00001747404F0221236E4123A6590023AE05F
:101A00007003123E271236E490016DE064017033DA
:101A1000122FED1236E4E49002C5F09002C5E0FF0B
:101A2000C39403500E1223B21236E49002C5E004B0
:101A3000F080E8121EF212179B900174EFF0E49010
:101A4000016DF0900189E0A3F0E4900189F022900B
:101A500001D2E070030222C312160B90017C121512
:101A6000CC900220E070030223B11216F35003025F
:101A700023B19001AB12156A1216D4FE123EC99022
:101A800002C8EEF0A3EFF0D39496EE9400400AE47F
:101A9000900220F0A3F0A3F0229001AB12156A127D
:101AA00015BB40149002C9E094329002C8E0940043
:101AB000500612157F1217829001AB12156AC312DD
:101AC00015BC40030223B19002C9E094289002C8DB
:101AD000E0940050030223B112157FF9E475F0047D
:101AE000020A8A9001D4121590FBE9C0E0EAC0E036
:101AF000EBC0E0121567FFE4FCFDD0E0FBD0E0FA9C
:101B0000D0E01216269001D4120C639001D9E004A3
:101B1000F070069001D8E004F090017CE07002A320
:101B2000E060030223B19001D4121669FFEEC0E019
:101B3000EFC0E0121635D0E0FFD0E0FE120B979018
:101B400001D4120C639001AE12156A241EFFE43515
:101B5000F0FEE4FCFD9001D4121590FBD3120C3F73
:101B6000403F900178E07002A3E07035900239E0C8
:101B7000702F200B2C9001DBE004F070069001DA4E
:101B8000E004F0D39001DBE094059001DAE09400EA
:101B9000401E1215751215D4E49001DAF0A3F080FE
:101BA0000F1215751215D4E49001DAF0A3F0C20BF0
:101BB0009001D4120C6F00000000E49001D8F0A353
:101BC000F0900239E090017C60041217592212153E
:101BD000CC229002C6EFF012104D12105912127C56
:101BE00012105075F002EF121061C39DE5F09C4099
:101BF0002790012BA3A39002C6E012105EFDEF1206
:101C0000124AEDF090013412105012105912107057
:101C1000E5F0F0A3EDF0801F9002C6E0FF12107215
:101C20001212A312105075F002EF121061FF900211
:101C3000C6E012124AEFF09002C6E0FF121072E006
:101C4000FCA3E0C39432EC94005007121071E4F04E
:101C5000A3F09002C6E0FF640170601210711211CF
:101C60005F944AEE9401401B9002C6E0FBEF24B65D
:101C700012120A244AFFEE3401FEEB121072EEF04B
:101C8000A3EFF09002C6E0FD121072E012118D2455
:101C90000A121178ED121072A3E0FFEB240B12115F
:101CA0007812104D121059121070121181240E1258
:101CB0001178CFEDCFEB240F1211789002C6E0FF20
:101CC0006402706012107112115F942CEE94014046
:101CD0001B9002C6E0FBEF24D412120A242CFFEE64
:101CE0003401FEEB121072EEF0A3EFF09002C6E0AA
:101CF000FD121072E012118D240C121178ED1210E9
:101D000072A3E0FFEB240D12117812104D1210593E
:101D10001210701211812410121178CFEDCFEB2424
:101D20001112117822C0E0C083C082C0D0D2AF901F
:101D30000189E004F0D3900179E09400900178E00B
:101D40009400400CA3E024FFF0900178E034FFF011
:101D5000D390017BE0940090017AE09400400CA3C2
:101D6000E024FFF090017AE034FFF0D390017DE0B1
:101D7000940090017CE09400400CA3E024FFF090DC
:101D8000017CE034FFF0D390017FE0940090017E6D
:101D9000E09400400CA3E024FFF090017EE034FFCB
:101DA000F0D3900181E09400900180E09400400C19
:101DB000A3E024FFF0900180E034FFF0D39001878E
:101DC000E09400900186E09400400CA3E024FFF032
:101DD000900186E034FFF0D3900185E094009001FB
:101DE00084E09400400CA3E024FFF0900184E034F0
:101DF000FFF0D3900183E09400900182E0940040D2
:101E00000CA3E024FFF0900182E034FFF0C3E56D05
:101E100094E8E56C94035008056DE56D7002056C5F
:101E2000C3E55994D0E558940750080559E5597011
:101E3000020558D390022EE0940090022DE0940009
:101E4000400CA3E024FFF090022DE034FFF0D3908B
:101E50000232E09400900231E09400400CA3E024B0
:101E6000FFF0900231E034FFF0D0D0D082D083D0A8
:101E7000E0327E007FFF7D007B017A007904120C46
:101E8000D99002D87400F0A37404F0900128740172
:101E9000F0A37400F0A374B8F090012E7401F0A3C5
:101EA0007400F074AC1212837400F0A37494F09078
:101EB000012B7401F0A37400F0A374C6F0900134F8
:101EC0007401F0A37400F074D21212837400F0A3B2
:101ED000741F1212847401F0A37402F0902DE0E4D8
:101EE000931211AAFDF5828C83A3EFF0900002E01B
:101EF000FFED2404121086900001E0FFED2405128E
:101F00001086900003E0FFED2406121086902DE26B
:101F1000E493FFED2412121086902DE3E493FFED7D
:101F2000241412108690013D7401F0A37400F0A3F4
:101F3000743CF0E4FF75F002EFA42401F582E5F0B3
:101F4000342EF583E493FE74542FF582E43400F5C7
:101F500083EEF0EF25E0242DF582E4342EF583E4C2
:101F600093FE746A2FF582E43400F583EEF01210CC
:101F7000CE0FEFB416BF902F56E0900058F0902F80
:101F800056E090006EF09000FF7401F09000FEF0BB
:101F900090003A7410F090001BF0900028F0A374A9
:101FA00020F09001787413F0A37488F0221216BB0D
:101FB000F515F51685261185271285261385271414
:101FC000F50A12161AFFD3E5149FE5139E40078EFB
:101FD000138F14850A16C3E5129FE5119E50078ED4
:101FE000118F12850A15050AE50AB414D5E4F50F18
:101FF000F510F50AE516650A602EE515650A6028F4
:10200000E510450F7010E50A25E02426F8E6F50FE7
:1020100008E6F510801212161A2510FFE50F3E1281
:102020001767F50FEF13F510050AE50AB414C5900C
:10203000021DE50FF0A3E510F0E516C3941150055D
:10204000E516121722E515C394115005E515121770
:10205000221216BBF50A12161AFFC3E5109FFFE500
:102060000F9EFE123EC91216E9400FE4FCFDE50E7C
:102070002510F50EE50D350F800F12161AFFE4FC42
:10208000FDE50E2FF50EE50D3EF50DED350CF50CCD
:10209000EC350BF50B050AE50AC3941440B87FE054
:1020A0007EA11216C5401AE50E94E0F50EE50D94DA
:1020B000A1F50DE50C9400F50CE50B9400F50B80F3
:1020C000031216BB7F607EEA1216C5400BE4750E44
:1020D00060750DEAF50CF50BAE0DAF0E22900219EE
:1020E000E0FEA3E0FFC39404EE9400502F9001A6FD
:1020F000E0FCA3E0FDEF25E0FFEE33FE74112FF5C9
:102100008274023EF583ECF0A3EDF090021AE00435
:10211000F07006900219E004F002297D750D01129D
:102120001649E50D25E0240FF582E43402F583EE2F
:10213000F0A3EFF0050DE50DB404E4121567FF9070
:1021400001A612165FE5F09CFE123EC9C3EF94286B
:10215000EE6480948050379001D2E070239001AEFD
:1021600012156AFFC39001A7E09FFF9001A6E095BA
:10217000F0FE123EC9C31216EA50059001AE80036C
:102180009001A812156AFF900217E5F0800B9001EC
:10219000A6E0FFA3E0900217CFF0A3EFF0E4F50C68
:1021A000F50BF50AF509F50DD390021AE0950D909F
:1021B0000219E09400401E121649E4FCFDE50C2FC4
:1021C000F50CE50B3EF50BED350AF50AEC3509F596
:1021D00009050D80D3AF0CAE0BAD0AAC09EEC0E023
:1021E000EFC0E0900219121636D0E0FFD0E0FE12E8
:1021F0000B978F0C8E0B8D0A8C0922C0E0C083C018
:1022000082C0D0ECC0E0EDC0E0EEC0E0EFC0E0D2B4
:10221000AFE5DB30E419D20CC208E5DB30E1028027
:102220002E9002D7E5DFF09002DAE4F0022AC1E551
:10223000DB30E50FD206300805C208022AC1C20C05
:10224000022AC1C208E5DB30E135E5DB30E00C9065
:1022500002DB123E84E0F5DF022AC19002DBE0FFE0
:10226000B40813208A10D28A9002D8E0FCA3E0249C
:1022700007123E8EE4F0EF641A7066D20780629017
:1022800002DAE0700EA3E5DFF09002DA7401F0D21A
:1022900008804E9002DBE0903BAE93FFB4FF0E90BF
:1022A00002D7E5DFF09002DBE004F08034EF640F4A
:1022B0009002DB7026E0FFA3E0FCA3E0FD123E8D60
:1022C000E0540FF09002DBE0FF04F0ED123E8DE0F1
:1022D000FFE5DF54F0FEEF4EF08006123E84E5DFAE
:1022E000F075DBFFD0E0FFD0E0FED0E0FDD0E0FCF9
:1022F000D0D0D082D083D0E0329002CBEFF09001EA
:102300002B1210509002CB12105CFDACF090012803
:1023100012105075F002EF12106112128B1210F4AD
:10232000EE8FF0120A11ED1210F9E0FEA3E0FF1299
:102330003EC9D3EF9414EE6480948050589002CB41
:10234000E01210F912115F9403EE6480948040163D
:102350001210F41212A312105075F002ED12109325
:10236000E475F0018020C3EF94FDEE6480947F500B
:10237000189002CBE0FF1210F91212A312105012A3
:10238000108F74FFF5F0120AC29002CBE0245812AD
:102390001143E4F0229002CBE01210F9E0FEA3E03A
:1023A000FF123EC99002CBE012121DE0FCA3E0D365
:1023B0009FEC9E400B12112FE0D39402403780090E
:1023C00012112FE0D39401402C9002CBE0FF1210A9
:1023D000F9E4F0A3F090012812105075F002EF120A
:1023E00010611212751210509002CBE0121090EE94
:1023F0008FF0120B2E229002CAEFF09002CFE4F081
:10240000A374FFF0E4A3F0A3F0A304F0A374FFF01F
:1024100012123D902EC37408F0E49002CBF0A3F0AA
:102420009002CBE0FEA3E0FFC39409EE94004003CA
:10243000022CBBEF9407EE940040067E007F0180E3
:10244000199002CBA3E004FFE47E01C8EFC8088026
:1024500006CEA2E713CE13D8F8FF9002CDEEF0A37C
:10246000EFF0902EC07419F0902EC0E030E2F99099
:1024700002CAE0FF75F002A424001210C5E0FCA31C
:10248000E0FD12123DD3ED94FFEC940F4017900243
:10249000CDE0FCA3E0FD75F002EF1210C2EC8DF070
:1024A000120A1180259002CA1210BEC083C082E0B9
:1024B000FEA3E0FF9002CDE0FCA3E0FDC3EF9DFF93
:1024C000EE9CD082D083F0A3EFF09002CCE004F039
:1024D00070069002CBE004F0022C007F00227F9473
:1024E0007A0179A61216119001A87401F0A3740064
:1024F000F074441215AA7400F074461215AA740000
:10250000F0A374481215AB7400F0A374321215AB2B
:102510007400F0A3742E1215AB7400F0A3742CF0A9
:102520009001C37401F0A37400F0A37426F090022C
:10253000337401F0A37400F0A374841215AB74001B
:10254000F0A37486F09001C67401F0A37400F0A3A8
:10255000741C1215AB7400F0A37422F09001BA74CD
:1025600001F0A37400F0A374361215AB7400F0A34D
:10257000742A1215AB7400F0A37438F075730075EB
:1025800074C89001BA121582F9E5738574F0120BC4
:102590000F9001BD121582F9E475F064120B0F90D3
:1025A00001C0121582F9E475F096020B0FE4FECF1C
:1025B000EECF123896902EC07419F0902EC0E030F5
:1025C000E2F9902EC4E4F0A3F0902EC0F01212AB0A
:1025D00074752E12126975F002A424001210C5E061
:1025E000FCA3E0FD90012812105075F002EE1210CD
:1025F00093EC8DF0120B2E0EEEB403B322D2AF3259
:102600000304AB1BE4FF3006169002D8E0FCA3E005
:10261000F5828C83E0FE54F0FFEE540FF0C20622E8
:10262000029003020A0B0D100E800FFF0C020BFF2D
:1026300023F724032502070127302A3028102B1006
:1026400029032C032D202E202F10262002110306F3
:102650000A100D100E800FFF0C020BFF23F4240450
:102660002504070127102A1028042B0429032C0312
:102670002D202E202F102620200271D202E4FFEF01
:1026800025E0244EF582E4343E1211DD2416F58255
:10269000E43401F583ECF0A3EDF0EF25E02448F5F8
:1026A00082E4343E1211DD12121FECF0A3EDF0EFC4
:1026B00025E02454F582E4343E1211DD241CF58219
:1026C000E43401F583ECF0A3EDF00FEFB403B09028
:1026D0000112A31211A9FDF5828C83A3A3EFF09040
:1026E0000114A3E08D828C83A3A3A3F01211BCF587
:1026F000828E83A3E0B4AA0312395F1211BCFF12C9
:1027000011B3E0B41008EF1211B3E4F0D20A1211C1
:10271000BCFF241B1211B5E0700DEF241C1211B583
:10272000E0B41003123AB21211BC24131211B5E036
:10273000FFB410069001A27401F0EFB42005E490FC
:1027400001A2F0229002C77408F02405A3F0E4FF70
:10275000122AD912104D1212721210501212C8FE03
:102760009002C9F0A3EFF0123EC99002C7121232D4
:10277000501C12114B940AEE6480948040028044F5
:10278000C3EF94F6EE6480947F5065022FBF9002F1
:10279000C9E0FEA3E0FF123EC99002C8D312123373
:1027A000401690012B121050120A27FF12104DE50F
:1027B000F08FF0120B0F803812114B9464EE64808E
:1027C00094804010E490014FF0A3F012104DE47596
:1027D000F0018019C3EF949CEE6480947F5011E463
:1027E00090014FF0A3F012104D74FFF5F0120A8A19
:1027F00012104D1212721210501212C8F9900134B8
:10280000E0FBA3E0FAA3E0C98FF0020B0F122F2424
:10281000E49002C6F09002C6E0FFC39403400302B6
:1028200030ABEF607A122AD99002C6E0FF1219DCB1
:102830003003192001162004139001341210509017
:1028400002C6E0121090E4F5F0120B2E9001341243
:1028500010509002C612105CFDACF0C39406EC64FC
:102860008094805002804DC3ED9432EC648094805B
:1028700050509001341210509002C6E075F002A43E
:10288000F582E92582F9EA35F0FA120A27FFAEF05F
:102890007C007D021209DBEE8FF0120B0F8023907B
:1028A00001341210509002C612105CC3E5F064802F
:1028B0009480500E900134A3A312108FE4F5F0120F
:1028C0000B2E9002C6E004F0022FF5E490016DF0AB
:1028D000229002C8EEF0A3EF12167D9002C8E070BD
:1028E00002A3E060031237551239BEE4900219F0DA
:1028F000A3F07F14123CDE90017AE4F074641215A8
:10290000C99001A6E0F9A3E0FFA31215821215D425
:102910009001AB1215821216429001B1121582126B
:1029200017389001B41215821216429001B7121591
:1029300082121738121741E49001D2F09001D4129C
:102940000C6F000000009001D8121748A3F090010E
:10295000A612157A1215D4E49001D3F090018612D4
:10296000174FFE7F13FD7B017A027920120CD9905C
:1029700001C312156A90022512169A90022D1217A1
:102980005922EF75F003A4244EF582E43402F58356
:10299000E58222F583E493FE740193FFE4FCFD904D
:1029A0002F60E0F8A3E0F9A3E0FAA3E02FFFEA3EEE
:1029B000FEED39EC38222EF582E43583F58322745E
:1029C000BC2BF582E43402F58322E4E075F008A420
:1029D000246CF582E43402F58322EFF0FCA3E0FEE0
:1029E000131313541F2225E0243CF582E43402F52E
:1029F0008322E0FF74017E00C8EFC80822902F6098
:102A0000A3A3E0FEA3E0FF22F583C37401939FE438
:102A1000939E2225E024B8F582E4343D22E0FCA315
:102A2000E0FDD39FEC9E2225E024CCF582E4343DEA
:102A30002212123D9000FEE0601BE49002C6F0906E
:102A400002C6E0FF246A1210D11212C1E0B416EFE0
:102A5000E49000FEF0E49002C6F09002C6E0FFC3EE
:102A60009403501174752F1210B7E4F0A374FFF0A3
:102A70001212C180E5E49002C6F09002C6E0FFC3E6
:102A80009403504A1238969002C6E02475121269D7
:102A9000FF122BD6EF7031E41212AB9002C6E0B4F5
:102AA000010F1210B5E0FFA3E0900192CFF0A3EF69
:102AB000F09002C6E0FFB4020F1210B5E0FFA3E0F1
:102AC000900172CFF0A3EFF01212C102325A023B12
:102AD000389002CDEDF09002CC1231BAA3F0EE5452
:102AE00007A3F09002CEE0FFEC1231632F12319772
:102AF000E0FD7C009002CF1231D28005C333CE338B
:102B0000CED8F9FFEE5CFEEF5D4E60621231DD90D3
:102B100002CC1231AAC083C0829002CDE0D082D014
:102B20008375F002120CA01231FD5042C3EF9DFFDD
:102B3000EE9CFE9002CCE0FD1231F31231E8402E03
:102B40009002CEE0FFED1231632F123197C083C0A7
:102B500082E0FF9002CFE0FE7401C8EEC808800258
:102B6000C333D8FCF45FD082D083F07F01227F0092
:102B700022758A50538AEF9000027411F090000180
:102B80007422F09000037433F07599BF759A40E495
:102B9000FFFEC2950020960CD2950030960690005C
:102BA000027487F00FBF00010EEF640A4E70E375E8
:102BB00090FF75999F759A607580FF7589FE759570
:102BC00001000000E4FEFF308006309503209606E9
:102BD0009000017487F00FBF00010EEF640A4E7081
:102BE000E6E4F5AB75AC1DF5ADF5AF7589FF7591F4
:102BF0003E7599FFF59675931CF59BF595F592F545
:102C00009A5388FED28AD20D22902EC0E4F0900111
:102C10009BF090019AF0FC74752C121269FE13134C
:102C200013541FFDEE5407FEED14601B04702E902C
:102C3000019AE0FD7401C8EEC8088002C333D8FCD5
:102C40004D90019AF0801690019BE0FF7401C8EE50
:102C5000C8088002C333D8FC4F90019BF00CECB441
:102C600003B590019AE0FF42ABA3E0FE42ADEFF462
:102C7000FF5289EEF4FE5299EF5295EE529A90016E
:102C80009AE0F45296A3E0F4529B7F03229002CD87
:102C9000EDF09002CC1231BAFDEE5407A3F0EC1225
:102CA00031632D123197E0FB7A009002CE1231D2BF
:102CB0008005C333CE33CED8F9FFEE5AFEEF5B4E1C
:102CC000704D9002CCE0FE1231632D123197C0831B
:102CD000C082E0FF9002CEE0FD7401C8EDC808801C
:102CE00002C333D8FC4FD082D083F0EE1231F312FE
:102CF00031739002CC1231AAC083C0829002CDE021
:102D0000D082D08375F002120CA0EEF0A3EFF02277
:102D1000023D3AE493A3F8E493A34003F68001F262
:102D200008DFF48029E493A3F85407240CC8C333C4
:102D3000C4540F4420C8834004F456800146F6DF93
:102D4000E4800B010204081020408090382CE47EBF
:102D5000019360BCA3FF543F30E509541FFEE49388
:102D6000A360010ECF54C025E060A840B8E493A34F
:102D7000FAE493A3F8E493A3C8C582C8CAC583CA7A
:102D8000F0A3C8C582C8CAC583CADFE9DEE780BE32
:102D90003000087573137574888006757300757438
:102DA000C89001AB12156AFFAEF0C39574EE95732F
:102DB00050159001D2E060209001C012156AFDC349
:102DC000EF9DEE95F04011900180E07002A3E0705D
:102DD000279001D204F0802090001BE0B42005125F
:102DE000170F8006900180121759E49001D2F090DD
:102DF000017EF0A3F01217419001D2E06011900023
:102E000028E090003AB410047410F0227420F022EC
:102E1000C202E4FFEF1210F9E4F0A3F0EF12112365
:102E2000E4F0A3F074552FF582E43401F583E41245
:102E3000113FE4F0EF25E02467F582E43401F583E7
:102E4000E4F0A3F0745B2F1211D5E4F074612F123B
:102E500010ADE4F0900164747EF01211FFE4F074A0
:102E6000252FF582E43401F583E4F00FEF6403705D
:102E7000A3E4900165F0A3F0900198F0A3F0900115
:102E800070747EF0900103F0E490016FF022CDEFBA
:102E9000CD43AD105399EF439A10539BEF902EC042
:102EA0007402F0147E00C8EDC8088005C333CE3329
:102EB000CED8F9FF902EC4EEF0A3EFF0902EC8EE1E
:102EC000F0A3EFF07410123DED902EC0E030E2F967
:102ED000902EC0E4F07402F07420123DED902EC0EC
:102EE000E030E2F9902E00E0FEA3E0FF902EC4E473
:102EF000F0A3F0902EC0F0439910539AEF539BEF3C
:102F00005390EF22900196E014601414603924026B
:102F10007051308807123744D205D200C203227F95
:102F200002123CAEEF60077F02123ED5C205208838
:102F3000329001967402F0D203C205C2007F0312E0
:102F40003ED57F03023BE47F03123CAEEF60147F6B
:102F500003123ED5208807E4900196F080031237D3
:102F600044C203229001967401F07F02123ED57F85
:102F700002123BE422123D91902E42E0FEA3E02497
:102F80008FFFEE34FEFE1216E9400A902E427401C5
:102F9000F0A37471F053997F123E9E902E5EE4F080
:102FA000A374FFF07F0F122BD6902E5EE0FEA3E0FD
:102FB000D394F0EE94014007902E5EE4F0A3F090DD
:102FC0002EC4E4F0439980A3F09001A5E090002185
:102FD000F01216A29001C6121582F9EE8FF0020BC4
:102FE0000F8F828E83E562456170088583618582DB
:102FF000628012E5622582FFE5613583121767F56D
:1030000061EF13F5620563E563D3940A400D8561B2
:103010005F856260E4F561F562F563D3E560940075
:10302000E55F94004021AE5FAF607D031215F9AFFC
:1030300082AE83E4FCFDEB2FFFEA3E12162D7802F0
:10304000120C508E838F82AE83AF8222C10C41015D
:103050009A0041019B004101970041019F00C1027C
:10306000C101C1044101A20041019600C103C10098
:10307000C105430175000D0E4201A00000420194FC
:103080000000410191004102DA004102DB004202EE
:10309000D50000C106C108C1074102D7104101A3F4
:1030A000004101A510C10BC10A41023A004101A42F
:1030B0001041023B000012123DEF25E025E0245AAA
:1030C000F582E4343EF583E4937014902EC412111B
:1030D00066F5ABF45289121167902EC5F0801390FB
:1030E0002EC5E4121166F5ADF45299121167902EB7
:1030F000C4F0EF25E025E0245CF582E4343EF5835E
:10310000E493902EC3F0EF25E025E0245DF582E402
:10311000343EF583E493902ECAF022200A06200361
:1031200003300509E4FFFE1230B1C20A2290018487
:10313000E07002A3E060051216E2703F2000031267
:103140003AF51239BE7F01123CDE1228BD9002C64C
:10315000EEF0A3EFF07B017A0279C6123A189002E2
:10316000C6E0F9A3E0FF9001A81215821215D4124F
:1031700012D2123570121B9312222F123B7322901F
:1031800002C57408F0A3E4F0A3743FF0A374DFF069
:10319000E4FDFCF9758A10538AEF009002C5E0FE49
:1031A000A3E02DF582EE3CF583E493FF69F90DBDB4
:1031B00000010CBC37E5BDDFE29002C7123E95E48A
:1031C00093699002D87009123E95A37403F08006AB
:1031D000123E95A3E4F0758A50538AEF002243898A
:1031E000025395FD5396FD438002123E047F0C125C
:1031F000366ECAEECACBEFCB7F0C12366EEF2BFFCA
:10320000EE3A9002CBF0A3EFF0123DF9F9120A2743
:1032100045F07006123DDEEE8018120A27FBAAF078
:10322000123DDEEF2BFFEE3AC313F9EF13FF123D11
:10323000F9C98FF0120B0F229002C8EBF0A3EAF04D
:10324000A3E9F090017AE07002A3E070379001D317
:10325000E06031E49001D3F01239BE7508017F01BE
:10326000123CDE1228BD9002C81215821216DB0530
:1032700008E508C3941440E690017AE4F0A374646E
:10328000F012170F221216E2702E90023AE0700828
:1032900090017AF0A37464F090023A7401F0900007
:1032A00029E0B420081238FB120D058003123C4BB4
:1032B0009001887401F08017E490023AF0900029A0
:1032C000E0B420031238FB900188E06002E4F002D1
:1032D0003E6612082EE4F5F275F30875EEFF75EF01
:1032E0003F75EA81F5F675EB0700E5EC30E7FBE4A6
:1032F000F5EC9002D8E0FEA3E0FF241BF582E43E4B
:10330000F583E5F3F0EF241CF582E43EF583E5F266
:10331000F075EB302230073FC207902E42E0FFA34A
:10332000E09002C8CFF0A3EFF0123D917BE07A1558
:103330001216A2EF2BFBEE3AF9CFEBCF9001C6129B
:1033400015821215D41217609002C8E0FFA3E09016
:103350002E42CFF0A3EFF022300D37C3900193E05F
:103360009420900192E0940050069000037487F03E
:10337000C3900173E09420900172E0940050069095
:1033800000037487F0C20D9000031211A9240612E5
:1033900010862290003AE0FC9001A4E06C602E9030
:1033A000003AE0FE9001A4F090000BE090019FF045
:1033B000540FF0EEB42005E04420800AECB4100B6A
:1033C00090019FE04410F090000BF0C28A220000B0
:1033D0000000FFFFFFFF0000FFFFFFFFFFFFFFFFF9
:1033E000FF00FF000000FFFF000000FFFFFFFFFFE6
:1033F000FFFF00000000FFFFFFFFFFFFFFFFFFFFD9
:10340000000000009002C6EFF0E024BC1231A2E000
:1034100060037F01229002C6E0FF24BC1231A27437
:1034200001F0EF1232071231739002C6E01231C67A
:10343000EEF0A3EFF07F002212168DF0FF74542FF0
:10344000F582E43400F583E0FE75F002EFA4240079
:10345000F582E5F0342EF583E49324C0F582E4345C
:103460002EF583EEF00FEFB416D322E4F5B2F5BAE1
:10347000758D20438D20538D7F53AAF7F58BE5DBA7
:1034800020E217200C14E4F58A758703000000750C
:103490008A50D20A9000297420F0758B1122758B06
:1034A00011902F647440F0E4FEE4FF123162123197
:1034B00096E4F00FEFB40AF30EEEB403EC7F09903C
:1034C00002BCE4F0A3DFFC902F647480F022CBEF09
:1034D000CB12319FE060241231DDEB1231C6123184
:1034E000FD5018C3EF9DFFEE9CFEEB123207123128
:1034F000E8400812319FE4F07F01227F0022900211
:10350000CBEFF0123C18E4F5099002CBE0FFE5099F
:10351000C39F5007121D4A050980EE902EC0E4F0AB
:1035200012278D9001A6EEF0A3EFF022ED131313F6
:10353000541FFEED5407FD123162123196C083C054
:1035400082E0FFCEEDCE7401C8EEC8088002C3331E
:10355000D8FCF45FD082D083F02212084E53A87FAB
:1035600012335112081E123D6643A880123EDE90AF
:1035700000FFE060069001747401F0122DE4122E39
:103580005812209680F59002D8E0FFA3E09002DC6C
:10359000CFF0A3EFF0E4F5DA75DA4043DA2075D71F
:1035A0004075DA5875D90143A90875B80875F80847
:1035B000221215DA53997F123C18902E42E4F0A3A0
:1035C00074FFF01208667F01122BD6438902121590
:1035D000E04380024399802201F40028002801F48E
:1035E000009603E801F403E81770006403E8003272
:1035F00002580258012C01F403E8271000C8900279
:10360000CBE0FEA3E0FF7C007D14020974902EC283
:10361000F0902EC0E04419F0229001C3E0FBA3E03B
:10362000FAA3E022902EC07402F0902EC77471F0BD
:10363000902ECD74C0F0A374FFF0A3F0902EC3744D
:1036400001F0902ECAF02212123DE4FF1210CE0FAC
:10365000EFB416F8902EC4E4F0A3F0122D8D122DC5
:103660008D90016D7401F0220096008200B4009BE1
:10367000008700B9008C007800AA00011010022019
:10368000090802401208E5B230E005E5AA20E0137F
:10369000E490018AF075B28E75B6F9F5B743B201C0
:1036A00043AA0122E0FF04F0A3E0FCA3E02FF5828F
:1036B000E43CF58322E0FEA3E0F5828E832212171C
:1036C00060902EC27412F0902EC77471F0902EC4C8
:1036D0007480F0A3E4F0221233E99000FFE0600868
:1036E000123211E49000FFF022EE30E707C3E49FAE
:1036F000FFE49EFE2274BC2F1231A2E4F022123E9F
:10370000EB023C7E12174122D2AF32023E6600002D
:1037100000000000000000000000000000000000A9
:103720000000000000000000000000000000000099
:103730000000000000000000000000000000000089
:103740000000000000000000000000000000000079
:103750000000000000000000000000000000000069
:103760000000000000000000000000000000000059
:103770000000000000000000000000000000000049
:103780000000000000000000000000000000000039
:103790000000000000000000000000000000000029
:1037A0000000000000000000000000000000000019
:1037B0000000000000000000000000000000000009
:1037C00000000000000000000000000000000000F9
:1037D00000000000000000000000000000000000E9
:1037E00000000000000000000000000000000000D9
:1037F0000000000000000000000000000000001AAF
:1038000000000000000000000000000000000000B8
:1038100000000000000000000000000000000000A8
:00000001FF
