:10000000009B000200070000CAB0000000000000D2
:1000100000000000000000000000000000000000E0
:1000200078FFE4B8200118F6D8F99000007F007E30
:1000300007E4F0A3DFFCDEFA75810702350DCBEF94
:10004000CBEBD3940D501E121166E070181211669E
:100050007401F0120E8D1210F42437F582E434028C
:10006000F583120E0B22D2AF00320002270B75B2BD
:100070008E75B6F9E4F5B743B20143AA01023E3AE0
:100080000000000237EB904006E493B4180200220F
:1000900053A87F0080FD0000000000020846020B0C
:1000A000C6E86480F8E933E83360110460F0ED33AA
:1000B000EC337009E8FCE9FDEAFEEBFF220460DEA8
:1000C000D3EB9FEA9EE99DE8C2E78CF0C2F795F07A
:1000D000400CE8CCF8E9CDF9EACEFAEBCFFB120BF5
:1000E0009185D0F05804700320D5B3E80470075010
:1000F00002B2D5020BD092D5EC0460F7E4CCC0E09C
:10010000C398F8603B94186008400DD0E0FB020BE8
:10011000A8E4FBFAC9FC8028E830E406E4C9FBE463
:10012000CAFCE830E305E4C9CACBFCE85407601018
:10013000F8C3E913F9EA13FAEB13FBEC13FCD8F15B
:1001400030F52FC3E49CFCEF9BFFEE9AFEED99FD8A
:10015000D0E0FBEF4E4D4C701222DB03020BCDECD6
:100160002CFCEF33FFEE33FEED33FDED30E7EB0219
:100170000BA8EF2BFFEE3AFEED39FDD0E0FB50135C
:100180000BBB0003020BD0ED13FDEE13FEEF13FFCC
:10019000EC13FC020BA8EC4D6011E8497017ED332D
:1001A000EC3304600DE4FCFFFEFD22E933E8330488
:1001B00070F8020BC6120B9158046009E4CC24813C
:1001C0005006285009020BD0284003020BCDC0E096
:1001D000EB4A7044B98006D0E0FB020BBCEF4E70D6
:1001E0001CBD8008EBFFEAFEE9FD80EBE98DF0A481
:1001F000FEE5F0020A5FE9CDF9EAFEEBFFEF89F0D8
:10020000A4FCE5F0CE89F0A42EFFE435F0CD89F012
:10021000A42DFEE435F08067EF4E7005BD80D780D9
:10022000C3EF8BF0A4ACF0EE8BF0A42CFCE435F023
:10023000F8EF8AF0A42CE5F038FCE433CB8DF0A481
:100240002CFCE5F03BF8EE8AF0A42CFCE5F038F845
:10025000E433CF89F0A42CFCE5F038CF3400CE890C
:10026000F0A42FFFE5F03EFEE433C98DF0A42EFE8E
:10027000E5F039CD8AF0A42FFFE5F03EFEE43DFD28
:1002800033D0E0FB50070BBB000F020BD0EC2CFC73
:10029000EF33FFEE33FEED33FD020BA8020BD0EC83
:1002A0005D046005E859047003020BC6120B9158F7
:1002B0000460F6EC4860F2EC7004FDFEFF22C860BA
:1002C000DB2481C85009C39860025006020BCD9808
:1002D00050CAF582E9294B4A7005AB82020BBC7506
:1002E000F0007C1A7880C3EF9BEE9AED99400DC325
:1002F000EF9BFFEE9AFEED99FDE842F0DC23ACF0B7
:10030000D0E0FFD0E0FED0E0FDAB8220E7101BEB99
:1003100060BAEC2CFCEF33FFEE33FEED33FD020B45
:10032000A8E803F830E705C0F075F000EF2FFFEE06
:1003300033FEED33FD40B830E7C280AA75F020806F
:100340000E75F010800575F0087D007E007F00338B
:1003500092D530D503120DD6EC334010EF33FFEEBB
:1003600033FEED33FDEC33FCD5F0ED22E5F0247ED9
:10037000A2D513CC92E7CDCEFF22EDD2E7CD33EC60
:100380003392D524814006E4FFFEFDFC22FCE4CF3D
:10039000CECDCC24E0501174FF80EDC3CC13CCCD76
:1003A00013CDCE13CECF13CF0470F030D5DE020DB7
:1003B000D6E9D2E7C933E833F892D5EDD2E7CD33A9
:1003C000EC33FC5002B2D522EC30E7100FBF000C2A
:1003D0000EBE00080DBD00040BEB6014A2D5EB139C
:1003E000FCED92E7FD2274FFFCFDFEFF22E480F8A5
:1003F000A2D574FF13FC7D80E480EFBB01068982E7
:100400008A83E0225002E722BBFE02E32289828A2D
:1004100083E49322BB010CE58229F582E5833AF55A
:1004200083E0225006E92582F8E622BBFE06E92594
:1004300082F8E222E58229F582E5833AF583E493A6
:1004400022BB010689828A83F0225002F722BBFE7A
:1004500001F322F8BB010DE58229F582E5833AF527
:1004600083E8F0225006E92582C8F622BBFE05E9A2
:100470002582C8F222EF8DF0A4A8F0CF8CF0A4283A
:10048000CE8DF0A42EFE22BC000BBE0029EF8DF015
:1004900084FFADF022E4CCF875F008EF2FFFEE33C7
:1004A000FEEC33FCEE9DEC984005FCEE9DFE0FD576
:1004B000F0E9E4CEFD22EDF8F5F0EE8420D21CFE4A
:1004C000ADF075F008EF2FFFED33FD4007985006B3
:1004D000D5F0F222C398FD0FD5F0EA22C2D5EC3058
:1004E000E709B2D5E4C39DFDE49CFCEE30E715B20C
:1004F000D5E4C39FFFE49EFE120C67C3E49DFDE4B8
:100500009CFC8003120C6730D507C3E49FFFE49E78
:10051000FE22C5F0F8A3E028F0C5F0F8E5821582C8
:1005200070021583E038F02275F008758200EF2F15
:10053000FFEE33FECD33CDCC33CCC58233C5829BA9
:10054000ED9AEC99E58298400CF582EE9BFEED9ACF
:10055000FDEC99FC0FD5F0D6E4CEFBE4CDFAE4CC6B
:10056000F9A88222B800C1B90059BA002DEC8BF06D
:1005700084CFCECDFCE5F0CBF97818EF2FFFEE332A
:10058000FEED33FDEC33FCEB33FB10D70399400455
:10059000EB99FB0FD8E5E4F9FA227818EF2FFFEE7C
:1005A00033FEED33FDEC33FCC933C910D7059BE9AD
:1005B0009A4007EC9BFCE99AF90FD8E0E4C9FAE409
:1005C000CCFB2275F010EF2FFFEE33FEED33FDCCA8
:1005D00033CCC833C810D7079BEC9AE899400AED92
:1005E0009BFDEC9AFCE899F80FD5F0DAE4CDFBE43A
:1005F000CCFAE4C8F922C3E49FFFE49EFEE49DFD2B
:10060000E49CFC22EB9FF5F0EA9E42F0E99D42F06B
:10061000EC6480C864809845F022EB9FF5F0EA9E78
:1006200042F0E99D42F0E89C45F022ECF0A3EDF0A9
:10063000A3EEF0A3EFF022A8828583F0D083D082CE
:10064000120E2E120E2E120E2E120E2EE473E493A4
:10065000A3C583C5F0C583C8C582C8F0A3C583C53B
:10066000F0C583C8C582C822A42582F582E5F0358D
:1006700083F58322EF4E6012EF60010EEDBB010B9C
:1006800089828A83F0A3DFFCDEFA2289F05007F723
:1006900009DFFCA9F022BBFEFCF309DFFCA9F02274
:1006A000F583E0F8A3E0F9A3E0FAA3E0FB9002C32E
:1006B000E0FCA3E0FDA3E0FEA3E02275F002120E31
:1006C0004875F087E0FCA3E0FDEFA4245EF582E529
:1006D000F03400F5832275F002120E48E0FCA3E02E
:1006E000FD75F087EFA42470F582E5F03400F58302
:1006F000EE75F002020E4875F002EBA4242EF5828E
:10070000E5F03400F583E0FCA3E0FDEB75F002A416
:100710002428F582E5F03400F58322903104C39B50
:10072000FBEE9AFAED99F9EC98F8E493FE740193D4
:10073000FFE4FCFDC3020DFA75F087EEA424C1F5B9
:1007400082E5F03400F583E5822FF582E43583F508
:1007500083E4F075F087EEA424CAF582E5F0340056
:10076000F583E5822FF582E43583F58322E0FEA34D
:10077000E0FF9003E4E0FD75F002A42494F582E527
:10078000F03400F583EE8FF0120CF275F002EDA458
:100790002494F582E5F03400F58322EF2466FFEE21
:1007A00034FEFE7C007D0A120C557D32120C67EF80
:1007B000249AFFEE3401FEEB75F002A4243AF58290
:1007C000E5F03400F583229003D1E0FF75F087A4B3
:1007D0002482F582E5F03400F5832275F002EF12F1
:1007E0000E48E0FCA3E0FDEE75F087A42470F582CE
:1007F000E5F03400F583229003E4E0FD75F087A472
:1008000024A6F582E5F03400F583229003E4E0FFAE
:1008100075F087A4244CF582E5F03400F58322E4DA
:10082000900027F09002B1F09002E7E09002B2F061
:1008300054F0FFF022C39BFBEE9AFAED99F9EC9885
:10084000F822EF75F002020E48FDECF0EDA3F07512
:10085000F002EBA42434F582E5F03400F583E0FCEB
:10086000A3E0FD22C3E0FDEF9D7480F86E98229016
:100870002EC97420F07484902E4FF0902EC322E085
:100880004401F0E4900027F09002B122902EC9F0CC
:100890007404902E4EF0902EC322E0FEA3E0C39D80
:1008A000FFEE9C229003D1E025E024D3F582E434CE
:1008B000032224F3F582E43401F583229003E5E07A
:1008C000FF9003E4E0FE75F087A424C1F582E5F013
:1008D000340022CBEFCBEBD39403229003E4E0FF70
:1008E00024F6F582E43401F58322EB75F002A424AA
:1008F0002EF582E5F03400F58322F583E493FC7451
:100900000193FD75F002EFA42274F92EF582E43410
:1009100001F58322FFEB25E025E022F583E4F07F5B
:1009200001229003ECE0FF24C1F582E43400F5835A
:1009300022E0FEA3E0FFD322ECF0EDA3F09003E56C
:10094000E004F022E0FCA3E0FD75F002229003E752
:10095000E0FEA3E0FF229003E4E0FF75F08722E0D1
:100960004406F09000277401F022EE8FF0120CF292
:1009700075F08722902EC97420F022C28A9002E777
:10098000E09002B2F02274272BF582E43402F58362
:1009900022747E2BF582E43402F5832274CA2BF58F
:1009A00082E43402F5832274A22BF582E43402F54A
:1009B000832274102BF582E43402F58322740E2B0B
:1009C000F582E43400F5832274342BF582E434029A
:1009D000F5832274B32BF582E43402F58322740587
:1009E0002EF582E43402F58322902EC97428F0900B
:1009F0002E4E7482F0902EC32275F002A424E1F5ED
:100A000082E5F0340122E4F5E2902EC074C2F0E4F5
:100A100022EF25E024D9F582E4340322E4F0A3F0A8
:100A200075F00222F074CA2FF582E43400F58322B7
:100A3000C3EF94F6EE6480947F22900204E0640198
:100A400022E49001FDF0900297F0229003ECE0FF89
:100A500075F002229003E4E0FF75F002229003E4B7
:100A6000E0FD75F08722E0FCA3E0FD75F0872290A1
:100A70002EC5F0902ECEF022F074FA2EF582E434DA
:100A800001F583E4F0229002B2E09002E7F022FF49
:100A9000E0FCA3E0FD22E0FEA3E0C3941EEE648030
:100AA000948022F583ECF0A3EDF022940AEE6480AA
:100AB00094802275F002EC020E48E4F0A3F075F089
:100AC0008722F0ECA3F0EDA3F022E0FEA3E0FFC349
:100AD0009428EE9423227F0B123E6BE49002C9F01F
:100AE00022E0FEA3E0FF7C00020CBCE0FCA3E0FDE2
:100AF000EC22902EC97428F022E0FAA3E0FB75F0F6
:100B000002EF22A42472F582E5F0340022F0900175
:100B1000FEF0900298F0229003E4EFF01211D9F564
:100B200083E0FEA3E07803CEC313CE13D8F990037D
:100B3000EBF0E4A3F09003E6F09003E5F09003E51A
:100B4000E0FFC3940940030214E5EF9003E9700944
:100B50007404F0A37406F080077404F02405A3F075
:100B60009003E4E0FF120FC8C083C0829003E5E069
:100B7000FED082D083120E9B120ED012107A9003F8
:100B8000E7F0A3EFF01210BBE0601A75F087EF12E8
:100B90000F6FC083C0829003E5E0D082D083120E35
:100BA000D1E4F0A3F012112D123F159003E91210B9
:100BB00044504312112D12123D120F6FC083C08298
:100BC0009003E5E0FCD082D083120ED112114A12BC
:100BD0000F6EEC120ED1121111940FEE64809480FE
:100BE0004003021457C3EF94F1EE6480947F4003F6
:100BF0000214A702148312112D123F159003EB1259
:100C000010445004A3E004F012112DC394FCEE64D0
:100C100080947F50069003E6E004F012121A6003FD
:100C20000214A7123F159003EA121044501E12112D
:100C300036120EAAC083C0829003E5E0FED082D0B7
:100C400083120EB6ECF0A3EDF00214A712112D12D0
:100C5000123D120F6FC083C0829003E5E0FCD0828A
:100C6000D083120ED112114A120F6EEC1210231201
:100C7000111112128B402712123D120F6FC083C048
:100C8000829003E5E0FCD082D083120ED1E4F0A381
:100C9000F0ED120FC8121293E475F00180261212C3
:100CA000105024121136120F6FC083C0829003E5DA
:100CB000E0FED082D083120ED1E4F0A3F0120EC178
:100CC00074FFF5F0120CF29003E4E0FF120FC8C0BD
:100CD00083C0829003E5E0FED082D083120E9B1287
:100CE0000ED012107AFE9003E4E0120FACC083C065
:100CF000829003E5E0D082D083120ED1EEF0EF12A5
:100D0000111B02131D12121A70389003E4E0FF2425
:100D1000051211C1E0702B74052F1211C17401F07E
:100D2000E49003E5F0121136120EAAC083C082903F
:100D300003E5E0FED082D083120EB6121118E0B4A3
:100D400009E39003E6E0C3940440379003E4E0FF36
:100D5000123CE49003E4E0FF123A35EF602CE4909B
:100D600003E5F0121136120EAAC083C0829003E58B
:100D7000E0FED082D083120EB6121118E0B409E35F
:100D800080089003E4E0FF123E899003ECE0C394F6
:100D90000440371210BBE07031123CC09003E4E015
:100DA000FF123B5AEF602BE49003E5F0121136126C
:100DB0000EAAC083C0829003E5E0FED082D08312E9
:100DC0000EB6121118E0B409E3229003E4E0FF121A
:100DD0003E7A22122575E49003D1F0900026E0FFC0
:100DE0009003D1E0C39F4003021842E0FF12108835
:100DF000F583E4F0A3F01211F1F583E4F0A3F09091
:100E000003DFF0A3F0A3F0A3F0A37409F0EF7003E5
:100E1000021839121CCB9003D1E0FF1212F7E490B4
:100E200003D2F09003D2E0FFC39409400302176E8F
:100E300012121A600690029BE0601A900027E07080
:100E4000149002B1E0700E9003D1E0120FAC1210BA
:100E500022E4F0A3F09003D2E0FF70030217659044
:100E600003D1E0FE120FAC121022E0FCA3E0C39409
:100E700008EC64809480501C75F087EE120FAFC0B0
:100E800083C0829003D2E0D082D083120ED1E4F0EE
:100E9000A3F08043120FA7C083C0829003D2E0FE6C
:100EA000D082D083120ED1E0FCA3E0C3940AEC649C
:100EB000809480502275F087EFA42482F582E5F0BB
:100EC0003400120ECEC083C0827D021212C1D082C5
:100ED000D083EEF0A3EFF09003D1E0FF75F087121E
:100EE00012E312103C1211F1F583EC8DF0120CF2AA
:100EF000120FA7C083C0829003D2E0D082D08312A9
:100F00000ED1121246EF1212E3F583E0FEA3E02D9C
:100F1000FFEE3CFE9003D1E0FD121088F583121124
:100F20004AED120FAFC083C0829003D2E0D082D0CE
:100F300083120ED1E0FEA3E0FFC39003E0E09FEE3A
:100F40006480F89003DFE064809850129003D2E050
:100F5000FD9003DFEEF0A3EFF09003E3EDF09003DC
:100F6000D1E0120FACC083C0829003D2E0D082D017
:100F700083120ED1E0FEA3E0FF9003E2E02FF09099
:100F800003E1E03EF09003D2E004F0021603900388
:100F9000DFE0FAA3E0FBC39003E2E09BF09003E103
:100FA000E09AF07D071212C19003E1EEF0A3EFF09A
:100FB000C3EB9FFFEA9EFED3EF9402EE6480948021
:100FC000403DA3E064096037121084F583C083C0FC
:100FD00082E0FEA3E0FF9003DFE0FCA3E0FDC3EFAF
:100FE0009DFFEE9CD082D083F0A3EFF09003E1E070
:100FF000FEA3E0FF121084F583EE8FF0120CF29046
:1010000003D1E0FF12108812103CEF120EECECF04E
:10101000A3EDF09003D1E0FF1211F212103CEF1299
:1010200010CBECF0A3EDF09003F5E0602C9003D131
:10103000E0B4010F120EECE0FFA3E0900279CFF0D4
:10104000A3EFF09003D1E0B4020F120EECE0FFA387
:10105000E0900208CFF0A3EFF09003D1E004F0029B
:1010600015BBE49001FFF022E49003D5F0FF1234A9
:10107000507F011234509003D3E4F0A37404F09035
:101080000367E014607C1470030218F71470030205
:10109000194C1470030219E41470030219F92405A1
:1010A0006003021AC69003CA120E1700000000E483
:1010B0009003B6F0A3F0A3120E17000000009003F7
:1010C000ACE0FFA3E09003BCCFF0A3EFF09003AC43
:1010D000E0FFA3E09003BECFF0A3EFF012295EA3E0
:1010E000F0A3F09003AAE0FFA3E09003C8CFF0A321
:1010F000EFF0123EFD7F327E00123C2490036774B5
:1011000001F0122966123C9AEF7003021AC6121AF5
:10111000CC7402F0021AC612288F940AEE648094EE
:1011200080401312295E9003B3E004F07013900323
:10113000B2E004F0800B1229EC500612295E12294D
:10114000881228E470069003B6E004F0123C9AEF8F
:101150007003021AC6122937120D449003BCEEF038
:10116000A3EFF09003677403F0021AC69003ACE09B
:10117000FEA3E024B4FFEE34FBFE9003D1F0A3EF16
:10118000F0123F15C3EF9403EE648094805025E481
:101190009003B6F0A3F0A3120E170000000012296E
:1011A00066123EFD7F0A7E00123C249003677404A1
:1011B000F0021AC69003D1E0FEA3E0FF1228AB9420
:1011C00005EE64809480401412295E900369E02447
:1011D000FFF0900368E034FFF0A38022C3EF94FB9C
:1011E000EE6480947F4003021AC612295E90036960
:1011F000E004F07006900368E004F090036912299F
:1012000097021AC6122966123C9AEF7003021AC698
:10121000121ACC7405F0021AC612288F940AEE64D2
:10122000809480401312295E9003B3E004F07013A1
:101230009003B2E004F0800B1229EC500612295EF4
:101240001229881228E470069003B6E004F0123CDC
:101250009AEF7003021AC6122937120D449003BE8A
:10126000EEF0A3EFF0122916E4FBFAF97840120928
:10127000767BA07A70797678C2120885120B5A9024
:1012800003C4EEF0A3EFF09003BE122919ECC0E006
:10129000EDC0E0EEC0E0EFC0E09003C4122919D029
:1012A000E0FBD0E0FAD0E0F9D0E0F8120976ECC02B
:1012B000E0EDC0E0EEC0E0EFC0E01229161229A573
:1012C000D0E0FFD0E0FED0E0FDD0E0FC120A7F12BB
:1012D0000B5A9003C8EEF0A3EFF09003677406F08A
:1012E0009003D57401F09003D5E0FF22123EFD7FFC
:1012F000057E00123C24900367229003D1747EF097
:10130000E4A3F0900026E0FE9003D2E0FFC39E40ED
:1013100003021CBC123B92EF60031212219003D215
:10132000E0FA121092E06003021B979003D2E0FFF4
:101330001211D912103CEF120F98E0FEA3E0C39DEA
:10134000EE9C404C9003D2E09003D1F012109274C6
:1013500001F09001FDE004F0900297F09003D2E0DC
:10136000FF24F91210EC7401F0123EA79003D2E0B2
:10137000FF123EB69003D2E0FF123D509003D2E040
:10138000FF123D989003D2E01210C07401F0801259
:10139000CFEACF123AABEF60099003D2E01210C04F
:1013A000E4F09003D2E0FF123BC7EF7003021CB3DE
:1013B000E49001FE021CAE9003D2E0FF75F002A49F
:1013C00024EDF582E5F0340112103C75F002EF12C5
:1013D0000F9BE0FEA3E0C39DEE9C5003021C78909F
:1013E00003D2E09003D1F0123AE6EF7003021CB38F
:1013F000E4FF9003D2E0FE75F087120EAA120FBB35
:10140000121022ECF0A3EDF00FEFB409E59003D237
:10141000E0121092E4F0900027E0FF70099002B112
:10142000E07003021CCAEF601F9002B1E060191265
:101430000FFFBF2003D38001C34005E49002B2F048
:101440009002B2E044058048900027E0601F9002BF
:10145000B1E07019121000BF2003D38001C3400512
:10146000E49002B2F09002B2E044018023900027A1
:10147000E070779002B1E06071120FFFBF2003D3DC
:101480008001C34005E49002B2F09002B2E044044F
:10149000F09002E7F0C28A229003D2E0FF1210928D
:1014A000E4F0123ED49003D2E0FF123D2C9003D220
:1014B000E0FF123EC59003D2E0FF123D749003D2CC
:1014C000E024F91210EC7401F09001FEE004F090B9
:1014D0000298F09003D2E004F0021AE39003D1E006
:1014E000FF900202E06F6002EFF0229003E4EFF061
:1014F0009003E87407F0E49003E5F09003E5E0FF63
:10150000C394094003021EA4EF603D12121A703802
:10151000120FEBC083C0829003E5E0FED082D0833F
:10152000120E9B120ED0ECF0A3EDF09003E4E0124B
:101530000FDCC083C0829003E5E0D082D083120E1E
:10154000D1E4F0A3F0021E9B9003E4E0FF75F08766
:10155000120EAAC083C0829003E5E0FED082D08341
:10156000120ED1121246EFA4244CF582E5F034009D
:10157000120ECE12107AFE9003E6F0A3EFF0123FA7
:10158000159003E81210444003021E2712109C120B
:101590000F40E06401703075F087EE120FAF12104B
:1015A000221212764003021E78120FEBC083C08213
:1015B0009003E5E0FED082D083120E9B120ED0EC99
:1015C000F0A3EDF0021E789003E6E0FEA3E0FF1228
:1015D0000FD7C083C0829003E5E0FCD082D0831295
:1015E0000ED112114AED120FDF12129312111112C5
:1015F000128B4023120FD7C083C0829003E5E0FC1A
:10160000D082D083120ED112129AED120EAA1212AB
:1016100093E475F001802A121210507C9003E4E0EC
:10162000FF120FDCC083C0829003E5E0FED082D0C1
:1016300083120ED112129A120EA9120ED074FFF557
:10164000F0120CF2021E78120FEBC083C0829003DE
:10165000E5E0FED082D083120E9B120ED0ECF0A3F8
:10166000EDF09003E4120FAAC083C0829003E5E07E
:10167000FED082D083120ED1E0FCA3E0C3940FEC25
:1016800064809480401275F087EF1210A9F583E50D
:10169000822E120F457401F012109C120F40E0646C
:1016A000017018120F33E004120F32E0D39405409A
:1016B0000A9003E5E0FF120F18E4F09003E5E00460
:1016C000F0021CDB22902ECB74F4F0E4FF740812BD
:1016D000124F121154902EC37480F0A37409F012AB
:1016E00011E6FDFCE5E220E20B0DBD00010CBC079C
:1016F000F3BDD0F0902ECEE4F0902E1A1212D91233
:101700000FF3EAF0A3EBF0744012124FEFB4010AAA
:10171000121154902E4E7404800CEFB4021012116A
:1017200054902E4E7484F0902EC374608049EFB4B0
:10173000030A743112106C7450021F6CEFB4040C65
:1017400012115474841210727450801BEFB4050E81
:10175000742012106C7470F0A3740AF08033EFB42C
:10176000060C1211C97430F0A37408F08023EFB492
:10177000070C1211C97440F0A3740BF08013EFB47E
:10178000080F902EC9742A12106F74C0F0A374074A
:10179000F01211E6FCFDE5E220E20B0DBD00010CAC
:1017A000BC07F3BDD0F0902ECEE4F0902E1C1212A8
:1017B000D9A424D3F582E5F03400F583EAF0A3EB55
:1017C000F0902EC57480F0902ECEF0EFB4010C1284
:1017D0001154748212105774408036EFB40207120D
:1017E000104F7440805AEFB403101212D2902E4F53
:1017F0007404F0902EC374508056EFB4040A121192
:1018000054902E4F7484801CEFB4050C12104F744A
:1018100060F0A3740BF0803DEFB4061512115490E4
:101820002E4F7404F0902EC37440F0A37408F0801F
:1018300024EFB407121212D2902E4F1211D27460FC
:10184000F0A3740AF0800EEFB4080A12104F74402F
:10185000F0A37407F01211E6FCFDE5E220E20B0DA7
:10186000BD00010CBC07F3BDD0F0902ECEE4F0908B
:101870002EC5F0902E1EE0FCA3E0FD75F002EFA453
:10188000245AF582E5F03401F583ECF0A3EDF00F76
:10189000EF64096003021EAD9001FF7401F022E4C1
:1018A000FE900026E0FFEEC39F400302222D12109F
:1018B000E9E06401600302222974F32E121094E01F
:1018C000FC6003022153EE6401704E121008BF2029
:1018D00003D38001C34005E49002B2F0900298E087
:1018E000FD6401701B900297E09002B2B40109E020
:1018F000440912106204801512105F1212ED801656
:10190000ED9002B2B4020BE04405121062121258BC
:10191000800412105FF0121266EE6402600302226D
:1019200022121008BF2003D38001C34005E49002B7
:10193000B2F0900298E0FD6401701C900297E09074
:1019400002B2B4010612113FE48021E044041210F7
:10195000621212ED02221FED9002B2B40205E044C1
:10196000058003E04404F0E4900027F09002B1F019
:1019700002221FEC64016003022222EE6401706007
:10198000121008BF2003D38001C34005E49002B2C7
:10199000F0900297E0FFB4020B9002B2E0440A120A
:1019A00011428013EF640170269001FEE09002B2B4
:1019B000B4010C12113FE49002B1121258801EE0E3
:1019C0004402121142E49002B1F0121222800E90F1
:1019D00002B2E04402121142E49002B1F012126627
:1019E000EE6402705D121008BF2003D38001C34073
:1019F00005E49002B2F0900297E0B402139002B2B4
:101A0000E0440AF09002B17401F0900027F0802FBA
:101A10009001FDE06401701C900298E09002B2B465
:101A20000105E044098013E0440812106204F0123A
:101A30001221800B9002B2E0440812106204F012EE
:101A400012661210E9E4F0C28A0E0220817F05229C
:101A5000900213E060030222C704F0E4FF90002626
:101A6000E0FEEFC39E5047EF25E02458F582E434B2
:101A7000311210DA24E7F582E5F03401121283EF17
:101A800025E02438F582E434311210DA1211DD1227
:101A90001283EF25E02478F582E434311210DA2441
:101AA000EDF582E5F034011212830F02223D900120
:101AB000E3A3E09002E2F09001E5A3E09002E3F0FE
:101AC0009002931212CB900312F0EDA3F090000B52
:101AD0001212CB900314F0EDA3F090027B1212CB04
:101AE000900306F0EDA3F09002E2E0FF7E0090018B
:101AF000E3E07003A3E06F60089001E3EEF0A3EF72
:101B0000F09002E3E0FF7E009001E5E07003A3E0C7
:101B10006F60089001E5EEF0A3EFF0900293E0FE15
:101B2000A3E09002C712126F6F7002EC6E60089013
:101B30000293ECF0A3EDF090000BE0FEA3E0900226
:101B40000D12126F6F7002EC6E600890000BECF0DB
:101B5000A3EDF090027BE0FEA3E0FF90029CE0FC8E
:101B6000A3E0FD6F7002EC6E600890027BECF0A3C6
:101B7000EDF09002E1E0B4AA0312378E9002F7E094
:101B8000FFB410089003F67410F0800AEFB420063A
:101B90009003F67420F09002FAE0B41007E4F0909D
:101BA000028E04F09002FBE07008A3E0B410031270
:101BB0003891900305E0FFB4100BE490028FF09091
:101BC0000305F0800EEFB4200AE4900305F09002C4
:101BD0008F04F0900304E0FFB4100FE490020AF0C9
:101BE000900304F090029904F022EFB4200EE490E8
:101BF0000304F090020A04F09002B6F0229003F67B
:101C0000E07E00B420047F0280027F0C9003D3EEBC
:101C1000F0A3EFF0122922FE9003D1F0A3EFF0D34E
:101C2000900294E09F900293E09E40239003D1E0C5
:101C3000FEA3E0FF123F15CCEECCCDEFCD9002938A
:101C4000E0C313FEA3E013FFD3ED9FEC9E5006907C
:101C5000036CE06013122F5D122F63122F5D1229A7
:101C6000229003D1F0A3EFF09003D11228B7940093
:101C7000EE64809480400280047E007F00900371B7
:101C8000EEF0A3EFF090028FE07013900371F0A3D9
:101C9000F0A3E0FFA3E090036DCFF0A3EFF090027C
:101CA0008EE070069002A1E060101228CDE4900250
:101CB0008EF09002A1F090020FF0900293E0FEA34C
:101CC000E0FF900371E0FAA3E0FBD39FEA9E40544B
:101CD00090037D7401F0A3120E1700000000E49041
:101CE0000382F090036C04F09003A9E07018900355
:101CF00074E02432FE900373E034009003A7F0A355
:101D0000CEF0A37401F090029AE0701690020AE0FF
:101D100060069002817401F090029A7401F09002C2
:101D20007DF0806990000BE0FEA3E0FFC3EB9FEA2B
:101D30009E505A900366E004FFF0C39003D4E09FE6
:101D40007480F89003D3E06480985046E490036672
:101D5000F090037DF0900373E0FFA3E09003A7CF22
:101D6000F0A3EFF0E4A3F090036CE06002E4F090E5
:101D7000029AE0B4011C90020AE0600690028174AD
:101D800001F0E490029AF090027DF08005E4900367
:101D900066F0022C6EE49003E5F0A3F09003E97482
:101DA00003F02405A3F0122B3DE49003E4F090032C
:101DB000E4E0FFC39409400302268375F002EF12AA
:101DC0000FCB121124120EA912107AFE9003E7F025
:101DD000A3EFF0123F159003E91210445020900336
:101DE000E6E004F0A3120F4D12111112128B400302
:101DF000022624121210400302265B02264790039B
:101E0000E5E004F012121A70729003E7E0FEA3E01E
:101E1000FF123F159003EAD31210454015121234F9
:101E2000120EAA121124EF120FCBECF0A3EDF00268
:101E3000265B9003E7120F4D1211119464EE64803B
:101E4000948040189003E4E0FD75F002120F6F12C9
:101E500011FCED120FCBE475F001801CC3EF949CD4
:101E6000EE6480947F5014121234120F6F1211FC22
:101E7000EF120FCB74FFF5F0120CF2121234120FA6
:101E8000CB121124120EA912107AFE9003E4E07511
:101E9000F002120FAFEEF0A3EFF09003E4E004F0D5
:101EA00002258E9003E5E0C3940440028031C39084
:101EB000010CE0940490010BE06480948040269033
:101EC0000193E09404900192E06480948040169025
:101ED0000085E09403900084E06480948040069044
:101EE00002047401F09003E6E0C3940640379002C8
:101EF00004E06031E4FF123D08E4FF123A70EF6045
:101F000029E4900204F09003EBF0900026E0FF90AB
:101F100003EBE0FEC39F50121211BEE4F09003EBFE
:101F2000E004F080E5E4FF123E9822C0E0C083C0E8
:101F300082C0D0E8C0E0E9C0E0EAC0E0EBC0E0ED7C
:101F4000C0E0EEC0E0EFC0E0D2AFE5DB30E41D90D2
:101F500003F3123919E4F0E5DB30E1028038900236
:101F6000DFE5DFF0900360E4F002286EE5DB30E5AA
:101F7000169002DC123919E06005E4F002286E9038
:101F800003F3E4F002286E900362E4F0E5DB30E155
:101F90002EE5DB30E00FA31238E11238EA120BF421
:101FA000F5DF02286E900361E06408600302286E8A
:101FB000308A0302286ED28A9002E7F002286E90DF
:101FC0000360E0700EA3E5DFF0900360123919F0B2
:101FD00002286E900361E090355293FFB4FF0F909A
:101FE00002DFE5DFF0900361E004F0022868EF64AF
:101FF0000F702F9003631238E1900361E0FF1239F4
:1020000020540F120C219003631238E1900361E019
:10201000FF04F0123920FFE5DF54F04F120C2102CB
:1020200028689003631238E11238EAE5DF120C33B6
:10203000900361E0FDB43419900312E09002C712DE
:1020400038F7900313E0FBEBFF9002C7EEF0A3EF2D
:10205000F0EDB43614900314E090020D1238F790AE
:102060000315E090020D1238FF900361E0B42818C8
:10207000900306E07F00FE90029CF0A3EFF0900337
:1020800007E090029C1238FF9002DEE004F075DB5E
:10209000FFD0E0FFD0E0FED0E0FDD0E0FBD0E0FAE2
:1020A000D0E0F9D0E0F8D0D0D082D083D0E0329028
:1020B00003B2E0FEA3E0FF9003ACE0FCA3E0C39F0B
:1020C000FFEC9EFE9003D1F0A3EFF09003AFE02F62
:1020D000F09003AEE03EF0E0FEA3E0FFD3222FFF3E
:1020E000EC3EFEE0FCA3E02FFFEC3EFE22E490037A
:1020F00071F0A3F090036DE0FFA3E0CF900373F0C5
:10210000A3EFF0229003B8E0F8A3E0F9A3E0FAA36C
:10211000E0FB9003ACE0FEA3E0FFE4FCFDEB2FFF4F
:10212000EA3EFEED39FDEC38FC9003B8120E0B9040
:1021300003B7E004F0229003BCE0FCA3E0FDE4025E
:102140000B21900373E0FEA3E0FFC390036EE09FBA
:10215000FF90036DE09E229003B6E0FEA3E0FBCA71
:10216000EECAE4F9F8A3E0FCA3E0FDA3E0FEA3E0DF
:10217000FF22E49003A5F0A3F0900374E022E49022
:1021800003AEF0A3F0229003ACE0FFA3E09003B213
:10219000CFF0A3EFF0229003D5E0FEA3E0FF900381
:1021A000A6E02FF09003A5229003B3E024FFF09067
:1021B00003B2E034FFF022E09003CFF0900368E038
:1021C0009003CEF022C8ECC8C9EDC9CAEECACBEF65
:1021D000CB229FFFEC9EFE9003D5F0A3EFF022F000
:1021E000902EC6741EF022E0FCA3E0FDC3EF9DFF1D
:1021F000EE9C2224FFF0900373E034FFF022900362
:1022000073E004F022E0FCA3E0FDEC22C3EF94F6BF
:10221000EE6480947F2290020CE024FE6021146022
:1022200027147003022ACE147003022ADB240460F0
:1022300003022B3C90020C7402F0E4900295F090A3
:10224000020C7403F0022D77121EA59001FFE060CE
:1022500077900295E004F0E49003D0F0900026E03F
:10226000FF9003D0E0C39F505FE4FF9003D0E0FEF7
:10227000120FF0120FBB121022ECF0A3EDF090033E
:10228000D0E0FE120FF0121022121246EE120EAA29
:10229000121022ECF0A3EDF00FEFB409CE9003D0B2
:1022A000E0FF120F98E4F0A3F0EFB40107E490020E
:1022B000EAF0A3F0EFB40207E49002ECF0A3F09090
:1022C00003D0E004F0022A3C900295E0C39403504E
:1022D00003022B3C900021747EF0E4900200F09009
:1022E0000295F0A3E090020C700D7404F022121815
:1022F00048EF606890020C7405F022900296740119
:10230000F01236BC123E1F1235D2900290E07003DC
:10231000121EA51236BC9001FFE0603D1215B312EB
:1023200036BCE49003D0F0900026E0FE9003D0E0AD
:10233000FFC39E50191239291239F59003D0E0FFDE
:1023400012326D1236BC9003D0E004F080D9121A1C
:10235000DA12207F90020CEFF012331C229003EF70
:102360007402F0E49003ECF09003ECE0FFC39409F6
:102370004003022C6D75F002120EA9121124EF1207
:102380000FF312107AFE9003EDF0A3EFF0123F1559
:102390009003EF1210444003022C0D121102E0B41E
:1023A000012775F002EF120FAF1212764003022CD4
:1023B0003B9003ECE075F002120FF375F002120E81
:1023C000A4ECF0A3EDF0022C3B9003EDE0FEA3E0C3
:1023D000FF9003ECE0FD75F002120FDFEE8FF012BC
:1023E0000CF275F002ED120FDF1211119402EE647F
:1023F00080948040189003ECE0FD75F002120FDF2E
:102400001211FCED120EAAE475F001801BC3EF94CB
:10241000FEEE6480947F504312122B120FDF1211D4
:10242000FC120EA974FFF5F0120CF2802E12122B82
:10243000120FF3121124120EA9ECF0A3EDF01212F8
:102440002B120FAFE0FCA3E0C3941EEC64809480D9
:10245000400974C12F1211097401F09003ECE012CD
:102460001107E0B4011E9003ECE0FF24CA12120829
:10247000E004121204E0D394054009121102E412A0
:102480001204E4F09003ECE004F0022B48229003E5
:10249000D77414F0A37432F0900373E0FEA3E0FF4E
:1024A00090036DE0FCA3E0C31229B2123F15900324
:1024B000D7E0FDC3EF9D7480F86E98502F122976F7
:1024C0001228B49464EE64809480400C1229520463
:1024D000F070161229DE8011C3EF949CEE64809494
:1024E0007F50061229521229D3023EF1C39003D520
:1024F000E064809480501D9003F6E0B420028010C8
:102500007F647E00123BFC123DBCEF7003022D760F
:102510001228D422123EF190036CE060599002948C
:10252000E0249EFF900293E03402FED39003D6E0B5
:102530009F9003D5E09E405E900373E0FEA3E0FF12
:102540009003A7E0FCA3E01229B212297E1228B45E
:102550009432EE64809480400B12295204F070365D
:102560001229DE22C3EF94CEEE6480947F502712AE
:1025700029521229D322122976E03EF0D3A3E09407
:102580000A9003A5E064809480400BE4122956046D
:10259000F070031229DE227E017FE07D007B017A4C
:1025A000007928120E54123973E4900213F090024D
:1025B000C7F0A37482F0900293E4F0A37482F07CDD
:1025C000007D5AFF7E00120C557D64120C6790024C
:1025D0000DEEF0A3EFF090000BEEF0A3EFF07C0017
:1025E0007D3C120C557D64120C6790027BEEF0A3CB
:1025F000EFF090029CEEF0A3EFF0122230E4FE9098
:102600000026E0FFEEC39F5073E4FF75F087EE12E3
:102610000F6F12102212129AEEA424B8F582E5F080
:102620003400120F40E4F075F087EE120FDF121045
:1026300022E4F0A3F0120F18E4F00FEF640970CB5E
:10264000CFEECF123E89123E981211BEE4F0123E38
:10265000A7123EC5123EB6123ED474F32E12109449
:10266000E4F01210E9E4F09001FC747EF0E4A3F0D1
:10267000A3F0900297F0A3F00E022DDFE490020485
:10268000F0900202747EF0900021F0E4900201F0DC
:1026900022902ECB74F4F0902F58E0540F44F09019
:1026A0002EC81229BF902EC97428F0A3743FF09051
:1026B0002EC4740CF0902EC374A0F0902ECC7448ED
:1026C000F09003697480F09003687409F0A31229F4
:1026D000979003687409F0A37480F0902EC5E4F01D
:1026E000902ECDF0A3F0902E4C7404F0E490036A89
:1026F000F0A3F09003D0F0122F639003D0E004F029
:10270000E0C3940840F11228D490036DE0FEA3E0EA
:10271000FFE4FCFD7BB87A88F9F8C3120DE4500A97
:1027200090036A7413F0A37488F090036A12292549
:10273000FEF0A3EFF0EE1228DCE49003A9F0900382
:102740006FE0FFA3E0900375CFF0A3EFF090036D6F
:10275000122919ECC0E0EDC0E0EEC0E0EFC0E0905F
:10276000036F1229191229A5D0E0FFD0E0FED0E0B6
:10277000FDD0E0FC120A7F900377020E0B122F634C
:10278000122F63E4F5E2902ECB74F41229BF902E41
:10279000CA743FF0902EC97428F0902EC47408F0CB
:1027A000902EC37440F0902E4C7404F0902ECE7492
:1027B00010F0902EC5F0902EC074C2F0E4FFFEE53C
:1027C000E220E20B0FBF00010EBE07F3BFD0F09076
:1027D0002EC0E4F0902ECBF0902E18E0FEA3E0FF88
:1027E0009003A3E025E025E02483F582E43403F59B
:1027F00083EEF0A3EFF09003A3E004F0E05407F0C1
:10280000E4FFFE900383E0FCA3E02FFFEE3CFE908C
:102810000387E0FCA3E090038B1228BE90038F1285
:1028200028C39003931228C39003971228C39003E0
:102830009BE0FCA3E090039F1228BE9003F6E0907B
:10284000036AB4200C1229C7FEEF2428FFE43E805F
:10285000031229C790036DF0A3EFF022758A50533D
:102860008AEF9003F27411F09003F17422F0900358
:10287000F47433F075996F759A90E4FFFEC2960078
:1028800020970CD296003097069003F27487F00FD1
:10289000BF00010EEF640A4E70E3E4FEFFC2960033
:1028A00020940CD296003094069003F27487F00FB7
:1028B000BF00010EEF640A4E70E37590FF75992F0B
:1028C000759AD0000000E4FEFF3094063096032095
:1028D00097069003F17487F00FBF00010EEF640AB2
:1028E0004E70E6758B03E4F58D758EFF758DE0F502
:1028F000AD75AED875AF1DF5AC7589FF75913E7598
:102900009927F59675931CF59BF595F592F59A75B3
:10291000800CC289D28A9003F504F0220032003282
:10292000006402580004001E00320032000F0064F0
:10293000000A000C000C000C000000000000000069
:1029400000000001000001010B0C0D0E0F05060731
:1029500008090A0003040102005000500050005012
:1029600000500050005000500050005000500050E7
:1029700000500050005000500055005500550055C3
:10298000005500550055005500550055005500559F
:1029900000550055005500550046004600460046CB
:1029A00000460046004600460046004600460046F7
:1029B0000046004600460046002D002D002D002D4B
:1029C000002D002D002D002D002D002D002D002D9F
:1029D000002D002D002D002DE49003D2F0FF900378
:1029E000D1F0EF14601E14603514604C14605B2449
:1029F0000470749003D37401F0A3742FF0A374587F
:102A0000F00232411238DE900001120BF4FED39432
:102A10001F4003123908120BDB6E704B80431238D3
:102A2000DE900002120BF4FED39406400312390824
:102A3000120BDB6E703180291238DE900003120B0E
:102A4000F4FE120BDB6E701F80171238DE9000044C
:102A5000120BF4FE648B6003123908120BDB6E70EC
:102A6000069003D1E004F00FEF640560030231C269
:102A70009003D1E0B40504A37401F09003D2E0FD0B
:102A800060079002F4E0547FF0CFEDCF22CBEFCB84
:102A90001210CAE0FEA3E0FF120EEBE0FCA3E0C3BD
:102AA0009FEC9E4038120EEBE0FEA3E0FF75F002B3
:102AB000EBA42434F582E5F03400F583EEF0A3EFC7
:102AC000F01210CAE0FEA3E0FF120EEBE0FCA3E060
:102AD000C39FFFEC9E120F96EEF0A3EFF0EB6401A4
:102AE000702A120F97121111949AEE940140081255
:102AF0000F7BEEF0A3EFF0120F97E0FCA3E0900243
:102B0000EA121029EC9002EEF0EDA3F0EB640270F3
:102B10002A120F97121111949AEE94014008120F85
:102B20007BEEF0A3EFF0120F97E0FCA3E09002EC35
:102B3000121029EC9002F0F0EDA3F02290020AE0CE
:102B4000606A900281E0606490029AE0602A12114B
:102B50005D540FFFF0BF0803D38001C34012900201
:102B6000B2E0B40203D38001C34005E49002B2F0A6
:102B70009002B2E04420802812115D540FFFF0BF94
:102B80000403D38001C340129002B2E0B40103D326
:102B90008001C34005E49002B2F09002B2E044101C
:102BA000F09002E7F0E4900281F0C28A9002B6E071
:102BB000B4011890027DE0B4010C12115BE4F074D2
:102BC00020F09002E7F0E49002B6F0900299E06005
:102BD0001890027DE0B4010C12115BE4F07410F067
:102BE0009002E7F0E4900299F0224103F3004103E0
:102BF000F6104102950041020B0041029000410293
:102C00000A0041028F01410296004102B6004102D2
:102C1000990041027D0041028E004102B200410252
:102C2000130041029A004102810041002700410245
:102C3000B1004102D90041020F0041029B00410254
:102C4000A1004102C900410360004103610042024A
:102C5000DA00004102DC004102DE004102DD0041F9
:102C60000362004102DF1041036600410367000078
:102C7000902ECB74F4F0E4F5E2902EC97420F0901D
:102C800003CFE0902EC3F09003CEE0902EC4F090DE
:102C90002E4C74021229BF902EC57410F0EF902EA6
:102CA000CEB401057410F08002E4F0902EC074C21E
:102CB000F0E4FDFCE5E220E20B0DBD00010CBC07D9
:102CC000F3BDD0F053E2FB902EC5E4F0902ECEF091
:102CD000EF902E18B40109E0FFA3E09003AA80074B
:102CE000E0FFA3E09003ACCFF0A3EFF0902ECBE495
:102CF000F022023B21E493A3F8E493A34003F6807F
:102D000001F208DFF48029E493A3F85407240CC8E7
:102D1000C333C4540F4420C8834004F45680014692
:102D2000F6DFE4800B01020408102040809033CAD3
:102D3000E47E019360BCA3FF543F30E509541FFEBD
:102D4000E493A360010ECF54C025E060A840B8E42E
:102D500093A3FAE493A3F8E493A3C8C582C8CAC5B1
:102D600083CAF0A3C8C582C8CAC583CADFE9DEE743
:102D700080BE00000000FFFFFFFF0000FFFFFFFF1D
:102D8000FFFFFFFFFF00FFFF0000FFFF000000FF4D
:102D9000FFFFFFFFFFFF00000000FFFFFFFFFFFF3F
:102DA000FFFFFFFF00000000000000000000000027
:102DB0000000000000000000000000000000000013
:102DC0000000000000000000000000000000000003
:102DD00000000000000000000000000000000000F3
:102DE00000000000000000000000000000000000E3
:102DF00000009002F6E0FF6410606EEF64207069DE
:102E00009002F67430F07F011234509003C8E0FE57
:102E1000A3E0FF9003AAE0FCA3E0C39FFFEC9EFEAB
:102E2000CDEFCDFC120B217B667A66794878421291
:102E30000A7FE4FBFA79387841120885E4FBFA79D5
:102E4000C878421209769003CA120E0B9003CA1278
:102E50002946120B5ACDEFCDCCEECCEC9002F8F017
:102E6000EFA3F09002F67410F0229003F6E0FFB4A6
:102E7000101A9002F77410F0900290E064017058FC
:102E8000F053AAF790020C7403F0804CEF642070AA
:102E90004790028FE0640170259002F77420F09053
:102EA00002907401F0902ECBE4F043AA08123DE0AA
:102EB000758601758A50538AEFE4F58D800B902E4C
:102EC000CBE4F0123EE3758601758B03758EFF75BA
:102ED0008DE0902ECB74F4F0758DE02290020FE01F
:102EE00014602014602714604A2403705E30885BED
:102EF00090020F7402F07F0B123E6B12081E9002BC
:102F0000C980062088459002A17401F0227F0B122F
:102F10003842EF60031212B620883090020F74031B
:102F2000F090029B7401F07F0C123E6B12081E128F
:102F300012B6227F0C123842EF60107F0C123E6BEB
:102F400090020F7401F0E490029BF022902EC0E4F6
:102F5000F0902ECB74F4F0902F58E0540F24509042
:102F60002EC8F0902ECC7448F01212D2A3743FF009
:102F7000902E487482F0A3F0A3F0A3F0A37404F0A1
:102F8000A37484F0A37402F0A3F0902EC6741CF016
:102F9000902EC17490F0A37401F0A37420F0A37478
:102FA00009F043E310123C4C900026EFF02290030E
:102FB000D17408F0A3E4F0A3743FF0A374DFF0E44D
:102FC000FDFCF9758A10538AEF0000009003D1E0F0
:102FD000FEA3E012390FFF69F90DBD00010CBC37EB
:102FE000EBBDDFE89003D3E0FEA3E0F5828E83E43F
:102FF000936970089002E17407F08005E49002E1A3
:10300000F0758A50538AEF00000022C0E0C0F0C083
:1030100083C082C0D0E8C0E0ECC0E0EDC0E0EEC00C
:10302000E0EFC0E0D2AF90020BE004F0C3940A409E
:1030300017E4F0120E8D2401FFE43EFEE43DFDE4B2
:103040003CFC9002C3120E0BD0E0FFD0E0FED0E0BB
:10305000FDD0E0FCD0E0F8D0D0D082D083D0F0D04A
:10306000E0329003D1EFF0C3940D5042E0FF2427EB
:10307000121169E06038EF25E025E02437F582E49D
:103080003402120E801210159003D1E025E024FCCA
:10309000F582E43430F583120F0A400F9003D1E03B
:1030A0002427F582E434021210FB227F00227F00E5
:1030B000227F007E08E4FDFC9003D1F0A3F0758A26
:1030C00010538AEF000000EF12390FFB9003D2E09B
:1030D0002BF09003D1E03400F00DBD00010CBC37A3
:1030E000E6BDE0E39003D1E0FCA3E0FDEC9002FB41
:1030F000F0EDA3F0758A50538AEF00000022900390
:10310000D3E0FBA3E0FAA3E0F922900361E0FF041F
:10311000F08F82758300227F00FEF0A3EFF022FD86
:10312000EDFFEEF0A3EFF0229003D27401F0222D18
:10313000F582EE3CF583E493227401F09003622261
:10314000E92FF9E43AFA020BDBCBEFCBEB70131269
:103150000ED7E0900338F0120EEBA3E09003391283
:1031600012A2EB64017013120ED7E0900330F0123C
:103170000EEBA3E09003311212A2EB640270131263
:103180000ED7E0900334F0120EEBA3E0900335125B
:1031900012A2227E007F807D007B017A0279E012FC
:1031A0000E54E49002E7F09002E17407F09002F20E
:1031B00074ABF09002F4749BF09003F2E09002E4A0
:1031C000F09003F1E09002E5F09003F4E09002E665
:1031D000F00231B890027BE0FEA3E0FFC3900372DF
:1031E000E09F900371E09E5004E4F0A3F09003731D
:1031F0001229E5900308F0EDA3F09003711229E580
:1032000090030AF0EDA3F090036D1229E590030EF0
:10321000F0EDA3F0229003F5E060399002791212EC
:10322000AA500EEF944CEE941D40069003F4748760
:10323000F09002081212AA500EEF944CEE941D402A
:10324000069003F47487F0E49003F5F09003F4E043
:103250009002E6F0229003EDEFF0E0FF24CA121195
:103260007FE06029EF25E025E024CDF582E43402FB
:10327000120E80121015903108120F0A400F9003A1
:10328000EDE024CAF582E434021210FB227F002212
:103290009003ECEFF0E0FF24A212118AE06029EF26
:1032A00025E025E024A5F582E43402120E801210F8
:1032B0001590310A120F0A400F9003ECE024A2F59A
:1032C00082E434021210FB227F00229003D3EFF03D
:1032D000E0FF2410121195E06029EF25E025E0249D
:1032E00014F582E43402120E801210159030FE1292
:1032F0000F0A400F9003D3E02410F582E434021249
:1033000010FB227F00229003D3EFF0E0FF24B312E2
:1033100011B6E06029EF25E025E024B7F582E4341A
:1033200002120E80121015903102120F0A400F90F7
:1033300003D3E024B3F582E434021210FB227F00B1
:103340002212086653A87F12303C123C7343A880B7
:10335000123F09123E5312084E123E02EF24E06063
:103360000A2410700AC283C2828004D283D28212DD
:10337000223012364A1229F680DF9003EDEFF0E09A
:10338000FF247E121174E06026EF25E025E0248200
:10339000F582E43402120E80903100120EFE400FCE
:1033A0009003EDE0247EF582E434021210FB227FCC
:1033B00000229003D3EFF0E0FF240E1211A0E06092
:1033C00023EF25E025E02415F582E43400120E8079
:1033D000120EFB400F9003D3E0240EF582E434007C
:1033E0001210FB227F00229003D3EFF0E0FF243481
:1033F0001211ABE06023EF25E025E0246BF582E4B9
:103400003402120E80120EFB400F9003D3E02434DE
:10341000F582E434021210FB227F0022CBEFCBCAEC
:10342000EECA900006E0701B9000067401F0120EC8
:103430008DFF900007120E0BCFEBCF900277EAF0D2
:10344000A3EFF022CBEFCBCAEECA90000DE0701BC9
:1034500090000D7401F0120E8DFF900011120E0BF2
:10346000CFEBCF900291EAF0A3EFF022902EC5E4CB
:10347000F0902ECDF0A3F0FFFEEE90311893600D8A
:10348000749E2FF582E43402F583EEF00F0EEEB455
:1034900010E7229003637401F0A37402F0A374E0B8
:1034A000F0E4F5DA75DA4043DA2075D74075DA587A
:1034B00043A90875B80875F8082290000DE0601D52
:1034C000900011120E82121015900291E0FEA3E0FE
:1034D000120F104008E490000DF07F01227F0022BF
:1034E0001210B3501E121171E07018121171740194
:1034F000F0120E8D1210F42482F582E43402F5836A
:10350000120E0B221210B3501E12117CE070181212
:10351000117C7401F0120E8D1210F424CDF582E4AA
:103520003402F583120E0B221210B3501E121187B3
:10353000E070181211877401F0120E8D1210F4242D
:10354000A5F582E43402F583120E0B221210B3505B
:103550001E121192E070181211927401F0120E8D69
:103560001210F42414F582E43402F583120E0B22B7
:103570001210B3501E12119DE0701812119D7401AB
:10358000F0120E8D1210F42415F582E43400F58348
:10359000120E0B221210B3501E1211A8E070181256
:1035A00011A87401F0120E8D1210F4246BF582E450
:1035B0003402F583120E0B221210B3501E1211B3F7
:1035C000E070181211B37401F0120E8D1210F42471
:1035D000B7F582E43402F583120E0B22900006E068
:1035E000601BA3120E82121015900277E0FEA3E07A
:1035F000120F104008E4900006F07F01227F0022A5
:103600009003F3E0701BE4F58D758B02758EC17528
:103610008DA0F586438A84E5DB20E20575870300EB
:103620000022E4FD9002DCE060119002E0E0FE5434
:10363000F0FDEE540FF0E49002DCF0CFEDCF2290DD
:10364000028FE0B4010E9002C9E060051228CD801F
:1036500003122F631223DD0239B49002C3120E1736
:10366000000000007E007F0D7D007B017A0279273B
:10367000020E547E007F617D007B017A03796D121A
:103680000E54122E71E4900367F022EFD3940D5084
:103690000874272F121169E4F022EFD39403500825
:1036A000747E2F121174E4F022EFD3940350087447
:1036B000CA2F12117FE4F022EFD39403500874A2B2
:1036C0002F12118AE4F022EFD39403500874102FC4
:1036D000121195E4F022EFD394035008740E2F12C8
:1036E00011A0E4F022EFD39403500874342F121188
:1036F000ABE4F022EFD39403500874B32F1211B649
:10370000E4F022E4F58DF58BF58675870300000063
:1037100022E4900006F0900277F0A3F022E49000FB
:103720000DF0900291F0A3F02212372C90020C744D
:1037300001F0022D77EE30E707C3E49FFFE49EFE21
:103740002200000000000000000000000000000057
:103750000000000000000000000000000000000069
:103760000000000000000000000000000000000059
:103770000000000000000000000000000000000049
:103780000000000000000000000000000000000039
:103790000000000000000000000000000000000029
:1037A0000000000000000000000000000000000019
:1037B0000000000000000000000000000000000009
:1037C00000000000000000000000000000000000F9
:1037D00000000000000000000000000000000000E9
:1037E00000000000000000000000000000000000D9
:1037F000000000000000000000000000000000F5D4
:1038000000000000000000000000000000000000B8
:1038100000000000000000000000000000000000A8
:00000001FF
