:100000005446495312570108000008000000000040
:10001000000000800100000058629D2400001000D4
:100020000000000000000000400000000000000090
:1000300000000000010000000000000000000000BF
:10004000544643530000100000D50100C95AA37460
:10005000000001200101100007011000090110003B
:100060000B0110000D0110000F0110001F01100006
:100070001F0110001F0110001F01100011011000CE
:10008000130110001F01100015011000B7361000F9
:10009000C33710001901100019011000019111005F
:1000A00019011000E7121000ED12100019011000E4
:1000B000190110001F33100019011000F312100075
:1000C000DB381000F9021000291F10001901100080
:1000D0000000000000000000000000000000000020
:1000E0000000000000000000000000000000000010
:1000F0000000000000000000000000000000000000
:1001000000000000000000000000000000000000EF
:1001100000000000000000000000000000000000DF
:1001200000000000000000000000000000000000CF
:1001300000000000000000000000000000000000BF
:1001400000000000000000000000000000000000AF
:1001500000F010F8FEE7FEE7FEE7FEE7FEE7FEE749
:10016000FEE7FEE7FEE7FEE701480047FEE7FEE7A1
:100170001F01100000F002F800F04AF80AA090E811
:10018000000C82448344AAF10107DA4501D100F052
:100190003FF8AFF2090EBAE80F0013F0010F18BFD5
:1001A000FB1A43F00103184714AC010034AC010002
:1001B0000A4410F8014B14F00F0508BF10F8015B5A
:1001C000240908BF10F8014B6D1E05D010F8013B43
:1001D0006D1E01F8013BF9D1641E03D0641E01F8C5
:1001E000015BFBD19142E4D370470000002300245F
:1001F00000250026103A28BF78C1FBD8520728BF37
:1002000030C148BF0B6070471FB51FBD10B510BD92
:10021000DFF80CD0FFF7F8FF04F037FB18F085FF8C
:100220000000012003B4FFF7F1FF03BC18F084FFC6
:1002300000210028D8BF704700BF491C8842FBDC62
:100240007047704770477047704770477047017834
:10025000002908BF704710F8011F0029FBD1704723
:1002600082B0010F8DF80010C0F303618DF801100A
:10027000C0F303518DF80210C0F303418DF8031051
:10028000C0F303318DF80410C0F303218DF805107D
:10029000C0F303118DF8061000F00F008DF8070071
:1002A00000206A46115C0A2934BF303137311154BD
:1002B000401CC0B2082828BF0020F3D3401CC0B2A5
:1002C0000828FBD302B0704782B001098DF80010F6
:1002D00000F00F008DF8010000206A46115C0A2929
:1002E00034BF303137311154401CC0B2022828BF0E
:1002F0000020F3D3401CC0B20228FBD302B07047E9
:1003000082B0010B8DF80010C0F303218DF80110AD
:10031000C0F303118DF8021000F00F008DF80300F8
:1003200000206A46115C0A2934BF3031373111543C
:10033000401CC0B2042828BF0020F3D3401CC0B228
:100340000428FBD302B0704712484FF6FF710160DA
:1003500070471048104A0021016012681020506157
:100360000E48012203685A6003684022DA6003687D
:100370004FF40C621A6102685161026840F6FF7125
:1003800011620068EA21016305A010F8011F00292D
:10039000FBD170470070002018A5110008A51100BE
:1003A00055415254204F50454E21210D0D00000063
:1003B0000B0ACAB2F849D1F800C0CCF81C0043F4CB
:1003C000FE400B6858610868006840F00103086847
:1003D00003600868C06810F0010FFAD008688068F0
:1003E0000B6840F00100986002F07F024FF400407B
:1003F00040EA022208684261086800680B6840F021
:10040000010018600868C06810F0010FFAD0086891
:1004100080680B6840F001009860086842610868D5
:1004200000680A6840F0010010600868C06810F0B9
:10043000010FFAD0086880680A6840F001009060F7
:1004400008688069C0B2704700F07F0041EA00216F
:10045000D1480268516101680968026841F00101F0
:1004600011600168C96811F0010FFAD0016889684C
:10047000006841F001018160704700F07F014FF496
:10048000004040EA0122C44801684A6101680968E5
:10049000036841F0010119600168C96811F0010F9A
:1004A000FAD001688968036841F001019960016828
:1004B0004A6101680968026841F001011160016840
:1004C000C96811F0010FFAD001688968026841F02B
:1004D0000101916000688069C0B2704710B58C4618
:1004E0000446FFF7CAFF20EA0C01E0B2BDE8104065
:1004F000AAE7704770B5A848002401210268C2F835
:10050000141302686FF0FE21C2F8201302689921CB
:10051000C2F8301300680321C161A048A04DA14E6C
:1005200000684FF0010390F8800190B935F823007E
:10053000C0F307217F20FFF787FFF01890F8C0165F
:1005400015F82300FFF780FF5B1CB3F5A67FEDDBFA
:1005500070BD35F82300C0F3072C644505D0644610
:100560000CF00F017F20FFF76FFFF01890F8C01616
:1005700015F82300FFF768FF5B1CB3F5A67FE8DBE7
:1005800070BD10B504F088F9834B84464FF00430F9
:100590001968086219680014486219680120086126
:1005A000196888601968486000217F20FFF74CFFB8
:1005B00040210120FFF748FFBCF1050F18BF10BD17
:1005C00000201968C1F8100310BD734A00B5126805
:1005D0000321D16100284FF000014FF07F0006D0C9
:1005E000FFF732FF032100205DF804EB2CE7FFF753
:1005F0002BFF012100205DF804EB25E7664A00B5DA
:1006000012680321D16100284FF000014FF07F00F4
:1006100006D0FFF719FF012100205DF804EB13E776
:10062000FFF712FF03210020FFF70EFF002108460D
:100630005DF804EB08E7584900B509680320C86174
:1006400000217F20FFF700FF00205DF804EB14E796
:10065000514900B509680320C86100217F20FFF7D8
:10066000F3FE082102205DF804EBEDE64A490A6832
:10067000926C0123096803FA00F010438864704704
:10068000704745490968896D80F001000122801C8E
:1006900002FA00F0084070473F480168496C026860
:1006A00041F4006151640168496C006821F4006103
:1006B00041647047384A012303FA00F000291168A9
:1006C000096C03D0084311680864704721EA0000F0
:1006D000116808647047304900280868C06D0AD066
:1006E0000A6840F00200D0650868C06D096840F0F3
:1006F0001000C86570470A6840F00100D0650868BE
:10070000C06D096840F00800C86570472DE9F043E6
:10071000DFF8849080462025D9F8001009270220B0
:10072000C861002404217F20FFF78EFEA44611E05B
:10073000BCF1030F03D0BCF1060F0BD105E005217E
:100740007F20FFF781FE002404E006217F20FFF7D1
:100750007BFE00240023002D88BF08EB4C1608D92F
:10076000F15C2046FFF770FE601C5B1CC4B29D422A
:10077000F6D80CF1010C6745DAD8D9F80010012041
:10078000C861002404217F20FFF75EFEA446002FED
:100790001CD8BDE8F08300001CA51100E80600206D
:1007A0000000002078590020BCF1030F03D0BCF1F9
:1007B000060F0BD105E005217F20FFF745FE002441
:1007C00004E006217F20FFF73FFE00240023002DD8
:1007D00088BF08EB4C160AD9F01890F82011204673
:1007E000FFF732FE601C5B1CC4B29D42F4D80CF1D2
:1007F000010C6745D8D8CCE770B5D449044603202E
:100800000968C8610425E9B27F20FFF71DFE0023B7
:10081000E1B2D8B2FFF718FE03F12000E1B2C0B296
:10082000FFF712FE03F14000E1B2C0B2FFF70CFE89
:100830005B1C202BECDB0CF0E9F8002808BF00243F
:100840006D1C072DDFDB70BDC04803210268D1613C
:1008500002681121C2F8301300684FF00111C0F88E
:10086000201300217F20EFE5B84B00B51968032065
:10087000C86101467F20FFF7E7FD09210320FFF74C
:10088000E3FD01210F20FFF7DFFD19680120C1F80A
:10089000140319689920C1F8300319686FF0FE201D
:1008A000C1F8200303217F20FFF7CEFDFF210020A8
:1008B000FFF7CAFD03210120FFF7C6FD2121052016
:1008C000FFF7C2FD01217F20FFF7BEFD002175204B
:1008D000FFF7BAFD012176205DF804EBB4E59B4BF0
:1008E00000B519680320C86100217F20FFF7ACFD27
:1008F00040210120FFF7A8FD00210320FFF7A4FD00
:1009000002217F20FFF7A0FD15210220FFF79CFDAB
:1009100089210420FFF798FD0F217F20FFF794FD28
:1009200001210320FFF790FD19680120C1F814038D
:1009300019681120C1F8300319684FF00110C1F88F
:10094000200303217F20FFF77FFD01210020FFF717
:100950007BFD00210120FFF777FD21210520FFF716
:1009600073FD04216D20FFF76FFD08216E20FFF756
:100970006BFD10216F20FFF767FD01217F20FFF73E
:1009800063FD08210020FFF75FFD04210120FFF730
:100990005BFD1868406C196840F400604864186892
:1009A000406C196820F40060486400BD2DE9F047F0
:1009B000664E0546012730680024C0F8147303F022
:1009C0006BFF6FF0FE294FF0990A4FF003080228E1
:1009D00004D003F061FF05281DD028E00CF016F8C4
:1009E00038B130685A4CC0F820933068C0F830A352
:1009F0001DE03068574CC0F81C8031681120C1F8E8
:100A0000300331684FF00110C1F8200300217F202E
:100A1000FFF71AFD0BE009F086F978B330684C4C0B
:100A2000C0F820933068C0F830A3FFF71DFF30688E
:100A3000406C316840F4006048643068406C316854
:100A400020F40060486403F027FF034630684FF04D
:100A50000431016208143168486230680761306807
:100A600087603068476000217F20FFF7EDFC402160
:100A70000120FFF7E9FC052B09D104E0FFE7354C25
:100A8000FFF72DFFD3E731680020C1F8100330686D
:100A9000C0F81C80DFF8C0C001233CF82300C0F37D
:100AA00007217F20FFF7D0FCE95C1CF82300FFF74B
:100AB000CBFC1CB1E118E85C81F8C0065B1CB3F507
:100AC000A67FEADBBDE8F0877047244B00211A4679
:100AD000E0FB03214809C0EB0010800070470020B4
:100AE000704700207047002070470020704708467C
:100AF000704700207047704700207047704770476C
:100B000000207047704770470020704700207047F2
:100B100000207047002070477047704700207047E2
:100B2000704770477047002070470020704770473B
:100B300070477047002070470020704770470020C2
:100B40007047704770477047704700001CA5110040
:100B5000785900203E080020000000205BB0055BB3
:100B6000FF4910B509680320C86100217F20FFF705
:100B70006BFC02210020FFF767FC01210220FFF738
:100B800063FC0121BDE810400020FFF75DBCF44983
:100B900010B509680320C86100217F20FFF754FCCD
:100BA00002210020FFF750FC01210220FFF74CFC3E
:100BB0000121BDE810400020FFF746BCE94808B518
:100BC00001684969C1F30721009101684969009AE8
:100BD000C1F307219142F8D0E1480168D1F82C1304
:100BE000006841F00401C0F82C13FFF724FD002831
:100BF00008BF08BD0020BDE80840FFF7FFBCD9488A
:100C000008B501684969C1F3072100910168496984
:100C1000009AC1F307219142F8D0D1480168D1F878
:100C20002C13006841F00401C0F82C13FFF703FDFA
:100C3000002808BF08BD0020BDE80840FFF7DEBC63
:100C400010B503F029FE052809D0C5480068D0F882
:100C50002C0310F0040F0CBF0120002010BDC2486F
:100C60000068006810BD70B50546FFF7E9FF012870
:100C700018BF70BD03F010FEB94C0326052827D01D
:100C8000FFF7BDFF012D18BF70BD2068406C2168C3
:100C900040F40060486400BF00BF00BF2068406CA3
:100CA000216820F4006048642068C66100217F202C
:100CB000FFF7CAFB02210020FFF7C6FB012102203B
:100CC000FFF7C2FBBDE8704001210020FFF7BCBB6D
:100CD0000020FFF793FCD8E710B5FFF752FC012086
:100CE000FFF7C1FF102004F03CF90121052002F0BC
:100CF00038FA0121062002F034FA9C49012088705C
:100D000010BD10B5602002F082FA602002F072FA85
:100D1000934903200968C86410BD944A014650797C
:100D2000002818BF0120002918BF01215171704708
:100D30008E4A11691061084670478C480021017184
:100D4000C17001898A4818F052B9884800210171A0
:100D5000C1700189864818F04AB900B583B00020F7
:100D60008DF80000ADF8040003F096FD02281CBFCA
:100D700003B000BD0BF04AFE02281CBF03B000BD4B
:100D8000012077490968C86103217F20FFF75CFBD8
:100D900089210520FFF758FB67210620FFF754FB48
:100DA00045210720FFF750FB23210820FFF74CFBCC
:100DB00003B0F12109205DF804EBFFF745BB2DE9F5
:100DC000F14F88B0002004464FF0100B02900090C5
:100DD00003F062FD022806D003F05EFD052808BF7F
:100DE00008F0A1FF01E00BF011FE03F055FD614991
:100DF00005280BD0086890B1012808BF01240ED047
:100E000002280BD0032808BF032408E00868022842
:100E100014BF4FF0360B4FF0000BEBD102245648B5
:100E200056494FF0200900680969406BFF3100F511
:100E3000E03021F0FF01503004FB010512200026B4
:100E4000069001E0032E01D214271AE0F01E0328B9
:100E500038BF152715D3B01F032838BF162710D366
:100E6000A6F10900032838BF24270AD3A6F10C00F5
:100E7000032838BF252704D3A6F10F00032838BF65
:100E800026270298B84209D03548029739090068E8
:100E9000C16107F00F017F20FFF7D6FA0BF0B6FD16
:100EA00000280CBF4FF07F084FF048080024B9F12C
:100EB000000F35D9380905903148A0FB06104008CD
:100EC000A0EB800000EB060A2E48A0FB06104008AD
:100ED000404200EBC0008119089800EB41100490DB
:100EE000089800EB461003900598012820D0C4F123
:100EF0001F0000EB4A1080B201900122694628468B
:100F000001F0CCF86D1C03F0C7FC02284BD050E078
:100F1000202C45F10005E7D3601CC4B24C45F7D343
:100F2000701CC6B2069886428CD309B0BDE8F08F1B
:100F300004EB4A1080B2019001226946284601F074
:100F4000ADF86D1C03F0A8FC022805D1009880457F
:100F500002D880384F281BD203F09EFC052813E0EE
:100F60001CA5110038A5110020A511003005002096
:100F70002C110020C8050020A4060020A80600208F
:100F8000ABAAAAAA398EE33804BF0098FF2801D182
:100F9000CDF800B00098C1B2039801550198C0B2D5
:100FA000FFF752FAB8E70098804502D880384F28FA
:100FB00006D203F071FC052804BF0098FF2801D178
:100FC000CDF800B0049800992044C9B280F82011EF
:100FD0000198C0B2FFF738FA9EE7F749C86070473A
:100FE00010B503F059FC052802D0BDE8104006E614
:100FF000FFF726FE012818BF10BD0020BDE81040F5
:10100000FFF7FCBA70472DE9F041064682B00C4666
:101010000120FFF728FE03F03FFCE84FE64D4FF0BC
:10102000000824B303F038FC052815D0FFF7E7FDCE
:10103000606800281CBF2168002918D0FFF7B6FCA3
:101040003868C0F82883EE600BF0E0FC02280BD073
:101050000BF08CFB40B10AE0FFF7F2FD012804BF62
:101060000020FFF7CBFAE3E7A068FFF7A8FE8DF8B2
:101070000080ADF8048003F00FFC02281ED10BF0B5
:10108000C5FC02281AD139680120C86103217F20DC
:10109000FFF7DAF989210520FFF7D6F96721062045
:1010A000FFF7D2F945210720FFF7CEF923210820C9
:1010B000FFF7CAF9F1210920FFF7C6F985F8048086
:1010C00085F803802989BE4817F091FFC5F8108084
:1010D000687900206871602002F099F8602002F0C1
:1010E00089F839680320C86402B0BDE8F081602047
:1010F00002F084B810B5602002F080F8BDE810401E
:101100000120B0E5AC48C0687047AB4800780028C3
:1011100018BF0120704738B500240094FFF790FDF8
:10112000002818BF38BDA4480471C4700189A448C0
:1011300017F05DFFDFF884C2DCF80000406CDCF8DB
:10114000001040F40060486400BFDCF80000406C10
:10115000DCF8001020F4006048649A4D9A48297821
:1011600000290168496914BFC9B2C1F30721009180
:1011700020D001684969009AC9B29142F9D000684B
:101180000221C161DCF80000D0F82C03DCF800106B
:1011900020F00400C1F82C03DCF80000C0F8104374
:1011A000FFF749FA002818BF38BD0120BDE83840D4
:1011B000FFF724BA01684969009AC1F307219142F7
:1011C000F8D0002301684969C9B2009101684969F2
:1011D000009AC9B29142F9D0591CCBB2042BF1D379
:1011E00001212970CBE770B503F056FB0025724C46
:1011F000052803D02570BDE870408CE7FFF720FD7F
:10120000002818BF70BD2571E57021896C4817F062
:10121000EEFE257069480168D1F82C13006821F0B2
:101220000401C0F82C13BDE870400120FFF7E6B9B7
:10123000614901200870704770B503F02DFB5E4CCA
:101240000125052808D0FFF7FBFC002818BF70BD5A
:101250002570BDE870405EE7FFF7F2FC002818BF7C
:1012600070BD00202071E0702189554817F0BFFE45
:101270002570BDE870400120FFF7C0B90120F2E4FD
:1012800070B54D4C0025E57003F006FB052803D032
:101290002570BDE870403EE7FFF7D2FC002818BF7C
:1012A00070BD2571E5702189454817F0A0FE2570B5
:1012B00042480168D1F82C13006821F00401C0F8FD
:1012C0002C13BDE870400120FFF798B93A4A5169E4
:1012D00050610846704738498861704736488069D0
:1012E0007047354840787047334948707047012847
:1012F00088BF7047354900280868406E04D00968E7
:1013000040F0020048667047096840F001004866F6
:101310007047012888BF70472C4900280868406E34
:1013200004D0096820F0020048667047096820F080
:10133000010048667047002000F0E5BB012000F086
:10134000E2BB10B51C4CE069401CE0611B48016821
:10135000096D006841F004010165FFF79DF9FFF791
:1013600077F9207800281CBF0120FFF77CFC60691A
:10137000002818BF80471648016841F400610160E9
:1013800010BD10B50120FFF76EFCBDE8104000F065
:1013900002BC10487047104870470748006A704701
:1013A0000548406A70470448806A70470249002037
:1013B0000862486288627047300500201CA5110051
:1013C0002C110020AA05002038A5110018A5110035
:1013D000640500200011002009110020F94900EBEC
:1013E000C00001EBC010704748434FF6FF7101EA9F
:1013F0004000F54908817047F44A107051707047F9
:10140000F249085C7047F0B50746A1B020240121DD
:101410000220FFF74FF9EE4D00216E46286830F8A4
:10142000110026F81100491CA142F7D30021022027
:10143000FFF740F901210020FFF73CF90021002CC3
:1014400009D9286806EB410230F81100491CA2F8BE
:1014500040008C42F5D800210846FFF72BF9A20086
:101460006946384617F022FD21B0F0BD70B50E4632
:10147000D5490500E0B04FF0800008814FF020040E
:101480004FF001010CBF05200420FFF713F9D049EC
:1014900000206B46096801EB053101EB800202F583
:1014A0008052D2F800C043F820C003EB800CD2F881
:1014B0008020401CCCF88020A042EED3002D4FF0BD
:1014C000000114BF04200520FFF7F4F8E20069468C
:1014D000304617F0EBFC60B070BD70B50400BA4840
:1014E0000E464FF0010105890CBF05200420FFF7CF
:1014F000E1F8B7482A46006800EB043000F5805157
:10150000304617F0D3FC4FF0000124B1BDE8704025
:101510000420FFF7CFB8BDE870400520FFF7CAB838
:1015200010B590B020220021009101910291039109
:101530000491059106910791089109910A910B91E7
:101540000C910D910E91EC460F9100EB410430F897
:101550001130B4F8404223442CF81130491CC9B270
:101560009142F2D35200614617F0A0FC10B010BDBA
:10157000F0B5954F964EADF2844D00243D89002C78
:101580004FF001010CBF05200420FFF793F83068ED
:101590002A4600EB043000F58051684617F0CBFC7A
:1015A000002C4FF000010CBF05200420FFF782F84B
:1015B000641C022CE2DB0020FFF7ABFE0120FFF7EA
:1015C000A8FE0DF2844DF0BD824A834900201368C5
:1015D00003EB8003D3F8C03021F81030401C0728FB
:1015E000F5D31068D0F8E40048827047794A7B4B05
:1015F000002818BF00201DD0116801EB8001D1F830
:1016000080110904090C18BF23F81010401C202871
:10161000F2D30020116801EB8001D1F88012090497
:10162000090C1CBF03EB400CACF84010401C2028F8
:10163000F0D37047116801EB8001D1F80011090463
:10164000090C18BF23F81010401C2028F2D30020EA
:10165000116801EB8001D1F800120904090C1CBFCC
:1016600003EB400CACF84010401C2028F0D370472E
:101670002DE9F84304460020009003F00DF9524E86
:10168000544F554D4FF00108052805D02046FEF770
:10169000F8FF00284CD054E008F045FB0228204613
:1016A00003D0FEF7EEFF60B334E0FEF7EAFF40B987
:1016B00084F001042046FEF7E4FF002808BFBDE8DF
:1016C000F88340492046FFF708FF0021386800EB07
:1016D0008100D0F8C00025F81100491C0729F5D376
:1016E0003868D0F8E40068822046FFF77FFF204684
:1016F000FFF70FFE86F8048084F00100F070BDE86B
:10170000F88384F001042046FEF7BBFF002808BFE1
:10171000BDE8F8832B492046FFF7DFFE2046FFF7A0
:10172000F8FD86F8048084F00100F070BDE8F883CD
:1017300084F001042046FEF7A4FF002808BFBDE89E
:10174000F88320492046FFF7C8FE0021386800EBE7
:101750008100D0F8C00025F81100491C0729F5D3F5
:10176000BEE770B5184D04466879002804BFE878D4
:10177000FFF77EFF2879002808BF70BD114AAB69CA
:1017800002F5A060A0F18001A0610020C4E9021070
:1017900020616061C4E90032012070BD0A49002067
:1017A000087170472DE9F14F82B00020009012209F
:1017B0004FF020080025019001E0032D10D21426DF
:1017C00029E000002C110020300500203605002003
:1017D00040A511001CA511002C160020AC150020FE
:1017E000E81E032838BF152615D3A81F032838BFC5
:1017F000162610D3A5F10900032838BF24260AD3E2
:10180000A5F10C00032838BF252604D3A5F10F004D
:10181000032838BF26260098B04209D0CF4800964A
:1018200031090068C16106F00F017F20FEF70CFE50
:101830000024B8F1000F28D902984FEA161B00EBDC
:10184000451AC748A0FB05104008A0EB80004719C7
:10185000C448A0FB05104008404200EBC0000299BC
:10186000284401EB4019BBF1010F16D0C4F11F0051
:1018700000EB471080B2FEF700FE09EB040181F88F
:101880002001601CC4B24445EDD3681CC5B2019868
:10189000854292D303B0BDE8F08F04EB471080B2CD
:1018A000FEF7EBFD0AF80400EBE7012070477047F4
:1018B000002070472DE970431C4616460D468046B1
:1018C000FFF7BEF95FEA00091CBF0120FFF7CBF963
:1018D0002819A84288BF01210FD900234446B342EA
:1018E00038BF202C06D201FA04F23A4218BF5B1C22
:1018F000641CF4E76D1C8542EFD3B9F1000F08BFFB
:10190000BDE87083BDE87043BAE42DE9F04799461D
:1019100014460E460746089DFFF792F95FEA000855
:101920001CBF0120FFF79FF903F014F9DFF838C25C
:1019300006EB0903B342CCF8000088BF381913D96D
:101940003C460AE0DCF80010097825F8021BDCF8B8
:101950000010491C641CCCF80010844238BF202CB5
:10196000F0D3761C9E42EBD3B8F1000F08BFBDE860
:10197000F087BDE8F04783E4704710B5FFF7BCF887
:101980007A49488110BD794AC1B200F47063528926
:10199000914288BF11464FF0640C01FB0CF1B1FB82
:1019A000F2F11A0A02FB0C1189B210F4805F12BF27
:1019B00008B2484200B270470028B8BF404280B227
:1019C000B4BF00214FF4805100F470621143674AA4
:1019D000C0B25289504341EA1020704708B509212E
:1019E000732000F02FF9BDF8001000F01F0021F067
:1019F000FF010843ADF800000D21732000F022F92B
:101A0000BDF8001000F01F0021F47F4141EA0020E2
:101A1000ADF80000BDF8000008BD7047FFF782B8C0
:101A200053484FF41071006800F5405017F0DFBACA
:101A30002DE9F84F12204FF0200800900AF0E6FF41
:101A4000DFF824B102280CBF4A484B4800F59060EB
:101A50000024CBF8000001E0032C01DA14261AE080
:101A6000E01E032838BF152615D3A01F032838BF52
:101A7000162610D3A4F10900032838BF24260AD360
:101A8000A4F10C00032838BF252604D3A4F10F00CD
:101A9000032838BF2626B24509D030483109B2465E
:101AA0000068C16106F00F017F20FEF7CDFC002524
:101AB000B8F1000F1EDD31484FEA161980FB041003
:101AC000A0EBE070A0EB80000719B9F1010F0EBF89
:101AD00005EB4710C5F11F0000EB4710DBF80020B5
:101AE000C0B212F8011BCBF80020FEF7ADFC6D1C54
:101AF0004545EADB0098641C8442ADDBBDE8F88F05
:101B00000020FEF7EEBF70B5044601280AD81C4835
:101B1000002C0168496E14BF41F0020141F001013F
:101B200000684166114DA869401CA8612969002917
:101B30001CBF20468847287800281CBF0120FFF7DB
:101B400092F80648002C0CBF0221012100680165B3
:101B50000C48016841F02001016070BD1CA5110016
:101B6000ABAAAAAA398EE338DC0500203005002094
:101B700040A51100785900203E08002056555555C3
:101B800018A51100640500200549002814BF002095
:101B90000120087070477047704770477047000019
:101BA0005C050020704710B501F023FE234B24494B
:101BB00000224C6824B14A6001F020FE204610BD8E
:101BC0001878002818BF0A80F3D10888B0F57A7F0A
:101BD00087BF30BF0A80401C0880EAE710B501F0DB
:101BE00008FE17484468002C08BF30BFFAD0002117
:101BF000416001F003FE204610BD70B501F0F9FD13
:101C00000F4D6C682CB10020686001F0F7FD204694
:101C100070BD30BF01F020FB0028F2D001F020FBA6
:101C2000A860EEE70020704730BF704772B662B61A
:101C300070477047704772B662B670473006002032
:101C400060050020EE4BC2081B681A6401F0FC011D
:101C500041EA002040F4704040F080400068704746
:101C6000E74BC2081B681A6401F0FC0242EA00203C
:101C700040F4704040F0804089070068C90EC840B9
:101C8000C0B27047DF4900200870DD490E200968A6
:101C90000864DD48007810F0800018BF012070470C
:101CA00010B44FEAD00CD64B1C68C4F840C001F009
:101CB000FC0141EA002040F4704040F080400260A6
:101CC0001868006C10F4007F04BF10BC704700BFA0
:101CD0001868006C10F4007FF9D110BC7047DFF871
:101CE00020C310B4DCF800C0C308CCF8403001F0C9
:101CF000FC0343EA002343F4704343F08043FF2492
:101D0000D3F800C08B07DB0E9C402CEA040C9A40F1
:101D100010BC42EA0C02C3E7BC484FF4F46102680D
:101D2000116101684968026841F002015160006870
:101D3000032181617047B54810B502681021116018
:101D400002684FF4F461116101684968026841F06A
:101D5000020151600068032181610722082171207E
:101D6000FFF7BDFF0E2001F02BFABDE810400E205A
:101D700001F033BAA24910B50968A54808620722E4
:101D800001217020FFF7ABFFA0481021026811600D
:101D900002684FF4F461116101684968026841F01A
:101DA000020151600068032181610722082171202E
:101DB000FFF795FF0E2001F003FABDE810400E205A
:101DC00001F00BBA914800210268116002684FF4DB
:101DD000E061116100680121816170478B49002039
:101DE0000A6810600A68106109688861704787484E
:101DF0000621026811600268022151600068816159
:101E00007047824800210268116000688161704754
:101E10007E49002009680860704710B57B4C082097
:101E2000216808602168022088610722082171204A
:101E3000FFF755FF2068C06810F0080FFAD021683E
:101E40000F20886010BD10B5044602460021F02026
:101E5000FFF726FF22460121F020FFF721FF22464F
:101E60000021F120FFF71CFF22460121F120FFF79E
:101E700017FF22460021FC20FFF712FF2246012116
:101E8000BDE81040FC200BE74FF4807141EAD0021E
:101E90005B490B681A645F4A42EA002210600868D6
:101EA000006C10F4007F08BF704700BF0868006C2A
:101EB00010F4007FF9D17047514A4FF4807141EA24
:101EC000D00112681164534941EA0020006870474C
:101ED00008227020002102E7002270201146FEE651
:101EE00047480168496E026821F400715166016833
:101EF000496E026841F4807151660168496E02685A
:101F000041F4806151660168496E006821F4806186
:101F10004166002270201146E1E639480168496EA9
:101F2000026841F4806151660168496E026821F4DB
:101F3000806151660168496E026821F480715166C2
:101F40000168496E006841F40071416670472C4891
:101F50000168496E026841F4806151660168496E0A
:101F6000006821F480614166704725481B210268A2
:101F7000116400680164704710B5244C2068C06883
:101F80002549086025484FF6FF7100680160206808
:101F9000C06810F0100F0BD019491B200A6810649C
:101FA0000968086420688068216840F01000886033
:101FB0002068C06810F0080F05D02068806821688C
:101FC00040F0080088602068C06810F0040F0AD054
:101FD00020688068216840F004008860FF220021AA
:101FE0007020FFF77CFE2068C06810F0010F08BF6A
:101FF00010BD20688068216840F00100886010BD35
:1020000018A511006C05002000F2004038A5110051
:102010002222A26000F00040EC06002000A5110082
:10202000704770B5FF4D0446C0F30741286801F0C2
:10203000CEFAC4F30721286801F0C9FAE1B2286892
:10204000BDE8704001F0C3BA2DE9F041F64F0446F7
:10205000164638680D46806A396840F00300886289
:10206000DFF8C0830321D8F8000001F0B0FA204661
:10207000FFF7D7FF0024002E07D9D8F8000001F0A1
:10208000D4FA2855641CA642F7D83868806A3968A3
:1020900020F0030088620120BDE8F08170B514468D
:1020A0000D46064601F0AFFB224629463046BDE804
:1020B0007040C9E72DE9F0410024DC4D042601F011
:1020C000A2FB324629462046FFF7BEFF04242F46D6
:1020D0003D1D264601F097FB324629462046FFF774
:1020E000B3FF08242D1D042601F08DFB324629463E
:1020F0002046FFF7A9FF202507F10C0401F083FB20
:10210000324621462846FFF79FFF0C3724243E1D08
:10211000042501F078FB2A4631462046FFF794FF5C
:102120002824361D01F06FFB2A4631462046FFF772
:102130008BFFBF4E07F10C0401F065FB2A462146D8
:102140003046FFF781FF371D25462C1D042601F080
:102150005AFB324621463846FFF776FF3E1D0424DF
:10216000083501F050FB224629463046FFF76CFF48
:102170004FF4FC342D1D042601F045FB3246294660
:102180002046FFF761FF271D2C46251D01F03BFB74
:10219000324629463846FFF757FFA64F2D1D01F05E
:1021A00032FB324629463846FFF74EFF3F1D2D1DB4
:1021B00001F029FB324629463846FFF745FF2E1D20
:1021C0003F1D042501F01FFB2A4631463846FFF724
:1021D0003BFF351D3F1D042601F015FB3246294605
:1021E0003846FFF731FF3E1D0425183401F00BFB84
:1021F0002A4621463046FFF727FF8F4E8F4C012598
:1022000001F001FB2A4621463046BDE8F0411BE7BC
:102210007047F8B50E0005464FF0000417D00422B1
:1022200069462846FFF710FF9DF800009DF8011051
:102230009DF8032008409DF8021011400840FF2837
:1022400001D00020F8BD641C2D1DB442E7D301204D
:10225000F8BD2DE9F84391460D468046002401F073
:10226000D2FA0027B9F1000F88BF6E4619D90422AF
:1022700069464046FFF7E8FE0023F05CE95C8842CF
:102280001CBF601C84B25B1C042BF6D32D1D7F1C6D
:1022900008F104084F45EAD3002C1CBF0020BDE81C
:1022A000F8830120BDE8F8830120704770B55E4CCB
:1022B00006462068806A216840F003008862594D14
:1022C0000521286801F083F9286801F0AEF921683A
:1022D000896A226821F0030191623070012070BD8B
:1022E00038B5514C2068806A40F003012068816253
:1022F0004C4D0521286801F06AF9286801F095F92C
:102300002168896A226821F0030191628DF800003A
:1023100010F0010018BF012038BD10B5424C2068F4
:10232000806A216840F0030088623E480621006808
:1023300001F04DF92068806A216820F0030088626E
:10234000012010BD70B50546FFF7CAFF00281CBF6D
:10235000022070BDFFF7E1FF334C2068806A2168DE
:1023600040F0030088622F482021006801F02FF917
:102370002846FFF756FE2068806A216820F0030097
:102380008862FFF7ADFF28B100BF00BFFFF7A8FFCD
:102390000028F9D1012070BD2DE9F84F80460327B0
:1023A00001F031FADFF88090DFF878A0FFF798FFAE
:1023B00010BBFFF7B2FFD9F80000806AD9F800100F
:1023C00040F0030088622021DAF8000001F0FFF8F5
:1023D0004046FFF726FED9F80000806AD9F80010C1
:1023E00020F003008862FFF77BFF28B100BF00BF29
:1023F000FFF776FF0028F9D145464FF480660024A8
:10240000042269462846FFF71FFE9DF800009DF84C
:1024100001109DF8032008409DF80210114008406B
:10242000FF280DE034A5110018A511004C1600205E
:1024300068C0010010F8010004300300700500209E
:1024400006D0381EA7F10107B0DC0220BDE8F88FE6
:10245000641C2D1DB442D3D30120BDE8F88F2DE9B3
:10246000F04117460E460446FFF73AFF00281CBF0E
:102470000220BDE8F081FFF750FFDFF80C84D8F8A8
:102480000000806AD8F8001040F003008862FF4D19
:102490000221286801F09BF82046FFF7C2FD0024C6
:1024A000002F06D9315D286801F091F8641CA7421D
:1024B000F8D8D8F80000806AD8F8001020F003009F
:1024C0008862FFF70DFF28B100BF00BFFFF708FFCC
:1024D0000028F9D10120BDE8F0812DE9F043C1B019
:1024E0008846814603276E4601F08DF94FF48072CD
:1024F00041464846FFF7B3FF002445464FF480723B
:1025000069464846FFF7A0FD305D295D884205D049
:102510007F1EE9D241B00220BDE8F083641CB4F50F
:10252000807FF1D341B00120BDE8F0832DE9F04177
:10253000D74C0646D44FDFF854836068C0B00D46D0
:1025400050B1D8F8000001F042F86268FF2AB8BF25
:10255000501C1BDA606035E001F055F9FFF7DDFE35
:102560003868806A396840F0030088620221D8F830
:10257000000001F02CF83046FFF753FD2946D8F84B
:10258000000001F024F86068401CE3E70020606070
:102590003868806A396820F00300886200244FF4AC
:1025A000807269463046FFF74FFD68462A5D015D3F
:1025B000914203D040B00220BDE8F081641CB4F524
:1025C000807FF3D340B00120BDE8F08170B50C46A8
:1025D000054601F018F9B4F5807F88BF70BDAA499F
:1025E0000A68926A096842F003028A62A7480321D6
:1025F000006800F0ECFF2846BDE8704011E5A348F4
:10260000006801F012B8A0480168896A006821F0EA
:1026100003018162704770B50C46054601F0F3F87E
:1026200021462846BDE870404FF480720CE570B535
:10263000954D04462868806A296840F00300886246
:10264000924E9F21306800F0C2FF306800F0EDFF2D
:102650002070306800F0E9FF6070306800F0E5FF3E
:10266000A0702868806A296820F003008862012031
:1026700070BD70B5044601F0C6F8834D2868806AC5
:10268000296840F003008862804E9F21306800F086
:102690009EFF306800F0C9FF2070306800F0C5FF71
:1026A0006070306800F0C1FFA0702868806A2968F7
:1026B00020F003008862012070BD2DE9F047DFF8AB
:1026C000C89104461746D9F800008846806AD9F8B0
:1026D000001040F0030088626C4D0321286800F070
:1026E00076FF2046FFF79DFC0024B4EB970F18D22D
:1026F000286800F09AFF0646286800F096FF46EA30
:102700000026286800F091FF46EA0046286800F09D
:102710008CFF46EA006048F82400641CB4EB970F75
:10272000E6D3D9F80000806AD9F8001020F0030041
:1027300088620120BDE8F08770B514460D46064654
:1027400001F061F8224629463046BDE87040B4E702
:1027500010B5FFF7C5FD00281CBF022010BDFFF714
:10276000DCFD494C2068806A216840F003008862E3
:1027700046486021006800F02AFF2068806A2168CE
:1027800020F003008862FFF7ABFD28B100BF00BF57
:10279000FFF7A6FD0028F9D1012010BD10B501F00A
:1027A00032F8FFF79DFD00281CBF022010BDFFF787
:1027B000B4FD354C2068806A216840F003008862CF
:1027C00032486021006800F002FF2068806A2168BA
:1027D00020F003008862FFF783FD28B100BF00BF2F
:1027E000FFF77EFD0028F9D1012010BD70B50C4621
:1027F000054601F008F8002601F005F84FF4807254
:1028000021462846FFF720FC761C04F5807405F568
:102810008075102EF0D3012070BD2DE9F047C0B0B7
:102820008846814600F0EFFF4FF0000A4646032736
:102830006D4600F0E8FF4FF4807231464846FFF7DE
:102840000EFE00244FF4807269464846FFF7FCFBF9
:10285000295D305D814205D07F1EEAD240B0022062
:10286000BDE8F087641CB4F5807FF1D30AF1010A5A
:1028700008F5807809F58079BAF1100FD6D340B009
:102880000120BDE8F087000018A5110034A5110053
:10289000700500202DE9F04F81B00546ADF5804D63
:1028A000000514468846000DEB4633D02F466FF3E3
:1028B0000B07BA465E4600F0A6FF4FF0000900F095
:1028C000A2FF4FF4807231463846FFF7BDFB09F195
:1028D000010906F5807607F58077B9F1100FEED380
:1028E000C5F30B00C0F58056A64288BF2646584463
:1028F0003246414616F0DAFA5046FFF74DFD0228FF
:1029000050D059465046FFF788FF02284CD0354436
:10291000B044A41BB4F5805F19D34FF480524146F4
:10292000584616F0C3FA2846FFF736FD022839D07C
:1029300059462846FFF771FF022835D0A4F5805488
:1029400005F5805508F58058B4F5805FE5D21CB3D5
:10295000D9462E4600F057FF002700F054FF4FF4F1
:10296000807259463046FFF76FFB7F1C06F5807674
:102970000BF5807B102FF0D322464146484616F0D7
:1029800095FA2846FFF708FD02280BD0494628464D
:10299000FFF743FF022807D0012001B00DF5804D5D
:1029A000BDE8F08F0A20F8E70B20F6E710B5ADF58B
:1029B000806D0446AAB1684616F078FA2046FFF703
:1029C000EBFC022802BF0A200DF5806D10BD6946A0
:1029D0002046FFF782FD022802BF0B200DF5806D17
:1029E00010BD01200DF5806D10BD70B50646FFF7D6
:1029F00077FC00281CBF022070BDFFF78EFCB44C92
:102A00002068806A216840F003008862B14D01218E
:102A1000286800F0DCFD3146286800F0D8FD206809
:102A2000806A216820F003008862FFF759FC28B112
:102A300000BF00BFFFF754FC0028F9D1012070BD92
:102A4000F8B500F0E0FEA24D2868806A296840F0E1
:102A5000030088629F4E0521306800F0B8FD3068A1
:102A600000F0E3FD2968896A2A6821F00301916278
:102A700040F040048DF80040FFF732FC002818BFFA
:102A8000F8BDFFF74AFC2868806A296840F0030017
:102A900088620121306800F09AFD2146306800F01C
:102AA00096FD2868806A296820F003008862FFF795
:102AB00017FC002808BFF8BD00BF00BFFFF710FCDF
:102AC0000028F9D1F8BD70B505460024FFF708FCD1
:102AD00040B1AC4201D9002070BD641CFFF700FC7E
:102AE0000028F6D1012070BD70B5794C06462068EB
:102AF000806A216840F003008862764D09212868C9
:102B000000F065FD286800F090FD2168896A226860
:102B100021F0030191623070012070BD38B5FFF7DC
:102B2000DFFB002836D1FFF7F8FB694C2068806A8C
:102B300040F0030120688162664D2F21286800F073
:102B400046FD2068806A216820F003008862FFF754
:102B5000C7FB28B100BF00BFFFF7C2FB0028F9D1B7
:102B60002068806A216840F0030088620921286893
:102B700000F02DFD286800F058FD2168896A226860
:102B800021F0030191628DF8000010F0020F1CBFCC
:102B9000012038BD022038BD4E4810B50421006820
:102BA00000F015FD012010BD70B5FFF799FB00285E
:102BB0001CBF022070BD464C2068806A216840F02E
:102BC00003008862434D0521286800F000FD286855
:102BD00000F02BFD06462068806A216820F0030083
:102BE00088622068806A216840F003008862FFF7ED
:102BF00094FB0121286800F0EAFC26F040012868D7
:102C000000F0E5FC2068806A216820F003008862FB
:102C1000012070BD70B50546FFF762FB00281CBFA0
:102C2000022070BDFFF779FB294C2068806A21687B
:102C300040F00300886227485221006800F0C7FC7A
:102C40002846FFF7EEF92068806A216820F003002B
:102C50008862FFF745FB28B100BF00BFFFF740FBCC
:102C60000028F9D1012070BD10B50446FFF738FBEC
:102C700000281CBF022010BDFFF74FFB1548D821CC
:102C8000006800F0A4FC2046FFF7CBF9104801686B
:102C9000896A006821F003018162FFF721FB28B1F6
:102CA00000BF00BFFFF71CFB0028F9D1012010BDB9
:102CB000084810B5B921006800F089FC012010BD5A
:102CC000044810B5AB21006800F081FC012010BD64
:102CD00018A5110034A51100012101FA00F04149A5
:102CE0000A6810430860404909680860704701217C
:102CF00001FA00F03B490A6822EA000008603A49FC
:102D00000968086070473749096821FA00F000F047
:102D100001007047334A116821FA00F313F0010FE4
:102D20004FF0010303FA00F02F4B05D021EA000019
:102D300010601968086070470843106019680860DF
:102D4000704729490968096821FA00F000F001007C
:102D5000704725490A6852680123096803FA00F0A0
:102D600010434860704720490A6852680123096887
:102D700003FA00F022EA0000486070471A490A6826
:102D8000126A0123096803FA00F0104308627047D1
:102D900015490A68126A0123096803FA00F022EA59
:102DA0000000086270471049086840680A6840F0EF
:102DB00001005060086840680A6840F002005060F6
:102DC000084A106840F0010010600B681860106835
:102DD00040F002001060096808600449002009689A
:102DE000C86070477805002010A5110018A51100D3
:102DF00070477047B24810B502683F21D160026841
:102E0000002191640068C0F8B41003210A2000F08A
:102E1000A8F9BDE810400A2000F0C7B9A84A136815
:102E20001860136859604843116888607047A44A65
:102E30001368186013685960484310F0010F18BFF9
:102E4000401C1168886070479D490968C1F8B4004A
:102E500070479B4918B10968012088647047096868
:102E600000208864704796480168C968006841F08E
:102E70000201C1607047DFF848C210B4DCF80040BE
:102E80002062DCF800004162DCF800008262DCF8BD
:102E90000000C362DCF8001001200863DCF80000C9
:102EA000406B10F0010F09D000BF00BF00BF00BF92
:102EB000DCF80000406B10F0010FF5D110F00200BB
:102EC00018BF4FF0FF3010BC70477D480168C968DB
:102ED000006821F00201C160704779480168C96843
:102EE000006841F00101C1607047754BD3F800C024
:102EF000CCF82000186841621868826219680120C5
:102F000008641868406C10F0010F08D000BF00BFC3
:102F100000BF00BF1868406C10F0010FF6D110F030
:102F2000060018BF4FF0FF30704765480168C96858
:102F3000006821F00101C160704761480168C968FB
:102F4000006841F00401C1607047027C017B02F01F
:102F50003F0241EA02415A4A1368996513680168C1
:102F6000596213684168996213688168D96213686D
:102F7000012119651168496D11F0010F08D000BFDA
:102F800000BF00BF00BF1168496D11F0010FF6D1FD
:102F90001368DB6D83821368DB6D1B0CC3821368BF
:102FA0001B6E038313681B6E1B0C438313685B6EDD
:102FB00083831268526EC2F30E42C28311F0020084
:102FC00018BF4FF0FF3070473D480168C96800687E
:102FD00021F00401C160704701684FEA314238496D
:102FE0000B68C3F89C200A684068C2F8A000086813
:102FF000C068096840F02000C8607047304A136814
:1030000018621068416211680120C1F890001068D0
:10301000D0F8980010F0010F09D000BF00BF00BF2A
:1030200000BF1068D0F8980010F0010FF5D110F033
:10303000060018BF4FF0FF30704721480168C9688B
:10304000006821F02001C16070471D480168C9680F
:10305000006841F01001C1607047A3F1050C184BE6
:1030600010B41C68C4F888C0D3F800C0CCF82000A5
:10307000186842621868816219680120C1F88000EE
:103080001868D0F8840010F0010F09D000BF00BF0D
:1030900000BF00BF1868D0F8840010F0010FF5D110
:1030A00010F0060018BF4FF0FF3010BC7047044806
:1030B0000168C968006821F01001C1607047000014
:1030C00024A51100234810B5026801211166026889
:1030D00010215167026841F2060151660268002121
:1030E000916602680A21C2F8881002689021C2F82D
:1030F00084100168D1F88410026841F00101C2F81F
:10310000841002684FF48171116600680166032023
:1031100000F04BF80021032000F023F80E490220B4
:1031200009688862002010BD10B5032000F048F83F
:1031300008484FF480710268116602680021116628
:10314000006810218167002010BD0449002008702C
:103150007047000014A5110020A511007C05002077
:10316000704700F00303DA004FF0FF0C0CFA02F294
:103170004FF0050C0CEBC303994000F00C03002842
:1031800008DA3048006818444369114093431943F2
:10319000416170472C4800681844D0F80033114052
:1031A00093431943C0F80013704700F01F01012238
:1031B00002FA01F1244A4009126842F820107047CF
:1031C00000F01F01012202FA01F11F4A40091268B2
:1031D00002EB8000C0F88010704700F01F01012250
:1031E00002FA01F1184A4009126802EB8000C0F8A7
:1031F00080117047144909680860704712490968CE
:10320000C1F88000704710480068006870470E4998
:103210000968C1F8800170470A48006880687047F3
:1032200008490A6892680968886010467047054A2C
:103230001268926800F1100352F8230042F823103C
:103240007047000004A5110000A5110070477047E9
:1032500070477047704770470020704700207047E4
:1032600000207047704770471B4A1168106008467D
:103270007047704718484068704710B500F0ACF8C8
:10328000164804210268C2F8881002684FF6FF71E0
:10329000C2F88C1072B600684FF40071016662B615
:1032A00010BD72B60D484FF400310268116662B667
:1032B0000068D0F8040268B14FF6FF71081A064999
:1032C000074A8860A0F50840B93890423CBF4FF0EB
:1032D0000110C86000F085B88005002028A5110005
:1032E000372B1A001A4801684969026841F40071D5
:1032F000516101680969026821F0060111610168E4
:103300000969006841F010010161704710480168C7
:103310000969026821F00601116101680969026802
:1033200041F00401116101680969006841F0100170
:10333000016170470649096888607047BFF34F8F85
:10334000034904480968C860BFF34F8FFEE70000D7
:1033500004A511000400FA05022824BF00207047CC
:10336000874B53F8202043F820101046704770B563
:10337000844C2068006F824D10F0010F06D0216848
:103380000120C8662868002818BF80472068006FA1
:1033900010F0020F08BF70BD02202168C86668687F
:1033A000002808BF70BDBDE870400047754810B5E3
:1033B000026802211165036801221A66036803226C
:1033C000DA66006841650920FFF7EFFE0221BDE8DB
:1033D00010400920FFF7C5BE6A4902200968086548
:1033E00070476849022009684865704700207047A7
:1033F00064480168096F11F4007F04D000684FF43D
:1034000040710166704700684FF480710166704733
:1034100010B55C4C2068C06F10F0020F4FF0010037
:1034200018BF0320226850670520B1FBF0F0226826
:103430004FF405710009C2F8801016F0A5FA524A3F
:10344000524B16F0F1FA16F05BFA2168C1F88400CD
:103450002068006F10F4007F04D021684FF44070A2
:10346000086610BD21684FF48070086610BD45489D
:103470000168096F11F4807F04D000684FF4407137
:103480000166704700684FF40071016670473D4B5C
:1034900030B41A68D26F12F0010F1DBF0322D3F8A7
:1034A00000C0CCF874204FF0020C04BF1A68C2F8B8
:1034B00074C04FF0020C00EB4005C5EBC0104FF498
:1034C0009674C1EBC0004C4300EB8000304904EB24
:1034D0004010A1FB0010C0080521B0FBF1F0002254
:1034E000B0F5803F05D3511C4008CAB2B0F5803F0B
:1034F000F9D242EA0C211A6841F01001C2F8881092
:103500001968C1F88C001868006F10F4807F05D02E
:1035100019684FF44070086630BC704719684FF462
:103520000070086630BC704716480168096F11F4D6
:10353000003F04D000684FF44031016670470068D6
:103540004FF48031016670470E480168096F11F42D
:10355000803F04D000684FF4403101667047006836
:103560004FF400310166704706480068006FC0F3F1
:103570000020704703480068006FC0F34020704788
:103580009405002028A511007B14AE47E17A843F02
:10359000CDCCCCCC30B40025DDE9024C056001F087
:1035A0000F0141EA8C1101600168D2B241EA0221A7
:1035B000016023F47F41016110214160416804F002
:1035C000040211436FF3CF11416030BC7047C268F1
:1035D00012F0010F18BF8160C16811F0100FFBD10C
:1035E000C16811F0040F08BF70478168C16811F00D
:1035F000040FFAD170470023002A0BDD11F803C035
:10360000C0F808C0D0F80CC01CF0100FFAD15B1C39
:103610009342F3DBC16811F0040F08BF7047816863
:10362000C16811F0040FFAD17047FF22C16811F090
:10363000100FFBD18260C16811F0100FFBD1C1687F
:1036400011F0040FFBD08068C0B270470023002A3D
:10365000D8BF704710B4FF24D0F80CC01CF0100F76
:10366000FAD18460D0F80CC01CF0100FFAD1D0F859
:103670000CC01CF0040FFAD0D0F808C001F803C049
:103680005B1C9A42E7DC10BC7047416841F00201C4
:103690006FF3CF1141607047416821F4C17121F48B
:1036A0007E414160704700007047024800684068F2
:1036B0007047704718A511002C4900200A689060D7
:1036C000096808602A494860704710B5274C21688E
:1036D00048602168002088600221401EFFF741FDFC
:1036E000216807200860BDE8104006F07DB91F4939
:1036F00000200968086006F07BB91D490870704712
:103700001B480078704710B506F072F91749002081
:103710000968086010BD1648806870472DE9F041BF
:10372000134C002705466780A0684FF47A71B0FB00
:10373000F1F00E4E401E316848603068876002210B
:10374000C81EFFF70EFD31680720086006F04CF92F
:103750006188A942FCD330680760BDE8F04106F0FB
:1037600047B904494843024988607047FCA41100E6
:103770009C05002040420F00704770B52C4C054658
:103780004FF40D502168886621680320C8662168BF
:103790002848486621684CF271000866216826486E
:1037A000C1F88000216842F246308866022100207C
:1037B000FFF7D7FC0020FFF7F8FC002D08BF70BD15
:1037C0002068806E42F2413108432168886670BDEE
:1037D000174810B502680121916700684FF40D5138
:1037E00081660020FFF7ECFCBDE810400020FFF7E9
:1037F000F4BC0F4901200968486770470C49012053
:103800000968886770470A494CF2710009680866C0
:103810007047074881B04CF2710102681166016877
:10382000096F0268D1660068006F009001B07047B0
:103830000CA5110007383937009C1C9110B50021E8
:103840000A20FEF739FB8B49887110BD02467020B3
:103850000121FEF744BA024670200021FEF73FBA6C
:103860002DE9F0410024254672201421FEF7EAF9E3
:10387000064610F0010F18BF012416F0020F18BF02
:1038800044F0020416F0040F18BF44F0040416F0CC
:10389000080F0DD0784844F008040168D1F82C13C3
:1038A000006841F00401C0F82C130020FCF7A6FECC
:1038B00016F0100F18BF44F0100416F0200F6D4FD3
:1038C00006D044F0200400210A20FEF7F5FAB87172
:1038D00024B1702001212246FEF701FA300A10F0CF
:1038E000010F18BF1025040A14F0010F4FF0010654
:1038F00007D045F020053E7000210A20FEF7DCFAD3
:10390000B871200A10F0010F1CBF45F040057E7011
:1039100025B1702000212A46FEF7E1F9B8799C28EC
:103920001CBF0020B870BDE8F08199E710B50021F8
:103930000A20FEF7C1FAC0B200224E499C2804BFFB
:10394000CA700A7008D0C878401CC0B2C87003287A
:1039500082BFCA70012010BD002010BD10B5454CBB
:103960006079401CC0B26071142818D900210A2067
:10397000FEF7A2FAA279C0B20021824204BF2171EF
:1039800061710CD06079401E60712079401CC0B21A
:103990002071032803D921716171012010BD00201D
:1039A00010BD10B5C9200021FEF74CF9002010BD54
:1039B00070B57424002133222046FEF790F90121CE
:1039C0000D462A462046FEF78AF902212A4620465D
:1039D000FEF785F903212A462046FEF780F970207C
:1039E00001217722FEF77BF90C20FFF7DEFB002197
:1039F0000C20FFF7B6FBC82000211422FEF76FF958
:103A00001C4C00200146A0700A20FEF755FAA07158
:103A100070BD70B5FFF7A2FF20B10020FFF767F976
:103A2000FEF77BFA134C00252078B0B100210A2064
:103A3000FEF742FAC0B29C2804BFE57025700CD096
:103A4000E078401CC0B2E070032806D9E57025700C
:103A50000020FFF74CF9FEF760FA6078002808BFF5
:103A600070BD65700020FFF742F9BDE87040FEF7B9
:103A700054BA0000A80500201CA5110070B5FE4C2A
:103A800000254FF4906125706570FC4815F0AFFA81
:103A90004FF49061FA4815F0AAFA4FF49061F94892
:103AA00015F0A5FA6560A5708021F74815F09FFA1A
:103AB000BDE870408021F54815F099BAEE4880784D
:103AC000002818BF01207047EB484078002818BF35
:103AD0000120704770B50546ED48EE490078097839
:103AE00000FB01F4FFF79AF9E64A2B46A2F51061B4
:103AF0000846FFF7C0F962002946E24815F0D6F9FA
:103B0000DD490120487070BD2DE9F0411D46164683
:103B10000F468046069C00F0BFFE022802D108F046
:103B200075FF28B100F0B8FE052808BF06F0FBF8C5
:103B3000FFF75EF921462846FFF779F93A46314604
:103B40004046FFF7D2F9BDE8F041FFF752B9CA4845
:103B500040687047D04A10B5127801469200CA48B2
:103B600015F0A4F9C4490120887010BD2DE9F04F6B
:103B7000DFF80493002689B099F8018099F8027063
:103B8000B346FDF7F5FCC5480168496C026841F48D
:103B90000061516400BF0168496C006821F4006154
:103BA0004164BF490220096808660020FDF7B5F8A6
:103BB000FDF719FB05F093FA01280BD06846FDF7D5
:103BC000D0FD0028F6D0684605F0B9FE029870B125
:103BD0001FB10CE04FF0010B66E00146AE480078E3
:103BE0008200A94815F062F9012089F802000198C5
:103BF000002851D0B8F1000F4ED1044699F80000CA
:103C000090BBD9F804507DB3A14800780790A14833
:103C100090F800A000F040FE022802D108F0F6FE65
:103C200028B100F039FE052808BF06F07CF8FFF740
:103C3000DFF851460798FFF7FAF821462A4608466A
:103C4000FFF753F9FFF7D5F8DFF858A29AF800000C
:103C5000022804BF284605F009FD9AF8000009284B
:103C600004BF204605F002FD2546894889490078B1
:103C7000097800FB01F4FFF7D1F8824A2B46A2F540
:103C800010610846FFF7F7F8620029467D4815F0F5
:103C90000DF9012089F80100FDF780FD761C042E46
:103CA00088D3BBF1000F03D089F8018089F8027036
:103CB0000120FCF7D8FF7A4802210068016609B0AC
:103CC0005846BDE8F08F6C48002101704EE738B5CA
:103CD0000F2100F0ADFE684C012806D100202070B5
:103CE000FFF744FF009000F026FF607800281BBF1C
:103CF000A07800280020012038BD0F2138B500F041
:103D000097FE5D4C012806D100202070FFF72EFFA2
:103D1000009000F010FF607800281BBFA0780028FA
:103D20000020012038BD0021534841708170704748
:103D3000524870475248704770B505464FF490613D
:103D40004E4815F054F94FF490614E4815F04FF974
:103D5000494C29464948227800F057FB22782946E9
:103D6000BDE87040474800F050BBF0B4484A434BB0
:103D7000002114788C4603F510650022002C13D91D
:103D800033F9116030F91170BE4253F81160B4BFBD
:103D9000B61CB61E43F8116033F9116045F8116086
:103DA000491C521CA242EBD30CF1010CBCF1020FD6
:103DB000E3D3F0BC7047002818BF01202E4948709B
:103DC00070472DE9F04FDFF8B0A083B05FEA00083C
:103DD00072D000254FF410792C4600F05DFD0528C7
:103DE00008BF012505D008F011FE00280CBF2E4C9D
:103DF0002E4C2F482F4F00687969806BFF3100F5FA
:103E0000E03021F0FF01503005FB010600F044FDD9
:103E1000022807D108F0FAFD20B97869FF3020F0B8
:103E2000FF00064400F038FDDFF864B0022803D13B
:103E300008F0ECFD002856D000F02EFD052802D138
:103E400005F071FFB8B10025771C304601226946A4
:103E5000FEF724F97E1C012201A93846FEF71EF95F
:103E60000198002CC1B2009861F31F2000B24146B6
:103E700028F8150021E036E0B0050020901600205B
:103E8000101B0020901F0020102D0020902D0020DE
:103E9000BA050020BB050020C10500201CA51100AB
:103EA00018A511002D0600203E080020785900209A
:103EB000A4060020A806002010E018BF24F8150072
:103EC0006D1C4D45C0D3FF489BF80020FC4B00788B
:103ED00050434200184614F0E9FFF948CAF80400BC
:103EE00003B0BDE8F08F402300208446614642467F
:103EF00028F810C0002C18BF24F81010401C98425D
:103F0000F4D3F04811469BF800200078EE4B504364
:103F10004200184614F0CAFFEB48DFE710B508F07E
:103F200075FD0228E94BE74AE5480AD01B7812786C
:103F3000E7495A43520014F0B9FFE649E0484860A7
:103F400010BD1B781278E4495A43520014F0AEFFBA
:103F5000F3E710B5DF4C002804BF606010BDDFF848
:103F600060C3DA490B78D7490A7801465A435200B0
:103F7000604614F09BFFD248606010BDD748704780
:103F8000002818BF0120D34988707047D14900220A
:103F900000284A708A7018BF01200870E6E510B545
:103FA0004FF44C301422CE49FEF778F8CC4810BDBF
:103FB00010B54FF44C301422C949FEF76FF8C848C9
:103FC000006810BD10B54FF44C301422C449FEF700
:103FD00065F8C34810BD0268B2F1FF3F15D005294E
:103FE00004BFC07A704728DC012904BF00797047FC
:103FF000022904BF007A7047032904BF407A704742
:10400000042904BF807A704727E0052913D007DC14
:10401000012922D002291CBF032904290BD01CE04E
:10402000142912BF15292D207047162904BF2820F6
:104030007047172911D100207047142904BF007B55
:104040007047152904BF407B7047162904BF807B49
:104050007047172904BFC07B7047FF20704770B5B9
:10406000C0B000244FF48071684614F0C0FFFF22F6
:104070004FF44C36511C684614F08FFFFF21254643
:1040800061F307052D22214662F3070162F30F2138
:1040900028224BF6BB3062F3174164F31F61CDE970
:1040A0000005CDE9024104943046FEF7FDF869466B
:1040B0003046FEF712FA40B070BD2DE9F04FC1B0A6
:1040C0000446DDE94A9887489A4693460D460160C2
:1040D0002068B0F1FF3F08BFFFF7C1FFD4E901102E
:1040E0006BF307006AF30F20266869F31740D4E9E1
:1040F000037465F3070168F31F600D468046FF22D5
:10410000511C684614F049FFCDF80880CDE90374CE
:10411000CDE900654FF44C342046FEF73DF9694681
:104120002046FEF7DAF9012818BF002041B0BDE8AB
:10413000F08F2DE9F04F174688468146C1B0002424
:104140004FF44C3014226649FDF7A8FF644B1D68FC
:10415000B5F1FF3F02BF204641B0BDE8F08FFF221E
:10416000D3E902A4511C6846D3F810B05E6814F07D
:1041700014FF69F3070468F30F2467F31744012061
:1041800060F31F64CDE902A4CDE900564FF44C342E
:10419000CDF810B02046FEF7FFF869462046FEF73E
:1041A0009CF941B0BDE8F08F2DE9F04F4E4F00254E
:1041B000C1B07E42A8464FF44C3014224849FDF766
:1041C0006DFF474C172120462368FFF704FF844604
:1041D00014212046FFF7FFFE4BF6BB3140B28B4265
:1041E00004D1BCF1000F0FD12D280DD02160FF208C
:1041F0002071002020726072A072E0722D21217364
:1042000061732821A173E07314212046FFF7E3FEB8
:1042100040B2039015212046FFF7DDFE40B2029028
:1042200016212046FFF7D7FE40B201901621204606
:10423000FFF7D1FE404240B20090FCF763FF10F060
:10424000020F7CD01F48294A4FF0000990F800C0A7
:104250001E4800780028C8BFACF1010A1EDD00210D
:10426000BAF1000F16DD01F1010B01FB00930BFB0E
:10427000009B32F8133032F81BB0A3EB0B031BB2D8
:10428000002BB8BF5B421BB24345C8BF9846491CD0
:104290005145E8DB09F101098145E0DB029941451F
:1042A000B8BF45F002054FF00009CA46BCF1000F47
:1042B000C8BFA0F1010B34DD0021BBF1000F17E0F6
:1042C00010240020BB05002090280020BA05002003
:1042D0003E080020B005002078590020102D002055
:1042E000102E002070050020F1D8FFFF901600204E
:1042F00013DD0AFB001332F813E002EB43035B8883
:10430000AEEB03031BB2002BB8BF5B421BB24B45A5
:10431000C8BF9946491C5945EBDB0AF1010AE24541
:10432000CADB03994945B8BF45F004054FF0000AC0
:10433000BCF1000F15DD002300280EDD00E018E0C1
:104340000AFB003132F91110B942C8BF0F46B14221
:10435000B8BF0E465B1C8342F0DB0AF1010AE2455E
:10436000E9DB0198B84202DB0098B04201DD45F07C
:10437000080509F0FF0040907042C6B2274808F0D7
:10438000FF08FFB205602068B0F1FF3F08BFFFF7EC
:1043900066FED4E9020A4099D4E9009B61F3070064
:1043A00068F30F2067F3174066F31F600646FF228D
:1043B000246965F3070B511C684614F0EEFDCDF837
:1043C0000090CDE903A4CDE901B64FF44C3420466A
:1043D000FDF7E2FF69462046FEF77FF81D208DF8C5
:1043E000000041208DF8010000208DF802508DF86A
:1043F00004008DF803008DF80500062269460720A9
:1044000007F042FF41B0BDE8F08F054A1378054A36
:1044100012785A43520014F049BD00007005002084
:10442000BA050020BB0500202DE9FF4F89B00746E3
:1044300000200790059032200690002081460390CE
:10444000FE4814464FF0FF3A0678FD480078049085
:10445000002000908046019000F01EFA05280CBF55
:104460001E251425FFF764FC029006F0A5F880785D
:10447000012812BF0328012005904FF0000C04987A
:104480000028C8BF4FF0020E5EDD0020002E4FDD79
:104490000CFB0601059A89B222B137F811201E3AA9
:1044A00027F8112037F911B0AB4503DD039A521CF0
:1044B00012B2039234F91120AA420EDD09F1010370
:1044C0000FFA83F95245C4BF069B9A4205DD1FFAD5
:1044D0008CF3019383B292460093029B33F911301F
:1044E0009A1A12B2BBF1000F12DA002AB8BF524278
:1044F000002BB8BF5B4293420ADA1BF1640FBCBFCA
:104500000C9BA3F800E037F811300A9A22F811301A
:1045100034F91120002A03DA9045B8BF904603E031
:104520000A9B002223F81120401C00B2B042AFDBEE
:104530000CF101000FFA80FC04988445A5DBB8F16A
:10454000000FB8BFC8F10008D04500F3DB80039826
:10455000002811BFB9F1000F00200DB0BDE8F08FA9
:104560004FF00008A6F101091FFA89F7BAF1000F10
:1045700001DD079818B10DB00120BDE8F08FDDE92D
:10458000000101FB060E34F91E3003EBD370B3F1CA
:10459000FF3F4FEA6000B8BF404202B201FB06F0A5
:1045A0001FFA80FC009800B28346012839DB0CEB2F
:1045B000000189B2002B18DD34F911A004EB410190
:1045C00031F9021CBAEB010A06D50029B4BFC1F1CA
:1045D000000A8A46924504DB0029B8BF4942A94235
:1045E0001BDA401E1FFA80F81BE016DA34F911A01E
:1045F00004EB410131F9021CAAEB010ABAF1000FE8
:1046000006DD0029B4BFC1F1000A8A469245E8DB05
:104610000029B8BF4942A942E3DB401E00B201288D
:10462000C5DACB4536DA0CEB0B0080B2002B16DD79
:1046300034F9101004EB4000B0F90200091A05D556
:104640000028B4BF41420146914204DB0028B8BFB4
:104650004042A84218DA0BF1010087B21AE013DADF
:1046600034F9101004EB4000B0F90200091A0029D7
:1046700005DD0028B4BF414201469142EBDB002832
:10468000B8BF4042A842E6DB0BF101000FFA80FB05
:10469000CB45C8DB0198029B00FB068082B20198E3
:1046A00033F9123000FB067034F812201FFA80FC38
:1046B0009A1A029815B21FFA8EF1029A30F9110077
:1046C00034F8111032F91C2034F81CC0411A09B218
:1046D000A2EB0C0C0FFA8CFC4C1B48BF6C1AB1EB14
:1046E0000C0548BFACEB010561190FFA81FCC11A3A
:1046F00048BF191A831A48BF131AC81800B2844554
:10470000BFF639AF0DB04FF0FF30BDE8F08F2DE9A7
:10471000F05FDFF830A180460026DAF80000374667
:1047200090F8241100291CBFB0F8300100286CD08B
:10473000FCF7D4FDDAF8001091F82411B0FBF1F287
:1047400001FB1200002860D101F076FC5FEA00094D
:104750005BD03D480078102804BF484604F086FF2F
:1047600036484FF0000C444690F800B03448634699
:1047700090F800E0BEF1000F19DD34F9020B0125BD
:10478000BBF1010F10DD34F9022B101A01B2002920
:10479000B8BF494208B2604502DD84461E462F4636
:1047A0006D1C10465D45EEDB5B1C7345E5DBDAF8FE
:1047B0000020B2F83001844527DB06FB0B7008EBC4
:1047C000400338F8101033F8023CC91A39F8103099
:1047D00009EB400009B230F8020C181A081A00B2AE
:1047E0000028B4BF434203460029B8BF49428B4268
:1047F0000BDA0028B8BF4042B2F83211884204DA1E
:1048000001F024FC0020BDE8F09F0120BDE8F09FEE
:1048100070B515460E46044608F0F8F8002C18BF8F
:1048200070BD042818BF052806D00648006890F817
:104830002400A84288BF70BD304607E0BA050020BA
:10484000BB050020E80600202D060020BDE87040D2
:10485000FFF780B970B51546044608F0D7F8B4F1F3
:10486000FF3F0AD0002C18BF70BD002D08BF70BDDF
:104870002846BDE87040FFF72DB9002D08BF70BD78
:104880002846BDE87040FFF757BA10B506F062FB46
:1048900006F0FCFB002010BDAB4800787047AA482A
:1048A0000078022805D005281CBF0020704705F0BD
:1048B0003ABA08F0ABB8A4490870704710B504467E
:1048C000072C28BF10BDDFE804F013040810130CF8
:1048D0000800084600F040F90AE0084608F08BF8A6
:1048E00006E0084605F014FA02E0084607F02CFD41
:1048F0009548047010BD954900200968B1F864100E
:1049000011F4807F08BF7047FDF74DB98F49002033
:104910000968B1F8641011F4807F08BF7047FDF793
:104920005DB98A4900200968B1F8641011F4806FFC
:1049300008BF7047FDF776B98349487800281CBF47
:10494000401E4870704710B572B6FEF741FFBDE8D3
:104950001040FEF7F3BC10B57D48FDF7A5FC72B61C
:10496000FEF736FFBDE81040FEF7E8BC7648006968
:1049700070477548C068704773494861704772480E
:104980004069704710B5FCF72BFBFBF7B3FDFCF754
:10499000B8F9FFF7C3FABDE81040FDF749B810B504
:1049A000FCF71EFBFBF7A6FDFBF75EFFFCF7A9F982
:1049B000BDE81040FDF73CB830B5ADF2844D05467A
:1049C0004FF49061684614F012FB5F4C2846256155
:1049D00006F0DCF9E060F0B10278A2704178E17095
:1049E00083782371531C03F0FE0363710023E3718A
:1049F00023724FF0120C84F806C004F10A0C8CF8F4
:104A000000308CF80130007860721046FCF7ECFC46
:104A10000DF2844D30BD4D480068B0F8640010F4CC
:104A2000807F18BFFDF7DAF800200DF2844D30BD0D
:104A3000F0B5ADF2CC4D0F4604464FF49061684698
:104A400014F0D5FA404D20462C6106F09FF9E8603D
:104A5000002851D00278AA7041780446E970807825
:104A60002871501C00F0FE0068710020E871287267
:104A70001223AB7105F10A03187058702078687220
:104A80001046FCF7B1FC0DF59061204606F09BF94D
:104A9000608A6E6900281CBF7043060B002017F067
:104AA000040F18BF062017F0080F18BF40F00200CF
:104AB000616A0840DDF88014CDF8C014DDF89C145C
:104AC000CDF8C414DDF89014CDF8C8140DF5986134
:104AD000FCF799FADDF88C0420B13346EA78A9781E
:104AE00005F0F6FB6421304605F0A5FC2878022885
:104AF0000FD0052810D017E014480068B0F8640003
:104B000010F4807F18BFFDF769F800200DF2CC4D3E
:104B1000F0BD07F07BFF01E005F005F9022804BFB6
:104B2000DDF89404FFF74DF9002001F084FA0DF24E
:104B3000CC4D0120F0BD10B5FCF7DCFA0249002095
:104B4000C860012010BD0000B8050020E806002064
:104B500000FE1100F9487047F94948707047F8485D
:104B600040787047F74810B4F74A0168914218D16D
:104B70004168B1F5887F14D80022D0F808C00346F8
:104B80001146B2EB9C0F24BF10BC704753F8214074
:104B9000491C2244B1EB9C0FF8D3002A04BF10BC7F
:104BA0007047002010BC70474FF4FC30FDF7F4BB99
:104BB0002DE9F0410446E3480E46E34F0168B9424F
:104BC00013D14168B1F5887F0FD80023D0F808C011
:104BD00001461A46B3EB9C0F08D251F82250521CE2
:104BE0002B44B2EB9C0FF8D303B10020002558B141
:104BF000B0E80E10A4E80E10B0E80E10A4E80E10F5
:104C00000FC884E80F0016E0FF223021204614F080
:104C1000C4F94FF48870C4E900703020C4E902057B
:104C2000AA20C4E904054FF0FF30E062A062A5614C
:104C30006062C4E9075066B94FF4FC30FDF7ACFB85
:104C4000C248056045608560C56005614561856154
:104C5000C5610120BDE8F081B94901204870704765
:104C6000B74900200870704770B5ADF5107D044657
:104C7000FFF77FFE054614F0020F04BF0DF5107D0F
:104C800070BD0426FFF70BFE002818BFB04C08D0FB
:104C900095F92C102246304606F0BAF80DF5107D35
:104CA00070BD6C462046FCF77DFDF1E770B50D4602
:104CB00006461024FFF75DFE16F0020F18BF05240C
:104CC0002A46102C28BF70BD002A08BF70BD2044A2
:104CD00090F928102046BDE8704006F099B82DE9FB
:104CE000F04F87B08146122000244FF0200A27465B
:104CF0000090FFF7D1FD022802D107F087FE30B106
:104D0000FFF7CAFD052804D105F00DF808B9022007
:104D100000900098002500289CBF07B0BDE8F08FE8
:104D20000026BAF1000F7CD98A4A681EA2FB003126
:104D30004908A1EB810108440590E81E0490A81FD2
:104D40000390C01E0290C01E0190A2FB05104008F7
:104D5000A0EB8000A5F10F0B00EB0508FFF79CFD11
:104D6000022803D107F052FE00283AD0FFF794FD45
:104D7000052803D104F0D7FF002832D0032D38BF17
:104D8000142417D30498032838BF152412D303988A
:104D9000032838BF16240DD30298032838BF2424D3
:104DA00008D30198032838BF252403D3BBF1030F90
:104DB00038BF2624A7420AD06748C4F30311274608
:104DC0000068C16104F00F017F20FBF73DFBC4F3D5
:104DD000031001281CBFC6F11F0000EB481018D1BA
:104DE00027E0002D0CBF14242424A74209D05A48E0
:104DF000210927460068C16104F00F017F20FBF7FD
:104E000023FB2009012814D00598C6F11F0101EBEE
:104E1000401019F8011BC0B2FBF716FB761C564573
:104E20009CD300986D1C8542FFF47AAF07B0BDE8B3
:104E3000F08F06EB4810ECE72DE9F84F8346404829
:104E40004FF0000A0C46B0F904804FF012092027F9
:104E500050460091FCF7C2FA0546CBF10706FFF772
:104E60001BFD022802D107F0D1FD30B1FFF714FD80
:104E7000052804D104F057FF08B94FF00209BBF12F
:104E8000000F1CD0002E55DB4FF0000CB9F1000FC5
:104E900049D9012101FA06F3701E01FA00FB002135
:104EA000002F3CD935F8020B2278A0EB080000B2A5
:104EB0005FEAD21E23D0002827DA2EBB1BE0002396
:104EC000B9F1000F2FD90021002F10D935F8022B8E
:104ED0002078A2EB080212B2502AC8BF40F080002E
:104EE00040F04000491C04F8010BB942EED35B1CB2
:104EF0004B45E8D317E010F1280F05DB0AE0002846
:104F000003DD0EB9282805DD9A43002EC4BF4BEA05
:104F10000200C2B204F8012B491CB942C2D30CF101
:104F2000010CCC45BBD30098FFF7D9FE002E08BF7B
:104F30004FF0010A5046BDE8F88F0000102F002006
:104F4000D005002000F8110054435246701600208E
:104F500050310020ABAAAAAA1CA51100FD498880E7
:104F6000704770B5FB4EFC49F08009680320C861AA
:104F70000425E9B27F20FBF767FA0024B179E0B29B
:104F8000FBF762FA04F12000B179C0B2FBF75CFADA
:104F900004F14000B179C0B2FBF756FA641C202C32
:104FA000ECDB6D1C072DE4DB70BD2DE9F04F89B003
:104FB0000026FCF715F8E849072009680865E74866
:104FC000016841F0200101600020FFF7CAFFE149BC
:104FD0004FF4006088804FF41071E14814F007F836
:104FE0000020FBF79AFEFCF727F900252C460795D1
:104FF000FFF755FC04F073F801281DD06846FCF754
:10500000B0FBB8B10120FBF788FE684604F097FCBE
:105010006D1C012D0ED00025D1492046FFF70CFF55
:10502000072C1ED00020FBF778FEFCF7B7FBFCF73F
:1050300003F9641C002EDDD0FFF731FCC54AC948D6
:10504000C74BD0600020D16813F800C0401C01F8A5
:1050500001CBD160B0F5107FF5D3079800283CD183
:1050600035E012200890BB4800274FF0200BB0F924
:1050700004603846FCF7B2F90546BA460024BBF195
:10508000000F18D9304614F068FCB74AB74B14F03B
:10509000CBFC8946804635F9022B901B48BFB01ADD
:1050A00014F05BFC42464B4614F0BCFD38BF7F1C3D
:1050B000641C5C45EFD308980AF1010A8245DDD3F0
:1050C000002F4FF001061CBF01200790B4E7002E0F
:1050D0001EBF002009B0BDE8F08F012009B0BDE877
:1050E000F08FF0B587B000260120FBF7BCFD9B4890
:1050F000016841F0200101600020FFF732FF95496F
:105100004FF4006088809A490020C1F88000C1F8FF
:105110008400C1F88800C1F88C00C1F89000C1F883
:105120009400C1F89800C1F89C00C1F8A000C1F833
:10513000A400C1F8A800C1F8AC00C1F8B000C1F8E3
:10514000B400C1F8B800C1F8BC00FBF7E6FDFCF7FD
:1051500073F800252C462F4603F0C1FF012835D0F7
:105160006846FCF7FEFA78B30120FBF7D6FD6D1C0C
:10517000012D24D000257F492046FFF75DFE072C36
:1051800006D00020FBF7C9FDFCF756F8641C1BE0B5
:10519000002420252046FCF721F9002130F9022BBC
:1051A000A2F26662B2F54D7F88BF641C491CB1EB68
:1051B000450FF3D3002C08BF01260DD106E00020D7
:1051C000FBF7ABFDFCF738F8002EC5D027B9002E51
:1051D0001EBF002007B0F0BD012007B0F0BD2DE9D3
:1051E000F04F83460021ADF5137D634890910C4646
:1051F00000780F460D46022808BF012703D0052876
:1052000004BF02240427DFF850914FF0010A00F098
:105210009BB9204605F0BAFD002800F09481008972
:1052200000EA0B0626F0CC0030F47C4000F08B81C5
:10523000DFF84881D8F800004069D8F8001040F441
:1052400000704861D8F800000069D8F8001020F01C
:1052500006000861D8F800000069D8F8001040F096
:10526000100008613CB1012C35D0022C71D0032C08
:1052700055D000F0FDB802210846FFF71FFB0120C2
:10528000FBF7F1FC05F0E7FB0F212046FFF7D0FB11
:10529000002800F05881D9F80000406CD9F80010BF
:1052A00040F40060486400BF00BF00BFD9F80000B0
:1052B000406CD9F8001020F400604864FBF767FCEC
:1052C00005F0B4FB012007F05BFC0020FBF725FD97
:1052D000FCF764FACCE000210220FFF7EFFA01208E
:1052E000FBF7C1FC0F212046FFF7A2FB002800F0CE
:1052F0002A81D9F80000406CD9F8001040F4006011
:10530000486400BF00BF00BFD9F80000406CD9F866
:10531000001020F400604864FBF739FCA8E000218D
:105320000520FFF7CBFAFBF75BFED8F80000006919
:10533000D8F8001020F006000861D8F800000069D5
:10534000D8F8001040F004000861D8F800000069A7
:1053500016E03EE0D00500201CA5110064050020E9
:1053600050310020102F00209A9999999999B93FAE
:1053700010330020903300202506002004A51100E2
:10538000D8F8001040F01000086109F088F90F21EA
:105390000220FFF74DFB00287DD0DFF8788507203D
:1053A000D8F800108860D8F8001004204860022166
:1053B0002020FCF719F80020FBF7AFFCFBF713FFE8
:1053C000D8F800000068D8F8001040F0010008602C
:1053D0004EE002210520FFF771FAFBF701FED8F835
:1053E00000000069D8F8001020F006000861D8F825
:1053F00000000069D8F8001040F004000861D8F8F7
:1054000000000069D8F8001040F01000086109F0B1
:1054100046F905F00BFB0F210320FFF709FB0028DD
:1054200039D0DFF8F0847F20D8F800108860D8F8F1
:10543000001002204860D9F80000406CD9F8001034
:1054400040F400604864012007F093F9D9F80000A7
:10545000406CD9F8001020F400604864FBF7C3FEEC
:10546000D8F800000068D8F8001040F0010008608B
:105470009098002862D116F0010F21D00120FBF78F
:10548000F2FBFFF70CFA80B1FCF772F8FF210F2056
:10549000FFF78BFD00E056E02AEA000005430020FC
:1054A000FBF73BFC909888BB0AE0FCF761F8FF2112
:1054B0000F20FFF716FE2AEA000045EA4005EEE756
:1054C00016F0060F22D0FFF7EAF902281ED1FEF7E8
:1054D000D5FA0020FEF75AFD0120FBF7C4FBFEF7CA
:1054E00027FC0646FFF745FA0523320004D090F961
:1054F0002D10184605F08CFCFEF71AFCFEF729FD6E
:10550000FEF716FC4FF4906113F04FFDFFF731FAF0
:10551000804604209190FFF7C2F9002818BFFE4E84
:1055200020D098F92C103246919805F071FCFB4977
:1055300000200870FA490870FBF755FEFFF7ACF938
:10554000F84880F800A0641CBC4203D29098002860
:105550003FF45FAEF449002008700DF5137D284636
:10556000BDE8F08F6E463046FCF71CF9D9E770B500
:10557000ED48CCB04578FFF78FF901287ED1EB4894
:105580000068B0F93610B0F9340004F0C7FF15F028
:10559000020F74D0002140A8FFF70AFB4598401C79
:1055A000459040F27770FFF71AFEC0B2032810D082
:1055B000002804BF45F25000449012D0012808BFD3
:1055C0004AF250100CD0022808BF45F2A10007D0C3
:1055D00007E04AF2A11044904698401C469008E02B
:1055E000449047980022401C47902121072006F054
:1055F00022FE40AC05F0BBFB40B181694891C16916
:10560000499141694A91C0684B9005E04FF0FF30E5
:105610004B904A9049904890C54840904FF488700C
:1056200041903020429000204390A36822460146DA
:1056300052F820C0401C6144B0EB930FF8D34E42A7
:10564000FF22511C6846E66013F0A7FCA268F4E84C
:1056500004018DE847000FCC04AE86E80F0094E803
:105660000F0008AE203C86E80F004FF4FC3069467E
:10567000FCF733FFAF4922680A6001E021E00CE04B
:1056800062684A6022698A606269CA60A2690A61C6
:10569000E2694A61226A8A610CE015F0010F09D0C3
:1056A00040F22220FFF79BFD20B900222121072094
:1056B00006F0C1FDFEF737FB2A464021072006F021
:1056C000BAFD4CB0BDE8704003F005BD70B50C46A6
:1056D0009949054603200968C86101217F20FAF72E
:1056E000B3FE00217520FAF7AFFE01217620FAF70C
:1056F000ABFE60210820FAF7A7FE00210920FAF787
:10570000A3FE30210A20FAF79FFE00210B20FAF7B2
:105710009BFE06210E20FAF797FEE1B22620FAF74B
:1057200093FEE1B22720FAF78FFEE1B22820FAF7C4
:105730008BFEE1B22920FAF787FEE1B22A20FAF7C0
:1057400083FEE1B23020FAF77FFEE1B23120FAF7B2
:105750007BFEE1B23220FAF777FEE1B23320FAF7AE
:1057600073FEE1B23420FAF76FFEE1B23620FAF7A9
:105770006BFEE1B23720FAF767FEE1B23820FAF7A4
:1057800063FEE1B23920FAF75FFEE1B23A20FAF7A0
:105790005BFEE1B24020FAF757FEE1B24120FAF792
:1057A00053FEE1B24220FAF74FFEE1B24320FAF78E
:1057B0004BFEE1B24420FAF747FEE1B24620FAF789
:1057C00043FEE1B24720FAF73FFEE1B24820FAF784
:1057D0003BFEE1B24920FAF737FEE1B24A20FAF780
:1057E00033FEE1B25020FAF72FFEE1B25120FAF772
:1057F0002BFEE1B25220FAF727FEE1B25320FAF76E
:1058000023FEE1B25420FAF71FFEE1B25620FAF768
:105810001BFEE1B25720FAF717FEE1B25820FAF763
:1058200013FEE1B25920FAF70FFEE1B25A20FAF75F
:105830000BFEE1B26020FAF707FEE1B26120FAF751
:1058400003FEE1B26220FAF7FFFDE1B26320FAF74E
:10585000FBFDE1B26420FAF7F7FDE1B26620FAF74A
:10586000F3FDE1B26720FAF7EFFDE1B26820FAF745
:10587000EBFDE1B26920FAF7E7FDE1B26A20FAF741
:10588000E3FD02217F20FAF7DFFD6A210220FAF70B
:10589000DBFD8E210420FAF7D7FDF1210720FAF76E
:1058A000D3FD15B1012D05D008E004210620FAF73B
:1058B000CBFD03E008210620FAF7C6FD03217F2077
:1058C000FAF7C2FD21211020FAF7BEFD00211120B8
:1058D000FAF7BAFD00211220FAF7B6FD00211320D5
:1058E000FAF7B2FD00211420FAF7AEFD00211520D1
:1058F000FAF7AAFD01211620FAF7A6FD02211720CA
:10590000FAF7A2FD00211820FAF79EFD00211920C8
:1059100014E0000020A511005031002015070020E0
:105920001607002017070020D0050020E8060020F9
:1059300054435246701600201CA51100FAF784FD4E
:1059400000211A20FAF780FD00211B20FAF77CFDC8
:1059500001212020FAF778FD20212120FAF774FD9B
:1059600000212220FAF770FD00212320FAF76CFDB8
:1059700000212420FAF768FD00212520FAF764FDB4
:1059800001212620FAF760FD00212720FAF75CFDAF
:1059900002212820FAF758FD00212920FAF754FDAA
:1059A00000212A20FAF750FD00212B20FAF74CFDA8
:1059B00001213020FAF748FD00213120FAF744FD9B
:1059C00020213220FAF740FD00213320FAF73CFD78
:1059D00000213420FAF738FD00213520FAF734FD94
:1059E00001213620FAF730FD00213720FAF72CFD8F
:1059F00000213820FAF728FD02213920FAF724FD8A
:105A000000213A20FAF720FD00213B20FAF71CFD87
:105A100001214020FAF718FD00214120FAF714FD7A
:105A200000214220FAF710FD20214320FAF70CFD57
:105A300000214420FAF708FD00214520FAF704FD73
:105A400001214620FAF700FD00214720FAF7FCFC6F
:105A500000214820FAF7F8FC00214920FAF7F4FC6D
:105A600002214A20FAF7F0FC00214B20FAF7ECFC67
:105A700001215020FAF7E8FC00215120FAF7E4FC5C
:105A800000215220FAF7E0FC00215320FAF7DCFC59
:105A900020215420FAF7D8FCBDE8704000215520A1
:105AA000FAF7D2BC10B50322FD49062828BF10BD65
:105AB000DFE800F00327FDFCFBFA0868C261012162
:105AC0007F20FAF7C1FCAF210820FAF7BDFC732153
:105AD0000A20FAF7B9FC0A210E20FAF7B5FC0221D8
:105AE0007F20FAF7B1FC00210720FAF7ADFC1F2157
:105AF0000120FAF7A9FC1021BDE810400620FAF7B2
:105B0000A3BC0868C26101217F20FAF79DFC0D212A
:105B10000E20FAF799FC87210820FAF795FC6E21F0
:105B20000A20FAF791FC02217F20FAF78DFC7121FF
:105B30000720FAF789FC6A210220FAF785FC8E21FA
:105B40000420FAF781FC03217F20FAF77DFC612114
:105B50001020FAF779FC00211120FAF775FC0021DA
:105B60001220FAF771FC00211320FAF76DFC0021D6
:105B70001420FAF769FC00211520FAF765FC0121D1
:105B80001620FAF761FC06211720FAF75DFC0021C8
:105B90001820FAF759FC00211920FAF755FC0021CA
:105BA0001A20FAF751FC00211B20FAF74DFC0121C5
:105BB0002020FAF749FC60212120FAF745FC00215A
:105BC0002220FAF741FC00212320FAF73DFC0021B6
:105BD0002420FAF739FC00212520FAF735FC0121B1
:105BE0002620FAF731FC00212720FAF72DFC0621A8
:105BF0002820FAF729FC00212920FAF725FC0021AA
:105C00002A20FAF721FC00212B20FAF71DFC0121A4
:105C10003020FAF719FC00213120FAF715FC602139
:105C20003220FAF711FC00213320FAF70DFC002195
:105C30003420FAF709FC00213520FAF705FC012190
:105C40003620FAF701FC00213720FAF7FDFB00218E
:105C50003820FAF7F9FB06213920FAF7F5FB002185
:105C60003A20FAF7F1FB00213B20FAF7EDFB012186
:105C70004020FAF7E9FB00214120FAF7E5FB00217B
:105C80004220FAF7E1FB60214320FAF7DDFB002117
:105C90004420FAF7D9FB00214520FAF7D5FB012172
:105CA0004620FAF7D1FB03E03FE039E033E02DE096
:105CB00000214720FAF7C8FB00214820FAF7C4FB6F
:105CC00000214920FAF7C0FB06214A20FAF7BCFB65
:105CD00000214B20FAF7B8FB01215020FAF7B4FB62
:105CE00000215120FAF7B0FB00215220FAF7ACFB5B
:105CF00000215320FAF7A8FB60215420FAF7A4FBF7
:105D00000021BDE810405520FAF79EBBAA21BDE84E
:105D100010400020DAE45521BDE810400020D5E411
:105D2000AA21BDE810400120D0E45521BDE8104073
:105D30000120CBE410B5FDF7FBFF0446FDF7FAFFA9
:105D40002146BDE810404FF4906213F0AFB82DE942
:105D5000F0415448047854480578FDF7EBFF0646B7
:105D6000FDF7E6FF0022002D98BFBDE8F08100217D
:105D7000002C10D902FB04FC06EB4C0300EB4C0C8E
:105D800011F0010F1CBF33F811702CF81170491C71
:105D9000C9B2A142F4D3511CCAB2AA42E7D3BDE8AA
:105DA000F08100B5ADF2844DFDF7C4FF01464FF41C
:105DB0009062684613F07AF86846FDF7BDFF0DF271
:105DC000844D00BD2DE9F04F83B01220019038487A
:105DD00036494FF020090024C16001E0032C01DAAC
:105DE00014261AE0E01E032838BF152615D3A01F7D
:105DF000032838BF162610D3A4F10900032838BFA2
:105E000024260AD3A4F10C00032838BF252604D386
:105E1000A4F10F00032838BF2626B34509D0204837
:105E20003109B3460068C16106F00F017F20FAF71F
:105E30000BFB0025B9F1000F2ADD1E484FEA161AA8
:105E400080FB0410A0EBE070A0EB800000EB0408E6
:105E5000BAF1010F0EBF05EB4810C5F11F0000EBB2
:105E6000481087B21249C86810F8012B0092C86028
:105E7000F8B21146FAF7E8FA00BF00BF00BF00BF52
:105E800000BFF8B20099FAF7DFFA6D1C4D45DFDB71
:105E90000198641C8442A1DB03B0BDE8F08F0000D0
:105EA0001CA51100BA050020BB050020102F002002
:105EB000D0050020565555552DE9F84FDFF8D8B1DB
:105EC00074484FF02008CBF80C00122000240090FA
:105ED00001E0032C01DA14261AE0E01E032838BF83
:105EE000152615D3A01F032838BF162610D3A4F1FA
:105EF0000900032838BF24260AD3A4F10C00032884
:105F000038BF252604D3A4F10F00032838BF262666
:105F1000B24509D061483109B2460068C16106F056
:105F20000F017F20FAF790FA0025B8F1000F1EDD6F
:105F30005B484FEA161980FB0410A0EBE070A0EB61
:105F400080000719B9F1010F0EBF05EB4710C5F12D
:105F50001F0000EB471080B2FAF78FFADBF80C1045
:105F60006D1C454501F8010BCBF80C10EADB0098DD
:105F7000641C8442ADDBDBF80C00BDE8F88F4648BA
:105F8000C08870472DE9F043002787B0B946FBF77A
:105F900027F841494FF400608880FAF7CEFE0020D0
:105FA000FAF7BBFE00254FF05A082846FEF7D9FF46
:105FB000FBF719F903F093F86846FBF7D2FB28B317
:105FC000684603F0BCFC002420262046FBF706FAB6
:105FD000002130F9022BA2F26662B2F54D7F88BF34
:105FE000641C491CB1EB460FF3D3ACB1454515D247
:105FF000FAF7F6FFA8B26D1CFEF7B3FFFBF7F3F854
:1060000006F004FD002808BFFBF7DCFE002FD1D00E
:10601000B9F1000F0BD104E00127F9E7FAF7E0FF2F
:1060200005E0002F1EBF002007B0BDE8F08301206F
:1060300007B0BDE8F08370471748816800291BBF8F
:10604000017811F0020F0020C0687047154812490E
:10605000006890F825218878401CC0B28870824280
:1060600028BF70470020887001210846FEF726BC33
:1060700010B506F0CBFC074902284FF4107204D08B
:10608000BDE81040084812F011BFBDE810400748B5
:1060900012F00CBF102F0020D00500201CA511000D
:1060A00056555555E8060020BE0C0020F85D00202E
:1060B0001FB513F0070F069804D003F00702022A59
:1060C00008D004E0012202A90F2002F0E4FF04B08E
:1060D000002010BDF84B5A79052A0DD1DA89824289
:1060E0003CBF521CDA8192B2824205D10020D88195
:1060F000012008700320587104B0012010BD1FB5A5
:1061000013F0070F04D003F00700022808D004E0C2
:10611000012202A90F2002F0BEFF04B0002010BD32
:106120000120087004B010BD1FB513F0070F04D094
:1061300003F00700022808D004E0012202A90F2082
:1061400002F0A9FF04B0002010BD0120087004B0C7
:1061500010BD1FB513F0070F04D003F0070002288D
:1061600008D004E0012202A90F2002F094FF04B03D
:10617000002010BD0120087004B010BD1FB513F041
:10618000070F04D003F00700022808D004E0012222
:1061900002A90F2002F07FFF04B0002010BD0120F3
:1061A000087004B010BD2DE9F00703F007050027C3
:1061B000C14EDDF81CC0012D08BFF7810DD013F0D2
:1061C000070FBD4BDFF8F482DFF8F492DB8903F1AF
:1061D0000104A4B205D0022D16D0BDE8F0070020BE
:1061E000704763453CBFD9F80000C254F481644550
:1061F00024D1D9F80000D9F800104078097800EBD4
:106200000120A8F80E0019E0B8F80E20D9F80050C7
:10621000120A63452A70D9F8005098F80E206A7067
:1062200004D2D9F80020D25C0270F481F089604574
:1062300004D1F7810120087003207071BDE8F007D8
:10624000012070471FB513F0070F04D003F00700BB
:10625000022808D004E0012202A90F2002F01BFF4F
:1062600004B0002010BD0120087004B010BD1FB59F
:1062700013F0070F04D003F00700022808D004E051
:10628000012202A90F2002F006FF04B0002010BD79
:106290000120087004B010BD1FB513F0070F04D023
:1062A00003F00700022808D004E0012202A90F2011
:1062B00002F0F1FE04B0002010BD0120087004B00F
:1062C00010BD1FB513F0070F069804D003F00702A6
:1062D000022A08D004E0012202A90F2002F0DBFE0E
:1062E00004B0002010BD744B5A79052A0DD1DA890B
:1062F00082423CBF521CDA8192B2824205D1002018
:10630000D881012008700320587104B0012010BD0D
:106310000020704708B503F00700012806D18DF86A
:106320000000024669460B2002F0B5FE002008BDC1
:1063300008B503F00700012807D100208DF8000000
:10634000012269460B2002F0A6FE002008BD10B510
:1063500003F00700012808BFFEF7F5FA002010BD82
:1063600008B503F00700012807D103208DF80000CD
:1063700001226946002002F08EFE002008BD08B50B
:1063800003F00700012807D103208DF80000012247
:106390006946002002F07FFE002008BD70B403F0C3
:1063A00007020024444BDDF80CC0012A02D0022A67
:1063B00008D004E005205871DC811C639C8270BC0D
:1063C000002070475A79052A11D1DA89624506D230
:1063D0003C4DAD68D600F5400570501CD881D88979
:1063E000604504D1DC81012008700320587170BC25
:1063F000012070471FB513F0070F08D19DF8080062
:10640000F02807D0012202A9072002F044FE04B0C0
:10641000002010BDFEF7C8FBF9E71FB513F0070F0A
:1064200004D1012202A9104602F035FE04B000207A
:1064300010BD2DE9F00103F007041F4E059D012C4E
:1064400004BF0020F0811ED013F0070F1A4B1E4F1F
:10645000DB8903F1010C1FFA8CFC02D0022C16D050
:1064600011E01749022B3CBF0868C254A6F80EC0C1
:10647000AC4508D108680278386880F8EB200968D4
:10648000497880F8EA10BDE8F001002070470E4A14
:10649000002B126804BF92F8EB10017006D0012B9C
:1064A00004D192F8EA20027001200870A6F80EC00C
:1064B000BDE8F00101207047E805002054100020DD
:1064C00048A5110070160020E806002030B403F043
:1064D000070CF84CBCF1010F04BF0020E08118D07C
:1064E00013F0070FF34BDB8903D0BCF1020F13D07D
:1064F0000FE073B9A271082A0BD2DFE802F004079B
:106500000704040404044FF4906001E04FF4107099
:10651000E06230BC00207047E64A002BD26A04BF1C
:10652000110A017004D0012B02D102700120087001
:10653000581CE08130BC01207047F8B5054603F0D7
:1065400007000026DB4C0F46012807D013F0070F89
:106550002346DB8906D0022828D025E0052060717B
:10656000E68121E003BBA2714FF49060A08240104D
:10657000082A19D2DFE802F004060A0E10121416D7
:10658000CD4810E0CD492163A0820DE0CC492163C4
:10659000A08209E0CB4806E0CB4804E0CB4802E00B
:1065A000CB4800E0CB4820630020F8BD6079052887
:1065B00047D1206B002844D0C749BE4A0968928A57
:1065C00091F8EB10012918BF032906D069469342C0
:1065D0002DD213F0030F21D118E0934227D213F0EC
:1065E000010F07D094F82C002870E06A000AE062DE
:1065F000581C1BE0AF49A079C989042821F0010289
:1066000014BFB648B648805EE062EBE70422FBF7B1
:1066100045FD0098E062206B001D206394F82C007B
:106620002870E06A000AE062E089401CE081E089AD
:10663000A18A884205D1E6810120266338700320B3
:1066400060710120F8BD2DE9F84303F00702002630
:10665000984D089C0F468046012A02D0022A06D097
:1066600002E005206871EE810020BDE8F8836879BA
:1066700005281CD1E889A04211D2FDF716F8AC20FC
:106680008DF800007A208DF8010070208DF802004E
:10669000EA891DF8020088F80000501CE88180B2E9
:1066A000A04204D1EE8101203870032068710120DE
:1066B000BDE8F8832DE9F04182B003F0070200261F
:1066C0007C4D089C0F468046012A02D0022A07D042
:1066D00002E005206871EE8102B00020BDE8F08183
:1066E0006879052821D1E889A04216D2FCF7DDFFA0
:1066F00053208DF8000045208DF801007A208DF898
:10670000020070208DF803008DF80460EA891DF8FE
:10671000020088F80000501CE88180B2A04204D139
:10672000EE81012038700320687102B00120BDE8BD
:10673000F0812DE9F00388B003F007020027DFF8AD
:106740007481DDF838C0012A09D04446E489651C0B
:10675000AEB2022A0DD013F0070F2FD004E00520AF
:1067600088F80500A8F80E7008B00020BDE8F00316
:10677000704798F80520052A1BD164450ED2594D63
:1067800000226B4615F8029003F80290521CD2B218
:10679000202AF7D31A5D0270A8F80E60B8F80E0030
:1067A000604506D1A8F80E7001200870032088F813
:1067B000050008B00120BDE8F0037047644538BF0C
:1067C000A8F80E60B8F80E00604508BFA8F80E7073
:1067D000CAE72DE9F007DFF800C183B003F0070A2C
:1067E000DCF800C00A9A0027BCF81640BCF8145028
:1067F000DFF8C080BAF1010F0ED0C4464FF0010996
:10680000BCF80EC0BAF1020F0CF10106B6B20DD001
:1068100013F0070F40D004E0052088F80500A8F821
:106820000E7003B00020BDE8F007704798F80530FF
:10683000052B2CD194451FD2230A8DF800308DF8FA
:1068400004304FEA152A12238DF808308DF80140E4
:106850008DF8054020238DF802A08DF806A08DF854
:1068600009308DF803508DF807508DF80A701DF827
:106870000C300370A8F80E60B8F80E00904206D1F4
:10688000A8F80E7081F80090032088F8050003B086
:106890000120BDE8F00770471348944580F8009048
:1068A00038BFA8F80E60B8F80E00904208BFA8F8EC
:1068B0000E70B6E7E805002054B0020054D802007C
:1068C00054DC020054C8020054D0020054C002003C
:1068D00054B8020054EC0200E806002000690020D1
:1068E00000710020D0330020400700202DE9F04344
:1068F00083B0804603F007000026FF4D0A9C0F4638
:10690000012802D0022807D002E005206871EE813C
:1069100003B00020BDE8F083687905282DD1E8890F
:106920004FF00109A04220D20021B220FBF78AF9E2
:106930008DF80000010A8DF80110010C8DF802108D
:10694000000E8DF803007A208DF804001F208DF8CA
:10695000050004208DF807008DF80690E8891DF8E1
:10696000001088F80010401CE88180B2A04204D1D9
:10697000EE8187F800900320687103B00120BDE824
:10698000F0832DE9F84303F007020026DA4D089C56
:106990000F468046012A02D0022A06D002E00520D6
:1069A0006871EE810020BDE8F8836879052814D16C
:1069B000E889A04209D26846FBF75BFEEA891DF828
:1069C000020088F80000501CE88180B2A04204D187
:1069D000EE8101203870032068710120BDE8F88342
:1069E00010B403F00701DFF810C3012906D013F03B
:1069F000070FC24B08D0022910D00CE00020ACF8E1
:106A00000E00ACF8100006E0BCF80E0019680A543D
:106A1000401CACF80E0010BC00207047BCF81010F1
:106A20001A68525C0270481CACF8100010BC0120BF
:106A30007047F0B583B003F0070201270025AF4C83
:106A4000AD4EDDF820C0012A04D0022A00F0C68035
:106A500000F09DB8FCF729FE012202A91220029540
:106A6000FBF71CFB0520707121687A2008702068F4
:106A70004770216821208870A14822680168897CBC
:106A8000D17000682268017C1171017E11F0040F41
:106A90000ED0C18A2268090A51712268817D9171E4
:106AA000818A2268090AD1712168007D08720DE08F
:106AB000818A2268090A51712268017D9171C18A17
:106AC0002268090AD1712168807D08720422694612
:106AD00010460095FBF7E2FA216800984872226898
:106AE000010A91722268010C000ED1722168042201
:106AF0000873694614200095FBF7D0FA21680098C6
:106B000048732268010A91732268010C000ED17348
:106B1000216808740298009500283BD0042201A93E
:106B200048200195FBF7BAFA0198042250300190F1
:106B300069461C30FBF7B2FA216800984874226855
:106B4000010A91742268010C000ED174216804229C
:106B50000875009501A948200195FBF79FFA019857
:106B600004225030019069462C30FBF797FA2168D7
:106B7000009848752268010A91752268010C000E80
:106B8000D175216808762168FF204876F58103B029
:106B90000020F0BD042269465A48FBF77FFA2168BD
:106BA000009848742268010A91742268010C000E52
:106BB000D174216804220875694653480095FBF793
:106BC0006DFA2168009848752268010A917522685B
:106BD000010C000ED17521680876D4E77279052A78
:106BE0000ED1F289624504D223689B5C0370501C6D
:106BF000F081F089604503D1F5810F700320707139
:106C000003B00120F0BD30B403F007043B4B3A4D14
:106C1000029A4FF0000C012C02D0022C38D034E044
:106C2000022068713948A5F80EC00168880A4442FC
:106C300011EB842418BF401C404201EB8000C01CB3
:106C400020F003003249B0F5003F014414D8CC785D
:106C5000086864F31F602F4CA0420DD10020002A69
:106C600013D901EB000C1C689CF804C004F800C0A8
:106C7000401C8242F5D808E00020002A05D9196896
:106C800001F800C0401C8242F9D830BC0020704797
:106C90006C79022C10D1EC89944204D21B681B5DE4
:106CA0000370601CE881E889904205D1A5F80EC008
:106CB000012008700320687130BC0120704738B58E
:106CC00003F007020D4C00250B4BDDF810C0012A24
:106CD00002D0022A7ED086E0022058710E48DD8163
:106CE00000680E49884245D10D480168226811703C
:106CF00001682268090A15E0E805002048A511008E
:106D0000E80600205CC001006CC0010000FE11001C
:106D1000E8FF0F0034CD12AB4C1600205446495307
:106D200058160020517001682268090C91700168A2
:106D30002268090ED1704168226811714168226889
:106D4000090A517141682268090C917141682268F1
:106D5000090ED17181682268117281682268090A5E
:106D6000517281682268090C917280682168000E56
:106D7000C87238E00422694620200095FBF78EF99E
:106D8000216800980422087000982168000A487061
:106D900000982168000C887000982168000EC87067
:106DA00069462420FBF77AF9216800980871226867
:106DB000010A51712268010C000E917121680422B0
:106DC000C87169462820FBF769F9216800980872A4
:106DD000010A00E009E0226851722268010C000EED
:106DE00091722168C872002038BD5A79022A0FD1E9
:106DF000DA89624504D22468A45C0470501CD881EE
:106E0000D889604504D1DD810120087003205871C4
:106E1000012038BD70B503F007020025FA4CFB4B8A
:106E2000DDF810C0012A03D0022A0DD0002070BD69
:106E300002205871DD8103F059FF002814BF802023
:106E4000402021680870F1E75A79022A0FD1DA89C7
:106E5000624504D22468A45C0470501CD881D8898F
:106E6000604504D1DD8101200870032058710120A4
:106E700070BD70B503F007020025E34CE34BDDF86D
:106E800010C0012A02D0022A10D00DE00220587151
:106E9000DD810020FBF755FF05460120FBF751FF80
:106EA000216845EA00100870002070BD5A79022A56
:106EB0000FD1DA89624504D22468A45C0470501CA6
:106EC000D881D889604504D1DD8101200870032074
:106ED0005871012070BD30B403F007020024CA4D80
:106EE000CA4BDDF808C0012A02D0022A09D005E009
:106EF00002205871DC8129685520087030BC0020C0
:106F000070475A79022A0FD1DA89624504D22D6876
:106F1000AD5C0570501CD881D889604504D1DC81F6
:106F2000012008700320587130BC012070472DE902
:106F3000F84303F007020026B34DDFF8D082089C27
:106F40004FF00109012A02D0022A2CD028E003F0D8
:106F50000EFF8769022088F80500A8F80E60042259
:106F600069460020FBF79AF8A948009981420FD1A1
:106F7000286880F800902968042048702868877085
:106F80002968380AC870286846712868867107E041
:106F90000020002C04D929680E54401C8442FAD8E1
:106FA0000020BDE8F88398F80520022A14D1B8F82B
:106FB0000E20A24205D22B689B5C0370501CA8F8DF
:106FC0000E00B8F80E00A04206D1A8F80E6081F8B5
:106FD0000090032088F805000120BDE8F883F8B58B
:106FE00003F00702884C0025884EDDF818C0012AFE
:106FF00002D0022A70D06CE003F0B9FE00282ED037
:10700000844801682268117001682268090A517079
:1070100001682268090C917001682268090ED1701C
:1070200041682268117141682268090A51714168FA
:107030002268090C917141682268090ED17181683A
:107040002268117281682268090A51728168226877
:10705000090C917280682168000EC87236E0042223
:1070600069466D480095FBF719F8216800980422DD
:10707000087000982168000A487000982168000C88
:10708000887000982168000EC87069466348FBF755
:1070900005F82168009808712268010A5171226878
:1070A000010C000E917121680422C87169465C4888
:1070B000FAF7F4FF2168009808722268010A5172F9
:1070C0002268010C9172010E2068C1720220707159
:1070D000F5810020F8BDFFE77279022A0FD1F2890D
:1070E000624504D223689B5C0370501CF081F089D8
:1070F000604504D1F58101200870032070710120E2
:10710000F8BD38B503F007023F4C00253F4BDDF8D2
:1071100010C0012A02D0022A4FD04CE00220587140
:107120004048DD8101683A4A91421ED14168226897
:10713000117041682268090A517041680A0C21687F
:107140008A7041682268090ED170816822681171C5
:1071500081682268090A517181682268090C91715D
:1071600080682168000EC87125E004226946104637
:107170000095FAF793FF21680098042208700098A0
:107180002168000A487000982168000C88700098F7
:107190002168000EC87069460820FAF77FFF216851
:1071A000009808712268010A51712268010C000ED2
:1071B00091712168C871002038BD5A79022A0FD117
:1071C000DA89624504D22468A45C0470501CD8811A
:1071D000D889604504D1DD810120087003205871F1
:1071E000012038BD2DE9F04F85B0934603F007022A
:1071F000DFF81890DDF838C0012A15D013F0070F1A
:1072000019D0022A76D070E048A51100E8050020C8
:10721000544649536416002068C001006CC0010048
:1072200070C001004C160020022089F805000020E3
:10723000A9F80E0059E0002440274FF001081BF088
:10724000010F28D0BA46042203A95046FAF726FFB8
:10725000042201A94820FAF721FFFB49039888423C
:1072600040D101980025B5EB900F10D20AEB8500B4
:1072700004226946FAF712FF0098032D044408BF60
:1072800006466D1C0198B5EB900FEFD304B9344658
:10729000B8F1000F26D01BF0020F1DD000200422F1
:1072A00002A9FBF749FAE949029888421AD1002558
:1072B000B5EB970F0DD2A80004226946FBF73CFA04
:1072C0000098062D044408BF06466D1CB5EB970FC9
:1072D000F1D3002C08BF3446B8F1000F18BFC9F82D
:1072E0002C4002D10020C9F82C0005B00020BDE8D8
:1072F000F08FFFE799F80520022A1AD1B9F80E207D
:1073000062450AD2C2F10303D9F82C40DB0024FA0B
:1073100003F30370501CA9F80E00B9F80E00604585
:1073200007D10020A9F80E0001200870032089F879
:10733000050005B00120BDE8F08F10B503F007008F
:10734000012804D1002211461C2001F0A4FE0020D7
:1073500010BD70B5044603F00700BD4D0E46012870
:1073600004BF0020E88119D013F0070F02D00228D3
:1073700016D013E0E889B74B03283CBF19680A54BC
:10738000401C80B2E881032808D1186890F90220D7
:1073900090F9011090F90000FCF7CBFE002070BDC1
:1073A000FCF710FE0246E88930B101280AD0022815
:1073B0000ED0032812D018E014211046FCF70BFE63
:1073C000207012E015211046FCF705FE20700CE03D
:1073D00016211046FCF7FFFD207006E0172110462D
:1073E000FCF7F9FD207001203070E889401CE8812D
:1073F000012070BD13F0070F04D003F00702022A2A
:1074000005D002E092490020C88100207047924ACE
:107410001268027001200870704730B403F007034F
:107420000024DFF82CC2029A012B02D0022B0BD0D1
:1074300007E005208CF80500ACF80E4020208CF801
:10744000060030BC002070479CF80530052B14D195
:10745000BCF80E30934205D29CF806500570581CBB
:10746000ACF80E00BCF80E00904206D1ACF80E400D
:107470000120087003208CF8050030BC0120704703
:107480002DE9F04383B003F00705724E704FDDF82D
:1074900028C04FF00008012D0AD013F0070F3B461B
:1074A000DB8903F10104A4B211D0022D22D01DE02A
:1074B00001A9684601F0C6FF05207871316801987E
:1074C0000870316800984870A7F80E800EE0634598
:1074D00002D23068C254FC81F889604506D1A7F811
:1074E0000E8030680178407801F0A3FF03B00020DF
:1074F000BDE8F0837A79052A0ED1634503D232685C
:10750000D25C0270FC81F889604505D1A7F80E8035
:10751000012008700320787103B00120BDE8F083DA
:1075200070B503F007000024494D4A4EDDF810C045
:10753000012803D013F0070F06D043E0EC81306838
:107540000470306844703DE0E889604503D23368D8
:107550001A54401CE88180B2604533D13FA001221B
:107560000068EC810A703168C2B20978914229D171
:107570003168C0F307204978814223D11C260024BA
:107580004FF4801505EB0430FAF706FF022808BF18
:1075900070BD601CC4B2B442F4D3032600244FF47F
:1075A0008E1505EB0430FAF7F7FE022808BF70BD10
:1075B000601CC4B2B442F4D32948FAF7EDFE0228A5
:1075C00008BF70BD002070BD10B503F00700012892
:1075D00008BF02F019FA002010BD70B503F00704CF
:1075E0001B4D012C09D013F0070F2B46D3F82CC0EC
:1075F000DB8908D0022C17D014E00020E88104F0C9
:1076000014FEE8620EE0002B04BF1002E86206D010
:10761000012B04D14CEA0200E86204F0FFFDE88986
:10762000401CE881002070BD002B04BF4FEA1C21E4
:10763000017005D0012B03D180F800C00120087033
:10764000581CE881012070BD5446435354464953A9
:10765000E805002048A511007005002055AC000089
:1076600000FE110070B5064603F00700FB4C0D4606
:10767000012808BF00200DD013F0070F02D0022808
:107680000BD008E0E089002804BF104607F016F888
:10769000E089401CE081002070BD07F00CF83070DC
:1076A0000120287070BD70B503F0070CEB4D0E463D
:1076B0000446BCF1010F06D013F0070F07D0BCF150
:1076C000020F17D014E00020E881288210E0E8893A
:1076D000002804BF1002E86207D0012805D1E86A3B
:1076E0001043E86280B2FDF73CFCE889401CE88169
:1076F000002070BD288A02280CD2FEF740FC2A8A9E
:10770000002A04BF000A207004D0012A02D1207090
:1077100001203070288A401C2882012070BD10B5DD
:1077200013F0070F04D003F00702022A08D005E087
:10773000002A14BF0120002006F0DBF8002010BD55
:10774000C74A92F85420D20802700120087010BD78
:107750000020704770B503F007020026C14CBF4DF2
:10776000DDF810C0012A02D0022A15D012E005F07F
:1077700076F921680870FDF78FF82168487003F0EA
:1077800075F921688870FDF78AF82168C8700520AE
:107790006871EE81002070BD6A79052A0FD1EA89EF
:1077A000624504D223689B5C0370501CE881E88921
:1077B000604504D1EE81012008700320687101202A
:1077C00070BD70B5064603F007000D4602281CBFC9
:1077D000002070BD01F079FC002814BF01240024B2
:1077E00001F076FC002814BF0222002222433270EE
:1077F0000120287070BD30B403F00703994A0024BB
:10780000964DDDF808C0012B02D0022B4AD046E08D
:1078100095490868954B98422FD14868B0F5887F04
:107820002BD8C868FF282EBFFF20C868C0B21368D5
:1078300018700869FF283ABF0869C0B2FF201368B2
:1078400058704869FF283ABF4869C0B2FF201368E2
:10785000987088681368000AD8708869136818716E
:1078600088691368000A58718869030C106883716D
:1078700088691168000EC87110E010680470106803
:107880004470106884701168FF20C8701168087116
:1078900011684871116888711168C871EC8130BC39
:1078A00000207047EB89634504D21268D25C0270F5
:1078B000581CE881E889604502D1EC8101200870FC
:1078C00030BC012070472DE9F04103F0070100258D
:1078D000624C0646012904BFE561E58101D0022919
:1078E00002D00020BDE8F081207F5E4F00F007014C
:1078F000E1812078084304D1386802F005F90120BD
:107900002070E189052928BF25703868405C3070F7
:10791000E069401CE0610120BDE8F08170B503F032
:10792000070200254F4B4D4CDDF810C0012A02D054
:10793000022A08D005E0186802F0E6F80520607118
:10794000E581002070BD6279052A0FD1E289624588
:1079500004D21B689B5C0370501CE081E089604589
:1079600004D1E5810120087003206071012070BD01
:1079700070B503F007020025384C012A02D0022A14
:1079800011D00EE0052060710021E581084601F06C
:1079900059FD4FF6FF7101EA4000608201F05EFD83
:1079A000A061002070BD6279052A16D1E289B4F881
:1079B00012C0624507D212F0010F1CBFA3790370F9
:1079C0000DD0501CE081E089604506D1E5810120A1
:1079D00008700320607101F04FFD012070BDA669A1
:1079E00022F00103F35A1E0A0670A371E9E77FB57E
:1079F0001C460E46054613F0070F08D103F076F932
:107A000028B1012202A91D2001F045FB03E004F08A
:107A10000700022802D004B0002070BD01F0EBFD89
:107A200028700120307004B070BD2DE9F04103F0E2
:107A300007020027094E88460546012A02D0022A7D
:107A400016D007E005207071F7810A20708201F0DE
:107A500005FDB0610020BDE8F0810000E8050020D0
:107A60005410002048A511007016002054435246BF
:107A70007079052818D1F289708A824208D212F0F2
:107A8000010F1CBFB079287010D0F089401CF08124
:107A9000F089718A884207D1F781012088F80000B7
:107AA0000320707101F0E8FC0120D4E7002401F00C
:107AB000A2FD012804D1F089B16920F001000C5A1F
:107AC000200A2870B471E0E77FB50D46044613F034
:107AD000070F04D003F00700022808D004E00122B9
:107AE00002A90A2001F0D7FA04B0002070BD04F00A
:107AF000B6FF20700120287004B070BDF8B503F007
:107B000007020025FF4C0E460746012A02D0022A32
:107B10000ED00BE00520607103F0F5FA2063002819
:107B20001ABF44F26440A082A582E5810020F8BD1E
:107B30006079052822D1E289A08A6946824214D25E
:107B400012F0030F08D10422206BFAF7A7FA00986D
:107B5000E062206B001D206394F82C003870E06A0E
:107B6000000AE062E089401CE081E089A18A884245
:107B700004D1E58101203070032060710120F8BD3F
:107B800010B513F0070F04D003F00702022A0DD03E
:107B90000AE0012A05D0002A04BF0120FBF7A7F85C
:107BA00002E00120FBF798F8002010BDD64A1268C9
:107BB000126802F0020202700120087010BD70B558
:107BC0000D46044613F0070F04D003F00700022807
:107BD00008D005E0002A14BF0120002001F0F6FEC5
:107BE000002070BD01F0F9FE002814BF0122002220
:107BF00022700120287070BD70B503F00700C14DE0
:107C00001446012808BF002016D013F0070F14D126
:107C1000E889002808BFAA710CD001280AD1A879E8
:107C2000FBF797F8A8792040FBF756F8A879A0430E
:107C3000FBF75DF8E889401CE881002070BD2DE964
:107C4000F00103F00704AF4E059F012C04BF002094
:107C5000F08135D013F0070FAA4BAC4DDB8903F14F
:107C6000010C1FFA8CFC02D0022C2DD028E0A84970
:107C70000868C254781E834220D10868007830B169
:107C800001280AD002280ED0032812D016E0086876
:107C90002968407881F8800110E0086829684078F8
:107CA00081F881010AE008682968407881F882013A
:107CB00004E008682968407881F88301A6F80EC0BE
:107CC000BDE8F00100207047904A126813B1012B03
:107CD0000AD014E092F8801101F00F0392F881119C
:107CE00063F31F1101700AE092F8823192F8832148
:107CF00003F00F0363F31F12027001200870A6F84F
:107D00000EC0BDE8F0010120704710B4DFF804C2D6
:107D100013F0070F04D003F00702022A18D014E072
:107D2000012A01D04AB110E0DCF80000806ADCF8DA
:107D3000001020F00300886207E0DCF80000806A91
:107D4000DCF8001040F00300886210BC002070478F
:107D5000DCF80020926A02700120087010BC7047A5
:107D600070B503F007000025664C0E46012806D0CA
:107D700013F0070F04BF6079022805D019E0022034
:107D80006071E581E56214E0E089A18A884207D24A
:107D9000614811460068FBF71AFCE089401CE0814D
:107DA000A18A80B2884204D1E5810120307003208D
:107DB0006071002070BD2DE9F04103F0070200253D
:107DC000504C0E460746012A02D0022A06D002E095
:107DD00002206071E5810020BDE8F0816079022811
:107DE00014D1E189A08A814207D24B480068FBF791
:107DF0001CFC3870E089401CE081E089A18A88423F
:107E000004D1E58101203070032060710120BDE8BC
:107E1000F08110B503F007023A4C012A02D0022A81
:107E200027D024E003F072F90023002804BF236365
:107E3000A3821BD000F1540121634168B1F5887F12
:107E400090F820100CD390F8212001EB020C01FBDC
:107E500002C190F8222090F823001044084404E066
:107E600090F822000A1801FB0020A082E381002084
:107E700010BDE289A38A9A4207D2D4F830C01CF818
:107E800002C080F800C0501CE081E089984204BF25
:107E900001200870012010BD10B513F0070F04D0A9
:107EA00003F00702022A05D002E0104601F0F1FAC1
:107EB000002010BD194A127802700120087010BD10
:107EC0001FB513F0070F04D1012202A9092001F008
:107ED000E2F804B0002010BD70B503F007000949B6
:107EE000012804BF0020C88130D013F0070F2DD126
:107EF000C889074C03283CBF23681A54401C80B231
:107F0000C8810DE0E805002010A51100E80600205A
:107F100048A5110018A5110034A511002D06002058
:107F2000032813D1F9F76EF82068B0F8010045BABC
:107F3000F8F786FE040018BFF9F7A0F929460020DB
:107F4000F8F7D5FD002C18BFF9F79AF9002070BD9D
:107F500070B503F00700F949012804BF0020C8816B
:107F600024D013F0070F21D1C889F54D02283CBF5A
:107F70002B681A54401C80B2C881022816D1F9F728
:107F800041F8F8F75DFE040018BFF9F777F92868A3
:107F9000007818B128684078F8F7ADFD2868407877
:107FA000F8F7A9FD002C18BFF9F76AF9002070BD99
:107FB00013F0070F04BFE148C270002070477FB57F
:107FC0000D46044613F0070F04D003F00700022803
:107FD00008D004E0012202A90E2001F05CF804B0F0
:107FE000002070BD04F002FD002814BF0122002211
:107FF00022700120287004B070BD7FB50D46044684
:1080000013F0070F04D003F00700022808D004E0A3
:10801000012202A90F2001F03EF804B0002070BD3B
:1080200004F0D5FC20700120287004B070BD10B59C
:1080300003F00700DFF804C30299012804BF002001
:10804000ACF80E001AD013F0070F17D1BCF80E00D1
:10805000BB4B03283CBF1C682254401C80B2ACF8C8
:108060000E0088420AD118681968B0F80100097832
:1080700040BA00B2002908BFFCF770FF002010BD15
:1080800010B503F00700DFF8B4C20299012804BF5D
:108090000020ACF80E0017D013F0070F14D1BCF875
:1080A0000E00A74B03283CBF1C682254401C80B222
:1080B000ACF80E00884207D11868B0F8010041BA48
:1080C00018680078F9F758FC002010BD70B503F06F
:1080D00007029A4CDDF810C0012A02D0022A07D00C
:1080E00004E00020E081FBF7C5F8E062002070BDED
:1080F000E289624506D2C2F10303E56ADB0025FA94
:1081000003F30370501C80B2E081604504BF01207E
:108110000870012070BD70B5044603F0070C002004
:10812000864DBCF1010F06D013F0070F07D0BCF14C
:10813000020F13D010E0E8812882A8710CE0E889D2
:10814000002808BFAA7104D001227E49102000F047
:10815000A2FFE889401CE881002070BD2A8A3AB15C
:10816000207001200870288A401C2882012070BDE0
:1081700004F0C1FC2070F6E770B50D46044613F01C
:10818000070F04D003F00700022805D002E01046D4
:1081900006F04EF8002070BD06F04DF8207001206A
:1081A000287070BD10B513F0070F1FD1500048F6AE
:1081B000B801B1FBF0F4644903200968C8610121EA
:1081C0007F20F8F741F9E1B24FF48470F8F73CF9F9
:1081D000204611F0C2FB5D4A5D4B11F025FC11F009
:1081E0008FFBC1B24FF48570F8F72EF9002010BD57
:1081F00010B513F0070F4ED1122A4CD2DFE802F06F
:10820000090E132B2B2B2B303336393C4B4B4B3F6A
:10821000424750490020096808773CE04D49012059
:108220000968087737E0484903200968C8610121D7
:108230007F20F8F709F915214FF48770F8F704F952
:1082400075214FF48470F8F7FFF84D214FF48570D5
:10825000F8F7FAF81FE00021D01E04F096FC1AE0AF
:10826000F9F75BFE17E0F8F7BEFF14E0F8F7B8FE89
:1082700011E004F040FB0EE004F050FB0BE0FDF7D2
:108280001BFE08E0334902200968088603E03149F3
:10829000002009680886002010BD10B5144613F0B0
:1082A000070F16D1072C14D8274903200968C86185
:1082B00002217F20F8F7C8F8052040EA041140F2B7
:1082C0000220F8F7C1F804F188014FF40170F8F7C3
:1082D000BBF8002010BD7FB50C46054613F0070F14
:1082E00004D003F00700022808D004E0012202A90C
:1082F000062000F0D0FE04B0002070BDFCF7CCFAE0
:10830000022808BF00200BD0032808BF022007D096
:10831000042808BF032003D0052814BFFF20012034
:1083200028700120207004B070BD10B5104613F005
:10833000070F08BF04F075FB002010BDE805002002
:1083400048A51100EE0500201CA511001F85EB516A
:10835000B81EE53FE806002010B5104613F0070FE1
:1083600008BF04F06AFB002010BD70B5044603F09E
:1083700007000D4602281CBF002070BD04F06AFBF8
:1083800020700120287070BD70B403F00702002433
:10839000FE4BDDF80CC0012A05D0022A04BF5A7931
:1083A000022A0AD01BE002205871F948DC816FF0E4
:1083B0007F410068081AD86211E0DA89624506D266
:1083C000DE6AD50026FA05F50570501CD881D889DB
:1083D000604504D1DC81012008700320587170BC15
:1083E0000120704713F0070F04BFEA480270002015
:1083F000704710B5944603F00700E449029A01283B
:1084000004BF0020C88112D013F0070F0FD1C88914
:10841000E14B90423CBF1C6804F800C0401C80B295
:10842000C881904203D10D20196800F034FE00206D
:1084300010BD70B503F00704D44D012C0AD0AC4632
:1084400013F0070FBCF81230DCF830C006D0022C55
:1084500021D01EE00020E88128821AE0E889002867
:1084600008BF2A6312D0012804BF501C68820DD0B7
:10847000022816BFC11EAA82994207D2297D08444C
:10848000C01EC1B20CF0FF00F9F729FCE889401CBE
:10849000E881002070BDFF22027093B12A8A9444C3
:1084A000521CBCF5807F0BD20CF5801C0CF5F83CFF
:1084B0009CF800C080F800C09A4204BF01200870F8
:1084C0002A82012070BD2DE9F04103F00705002646
:1084D000AE4C9446012D04BFE681268224D013F0D1
:1084E000070FAA4B5A8A1B6B02D0022D28D01BE023
:1084F000E089002808BFC4F830C012D0012816D087
:10850000A549801E90423CBF0D6805F800C0401C84
:10851000904206D103F58010096800F5F830FAF7AB
:10852000B9F9E089401CE0810020BDE8F0810CF140
:10853000010060821844B0F5807F88BF6682F0E752
:108540004FF0FF0C80F800C09AB1258A03EB050CB0
:108550006B1CBCF5807F0BD20CF5801C0CF5F83C35
:108560009CF800C080F800C0934204BF012008704E
:1085700023820120BDE8F08110B5944603F0070086
:108580008249029A012804BF0020C88112D013F04A
:10859000070F0FD1C889804B90423CBF1C6804F87C
:1085A00000C0401C80B2C881904203D102201968EB
:1085B00000F071FD002010BD10B5944603F00700D7
:1085C0007249029A012804BF0020C88112D013F01A
:1085D000070F0FD1C889704B90423CBF1C6804F84C
:1085E00000C0401C80B2C881904203D103201968AA
:1085F00000F051FD002010BD13F0070F05D003F06F
:108600000700022804BF01207047002070471FB5F3
:1086100013F0070F04D1012202A9112000F03BFD45
:1086200004B0002010BD03F00701DFF860C100981E
:10863000012907D013F0070F04BF9CF8051001298A
:1086400009D01FE001208CF805000020ACF80E00D6
:10865000CCF8280014E0BCF80E10814208D2DCF8F7
:108660002830491C42EA0322CCF82820ACF80E102E
:1086700089B2814206D103208CF80500DCF828007D
:10868000CCF830000020704703F007003F494FF05E
:10869000010C012806D013F0070F04BF4879012808
:1086A00007D014E081F805C00020C8810871486235
:1086B0000DE0C889002804BF0A71A1F80EC006D0D9
:1086C000012806D00323022818BF4B7106D00020D2
:1086D0007047100248620220C881F8E7486A1043D8
:1086E00048624B71F3E770B5154613F0070F0FD1D1
:1086F0002A49264C09682079C861A08CC0F307215B
:108700007F20F7F7A1FE94F824002946F7F79CFE96
:10871000002070BD70B5044603F007000D46022826
:108720001CBF002070BD1948818C007989B2F7F711
:108730003FFE20700120287070BD03F00701134830
:10874000012904BF0021C18103D013F0070F08BF26
:10875000827200207047F8B503F0070200230E4E26
:108760000A4F012A02D0022A2FD02CE00024022036
:1087700000937871FB81B87A4FF44835834222DA4E
:10878000042269462846F9F789FC09E0E80500203B
:10879000A00500203205002048A511001CA51100ED
:1087A000316800980855316800982144000A4870E3
:1087B0000098000C88700098000EC870B87A241DCC
:1087C0002D1D8442DCDB0020F8BD7A79022A15D108
:1087D000FA8997F80AC0624507D2D6F800C01CF89B
:1087E00002C080F800C0501CF881F889BA7A904223
:1087F00004D1FB8101200870032078710120F8BDAD
:1088000010B503F00700FC49012804BF0020C8810F
:1088100018D013F0070F15D1C88991F80AC0F74B8B
:10882000604505D2D3F800C00CF80020401CC88178
:108830008A7A80B2904205D18A7A4FF4483019681A
:10884000FAF728F8002010BD70B54FF444324FF409
:10885000407101FB00240120F8F705FAFDF72CFB1D
:10886000FCF778F90546F8F7BEFCE34B4FF41072BD
:1088700020461C639A822946BDE87040FAF70AB880
:1088800070B513F0070F18D14FF444314FF4407016
:1088900000FB02140120F8F7E6F9FDF70DFBFCF7E9
:1088A00059F90546F8F79FFCD34B4FF41072204658
:1088B0001C639A822946F9F7EDFF002070BD13F082
:1088C000070F04BFCC48427200207047F8B503F090
:1088D00007020027C94EDFF820C3012A02D0022A6E
:1088E0002DD02AE09CF80900002400EB40004FF452
:1088F000443101EB0025022000978CF80500ACF80C
:108900000E704FF41070ACF814000422694628462B
:10891000F9F7C4FB316800982D1D0855316800989F
:108920002144000A48700098241D000C88700098AB
:10893000000EC870B4F5107FE7DB0020F8BD9CF88E
:108940000520022A16D1BCF80E20BCF814309A4239
:1089500005D23468A45C0470501CACF80E00BCF85E
:108960000E00984206D1ACF80E700120087003206A
:108970008CF805000120F8BD03F00701DFF878C28C
:108980000098012907D013F0070F04BF9CF80510C9
:10899000022909D01FE002208CF805000020ACF865
:1089A0000E00CCF82C0016E0BCF80E10814208D264
:1089B000DCF82C30491C42EA0322CCF82C20ACF81D
:1089C0000E1089B2814206D1BCF82C00ACF814001C
:1089D00003208CF805000020704770B503F00700F5
:1089E0000025854C0E46012806D013F0070F04BF62
:1089F0006079022805D023E002206071E581E562FC
:108A00001EE0E089A18A884211D2E16A090A41EA9E
:108A10000261401CE162E08110F0030F07D10422E3
:108A20007749206BF9F736FF206B001D2063E08942
:108A3000A18A884204D1E581012030700320607151
:108A4000002070BDF8B503F0070200256A4C0E4601
:108A50000746012A02D0022A05D002E002206071F6
:108A6000E5810020F8BD6079022822D1E289A08A40
:108A7000824215D212F0030F09D104226946206BFD
:108A8000F9F70CFB0098E062206B001D206394F85E
:108A90002C003870E06A000AE062E089401CE08146
:108AA000E089A18A884204D1E58101203070032049
:108AB00060710120F8BD70B403F0070200254E4C30
:108AC000012A02D0022A06D002E002206071E5816C
:108AD00070BC002070476279022A1CD1E289B4F888
:108AE00014C062450FD212F0030F04D1236B53F868
:108AF000046BC4E90B6394F82C300370E06A000A3D
:108B0000E062501CE081E089604504D1E5810120EC
:108B100008700320607170BC0120704730B403F00E
:108B200007000024DFF8D0C0012807D013F0070F9A
:108B300004BF9CF80500022808D025E002208CF82C
:108B40000500ACF80E40CCF82C401DE0BCF80E003F
:108B5000BCF8143098420CD2DCF82C502D0A45EAAF
:108B60000262401CCCF82C20ACF80E0010F0030F71
:108B70000DD0BCF80E00984206D1ACF80E40012092
:108B8000087003208CF8050030BC00207047DCF82A
:108B90003000B0F5002F28BF0260001DCCF8300077
:108BA000E7E730B403F007040025DFF84CC0012CE0
:108BB00008BFACF80E503ED013F0070F02D0022CC5
:108BC0003CD038E0042A08BF4FF42C3031D01DDCF3
:108BD000002A08BF4FF480102BD0012A08BF094893
:108BE00027D0022A08BF4FF48E1022D0032A08BFD4
:108BF00005481ED01AE00000E805002048A5110035
:108C00001406002000FE110000F81100052A08BF1C
:108C1000FC480ED0FC48102A00680AD0112A08BF70
:108C2000FA4806D0202A08BFB43002D0CCF8285029
:108C300001E0CCF8280030BC00207047BCF80E20C2
:108C4000042A07D2C2F10303DCF82840DB0024FA2F
:108C500003F30370501C80B2ACF80E00042824BF4C
:108C600001200870012030BC704710B503F00700E8
:108C7000012804D1002211460C2000F00CFA00203B
:108C800010BD2DE9F04103F0070CE14E069D0F46A3
:108C90000446BCF1010F04BF0020F08117D0DC496D
:108CA00013F0070FCB8903D0BCF1020F12D00EE0F6
:108CB000D849022B3CBF0868C254581C80B2F081CE
:108CC000A84204D102220968052000F0E4F900203E
:108CD000BDE8F08113B1012B04D008E0FBF7DCFD07
:108CE000207004E0FBF7DBFD207001203870F08974
:108CF000401CF0810120BDE8F08170B503F0070051
:108D0000C34D012803D013F0070F05D024E0002045
:108D1000A862E862A8711EE0BD49EC8991F806C01E
:108D2000886A0CEB0201CBB2022C03D242EA00208B
:108D3000A86206E0B649042CC96A04D242EA0120BE
:108D4000E862AB7105E0052C03D2624508BF00F074
:108D50009DFFE889401CE881002070BD10B503F03C
:108D600007011046012905D013F0070F08BF00F0D6
:108D700059F904E0A649002088628871C881002062
:108D800010BD10B5104613F0070F08BF00F04AF9E8
:108D9000002010BD70B5032600244FF48E1505EB9E
:108DA0000430F9F7F9FA022808BF70BD601CC4B29C
:108DB000B442F4D3012070BD30B403F007030024A3
:108DC000DFF84CC2029A012B02D0022B0CD008E033
:108DD00005208CF80500ACF80E409CF808008CF8D3
:108DE000060030BC002070479CF80530052B14D1DC
:108DF000BCF80E30934205D29CF806500570581C02
:108E0000ACF80E00BCF80E00904206D1ACF80E4053
:108E10000120087003208CF8050030BC0120704749
:108E20002DE9F0477CA0DDF820C0006803F00705BD
:108E30000027774E774C012D03D013F0070F06D093
:108E400034E0F78120680770206847702EE0F389CE
:108E5000634503D22568EA545A1CF281F2896245BF
:108E600024D1F7814FF0010881F800802168C2B257
:108E7000097891421AD12168C0F3072049788142CC
:108E800014D1032500244FF48E1909EB0430F9F7AF
:108E900083FA022804D0601CC4B2AC42F5D3404629
:108EA000012806BF86F80880F77137720020BDE8F8
:108EB000F0872DE9F0414FF0000C03F00700574E0A
:108EC000534C6546012803D013F0070F0CD068E01F
:108ED0006570A5812562A570002046F82050401CD1
:108EE000C0B24028F9D35CE0607805283CBF401C44
:108EF0006070C0B2012808BF100222D04449022885
:108F0000CB8A08BF98181CD024BFA1898B4248D9AE
:108F1000434F01F0030001F101083A54A7F1340076
:108F20004FF48E12006A984502EB002008BF002122
:108F300009D1491CC9B20429FBD33849F9F7CDFA44
:108F400026E0E0822DE0032232EA010120D17A5CA2
:108F5000CB009A40491CC9B242EA0C0C0429F6D352
:108F6000A17801F03F02491CC9B246F822C0A170A5
:108F700040290DD12949F9F7B0FAA570206A401CA3
:108F80002062002046F82050401CC0B24028F9D38F
:108F9000A089401C80B2A081E18A884204BF0120E0
:108FA000E0710020BDE8F08110B503F00700DFF8A4
:108FB00060C00299012804BF0020ACF80E001FD049
:108FC000022804BF012010BD13F0070F18D1BCF810
:108FD0000E00104B88423CBF1C682254401C80B2DB
:108FE000ACF80E0088420BD118684178408840BA2E
:108FF00061F31F401968097840EA016005F055FBEC
:10900000002010BD00F01100E806002054100020E0
:10901000E805002048A5110055AC0000F033002001
:109020001C06002010B5124C2146E2898B6A897912
:10903000022A05D240EA03220844A262A07112E08B
:10904000B2F5817F08D20B490968114401F8020C7E
:10905000A1790844A07106E008BF884203D10649FF
:10906000184600F02DFEE089401CE08110BD000094
:10907000E805002048A51100F0330020DC4800215D
:1090800001704170C1700171DA4A08461154401CE8
:109090000428FBD3704710B4D54C6378002B1EBF57
:1090A000002010BC7047E07022710020002A88BFA9
:1090B000D04B06D911F800C003F800C0401C824212
:1090C000F8D80120607010BC7047C94840787047DC
:1090D000C74880787047C64900208870704770B5CF
:1090E0000024FAF790FBC24D6878012806D100F001
:1090F00012F804461E20E87000206870FBF7CCFBD5
:10910000022802D101F0AEFD18B9002C04BF0020E6
:1091100070BD012070BD2DE9F05FB5480024C07816
:109120001E2880F06281DFE800F0121E2C350F410E
:10913000FD4597A0A6ABE4FCB9C7CCD1979797970C
:10914000979797979797FBFAFBF705FC16E0FBF7C5
:10915000A3FBA74C6071A01D01780120FBF7AEFBBB
:109160000120A0700AE0A348007801F0C9FF0121A6
:109170000320FBF7A3FB9E4901208870012400F027
:1091800034B99C484178007841EA002003F0E2FAC3
:1091900000F02BB99748007803F0E1FA042103208E
:1091A000FBF78CFB924901208870E7E791484178F2
:1091B00000789BE0DFF8388200264FF0010A08F1C2
:1091C000060BB146012788F802A088F8019098F8AC
:1091D0000000D0BB9BF8005088F800A015F0100FDD
:1091E00011D00120F7F73FFDFBF759FBA8B3F8F7C3
:1091F000BFF9FF210F20FBF7D8FE074645F0010518
:109200000020F7F78AFD15F0010F1CD0FAF736FCA5
:109210000020FAF7BBFE0120F7F725FDFAF788FDDD
:1092200001460220FBF742FD0220FBF71DFDF7F788
:10923000DAFFFAF77DFDFAF78CFEFAF779FD4FF4C5
:1092400090610FF0B2FE88F8009088F80290002F2D
:109250001CBF761C032EB5DBC7E0FFE7F8F788F9E3
:10926000FF210F20FBF73DFFC7E762480078401E53
:1092700001F05EFC82E75F48007803F0F5FB7DE7D4
:109280005C480078002804BF0021032003D003F0CD
:10929000C2FB01460220FBF711FBA6E0554D2878E2
:1092A000002818BF012003F097FB2878002818BF7A
:1092B000012000F023FD98E04E48007803F07DFB8C
:1092C0005CE74C48007803F0E2FB8EE04948007808
:1092D00020B1012856D0022804D086E04648F8F78D
:1092E000E3FF82E001F03FFD00210420FBF7E6FAF6
:1092F00044E73F484FF0000880F801804646454665
:1093000072B6FAF773F848B1FAF72EF90646FAF78B
:109310000BF9FAF72FF90546FAF716F903E060E0C2
:1093200055E043E02FE0F7F76DFEF7F789FC814643
:10933000F8F727F8F9F790FF070018BFF9F78BFF48
:109340004FF41870F9F763FF62B62C48C0F800803C
:10935000F8F768FC72B6B9F1000F03D0F7F752FEC8
:10936000F7F741FFFAF742F838B1002E18BFFAF7C5
:109370003FF8002D18BFFAF77AF8002F18BFF9F759
:1093800068FF62B631E01B480078012804BF022163
:109390000520ABD0022804BF00210320A6D003285B
:1093A00019BF02210846002104209FE711480178D7
:1093B000427841EA02218278C078120442EA0060D1
:1093C00041EA00026221072002F035FF0DE0F8F7C4
:1093D000BEFD0120F7F747FCFAF7E6FEF7F703FFBB
:1093E000CCE60448007800F0F2F82046BDE8F09F93
:1093F000200600202606002000FE11006405002043
:1094000002460020022928BF704752B1012A18BF26
:10941000704701EB810000EBC100FE4901EB001039
:10942000704701EB410000EBC100FB4901EBC010AC
:10943000704700FB01F2B2F5307F9CBFF74AC2E9EA
:10944000020170470028F54A926818BF0260F3488D
:109450000029C06818BF086050437047EF480121D9
:109460000171007880F0010000EB400101EBC000C9
:10947000E94901EBC0107047E8488278002132B119
:10948000C27822B9027882F0010202708170017103
:109490007047E24910B54C7848701E2808BF00207C
:1094A00008D01F2808BF012004D00E2808BF812043
:1094B00002D000E00870012003F0E9FA204610BD58
:1094C000F0B4D64E96F800C0B5680CEB4C0404EB33
:1094D000CC0CD14C8D4204EBCC1C03FB05F40CEB03
:1094E000440C34BF2C460C46F768FE1A964228BF3F
:1094F00016461A44974224BF0023002E9CBFF0BC9E
:1095000070470022002C06D930F812702CF8127027
:10951000521C9442F8D85B1C0CEB450C00EB41004C
:10952000B342EED3F0BC70472DE9F041BB4F144677
:109530008C4601467A7806981D468A4218BFBDE8D7
:10954000F0810121F970012802D0022825D02AE0FB
:109550003878BE6800EB400101EBC000AE49A6427E
:1095600001EBC01134BF32462246F868A84238BF2A
:1095700005460023002D16D90020002A06D91CF824
:10958000007021F81070401C8242F8D85B1C01EB7F
:109590004601A444AB42EFD305E000232A4621460E
:1095A0006046FFF78DFFBDE8F04100F0EBB910B564
:1095B000002808BF10BD01229849CA7049780023CD
:1095C0000821FFF77DFFBDE8104000F0DBB9934AAA
:1095D00001281146D071497808D000280CBF2429F1
:1095E000704730205070012003F051BA2420507091
:1095F000012003F04CBA8948C079704770B4DFF895
:1096000020C2DCF800C0DCF818C01CF0040F1ABF40
:10961000012424EA0C060CF0010605680C68002EF3
:109620001CBF1B1B5C1E1CF0020F1CBF521B551ED7
:109630001CF0040F19BF04600D6005600C6070BC65
:10964000704710B5002808BF10BD01227349CA70C9
:109650004A787449DFF8D0C102220B789CF80010D8
:10966000FFF72EFFBDE8104000F08CB92DE9F04364
:109670006A498BB00122CA706C4A49781578694AE8
:109680002529147824BF0BB0BDE8F083DFE801F092
:10969000134D4D4D134D4D4D4D4D4D4D4D4D4DFDBE
:1096A0004D555555FDFDFDFDFDFDFDFDFD4DFDFD42
:1096B000FD7D7DFD8500002800F002810646002723
:1096C000F7F76EFE5FEA000C16D0544908788F68F1
:1096D00000EB400202EBC0004F4ABD4202EBC0105B
:1096E00094BF2B463B46C968A14238BF0C460021B7
:1096F000002C06D800F0E4B83B4622462946304606
:1097000048E00022002B08D91CF9028036F81880A6
:1097100020F81280521C9342F6D8491C00EB4700F7
:1097200006EB4506A142ECD3CAE0002870D0002326
:1097300022462946FFF7C4FEC2E03D4800780128D2
:1097400084BF3C480478F7F7DDFC10F0020F18BF27
:10975000641CFBF7FFF9002205FB04F3002BC4BFD8
:10976000DFF8B8C02C4C53DD10F8015B9CF80010FA
:1097700001EB410606EBC10104EBC11121F81250C7
:10978000511C8AB29342EFDC9AE0002840D00023BB
:10979000A21C2946FFF794FE92E0002838D0064626
:1097A0001F480068007E10F0040F0EBFA946A146B6
:1097B0002C46A9EB9900A4EB94014A1E0592401E89
:1097C00006924FEA990100904FEA5902CDE9011241
:1097D000039004916208A008CDE907200990234670
:1097E0004A4605A96846FFF709FF23464A4605AFE2
:1097F00006A9E84601A8FFF701FF23464A4607F1FC
:10980000080108F10800FFF7F9FE23464A4613E075
:1098100056E00000F0420020F03700202C06002027
:10982000E8060020BB050020C1050020BA05002085
:10983000BC050020BE05002007F10C0108F10C005A
:10984000FFF7DCFE23464A4607F1100108F110003D
:10985000FFF7D4FE58480078002200EB400101EBEE
:10986000C0005649914601EBC01020F8129058F8FC
:109870002210A1F1010C491C61451ED357F822109A
:109880004B1E491C994211D300E01EE003FB05C1A9
:1098900036F9114030F912108C42C8BF20F812403E
:1098A00057F822105B1C491C9942EDD258F822103F
:1098B0000CF1010C491C6145E0D2521C052AD4D39D
:1098C0000BB0BDE8F04300F05DB80BB0BDE8F0832D
:1098D00039491E288A79887108BF002003D01F28C3
:1098E00008BF012000D148711046704770B50D4681
:1098F00031490122CA70324A49781678314A212901
:1099000014781EBF2229232970BD002818BF002DFE
:1099100011D0002322463146FFF7D2FD631C0122FD
:1099200021462846FFF7CCFD05EB4400A31C01228D
:109930003146FFF7C5FDBDE8704000F023B810B513
:109940001D4C6178002904BF4068FFF78FFE6078E6
:10995000112804BF0020FFF789FE6078122804BF99
:109960000020FFF783FE6078132803D1FCF764FB27
:10997000FFF77CFE60781D2818BF10BD1248BDE8B7
:10998000104073E670B5F9F73EFC00F008060820B9
:10999000F9F734FC084C20790025002801BF207815
:1099A00080F001002070A5701CBF0120A07030461F
:1099B000F9F720FCE57070BD2C060020F037002080
:1099C000BA050020BB05002080640020AC490028B7
:1099D00014BF0020012008707047A94800780028B3
:1099E0000CBF0120002070470120A5494870704736
:1099F000A34800214170017800291ABF406800285F
:109A000070470120F9F773B910B59D4C20780028F4
:109A10001CBF0120F9F760F900206060A060E060E1
:109A20002061606110BD10B5954C207800281CBFE6
:109A30000120F9F751F900206060A060E06020612A
:109A4000606110BD70B50446F9F7DDFB00F0080554
:109A50000820F9F7D3FB8A4A8A490023106901EBF1
:109A6000C001401C1061B0F5807F28BF13612078D1
:109A7000087060784870A0788870E078C8702079A5
:109A8000087160794871A0798871E079C87150696E
:109A9000B0F5807F3CBF401C506116D31D2008707C
:109AA00001204870207888706078C870A0780871AC
:109AB000E0784871207988716079C871D068401C5D
:109AC000D060B0F5807F28BFD360506840F00100BF
:109AD0005060107828B15078002804BF0120F9F7B1
:109AE00006F92846F9F786FB012070BD10B501780C
:109AF000022211F003011CBF0129022902D1FFF744
:109B0000A1FF0246104610BD2DE9F0415C4E04460F
:109B10003046726803780025002A1CBF00204FF0F1
:109B2000010C54D0B1680CFA01F7174207D1491C57
:109B3000B1600D2928BFB560401C0D28F2D3B16873
:109B400009B3514800EBC1000CFA01F122EA01010E
:109B500008387160317D02782270427862708278B4
:109B6000A270C278E27002792271427962718279C0
:109B7000A271C07901F03F0100F0C0000843E0711C
:109B80007068D8B915E0716909B33E48D6F80CC0C1
:109B900000EBCC000CF1010CC6F80CC0BCF5807FCA
:109BA00028BFF560491E716104BF22F00101716098
:109BB000D0E7002B1CBF0120F9F78EF8B068401CDD
:109BC000B0600D2828BFB5600120BDE8F081002BF2
:109BD0001CBF0120F9F780F825706570A570E5704D
:109BE00025716571A571E5710220BDE8F0812449F8
:109BF00010B44A6800204C69002A19BF01210B46A5
:109C000010BC704703FA01FC1CEA020F18BF401C8D
:109C1000491C0D29F6D312F0010F18BF204410BCC7
:109C2000704700B50178427883B0890102F00702DD
:109C300041EA82018DF80010418809098DF8011070
:109C4000818809098DF80210817801F00F020179ED
:109C500062F31F118DF80310017A8DF80410417A18
:109C60008DF80510807900F03F008DF80600002087
:109C70008DF807006846FFF7E5FE03B000BD000061
:109C80003C060020F04400209044002070B50E46B1
:109C900080280CD28119491E802908D2050300248E
:109CA000002E04D92846F8F777FB012801D00020C0
:109CB00070BD641C05F58055B442F3D3012070BD1E
:109CC000B0F5006F24BF0020704710B50002F8F710
:109CD00004FC012818BF002010BD10B5064CFFF78A
:109CE000FEF9012808BF10BD206801F007F900281F
:109CF00018BFFAF70BFEF2E7E8060020FE4A00283C
:109D0000516814BF41F0010021F00100506070471C
:109D1000F94B59680A0E120721F07F4142EA0060B0
:109D2000084358607047F4484068C0F303607047C8
:109D300070B5F14DAA68521CAA604FF0000C0028C3
:109D4000C8BFC5F80CC00ED06A6812F0010F40D031
:109D5000EA4BC2F3036214001B6808D0022A18BF42
:109D6000002413D028E0EA68521CEA60ECE70028DF
:109D7000C8BF022422DC93F81601A96888421BD8C8
:109D800002240120C5F808C0286117E0002918BF87
:109D90000A2402D004F087FC10E068B9B3F812017D
:109DA000E968884238BF0024F4D32869012804BF39
:109DB0000024C5F810C001D094420AD06868010E92
:109DC000090720F07F4041EA0461084368600120F0
:109DD00070BD002070BD2DE9F041C74D044600263E
:109DE000E8693746012806D16068F9F7A5FF286AB7
:109DF000032808BFEF616068B0B103F01BFC0028C6
:109E0000C8BF01260FDC2888401C2880BB4800689A
:109E1000017F11F0010F07D0807F2988814203D98B
:109E20006068F9F789FF2F803046BDE8F0410021D6
:109E30007EE72DE9F0478CB04FF000084FF0FF317E
:109E40000491AD4E406889464446474606AAC2463C
:109E5000D0B1CDE902A9CDF800A0002304A9CDF826
:109E600004A000F0C2FB074600F0B9FB0446A4487A
:109E70000078012804BF2046FFF7F8FB049800286B
:109E8000C8BFA6F800A002DC3088401C30809B4888
:109E90000068017F11F0010F15D0B0F8140131886E
:109EA000814202D8306901280DD15346A6F800A09E
:109EB000CDE900A4CDF808A03A464946CDF80CA05B
:109EC0000498FAF7C7FC0498012818BF00204146FF
:109ED000FFF72EFF0CB0BDE8F0878A4801680969DA
:109EE000006841F001010161874801684969026821
:109EF00041F40071516101680969026841F004018F
:109F0000116101680969006841F0100101617F4831
:109F100001680968006841F0010101607C4800782F
:109F20000022754900281CBF4A8070474888B0F558
:109F30007A7F87BF4A8030BF401C488070472DE938
:109F4000F04F87B004460025052700F01FFF0028CA
:109F500004BF07B0BDE8F08FFAF79EFC8146FAF720
:109F60009EFC80460F212046FAF762FD002804BFC0
:109F700007B0BDE8F08F0420DFF898A1DAF80010F0
:109F80008860DAF80010486002212020F7F72CFAE8
:109F90000020F6F7C2FE604C2068406C216840F457
:109FA00000604864012002F0E4FB2068406C2168F6
:109FB00020F400604864F7F716F9DAF8000000684A
:109FC000DAF8001040F00100086030BF4A4C012070
:109FD00000262662E061DFF824B1FFF780F801284F
:109FE00044D0FAF759FC484540D1FAF758FC4045AF
:109FF0003CD16846F7F7B5FB002833D0206A401CF7
:10A0000020626846FFF79BFCE0690025012806D125
:10A010000198F9F791FE206A032808BFE6610198CC
:10A02000B0B103F007FB0028C8BF01250FDC208872
:10A03000401C2080DBF80000017F11F0010F07D0E9
:10A04000807F2188814203D90198F9F775FE268027
:10A0500000212846FFF76CFE0546F7F79FFBFAF74D
:10A060006BFC01E0FAF747FC002DB6D0DAF80000EF
:10A070000068DAF8001020F0010008600020F7F70F
:10A0800025F9F6F709FBFAF707FC052805D0FAF7DA
:10A0900003FC07460520FAF70EFCFAF74CFD052FE6
:10A0A0001CBF3846FAF707FCFBF77BFE1B4801781C
:10A0B0001B480078F7F798F907B0BDE8F08F2DE955
:10A0C000F04F87B0F6F78CFFF9F720F90A4D01241D
:10A0D000A86910B9F7F7A1FEAC61DFF820A0DAF8A3
:10A0E0000000B0F90E11B0F90C0100F017FA04F0FD
:10A0F000D6FA6C6116E0000054060020E806002045
:10A100002D06002018A5110004A5110038A5110086
:10A110003006002020A511001CA51100BB05002061
:10A12000BA050020FAF7B8FB052804BF4FF0000B72
:10A130004F4F26D1DAF800006A68C2F30361D0F805
:10A14000F8008B00D84000F00F00C5F808B0C5F843
:10A150000CB0002970D0022918D004296DD00A292A
:10A1600022F07F404FEA017118BF41F000710843AF
:10A170006860FEF7B4FF012803D0FAF78DFB0528CD
:10A18000D8D007B0BDE8F04F04F08BBA06460024E3
:10A190004FF00508FAF783FB81460F213046FAF7A6
:10A1A00047FC0028E5D000F041FC39687020886049
:10A1B0003968022048602F4E3068406C316840F4A6
:10A1C00000604864012002F0D4FA3068406C3168C5
:10A1D00020F400604864F7F706F8386800683968CA
:10A1E00040F00100086030BFFEF779FF012806D07B
:10A1F0006868C0F30360484508BF002C1ED000F01B
:10A2000015FCFAF749FB052805D0FAF745FB80460F
:10A210000520FAF750FBFAF78EFCB8F1050F1CBFCA
:10A220004046FAF748FB38680068396820F00100BA
:10A230000860FBF77FFD9CE713E015E06846F7F741
:10A2400090FA58B16846FFF77AFB6846FFF7F1FDD0
:10A250000446F7F7A3FAFAF76FFBC5E7FAF74BFBEB
:10A26000C2E7FFF76CFE84E702F079FF81E70000A8
:10A2700020A511001CA51100F0B4FF4EDDE905C4B6
:10A280003668049DB66916F0010F04D01F464B1BBB
:10A29000CD1BDBB2EDB216F0020F06D06746A2EB83
:10A2A000040CD21B0CF0FF0CD4B216F0040F08D033
:10A2B00080F800C04A1B84704270C91AC170F0BC9B
:10A2C00070470370857080F801C0C470F0BC70479F
:10A2D0002DE9F043164601FB06F90D46014685B00F
:10A2E0001F464A46E5480EF0E1FDE44C02F029FC29
:10A2F0004FF0000818B103F09EFF01281AD002F0B9
:10A3000020FC18B103F097FF082842D0B7F5805F12
:10A310001CBF0020B9F1000FDCBF05B0BDE8F08321
:10A320002156794309132154401C8145F8DC05B0BE
:10A33000BDE8F08300210B46002ECEBFDFF838C306
:10A3400005B0BDE8F0830020002D1CDDDCF8002006
:10A3500092F83E919945DCBF92F83F914B450CDC59
:10A3600092F83C918145DCBF92F83D21904204DC9B
:10A3700062567A431213625401E004F80180401CD3
:10A38000491CA842E2DB5B1CB342DCDB05B0BDE844
:10A39000F083AE428CBF701E681EC2B2B54234BF9D
:10A3A000681E701EC1B20420CDE90002002303A87C
:10A3B0000292FFF761FF00210A46002EDCBF05B0C4
:10A3C000BDE8F0830020002D19DD9DF80D3093428B
:10A3D000DCBF9DF80F309A4209DC9DF80C308342B7
:10A3E000DEBF9DF80E30984204F8018003DD63560D
:10A3F0007B431B136354401C491CA842E5DB521CE1
:10A40000B242DFDB05B0BDE8F0832DE9F0411C4628
:10A4100015460E460746F8F7EBFC21462846F8F7A6
:10A4200006FD0623954A31463846F8F716FEBDE884
:10A43000F041F8F7DEBC924A9060D16070472DE998
:10A44000F00F0024DDE90875B7F5805F08BF642DC3
:10A450002AD00026002B87BFA5F16409C5F1640846
:10A46000BDE8F00F70470020002A17D9B0FBF2FAC0
:10A4700031F914C0642D0CFB07FC4FEA2C3C27BFBC
:10A480000AFB09FA0CFB0ACC0AFB08FA0CFB1ACCF3
:10A4900021F814C0401C641C9042E7D3761C9E42F5
:10A4A000E1D3BDE8F00F7047884204BFBDE8F00F6C
:10A4B00070475A43BDE8F00F52000EF0F7BC2DE98B
:10A4C000F04180466C4882B00F4600681D46164633
:10A4D00090F84C10ADF8001090F84D10ADF8021047
:10A4E000B0F84A10ADF80410B0F848000024ADF8F8
:10A4F0000600F8F77DFC6846F8F76EFD2946304601
:10A50000F8F78CFC39464046F8F778FDF8F771FC0F
:10A510005B48046102B02046BDE8F08158490880DC
:10A5200070472DE9F041574E8AB005465448CDE9B1
:10A530000056A6F148080C46CDF80880B0F9001086
:10A5400003913F29C8BF3F2005DC11F1400FB8BF80
:10A550006FF03F0000DA039000200490F8F748FC09
:10A5600049484A4F01783878F8F758FC6846F8F7B8
:10A57000ECFC0890F8F73DFCC4E90068BDF8140055
:10A580002081BDF816006081BDF81800A081BDF8DB
:10A590001A00E081BDF81C002082BDF81E00608218
:10A5A000BDF81C00BDF81E103A7801FB020035F919
:10A5B00010000AB0BDE8F08135487047344B0328DD
:10A5C00038BF18705970002A08BF7047012A01BFB0
:10A5D000987802280320987018BF9A70704728480E
:10A5E000406970472648806970472DE9FF4FADF2FA
:10A5F000A44D82460020DDF8E084CDF89C04ADF83F
:10A600008804471ECDF8900491464FF4906102A84B
:10A610000EF0EDFCB8F1000F1CBF98F80000CDF86B
:10A6200090041A481B4EDFF868B004781648057885
:10A6300011480068008ECDF8940406F59060CDF8BE
:10A640008CA4CDF89804F9F782FA0190002845D03F
:10A6500052462346009510460199F9F755FA0E48DF
:10A660000078022804BF0198FFF700F89BF800006B
:10A6700002282CD1002311E0E8060020F04C002035
:10A6800078060020784F0020BB050020BA05002086
:10A690007A060020F84F00202D060020002D16D944
:10A6A0000020002C0FD903FB040189B2401C3AF9A9
:10A6B000112080B202EB420202EBD27252102AF851
:10A6C00011208442EFD8581C83B2AB42E8D3D8485B
:10A6D0000078092804BF5046FEF7C8FFDDF88C0457
:10A6E0000190D4484661F9F723FB82469BF80100AC
:10A6F000012820D19BF80000012842D002280CBF7D
:10A70000B42300230022002D12D90020002C0BD9E5
:10A7100002FB040189B2401C3AF811C080B29C448B
:10A720002AF811C08442F3D8501C82B2AA42ECD35A
:10A73000C1490220487023465246009502A801995B
:10A74000F9F7E2F9DFF8E8B29BF80000032804BF4C
:10A750005046FEF78BFF9BF80000052804BF02A8B7
:10A76000FEF784FFDA469BF80000062804BF02A823
:10A77000FEF77CFF0DF1080B9AF8000022280DD19E
:10A7800008E09BF80200012814BF6FF0D1036FF0BE
:10A79000B303B7E700215846FFF7A8F8DDF89404A3
:10A7A00010F0010F12D0F8F723FB29462046F8F7E6
:10A7B0003EFB0623A14A59463046F8F74EFCF8F70F
:10A7C00018FB9AF8000008280FD011E064214FF41C
:10A7D0008050CDE900012B46224659463046FFF70E
:10A7E0002EFE9AF80000082802D13046FEF73EFF00
:10A7F000DDF8940410F0060F2DD09148CDF8944464
:10A800000024006890F84C10ADF8001090F84D103E
:10A81000ADF80210B0F84A10ADF80410B0F84800D6
:10A82000ADF80600F8F7E4FA6846F8F7D5FB2946D4
:10A83000DDF89404F8F7F2FA31460846F8F7DEFB43
:10A84000F8F7D7FA7B4804619AF800000A2804BF99
:10A850003046FEF70BFFDDF8A804B0B1B9F1000FE8
:10A860001CD0DDF89C0400900DF591635A463046EB
:10A87000DDF89814F9F7D8FD0746B0F1FF3F12BF95
:10A88000002F0020ADF8880402E0B9F1000F05D0D8
:10A8900049463046FFF745FEA9F814009AF8000033
:10A8A000072804BF3046FEF7E1FEDDF8A8040028C3
:10A8B00018BF0760DDF8D80400281CBFBDF8881455
:10A8C0000180B8F1000F1CBFDDF8900488F800008B
:10A8D000DDF88C040DF2B44DBDE8F08F5948704797
:10A8E0002DE9F05F81465848174688460078554C58
:10A8F0004600F9F743FBDFF838B1824600259BF8A4
:10A900000000042804BF4846FEF79BFE9BF80000A9
:10A91000052804BF4846FEF794FE9BF80000032874
:10A9200004BF5046FEF78DFE9BF80000232804BFAD
:10A930004846FEF786FE0020002E09D939F810108F
:10A940003AF81020891A24F81010401C8642F5D8D5
:10A950009BF80000062804BF2046FEF772FE9BF815
:10A960000000222804BF2046FEF76BFE0020711E67
:10A9700018BF0A4612D004EB400134F81030498861
:10A98000C91A09B224F810100029B8BF494209B207
:10A99000A942C8BF0D46401C9042ECD304EB4600D0
:10A9A00020F8025C9BF800000A2804BF2046FEF74E
:10A9B00048FE9BF80000082804BF2046FEF741FE31
:10A9C0009BF80000072804BF2046FEF73AFE9BF8DC
:10A9D0000000012804BF2046FEF733FE9BF800006C
:10A9E0000E2804BF2046FEF72CFE9BF8000021280D
:10A9F00004BF2046FEF725FEB8F1000F10D0104925
:10AA00004FF0FF300968B1F97220AA42B8BF0120A7
:10AA100004DBB1F970108D42B8BF0020C8F8000007
:10AA2000002F18BF3D804846BDE8F09F7047704733
:10AA30002D060020780600207A060020F04C002029
:10AA4000E8060020F8580020C105002008283CBF77
:10AA50009C490870704700209A49C8609A4800686D
:10AA600090F88100082838BF087070479548007832
:10AA7000704710B50446F6F7B3FA944A03211268FA
:10AA8000D161052C4ED2DFE804F0031221303F00E3
:10AA900001217F20F5F7D8FC8C214FF48470F5F765
:10AAA000D3FC5C214FF48570F5F7CEFC3AE0012130
:10AAB0007F20F5F7C9FC87214FF48470F5F7C4FCBB
:10AAC00059214FF48570F5F7BFFC2BE001217F2061
:10AAD000F5F7BAFC75214FF48470F5F7B5FC4D21FC
:10AAE0004FF48570F5F7B0FC1CE001217F20F5F7ED
:10AAF000ABFC67214FF48470F5F7A6FC43214FF4BB
:10AB00008570F5F7A1FC0DE001217F20F5F79CFC95
:10AB100058214FF48470F5F797FC3A214FF4857073
:10AB2000F5F792FCF9F7CFF8F6F75DFB012010BDC1
:10AB300001207047644863490068B0F876004242DB
:10AB4000C8688242BCBF401EC86070472DE9F04F04
:10AB5000A1B09346884604464FF0000901F07FFFFC
:10AB6000594E8246574D3068B0F96E00A0420DDA5A
:10AB7000A868401EA86009D26420A86068680328FD
:10AB80000CBF0020401C6860FFF773FF504F3878FF
:10AB9000072829D14F4859460078820068460EF0B0
:10ABA00085F9ADF80040ADF80280ADF804A0A889A1
:10ABB000ADF80600A888ADF808003068B0F872104B
:10ABC000ADF80A10B0F87410ADF80C10B0F86E10B3
:10ABD000ADF80E10B0F87600ADF810003878072800
:10ABE00004BF6846FEF72DFD484621B0BDE8F08F52
:10ABF00034488078002818BF012070470020DFF813
:10AC0000C4C09CF80210002914BF012200229CF845
:10AC10000110002918BF01218A4208BF70470A1C91
:10AC200018BF012210B48CF80220274A1368D3F809
:10AC3000A42012F0040F0FD021B1C2F30310082892
:10AC400009D206E00020CCF80C0093F88100082817
:10AC500001D28CF80000012012F0020F18BF012071
:10AC600010BC70472DE9F041174F00263868D0F826
:10AC7000A40010F4807F21D0124D69780C1C18BFFD
:10AC80000124C0F30330012101FA00F0F8F759F86C
:10AC90003968B1F8A41011F4007F01D028B103E0A5
:10ACA000002818BF002000D10120844206D00028CF
:10ACB00018BF01206870FFF7A1FF06463046BDE8C7
:10ACC000F081000094060020E80600201CA5110079
:10ACD0002D060020C10500207148006800F5407075
:10ACE00070476F48006800F58070704770B56C4C15
:10ACF0006C4922681068884204BF5068B0F5087F2C
:10AD000024D1D2F808C0BCF5405F1FD86649D0688E
:10AD100088420DD0002311461846B3EB9C0F07D292
:10AD200051F8045B401C6B40B0EB9C0FF8D36BB93F
:10AD300002F5807000F0E2F840B1206800F5407044
:10AD400000F0EBF800281CBF012070BD002070BD92
:10AD5000534910B54FF48E100860FFF7C7FF002865
:10AD600018BF012010BD4FF48E10F7F79DBA4C4864
:10AD70004C4A00680168914206BF4168B1F5087FFE
:10AD800000207047464800680069704744490968D8
:10AD90000A6982429CBF00207047C0EBC00001EBF3
:10ADA000C00000F5806070473D4A126802EB8003E6
:10ADB0005B6A1A443D4B53F82000FF3020F0FF003F
:10ADC00000FB012070472DE9F0010022344D1746A9
:10ADD0002E1D831893F92840002CB8BF41F822702B
:10ADE00010DBD5F800C0D3B20CEB830856F8233043
:10ADF000D8F82480FF33C44423F0FF0303FB04C3CB
:10AE000041F82230521C102AE3D3BDE8F00170470C
:10AE10002DE9F0410025174604460029B8BFBDE8DA
:10AE2000F081042C02D0052C10D014E0F9F734FD89
:10AE3000052810D1FEF777FF022808BF03250AD0A6
:10AE4000FEF771FF002808BF022504E0F9F724FD92
:10AE5000052808BF01251248144E006856F8241032
:10AE600000EB8400FF31406A21F0FF0100F5E03083
:10AE7000503005FB0105F9F70FFD022808D101F05C
:10AE8000C5FD28B956F82400FF3020F0FF00054426
:10AE900056F8242039462846BDE8F041F7F7FABCB9
:10AEA000A406002054465053EFBEADDEA806002095
:10AEB00010B51F4CFFF74CFFA0B1FFF70DFF014687
:10AEC000AC221C480EF037F8FFF70BFF01464FF499
:10AED000C47220680EF02FF82068406DBDE8104065
:10AEE00001F0F5BC4FF4C47120680EF080F8002129
:10AEF0000420F9F7E3FCFEF7F0FEDBE758B10E4A59
:10AF00000168914207D1406820F00F00B0F5087F3A
:10AF100004BF012070470020704738B1006820F05E
:10AF20000F00B0F5907F04BF0120704700207047EC
:10AF3000E80600205410002041505352002808BF5A
:10AF40007047401E00BF00BF00BF00BF00BF002809
:10AF5000F7D1704770B5614D82B00024286804664F
:10AF60005F480168D1F82C13006841F00801C0F86F
:10AF70002C13F8F7B7F928680069296840F0010038
:10AF80000861601EF8F73AF9564880234FF48012A2
:10AF9000002152F821C040F821C0491CB1EB930FA9
:10AFA000F7D3F8F73DF9F8F7E7FBF8F711FC0020C5
:10AFB000F8F7E3FB2320F8F7D4FBF7F7F4FEF8F7F4
:10AFC0007BFBF8F7F3F9F7F715FFF6F7D3FEF5F784
:10AFD00083FEF8F7BAF8F8F775F8434E0094019439
:10AFE0000423002207213068F8F7D4FA3068F8F714
:10AFF0004CFB0420CDE900043C4C03460022072111
:10B000002068F8F7C7FA2068F8F73FFBF6F785FFE6
:10B01000F7F750F8364800683649884218BFF7F706
:10B0200049F8F8F7C5FCFEF729F8FEF7FCFC62B614
:10B03000FFF73EFF304803F09CF9304C2068B0F930
:10B040000C0103F02AFBF8F719FDF9F705FE20685B
:10B05000418A008AFEF7EDF92068806EC0F34E0148
:10B0600061F35F0001F0DAF8FFF7E1FC002211461E
:10B07000022001F0E0F800226421072001F0DBF853
:10B0800029680120086602B0002070BD01F0C3FCF1
:10B0900001460220F9F712FCF9F7FEFB06281AD246
:10B0A000DFE800F019090313160602F02EF9F3E7A2
:10B0B000FFF705F8F0E7FAF75AFAF9F7EDFB012880
:10B0C00004BF0220F9F7F7FBE6E701F0CDFAE3E76A
:10B0D000FEF703FEE0E7F9F736FCDDE718A51100FF
:10B0E0001CA511000064002034A5110030A511003A
:10B0F0004C1600205446495354100020E806002006
:10B10000FE49087070474FF42C30704770B54FF40B
:10B110002C3044F264422146F6F7C0FFF84A216819
:10B12000204691421BD16168B1F5007F17D3D4F856
:10B1300008C0002344F264418C4588BF44F2644C4B
:10B140000022B2EB9C0F28BF70BD54F82250521C55
:10B150002B44B2EB9C0FF8D3002B08BF70BD00202E
:10B1600070BDE74901604FF40071416044F26441F1
:10B1700081600021C16080F8201080F8211080F8E3
:10B18000221080F8231040F2FF72C0E9042181618F
:10B19000C161016500F580404FF6FF71A0F85414BD
:10B1A000A0F85614A0F85814A0F85A14A0F85C148B
:10B1B000A0F85E14A0F86014A0F862140120704793
:10B1C00070B50021C1600B46D0F808C044F264415C
:10B1D00004468C4588BF44F2644C0022B2EB9C0FBD
:10B1E00006D254F82250521C2B44B2EB9C0FF8D3D9
:10B1F0005942C1604FF42C3044F264422146F7F7C3
:10B2000049FB012818BF002070BD2DE9F04F05460D
:10B210008FB00E460020F6F7E1F80C90F9F79AFC93
:10B220008046B848DFF8E4B2032490F800A0B6489E
:10B230000778DBF80000C46102217F20F5F704F9EC
:10B2400040F20220F5F719F9C0F30219012E7DD062
:10B2500000200690AE480390AE480890AE48049097
:10B26000AE48002601960090DBF80000C461012181
:10B270007F20F5F7E9F84FF48770F5F7FEF8C0B2D4
:10B280000D9002217F20F5F7DFF840F20720F5F757
:10B29000F4F8C4B24FF40270F5F7EFF80EF054FF73
:10B2A00007909F4814F0100F50F8290002909D4815
:10B2B00050F82900059018BF974E14F0200F04D0C5
:10B2C000304604990EF0FAFD064614F0400F04D003
:10B2D000304600990EF0F2FD0646E00904D03046F3
:10B2E00000990EF0EBFD064614F0010F1CBF8A48D2
:10B2F000019014F0020F04D0049901980EF0DEFDC5
:10B30000019014F0040F04D0DDE900100EF0D6FD1A
:10B31000019014F0080F04D0DDE900100EF0CEFD0E
:10B32000019016F1FF4F2CBF86F0004030467E4C56
:10B33000A042D8BF2646314601980EF027FE019064
:10B340004FF0FF3103980FF0C2F800E018E081469B
:10B3500008990EF011FF8346594648460EF0AEFD9F
:10B360000B90594648460EF0DDFF0A900AFB07F0A5
:10B370004FF00009049000281ED80FB0BDE8F08FF0
:10B3800000240AFB07F6002E8EBF684F0FB0BDE801
:10B39000F08FB5F900000EF0D7FE57F829100EF027
:10B3A000EBFE0EF0B5FE25F8020B601C84B2A6423F
:10B3B000EFD80FB0BDE8F08F002000900C98B0F9E6
:10B3C000000009900C98801C0C9018F801BB1BF031
:10B3D000800F1CBF4FF07E50069000242BFA04F023
:10B3E00010F0010F13D00120A0400EF0B6FA504A21
:10B3F000504B0EF019FB07468A4600980EF032FDBE
:10B400003A4653460EF0C0F90EF08CF90090601CDD
:10B41000C4B2072CE2D3059902980EF083FF0446CC
:10B42000DDE90A100EF07EFF089009980EF08CFE00
:10B430006FF00A010FF04BF84FF07E510EF072FFE3
:10B440008346DDE902100EF039FD06990EF094FEF8
:10B4500007464FF07E5006990EF064FF824605992C
:10B4600003980EF02BFD51460EF086FE39460EF085
:10B4700059FF82460D98401E0EF066FE074610F1F9
:10B48000FF4F28BF87F0004027498842D8BF264F8A
:10B490004FF0804107980EF011FD09903946089849
:10B4A0000EF074FD09990EF067FE59460EF064FE29
:10B4B00003990EF02DFF834614F1FF4F2CBF84F04B
:10B4C0000040204618498842D8BF0C4616F1FF4F6D
:10B4D0002CBF86F0004030468842D8BF0E46DDE9DA
:10B4E00001010EF049FE0EF0BDFCCDE90801314628
:10B4F00000980EF04BFD51461EE00000F0060020C3
:10B5000053454C46BA050020BB0500201CA5110080
:10B510000000B040CDCC4C3FC3F5A04048E1DA403C
:10B520002CA911004CA911000AD7233C6CA91100C9
:10B530009A9999999999A93F0EF01EFE0EF092FCE6
:10B5400007468A4658460EF08DFC4FF0FF320EF04B
:10B5500090FF3A4653460EF017F9DDE908230EF046
:10B5600013F907468A4621464FF07E500EF00EFD35
:10B570000EF078FC3A4653460EF056FA0022FE4B87
:10B580000EF086FB04460F4630460EF06BFC22465A
:10B590003B460EF049FA0EF0C5F8F8490EF0ECFD06
:10B5A000F7490EF08BFC0EF0B3FD25F8020B09F104
:10B5B00001001FFA80F9049848453FF6FDAE0FB030
:10B5C000BDE8F08F2DE9F043ADF2844D0C46814685
:10B5D0004FF000084FF4906168460DF008FDE94F08
:10B5E000F5F7B3FB0020F5F7A3FB0020F5F795FB7B
:10B5F000F5F787FB6846F8F7ACFCE3480578E348C5
:10B600000678002E18BF002D47D02068002119F0C1
:10B61000030F80F8205080F8216080F8221080F815
:10B62000231038D0F5F7DFFD0020F8F7AFFC01203C
:10B63000F5F719FB2046F5F7D0FCFAF73DFC246836
:10B640000020F5F7CBFE0146754343F254006A0033
:10B6500020440DF02BFCF9F77DFA014643F6540027
:10B660002A4620440DF022FCC948807810F0010FD2
:10B6700011D0F6F76CFC002104F15400FFF7C5FD72
:10B68000386890F8EB00012805D1C20204F154019A
:10B69000C0480DF00BFC4FF00108F5F72BFD0DF243
:10B6A000844D4046BDE8F0832DE9F04FADF5117DA6
:10B6B0000E46044617464FF4107168460DF097FC8D
:10B6C000B3484FF000084FF0FF39807810F0020FB8
:10B6D00043F2540007EB000504FB06F090904ED0B7
:10B6E0006946AC46C246002E88BFA4F1010B2ED994
:10B6F0000020002C25D9584508BF81F800801CD0B7
:10B700003CF91020002AD8BF81F8009015DD0CEB21
:10B710004003B3F90230934207DCD31A4FF0640EB2
:10B7200003FB0EF393FBF2F206E09A1A4FF0640E5D
:10B7300002FB0EF292FBF3F20A70401C491CA0427D
:10B74000D9D30AF1010A0CEB440CB245D0D342F62E
:10B750005400384469468246909A0DF0ECFB8948C3
:10B76000006890F8EB00012804D1C20251468948D4
:10B770000DF09CFB4FF4107168460DF038FC8448C6
:10B78000807810F0040F04BF0DF5117DBDE8F08F37
:10B7900068464FF0000A002C88BF06FB04FB36D930
:10B7A00000221146BBF1000F05D829E0112A08BF7D
:10B7B00080F800801FD00AEB010C35F91C30002BFB
:10B7C000D8BF80F8009016DDA44435F91CC09C4514
:10B7D00008DCA3EB0C0C4FF0640E0CFB0EFC9CFB86
:10B7E000F3F307E0ACEB03034FF0640E03FB0EF33F
:10B7F00093FBFCF303702144521C20448B45D5D8A5
:10B8000004FB1600401C0AF1010A5445C8D842F650
:10B810005440384469460446909A0DF08CFB5948D0
:10B82000006890F8EB00012804D1C2022146594873
:10B830000DF03CFB0DF5117DBDE8F08F2DE9F041D9
:10B84000504D0646144628680F4690F8E8205248A6
:10B85000028000F0B4FD002306FB07F1002984BF3D
:10B86000DFF838C14E4A12D9DCF8000041F654071F
:10B8700030F8136004EB43003E52166800F50050A8
:10B8800036F813605B1CA0F854609942ECD8286825
:10B8900090F8EB0001280ED1C20241F654002118A5
:10B8A0003C480DF003FB42F2540021184FF40062B3
:10B8B0003C480DF0FBFA364901204860BDE8F081B4
:10B8C00030B5054691B000240120F5F7CCF92046AB
:10B8D000FFF75CFA6946FFF776FA00990798F5F7E3
:10B8E00065F8314901200968C1F814032846FAF7C0
:10B8F000D9F8FF20F9F735FBF5F727FA0020F5F71F
:10B9000017FA0020F5F709FAF5F7FBF90020F8F728
:10B9100058FA0020FAF78FFB0120F8F737FB11B037
:10B9200030BDF0B5ADF2C44D0D46064614460027B5
:10B930004FF4906168460DF05AFB2020F9F711FB97
:10B940000120F5F790F93846FFF720FA070008BF05
:10B95000F8F7DCFF0DF590613846FFF734FADDF8B3
:10B960008014DDF89C04F5F721F80F4901200968DF
:10B97000C1F814031AE000000000F03F00007A4410
:10B980000080CE43E8060020BA050020BB05002059
:10B99000F006002000690020040700200C070020AA
:10B9A00008070020007100201CA51100FAF77AF8A2
:10B9B000F5F7CBF90020F5F7BBF90020F5F7ADF965
:10B9C000F5F79FF90120F8F7E1FA6846F8F7C1FAB0
:10B9D0000020FAF730FB0020F5F700FD06FB05F12B
:10B9E0004A00014641F25400204404460DF05EFA3C
:10B9F000FE48006890F8EB0001281CBF0DF2C44D12
:10BA0000F0BD4FF400622146F9480DF04FFA0DF2F7
:10BA1000C44DF0BD70B515460E460446F8F788F9DA
:10BA200004FB06F14C0021460DF0BFFA0220FFF79F
:10BA300047FFFAF77FF90320FFF742FFFAF787F98C
:10BA4000F8F776F90146224605F654000DF02EFA75
:10BA5000E648006890F8EB00012805D1C20205F61F
:10BA60005401E3480DF022FAF8F762F92146BDE8E7
:10BA700070400DF09ABA2DE9F14FADF5065D4FF02B
:10BA80000109C8464FF410610DF6D8500DF0AFFA19
:10BA900014204FF0000A1490139012901190544605
:10BAA000CDF840A00120F5F7DEF82046FFF76EF94B
:10BAB0006946FFF788F900990798F4F777FFDFF8F0
:10BAC00034B30120DBF80010C1F81403122720243E
:10BAD0007D010020F5F721F9F5F760FEDBF8001095
:10BAE0000320C86101217F20F4F7AEFC11210E2054
:10BAF000F4F7AAFC5A210820F4F7A6FC36210A2004
:10BB0000F4F7A2FC02217620F4F79EFC02217F20AC
:10BB1000F4F79AFC6A210220F4F796FC8E210420A7
:10BB2000F4F792FCF1210720F4F78EFC072108209E
:10BB3000F4F78AFC00211620F4F786FC03217F200D
:10BB4000F4F782FC89210520F4F77EFC67210620AA
:10BB5000F4F77AFC45210720F4F776FC232108202E
:10BB6000F4F772FCF1210920F4F76EFC68004FEA4B
:10BB7000570B04FB07F6009002E0B8F1000F50D01D
:10BB80000120F5F770F8F5F7F3FC0020F9F7E9F973
:10BB9000F5F729FB0120F5F766F8F5F7E9FC1198B0
:10BBA000F9F7DFF9F5F71FFBB9F1000F34D042F2D6
:10BBB00060106844F5F7D5FD58B30020F5F7ADF8EF
:10BBC000F5F7ECFDB8F1000F26D00AF101001FFADD
:10BBD00080FABAF1010F4FF000000BD0F5F7FEFB31
:10BBE000014641F658306844009A0DF05FF94FF075
:10BBF000000811E0F5F7F2FB014641F2D860684415
:10BC0000009A0DF053F914991198084480B21190DC
:10BC100002E0B9F1000FCAD14FF00109B8F1000FED
:10BC2000AED10020002D18D941F2D8636B4403F542
:10BC300090620DF59B6C32F9101033F91080A1EB76
:10BC400008014FF0640801FB08F101EBD1714910C4
:10BC50004CF82010401CA842EDD34FF0000843469A
:10BC6000002C25D941F6D87A0DF59B69EA4409F5EF
:10BC7000DC5E00210A464046B8EB560F0BD259F85D
:10BC800020C0624400EB560C204459F82CC0B0EBA5
:10BC9000560F6144F3D3B2FBFBF04AF82300B1FB2B
:10BCA000FBF04EF823005B1C08F10108A342E0D32F
:10BCB0000020002D1FD941F6D8730DF59B626B440F
:10BCC00002F5DC5C0DF15808B0FBF4F104FB110146
:10BCD000B0EB550F34BF53F821105CF8211052F827
:10BCE0002090A1EB09010029B8BF494228F81010A3
:10BCF000401CA842E8D34FF00008002F82BF42F258
:10BD00002019E944A9F1480A23D916A800EB8811A3
:10BD1000402248460DF0CAF80020002F15D9002116
:10BD2000002C09D939F811305AF82020491C1A443E
:10BD30004AF820208C42F5D85AF8201091FBF4F1F3
:10BD40004AF82010401CB842E9D308F10108B84570
:10BD5000DBD30020002D82BF42F2D808E8440DF169
:10BD6000580C0CD941093CF8103058F82120D11A50
:10BD700048BF991A2CF81010401CA842F2D300209A
:10BD8000002D84BF16AA0DF6D85109D951F82030DC
:10BD900032F810C0634441F82030401C8542F5D889
:10BDA00010981399401CC0B21090129811901098DE
:10BDB0004FF001084FF0000AC14681423FF6DDAE68
:10BDC0000024002D21D9DFF8308016AE0DF6D857AB
:10BDD000109857F82410B1FBF0F00DF0D5FD4FF09E
:10BDE000663243460DF020FE08E00000E806002021
:10BDF000006900201CA511006666E63F0DF080FD7D
:10BE000026F81400641CAC42E2D30DF5005316A9C9
:10BE1000D3F8800143F654431844009A04460DF0C9
:10BE20008AF8FA48006890F8EB0001281EBF61B05C
:10BE30000DF5005DBDE8F08F4FF400622146F44837
:10BE40000DF034F861B00DF5005DBDE8F08F2DE91F
:10BE5000F047ADF5924D44F270476F444FF4906156
:10BE600038460DF0C4F803ACFF2244F2644120468A
:10BE70000DF093F8DFF89C934FF0FF300290D9F863
:10BE800004000DF10808FF2628B9FF224FF40061D5
:10BE9000E1480DF082F820460294FFF762F9DB4D8D
:10BEA000286890F8EA10A9F8021090F8EB0003282F
:10BEB00004D1012089F80000A9F802600120F4F7FC
:10BEC000D2FE414699F80000FFF77CFB3846F8F7B0
:10BED00040F89DF82C709DF82D80002F12BFB8F10E
:10BEE000000F0DF5924DBDE8F08700262246414631
:10BEF00038460796FFF7D8FB99F8020010F0080FB4
:10BF000004D0224641463846FFF798FC99F80000D5
:10BF100010F0010F45D097220421F420F5F7DFFE41
:10BF200099F8020010F0200F04D02246414638460E
:10BF3000FFF7F7FC99F8020010F0400F2CD0F7F74C
:10BF4000F7FE024607FB08F04FEA400A514610464A
:10BF50000DF02BF80220FFF7B3FCF9F7EBFE0320FE
:10BF6000FFF7AEFCF9F7F3FEF7F7E2FE01465246A3
:10BF700004F654000CF09AFF286890F8EB000128B2
:10BF800005D1C20204F65401A1480CF08FFFF7F767
:10BF9000CFFE51460DF009F88A220421F420F5F76E
:10BFA0009EFE99F8020010F0800F1CBF2046FFF79C
:10BFB00062FD99F8000010F0400F40F0FF800898F3
:10BFC000401C08900798002814BF0A98099800F1AF
:10BFD000010014BF0A90099007FB08F0401E5CBFE7
:10BFE000B9F8022029687CD412F0010F13D004EBB9
:10BFF0004003B1F9D8C0B3F954309C4503DCB1F922
:10C00000DAC09C4507DA179B43F0010317930DF53F
:10C010008043A3F8680412F0020F14D0231803F52C
:10C020000053B1F9C8C093F954389C4503DCB1F909
:10C03000CAC09C4507DA179B43F0020317930DF51E
:10C040008043A3F8600412F0040F14D0231803F502
:10C050000053B1F9CCC093F9543C9C4503DCB1F9D1
:10C06000CEC09C4507DA179B43F0040317930DF5E8
:10C070008043A3F8620412F0080F15D004EB4003CC
:10C0800003F58053B1F9D0C0B3F954389C4503DCB3
:10C09000B1F9D2C09C4507DA179B0DF5804C43F0EF
:10C0A00008031793ACF8640412F0100F15D004EBDA
:10C0B000400303F50053B1F9D4C0B3F954309C45A3
:10C0C00003DCB1F9D6C09C4507DA179B43F0100397
:10C0D00017930DF58043A3F8660412F0200F17D0D4
:10C0E00000E048E004EB400303F58053B1F9DCC005
:10C0F000B3F954309C4503DCB1F9DEC09C4507DA46
:10C10000179B0DF5804C43F020031793ACF86A049D
:10C1100012F0400F13D004EB4003B1F9E0C0B3F9C3
:10C1200054389C4503DCB1F9E2C09C4507DA179B03
:10C130000DF5804C43F040031793ACF86C0412F0FB
:10C14000800F15D004EB400303F54053B1F9E4C070
:10C15000B3F9543C9C4503DCB1F9E6C09C4507DAD1
:10C16000179B0DF5804C43F080031793ACF86E04D9
:10C17000401E7FF539AF286890F8EB00F0B90598BC
:10C18000002144F2644223460696904294BF024640
:10C1900044F264420020B0EB920F06D254F820C063
:10C1A000401C6144B0EB920FF8D34842D8604FF482
:10C1B0002C3044F264422146F6F76CFB286890F874
:10C1C000EB00032802D11249179808801D208DF832
:10C1D000000041208DF801009DF85C008DF8020000
:10C1E0009DF85D008DF803009DF85E008DF8040059
:10C1F0009DF85F008DF8050006226946072000F0D3
:10C2000043F80DF5924DBDE8F0870000E8060020E8
:10C2100000690020F0060020007100204949C2B2E8
:10C22000C0F307200A80488070474648418800884C
:10C2300061F31F20704710B5424C012303FA00FC44
:10C24000248882B01CEA040F04BF02B010BD00F0C5
:10C250000F0043EA80008DF800008DF801108DF882
:10C260000220100A8DF80300100C8DF80400100E47
:10C270008DF8050000208DF806008DF8070068464F
:10C28000FDF734FC02B010BD012303FA00F000B545
:10C290002C4B83B01B88184204BF03B000BD072A93
:10C2A00088BF072200206B46002A08D911F800C079
:10C2B00003F800C0401C9042F8D3082804D20021A3
:10C2C0001954401C0828FBD31846FDF70FFC03B097
:10C2D00000BD10B582B000234FF0020C00934CEA71
:10C2E00080008DF8000001938DF801301846002A77
:10C2F00088BF6B4607D911F800C01C18401C84F891
:10C3000002C08242F7D86846FDF7F0FB02B010BDCC
:10C3100010B40C4C40EA01230228A288944602D0B3
:10C32000052805D009E0002918BF022905D103E03E
:10C33000002918BF022900D11A46944518BFA280CF
:10C3400010BC7047F8060020FA4908707047F94899
:10C3500000B5C07848F6B80183B0484301218DF894
:10C36000011000214A1E8DF807108DF80010ADF85D
:10C3700004208DF80810ADF802208DF806108DF815
:10C380000910F7F7A2F9FCF7AAFE01280DD0012049
:10C39000F6F7A2FCF7F7B4F90028F4D06846FDF7E9
:10C3A00040FC0020F7F7A9F9EDE7F7F7A0F903B093
:10C3B00000BDE04948707047DE48407870472DE97D
:10C3C000F04FADF2F44D4FF4906104A80CF00FFE65
:10C3D000DFF860830221002088F80110FEF7D6FC08
:10C3E000040008BFF8F792FAF4F7FAFD0DF5926130
:10C3F0002046FEF7E8FCDDF89014DDF8AC04F4F715
:10C40000D5FACD4901200968C1F81403F4F79DFC61
:10C410000020F4F78DFC0020F4F77FFCF4F771FCAA
:10C4200004A8F7F796FDF4F76DFECDF8EC0498F844
:10C43000020010F0100F18BFF5F7EFFABF4890F8A0
:10C440000090BF480778BF48002F0578BE4806789F
:10C4500018BFB9F1000F0ED0FEF7E8FA0020F7F789
:10C46000B0FC98F8020010F0100F0AD00120F7F786
:10C470008DFD012009E0002E18BF002DECD100F049
:10C48000EDB80020F7F782FD0020F7F77FFD0120CF
:10C49000F4F727FBF4F7A7FE1E20FCF7FAFF0021B4
:10C4A0000846FCF7ADFFC8F8080001210020FCF7A2
:10C4B000A7FFC8F80C00002009FB07F4DFF88CA2E6
:10C4C000002C88BF47F6FF710AD9D8F8082022F857
:10C4D00010A0D8F80C2022F81010401C8442F4D888
:10C4E0001E20FDF7F5F900210120FCF789FF8346A6
:10C4F00001210846FCF784FF01460020AB1918BF54
:10C5000047F6FF7206D02BF810A021F81020401C2F
:10C510008342F8D8B8F804000026864238BF4FF0AE
:10C52000000B76D2FCF7DBFD012872D00DF59A6086
:10C53000F5F717F9002866D0DDF8D40400285DD09F
:10C5400098F8020010F0100F11D0DDF8D454F7F76E
:10C55000EFFB2A4601464B4610460097F7F7D4FA00
:10C5600029463B464A460846FDF7A9FF22E000233C
:10C57000CDF800B0CDF804B0CDF808B0CDF80CB0CF
:10C580001A461946DDF8D404FEF72FF8054698F848
:10C59000020010F0200F03D0FEF721F8054608E056
:10C5A000F7F7C6FB2A4601464B4610460097F7F7B9
:10C5B000ABFA1DB30021002C88BF53461ED935F9B4
:10C5C0001100B0F5004FA8BF47F6FF7003DA10F571
:10C5D000004FB8BF1846D8F8082032F911C084457A
:10C5E000B8BF22F81100D8F80C2032F911C08445E8
:10C5F000C8BF22F81100491C8C42E0D8F5F7CEF8EC
:10C60000761C02E005E0F8F781F9B8F804008642EC
:10C6100088D30120F4F727FBFEF708FAB8F80400E6
:10C62000B0421BD8DDF8EC0410F0020F16D0002346
:10C630004FF6FF721846002C88BFD8E902C50DD905
:10C640003CF9101035F91060891B9942C8BF0B46A0
:10C650009142B8BF0A46401C8442F1D8F4F74AFD23
:10C660000DF2F44DBDE8F08F2DE9F041314D00247D
:10C6700084B06C70364F4FF00108661EFCF72FFD3A
:10C68000012806D1F8F708F903281CBF04B0BDE85B
:10C69000F081287810F0010F05D0FFF7D8FB3C702F
:10C6A0002C70FCF718FD287810F0020F07D0FFF768
:10C6B00086FE287820F002002870FCF70CFD287810
:10C6C00010F0040F2FD0E8788DF801808DF8074026
:10C6D00048F6B8018DF80040ADF804608DF80840C8
:10C6E0004843ADF802608DF806408DF80940F6F732
:10C6F000ECFFFCF7F4FC01280DD00120F6F7ECFA72
:10C70000F6F7FEFF0028F4D06846FDF78AFA00200D
:10C71000F6F7F3FFEDE7F6F7EAFF287820F00200DE
:10C720002870FCF7D8FCF8F7B7F80328A6D004B0B7
:10C73000BDE8F081000700201CA51100BA0500200B
:10C74000BB050020BF050020C00500200080FFFFC2
:10C750001507002003490968A1F8E800704702495D
:10C76000C8707047E806002000070020F74880796D
:10C77000704700220028D8BF7047002100BF491C25
:10C780000829FBDB521C8242F7DB70472DE9F04F92
:10C79000002283B0EE490092019291F804904F8AF2
:10C7A000B1F810804E79B7FBF9FEB8FBF6FBB1F992
:10C7B0000E5094461446B9F1000F18DD0021002EEA
:10C7C00011DD01EB421330F91330AB4207DD0CEB06
:10C7D000441A30F91AA05345C4BF14468C46491C6C
:10C7E00009B28E42EDDC511C0AB29145E6DC5CEAEE
:10C7F00004004FF0010355D0611CD54A0CF1010033
:10C8000000FB0BF0948A00B201FB0EF1D58A09B24D
:10C8100004FB00FC9CFBF8F005FB01F292FBF7F136
:10C8200000B209B28045DCBFA8F1010000B2B942F4
:10C83000A4BF791E09B2C74A1268926912F0040FA8
:10C8400014BF23EA020C02F0010CBCF1000F02D06D
:10C85000691A491E09B212F0020F02D0201A401EB6
:10C8600000B212F0040F12BF0A46024608464121E8
:10C870008DF800108DF8013011098DF802100109B2
:10C880008DF8031002F00F0161F31F108DF8040002
:10C890000A208DF805006846FDF728F903B001204D
:10C8A000BDE8F08F43208DF8000000208DF80130A6
:10C8B0008DF802008DF804008DF803008DF8050056
:10C8C0006846FDF713F903B00020BDE8F08F9F49DB
:10C8D00082B26FF30F00C1E9040270479B484078B1
:10C8E00070479A4A0028516914BF41F0020021F0B4
:10C8F00002005061704710B55A20F5F7A4FA802263
:10C900000021B620F5F7EBF900220121B620F5F75A
:10C91000E6F9BDE81040A520F5F795BA10B55A2004
:10C92000F5F791FA11220021B620F5F7D8F9062281
:10C930000121B620F5F7D3F9BDE81040A520F5F7A1
:10C9400082BA854810B50068C068804910F0040FAD
:10C95000087A16D0022808BF10BD022008725A209B
:10C96000F5F771FA80220021B620F5F7B8F9002218
:10C970000121B620F5F7B3F9BDE81040A520F5F781
:10C9800062BA022818BF10BD012008725A20F5F7BC
:10C990005AFA11220021B620F5F7A1F90622012149
:10C9A000B620F5F79CF9BDE81040A520F5F74BBA85
:10C9B0006648007DC0F340007047644AF02303EAF4
:10C9C0000010516921F0F0010843506170475F4841
:10C9D000007DC0F3031070475C4A0028516914BF02
:10C9E00041F0010021F00100506170475748007D7F
:10C9F00000F001007047554B19690A0E120721F02B
:10CA00007F4142EA00600843186170474F4800695F
:10CA1000C0F3036070474F480068406DC0F3036087
:10CA20007047012101FA00F04FF47F0101EA004153
:10CA300046480269114301617047012101FA00F083
:10CA40004FF47F0101EA00414048026922EA0101F6
:10CA5000016170473D480069C0F3074070473B489B
:10CA6000008AC0F303307047384A4FF4704C0CEA28
:10CA700000301169C1F3033321F4704108431061A0
:10CA8000184670473148808AC0F38020704770B5DF
:10CA90002E4E0446C0F380007569C5F3002188421C
:10CAA00018BFF7F740F914F0040F14BF45F4807075
:10CAB00025F4807014F0080F14BF40F4007020F4C7
:10CAC000007014F0200F14BF40F4806020F48060E8
:10CAD00014F0100F14BF40F4006020F4006014F054
:10CAE000800F14BF40F0800020F080007061BDE82E
:10CAF0007040FEF783B815484169002011F0400FDF
:10CB000018BF012011F4807F18BF40F0040011F419
:10CB1000007F18BF40F0080011F4806F18BF40F08C
:10CB2000200011F4006F18BF40F0100011F0800FCA
:10CB300018BF40F0800070470448007DC0F34010EB
:10CB400070470248808AC0F3002070471007002019
:10CB500054100020E806002018A51100FE48808A25
:10CB6000C0F300307047FC484069C0F3003129B180
:10CB7000C0F34010002804BF012070470020704718
:10CB8000F5498A691043886170472DE9F047894665
:10CB90000446FDF711FD0546F5F7BFF9F4F720FA55
:10CBA000EE4903200968C861ED4E18274FF04A0886
:10CBB000FCB1012C34D0022C0FD001217F20F3F7DF
:10CBC00043FC18210E20F3F73FFC4A210820F3F71D
:10CBD0003BFC86F8EE7686F8E886B9F1010F04BFD3
:10CBE0000020F7F7D3F9F4F7FEFABDE8F047F5F7C0
:10CBF00077B901217F20F3F727FC18210E20F3F7E6
:10CC000023FC4A210820F3F71FFC86F8EE7686F80D
:10CC1000E88628780128E0D001221146104617E066
:10CC200001217F20F3F710FC10210E20F3F70CFCFC
:10CC300072210820F3F708FC102086F8EE06722017
:10CC400086F8E80628780228C7D00122114602207B
:10CC5000FDF7B4FCC1E72DE9F04FA1B04FF0000A99
:10CC60004FF0FF39CDE90699ADF84CA08DF850A0F2
:10CC7000CDF860A0CDF844904468CDF864A0CDF81C
:10CC800014A0D0F80880834600200490CDF880A03E
:10CC90001AA85546B04E5746CDF840A01690FDF75D
:10CCA0008BFC1590B8F1000F08D012AA11A94046CC
:10CCB000FDF716FE1790FDF711FE10909CB1A94AE2
:10CCC00014A913A8069B8DE80F0096F9003007A958
:10CCD0002046169AFDF789FC0590FDF780FC199017
:10CCE000FDF780FC07469C4801264169C1F34000DE
:10CCF000002800F0E6809C4801958068DBF8000081
:10CD000009901998CDE90A071698DFF84C92CDE9F9
:10CD10000E5010980D90BDF87C000C95ADF82000D9
:10CD2000D9F8180011F0400F40F40070C9F81850FD
:10CD30001CBF11F0040F40F0010011F4807F18BFF8
:10CD400040F0040011F4007F18BF40F0080011F417
:10CD5000806F18BF40F0200011F4006F18BF40F042
:10CD6000100011F4805F18BF40F0400011F0800FF8
:10CD700018BF40F08000B9F81010C1F3033140EA49
:10CD80000140002918BF40F48060002C08BF20F04B
:10CD900001000799B1F1FF3F04BF4FF0010A079569
:10CDA000BDF84C10072915BF99F8041089F80460E4
:10CDB0000129072108BFADF84C1099F80C10002983
:10CDC00008BF4FF0010A99F80210012904BF04219D
:10CDD000ADF84C10CDF800A0BDF84C3001AA08A960
:10CDE00001F0E3FB82460198806820F0080110F012
:10CDF000080FC9F81C1014BF89F8016089F80150A8
:10CE000010F0100F0DD099F8030050B915984FF09D
:10CE10000001007802280DD00120FFF7B6FE89F846
:10CE200002600198007A10F0200F99F80A000FD0E4
:10CE300030B116E00020FFF7A8FE89F80360EEE7A6
:10CE400089F80A60012264210720FFF7F4F908E05D
:10CE5000012806D189F80A50002264210720FFF733
:10CE6000EAF9019801680029CCBF89F8006089F8C7
:10CE70000050BAF1000F04BF416800291CD1007AAC
:10CE80004FF0640110F0400F03D0079589F80910A6
:10CE900014E099F8090048B199F80900401C89F894
:10CEA000090099F809006428EFD207E007980128E3
:10CEB00008BF89F8096001D089F809500198D0F8B5
:10CEC00000900798002808DD2348C581C572DFF867
:10CED00088A09AF80C0070B908E0B0F1FF3F1E4836
:10CEE000C18914BF491C891CC181F0E78AF80C6014
:10CEF0004FF0FF300790DFF874B0DBF80000017FDF
:10CF000011F0010F79D0407FBAF80E10814207D896
:10CF1000DAF82C1001291CBF0799B1F1FF3F6CD141
:10CF2000AAF80E508AF80450BAF80E10884204D2BB
:10CF3000012299210720FFF77EF9DAF82C00012859
:10CF400004D1022299210720FFF775F90798B0F163
:10CF5000FF3F11D103220BE0100700201CA5110098
:10CF6000785900201D07002070160020E8060020D8
:10CF700099210720FFF75FF96CB12099CDE90017DF
:10CF80001898DDE90432CDE90290DDE90610F7F7E3
:10CF900061FC8AF80950179828B1DAF82420014674
:10CFA0001198F7F735FC15980078022807D002226F
:10CFB0008AF8035011460320FDF700FB1DE09AF8A4
:10CFC0000B00401C8AF80B009AF80B00142809D9B2
:10CFD00014208AF80B0000218AF803500846FFF756
:10CFE000D4FD0AE09AF80B00032806D902228AF839
:10CFF000025011460320FDF7E1FAFE4C2078242868
:10D0000004BF1998FCF732FB2078012804BF199857
:10D01000FCF72CFB20780E2804BF1998FCF726FBA0
:10D02000B8F1000F1CBF9AF80D00022812D0DBF8EF
:10D03000000090F86C0010F0010F0BD0DDE910211A
:10D04000BDF94800FDF782FD00281EBF012021B078
:10D05000BDE8F08F0798DAF82010491CCAF82010B4
:10D060000028C8BFCAF8245010D09AF8141011F044
:10D07000010F70D0DAF81010C1F303642746062CB4
:10D080005AD2DFE804F0091118593B3BDAF82410B2
:10D09000491CCAF82410E8E700284EDD022000F001
:10D0A00042FB50B302244AE0002846DD022000F093
:10D0B0003AFB10B3F6E7002818BFCAF82C503CD151
:10D0C000012000F030FB002818BF012437D1DBF825
:10D0D0000000DAF82410B0F85C00884206D3DAF8D1
:10D0E0002C00012808BFCAF82C5026D1002000F0DF
:10D0F0001AFB002818BF002421D11EE0002806DDFD
:10D10000022000F010FB002818BF022415D1042FC4
:10D110000ED1DAF81400C0F3003149B1C0F3401069
:10D1200030B9052000F0FFFA002818BF052406D109
:10D13000002000F0F8FA00B10024BC420BD0DAF86D
:10D1400010003546010E090720F07F4041EA0461D6
:10D150000843CAF8100021B02846BDE8F08FF0B5AA
:10D1600087B00746F7F798FB0546F7F798FBA24903
:10D170000646052D0CBFA14CAFF225544869C0F3FB
:10D18000031118BF052E08D1C0F300322AB1C0F335
:10D190004010002808BF41F002013846F7F748FC6C
:10D1A000002804BF07B0F0BDF6F78DFD074600204C
:10D1B000F3F797FCF4F717F8FBF791FF012809D074
:10D1C000F7F76AFBA84205D1F7F769FBB04208BF41
:10D1D000002F05D0F3F704FFF7F7ADFC07B0F0BD63
:10D1E0006846F4F7BEFA40B16846FCF7A8FB68460B
:10D1F000A0470746F4F7D2FADEE7F7F77CFBDBE758
:10D200002DE9F0477C4D88B0002628690227C0F33D
:10D210000364F3F7E5FE7A4903200968C861002139
:10D220007F20F3F711F901210320F3F70DF9F3F74C
:10D23000DAFFF4F755FEDFF8CC814FF002094FF02A
:10D24000010AFBF74CFF01280AD0F7F725FB02285B
:10D2500006D12869C0F30360A04208BF002E13D096
:10D26000F4F75BFEF7F718FB022805D0F7F714FB7D
:10D2700007460220F7F71FFB022F1CBF3846F7F7BF
:10D280001AFB08B0BDE8F0876846F4F76AFA002890
:10D29000D7D06846FCF753FBD8F80000C06810F000
:10D2A000040F287A14D0022826D085F808905A2036
:10D2B000F4F7C9FD80220021B620F4F710FD00220A
:10D2C0000121B620F4F70BFDA520F4F7BCFD13E017
:10D2D000022811D185F808A05A20F4F7B4FD1122D4
:10D2E0000021B620F4F7FBFC06220121B620F4F75A
:10D2F000F6FCA520F4F7A7FD6846FFF7ACFC064650
:10D30000F4F74CFAF4F723FE9BE72DE9F04F87B0D2
:10D31000F5F7E8FF3C4801F02CF8FDF79CFB3B4C8F
:10D320002068B0F93610B0F93400FDF7F7F8384846
:10D330004FF0010A80F8C0A6364880F8C0A62068E1
:10D34000B0F85800C0F303200F2818BFF6F7D5FC3B
:10D35000DFF8A480D8F8140040F00100C8F81400E9
:10D36000F7F79AFA022840F05081D8F810004FF0F1
:10D370000009C0F303652548A9000068806DC8F85E
:10D380002090C84000F00F00C8F82490C8F82890FA
:10D39000062D80F03181DFE805F0F2030303F5F597
:10D3A0008346D8F8140000260227C0F30314022D88
:10D3B0000BD1C0F3003131B1C0F34010002808BFD9
:10D3C00044F0020401D024F0020498F8050001287A
:10D3D0002DD021465846F7F72BFB002800F00C8192
:10D3E000F8F76AFDF8F744FE0020F6F7CFFD88F85D
:10D3F00005A011E02D06002010070020E39D10007D
:10D400001CA5110018A5110054100020E8060020EA
:10D41000785900203E080020D048F3F789FCFDF73A
:10D4200005FB98F8070001280CD048B338E098F8BD
:10D4300007000128DDD1F7F7A5FA21465846F7F78E
:10D44000BBFAD6E7D8F8140040F00200C8F8140080
:10D45000D8F8180040F00100C8F818000020F3F7D1
:10D460005CFCBF4801688968006841F00201816086
:10D47000F3F7B9FE88F8009000F064FF88F8079091
:10D48000F3F7AEFDB74903200968C86100217F208A
:10D49000F2F7DAFF00210320F2F7D6FFF3F7A3FE3D
:10D4A000F4F71EFDB04C4FF00209FBF718FE0128FF
:10D4B0000BD0F7F7F1F9022807D1D8F81000C0F324
:10D4C0000360A84208BF002E16D0F4F726FD002006
:10D4D000F3F72EFCF6F70BF9F7F7DEF9022805D083
:10D4E000F7F7DAF907460220F7F7E5F9022F1CBF34
:10D4F0003846F7F7E0F97FE06846F4F732F900289C
:10D50000D3D06846FCF71BFA2068C06810F0040FFF
:10D5100098F8080014D0022826D088F808905A20DD
:10D52000F4F791FC80220021B620F4F7D8FB00220A
:10D530000121B620F4F7D3FBA520F4F784FC13E017
:10D54000022811D188F808A05A20F4F77CFC112297
:10D550000021B620F4F7C3FB06220121B620F4F720
:10D56000BEFBA520F4F76FFC6846FFF774FB064688
:10D57000F4F714F9F4F7EBFC97E703E0FFE7FFF7A4
:10D580003FFE39E00746F7F787F90546F7F787F9D1
:10D590000646052D0CBF754CAFF64514D8F814009F
:10D5A000C0F3031118BF052E08D1C0F300322AB111
:10D5B000C0F34010002808BF41F002013846F7F7D9
:10D5C00037FAC8B1F6F77FFB07460020F3F789FA70
:10D5D000F3F709FEFBF783FD012809D0F7F75CF9A3
:10D5E000A84205D1F7F75BF9B04208BF002F11D070
:10D5F000F3F7F6FCF7F79FFAFBF771FD012804D06B
:10D60000F7F74AF902283FF4B0AE07B0BDE8F04F93
:10D61000FDF721BA6846F4F7A4F840B16846FCF774
:10D620008EF96846A0470746F4F7B8F8D2E7F7F74F
:10D6300062F9CFE72DE9F04F002485B04C490494FE
:10D6400023460E78009401940294224604A9039480
:10D65000FCF7CBFFFCF7C3FF0546002700940194BD
:10D66000F7F71AF943490528096851D0888FB1F8AE
:10D670003EA0C0F30B09000BB9FBF0F80020711EAF
:10D6800004468446EE46029100210CFB06F3002E70
:10D690002ED935F913203EF91CB0934505DA0DF16A
:10D6A000040B2EF81C202BF81C104A451BDD3A44B5
:10D6B00031B105EB430737F9027C3A44474500DDB9
:10D6C0000120029FB94206D205EB4307B7F9027069
:10D6D0003A44474500DD012401280CBF012C524586
:10D6E000A4BF012204920027491C5B1CB142D0D385
:10D6F0000CF1010CBCF1020FC6D31F4800780128C1
:10D7000004BF2846FBF7B2FF049805B0BDE8F08FD0
:10D71000B1F80001B1F802A1C0F30B09000BB9FB8D
:10D72000F0F8ABE77047154A0228117D1269C1F382
:10D730000311C2F3074205D0012808BF11F0020F00
:10D740000AD002E011F0040F06D0012101FA00F026
:10D75000104018BF0120704700207047F59011005D
:10D7600038A511001CA5110018A51100E39D10009B
:10D77000BA050020E80600202D0600201007002032
:10D78000FB487047FB487047FB4800787047FA48F1
:10D79000407870470346002002460029D8BF7047F2
:10D7A00053F822C0521C60449142F9DC70472DE9C5
:10D7B000F05F0E46054600F0DBFC044600F0D4FCAA
:10D7C000310291FBF0FC290291FBF4F3DFF8A8E3AE
:10D7D000E84D5E12BEF80490BEF8068000214FEAC4
:10D7E0006C2705F5907A002C0BDD01FB03F206EBAC
:10D7F000222245F821204AF82120491C09B28C42F6
:10D80000F3DCDB4E002106F5907B00280BDD01FBED
:10D810000CF207EB222246F821204BF82120491C6C
:10D8200009B28842F3DC0CFB09FC03FB08F34FEA66
:10D830006C315A135F13CEF80C102B684FEA6C3C16
:10D840009B1A2B6005EB840353F8045C154443F8E2
:10D85000045C33685B1A336006EB800353F8045CA6
:10D860000D4443F8045C9EF80330002BDAF80030D6
:10D8700017D09B1ACAF800300AEB84030BEB800028
:10D8800053F804CC624443F8042CDBF80020521A0D
:10D89000CBF8002050F8042C114440F8041CBDE8DB
:10D8A000F09F9A1ACAF800200AEB84020BEB800062
:10D8B00052F8043C3B4442F8043CDBF80020511A87
:10D8C000CBF8001050F8041C6144E6E78446AB48EE
:10D8D000A94A0A230168488A098A9380D380A02331
:10D8E0001381538163E7A448C078012818BF002042
:10D8F00070475FEA000C30B4A0489F4B0268508A22
:10D90000118A12D092F854C0528B4FEADC0404FB07
:10D9100000FCBCFBF2F21A705A700A229A80DA807C
:10D92000A0221A815A8130BC41E700221A705A7035
:10D93000F3E79248026892F85430508AB2F81AC05D
:10D94000DB084343B3FBFCF3118A8B4A137053701B
:10D950000A239380D380A02313815381C0EB00134B
:10D96000B3FBFCF393700023D37020E72DE9F04F55
:10D97000B3B00D460446CC22814968460BF0DBFA71
:10D980007E48B5F902200068012A90F805C090F899
:10D990000480478A068A687800FB0CF109B2D8BF78
:10D9A00001222B78DFF8DCE1EB4683B1ACF1010911
:10D9B0004B45194417D104EB410131F9021C0129EF
:10D9C000D8BF0121C902494291FBF2F140E004EBCA
:10D9D0004101B1F902100129D8BF0121C90291FB0F
:10D9E000F2F109B235E004EB410939F9021C0129D1
:10D9F000D8BF0121B9F90290B9F1010FD8BF4FF09A
:10DA000001094FF0640A01FB0AF109FB0AF901EB75
:10DA1000620109EB620991FBF2F199FBF2F93BF922
:10DA200011103BF91990494508BF002111D001EBB5
:10DA3000090A1AF5004FB8BFF24604DBBAF5004FE9
:10DA4000A8BF47F6FF7AA1EB0901C90291FBFAF1E1
:10DA500009B2A0B1A8F101094845A0F1010909FBEB
:10DA60000CF90FFA89F9994415D134F91940012CB0
:10DA7000D8BF0124E402644294FBF2F246E003EBD7
:10DA80000C0934F91940012CD8BF0124E40294FB9D
:10DA9000F2F212B23BE034F91990B9F1010FD8BF9C
:10DAA0004FF0010900F1010A0AFB0CFA0FFA8AFA99
:10DAB0009A4434F91AA0BAF1010FD8BF4FF0010A05
:10DAC000642409FB04F404EB620494FBF2F44FF0C9
:10DAD00064090AFB09F909EB620999FBF2F23BF9C7
:10DAE00014403BF91220944208BF00220FD004EBEF
:10DAF000020919F5004F05DBB9F5004FB4BFCE465A
:10DB000047F6FF7EA21AD20292FBFEF212B21B046B
:10DB1000000403EB011100EB021201F5004002F5D5
:10DB2000004190FBFCF091FBF8F1704301FB07F121
:10DB300000144FEA21414CBF00220246B242C8BF46
:10DB4000304602DC0028B8BF00200029B4BF002204
:10DB50000A46BA42C8BF394602DC0029B8BF0021D4
:10DB6000A5F88000A5F8821033B0BDE8F08F000062
:10DB70000079002090790020440700205C070020F5
:10DB80008CA911000080FFFF70B5A4B00D460446BB
:10DB90001646902168460BF02AFA0023002CC8BFD5
:10DBA000684609DD55F8231056F82320514340F804
:10DBB00023105B1C9C42F5DC002368461A46002CAF
:10DBC00005DD50F82210521C0B449442F9DC4FF052
:10DBD000000C6246002C05DD55F82200521C8444DE
:10DBE0009442F9DC93FBFCF024B070BD2DE9FF4FAB
:10DBF000ADF5657D0D4606469046902168460BF0D2
:10DC0000F6F9902124A80BF0F2F990219AA80BF0D4
:10DC1000EEF99021BEA80BF0EAF900F07BFA00F0D3
:10DC20008CFA00F0A9FA074600F09EFA044600F0CC
:10DC30009FFA9990FC480068418AE291008AE3903B
:10DC400098F8012098F80000F849E49102FB0400DC
:10DC500090394891285C00F03F0A98F80C004990F0
:10DC600098F80D3098F80FB098F80E105B459CBFEF
:10DC7000E8460DF1900E23D8499A03FB04F01FFAF1
:10DC800080F98A4218D809EB020036F910C0285CE6
:10DC900000F03F0050450BD1BC4509DB58F822008D
:10DCA000604448F822005EF8230060444EF82300E8
:10DCB000501C82B28A42E6D9581C83B25B45DBD93C
:10DCC00000216A460846002C7EDD52F82030401CB8
:10DCD0001944A042F9DB002976DD0021999A24AB92
:10DCE0000846002A70DD53F820C0401C614482427F
:10DCF000F9DC002968DD69462046489AFFF744FFB1
:10DD0000DFF82C93054699F80300E0BB489EA04637
:10DD100006EB8804EB4654F804AC4FF4A272C549F4
:10DD200048A837680BF007F948A9B5F58A7F0ADCDF
:10DD3000742D01DC502015E0C5F58A7000EBD07021
:10DD400040101ED40EE042F62C50A84219DC42F6D8
:10DD5000CC508542EEDAA5F534502C3800EBD0706B
:10DD600040100ED451F820003246391A316054F870
:10DD7000041C084444F8040C59464046FFF704FFCD
:10DD80000546376000E001E044F804AC24A9E49AB9
:10DD90009998FFF7F9FE99F80310E9BBDDF8649252
:10DDA000E49E044606EB89070DF1900B57F804AC8E
:10DDB0004FF48E72A04948A8D6F800800BF0BBF84B
:10DDC00048A9B4F5857F00E045E00BDA7D2C01DC45
:10DDD000462016E040F20910001B00EBD070401006
:10DDE00021D40EE041F27750A0421CDC41F20360E6
:10DDF0008442EDDAA4F5A850773800EBD0704010DB
:10DE000011D451F82000A8EB0001316057F8041C30
:10DE1000084447F8040C00E00AE0324659464846F8
:10DE2000FFF7B2FE0446C6F8008047F804AC20466F
:10DE3000002DB8BF00250028B8BF0020E399491E77
:10DE40008D42C4BFE3994D1EE299491E8842C4BF6A
:10DE5000E298401E01E000252846E8990D80F299DD
:10DE600008800DF5697DBDE8F08F10B4734992B05C
:10DE7000B1E81C108DE81C10B1E81C10CDE904239A
:10DE8000CDE9064C51F8042B0892B1E81C10CDE9FD
:10DE90000923CDE90B4CB1E81C10CDE90D23CDE9E8
:10DEA0000F4C096811910479B0F8802041786B46D5
:10DEB0000DF1240C012C05D0B0F93640B4F5E17F0A
:10DEC00018DD07E0B0F93440B4F52F7F02DC0478A8
:10DED000142C07D833F811101144A0F8801012B098
:10DEE00010BC70473CF811101144A0F8801012B01B
:10DEF00010BC70470478142CF4D8EBE72DE9F74FE9
:10DF000049488B4684B00168144691F8560091F850
:10DF1000551000F07F0A01F07F08C709CE0900F014
:10DF2000F9F800F00AF900F013F994F85B1001EB2E
:10DF3000C10202EB011100EBC10500F019F98146A5
:10DF400002A8009001AB224659460498FFF74EFE06
:10DF50000AEB8A00C1B208EB8800C2B2002F1CBFD6
:10DF60004842C1B2002E1CBF5042C2B2BDF80400EC
:10DF70000844A4F88000BDF808001044A4F882000A
:10DF800095F8B000012804BF287800280AD16878E5
:10DF900000281CBFA9F10101884203DA94F8B100FE
:10DFA000012807D095F8C00001280BD1E088E98846
:10DFB000884207D3B5F88000A4F88000B5F8820045
:10DFC000A4F8820094F8C30001210222022813D091
:10DFD00003281CBF07B0BDE8F08F84F8C51095F882
:10DFE000C50001282CD0022812BF0328032084F882
:10DFF000C50007B0BDE8F08F84F8C51094F8B000F4
:10E0000000281CBF07B0BDE8F08F94F8BA000028C4
:10E010001FBF94F8BD00002807B0BDE8F08F84F85A
:10E02000C52007B0BDE8F08F5C070020B07A002063
:10E030004407002058AA11009CAB1100B8AC110095
:10E0400094F8BA00002804BF94F8B0000028E6D085
:10E05000E7E710B5044600F05DF800F079F80146F6
:10E0600094F85B0000EBC00202EB001001EBC00172
:10E07000012084F8C40094F8C500022202280FD0C1
:10E08000032818BF10BD91F8C400022811BF03284F
:10E09000032084F8C40010BD94F8B20028B110BD6C
:10E0A00094F8B200002818BF10BD84F8C42010BD39
:10E0B00010B51446FFF722FF00F02CF800F048F8E6
:10E0C00094F85B1001EBC10202EB011100EBC101FE
:10E0D000012084F8C40094F8C500022202280FD061
:10E0E000032818BF10BD91F8C400022811BF0328EF
:10E0F000032084F8C40010BD94F8B20028B110BD0C
:10E1000094F8B200002818BF10BD84F8C42010BDD8
:10E1100087487047874840F2311100784843864964
:10E1200001EB400070478348407800EB4001C1EBB1
:10E13000C010824901EB001070477E4840F2311157
:10E14000007880F0010048437B4901EB40007047B4
:10E150007848407880F0010000EB4001C1EBC0102E
:10E16000764901EB0010704772488068407970472B
:10E1700070488068007970476E488068B0F90C007C
:10E18000704710B46E4991B0B1E81C108DE81C10B6
:10E19000B1E81C10CDE90423CDE9064CB1E81C1010
:10E1A000CDE90823CDE90A4C91E80E100CAC84E8C7
:10E1B0000E103DF9100011B010BC70475D48007999
:10E1C000C0F3C00070475B480179C1F3C00100296A
:10E1D00012BF19208068B0F90E00704755480178C9
:10E1E00081F00101017070475248417881F00101CE
:10E1F000417070474FF4FA610AF0F9BE40F26221B3
:10E200000AF0D3BE2A210AF0D0BE4A4910B5886070
:10E21000FFF78FFBBDE8104001F089B94548017850
:10E2200081F001010170417881F001014170704776
:10E230004049887070473F48807870473D49C870B2
:10E2400070473C48C07870473A4948607047394841
:10E250004068704737488168497A11F0010F12BF52
:10E2600000204068C0F30070704732480079C0F366
:10E27000800070472F484068C0F3806070472D4889
:10E280000079C0F3C01070472A480079C0F300102D
:10E290007047284900200A7912F0040F08BF704720
:10E2A0008978092914BF0A290120704740F23112E8
:10E2B00000202049097851431F4A02EB4101897A25
:10E2C000022908BF012204D00022032908BF01232C
:10E2D00000D000231A4305290CBF0121002111435E
:10E2E00018BF0120704770B5044612480D464078AB
:10E2F00000EB4001C1EBC010104901EB00104FF4DE
:10E30000FA610AF074FE2946204602F02CFE07F05E
:10E3100082FE204607F013F82946204605F0BDFE90
:10E320000146204600F07BFFBDE8704006F037BB99
:10E33000407B0020540700206A7B002030800020B2
:10E3400000AD110070B5FFF7E5FE0446FFF7F5FEDE
:10E350000546FFF7DDFE064604F060FF2046FFF7A6
:10E360004DFF2846FFF74AFF3046BDE87040FFF7F3
:10E3700049BF2DE9F0410446FFF7CCFE0546FFF703
:10E38000DCFE0646FFF7C4FE07462046FFF73DFFCA
:10E3900004F044FF2846FFF731FF3046FFF72EFF19
:10E3A0003846BDE8F041FFF72DBF70B5FFF7B2FE6C
:10E3B0000446FFF7C2FE0546FFF7AAFE06462046C2
:10E3C000FFF71CFF2846FFF719FF3046FFF71AFF3B
:10E3D000BDE8704004F022BF70B50446FFF7C8FEE8
:10E3E0000646FFF7C1FE0546FFF794FE237AA27AA0
:10E3F000217B94F80EC00024934298BF614507D951
:10E400008471691E0172C471711E4172C47406E088
:10E4100083710272C17180F809C00121C1748472D4
:10E42000C4730474447470BD10B50446FFF79CFEB9
:10E4300014234FF0000C002C1CBF002100280ED923
:10E4400034F91120002AB8BF524292B29A4202DD3A
:10E450004FF0020C03E0491CC9B28142F0D3604680
:10E4600010BD2DE9F04700261746884681463546FF
:10E47000FFF750FE0446FFF760FE034609F0FF0079
:10E48000022818BF012807D0042818BF072803D086
:10E49000987A022815D021E00221A1720121E172AF
:10E4A000042808BFA173012808BF84F85812072860
:10E4B00008BF84F861120126187B20733046BDE83E
:10E4C000F087587C48B9187B012806D082484068FC
:10E4D000B84203D2D87A012800D10225A572002DB6
:10E4E0000CBF0020D87AE07218BF012684F8588249
:10E4F000E2E770B50546FFF70DFE0446FFF71DFE87
:10E5000029886180E969097C2170E969897C6170E9
:10E5100090F85A1284F85A12017D217590F85D1214
:10E5200084F85D12407D28B16B4909783C293CBFD5
:10E53000607570BD0020607570BD2DE9F041154615
:10E540000E460746FFF7E6FD0446FFF7E1FD002310
:10E55000002F04BF84F85A3280F82830207C5E4AAD
:10E56000002818BF93600FD0A07D012804BF13704E
:10E57000BDE8F0811078401CC0B210703C2824BF68
:10E580003C201070BDE8F0819068401C9060A8426B
:10E59000EAD99560237584F85D32012EE4D1A37227
:10E5A000E37284F858322373DEE72DE9F84F83468F
:10E5B000002514209A4691460F462C460090FFF7FE
:10E5C000A9FD06465846FFF73FFE3046FFF716FE08
:10E5D0000AF0FF00A846042806BF0120B07386F8A1
:10E5E0000E801BF0010F48D0F869FFF7F5FE50468A
:10E5F000009A0A99FFF735FF8246FFF78BFD054623
:10E60000FFF79BFD39886980F969097C2970F969F0
:10E61000897C697090F85A1285F85A12017D297523
:10E6200090F85D1285F85D12407D28B12A4909787D
:10E630003C2938BF687501D385F81580D7E90201F8
:10E64000FFF751FE05465146009AFFF776FF707DB1
:10E65000002818BF0824B07A022808BF44F020041C
:10E66000707B012808BF44F0100496F8600201286E
:10E6700008BF44F04004FFF7D1FD18480560B6F923
:10E6800002105A29C6BF317C4160C0F80480846002
:10E69000C9F800002846BDE8F88F01207047012026
:10E6A000704701207047012070470B49C8607047D0
:10E6B0000948C06870470848407870470649487064
:10E6C000704710B5C1684068B1F9141004F0ACFB94
:10E6D000002818BF012010BD60070020D08F002047
:10E6E0004FF6FF71A0F88010A0F88210A0F88410F7
:10E6F000A0F88610A0F88810A0F88A10A0F88C1056
:10E70000A0F88E1070472DE9F04F85B0FFF70BFD94
:10E710000490FFF7FFFC00252C460090FFF724FD36
:10E720000098007D01280CBF4FF4DE71DE210098B7
:10E73000FE4A4FF00008407C012888BF82F8008024
:10E740001CBF05B0BDE8F08F4FF000070098007CBB
:10E7500000289CBF05B0BDE8F08F07EBC70000EBB9
:10E760000712049800EBC20090F8C4C0BCF1020F7D
:10E7700018BFBCF1030F40F08681EC4E3278039253
:10E7800052B3EB4BF278029233F822B0B0F88230F9
:10E79000BBEB030954BF4A46A3EB0B028A42B8BF46
:10E7A0000124DFF890A3E14A127901923AF822A0FD
:10E7B000B0F88020BAEB02064CBFA2EB0A0EB646B8
:10E7C0008E45B8BF0125BCF1020F1ED0BCF1030F6E
:10E7D00000F0FB8000F0F4B8BCF1020F40F0538170
:10E7E0000122D34B3270B0F882C0A3F800C05A8027
:10E7F000B0F88030CF48038042807270B27086F8E3
:10E80000038086F8048000F03EB954EA050C04D079
:10E81000002C6DD0002D7DD0D2E0C44E4FF0000A08
:10E82000D44696F80190B9F1000F88BFDFF800E3F5
:10E8300028D93EF82CB0BBEB030648BFA3EB0B0670
:10E840008E4216DAB94E86F803C0019A521CD3B232
:10E850003371B278521CD2B2B2700F2A2EBF86F832
:10E860000080B44A02EB830280F00D81A2F802809E
:10E87000A6E00CF1010C0CF0FF0CCC45D9D3BAF199
:10E88000000F4FD1DFF8A4C200239CF802B0BBF107
:10E89000000F88BFDFF89CE226D93EF82360B6EB74
:10E8A000020C48BFA2EB060C8C4516DADFF87CC2DE
:10E8B0008CF80430029A09F10103521CD2B2DBB287
:10E8C0008CF803208CF801300A2B3CBF984B03EBEB
:10E8D0008202CBD38CF80080D5E05B1CDBB25B45B9
:10E8E000DBD3BAF1000F6BD1904880F80080CAE00A
:10E8F000DFF838E24FF0000A52469EF80190B9F175
:10E90000000F88BFDFF828B214D93BF82260B6EBBD
:10E91000030C00E023E048BFA3EB060C8C4502DAB1
:10E920008EF803204CE0521CD2B24A45EDD3BAF126
:10E93000000F45D1029A09F10103521CD2B2DBB299
:10E940008EF803208EF801300A2B02D38EF8008057
:10E9500099E0774B03EB8202A2F8028030E0DFF807
:10E96000CCE14FF0000A53469EF80290B9F1000F37
:10E9700088BFDFF8C0B112D93BF82360B6EB020CB8
:10E9800048BFA2EB060C8C4502DA8EF8043017E083
:10E990005B1CDBB24B45EFD3BAF1000F10D1019AEB
:10E9A00009F10103521CD2B2DBB28EF804208EF8BA
:10E9B00002300F2BCAD25F4B03EB8202A2F8028017
:10E9C000039A5A4E012A12D05DE0DFF860C1B9F116
:10E9D000000F48BFA3EB0B098945BFF67BAF002EA4
:10E9E00048BFA2EB0A068E42BFF674AFE8E7DFF835
:10E9F0004091F27809EB820CBCF80230F3B342F29A
:10EA0000107A53450DD2B0F882A039F822B00BFB32
:10EA100003AA5B1C9BB2ACF80230BAFBF3F329F8F3
:10EA2000223039F82230B0F882209B1A03EBD373DE
:10EA300002EB6302A0F88220DFF8F890327909EB4C
:10EA4000820CBCF8023083B342F21076B3420DD28E
:10EA5000B0F8806039F822A00AFB03665B1C9BB209
:10EA6000ACF80230B6FBF3F329F8223039F8223043
:10EA7000B0F880209B1A03EBD37300E00DE002EBAB
:10EA80006302A0F88020781CC7B20098007CB842CE
:10EA90003FF663AE05B0BDE8F08FB0F8823029F8DC
:10EAA00022300122ACF80220C6E7FFE7B0F8800070
:10EAB00029F822000120ACF80200E4E72DE9F04734
:10EAC000FFF731FB0446FFF725FB0246007D0128D6
:10EAD0000CBF4FF4DE707820517C174D0026A5F155
:10EAE0000C07012907D098BFBDE8F0873E722E8041
:10EAF0006E80BDE8F08792F810C04FF00001BCF1C5
:10EB0000000F98BFBDE8F08701EBC10202EB0112D4
:10EB100004EBC20292F8C430022B18BF032B0DD0B5
:10EB2000491CC9B28C45EFD8BDE8F08770070020BA
:10EB3000DC8F0020049000207C0700203B7A012B12
:10EB400014D0002BF0D101EBC10000EB011004EB5D
:10EB5000C00090F8C4000228E6D101203872B2F853
:10EB600080002880B2F882006880DDE701EBC103F5
:10EB700003EB011304EBC303B5F80090B3F8803046
:10EB8000B5F80280A9EB03030FFA83FCB2F88230D8
:10EB9000BCF1000FA8EB03031BB2B4BFCCF1000A19
:10EBA000E246504538DB002BB4BFC3F1000A9A4659
:10EBB000824531DC92F8C400022815D042F6AB2021
:10EBC0000CFB00F00114A1EBE07142F6AB205843BE
:10EBD0000314A3EBE070A9EB0101A2F88010A8EBED
:10EBE0000000A2F882009FE746F267600CFB00F08D
:10EBF0004114A1EBE07146F2676058434314A3EB64
:10EC0000E073A9EB0100A2F88000A8EB0301A2F8D1
:10EC100082102880698087E73E722E806E8092E79E
:10EC20002DE9F04F83B0FFF77EFA0446FFF772FA42
:10EC30000746FFF799FA0190FFF79AFA0090787C5F
:10EC4000FF4E01254FF0000A01280DD09CBF03B0F4
:10EC5000BDE8F08F757186F807A003B04FF0010092
:10EC6000BDE8F04FFEF732BE7079B8B1397C0020B4
:10EC700000299CBF03B0BDE8F08F00EBC00202EB9F
:10EC8000001204EBC20292F8C420022A6FD0401C8A
:10EC9000C0B28142F1D803B0BDE8F08F97F810B050
:10ECA0000023BBF1000F9CBF03B0BDE8F08F4FF015
:10ECB000020EDFF8908308F1060903EBC30000EBB6
:10ECC000031204EBC20191F8C300022805D0032807
:10ECD00004BFB079022832D078E003EBC30000EB28
:10ECE000031014F83000012816D9019B9B1E98428E
:10ECF00012DA04EBC200407801280DD9009B9B1E5C
:10ED0000984209DA757186F807A00120FEF7DEFD4A
:10ED1000B57103B0BDE8F08F04EBC20086F806E0E1
:10ED2000B0F88000A9F80000B1F88200A9F802004C
:10ED300088F800A088F801A003B0BDE8F08FB9F80A
:10ED40000000B1F88070B1F882C0C21BB9F80200AF
:10ED5000A0EB0C014CBF50421046F02818DD98F88B
:10ED6000000028B101280AD002280CD00EE035E0BE
:10ED7000002AB4BF88F8005088F800E006E0002AB6
:10ED80003FF768AF02E0002AFFF664AFA9F8007011
:10ED90000029B4BF48420846F02817DD98F8010062
:10EDA00020B1012809D002280BD00DE00029B4BF02
:10EDB00088F8015088F801E006E000293FF74AAFE3
:10EDC00002E00029FFF646AFA9F802C0581CC3B202
:10EDD0009B453FF672AF03B0BDE8F08F86F807A001
:10EDE00003B0BDE8F08F2DE9F04104469648006875
:10EDF000C68A858AFFF7ACF9024694F8C40000235E
:10EE0000022823D0032818BFBDE8F0812079032809
:10EE10001CBFB4F88C000A2898BFBDE8F081A6F1A9
:10EE20000B0C6045A8BFBDE8F081B4F88E000A283D
:10EE300098BFBDE8F081A5F10B018842A8BFBDE8ED
:10EE4000F08194F8B700012842D064E07C490122A7
:10EE500048790028B4F88C0019D00A280DD9A6F1F9
:10EE60000B0C604509DAB4F88E000A2805D9A5F123
:10EE70000B0C6045B8BFBDE8F0810B7284F8B72079
:10EE80004A71CB71BDE8F0410120FEF71FBD0A2891
:10EE90000DD3A6F10B0C604509DCB4F88E000A28EE
:10EEA00005D3A5F10B0C6045D8BFBDE8F0810B720E
:10EEB00084F8B7202079032808BFBDE8F08184F8E2
:10EEC000B8204A71CB71BDE8F0410120FEF7FEBCCD
:10EED00094F85B0000EBC00707EB001002EBC000EA
:10EEE0000B27B0F88C200A2A98BFA4F88C7005D99B
:10EEF0006245A4BFA6F10C02A4F88C20B0F88E00E5
:10EF00000A2898BFA4F88E7005D98842A4BFA5F13D
:10EF10000C00A4F88E0084F8B730BDE8F0812DE92C
:10EF2000F04FADF5197DFFF7FEF89390FFF7F2F87B
:10EF30000646FFF702F90446FFF70AF9929006F138
:10EF4000170004F117059090FFF70EF90027919034
:10EF5000307C3C463B46002871D903EBC30000EBF4
:10EF60000311939800EBC10191F85B0000EBC00224
:10EF700002EB0012929800EBC20991F8B30001284D
:10EF800068D191F8C300022818BF032862D1601C21
:10EF9000C4B291F859202D4800EB820C3CF8048C47
:10EFA000A8F57F40FF381FBF3CF8022CA2F57F4038
:10EFB000B0F1FF00404604BFB9F80600B9F80820D8
:10EFC000B1F80690CDF8549209F1050ADFF8809067
:10EFD000A9FB0ABACAF3CF0ECDF860E2B1F808E097
:10EFE000CDF850E20EF1050AA9FB0ABACAF3CF0A1E
:10EFF000CDF85CA200F1050AA9FB0ABACAF3CF0B4F
:10F0000002F1050AA9FB0AA9C9F3CF0ADDF8549257
:10F010004CF6CD4E09FB0EF94FEAD949CDF858927E
:10F02000DDF850E24CF6CD490EFB09F94FEAD9491B
:10F03000CDF854924CF6CD4900FB09F90BE040E0C5
:10F04000700700207A0700205C0700204090002015
:10F05000CDCCCCCC2DE04CF6CD4E02FB0EFE4FEAD3
:10F06000DE4ECDF850E2DDF860E24FEAD949DE45E8
:10F0700004BFDDF85CB2D34507D0DDF858A2CA451D
:10F0800004BFDDE9949ACA4513D17F1CDFF8A09232
:10F090004FF6FF7AFFB2D04504BF3CF8028CD04552
:10F0A00007D12CF8040C91F8590009EB800020F8E6
:10F0B000022C581CC3B2307C98423FF64EAFA74298
:10F0C0007ED1707C02287BD39A49487A401CC0B21A
:10F0D00048721E283CBF0DF5197DBDE8F08F1E203B
:10F0E00048724FF410726846909909F0DFFE307C48
:10F0F0004FF0000B002874D90BEBCB0000EB0B1189
:10F10000939800EBC10191F85B0000EBC00202EBA9
:10F110000012929800EBC20291F8B300012859D175
:10F1200091F8C300022818BF032853D10B7891F837
:10F1300001C091980CFB00339098C05C0B7B00F0F1
:10F140003F0A107B984238BF0873507B4B7B984234
:10F1500038BF4873907B8B7B984288BF8873D07B85
:10F16000CB7B984288BFC873087B95904C7B949466
:10F17000137892F801C0919A91F80F800CFB02323B
:10F18000887BAA5C444502F03F091CD8919A6243EF
:10F1900097B2959A824210D8BB1815F803C00CF0AC
:10F1A0003F0ECE4505D12CF03F0C4CEA0A0C0DF871
:10F1B00003C0521C92B28242EED9621C94B200E0AB
:10F1C00019E04445E2D9959A0A73949A4A73887370
:10F1D00081F80F800BF1010000F0FF0B307C5845E7
:10F1E0008AD84FF410726946909809F05FFE0DF5C9
:10F1F000197DBDE8F08F4F4800214D4A4172084605
:10F200004FF6FF7122F8201002EB8003401CC0B2C1
:10F2100059800A28F6D30DF5197DBDE8F08F2DE948
:10F22000F0470F468246FEF77EFF0646FEF772FF66
:10F230000446002F57D1207C04F11709002852D032
:10F24000FFF76DFE207C0025002888BF4FF6FF7871
:10F2500022D905EBC50000EB051006EBC00292F8C1
:10F26000B300012813D1A2F88080A2F88280A2F80E
:10F270008480A2F88680A2F88880A2F88A80A2F80A
:10F280008C80A2F88E8049465046FEF711FF681C1C
:10F29000C5B2207CA842DCD8002510F0FF0F22D098
:10F2A00005EBC50000EB051006EBC00090F8C4109C
:10F2B000022918BF032906D090F8C510022918BFEB
:10F2C000032903D00AE000F02AFF07E0B0F880101D
:10F2D000A0F88410B0F88210A0F88610681CC5B29F
:10F2E000207CA842DCD8207C0025002898BFBDE8FF
:10F2F000F08705EBC50000EB051006EBC00090F8A9
:10F30000B31001290CD190F8C310022918BF0329AA
:10F3100006D190F8BC10002904BF394601F0EAF983
:10F32000681CC5B2207CA842E3D8BDE8F087000085
:10F330004090002070070020FE484078002818BF49
:10F3400001207047FC48006890F8580000F0010068
:10F350007047F94909688A6D60F300028A65704751
:10F36000F54B10B4D3F800C0BCF8123003FB00F426
:10F37000BCF81A005943B4FBF0FCB1FBF0F10CFBF4
:10F380000CF4DFF8B8C34943CCE9084103FB02F1B0
:10F39000B1FBF0F04043CCF8280010BC70474FF6AA
:10F3A000FF7202EA0023E54802EA0121C3850186D3
:10F3B0004FF4A05141864910818670472022DF49D1
:10F3C00006280ED2DFE800F00D030D05080A102014
:10F3D00000E04020888570478020FBE74FF4807074
:10F3E000F8E78A85704700B5022205210B20FFF758
:10F3F000B7FFDFF844C30A231422DCF8000090F8BA
:10F400005C00C0F3031100F00F00FFF7C8FFDCF849
:10F410000000B0F85C005DF804EBC0F30330CDE70A
:10F420002DE9F04190460D460446FEF773FEC448B0
:10F43000C14E47190A380544BCB1012C3AD0022C00
:10F440004DD0032C18BFBDE8F08104220E210F20FF
:10F45000FFF786FF30680A231422B0F85C00C0F37F
:10F4600003200146FFF79BFF1CE0022205210B2031
:10F47000FFF776FF15F8010C002801BF17F8010C03
:10F48000002898F8C300032830684FF00A034FF0B3
:10F49000140290F85C00C0F3031100F00F00E1D1FA
:10F4A000FFF77DFF3068B0F85C00BDE8F041C0F3C5
:10F4B000033083E702220E210F20FFF751FF30684F
:10F4C0000A231422B0F85C00C0F3032100F00F00FF
:10F4D000491CFFF764FFBDE8F04104206EE715F812
:10F4E000010C012804BF17F8010C01284FF0040299
:10F4F00019BF112112200C210D20FFF731FF15F843
:10F50000010C02283068C06D18BFC0F30351C0F36E
:10F5100003404FF00A034FF0140208BF0321FFF726
:10F520003EFF3068C06DBDE8F041000F46E730B5E2
:10F53000814C804D02222068418A408B8900B1FBBA
:10F54000F0F04043A86005210B20FFF709FF206879
:10F550000A23142290F85C00C0F3031100F00F009E
:10F56000FFF71DFF2068B0F85C00C0F30330FFF721
:10F5700025FF05F110014FF6FF700880488005F166
:10F580000C004FF0FF31018041800020287030BD19
:10F590006A4B03EB400003898B4288BF991A38BF3E
:10F5A000991808BF7047018170472DE9F04F83B06B
:10F5B00099460E460446FEF7ADFD0190FEF7C8FDE4
:10F5C00084465D4894F859505A4B00685B4A418A1A
:10F5D000408BC1EB0111890091FBF0F000FB00F1C1
:10F5E00094F8C400022811D0A2F1500000EBC5002D
:10F5F00050E9027894F85800B6F800A00228B6F84E
:10F6000002B094F8AD0013D038B336E0002002EB1E
:10F61000050A3788B6F802800AF8010C02EB450BA0
:10F62000B2F834A0ABF808A0012D08BF5870E1E78C
:10F6300018B394F85B0000EBC00E0EEB00100CEB5F
:10F64000C00090F8AD00C0B902EB4500B2F830C080
:10F65000B0F808E0E64510D90DE0894524BF94F8DC
:10F66000C400032809D102EB4500B2F830C0B0F85D
:10F6700008E0E64501D9A0F808C02079022818BFA3
:10F68000032806D094F8AD0018B9894538BF908E8C
:10F6900000D3508E508694F8ADC0BCF1000F08D155
:10F6A00094F8C400894502D2032811D101E0022850
:10F6B0000ED060469646926A4A4588BF0220009066
:10F6C0005878002804BF012DBCF1030F0CD101E0D4
:10F6D0000220EFE70120587018484189BEF8300039
:10F6E000814284BF15494881144A0C990098D2F888
:10F6F00020E04FF0020CCE4503D8022801D00129AA
:10F7000006D00E4B5A6A4A452AD9022838D127E03A
:10F7100094F8AC00032804BF94F89000002814D09B
:10F7200006490120294401F8010C042084F8AC00AA
:10F73000002007E0840700205C070020B89000202C
:10F74000FA90002084F8900043E0FE48284400F836
:10F7500001CC032084F8AC0094F89000401CE8E74A
:10F7600071B14A4598BFF1452BD202282BD0002019
:10F7700084F89000581910F8011C03291BD028E0C8
:10F7800094F8AC00042804BF94F89000002807D037
:10F79000581900F801CC032084F8AC000020C8E719
:10F7A0005919012001F8010C042084F8AC0094F8E8
:10F7B0009000401CBDE700F801CC032084F8AC00A9
:10F7C00007E0022805D15919032001F8010C84F83B
:10F7D000ACC0FEF79FFCDB4B86465A19988D12F899
:10F7E000012C198EB3F82E90B3F832C0022A04D03F
:10F7F000012A1CD0032A6FD032E003EB450201EB53
:10F80000410CB2F80890E14506D99EF80A90B9F18A
:10F81000000F08BFA2F808C0B2F808C08C4588BF26
:10F82000ACEB000038BF60441AD0108118E003EB45
:10F83000450CBCF8082091420AD2501AA2EB600095
:10F84000000A4FF6FF7101EA0020ACF8080007E05B
:10F850004A4588BF101A38BF104401D0ACF80800E0
:10F8600003EB45000289002A04BF0020014620D096
:10F870001046B2F5807F36BF4FF4807101464FF4D9
:10F880008072B148009B022B30D094F859C00023FD
:10F890000CF80030A1F58070784300EB0A20B0FB33
:10F8A000F1F0A2F5807101FB08F101EB0B21B1FB36
:10F8B000F2F194F85930A54A02EBC30343F8080C5F
:10F8C00094F8593002EBC30242F8041CB080F18076
:10F8D00003B0BDE8F08FFFE703EB450211896145F6
:10F8E00088BF081A38BF08449FD1B9E794F8593047
:10F8F00013F800C0BCF1FA0F3CBF0CF1010C03F887
:10F9000000C094F85930185C3C28C3D30198090A08
:10F91000120A407C02288E48006816D3B0F818E01E
:10F92000058AB0F81AC0408A0CFB0BF90EFB0AF3EB
:10F93000B9FBF0FAB3FBF5F30EFB07F90CFB08FC7F
:10F94000B9FBF5F5BCFBF0FC15E0B0F81490058AA6
:10F9500009FB0AF3B0F816C0408A0CFB0BFAB3FBA4
:10F96000F5F309FB07F90CFB08FCBAFBF0FAB9FB4D
:10F97000F5F5BCFBF0FCA1F1010000FB0530B0FB8C
:10F98000F1F3A2F1010000FB0CA0B0FBF2F2704811
:10F990000168B1F8109009FB03F009D3B1F8189091
:10F9A000B1F812A0B0FBF9F00AFB02F9498B08E0AC
:10F9B000B1F81490B1F812A0B0FBF9F0C98A0AFBB3
:10F9C00002F9B9FBF1F1AB4218BF62457FF471AFA8
:10F9D000AB4208BF3846624508BF414669E72DE99A
:10F9E000F04F90F859C08FB04FF4806300290CBFDE
:10F9F000584C594C04EB4C14584D029205EB4C17E3
:10FA000005F5A5756544203C15F8015C07EB051666
:10FA100006EBC10858F8206C921B039290F8C400C2
:10FA200002287CD058F81C8C04EB051206EB080960
:10FA3000CDF83090D2F80490D6689568106809EB3C
:10FA40000602DFF81C9128441044D9F800A0354480
:10FA50005044D9F804A05244D9F808A0D9F80C9021
:10FA600055444E44DDF808A0DDF83090AAEB0909B2
:10FA7000CDF82090DDF80C90DFF8E8A0A9EB08099C
:10FA8000CDF82C90DAF8009009EB000ECDF828E0C4
:10FA9000DAF80490DAF808B0DAF80CA09144B2442D
:10FAA000AB440EFB0AFE09FB1BEE9EFBF3FEBEF110
:10FAB000000F08BF4FF0010E4FEA8A2A9AFBFEFAA8
:10FAC0004FEA892999FBFEF9CDF838A0C9F1000A5F
:10FAD0004FEA8B29CDF834A0DDF828A099FBFEF978
:10FAE0004FEA8A2A9AFBFEFBDDF838A0C9F100092B
:10FAF00000FB0AFA02FB09AA9AFBF3FEDDF834A028
:10FB0000CDF828E000FB0AFA02FB0BAA9AFBF3FEF1
:10FB1000CDF824E0DDF838A005FB0AFA00E073E038
:10FB200006FB09A999FBF3F9DDF834A0CDF838906C
:10FB300005FB0AF906FB0B9999FBF3FADDF828E0BF
:10FB400012E00000B8900020AD91002068900020E5
:10FB50005C070020B8910020F89200203894002023
:10FB6000C0070020D0070020DDF820900EFB09FB25
:10FB7000DDF824E0DDF82C900EFB09BEDDF820B0A6
:10FB8000DDF838909EFBF3FE09FB0BFBDDF82C90B3
:10FB90000AFB09B999FBF3F9C844DDF830B0DDF888
:10FBA0003890F344CDE900B8DDF828E0C9F1000948
:10FBB000CEF58068DDF824E0CAF5806ACEF1000B4E
:10FBC00008FB00FE0BFB05EE08FB02F809FB00F04A
:10FBD0000BFB06880AFB05009EFBF3FE98FBF3F87F
:10FBE00090FBF3F0CDF810E0CDE9058009FB02F0C1
:10FBF0000AFB060090FBF3F00022E84604AE0790F3
:10FC0000FE4800EB0C0315E0FC4A00206244039020
:10FC100012F8012C02AB07EB021202EBC10253F8FF
:10FC2000204002EB8005401C00B245F8204C022821
:10FC3000F5DB20E013F8015C58F8220007EB05150E
:10FC400005EBC10505EB820545F8200C002006EB0D
:10FC5000C20513F801AC55F8209004EB0A1A0AEB20
:10FC6000C20A4AF82090401C00B20228F1DB501C66
:10FC700002B2022ADEDBE148604410F8010C07EB17
:10FC8000001000EBC10050F8200C0FB0BDE8F08F61
:10FC900070B4012803BF022401204FF0000C04249B
:10FCA0001CBF03204FF0010C0026D54D0029C8BF12
:10FCB000204609D00CEB8C0105EB810101EB4201E0
:10FCC00021F8026C70BC7047CE480CEB8C0100EB45
:10FCD0004100104405EB810101EB420210F8010CD8
:10FCE00032F8021C642924BF70BC7047491C22F8FA
:10FCF000021C0121197070BC70472DE9F001012828
:10FD0000DDE9055614BF0120002000EB8000DFF87C
:10FD1000F4C20CEB400C8C441CF801CCBCF1000F7D
:10FD200004BFBDE8F0017047DFF8DC82002408F171
:10FD30003C07944531D1A7F1280202EB800202EB87
:10FD4000410232F8022C9A4207D908EB40000844DD
:10FD500000F8014CBDE8F001704708EB40020A448E
:10FD600012F8013C642B24BFBDE8F0017047002E5F
:10FD70001CBFBDE8F00170475B1CDBB202F8013C20
:10FD80000A2B3CBFBDE8F001704707EB4000084478
:10FD900000F8014CBDE8F001704708EB40020A444E
:10FDA00007EB400012F8013C0844052B36BF10F861
:10FDB000011C00F8014C642904D20A2DA4BF491C7F
:10FDC00000F8011C02F8014CBDE8F00170472DE974
:10FDD000F04F89B082460888ADF8100048888946FF
:10FDE000ADF81400FEF796F900909AF8C4009AF85E
:10FDF0005940022804BF204600F0D3FC8348874ABC
:10FE00002044089010F8015C81488349204402F1A5
:10FE1000080C00F8015C7F4800EB040818F8010C9E
:10FE2000D8B1681CC0B2142821D304EB840001EBC4
:10FE3000C00000EB450330F828EC33F828BCAEEBEB
:10FE40000B0B02EB840E4EF804BC1B8D008DC01A08
:10FE50000CEB840343F8040C20E002EB8403002045
:10FE600043F8040C0CEB840343F8040C16E004EB99
:10FE7000840301EBC30303EB400030F8283C30F867
:10FE80002ABCA3EB0B0302EB840B4BF8043C038D61
:10FE9000C08C181A0CEB840343F8040C04EB8400A8
:10FEA00001EBC000079000EB4500BDF8103020F8D2
:10FEB000283CBDF814B0A0F828B0132D04BF0120D1
:10FEC00008F8010C9AF8C40003284FD1002D1CBF7C
:10FED000681EC0B25AD0079901EB400030F8281CC8
:10FEE000008DA3EB010118F8013CABEB000001937E
:10FEF000002B52D04A4B002903EB840656F8047CB1
:10FF0000ACBF0B464B4207EB030B464B46F804BC19
:10FF100003EB8403002853F804ECB4BF47420746C0
:10FF2000774402EB840243F8047C52F8042C002A44
:10FF3000B8BF5242ABEB020246F8042C0CEB840231
:10FF400052F8042C002AB8BF5242BA1A43F8042CC3
:10FF5000354A1268138B5943138A91FBF3F6518B80
:10FF60004843518A90FBF1F7019878B32F4802215A
:10FF70002044069000F8011C2D4800EB040B0BF800
:10FF8000011C9AF8AD00032861D15DE018F8010C5E
:10FF900001280CBF132028469DE7214A002902EBC7
:10FFA000840252F804CCB4BF4B420B46634442F87F
:10FFB000043C1C4A002802EB840252F804CCB4BF73
:10FFC00043420346634442F8043CC1E7FFE7194853
:10FFD000002E00EB440030F8022CB4BF71423146D1
:10FFE0008A4205DA002EACBF3146714220F8021C6D
:10FFF0004288002FB4BF794239461DE07895002031
:020000021000EC
:10000000769700204E9700206297002086070020F8
:10001000880700208A07002004910020980700200C
:10002000B0070020B80700205C070020F0900020F7
:10003000FA900020A80700208A4297DA002FACBF70
:1000400039467942418091E7FEF70FF968B12046C1
:1000500000F0A7FBBDF81000A9F80400BDF81400DB
:10006000A9F8060009B0BDE8F08F18F8010C0128C6
:1000700003D0D8B9691C072918D3282ED8BF282F38
:1000800009DCFD4901EB440131F8022C282A9CBF10
:100090004988282919D9009890F85A02012805D1D1
:1000A0000699032001F8010C0BF8010C0898089937
:1000B00010F8010C401CC0B201F8010C1428C9D37F
:1000C0000899002001F8010CC4E7EC494FF0000C3E
:1000D00001EB840151F8042CE94901EB840151F84A
:1000E000041C8A42C8BF4FF0010C05A904AA1423BE
:1000F000CDE90003CDE9022107982B4600F1280243
:10010000A0F12801604600F074FB01280CBF01201B
:100110000020069901F8010C0BF8010CC6E72DE947
:10012000F04F8DB00446FDF72FFB0490FDF72FFB39
:100130000890FEF70DF88146FDF7ECFF079094F864
:100140005960FDF7E7FF827A94F859100127002AD9
:1001500004BF427D002A06D1027D012A1CBF90F80F
:100160005D22012A01D180F85A7200258DF81950BC
:100170008DF818708DF8175090F85A02DFF8048344
:100180000028D8F800007DD0826DC2F3C0438DF8FE
:100190001430C2F340428DF81520806D2246C0F322
:1001A00080408DF816000220FFF73AF9B548D0F8E4
:1001B000008098F8580010F0010F00F0468294F883
:1001C0005B10B4F8800001EBC102ADF8080002EB4F
:1001D0000111B4F8823009EBC101ADF80A300B917E
:1001E00094F8591094F8C4C0A74A01EB4101BCF13E
:1001F000020F02EB81017CD031F80AAC21F808AC87
:1002000031F80C2C21F80A2C21F80C0C31F8049C44
:1002100021F8029C31F806CC21F804CC21F8063CE8
:1002200081B261F30F0062F31F40914284BF62F319
:100230000F0061F31F40010C514588BF6AF31F4056
:1002400081B2020C914284BF62F30F0061F31F4040
:10025000000C63F30F016CF31F41634584BF6CF323
:100260000F0163F31F410A0C4A4588BF69F31F4120
:100270008AB20B0C9A4284BF63F30F0162F31F41F1
:100280000B0C00E010E09DF81410ADF80C00ADF878
:100290000E30012904BFADF80800ADF80A3094F81B
:1002A000C40002283AD0B0E090F85820C2F3C0034E
:1002B0008DF81430C2F340028DF8152090F85820C4
:1002C000C2F380028DF816202279022A1EBF032A6B
:1002D000224600207FF468AF826DC2F3C0438DF8E0
:1002E0001430C2F340428DF81520806DC0F3804079
:1002F00000E006E08DF8160022460220FFF790F895
:1003000054E721F8080C21F80A0C21F80C0C21F80C
:10031000023C21F8043C21F8063CB2E75B484FF070
:10032000000C304400F8015C59480195304400F855
:10033000017C584800EB46100A90574800EB4610E5
:100340000990564800EB461000900999002001EBF7
:100350000C1E009901EB0C1B0A9901EB0C190021F2
:100360000EEBC0020BEBC00309EBC00702EB810AE6
:100370004AF8205C03EB810A4AF8205C07EB810A0B
:10038000491C09B24AF8205C0229EFDB401C00B28C
:100390000228E4DB0CF101000FFA80FCBCF1020F33
:1003A000D3DB099A0198DFF8F8E002EB001ADDE9E7
:1003B0000002002100EB02193A4A002002EBC107BB
:1003C0000AEBC10C09EBC1050EEBC103814207D159
:1003D000B8F8622043F82020B8F8602047F82020C1
:1003E00053F820200CEB800B02EB820252004BF8FA
:1003F000202C05EB800B401C00B24BF8202C02286F
:10040000E4DB481C01B20229D6DBBDF8082000213C
:100410002046FFF7E4FA0546BDF80A2001212046F0
:10042000FFF7DDFA002DB8BF00250028B8BF002077
:10043000144F3968B1F91020531EAB42B8BF1D46A6
:10044000B1F912104A1E8242B8BF1046AAB283B256
:100450000E48ADF80C2081190A30ADF80E3030444A
:1004600011F801CC10F8015C01F8015C00F801CC36
:100470009DF81600012817E0A8070020B00700200B
:10048000B80700205C0700208C950020789500209C
:100490008295002038940020B8910020F892002026
:1004A000C0070020D007002004BFADF80820ADF839
:1004B0000A3020460B9900F08BFA94F858100B98EC
:1004C000022918BF002529D0C4F89450B4F8801030
:1004D000B0F88020DFF86C84891AC4F89810B4F85A
:1004E0008210B0F8820008F10A09081AC4F89C00CA
:1004F000022E9CBF9DF81700012823D008EB0601AF
:10050000022001F8010C09EB060101F8010C08EBCF
:100510000601002011F8011CB1BB36E0B4F88010D0
:10052000B0F88030CA1A48BF5A1AB4F88230B0F80E
:1005300082C0B3EB0C0148BFACEB0301524301FB9B
:100540000125C1E72A4602A92046FFF740FC07988B
:1005500090F85A020028DAD1FB48304410F8010C18
:10056000012808D00028D2D1F848304410F8010CF6
:10057000401C1428CBD9BDF80C00ADF80800BDF81C
:100580000E00ADF80A00C2E704E009EB060111F81D
:10059000011C01B10120009007982B4602A9427C62
:1005A0002046FFF702F89DF81500012840D0BDF85D
:1005B0000800A4F88400BDF80A00A4F88600BDF87D
:1005C0000810049ABDF80A009142B8BF1146089A73
:1005D0009042B8BF10463B68049AB3F910C0ACEB28
:1005E0000202A2F1010C8C45B8BF6146B3F912308A
:1005F000089A9A1A531E8342B8BF184689B2A4F8C3
:10060000841080B2A4F886000B9AB2F88420891A6C
:10061000C4F8A4100B9AB2F88620801A4943C4F893
:10062000A80000FB0010C4F8A0000DB0BDE8F08FDA
:10063000BDF80C00ADF80800BDF80E10ADF80A10BA
:10064000A4F88400BDF80E00B7E7B4F88000A4F861
:100650008400B4F88200A4F886000DB0BDE8F08FE5
:10066000BB4A30B4146894F8542012F0040F1ABF37
:10067000012323EA020502F00105B0F900C0B1F937
:1006800000301DB1E58AEB1A5B1E1BB212F0020F9F
:1006900006D0A48AA4EB0C0CACF1010C0FFA8CFC74
:1006A00012F0040F19BF0380A1F800C0A0F800C029
:1006B0000B8030BC7047A64A30B41268B2F898304C
:1006C00013F0FF024FEA132308BF6422002B08BF78
:1006D00064230488B1F800C062439E4CA4FB02521C
:1006E000520902800CFB03F0A4FB002040090880A3
:1006F00030BC70472DE9F0470446954882B0006849
:10070000B0F818A0B0F81A90858AC68A078AB0F89F
:1007100012800020ADF80000ADF80400FDF7FAFCEF
:10072000B4F88410B4F8860001FB0AF292FBF7F2E9
:10073000A4F8882000FB09F292FBF8F269437043A9
:1007400091FBF7F190FBF8F0A4F88A20ADF80010C7
:10075000ADF8040001A96846FFF782FFBDF900006B
:10076000711E8842A8BF084600B2BDF904106A1E77
:10077000ADF800009142A8BF114609B2ADF80410CF
:100780000028D8BF0020ADF800000029D8BF002104
:10079000ADF80410A4F88C00A4F88E1002B0BDE8E7
:1007A000F0876A4A0021024402F8011C6A4A0244A6
:1007B00002F8011C644A024402F8011C674A02EB79
:1007C000800242F8041C664A02EB800242F8041CD4
:1007D000644A02EB800242F8041C634A02EB800286
:1007E00042F8041C614A02EB400020F8021C4180E0
:1007F00070472DE9F0439BB01F468C46DDE9233559
:100800000021DDF888800646259C129113911491F1
:10081000159116911791189138461991B8F1000F5A
:1008200014BFA3F10A07471C052F40F2CD804FFAF1
:1008300080F909F1010189B28B4298BF0021B8F11A
:10084000000F6FD03CF81180CDF8488032F81110BD
:100850001391A9EB530109B2002901DA194409B235
:100860003CF81180CDF8508032F811101591F9B292
:10087000CDE900310DF1100813460146CDF808808E
:100880006246304600F005FA16902A8803923049F5
:100890002088069009684B8AB1F81AC0C3EB03138D
:1008A000B3FBFCF317934B8AB1F81AC0C3EB0313E5
:1008B000B3FBFCF318934B8A498B03EB83035B0078
:1008C000B3FBF1F11991DDF85CC0002E4FF000018F
:1008D0004ED0129B059A5A43049B03EB2242139B72
:1008E000D31A44BF139B9B1A634569D2149B059A84
:1008F000DDF860C05A43049B03EB2242159BD31AD8
:1009000044BF159B9B1A63455AD2169A199B821AAB
:1009100044BF169A121A9A4252D2169880B2069082
:100920004DE0FFE7BCF80080CDF84880B2F80080C9
:1009300021F00101CDF84C803CF80180CDF85080C9
:10094000515A93E7F09000208A0700208807002082
:100950005C0700201F85EB5186070020B0070020B0
:10096000B807002098070020A0070020A807002053
:10097000139B05985843049B03EB2040129BC31A1A
:1009800044BF129B1B1A63451AD2159B0598DDF8CC
:1009900060C05843049B03EB2040149BC31A44BF20
:1009A000149B1B1A63450BD21698199B101A44BF4F
:1009B0001698801A984203D2169880B203900121AB
:1009C00003982880069820801BB00846BDE8F08375
:1009D0002DE9FF4F8BB09B468A460546FDF79AFBF3
:1009E00090F85A22BAB114204FF0020802902879E8
:1009F00095F85940FE49022818BF032815D0012A4E
:100A00001CBFFC4886681AD095F8C400FA4A002733
:100A1000022840D11DE03C210291407C02282CBFDD
:100A20004FF003084FF00F08E1E708686423428A9B
:100A3000408B5A43B2FBF0F000FB00F6E4E7086895
:100A4000428A408BC2EB0212B2FBF0F000FB00F6D0
:100A5000DAE7101900F8017CE848204400F8017C2E
:100A60004772E748204400F8017C4772E54800EBF4
:100A7000440020F8027C4782E34885F8AD702044AA
:100A800000F8017C4772E148204400F8017CE0480E
:100A9000204400F8017CDF4802EB040900EB04135A
:100AA00019F8010CDDF834C003EB400222F810CC39
:100AB000A2F890B095F8C420032A46D1C01D00F0DA
:100AC00007008DF8207003EB40008DF8247030F89B
:100AD000102C0D9BB0F890009A1AABEB000308683D
:100AE000018B5143028A91FBF2F10791418B408ABD
:100AF000594391FBF0FB08AB224601200799FFF711
:100B0000C7F8059009AB224659460220FFF7C0F806
:100B100003909DF820100798CDE90001214601209F
:100B2000029B059AFFF7E9F89DF82400DDE90232FF
:100B3000CDE900B021460220FFF7DFF8B048059963
:100B4000204400F8011C0399417219F8010C01229C
:100B5000401CC0B209F8010C082808D309F8017C30
:100B60009AF8AD00002808BF8AF8AD2002E09AF894
:100B7000AD0018B195F85800022809D085F8AD707D
:100B8000A148204400F8017C47720FB0BDE8F08F07
:100B9000A04B0021084603EB041C0CEB4003401C57
:100BA00033F8103C80B219440828F6D34FEAD10A32
:100BB00000210846E9460CEB400333F8103CA3EB58
:100BC0000A035B4349F82030401C80B219440828CE
:100BD000F1D34FEAD109904B0021084603EB041CE6
:100BE0000CEB4003401C33F8103C80B21944082839
:100BF000F6D34FEAD10A00210846EB460CEB40033E
:100C000033F8103CA3EB0A035B434BF82030401C45
:100C100080B219440828F1D3C80803234E4528BFE1
:100C2000864208D37548204410F8011C08299CBF4F
:100C3000407A082811D9754885F8AD30204400F86D
:100C4000017C7348204400F8012C95F8AD0003287E
:100C500004BF0FB0BDE8F08F92E76C48204410F855
:100C6000011CC8293CBF491C00F8011C68492144EB
:100C700011F8011C012908D110F8010C40459EBF54
:100C800085F8AD300FB0BDE8F08F022085F8AD00DB
:100C900076E72DE9F04FAFB00FFA81F9DDE9388C36
:100CA0000124CA466946002848D032F81A002B9021
:100CB000BCF1010011D441F8204001EB800632F86C
:100CC0001A503565AAF101050FFA85FABAF1000F3D
:100CD000B8BFA8F1010A401EEDD5002425464846BC
:100CE000BCF101020FD433F8107051F82260401E9D
:100CF0007E43341900B245EBE6750028B8BFA8F171
:100D00000100521EEFD500263746BCF101005DD42C
:100D100001EB800233F819A0126DA9F1010902FB61
:100D20000AF296190FFA89F947EBE277B9F1000F49
:100D3000B8BFA8F10109401EEAD547E033F81A0010
:100D40002B90BCF1010011D441F8204001EB80064A
:100D500033F81A503565AAF101050FFA85FABAF190
:100D6000000FB8BFA8F1010A401EEDD500242546AA
:100D70004846BCF101030FD432F8107051F82360DB
:100D8000401E7E43341900B245EBE6750028B8BF1B
:100D9000A8F101005B1EEFD500263746BCF101002B
:100DA00014D401EB800332F819A01B6DA9F10109DD
:100DB00003FB0AF39E190FFA89F947EBE377B9F1C0
:100DC000000FB8BFA8F10109401EEAD54FF0000896
:100DD0004046CDF8A080BCF1000F24DD51F8202062
:100DE000289B524312EB080843EBE27216E0000026
:100DF0005C070020840700204497002062970020B1
:100E00004E970020769700209E970020B2970020F2
:100E1000A491002004960020A496002000F1010077
:100E200028928445DADC0022964610462992BCF1CD
:100E3000000F11DD01EB800351F820201B6DDDF860
:100E4000A4905A434FEAE27A12EB0E0E4AEB0903E2
:100E5000401C29938445EDDC4FF00009CA46484602
:100E6000BCF1000F0DDD01EB800251F82030126D56
:100E700000F101005A4312EB09094AEBE27A84457A
:100E8000F1DC002003460246BCF1000F0CDD694690
:100E900001EB8001096D49434FEAE17B8A184BEB76
:100EA0000303401C8445F2DC1046A8FB002C289963
:100EB000CDE92C0301FB00C0AEFB09CB29992E9193
:100EC00008FB030301FB09B10EFB0A10B2EB0C0196
:100ED00063EB0000CDE92901084333D0DDE92C02A2
:100EE000A0FB0413AEFB06CB02FB04322E9B00FBDF
:100EF000052203FB06B30EFB0733B1EB0C0062EBDC
:100F00000301DDE9293207F0ADFF3A990860A8FB3B
:100F10000602289901FB0621A9FB04230AFB0433DE
:100F200008FB071109FB0533801A61EB0301090473
:100F3000DDE9293241EA1041000407F093FF3A99B4
:100F4000486004E03A99002008603A9948603A986D
:100F5000D0E900122B98504311EB204048BF0020ED
:100F60002FB0BDE8F08F70B5ADF5206D0E4605468B
:100F7000FDF7D0F80446FDF7E0F84FF4206168462D
:100F800008F035F86A463146284607F021FF024648
:100F9000E0736946284605F037FC20740DF5206D96
:100FA00070BD00002DE9FF4FADF2E46D0F469A468B
:100FB00093464FF00008012640F28441684608F04D
:100FC00016F84FF411710DF2844008F010F8FE4845
:100FD000007801280CBF46203220CDF8C806FDF766
:100FE000C3F88146FDF7C4F8CDF8CC0609FB0AB07A
:100FF0008DF800B08DF801A037F9100045F2565178
:10100000484301146BF30F046AF30F05A1EBE07082
:101010006BF31F446AF31F450DF2844ECDF8D806DA
:1010200069461DF8182001EB4800CDF8D406407839
:101030004FF0FF3A09FB002080B2CDF8DC061DF826
:101040001800504403B2002BA8BF99454DDDD9B21A
:101050004FF0FF30CDF8D016DDF8D41649780144B2
:101060000AB2002AA4BFDDF8CC16914239DD09FB93
:10107000023189B21EF801C0BCF1000F31D137F93D
:1010800011C0DDF8C8B6DC45BCBFDDF8D8B6DC451C
:1010900027DBDDF8DCB637F91BB0E34521DB4FF089
:1010A000010C0EF801C06946DDF8D0C601EB46011F
:1010B0000DF816C04A70711C8EB229B29142C8BF99
:1010C00062F30F0521B29942C8BF63F30F042914DC
:1010D0009142B8BF62F31F4521149942B8BF63F330
:1010E0001F44401C00B20128B6DD0AF101000FFACE
:1010F00080FABAF1010FA2DD08F101001FFA80F8B1
:10110000B8F5107F01D8B0458AD1DDF8E406046057
:1011100045600DF2F46DBDE8F08F2DE9FF4FAB484F
:101120000F46D1B000689046B0F814B0C18A0020D4
:101130000646054604464C9148909021684607F0C3
:1011400056FF902124A807F052FFFDF715F8FDF790
:101150000BF84990FDF70CF839B20FFA88F3CDE996
:101160004A31499B3A149BFBF3F109B24D914C99DA
:101170004FEA284891FBF0F000B24E90DDE95E01A5
:1011800001FB030151984A9B47F6FF774FF0000C93
:1011900030F91100BA46E146434538DC45F2565174
:1011A00048430114A1EBE0704C9049984B99584387
:1011B00000B24F90914226DC4F9800EB010B519802
:1011C00030F91B00DDF830B183450BDC5DF821E020
:1011D0000DF1900B86444DF821E05BF823E070445C
:1011E0004BF823000BDCBB42B8BF1F469C45B8BF81
:1011F0009C468A45C8BF8A468945C8BF8946481C5F
:1012000001B29142D8DD581C03B24345CDDDACEBB1
:1012100007000628D9BFA9EB0A000628002055B010
:10122000C8BFBDE8F08F05234B98DFF8A4C19042FA
:10123000D8BF6F4619DC00EB800957F8201003EB8C
:10124000490ADDF834910D440AFB09F901FB09F163
:101250008CFB01914FEAA109A9EBE1794899401C67
:10126000494400B248919042E5DD4A988045A8BFC4
:1012700024AA14DB00EB800752F8201003EB470987
:101280004E9F0C4409FB07F779438CFB01718F10CB
:10129000401CA7EBE17100B20E448045EADA002160
:1012A000002D04BF5498418004D04898549A90FB74
:1012B000F5F05080002C07BF5498018096FBF4F0A5
:1012C000549918BF0880012055B0BDE8F08F2DE972
:1012D000F34F81460020C1B0054600900190339045
:1012E0003490329039903A9004463C90389048219E
:1012F00020A807F07CFE482102A807F078FE002015
:101300003790369080463E9030480068B0F916100D
:101310003B91037942792C483D939446007801280B
:1013200007BF4FF0460B69204FF0320B502035902D
:101330000020002B2ED9991E0DF1080E3F9100219F
:10134000002A23D900FB0217BFB239F917705F4595
:1013500018DD3EF810A0012857442EF8107011D95E
:101360003F9FB8420EDA8C4588BF8C463D9F87422E
:1013700088BF3D903A9F8F4238BF3A913C9F874249
:1013800038BF3C90491CC9B29142DBD3401CC0B26B
:101390009842D4D33A98A0EB0C000A28C2BF4FF071
:1013A000FF3043B0BDE8F08F4FF0FF314FF0000A3F
:1013B0005046002B52D9A3F1010C0DF1500ECDF87F
:1013C000E8C00DF1080C05E0E00700205C070020F4
:1013D000676666663CF910C0BCF1000F2CDDBAF1FF
:1013E000000F0ED0389FBC4507DD01EB4107CDF85B
:1013F000E0C00EEB470CACF80400BAF1010F29D1A4
:101400000FE0491C09B201EB41074FF0010A2EF829
:101410001700CDF8E0C00EEB470C0529ACF804002E
:101420001CDCDDF8E8C0604514D101EB41070EEB90
:10143000470CACF802000DE0BAF1010F0AD101EB44
:10144000410A0EEB4A0C471EACF802704FF0000A3E
:10145000CDF8E0A0401CC0B29842B2D300270629C4
:101460004ADA491C002038910029C4BF0DF1080C4C
:10147000DB1E35DD00EB400A14A901EB4A01DDF863
:10148000D4A0B1F904103CF911E0D64523DD0229BE
:10149000C8BF8B420FDD0199491CC9B20191379930
:1014A000022918D20DF1CC0A0AF801003799491C1B
:1014B000C9B237910FE00099491CC9B20091369921
:1014C000022908D2DDF8D8A034A901F80A0036991B
:1014D000491CC9B23691401C3899C0B28142C9DC5E
:1014E0000198022888BF03273ED830B10146012069
:1014F000022915D001291FD036E00098002818BF16
:10150000032831D29DF8D0008DF8C8000098022839
:1015100004BF9DF8D1008DF8C900009847B223E0C0
:10152000FE49022748709DF8CC008DF8C8009DF850
:10153000CD008DF8C90017E00099012901D061B1F3
:1015400012E0F649022748709DF8CC008DF8C800DB
:101550009DF8D0008DF8C90006E0F04901274870D9
:101560009DF8CC008DF8C800781E022874D20023A4
:10157000002F72DD501E0DF1800E369032A80DF155
:10158000500CC05C00EB40001CF810100CEB40004D
:10159000B0F902000090884218DB0020002A10D920
:1015A00001FB020C1FFA8CFC39F91CC0DC4504DD80
:1015B0003EF810A0D4442EF810C0401CC0B2904297
:1015C000EED3481CC1B200988842E6DA00210846F2
:1015D000002A88BF03F1010A38D93EF910C0BCF1D6
:1015E000000F1DDD31B1A445C4BF64460646012984
:1015F00028D102E0012164460646DDF8D8C06045E6
:1016000020D1DDF8D4C064451CDD05F1010C0CF0DF
:10161000FF050DF1E40C0AF0FF080CF8036011E07F
:1016200001290FD1DDF8D4C00021644509DD05F1A1
:10163000010C0CF0FF050DF1E40C0AF0FF080CF8AA
:1016400003600024401CC0B29042C6D30198002819
:1016500018BF012D02D903274BE011E00020002A1A
:1016600088BF002105D92EF81010401CC0B282425C
:10167000F9D80024581CC3B22546BB42FFF67EAF02
:101680003E98B0BB00244FFA88F7B8F1000F84BF32
:1016900039AD14AE2DD932A815F804A0005D52461C
:1016A00000EB400006EB40004946B0F804B0684645
:1016B0005B46FFF777FCDDE90012CDE900AB42980D
:1016C00000EB84034846FFF728FD002808BF4FF0D1
:1016D000FF370AD042983B9930F824008842B4BFC3
:1016E000081A0020429921F82400601CC4B2444525
:1016F000D1D343B03846BDE8F08F2DE9F04F87488D
:1017000085B00025B0F84010C28F6FF07847891A75
:1017100009B20291B0F84410B0F84220891A09B217
:101720000191B0F82C90A9F1010006B200904AF6A0
:10173000AB2009FB00F0C0F3474CBCF1060F88BF9B
:101740004FF0060C0023BCF1000F36D90022BCF18B
:10175000000F2ED972480FFA83FE30F923B000EB48
:101760008300B0F902A06E48A9EB020800EB8800E4
:1017700030F9041C30F9020CABEB0101AAEB0000BC
:1017800001FB01F400FB0044A7420EDD27460029BF
:10179000D8BF494209B204910028D8BF404200B2E4
:1017A0000390A8F10100754606B2501C82B2624552
:1017B000D9D3581C83B26345C8D3DFF860C142F265
:1017C00010708742ACF84650ACF848607ADC02985A
:1017D00046F2676148434114A1EBE07104988842E6
:1017E00070DA019846F2676148434114A1EBE07159
:1017F0000398814266DD0020002D2DDDDFF8208179
:1018000008EB850138F92530B1F9022038F920407C
:10181000E11A0029CCBF0F461F1BBCF91C904F4595
:1018200004DD0029D8BF191BACF81C1008EB80019F
:10183000B1F90240A11A0029CCBF0F46171BBCF911
:101840001E904F4504DD0029D8BF111BACF81E10B7
:10185000401C80B28542D9DC009880B2B0422CDDB9
:101860002F4F07EB860137F92630B1F9022037F9FF
:101870002040E11A0029CCBF0D461D1BBCF9208079
:10188000454504DD0029D8BF191BACF8201007EB33
:101890008001B1F90240A11A0029CCBF0D46151BE9
:1018A000BCF92280454504DD0029D8BF111BACF8E6
:1018B0002210401E80B2B042D9DC05B00120BDE844
:1018C000F08FFFE705B00020BDE8F08F2DE9F001B3
:1018D0000022884220D2DFF8488008EB800338F9E4
:1018E0002040B3F902C038F820301B1B1DB208EBB2
:1018F0008003401C5E889F88DB883F1BA3EB0C03A2
:101900001BB2A6EB0C066B4336B23FB207FB163395
:1019100080B21A448842E6D3501003E0E00700206A
:10192000D8970020BDE8F00170472DE9F04F002363
:101930001A461C464FF0010B4FF0020A8142BCBF11
:101940000020BDE8F08FDFF8C8E50EEB81053EF919
:101950002180B5F902600EEB80053EF92090B5F9C3
:101960000270A9EB080CF51B08FB07F709FB1677BB
:10197000BCF1000F03DD6D42CCF1000C7F4286B25A
:101980008E4216DC0EEB86093EF92680B9F90290EC
:1019900008FB05F80CFB0988B844B8F1000FCCBF70
:1019A0005B1C521C08BF5B1C06F10106B6B28E42DE
:1019B000E8DD4FF0640C081A03FB0CFC411C9CFB97
:1019C000F1FCBCF14B0F02DAC31A032B01DA44EA33
:1019D0000B046423534393FBF1F14B2902DA801A81
:1019E000032801DA44EA0A042046BDE8F08F2DE915
:1019F000F04F0024DDE90BA8DDF824B0B2F9006057
:101A0000282E7DDA0BEBC40CBCF906701E2F2EDDE0
:101A100000EBC6059CF9009095F900E0CE450BD18E
:101A2000EE883E44EE80B2F90050BCF804C000EBF2
:101A3000C505A5F804C01AE0751C2DB2158000F884
:101A40003590B2F90060BCF8025000EBC606758014
:101A5000B2F90060BCF8045000EBC606B580B2F9DC
:101A60000050BCF806C000EBC505A5F806C004F19F
:101A7000010C1FFA8CF45445C0D90022B3F900C000
:101A8000BCF1280F43DA0A9800EBC200B0F9065007
:101A90001E2D33DD01EBCC0490F9006094F9007049
:101AA000B7420CD1B4F806C0AC44A4F806C0B3F9F0
:101AB00000C0808801EBCC0CACF804001EE00CF1F7
:101AC000010C0FFA8CFCA3F800C001F83C60B3F9DC
:101AD0000040B0F802C001EBC404A4F802C0B3F99E
:101AE0000040B0F804C001EBC404A4F804C0B3F98A
:101AF00000C0C08801EBCC0CACF80600501C00E024
:101B000005E082B24245B9D90120BDE8F08F00203E
:101B1000BDE8F08F2DE9F001FF4DFE482D68B0F9CA
:101B200000C0B0F90420B5F91670B5F91460FB4D8A
:101B3000B0F90210B0F90600B5F81A800B1AACEB38
:101B40000204B8F1030F24D14FF00008A5F81A8061
:101B5000BCF1100FA4BFA7F11005654519DB102AD1
:101B6000A8BF954215DB1029A4BFA6F110028A4236
:101B70000FDB1028A8BF82420BDB04FB04F003FB41
:101B8000030041F288318842BEBF0120BDE8F00168
:101B900070470020BDE8F0017047DFF87CC330B427
:101BA000DCF800C0B0F90E00BCF91640BCF91450C6
:101BB00045F2565C04FB0CFC4FEA2C44A4EBEC7C95
:101BC00084451CDD46F2676068434FEA604CACEB2D
:101BD000E070B1F90EC06045DCBF188801280ED155
:101BE000B2F9000002280ADA087A012807D1C848A9
:101BF000B0F90200A028BEBF0A2030BC7047002008
:101C000030BC70472DE9FF4FDFF810C3002786B0C6
