:1000000054464953125799050000080000000000AB
:100010000000008001000000586205270000100069
:100020000000000000000000400000000000000090
:1000300000000000010000000000000000000000BF
:10004000544643530000100000D5010022B10D8832
:10005000000001200101100007011000090110003B
:100060000B0110000D0110000F0110001F01100006
:100070001F0110001F0110001F01100011011000CE
:10008000130110001F01100015011000AF36100001
:10009000AB3710001901100019011000116D11008B
:1000A00019011000E7121000ED12100019011000E4
:1000B000190110001F33100019011000F312100075
:1000C000C3381000F9021000291F10001901100098
:1000D0000000000000000000000000000000000020
:1000E0000000000000000000000000000000000010
:1000F0000000000000000000000000000000000000
:1001000000000000000000000000000000000000EF
:1001100000000000000000000000000000000000DF
:1001200000000000000000000000000000000000CF
:1001300000000000000000000000000000000000BF
:1001400000000000000000000000000000000000AF
:1001500000F010F8FEE7FEE7FEE7FEE7FEE7FEE749
:10016000FEE7FEE7FEE7FEE701480047FEE7FEE7A1
:100170001F01100000F002F800F04AF80AA090E811
:10018000000C82448344AAF10107DA4501D100F052
:100190003FF8AFF2090EBAE80F0013F0010F18BFD5
:1001A000FB1A43F0010318473C8801005C880100FA
:1001B0000A4410F8014B14F00F0508BF10F8015B5A
:1001C000240908BF10F8014B6D1E05D010F8013B43
:1001D0006D1E01F8013BF9D1641E03D0641E01F8C5
:1001E000015BFBD19142E4D370470000002300245F
:1001F00000250026103A28BF78C1FBD8520728BF37
:1002000030C148BF0B6070471FB51FBD10B510BD92
:10021000DFF80CD0FFF7F8FF04F00EFB16F093FDAB
:100220000000012003B4FFF7F1FF03BC16F092FDBC
:1002300000210028D8BF704700BF491C8842FBDC62
:100240007047704770477047704770477047017834
:10025000002908BF704710F8011F0029FBD1704723
:1002600082B0010F8DF80010C0F303618DF801100A
:10027000C0F303518DF80210C0F303418DF8031051
:10028000C0F303318DF80410C0F303218DF805107D
:10029000C0F303118DF8061000F00F008DF8070071
:1002A00000206A46115C0A2934BF303137311154BD
:1002B000401CC0B2082828BF0020F3D3401CC0B2A5
:1002C0000828FBD302B0704782B001098DF80010F6
:1002D00000F00F008DF8010000206A46115C0A2929
:1002E00034BF303137311154401CC0B2022828BF0E
:1002F0000020F3D3401CC0B20228FBD302B07047E9
:1003000082B0010B8DF80010C0F303218DF80110AD
:10031000C0F303118DF8021000F00F008DF80300F8
:1003200000206A46115C0A2934BF3031373111543C
:10033000401CC0B2042828BF0020F3D3401CC0B228
:100340000428FBD302B0704712484FF6FF710160DA
:1003500070471048104A0021016012681020506157
:100360000E48012203685A6003684022DA6003687D
:100370004FF40C621A6102685161026840F6FF7125
:1003800011620068EA21016305A010F8011F00292D
:10039000FBD1704700700020108211000082110014
:1003A00055415254204F50454E21210D0D00000063
:1003B0000B0ACAB2F849D1F800C0CCF81C0043F4CB
:1003C000FE400B6858610868006840F00103086847
:1003D00003600868C06810F0010FFAD008688068F0
:1003E0000B6840F00100986002F07F024FF400407B
:1003F00040EA022208684261086800680B6840F021
:10040000010018600868C06810F0010FFAD0086891
:1004100080680B6840F001009860086842610868D5
:1004200000680A6840F0010010600868C06810F0B9
:10043000010FFAD0086880680A6840F001009060F7
:1004400008688069C0B2704700F07F0041EA00216F
:10045000D1480268516101680968026841F00101F0
:1004600011600168C96811F0010FFAD0016889684C
:10047000006841F001018160704700F07F014FF496
:10048000004040EA0122C44801684A6101680968E5
:10049000036841F0010119600168C96811F0010F9A
:1004A000FAD001688968036841F001019960016828
:1004B0004A6101680968026841F001011160016840
:1004C000C96811F0010FFAD001688968026841F02B
:1004D0000101916000688069C0B2704710B58C4618
:1004E0000446FFF7CAFF20EA0C01E0B2BDE8104065
:1004F000AAE7704770B5A848002401210268C2F835
:10050000141302686FF0FE21C2F8201302689921CB
:10051000C2F8301300680321C161A048A04DA14E6C
:1005200000684FF0010390F8800190B935F823007E
:10053000C0F307217F20FFF787FFF01890F8C0165F
:1005400015F82300FFF780FF5B1CB3F5A67FEDDBFA
:1005500070BD35F82300C0F3072C644505D0644610
:100560000CF00F017F20FFF76FFFF01890F8C01616
:1005700015F82300FFF768FF5B1CB3F5A67FE8DBE7
:1005800070BD10B504F060F9834B84464FF0043021
:100590001968086219680014486219680120086126
:1005A000196888601968486000217F20FFF74CFFB8
:1005B00040210120FFF748FFBCF1050F18BF10BD17
:1005C00000201968C1F8100310BD734A00B5126805
:1005D0000321D16100284FF000014FF07F0006D0C9
:1005E000FFF732FF032100205DF804EB2CE7FFF753
:1005F0002BFF012100205DF804EB25E7664A00B5DA
:1006000012680321D16100284FF000014FF07F00F4
:1006100006D0FFF719FF012100205DF804EB13E776
:10062000FFF712FF03210020FFF70EFF002108460D
:100630005DF804EB08E7584900B509680320C86174
:1006400000217F20FFF700FF00205DF804EB14E796
:10065000514900B509680320C86100217F20FFF7D8
:10066000F3FE082102205DF804EBEDE64A490A6832
:10067000926C0123096803FA00F010438864704704
:10068000704745490968896D80F001000122801C8E
:1006900002FA00F0084070473F480168496C026860
:1006A00041F4006151640168496C006821F4006103
:1006B00041647047384A012303FA00F000291168A9
:1006C000096C03D0084311680864704721EA0000F0
:1006D000116808647047304900280868C06D0AD066
:1006E0000A6840F00200D0650868C06D096840F0F3
:1006F0001000C86570470A6840F00100D0650868BE
:10070000C06D096840F00800C86570472DE9F043E6
:10071000DFF8849080462025D9F8001009270220B0
:10072000C861002404217F20FFF78EFEA44611E05B
:10073000BCF1030F03D0BCF1060F0BD105E005217E
:100740007F20FFF781FE002404E006217F20FFF7D1
:100750007BFE00240023002D88BF08EB4C1608D92F
:10076000F15C2046FFF770FE601C5B1CC4B29D422A
:10077000F6D80CF1010C6745DAD8D9F80010012041
:10078000C861002404217F20FFF75EFEA446002FED
:100790001CD8BDE8F083000014821100E806002098
:1007A00000000020985D0020BCF1030F03D0BCF1D5
:1007B000060F0BD105E005217F20FFF745FE002441
:1007C00004E006217F20FFF73FFE00240023002DD8
:1007D00088BF08EB4C160AD9F01890F82011204673
:1007E000FFF732FE601C5B1CC4B29D42F4D80CF1D2
:1007F000010C6745D8D8CCE770B5D449044603202E
:100800000968C8610425E9B27F20FFF71DFE0023B7
:10081000E1B2D8B2FFF718FE03F12000E1B2C0B296
:10082000FFF712FE03F14000E1B2C0B2FFF70CFE89
:100830005B1C202BECDB0CF071F8002808BF0024B7
:100840006D1C072DDFDB70BDC04803210268D1613C
:1008500002681121C2F8301300684FF00111C0F88E
:10086000201300217F20EFE5B84B00B51968032065
:10087000C86101467F20FFF7E7FD09210320FFF74C
:10088000E3FD01210F20FFF7DFFD19680120C1F80A
:10089000140319689920C1F8300319686FF0FE201D
:1008A000C1F8200303217F20FFF7CEFDFF210020A8
:1008B000FFF7CAFD03210120FFF7C6FD2121052016
:1008C000FFF7C2FD01217F20FFF7BEFD002175204B
:1008D000FFF7BAFD012176205DF804EBB4E59B4BF0
:1008E00000B519680320C86100217F20FFF7ACFD27
:1008F00040210120FFF7A8FD00210320FFF7A4FD00
:1009000002217F20FFF7A0FD15210220FFF79CFDAB
:1009100089210420FFF798FD0F217F20FFF794FD28
:1009200001210320FFF790FD19680120C1F814038D
:1009300019681120C1F8300319684FF00110C1F88F
:10094000200303217F20FFF77FFD01210020FFF717
:100950007BFD00210120FFF777FD21210520FFF716
:1009600073FD04216D20FFF76FFD08216E20FFF756
:100970006BFD10216F20FFF767FD01217F20FFF73E
:1009800063FD08210020FFF75FFD04210120FFF730
:100990005BFD1868406C196840F400604864186892
:1009A000406C196820F40060486400BD2DE9F047F0
:1009B000664E0546012730680024C0F8147303F022
:1009C00043FF6FF0FE294FF0990A4FF00308022809
:1009D00004D003F039FF05281DD028E00BF09EFF5E
:1009E00038B130685A4CC0F820933068C0F830A352
:1009F0001DE03068574CC0F81C8031681120C1F8E8
:100A0000300331684FF00110C1F8200300217F202E
:100A1000FFF71AFD0BE009F016F978B330684C4C7B
:100A2000C0F820933068C0F830A3FFF71DFF30688E
:100A3000406C316840F4006048643068406C316854
:100A400020F40060486403F0FFFE034630684FF076
:100A50000431016208143168486230680761306807
:100A600087603068476000217F20FFF7EDFC402160
:100A70000120FFF7E9FC052B09D104E0FFE7354C25
:100A8000FFF72DFFD3E731680020C1F8100330686D
:100A9000C0F81C80DFF8C0C001233CF82300C0F37D
:100AA00007217F20FFF7D0FCE95C1CF82300FFF74B
:100AB000CBFC1CB1E118E85C81F8C0065B1CB3F507
:100AC000A67FEADBBDE8F0877047244B00211A4679
:100AD000E0FB03214809C0EB0010800070470020B4
:100AE000704700207047002070470020704708467C
:100AF000704700207047704700207047704770476C
:100B000000207047704770470020704700207047F2
:100B100000207047002070477047704700207047E2
:100B2000704770477047002070470020704770473B
:100B300070477047002070470020704770470020C2
:100B4000704770477047704770470000148211006B
:100B5000985D0020DE070020000000205BB0055BF0
:100B6000FF4910B509680320C86100217F20FFF705
:100B70006BFC02210020FFF767FC01210220FFF738
:100B800063FC0121BDE810400020FFF75DBCF44983
:100B900010B509680320C86100217F20FFF754FCCD
:100BA00002210020FFF750FC01210220FFF74CFC3E
:100BB0000121BDE810400020FFF746BCE94808B518
:100BC00001684969C1F30721009101684969009AE8
:100BD000C1F307219142F8D0E1480168D1F82C1304
:100BE000006841F00401C0F82C13FFF724FD002831
:100BF00008BF08BD0020BDE80840FFF7FFBCD9488A
:100C000008B501684969C1F3072100910168496984
:100C1000009AC1F307219142F8D0D1480168D1F878
:100C20002C13006841F00401C0F82C13FFF703FDFA
:100C3000002808BF08BD0020BDE80840FFF7DEBC63
:100C400010B503F001FE052809D0C5480068D0F8AA
:100C50002C0310F0040F0CBF0120002010BDC2486F
:100C60000068006810BD70B50546FFF7E9FF012870
:100C700018BF70BD03F0E8FDB94C0326052827D046
:100C8000FFF7BDFF012D18BF70BD2068406C2168C3
:100C900040F40060486400BF00BF00BF2068406CA3
:100CA000216820F4006048642068C66100217F202C
:100CB000FFF7CAFB02210020FFF7C6FB012102203B
:100CC000FFF7C2FBBDE8704001210020FFF7BCBB6D
:100CD0000020FFF793FCD8E710B5FFF752FC012086
:100CE000FFF7C1FF102004F014F90121052002F0E4
:100CF00038FA0121062002F034FA9C49012088705C
:100D000010BD10B5602002F082FA602002F072FA85
:100D1000934903200968C86410BD944A014650797C
:100D2000002818BF0120002918BF01215171704708
:100D30008E4A11691061084670478C480021017184
:100D4000C17001898A4815F060BF8848002101718F
:100D5000C1700189864815F058BF00B583B00020E6
:100D60008DF80000ADF8040003F06EFD02281CBFF2
:100D700003B000BD0BF0D2FD02281CBF03B000BDC4
:100D8000012077490968C86103217F20FFF75CFBD8
:100D900089210520FFF758FB67210620FFF754FB48
:100DA00045210720FFF750FB23210820FFF74CFBCC
:100DB00003B0F12109205DF804EBFFF745BB2DE9F5
:100DC000F14F88B0002004464FF0100B02900090C5
:100DD00003F03AFD022806D003F036FD052808BFCF
:100DE00008F031FF01E00BF099FD03F02DFD6149A2
:100DF00005280BD0086890B1012808BF01240ED047
:100E000002280BD0032808BF032408E00868022842
:100E100014BF4FF0360B4FF0000BEBD102245648B5
:100E200056494FF0200900680969406BFF3100F511
:100E3000E03021F0FF01503004FB010512200026B4
:100E4000069001E0032E01D214271AE0F01E0328B9
:100E500038BF152715D3B01F032838BF162710D366
:100E6000A6F10900032838BF24270AD3A6F10C00F5
:100E7000032838BF252704D3A6F10F00032838BF65
:100E800026270298B84209D03548029739090068E8
:100E9000C16107F00F017F20FFF7D6FA0BF03EFD8E
:100EA00000280CBF4FF07F084FF048080024B9F12C
:100EB000000F35D9380905903148A0FB06104008CD
:100EC000A0EB800000EB060A2E48A0FB06104008AD
:100ED000404200EBC0008119089800EB41100490DB
:100EE000089800EB461003900598012820D0C4F123
:100EF0001F0000EB4A1080B201900122694628468B
:100F000001F0CCF86D1C03F09FFC02284BD050E0A0
:100F1000202C45F10005E7D3601CC4B24C45F7D343
:100F2000701CC6B2069886428CD309B0BDE8F08F1B
:100F300004EB4A1080B2019001226946284601F074
:100F4000ADF86D1C03F080FC022805D100988045A7
:100F500002D880384F281BD203F076FC052813E016
:100F60001482110030821100188211003005002017
:100F7000CC100020CC050020A4060020A8060020EC
:100F8000ABAAAAAA398EE33804BF0098FF2801D182
:100F9000CDF800B00098C1B2039801550198C0B2D5
:100FA000FFF752FAB8E70098804502D880384F28FA
:100FB00006D203F049FC052804BF0098FF2801D1A0
:100FC000CDF800B0049800992044C9B280F82011EF
:100FD0000198C0B2FFF738FA9EE7F749C86070473A
:100FE00010B503F031FC052802D0BDE8104006E63C
:100FF000FFF726FE012818BF10BD0020BDE81040F5
:10100000FFF7FCBA70472DE9F041064682B00C4666
:101010000120FFF728FE03F017FCE84FE64D4FF0E4
:10102000000824B303F010FC052815D0FFF7E7FDF6
:10103000606800281CBF2168002918D0FFF7B6FCA3
:101040003868C0F82883EE600BF068FC02280BD0EB
:101050000BF014FB40B10AE0FFF7F2FD012804BFDA
:101060000020FFF7CBFAE3E7A068FFF7A8FE8DF8B2
:101070000080ADF8048003F0E7FB02281ED10BF0DE
:101080004DFC02281AD139680120C86103217F2054
:10109000FFF7DAF989210520FFF7D6F96721062045
:1010A000FFF7D2F945210720FFF7CEF923210820C9
:1010B000FFF7CAF9F1210920FFF7C6F985F8048086
:1010C00085F803802989BE4815F09FFDC5F810807A
:1010D000687900206871602002F099F8602002F0C1
:1010E00089F839680320C86402B0BDE8F081602047
:1010F00002F084B810B5602002F080F8BDE810401E
:101100000120B0E5AC48C0687047AB4800780028C3
:1011100018BF0120704738B500240094FFF790FDF8
:10112000002818BF38BDA4480471C4700189A448C0
:1011300015F06BFDDFF884C2DCF80000406CDCF8D1
:10114000001040F40060486400BFDCF80000406C10
:10115000DCF8001020F4006048649A4D9A48297821
:1011600000290168496914BFC9B2C1F30721009180
:1011700020D001684969009AC9B29142F9D000684B
:101180000221C161DCF80000D0F82C03DCF800106B
:1011900020F00400C1F82C03DCF80000C0F8104374
:1011A000FFF749FA002818BF38BD0120BDE83840D4
:1011B000FFF724BA01684969009AC1F307219142F7
:1011C000F8D0002301684969C9B2009101684969F2
:1011D000009AC9B29142F9D0591CCBB2042BF1D379
:1011E00001212970CBE770B503F02EFB0025724C6E
:1011F000052803D02570BDE870408CE7FFF720FD7F
:10120000002818BF70BD2571E57021896C4815F064
:10121000FCFC257069480168D1F82C13006821F0A6
:101220000401C0F82C13BDE870400120FFF7E6B9B7
:10123000614901200870704770B503F005FB5E4CF2
:101240000125052808D0FFF7FBFC002818BF70BD5A
:101250002570BDE870405EE7FFF7F2FC002818BF7C
:1012600070BD00202071E0702189554815F0CDFC3B
:101270002570BDE870400120FFF7C0B90120F2E4FD
:1012800070B54D4C0025E57003F0DEFA052803D05B
:101290002570BDE870403EE7FFF7D2FC002818BF7C
:1012A00070BD2571E5702189454815F0AEFC2570AB
:1012B00042480168D1F82C13006821F00401C0F8FD
:1012C0002C13BDE870400120FFF798B93A4A5169E4
:1012D00050610846704738498861704736488069D0
:1012E0007047354840787047334948707047012847
:1012F00088BF7047354900280868406E04D00968E7
:1013000040F0020048667047096840F001004866F6
:101310007047012888BF70472C4900280868406E34
:1013200004D0096820F0020048667047096820F080
:10133000010048667047002000F0E5BB012000F086
:10134000E2BB10B51C4CE069401CE0611B48016821
:10135000096D006841F004010165FFF79DF9FFF791
:1013600077F9207800281CBF0120FFF77CFC60691A
:10137000002818BF80471648016841F400610160E9
:1013800010BD10B50120FFF76EFCBDE8104000F065
:1013900002BC10487047104870470748006A704701
:1013A0000548406A70470448806A70470249002037
:1013B000086248628862704730050020148211007C
:1013C000CC100020AA0500203082110010821100EC
:1013D00064050020A0100020A9100020F94900EBAE
:1013E000C00001EBC010704748434FF6FF7101EA9F
:1013F0004000F54908817047F44A107051707047F9
:10140000F249085C7047F0B50746A1B020240121DD
:101410000220FFF74FF9EE4D00216E46286830F8A4
:10142000110026F81100491CA142F7D30021022027
:10143000FFF740F901210020FFF73CF90021002CC3
:1014400009D9286806EB410230F81100491CA2F8BE
:1014500040008C42F5D800210846FFF72BF9A20086
:101460006946384615F030FB21B0F0BD70B50E4628
:10147000D5490500E0B04FF0800008814FF020040E
:101480004FF001010CBF05200420FFF713F9D049EC
:1014900000206B46096801EB053101EB800202F583
:1014A0008052D2F800C043F820C003EB800CD2F881
:1014B0008020401CCCF88020A042EED3002D4FF0BD
:1014C000000114BF04200520FFF7F4F8E20069468C
:1014D000304615F0F9FA60B070BD70B50400BA4836
:1014E0000E464FF0010105890CBF05200420FFF7CF
:1014F000E1F8B7482A46006800EB043000F5805157
:10150000304615F0E1FA4FF0000124B1BDE870401B
:101510000420FFF7CFB8BDE870400520FFF7CAB838
:1015200010B590B020220021009101910291039109
:101530000491059106910791089109910A910B91E7
:101540000C910D910E91EC460F9100EB410430F897
:101550001130B4F8404223442CF81130491CC9B270
:101560009142F2D35200614615F0AEFA10B010BDB0
:10157000F0B5954F964EADF2844D00243D89002C78
:101580004FF001010CBF05200420FFF793F83068ED
:101590002A4600EB043000F58051684615F0D9FA70
:1015A000002C4FF000010CBF05200420FFF782F84B
:1015B000641C022CE2DB0020FFF7ABFE0120FFF7EA
:1015C000A8FE0DF2844DF0BD824A834900201368C5
:1015D00003EB8003D3F8C03021F81030401C0728FB
:1015E000F5D31068D0F8E40048827047794A7B4B05
:1015F000002818BF00201DD0116801EB8001D1F830
:1016000080110904090C18BF23F81010401C202871
:10161000F2D30020116801EB8001D1F88012090497
:10162000090C1CBF03EB400CACF84010401C2028F8
:10163000F0D37047116801EB8001D1F80011090463
:10164000090C18BF23F81010401C2028F2D30020EA
:10165000116801EB8001D1F800120904090C1CBFCC
:1016600003EB400CACF84010401C2028F0D370472E
:101670002DE9F84304460020009003F0E5F8524EAF
:10168000544F554D4FF00108052805D02046FEF770
:10169000F8FF00284CD054E008F0D5FA0228204684
:1016A00003D0FEF7EEFF60B334E0FEF7EAFF40B987
:1016B00084F001042046FEF7E4FF002808BFBDE8DF
:1016C000F88340492046FFF708FF0021386800EB07
:1016D0008100D0F8C00025F81100491C0729F5D376
:1016E0003868D0F8E40068822046FFF77FFF204684
:1016F000FFF70FFE86F8048084F00100F070BDE86B
:10170000F88384F001042046FEF7BBFF002808BFE1
:10171000BDE8F8832B492046FFF7DFFE2046FFF7A0
:10172000F8FD86F8048084F00100F070BDE8F883CD
:1017300084F001042046FEF7A4FF002808BFBDE89E
:10174000F88320492046FFF7C8FE0021386800EBE7
:101750008100D0F8C00025F81100491C0729F5D3F5
:10176000BEE770B5184D04466879002804BFE878D4
:10177000FFF77EFF2879002808BF70BD114AAB69CA
:1017800002F5A060A0F18001A0610020C4E9021070
:1017900020616061C4E90032012070BD0A49002067
:1017A000087170472DE9F14F82B00020009012209F
:1017B0004FF020080025019001E0032D10D21426DF
:1017C00029E00000CC100020300500203605002064
:1017D0003882110014821100CC1500204C15002015
:1017E000E81E032838BF152615D3A81F032838BFC5
:1017F000162610D3A5F10900032838BF24260AD3E2
:10180000A5F10C00032838BF252604D3A5F10F004D
:10181000032838BF26260098B04209D0CF4800964A
:1018200031090068C16106F00F017F20FEF70CFE50
:101830000024B8F1000F28D902984FEA161B00EBDC
:10184000451AC748A0FB05104008A0EB80004719C7
:10185000C448A0FB05104008404200EBC0000299BC
:10186000284401EB4019BBF1010F16D0C4F11F0051
:1018700000EB471080B2FEF700FE09EB040181F88F
:101880002001601CC4B24445EDD3681CC5B2019868
:10189000854292D303B0BDE8F08F04EB471080B2CD
:1018A000FEF7EBFD0AF80400EBE7012070477047F4
:1018B000002070472DE970431C4616460D468046B1
:1018C000FFF7BEF95FEA00091CBF0120FFF7CBF963
:1018D0002819A84288BF01210FD900234446B342EA
:1018E00038BF202C06D201FA04F23A4218BF5B1C22
:1018F000641CF4E76D1C8542EFD3B9F1000F08BFFB
:10190000BDE87083BDE87043BAE42DE9F04799461D
:1019100014460E460746089DFFF792F95FEA000855
:101920001CBF0120FFF79FF903F0ECF8DFF838C285
:1019300006EB0903B342CCF8000088BF381913D96D
:101940003C460AE0DCF80010097825F8021BDCF8B8
:101950000010491C641CCCF80010844238BF202CB5
:10196000F0D3761C9E42EBD3B8F1000F08BFBDE860
:10197000F087BDE8F04783E4704710B5FFF7BCF887
:101980007A49488110BD794AC1B200F47063528926
:10199000914288BF11464FF0640C01FB0CF1B1FB82
:1019A000F2F11A0A02FB0C1189B210F4805F12BF27
:1019B00008B2484200B270470028B8BF404280B227
:1019C000B4BF00214FF4805100F470621143674AA4
:1019D000C0B25289504341EA1020704708B509212E
:1019E000732000F02FF9BDF8001000F01F0021F067
:1019F000FF010843ADF800000D21732000F022F92B
:101A0000BDF8001000F01F0021F47F4141EA0020E2
:101A1000ADF80000BDF8000008BD7047FFF782B8C0
:101A200053484FF41071006800F5405015F0EDB8C0
:101A30002DE9F84F12204FF0200800900AF06EFFB9
:101A4000DFF824B102280CBF4A484B4800F59060EB
:101A50000024CBF8000001E0032C01DA14261AE080
:101A6000E01E032838BF152615D3A01F032838BF52
:101A7000162610D3A4F10900032838BF24260AD360
:101A8000A4F10C00032838BF252604D3A4F10F00CD
:101A9000032838BF2626B24509D030483109B2465E
:101AA0000068C16106F00F017F20FEF7CDFC002524
:101AB000B8F1000F1EDD31484FEA161980FB041003
:101AC000A0EBE070A0EB80000719B9F1010F0EBF89
:101AD00005EB4710C5F11F0000EB4710DBF80020B5
:101AE000C0B212F8011BCBF80020FEF7ADFC6D1C54
:101AF0004545EADB0098641C8442ADDBBDE8F88F05
:101B00000020FEF7EEBF70B5044601280AD81C4835
:101B1000002C0168496E14BF41F0020141F001013F
:101B200000684166114DA869401CA8612969002917
:101B30001CBF20468847287800281CBF0120FFF7DB
:101B400092F80648002C0CBF0221012100680165B3
:101B50000C48016841F02001016070BD1482110041
:101B6000ABAAAAAA398EE338E00500203005002090
:101B700038821100985D0020DE070020565555552B
:101B800010821100640500200549002814BF0020C0
:101B90000120087070477047704770477047000019
:101BA0005C050020704710B501F017FE234B244957
:101BB00000224C6824B14A6001F014FE204610BD9A
:101BC0001878002818BF0A80F3D10888B0F57A7F0A
:101BD00087BF30BF0A80401C0880EAE710B501F0DB
:101BE000FCFD17484468002C08BF30BFFAD0002124
:101BF000416001F0F7FD204610BD70B501F0EDFD2C
:101C00000F4D6C682CB10020686001F0EBFD2046A0
:101C100070BD30BF01F020FB0028F2D001F020FBA6
:101C2000A860EEE70020704730BF704772B662B61A
:101C300070477047704772B662B67047340600202E
:101C400060050020EE4BC2081B681A6401F0FC011D
:101C500041EA002040F4704040F080400068704746
:101C6000E74BC2081B681A6401F0FC0242EA00203C
:101C700040F4704040F0804089070068C90EC840B9
:101C8000C0B27047DF4900200870DD490E200968A6
:101C90000864DD48007810F0800018BF012070470C
:101CA00010B44FEAD00CD64B1C68C4F840C001F009
:101CB000FC0141EA002040F4704040F080400260A6
:101CC0001868006C10F4007F04BF10BC704700BFA0
:101CD0001868006C10F4007FF9D110BC7047DFF871
:101CE00020C310B4DCF800C0C308CCF8403001F0C9
:101CF000FC0343EA002343F4704343F08043FF2492
:101D0000D3F800C08B07DB0E9C402CEA040C9A40F1
:101D100010BC42EA0C02C3E7BC484FF4F46102680D
:101D2000116101684968026841F002015160006870
:101D3000032181617047B54810B502681021116018
:101D400002684FF4F461116101684968026841F06A
:101D5000020151600068032181610722082171207E
:101D6000FFF7BDFF0E2001F02BFABDE810400E205A
:101D700001F033BAA24910B50968A54808620722E4
:101D800001217020FFF7ABFFA0481021026811600D
:101D900002684FF4F461116101684968026841F01A
:101DA000020151600068032181610722082171202E
:101DB000FFF795FF0E2001F003FABDE810400E205A
:101DC00001F00BBA914800210268116002684FF4DB
:101DD000E061116100680121816170478B49002039
:101DE0000A6810600A68106109688861704787484E
:101DF0000621026811600268022151600068816159
:101E00007047824800210268116000688161704754
:101E10007E49002009680860704710B57B4C082097
:101E2000216808602168022088610722082171204A
:101E3000FFF755FF2068C06810F0080FFAD021683E
:101E40000F20886010BD10B5044602460021F02026
:101E5000FFF726FF22460121F020FFF721FF22464F
:101E60000021F120FFF71CFF22460121F120FFF79E
:101E700017FF22460021FC20FFF712FF2246012116
:101E8000BDE81040FC200BE74FF4807141EAD0021E
:101E90005B490B681A645F4A42EA002210600868D6
:101EA000006C10F4007F08BF704700BF0868006C2A
:101EB00010F4007FF9D17047514A4FF4807141EA24
:101EC000D00112681164534941EA0020006870474C
:101ED00008227020002102E7002270201146FEE651
:101EE00047480168496E026821F400715166016833
:101EF000496E026841F4807151660168496E02685A
:101F000041F4806151660168496E006821F4806186
:101F10004166002270201146E1E639480168496EA9
:101F2000026841F4806151660168496E026821F4DB
:101F3000806151660168496E026821F480715166C2
:101F40000168496E006841F40071416670472C4891
:101F50000168496E026841F4806151660168496E0A
:101F6000006821F480614166704725481B210268A2
:101F7000116400680164704710B5244C2068C06883
:101F80002549086025484FF6FF7100680160206808
:101F9000C06810F0100F0BD019491B200A6810649C
:101FA0000968086420688068216840F01000886033
:101FB0002068C06810F0080F05D02068806821688C
:101FC00040F0080088602068C06810F0040F0AD054
:101FD00020688068216840F004008860FF220021AA
:101FE0007020FFF77CFE2068C06810F0010F08BF6A
:101FF00010BD20688068216840F00100886010BD35
:10200000108211006C05002000F2004030821100A7
:102010002222A26000F00040EC060020F8811100AE
:10202000704770B5FF4D0446C0F30741286801F0C2
:10203000CEFAC4F30721286801F0C9FAE1B2286892
:10204000BDE8704001F0C3BA2DE9F041F64F0446F7
:10205000164638680D46806A396840F00300886289
:10206000DFF8C0830321D8F8000001F0B0FA204661
:10207000FFF7D7FF0024002E07D9D8F8000001F0A1
:10208000D4FA2855641CA642F7D83868806A3968A3
:1020900020F0030088620120BDE8F08170B514468D
:1020A0000D46064601F0A3FB224629463046BDE810
:1020B0007040C9E72DE9F0410024DC4D042601F011
:1020C00096FB324629462046FFF7BEFF04242F46E2
:1020D0003D1D264601F08BFB324629462046FFF780
:1020E000B3FF08242D1D042601F081FB324629464A
:1020F0002046FFF7A9FF202507F10C0401F077FB2C
:10210000324621462846FFF79FFF0C3724243E1D08
:10211000042501F06CFB2A4631462046FFF794FF68
:102120002824361D01F063FB2A4631462046FFF77E
:102130008BFFBF4E07F10C0401F059FB2A462146E4
:102140003046FFF781FF371D25462C1D042601F080
:102150004EFB324621463846FFF776FF3E1D0424EB
:10216000083501F044FB224629463046FFF76CFF54
:102170004FF4FC342D1D042601F039FB324629466C
:102180002046FFF761FF271D2C46251D01F02FFB80
:10219000324629463846FFF757FFA64F2D1D01F05E
:1021A00026FB324629463846FFF74EFF3F1D2D1DC0
:1021B00001F01DFB324629463846FFF745FF2E1D2C
:1021C0003F1D042501F013FB2A4631463846FFF730
:1021D0003BFF351D3F1D042601F009FB3246294611
:1021E0003846FFF731FF3E1D0425183401F0FFFA91
:1021F0002A4621463046FFF727FF8F4E8F4C012598
:1022000001F0F5FA2A4621463046BDE8F0411BE7C9
:102210007047F8B50E0005464FF0000417D00422B1
:1022200069462846FFF710FF9DF800009DF8011051
:102230009DF8032008409DF8021011400840FF2837
:1022400001D00020F8BD641C2D1DB442E7D301204D
:10225000F8BD2DE9F84391460D468046002401F073
:10226000C6FA0027B9F1000F88BF6E4619D90422BB
:1022700069464046FFF7E8FE0023F05CE95C8842CF
:102280001CBF601C84B25B1C042BF6D32D1D7F1C6D
:1022900008F104084F45EAD3002C1CBF0020BDE81C
:1022A000F8830120BDE8F8830120704770B55E4CCB
:1022B00006462068806A216840F003008862594D14
:1022C0000521286801F083F9286801F0AEF921683A
:1022D000896A226821F0030191623070012070BD8B
:1022E00038B5514C2068806A40F003012068816253
:1022F0004C4D0521286801F06AF9286801F095F92C
:102300002168896A226821F0030191628DF800003A
:1023100010F0010018BF012038BD10B5424C2068F4
:10232000806A216840F0030088623E480621006808
:1023300001F04DF92068806A216820F0030088626E
:10234000012010BD70B50546FFF7CAFF00281CBF6D
:10235000022070BDFFF7E1FF334C2068806A2168DE
:1023600040F0030088622F482021006801F02FF917
:102370002846FFF756FE2068806A216820F0030097
:102380008862FFF7ADFF28B100BF00BFFFF7A8FFCD
:102390000028F9D1012070BD2DE9F84F80460327B0
:1023A00001F025FADFF88090DFF878A0FFF798FFBA
:1023B00010BBFFF7B2FFD9F80000806AD9F800100F
:1023C00040F0030088622021DAF8000001F0FFF8F5
:1023D0004046FFF726FED9F80000806AD9F80010C1
:1023E00020F003008862FFF77BFF28B100BF00BF29
:1023F000FFF776FF0028F9D145464FF480660024A8
:10240000042269462846FFF71FFE9DF800009DF84C
:1024100001109DF8032008409DF80210114008406B
:10242000FF280DE02C82110010821100EC15002015
:1024300068C0010010F8010004300300700500209E
:1024400006D0381EA7F10107B0DC0220BDE8F88FE6
:10245000641C2D1DB442D3D30120BDE8F88F2DE9B3
:10246000F04117460E460446FFF73AFF00281CBF0E
:102470000220BDE8F081FFF750FFDFF80C84D8F8A8
:102480000000806AD8F8001040F003008862FF4D19
:102490000221286801F09BF82046FFF7C2FD0024C6
:1024A000002F06D9315D286801F091F8641CA7421D
:1024B000F8D8D8F80000806AD8F8001020F003009F
:1024C0008862FFF70DFF28B100BF00BFFFF708FFCC
:1024D0000028F9D10120BDE8F0812DE9F043C1B019
:1024E0008846814603276E4601F081F94FF48072D9
:1024F00041464846FFF7B3FF002445464FF480723B
:1025000069464846FFF7A0FD305D295D884205D049
:102510007F1EE9D241B00220BDE8F083641CB4F50F
:10252000807FF1D341B00120BDE8F0832DE9F04177
:10253000D74C0646D44FDFF854836068C0B00D46D0
:1025400050B1D8F8000001F042F86268FF2AB8BF25
:10255000501C1BDA606035E001F049F9FFF7DDFE41
:102560003868806A396840F0030088620221D8F830
:10257000000001F02CF83046FFF753FD2946D8F84B
:10258000000001F024F86068401CE3E70020606070
:102590003868806A396820F00300886200244FF4AC
:1025A000807269463046FFF74FFD68462A5D015D3F
:1025B000914203D040B00220BDE8F081641CB4F524
:1025C000807FF3D340B00120BDE8F08170B50C46A8
:1025D000054601F00CF9B4F5807F88BF70BDAA49AB
:1025E0000A68926A096842F003028A62A7480321D6
:1025F000006800F0ECFF2846BDE8704011E5A348F4
:10260000006801F012B8A0480168896A006821F0EA
:1026100003018162704770B50C46054601F0E7F88A
:1026200021462846BDE870404FF480720CE570B535
:10263000954D04462868806A296840F00300886246
:10264000924E9F21306800F0C2FF306800F0EDFF2D
:102650002070306800F0E9FF6070306800F0E5FF3E
:10266000A0702868806A296820F003008862012031
:1026700070BD70B5044601F0BAF8834D2868806AD1
:10268000296840F003008862804E9F21306800F086
:102690009EFF306800F0C9FF2070306800F0C5FF71
:1026A0006070306800F0C1FFA0702868806A2968F7
:1026B00020F003008862012070BD2DE9F047DFF8AB
:1026C000C89104461746D9F800008846806AD9F8B0
:1026D000001040F0030088626C4D0321286800F070
:1026E00076FF2046FFF79DFC0024B4EB970F18D22D
:1026F000286800F09AFF0646286800F096FF46EA30
:102700000026286800F091FF46EA0046286800F09D
:102710008CFF46EA006048F82400641CB4EB970F75
:10272000E6D3D9F80000806AD9F8001020F0030041
:1027300088620120BDE8F08770B514460D46064654
:1027400001F055F8224629463046BDE87040B4E70E
:1027500010B5FFF7C5FD00281CBF022010BDFFF714
:10276000DCFD494C2068806A216840F003008862E3
:1027700046486021006800F02AFF2068806A2168CE
:1027800020F003008862FFF7ABFD28B100BF00BF57
:10279000FFF7A6FD0028F9D1012010BD10B501F00A
:1027A00026F8FFF79DFD00281CBF022010BDFFF793
:1027B000B4FD354C2068806A216840F003008862CF
:1027C00032486021006800F002FF2068806A2168BA
:1027D00020F003008862FFF783FD28B100BF00BF2F
:1027E000FFF77EFD0028F9D1012010BD70B50C4621
:1027F000054600F0FCFF002600F0F9FF4FF4807260
:1028000021462846FFF720FC761C04F5807405F568
:102810008075102EF0D3012070BD2DE9F047C0B0B7
:102820008846814600F0E3FF4FF0000A4646032742
:102830006D4600F0DCFF4FF4807231464846FFF7EA
:102840000EFE00244FF4807269464846FFF7FCFBF9
:10285000295D305D814205D07F1EEAD240B0022062
:10286000BDE8F087641CB4F5807FF1D30AF1010A5A
:1028700008F5807809F58079BAF1100FD6D340B009
:102880000120BDE8F0870000108211002C821100A9
:10289000700500202DE9F04F81B00546ADF5804D63
:1028A000000514468846000DEB4633D02F466FF3E3
:1028B0000B07BA465E4600F09AFF4FF0000900F0A1
:1028C00096FF4FF4807231463846FFF7BDFB09F1A1
:1028D000010906F5807607F58077B9F1100FEED380
:1028E000C5F30B00C0F58056A64288BF2646584463
:1028F0003246414614F0E8F85046FFF74DFD0228F5
:1029000050D059465046FFF788FF02284CD0354436
:10291000B044A41BB4F5805F19D34FF480524146F4
:10292000584614F0D1F82846FFF736FD022839D072
:1029300059462846FFF771FF022835D0A4F5805488
:1029400005F5805508F58058B4F5805FE5D21CB3D5
:10295000D9462E4600F04BFF002700F048FF4FF409
:10296000807259463046FFF76FFB7F1C06F5807674
:102970000BF5807B102FF0D322464146484614F0D9
:10298000A3F82846FFF708FD02280BD04946284641
:10299000FFF743FF022807D0012001B00DF5804D5D
:1029A000BDE8F08F0A20F8E70B20F6E710B5ADF58B
:1029B000806D0446AAB1684614F086F82046FFF7F9
:1029C000EBFC022802BF0A200DF5806D10BD6946A0
:1029D0002046FFF782FD022802BF0B200DF5806D17
:1029E00010BD01200DF5806D10BD70B50646FFF7D6
:1029F00077FC00281CBF022070BDFFF78EFCB44C92
:102A00002068806A216840F003008862B14D01218E
:102A1000286800F0DCFD3146286800F0D8FD206809
:102A2000806A216820F003008862FFF759FC28B112
:102A300000BF00BFFFF754FC0028F9D1012070BD92
:102A4000F8B500F0D4FEA24D2868806A296840F0ED
:102A5000030088629F4E0521306800F0B8FD3068A1
:102A600000F0E3FD2968896A2A6821F00301916278
:102A700040F040048DF80040FFF732FC002818BFFA
:102A8000F8BDFFF74AFC2868806A296840F0030017
:102A900088620121306800F09AFD2146306800F01C
:102AA00096FD2868806A296820F003008862FFF795
:102AB00017FC002808BFF8BD00BF00BFFFF710FCDF
:102AC0000028F9D1F8BD70B505460024FFF708FCD1
:102AD00040B1AC4201D9002070BD641CFFF700FC7E
:102AE0000028F6D1012070BD70B5794C06462068EB
:102AF000806A216840F003008862764D09212868C9
:102B000000F065FD286800F090FD2168896A226860
:102B100021F0030191623070012070BD38B5FFF7DC
:102B2000DFFB002836D1FFF7F8FB694C2068806A8C
:102B300040F0030120688162664D2F21286800F073
:102B400046FD2068806A216820F003008862FFF754
:102B5000C7FB28B100BF00BFFFF7C2FB0028F9D1B7
:102B60002068806A216840F0030088620921286893
:102B700000F02DFD286800F058FD2168896A226860
:102B800021F0030191628DF8000010F0020F1CBFCC
:102B9000012038BD022038BD4E4810B50421006820
:102BA00000F015FD012010BD70B5FFF799FB00285E
:102BB0001CBF022070BD464C2068806A216840F02E
:102BC00003008862434D0521286800F000FD286855
:102BD00000F02BFD06462068806A216820F0030083
:102BE00088622068806A216840F003008862FFF7ED
:102BF00094FB0121286800F0EAFC26F040012868D7
:102C000000F0E5FC2068806A216820F003008862FB
:102C1000012070BD70B50546FFF762FB00281CBFA0
:102C2000022070BDFFF779FB294C2068806A21687B
:102C300040F00300886227485221006800F0C7FC7A
:102C40002846FFF7EEF92068806A216820F003002B
:102C50008862FFF745FB28B100BF00BFFFF740FBCC
:102C60000028F9D1012070BD10B50446FFF738FBEC
:102C700000281CBF022010BDFFF74FFB1548D821CC
:102C8000006800F0A4FC2046FFF7CBF9104801686B
:102C9000896A006821F003018162FFF721FB28B1F6
:102CA00000BF00BFFFF71CFB0028F9D1012010BDB9
:102CB000084810B5B921006800F089FC012010BD5A
:102CC000044810B5AB21006800F081FC012010BD64
:102CD000108211002C821100012101FA00F04149FB
:102CE0000A6810430860404909680860704701217C
:102CF00001FA00F03B490A6822EA000008603A49FC
:102D00000968086070473749096821FA00F000F047
:102D100001007047334A116821FA00F313F0010FE4
:102D20004FF0010303FA00F02F4B05D021EA000019
:102D300010601968086070470843106019680860DF
:102D4000704729490968096821FA00F000F001007C
:102D5000704725490A6852680123096803FA00F0A0
:102D600010434860704720490A6852680123096887
:102D700003FA00F022EA0000486070471A490A6826
:102D8000126A0123096803FA00F0104308627047D1
:102D900015490A68126A0123096803FA00F022EA59
:102DA0000000086270471049086840680A6840F0EF
:102DB00001005060086840680A6840F002005060F6
:102DC000084A106840F0010010600B681860106835
:102DD00040F002001060096808600449002009689A
:102DE000C860704778050020088211001082110029
:102DF00070477047B24810B502683F21D160026841
:102E0000002191640068C0F8B41003210A2000F08A
:102E1000A8F9BDE810400A2000F0C7B9A84A136815
:102E20001860136859604843116888607047A44A65
:102E30001368186013685960484310F0010F18BFF9
:102E4000401C1168886070479D490968C1F8B4004A
:102E500070479B4918B10968012088647047096868
:102E600000208864704796480168C968006841F08E
:102E70000201C1607047DFF848C210B4DCF80040BE
:102E80002062DCF800004162DCF800008262DCF8BD
:102E90000000C362DCF8001001200863DCF80000C9
:102EA000406B10F0010F09D000BF00BF00BF00BF92
:102EB000DCF80000406B10F0010FF5D110F00200BB
:102EC00018BF4FF0FF3010BC70477D480168C968DB
:102ED000006821F00201C160704779480168C96843
:102EE000006841F00101C1607047754BD3F800C024
:102EF000CCF82000186841621868826219680120C5
:102F000008641868406C10F0010F08D000BF00BFC3
:102F100000BF00BF1868406C10F0010FF6D110F030
:102F2000060018BF4FF0FF30704765480168C96858
:102F3000006821F00101C160704761480168C968FB
:102F4000006841F00401C1607047027C017B02F01F
:102F50003F0241EA02415A4A1368996513680168C1
:102F6000596213684168996213688168D96213686D
:102F7000012119651168496D11F0010F08D000BFDA
:102F800000BF00BF00BF1168496D11F0010FF6D1FD
:102F90001368DB6D83821368DB6D1B0CC3821368BF
:102FA0001B6E038313681B6E1B0C438313685B6EDD
:102FB00083831268526EC2F30E42C28311F0020084
:102FC00018BF4FF0FF3070473D480168C96800687E
:102FD00021F00401C160704701684FEA314238496D
:102FE0000B68C3F89C200A684068C2F8A000086813
:102FF000C068096840F02000C8607047304A136814
:1030000018621068416211680120C1F890001068D0
:10301000D0F8980010F0010F09D000BF00BF00BF2A
:1030200000BF1068D0F8980010F0010FF5D110F033
:10303000060018BF4FF0FF30704721480168C9688B
:10304000006821F02001C16070471D480168C9680F
:10305000006841F01001C1607047A3F1050C184BE6
:1030600010B41C68C4F888C0D3F800C0CCF82000A5
:10307000186842621868816219680120C1F88000EE
:103080001868D0F8840010F0010F09D000BF00BF0D
:1030900000BF00BF1868D0F8840010F0010FF5D110
:1030A00010F0060018BF4FF0FF3010BC7047044806
:1030B0000168C968006821F01001C1607047000014
:1030C0001C821100234810B50268012111660268B4
:1030D00010215167026841F2060151660268002121
:1030E000916602680A21C2F8881002689021C2F82D
:1030F00084100168D1F88410026841F00101C2F81F
:10310000841002684FF48171116600680166032023
:1031100000F04BF80021032000F023F80E490220B4
:1031200009688862002010BD10B5032000F048F83F
:1031300008484FF480710268116602680021116628
:10314000006810218167002010BD0449002008702C
:10315000704700000C821100188211007C050020CD
:10316000704700F00303DA004FF0FF0C0CFA02F294
:103170004FF0050C0CEBC303994000F00C03002842
:1031800008DA3048006818444369114093431943F2
:10319000416170472C4800681844D0F80033114052
:1031A00093431943C0F80013704700F01F01012238
:1031B00002FA01F1244A4009126842F820107047CF
:1031C00000F01F01012202FA01F11F4A40091268B2
:1031D00002EB8000C0F88010704700F01F01012250
:1031E00002FA01F1184A4009126802EB8000C0F8A7
:1031F00080117047144909680860704712490968CE
:10320000C1F88000704710480068006870470E4998
:103210000968C1F8800170470A48006880687047F3
:1032200008490A6892680968886010467047054A2C
:103230001268926800F1100352F8230042F823103C
:1032400070470000FC811100F88111007047704741
:1032500070477047704770470020704700207047E4
:1032600000207047704770471B4A1168106008467D
:103270007047704718484068704710B500F0ACF8C8
:10328000164804210268C2F8881002684FF6FF71E0
:10329000C2F88C1072B600684FF40071016662B615
:1032A00010BD72B60D484FF400310268116662B667
:1032B0000068D0F8040268B14FF6FF71081A064999
:1032C000074A8860A0F50840B93890423CBF4FF0EB
:1032D0000110C86000F085B8800500202082110030
:1032E000372B1A001A4801684969026841F40071D5
:1032F000516101680969026821F0060111610168E4
:103300000969006841F010010161704710480168C7
:103310000969026821F00601116101680969026802
:1033200041F00401116101680969006841F0100170
:10333000016170470649096888607047BFF34F8F85
:10334000034904480968C860BFF34F8FFEE70000D7
:10335000FC8111000400FA05022824BF00207047F8
:10336000874B53F8202043F820101046704770B563
:10337000844C2068006F824D10F0010F06D0216848
:103380000120C8662868002818BF80472068006FA1
:1033900010F0020F08BF70BD02202168C86668687F
:1033A000002808BF70BDBDE870400047754810B5E3
:1033B000026802211165036801221A66036803226C
:1033C000DA66006841650920FFF7EFFE0221BDE8DB
:1033D00010400920FFF7C5BE6A4902200968086548
:1033E00070476849022009684865704700207047A7
:1033F00064480168096F11F4007F04D000684FF43D
:1034000040710166704700684FF480710166704733
:1034100010B55C4C2068C06F10F0020F4FF0010037
:1034200018BF0320226850670520B1FBF0F0226826
:103430004FF405710009C2F8801014F0AFF8524A39
:10344000524B14F0FBF814F065F82168C1F88400C1
:103450002068006F10F4007F04D021684FF44070A2
:10346000086610BD21684FF48070086610BD45489D
:103470000168096F11F4807F04D000684FF4407137
:103480000166704700684FF40071016670473D4B5C
:1034900030B41A68D26F12F0010F1DBF0322D3F8A7
:1034A00000C0CCF874204FF0020C04BF1A68C2F8B8
:1034B00074C04FF0020C00EB4005C5EBC0104FF498
:1034C0009674C1EBC0004C4300EB8000304904EB24
:1034D0004010A1FB0010C0080521B0FBF1F0002254
:1034E000B0F5803F05D3511C4008CAB2B0F5803F0B
:1034F000F9D242EA0C211A6841F01001C2F8881092
:103500001968C1F88C001868006F10F4807F05D02E
:1035100019684FF44070086630BC704719684FF462
:103520000070086630BC704716480168096F11F4D6
:10353000003F04D000684FF44031016670470068D6
:103540004FF48031016670470E480168096F11F42D
:10355000803F04D000684FF4403101667047006836
:103560004FF400310166704706480068006FC0F3F1
:103570000020704703480068006FC0F34020704788
:1035800094050020208211007B14AE47E17A843F2D
:10359000CDCCCCCC30B40025DDE9024C056001F087
:1035A0000F0141EA8C1101600168D2B241EA0221A7
:1035B000016023F47F41016110214160416804F002
:1035C000040211436FF3CF11416030BC7047C268F1
:1035D00012F0010F18BF8160C16811F0100FFBD10C
:1035E000C16811F0040F08BF70478168C16811F00D
:1035F000040FFAD170470023002A0BDD11F803C035
:10360000C0F808C0D0F80CC01CF0100FFAD15B1C39
:103610009342F3DBC16811F0040F08BF7047816863
:10362000C16811F0040FFAD17047FF22C16811F090
:10363000100FFBD18260C16811F0100FFBD1C1687F
:1036400011F0040FFBD08068C0B270470023002A3D
:10365000D8BF704710B4FF24D0F80CC01CF0100F76
:10366000FAD18460D0F80CC01CF0100FFAD1D0F859
:103670000CC01CF0040FFAD0D0F808C001F803C049
:103680005B1C9A42E7DC10BC7047416841F00201C4
:103690006FF3CF1141607047416821F4C17121F48B
:1036A0007E414160704700007047024800684068F2
:1036B0007047704710821100264900200A68906008
:1036C0000968086024494860704710B5214C21689A
:1036D00048602168002088600221401EFFF741FDFC
:1036E00021680720086010BD1A4900200968086099
:1036F0007047194908707047174800787047164995
:103700000120087070471448806870472DE9F04127
:10371000114C002705466780A0684FF47A71B0FB12
:10372000F1F00C4E401E316848603068876002211D
:10373000C81EFFF716FD3168072008606188A9429E
:10374000FCD330680760BDE8F08104494843024972
:1037500088607047F48111009C05002040420F00F2
:10376000704770B52C4C05464FF40D5021688866A3
:1037700021680320C86621682848486621684CF201
:103780007100086621682648C1F88000216842F26D
:103790004630886602210020FFF7E3FC0020FFF797
:1037A00004FD002D08BF70BD2068806E42F24131DB
:1037B00008432168886670BD174810B5026801216A
:1037C000916700684FF40D5181660020FFF7F8FC07
:1037D000BDE810400020FFF700BD0F490120096837
:1037E000486770470C4901200968886770470A4993
:1037F0004CF27100096808667047074881B04CF2C6
:103800007101026811660168096F0268D16600687B
:10381000006F009001B070470482110007383937FB
:10382000009C1C9110B500210A20FEF745FB8B4936
:10383000887110BD024670200121FEF750BA024681
:1038400070200021FEF74BBA2DE9F04100242546F7
:1038500072201421FEF7F6F9064610F0010F18BF8A
:10386000012416F0020F18BF44F0020416F0040FF2
:1038700018BF44F0040416F0080F0DD0784844F047
:1038800008040168D1F82C13006841F00401C0F865
:103890002C130020FCF7B2FE16F0100F18BF44F0F6
:1038A000100416F0200F6D4F06D044F020040021C4
:1038B0000A20FEF701FBB87124B1702001212246D5
:1038C000FEF70DFA300A10F0010F18BF1025040A98
:1038D00014F0010F4FF0010607D045F020053E70AF
:1038E00000210A20FEF7E8FAB871200A10F0010F53
:1038F0001CBF45F040057E7025B1702000212A468E
:10390000FEF7EDF9B8799C281CBF0020B870BDE81F
:10391000F08199E710B500210A20FEF7CDFAC0B278
:1039200000224E499C2804BFCA700A7008D0C8788B
:10393000401CC0B2C870032882BFCA70012010BDED
:10394000002010BD10B5454C6079401CC0B26071BC
:10395000142818D900210A20FEF7AEFAA279C0B2C5
:103960000021824204BF217161710CD06079401E38
:1039700060712079401CC0B22071032803D92171E5
:103980006171012010BD002010BD10B5C9200021BB
:10399000FEF758F9002010BD70B5742400213322C1
:1039A0002046FEF79CF901210D462A462046FEF7E7
:1039B00096F902212A462046FEF791F903212A466C
:1039C0002046FEF78CF9702001217722FEF787F957
:1039D0000C20FFF7EAFB00210C20FFF7C2FBC820F8
:1039E00000211422FEF77BF91C4C00200146A07038
:1039F0000A20FEF761FAA07170BD70B5FFF7A2FF53
:103A000020B10020FFF773F9FEF787FA134C002569
:103A10002078B0B100210A20FEF74EFAC0B29C28EF
:103A200004BFE57025700CD0E078401CC0B2E07097
:103A3000032806D9E57025700020FFF758F9FEF736
:103A40006CFA6078002808BF70BD65700020FFF731
:103A50004EF9BDE87040FEF760BA0000A8050020EE
:103A60001482110070B5FE4C00254FF49061257052
:103A70006570FC4813F0C9F84FF49061FA4813F0F0
:103A8000C4F84FF49061F94813F0BFF86560A57071
:103A90008021F74813F0B9F8BDE870408021F5485F
:103AA00013F0B3B8EE488078002818BF01207047A3
:103AB000EB484078002818BF0120704770B50546D4
:103AC000ED48EE490078097800FB01F4FFF7A6F90C
:103AD000E64A2B46A2F510610846FFF7CCF96200D2
:103AE0002946E24812F0F0FFDD490120487070BD20
:103AF0002DE9F0411D4616460F468046069C00F013
:103B0000A3FE022802D108F009FF28B100F09CFEB4
:103B1000052808BF06F097F8FFF76AF921462846FE
:103B2000FFF785F93A4631464046FFF7DEF9BDE832
:103B3000F041FFF75EB9CA4840687047D04A10B5F7
:103B4000127801469200CA4812F0BEFFC449012013
:103B5000887010BD2DE9F04FDFF80493002689B07E
:103B600099F8018099F80270B346FDF701FDC54848
:103B70000168496C026841F40061516400BF01684A
:103B8000496C006821F400614164BF490220096862
:103B900008660020FDF7C1F8FDF725FB05F043FAA4
:103BA00001280BD06846FDF7DCFD0028F6D06846FA
:103BB00005F063FE029870B11FB10CE04FF0010BED
:103BC00066E00146AE4800788200A94812F07CFF0A
:103BD000012089F802000198002851D0B8F1000FA7
:103BE0004ED1044699F8000090BBD9F804507DB33B
:103BF000A14800780790A14890F800A000F024FEAA
:103C0000022802D108F08AFE28B100F01DFE052826
:103C100008BF06F018F8FFF7EBF851460798FFF7D2
:103C200006F921462A460846FFF75FF9FFF7E1F853
:103C3000DFF858A29AF80000022804BF284605F0D1
:103C4000B3FC9AF80000092804BF204605F0ACFC3C
:103C50002546894889490078097800FB01F4FFF777
:103C6000DDF8824A2B46A2F510610846FFF703F9FA
:103C7000620029467D4812F027FF012089F80100E3
:103C8000FDF78CFD761C042E88D3BBF1000F03D00A
:103C900089F8018089F802700120FCF7E4FF7A4876
:103CA00002210068016609B05846BDE8F08F6C48F3
:103CB000002101704EE738B50F2100F091FE684CED
:103CC000012806D100202070FFF744FF009000F08B
:103CD0000AFF607800281BBFA07800280020012080
:103CE00038BD0F2138B500F07BFE5D4C012806D1B0
:103CF00000202070FFF72EFF009000F0F4FE6078A7
:103D000000281BBFA07800280020012038BD00211A
:103D1000534841708170704752487047524870470D
:103D200070B505464FF490614E4812F06EFF4FF4A7
:103D300090614E4812F069FF494C29464948227863
:103D400000F050FB22782946BDE87040474800F05B
:103D500049BBF0B4484A434B002114788C4603F524
:103D600010650022002C13D933F9116030F911705D
:103D7000BE4253F81160B4BFB61CB61E43F81160C2
:103D800033F9116045F81160491C521CA242EBD373
:103D90000CF1010CBCF1020FE3D3F0BC704700281A
:103DA00018BF01202E49487070472DE9F04FDFF809
:103DB000B0A083B05FEA000872D000254FF41079FC
:103DC0002C4600F041FD052808BF012505D008F06C
:103DD000A5FD00280CBF2E4C2E4C2F482F4F0068FD
:103DE0007969806BFF3100F5E03021F0FF01503040
:103DF00005FB010600F028FD022807D108F08EFD22
:103E000020B97869FF3020F0FF00064400F01CFD67
:103E1000DFF864B0022803D108F080FD002856D0F6
:103E200000F012FD052802D105F00DFFB8B1002504
:103E3000771C304601226946FEF730F97E1C0122CC
:103E400001A93846FEF72AF90198002CC1B2009862
:103E500061F31F2000B2414628F8150021E036E04A
:103E6000B005002030160020B01A0020301F0020BE
:103E7000B02C0020302D0020BE050020BF05002002
:103E8000C5050020148211001082110031060020A7
:103E9000DE070020985D0020A4060020A806002070
:103EA00010E018BF24F815006D1C4D45C0D3FF4825
:103EB0009BF80020FC4B007850434200184612F05B
:103EC00003FEF948CAF8040003B0BDE8F08F4023B0
:103ED000002084466146424628F810C0002C18BFD6
:103EE00024F81010401C9842F4D3F04811469BF877
:103EF00000200078EE4B50434200184612F0E4FDDB
:103F0000EB48DFE710B508F009FD0228E94BE74A66
:103F1000E5480AD01B781278E7495A43520012F05C
:103F2000D3FDE649E048486010BD1B781278E449AB
:103F30005A43520012F0C8FDF3E710B5DF4C0028D9
:103F400004BF606010BDDFF860C3DA490B78D74961
:103F50000A7801465A435200604612F0B5FDD24835
:103F6000606010BDD7487047002818BF0120D349B2
:103F700088707047D149002200284A708A7018BFA3
:103F800001200870E6E510B54FF44C301422CE49FC
:103F9000FEF784F8CC4810BD10B54FF44C30142215
:103FA000C949FEF77BF8C848006810BD10B54FF44A
:103FB0004C301422C449FEF771F8C34810BD0268A2
:103FC000B2F1FF3F15D0052904BFC07A704728DC45
:103FD000012904BF00797047022904BF007A7047A5
:103FE000032904BF407A7047042904BF807A7047D0
:103FF00027E0052913D007DC012922D002291CBFA4
:10400000032904290BD01CE0142912BF15292D20E7
:104010007047162904BF28207047172911D10020A6
:104020007047142904BF007B7047152904BF407BEB
:104030007047162904BF807B7047172904BFC07BD7
:104040007047FF20704770B5C0B000244FF48071F6
:10405000684612F0DAFDFF224FF44C36511C6846D8
:1040600012F0A9FDFF21254661F307052D22214607
:1040700062F3070162F30F2128224BF6BB3062F393
:10408000174164F31F61CDE90005CDE902410494B5
:104090003046FEF709F969463046FEF71EFA40B091
:1040A00070BD2DE9F04FC1B00446DDE94A9887485C
:1040B0009A4693460D4601602068B0F1FF3F08BF65
:1040C000FFF7C1FFD4E901106BF307006AF30F207B
:1040D000266869F31740D4E9037465F3070168F3B0
:1040E0001F600D468046FF22511C684612F063FD9A
:1040F000CDF80880CDE90374CDE900654FF44C3468
:104100002046FEF749F969462046FEF7E6F9012800
:1041100018BF002041B0BDE8F08F2DE9F04F1746E1
:1041200088468146C1B000244FF44C3014226649C1
:10413000FDF7B4FF644B1D68B5F1FF3F02BF204699
:1041400041B0BDE8F08FFF22D3E902A4511C6846BC
:10415000D3F810B05E6812F02EFD69F3070468F31F
:104160000F2467F31744012060F31F64CDE902A414
:10417000CDE900564FF44C34CDF810B02046FEF790
:104180000BF969462046FEF7A8F941B0BDE8F08F6B
:104190002DE9F04F4E4F0024C1B07E42A1464FF4AE
:1041A0004C3014224849FDF779FF474D1721284626
:1041B0002B68FFF704FF844614212846FFF7FFFE13
:1041C00040B2B3F1FF3F04D0BCF1000F09D12D285C
:1041D00007D0FFF738FF4FF44C3014223A49FDF76F
:1041E0005DFF14212846FFF7EAFE40B20390152137
:1041F0002846FFF7E4FE40B2029016212846FFF75A
:10420000DEFE40B2019016212846FFF7D8FE40425C
:1042100040B20090FCF776FF10F0020F7ED02348EA
:104220002C4A4FF0000890F800C02248007800287F
:10423000C8BFACF1010A1EDD0021BAF1000F16DD86
:1042400001F1010B01FB00830BFB008B32F81330F3
:1042500032F81BB0A3EB0B031BB2002BB8BF5B42C1
:104260001BB24B45C8BF9946491C5145E8DB08F1D4
:1042700001088045E0DB02994945B8BF44F00204DB
:104280004FF00008C246BCF1000FC8BFA0F1010BFF
:1042900034DD0021BBF1000F2CDD0AFB001332F8E6
:1042A00013E002EB430317E0B0230020BF0500201A
:1042B00030280020BE050020DE070020B0050020C9
:1042C000985D0020B02C0020B02D0020700500204B
:1042D000F1D8FFFF301600205B88AEEB03031BB262
:1042E000002BB8BF5B421BB24345C8BF9846491C70
:1042F0005945D2DB0AF1010AE245CADB039941457F
:10430000B8BF44F004044FF0000ABCF1000F15DD03
:10431000002300280EDD0AFB003100E016E032F930
:104320001110B942C8BF0F46B142B8BF0E465B1C60
:104330008342F0DB0AF1010AE245E9DB0198B84269
:1043400002DB0098B04201DD44F0080409F0FF00F0
:1043500040907042C6B2274808F0FF08FFB20460E0
:104360002868B0F1FF3F08BFFFF76DFED5E9020AEC
:10437000409968F3070061F30F20D5E9009B67F3CC
:10438000174066F31F600646FF222D6964F3070B92
:10439000511C684612F00FFCCDF80090CDE903A542
:1043A000CDE901B64FF44C352846FDF7F5FF6946D7
:1043B0002846FEF792F81D208DF8000041208DF868
:1043C000010000208DF802408DF804008DF80300F4
:1043D0008DF8050006226946072007F0D3FE41B09C
:1043E000BDE8F08F044A1378044A12785A43520009
:1043F00012F06ABB70050020BE050020BF0500203A
:104400002DE9FF4FADF2AC4D07463220CDF8A004A8
:104410004042CDF89C040020CDF898040646CDF823
:10442000940483468146CDF88804CDF89004CDF8F5
:104430008404FB484FF00008444690F800A0F94877
:104440000078CDF88C0400F0FFF9052807BF1E2581
:10445000684214256842CDF8A404FFF75DFCCDF84E
:104460008004DDF88C040023002840F3E58000225E
:10447000BAF1000F7ADD03FB0A2080B237F9101081
:10448000A94206DDDDF89814491C09B2CDF898144C
:1044900009E0DDF89CC4614505DADDF89414491C97
:1044A00009B2CDF89414DDF8B41431F91010A94212
:1044B00007DD06F1010C0FFA8CF64145C8BF8846AE
:1044C00012E0DDF8A4C48C450EDD09F1010C0FFAF1
:1044D0008CF98C42C8BF0C46DDF89CC46145BCBF5A
:1044E0000BF1010C0FFA8CFB0029B4BFC1F1000CD9
:1044F0008C46DDF8A0E4F44507DDDDF888C40CF156
:10450000010C0FFA8CFCCDF888C4DDF880C43CF8AF
:1045100010C0ACEB0101DFF810C309B23CF810C0C9
:10452000ACEB010C2DF810C037F910C05FEA0C0E8F
:104530001DD50029B8BF4942DDF880C43CF910C040
:10454000BCF1000FB8BFCCF1000C8C450FDA1EF1A6
:104550001E0F04DADDF8B8C40221ACF80010DDF853
:10456000B01437F810C021F810C006E021E0DDF8E3
:10457000B0144FF0000C21F810C03DF91000A84213
:1045800005DDDDF89014491C09B2CDF8901400281F
:10459000B8BF4042DDF8A014884205DDDDF8840490
:1045A000401C00B2CDF88404501C02B25245FFF604
:1045B00062AF581C03B2DDF88C048342FFF657AF9C
:1045C000B9F10A0F03DBDDF8B804072101804E457D
:1045D000B8BFB8F1960F0CDA04F19500B0F5957FED
:1045E00007D8002CB4BF604220464045C8BF002613
:1045F00014DC4E45B8BFB8F1500F0FDA04F14F008C
:104600009E280BD889494878401CC0B24870C828F9
:1046100035D9C82048700020087030E0DDF89804D3
:10462000012128B186B18148007801282CD040E0D2
:10463000DDF8940400280ADC7C494878401CC0B2AC
:104640004870C8281BD9E4E7BBF1000F10DD77489C
:104650000022427001704FF490627348DDF88014BC
:1046600012F032FA0DF2BC4D4FF0FF30BDE8F08F82
:104670006E494878401CC0B24870C828C9D800208C
:104680000DF2BC4DBDE8F08FDDF88814DDF8840430
:1046900088420EDA524669463846DDF88C3405F019
:1046A000B8FEDDF89004002804BF0DF2BC4DBDE853
:1046B000F08F0120E4E72DE9F05FDFF874A1804678
:1046C0000026DAF80000374690F8241100291CBFB4
:1046D000B0F8300100286CD0FCF700FEDAF80010CA
:1046E00091F82411B0FBF1F201FB1200002860D117
:1046F00001F07AFC5FEA00095BD04E480078102890
:1047000004BF484604F050FF45484FF0000C4446B3
:1047100090F800B04348634690F800E0BEF1000F07
:1047200019DD34F9020B0125BBF1010F10DD34F95D
:10473000022B101A01B20029B8BF494208B26045E5
:1047400002DD84461E462F466D1C10465D45EEDB9D
:104750005B1C7345E5DBDAF80020B2F830018445D4
:1047600027DB06FB0B7008EB400338F8101033F81A
:10477000023CC91A39F8103009EB400009B230F890
:10478000020C181A081A00B20028B4BF43420346AC
:104790000029B8BF49428B420BDA0028B8BF40421B
:1047A000B2F83211884204DA01F028FC0020BDE89A
:1047B000F09F0120BDE8F09F70B515460E460446F7
:1047C00008F0ACF8002C18BF70BD042818BF0528ED
:1047D00006D01748006890F82400A84288BF70BD32
:1047E0003046BDE87040FFF7A9B970B515460446DC
:1047F00008F094F8B4F1FF3F0AD0002C18BF70BD48
:10480000002D08BF70BD2846BDE87040FFF756B9BF
:10481000002D08BF70BD2846BDE87040FFF780BA84
:10482000BE050020BF050020B02E0020B8050020E6
:10483000E80600203106002010B506F0E3FA06F085
:104840007DFB002010BD0000AB4800787047AA48EF
:104850000078022805D005281CBF0020704705F00D
:10486000F2B908F05BB8A4490870704710B5044667
:10487000072C28BF10BDDFE804F013040810130C48
:104880000800084600F040F90AE0084608F03BF846
:1048900006E0084605F0CCF902E0084607F0E2FC25
:1048A0009548047010BD954900200968B1F864105E
:1048B00011F4807F08BF7047FDF775B98F4900205C
:1048C0000968B1F8641011F4807F08BF7047FDF7E4
:1048D00085B98A4900200968B1F8641011F4806F25
:1048E00008BF7047FDF79EB98349487800281CBF70
:1048F000401E4870704710B572B6FEF75DFFBDE808
:104900001040FEF71BBD10B57D48FDF7CDFC72B61B
:10491000FEF752FFBDE81040FEF710BD7648006973
:1049200070477548C068704773494861704772485E
:104930004069704710B5FCF753FBFBF7DBFDFCF754
:10494000E0F9FFF7DFFABDE81040FDF771B810B5E8
:10495000FCF746FBFBF7CEFDFBF786FFFCF7D1F932
:10496000BDE81040FDF764B830B5ADF2844D0546A2
:104970004FF49061684612F048F95F4C2846256173
:1049800006F05CF9E060F0B10278A2704178E17065
:1049900083782371531C03F0FE0363710023E371DA
:1049A00023724FF0120C84F806C004F10A0C8CF844
:1049B00000308CF80130007860721046FCF714FD6E
:1049C0000DF2844D30BD4D480068B0F8640010F41D
:1049D000807F18BFFDF702F900200DF2844D30BD35
:1049E000F0B5ADF2CC4D0F4604464FF490616846E9
:1049F00012F00BF9404D20462C6106F01FF9E860DB
:104A0000002851D00278AA7041780446E970807875
:104A10002871501C00F0FE0068710020E8712872B7
:104A20001223AB7105F10A03187058702078687270
:104A30001046FCF7D9FC0DF59061204606F01BF9F5
:104A4000608A6E6900281CBF7043060B002017F0B7
:104A5000040F18BF062017F0080F18BF40F002001F
:104A6000616A0840DDF88014CDF8C014DDF89C14AC
:104A7000CDF8C414DDF89014CDF8C8140DF5986184
:104A8000FCF7C1FADDF88C0420B13346EA78A97846
:104A900005F0C8FB6421304605F077FC2878022831
:104AA0000FD0052810D017E014480068B0F8640053
:104AB00010F4807F18BFFDF791F800200DF2CC4D67
:104AC000F0BD07F02BFF01E005F0BDF8022804BFA0
:104AD000DDF89404FFF769F9002001F084FA0DF283
:104AE000CC4D0120F0BD10B5FCF704FB02490020BD
:104AF000C860012010BD0000BC050020E8060020B1
:104B000000FE1100F9487047F94948707047F848AD
:104B100040787047F74810B4F74A0168914218D1BD
:104B20004168B1F5887F14D80022D0F808C0034648
:104B30001146B2EB9C0F24BF10BC704753F82140C4
:104B4000491C2244B1EB9C0FF8D3002A04BF10BCCF
:104B50007047002010BC70474FF4FC30FDF71CBCC0
:104B60002DE9F0410446E3480E46E34F0168B9429F
:104B700013D14168B1F5887F0FD80023D0F808C061
:104B800001461A46B3EB9C0F08D251F82250521C32
:104B90002B44B2EB9C0FF8D303B10020002558B191
:104BA000B0E80E10A4E80E10B0E80E10A4E80E1045
:104BB0000FC884E80F0016E0FF223021204611F0D4
:104BC000FAFF4FF48870C4E900703020C4E9020590
:104BD000AA20C4E904054FF0FF30E062A062A5619D
:104BE0006062C4E9075066B94FF4FC30FDF7D4FBAE
:104BF000C248056045608560C560056145618561A5
:104C0000C5610120BDE8F081B949012048707047B5
:104C1000B74900200870704770B5ADF5107D0446A7
:104C2000FFF77FFE054614F0020F04BF0DF5107D5F
:104C300070BD0426FFF70BFE002818BFB04C08D04B
:104C400095F92C102246304606F03AF80DF5107D05
:104C500070BD6C462046FCF7A5FDF1E770B50D462A
:104C600006461024FFF75DFE16F0020F18BF05245C
:104C70002A46102C28BF70BD002A08BF70BD2044F2
:104C800090F928102046BDE8704006F019B82DE9CB
:104C9000F04F87B08146122000244FF0200A2746AB
:104CA0000090FFF7D1FD022802D107F037FE30B1A6
:104CB000FFF7CAFD052804D104F0C5FF08B902209A
:104CC00000900098002500289CBF07B0BDE8F08F39
:104CD0000026BAF1000F7CD98A4A681EA2FB003177
:104CE0004908A1EB810108440590E81E0490A81F23
:104CF0000390C01E0290C01E0190A2FB0510400848
:104D0000A0EB8000A5F10F0B00EB0508FFF79CFD61
:104D1000022803D107F002FE00283AD0FFF794FDE5
:104D2000052803D104F08FFF002832D0032D38BFAF
:104D3000142417D30498032838BF152412D30398DA
:104D4000032838BF16240DD30298032838BF242423
:104D500008D30198032838BF252403D3BBF1030FE0
:104D600038BF2624A7420AD06748C4F30311274658
:104D70000068C16104F00F017F20FBF765FBC4F3FD
:104D8000031001281CBFC6F11F0000EB481018D10A
:104D900027E0002D0CBF14242424A74209D05A4830
:104DA000210927460068C16104F00F017F20FBF74D
:104DB0004BFB2009012814D00598C6F11F0101EB17
:104DC000401019F8011BC0B2FBF73EFB761C56459C
:104DD0009CD300986D1C8542FFF47AAF07B0BDE804
:104DE000F08F06EB4810ECE72DE9F84F834640487A
:104DF0004FF0000A0C46B0F904804FF0120920274A
:104E000050460091FCF7EAFA0546CBF10706FFF79A
:104E10001BFD022802D107F081FD30B1FFF714FD20
:104E2000052804D104F00FFF08B94FF00209BBF1C7
:104E3000000F1CD0002E55DB4FF0000CB9F1000F15
:104E400049D9012101FA06F3701E01FA00FB002185
:104E5000002F3CD935F8020B2278A0EB080000B2F5
:104E60005FEAD21E23D0002827DA2EBB1BE00023E6
:104E7000B9F1000F2FD90021002F10D935F8022BDE
:104E80002078A2EB080212B2502AC8BF40F080007E
:104E900040F04000491C04F8010BB942EED35B1C02
:104EA0004B45E8D317E010F1280F05DB0AE0002896
:104EB00003DD0EB9282805DD9A43002EC4BF4BEA56
:104EC0000200C2B204F8012B491CB942C2D30CF152
:104ED000010CCC45BBD30098FFF7D9FE002E08BFCC
:104EE0004FF0010A5046BDE8F88F00003033002033
:104EF000D405002000F8110054435246101600203B
:104F000070350020ABAAAAAA14821100FD4988803E
:104F1000704770B5FB4EFC49F08009680320C861FA
:104F20000425E9B27F20FBF78FFA0024B179E0B2C3
:104F3000FBF78AFA04F12000B179C0B2FBF784FADA
:104F400004F14000B179C0B2FBF77EFA641C202C5A
:104F5000ECDB6D1C072DE4DB70BD2DE9F04F89B053
:104F60000026FCF73DF8E849072009680865E7488E
:104F7000016841F0200101600020FFF7CAFFE1490C
:104F80004FF4006088804FF41071E14811F03DFE4D
:104F90000020FBF7C2FEFCF74FF900252C460795D1
:104FA000FFF755FC04F03FF801281DD06846FCF7D8
:104FB000D8FBB8B10120FBF7B0FE684604F05DFCF9
:104FC0006D1C012D0ED00025D1492046FFF70CFFA6
:104FD000072C1ED00020FBF7A0FEFCF7DFFBFCF740
:104FE0002BF9641C002EDDD0FFF731FCC54AC948FF
:104FF000C74BD0600020D16813F800C0401C01F8F6
:1050000001CBD160B0F5107FF5D3079800283CD1D3
:1050100035E012200890BB4800274FF0200BB0F974
:1050200004603846FCF7DAF90546BA460024BBF1BD
:10503000000F18D9304612F09AFAB74AB74B12F05F
:10504000FDFA8946804635F9022B901B48BFB01AFD
:1050500012F08DFA42464B4612F0EEFB38BF7F1C31
:10506000641C5C45EFD308980AF1010A8245DDD340
:10507000002F4FF001061CBF01200790B4E7002E5F
:105080001EBF002009B0BDE8F08F012009B0BDE8C7
:10509000F08FF0B587B000260120FBF7E4FD9B48B8
:1050A000016841F0200101600020FFF732FF9549BF
:1050B0004FF4006088809A490020C1F88000C1F850
:1050C0008400C1F88800C1F88C00C1F89000C1F8D4
:1050D0009400C1F89800C1F89C00C1F8A000C1F884
:1050E000A400C1F8A800C1F8AC00C1F8B000C1F834
:1050F000B400C1F8B800C1F8BC00FBF70EFEFCF725
:105100009BF800252C462F4603F08DFF012835D053
:105110006846FCF726FB78B30120FBF7FEFD6D1C0B
:10512000012D24D000257F492046FFF75DFE072C86
:1051300006D00020FBF7F1FDFCF77EF8641C1BE0B5
:10514000002420252046FCF749F9002130F9022BE4
:10515000A2F26662B2F54D7F88BF641C491CB1EBB8
:10516000450FF3D3002C08BF01260DD106E0002027
:10517000FBF7D3FDFCF760F8002EC5D027B9002E51
:105180001EBF002007B0F0BD012007B0F0BD2DE923
:10519000F04F83460021ADF5137D634890910C4696
:1051A00000780F460D46022808BF012703D00528C6
:1051B00004BF02240427DFF850914FF0010A00F0E9
:1051C0009BB9204605F03AFD002800F09481008943
:1051D00000EA0B0626F0CC0030F47C4000F08B8116
:1051E000DFF84881D8F800004069D8F8001040F492
:1051F00000704861D8F800000069D8F8001020F06D
:1052000006000861D8F800000069D8F8001040F0E6
:10521000100008613CB1012C35D0022C71D0032C58
:1052200055D000F0FDB802210846FFF71FFB012012
:10523000FBF719FD05F067FB0F212046FFF7D0FBB8
:10524000002800F05881D9F80000406CD9F800100F
:1052500040F40060486400BF00BF00BFD9F8000000
:10526000406CD9F8001020F400604864FBF78FFC14
:1052700005F035FB012007F00BFC0020FBF74DFD8E
:10528000FCF78CFACCE000210220FFF7EFFA0120B6
:10529000FBF7E9FC0F212046FFF7A2FB002800F0F6
:1052A0002A81D9F80000406CD9F8001040F4006061
:1052B000486400BF00BF00BFD9F80000406CD9F8B7
:1052C000001020F400604864FBF761FCA8E00021B6
:1052D0000520FFF7CBFAFBF783FED8F80000006942
:1052E000D8F8001020F006000861D8F80000006926
:1052F000D8F8001040F004000861D8F800000069F8
:1053000016E03EE0D4050020148211006405002060
:1053100070350020303300209A9999999999B93FB6
:1053200030370020B037002029060020FC81110012
:10533000D8F8001040F01000086109F0F5F80F21CE
:105340000220FFF74DFB00287DD0DFF8788507208D
:10535000D8F800108860D8F80010042048600221B6
:105360002020FCF741F80020FBF7D7FCFBF73BFFC0
:10537000D8F800000068D8F8001040F0010008607C
:105380004EE002210520FFF771FAFBF729FED8F85D
:1053900000000069D8F8001020F006000861D8F875
:1053A00000000069D8F8001040F004000861D8F847
:1053B00000000069D8F8001040F01000086109F002
:1053C000B3F805F08CFA0F210320FFF709FB002842
:1053D00039D0DFF8F0847F20D8F800108860D8F842
:1053E000001002204860D9F80000406CD9F8001085
:1053F00040F400604864012007F043F9D9F8000048
:10540000406CD9F8001020F400604864FBF7EBFE14
:10541000D8F800000068D8F8001040F001000860DB
:105420009098002862D116F0010F21D00120FBF7DF
:105430001AFCFFF70CFA80B1FCF79AF8FF210F2055
:10544000FFF78BFD00E056E02AEA0000054300204C
:10545000FBF763FC909888BB0AE0FCF789F8FF2112
:105460000F20FFF716FE2AEA000045EA4005EEE7A6
:1054700016F0060F22D0FFF7EAF902281ED1FEF738
:10548000F1FA0020FEF776FD0120FBF7ECFBFEF7BA
:1054900043FC0646FFF745FA0523320004D090F995
:1054A0002D10184605F00CFCFEF736FCFEF745FD06
:1054B000FEF732FC4FF4906111F085FBFFF731FAF3
:1054C000804604209190FFF7C2F9002818BFFE4ED5
:1054D00020D098F92C103246919805F0F1FBFB4949
:1054E00000200870FA490870FBF77DFEFFF7ACF961
:1054F000F84880F800A0641CBC4203D290980028B1
:105500003FF45FAEF449002008700DF5137D284686
:10551000BDE8F08F6E463046FCF744F9D9E770B528
:10552000ED48CCB04578FFF78FF901287ED1EB48E4
:105530000068B0F93610B0F9340004F099FF15F0A6
:10554000020F74D0002140A8FFF70AFB4598401CC9
:10555000459040F27770FFF71AFEC0B2032810D0D2
:10556000002804BF45F25000449012D0012808BF23
:105570004AF250100CD0022808BF45F2A10007D013
:1055800007E04AF2A11044904698401C469008E07B
:10559000449047980022401C47902121072006F0A4
:1055A000C8FD40AC05F03BFB40B181694891C16941
:1055B000499141694A91C0684B9005E04FF0FF3036
:1055C0004B904A9049904890C54840904FF488705D
:1055D00041903020429000204390A368224601462B
:1055E00052F820C0401C6144B0EB930FF8D34E42F8
:1055F000FF22511C6846E66011F0DDFAA268F4E86B
:1056000004018DE847000FCC04AE86E80F0094E853
:105610000F0008AE203C86E80F004FF4FC306946CE
:10562000FCF75BFFAF4922680A6001E021E00CE073
:1056300062684A6022698A606269CA60A2690A6116
:10564000E2694A61226A8A610CE015F0010F09D013
:1056500040F22220FFF79BFD20B9002221210720E4
:1056600006F067FDFEF753FB2A464021072006F0AF
:1056700060FD4CB0BDE8704003F0D1BC70B50C4685
:105680009949054603200968C86101217F20FAF77E
:10569000DBFE00217520FAF7D7FE01217620FAF70C
:1056A000D3FE60210820FAF7CFFE00210920FAF787
:1056B000CBFE30210A20FAF7C7FE00210B20FAF7B3
:1056C000C3FE06210E20FAF7BFFEE1B22620FAF74C
:1056D000BBFEE1B22720FAF7B7FEE1B22820FAF7C5
:1056E000B3FEE1B22920FAF7AFFEE1B22A20FAF7C1
:1056F000ABFEE1B23020FAF7A7FEE1B23120FAF7B3
:10570000A3FEE1B23220FAF79FFEE1B23320FAF7AE
:105710009BFEE1B23420FAF797FEE1B23620FAF7A9
:1057200093FEE1B23720FAF78FFEE1B23820FAF7A4
:105730008BFEE1B23920FAF787FEE1B23A20FAF7A0
:1057400083FEE1B24020FAF77FFEE1B24120FAF792
:105750007BFEE1B24220FAF777FEE1B24320FAF78E
:1057600073FEE1B24420FAF76FFEE1B24620FAF789
:105770006BFEE1B24720FAF767FEE1B24820FAF784
:1057800063FEE1B24920FAF75FFEE1B24A20FAF780
:105790005BFEE1B25020FAF757FEE1B25120FAF772
:1057A00053FEE1B25220FAF74FFEE1B25320FAF76E
:1057B0004BFEE1B25420FAF747FEE1B25620FAF769
:1057C00043FEE1B25720FAF73FFEE1B25820FAF764
:1057D0003BFEE1B25920FAF737FEE1B25A20FAF760
:1057E00033FEE1B26020FAF72FFEE1B26120FAF752
:1057F0002BFEE1B26220FAF727FEE1B26320FAF74E
:1058000023FEE1B26420FAF71FFEE1B26620FAF748
:105810001BFEE1B26720FAF717FEE1B26820FAF743
:1058200013FEE1B26920FAF70FFEE1B26A20FAF73F
:105830000BFE02217F20FAF707FE6A210220FAF709
:1058400003FE8E210420FAF7FFFDF1210720FAF76D
:10585000FBFD15B1012D05D008E004210620FAF763
:10586000F3FD03E008210620FAF7EEFD03217F2077
:10587000FAF7EAFD21211020FAF7E6FD00211120B8
:10588000FAF7E2FD00211220FAF7DEFD00211320D5
:10589000FAF7DAFD00211420FAF7D6FD00211520D1
:1058A000FAF7D2FD01211620FAF7CEFD02211720CA
:1058B000FAF7CAFD00211820FAF7C6FD00211920C9
:1058C00014E0000018821100703500201607002037
:1058D0001707002018070020D4050020E806002044
:1058E000544352461016002014821100FAF7ACFD02
:1058F00000211A20FAF7A8FD00211B20FAF7A4FDC9
:1059000001212020FAF7A0FD20212120FAF79CFD9B
:1059100000212220FAF798FD00212320FAF794FDB8
:1059200000212420FAF790FD00212520FAF78CFDB4
:1059300001212620FAF788FD00212720FAF784FDAF
:1059400002212820FAF780FD00212920FAF77CFDAA
:1059500000212A20FAF778FD00212B20FAF774FDA8
:1059600001213020FAF770FD00213120FAF76CFD9B
:1059700020213220FAF768FD00213320FAF764FD78
:1059800000213420FAF760FD00213520FAF75CFD94
:1059900001213620FAF758FD00213720FAF754FD8F
:1059A00000213820FAF750FD02213920FAF74CFD8A
:1059B00000213A20FAF748FD00213B20FAF744FD88
:1059C00001214020FAF740FD00214120FAF73CFD7B
:1059D00000214220FAF738FD20214320FAF734FD58
:1059E00000214420FAF730FD00214520FAF72CFD74
:1059F00001214620FAF728FD00214720FAF724FD6F
:105A000000214820FAF720FD00214920FAF71CFD6B
:105A100002214A20FAF718FD00214B20FAF714FD65
:105A200001215020FAF710FD00215120FAF70CFD5A
:105A300000215220FAF708FD00215320FAF704FD57
:105A400020215420FAF700FDBDE8704000215520C8
:105A5000FAF7FABC10B50322FD49062828BF10BD8D
:105A6000DFE800F00327FDFCFBFA0868C2610121B2
:105A70007F20FAF7E9FCAF210820FAF7E5FC732153
:105A80000A20FAF7E1FC0A210E20FAF7DDFC0221D8
:105A90007F20FAF7D9FC00210720FAF7D5FC1F2157
:105AA0000120FAF7D1FC1021BDE810400620FAF7DA
:105AB000CBBC0868C26101217F20FAF7C5FC0F2129
:105AC0000E20FAF7C1FC87210820FAF7BDFC6E21F1
:105AD0000A20FAF7B9FC02217F20FAF7B5FC712100
:105AE0000720FAF7B1FC6A210220FAF7ADFC8E21FB
:105AF0000420FAF7A9FC03217F20FAF7A5FC612115
:105B00001020FAF7A1FC00211120FAF79DFC0021DA
:105B10001220FAF799FC00211320FAF795FC0021D6
:105B20001420FAF791FC00211520FAF78DFC0121D1
:105B30001620FAF789FC06211720FAF785FC0021C8
:105B40001820FAF781FC00211920FAF77DFC0021CA
:105B50001A20FAF779FC00211B20FAF775FC0121C5
:105B60002020FAF771FC60212120FAF76DFC00215A
:105B70002220FAF769FC00212320FAF765FC0021B6
:105B80002420FAF761FC00212520FAF75DFC0121B1
:105B90002620FAF759FC00212720FAF755FC0621A8
:105BA0002820FAF751FC00212920FAF74DFC0021AA
:105BB0002A20FAF749FC00212B20FAF745FC0121A5
:105BC0003020FAF741FC00213120FAF73DFC60213A
:105BD0003220FAF739FC00213320FAF735FC002196
:105BE0003420FAF731FC00213520FAF72DFC012191
:105BF0003620FAF729FC00213720FAF725FC00218E
:105C00003820FAF721FC06213920FAF71DFC002183
:105C10003A20FAF719FC00213B20FAF715FC012184
:105C20004020FAF711FC00214120FAF70DFC002179
:105C30004220FAF709FC60214320FAF705FC002115
:105C40004420FAF701FC00214520FAF7FDFB012171
:105C50004620FAF7F9FB03E03FE039E033E02DE0BE
:105C600000214720FAF7F0FB00214820FAF7ECFB6F
:105C700000214920FAF7E8FB06214A20FAF7E4FB65
:105C800000214B20FAF7E0FB01215020FAF7DCFB62
:105C900000215120FAF7D8FB00215220FAF7D4FB5B
:105CA00000215320FAF7D0FB60215420FAF7CCFBF7
:105CB0000021BDE810405520FAF7C6BBAA21BDE877
:105CC00010400020DAE45521BDE810400020D5E462
:105CD000AA21BDE810400120D0E45521BDE81040C4
:105CE0000120CBE410B5FEF717F80446FEF716F8CE
:105CF0002146BDE810404FF4906210F0E5BE2DE95A
:105D0000F0415448047854480578FEF707F80646F1
:105D1000FEF702F80022002D98BFBDE8F0810021B7
:105D2000002C10D902FB04FC06EB4C0300EB4C0CDE
:105D300011F0010F1CBF33F811702CF81170491CC1
:105D4000C9B2A142F4D3511CCAB2AA42E7D3BDE8FA
:105D5000F08100B5ADF2844DFDF7E0FF01464FF450
:105D60009062684610F0B0FE6846FDF7D9FF0DF26C
:105D7000844D00BD2DE9F04F83B0122001903848CA
:105D800036494FF020090024C16001E0032C01DAFC
:105D900014261AE0E01E032838BF152615D3A01FCD
:105DA000032838BF162610D3A4F10900032838BFF2
:105DB00024260AD3A4F10C00032838BF252604D3D7
:105DC000A4F10F00032838BF2626B34509D0204888
:105DD0003109B3460068C16106F00F017F20FAF770
:105DE00033FB0025B9F1000F2ADD1E484FEA161AD1
:105DF00080FB0410A0EBE070A0EB800000EB040837
:105E0000BAF1010F0EBF05EB4810C5F11F0000EB02
:105E1000481087B21249C86810F8012B0092C86078
:105E2000F8B21146FAF710FB00BF00BF00BF00BF79
:105E300000BFF8B20099FAF707FB6D1C4D45DFDB98
:105E40000198641C8442A1DB03B0BDE8F08F000020
:105E500014821100BE050020BF0500203033002051
:105E6000D4050020565555552DE9F84FDFF8D8B127
:105E700074484FF02008CBF80C001220002400904A
:105E800001E0032C01DA14261AE0E01E032838BFD3
:105E9000152615D3A01F032838BF162610D3A4F14A
:105EA0000900032838BF24260AD3A4F10C000328D4
:105EB00038BF252604D3A4F10F00032838BF2626B7
:105EC000B24509D061483109B2460068C16106F0A7
:105ED0000F017F20FAF7B8FA0025B8F1000F1EDD98
:105EE0005B484FEA161980FB0410A0EBE070A0EBB2
:105EF00080000719B9F1010F0EBF05EB4710C5F17E
:105F00001F0000EB471080B2FAF7B7FADBF80C106D
:105F10006D1C454501F8010BCBF80C10EADB00982D
:105F2000641C8442ADDBDBF80C00BDE8F88F46480A
:105F3000C08870472DE9F043002787B0B946FBF7CA
:105F40004FF841494FF400608880FAF7F6FE0020D0
:105F5000FAF7E3FE00254FF05A082846FEF7D9FF6E
:105F6000FBF741F903F05FF86846FBF7FAFB28B34B
:105F7000684603F082FC002420262046FBF72EFA18
:105F8000002130F9022BA2F26662B2F54D7F88BF84
:105F9000641C491CB1EB460FF3D3ACB1454515D297
:105FA000FBF71EF8A8B26D1CFEF7B3FFFBF71BF959
:105FB00006F0B4FC002808BFFBF704FF002FD1D087
:105FC000B9F1000F0BD104E00127F9E7FBF708F85E
:105FD00005E0002F1EBF002007B0BDE8F0830120C0
:105FE00007B0BDE8F08370471748816800291BBFE0
:105FF000017811F0020F0020C0687047154812495F
:10600000006890F825218878401CC0B288708242D0
:1060100028BF70470020887001210846FEF726BC83
:1060200010B506F07BFC074902284FF4107204D02B
:10603000BDE81040084810F047BDBDE810400748D3
:1060400010F042BD30330020D4050020148211002E
:1060500056555555E80600205E0C002018620020B9
:106060001FB513F0070F069804D003F00702022AA9
:1060700008D004E0012202A90F2002F0B0FF04B012
:10608000002010BDF84B5A79052A0DD1DA898242D9
:106090003CBF521CDA8192B2824205D10020D881E5
:1060A000012008700320587104B0012010BD1FB5F5
:1060B00013F0070F04D003F00700022808D004E013
:1060C000012202A90F2002F08AFF04B0002010BDB7
:1060D0000120087004B010BD1FB513F0070F04D0E5
:1060E00003F00700022808D004E0012202A90F20D3
:1060F00002F075FF04B0002010BD0120087004B04C
:1061000010BD1FB513F0070F04D003F007000228DD
:1061100008D004E0012202A90F2002F060FF04B0C1
:10612000002010BD0120087004B010BD1FB513F091
:10613000070F04D003F00700022808D004E0012272
:1061400002A90F2002F04BFF04B0002010BD012077
:10615000087004B010BD2DE9F00703F00705002713
:10616000C14EDDF81CC0012D08BFF7810DD013F022
:10617000070FBD4BDFF8F482DFF8F492DB8903F1FF
:106180000104A4B205D0022D16D0BDE8F00700200E
:10619000704763453CBFD9F80000C254F4816445A0
:1061A00024D1D9F80000D9F800104078097800EB24
:1061B0000120A8F80E0019E0B8F80E20D9F8005018
:1061C000120A63452A70D9F8005098F80E206A70B8
:1061D00004D2D9F80020D25C0270F481F0896045C5
:1061E00004D1F7810120087003207071BDE8F00729
:1061F000012070471FB513F0070F04D003F007000C
:10620000022808D004E0012202A90F2002F0E7FED4
:1062100004B0002010BD0120087004B010BD1FB5EF
:1062200013F0070F04D003F00700022808D004E0A1
:10623000012202A90F2002F0D2FE04B0002010BDFE
:106240000120087004B010BD1FB513F0070F04D073
:1062500003F00700022808D004E0012202A90F2061
:1062600002F0BDFE04B0002010BD0120087004B093
:1062700010BD1FB513F0070F069804D003F00702F6
:10628000022A08D004E0012202A90F2002F0A7FE92
:1062900004B0002010BD744B5A79052A0DD1DA895B
:1062A00082423CBF521CDA8192B2824205D1002068
:1062B000D881012008700320587104B0012010BD5E
:1062C0000020704708B503F00700012806D18DF8BB
:1062D0000000024669460B2002F081FE002008BD46
:1062E00008B503F00700012807D100208DF8000051
:1062F000012269460B2002F072FE002008BD10B595
:1063000003F00700012808BFFEF7F5FA002010BDD2
:1063100008B503F00700012807D103208DF800001D
:1063200001226946002002F05AFE002008BD08B58F
:1063300003F00700012807D103208DF80000012297
:106340006946002002F04BFE002008BD70B403F047
:1063500007020024444BDDF80CC0012A02D0022AB7
:1063600008D004E005205871DC811C639C8270BC5D
:10637000002070475A79052A11D1DA89624506D280
:106380003C4DAD68D600F5400570501CD881D889C9
:10639000604504D1DC81012008700320587170BC75
:1063A000012070471FB513F0070F08D19DF80800B2
:1063B000F02807D0012202A9072002F010FE04B045
:1063C000002010BDFEF7C8FBF9E71FB513F0070F5B
:1063D00004D1012202A9104602F001FE04B00020FF
:1063E00010BD2DE9F00103F007041F4E059D012C9F
:1063F00004BF0020F0811ED013F0070F1A4B1E4F70
:10640000DB8903F1010C1FFA8CFC02D0022C16D0A0
:1064100011E01749022B3CBF0868C254A6F80EC011
:10642000AC4508D108680278386880F8EB20096824
:10643000497880F8EA10BDE8F001002070470E4A64
:10644000002B126804BF92F8EB10017006D0012BEC
:1064500004D192F8EA20027001200870A6F80EC05C
:10646000BDE8F00101207047EC050020F40F00208A
:106470004082110010160020E806002030B403F01E
:10648000070CF84CBCF1010F04BF0020E08118D0CC
:1064900013F0070FF34BDB8903D0BCF1020F13D0CD
:1064A0000FE073B9A271082A0BD2DFE802F00407EB
:1064B0000704040404044FF4906001E04FF41070EA
:1064C000E06230BC00207047E64A002BD26A04BF6D
:1064D000110A017004D0012B02D102700120087052
:1064E000581CE08130BC01207047F8B5054603F028
:1064F00007000026DB4C0F46012807D013F0070FDA
:106500002346DB8906D0022828D025E005206071CB
:10651000E68121E003BBA2714FF49060A08240109D
:10652000082A19D2DFE802F004060A0E1012141627
:10653000CD4810E0CD492163A0820DE0CC49216314
:10654000A08209E0CB4806E0CB4804E0CB4802E05B
:10655000CB4800E0CB4820630020F8BD60790528D7
:1065600047D1206B002844D0C749BE4A0968928AA7
:1065700091F8EB10012918BF032906D06946934210
:106580002DD213F0030F21D118E0934227D213F03C
:10659000010F07D094F82C002870E06A000AE0622E
:1065A000581C1BE0AF49A079C989042821F00102D9
:1065B00014BFB648B648805EE062EBE70422FBF702
:1065C0006DFD0098E062206B001D206394F82C00A4
:1065D0002870E06A000AE062E089401CE081E089FE
:1065E000A18A884205D1E681012026633870032004
:1065F00060710120F8BD2DE9F84303F00702002681
:10660000984D089C0F468046012A02D0022A06D0E7
:1066100002E005206871EE810020BDE8F88368790A
:1066200005281CD1E889A04211D2FDF73EF8AC2024
:106630008DF800007A208DF8010070208DF802009E
:10664000EA891DF8020088F80000501CE88180B239
:10665000A04204D1EE81012038700320687101202E
:10666000BDE8F8832DE9F04182B003F0070200266F
:106670007C4D089C0F468046012A02D0022A07D092
:1066800002E005206871EE8102B00020BDE8F081D3
:106690006879052821D1E889A04216D2FDF705F8CE
:1066A00053208DF8000045208DF801007A208DF8E8
:1066B000020070208DF803008DF80460EA891DF84F
:1066C000020088F80000501CE88180B2A04204D18A
:1066D000EE81012038700320687102B00120BDE80E
:1066E000F0812DE9F00388B003F007020027DFF8FE
:1066F0007481DDF838C0012A09D04446E489651C5C
:10670000AEB2022A0DD013F0070F2FD004E00520FF
:1067100088F80500A8F80E7008B00020BDE8F00366
:10672000704798F80520052A1BD164450ED2594DB3
:1067300000226B4615F8029003F80290521CD2B268
:10674000202AF7D31A5D0270A8F80E60B8F80E0080
:10675000604506D1A8F80E7001200870032088F863
:10676000050008B00120BDE8F0037047644538BF5C
:10677000A8F80E60B8F80E00604508BFA8F80E70C3
:10678000CAE72DE9F007DFF800C183B003F0070A7C
:10679000DCF800C00A9A0027BCF81640BCF8145078
:1067A000DFF8C080BAF1010F0ED0C4464FF00109E6
:1067B000BCF80EC0BAF1020F0CF10106B6B20DD052
:1067C00013F0070F40D004E0052088F80500A8F872
:1067D0000E7003B00020BDE8F007704798F8053050
:1067E000052B2CD194451FD2230A8DF800308DF84B
:1067F00004304FEA152A12238DF808308DF8014035
:106800008DF8054020238DF802A08DF806A08DF8A4
:1068100009308DF803508DF807508DF80A701DF877
:106820000C300370A8F80E60B8F80E00904206D144
:10683000A8F80E7081F80090032088F8050003B0D6
:106840000120BDE8F00770471348944580F8009098
:1068500038BFA8F80E60B8F80E00904208BFA8F83C
:106860000E70B6E7EC05002054B0020054D80200C8
:1068700054DC020054C8020054D0020054C002008C
:1068800054B8020054EC0200E8060020006D00201D
:1068900000750020F0370020400700202DE9F0436C
:1068A00083B0804603F007000026FF4D0A9C0F4688
:1068B000012802D0022807D002E005206871EE818D
:1068C00003B00020BDE8F083687905282DD1E88960
:1068D0004FF00109A04220D20021B220FBF7B2F90B
:1068E0008DF80000010A8DF80110010C8DF80210DE
:1068F000000E8DF803007A208DF804001F208DF81B
:10690000050004208DF807008DF80690E8891DF831
:10691000001088F80010401CE88180B2A04204D129
:10692000EE8187F800900320687103B00120BDE874
:10693000F0832DE9F84303F007020026DA4D089CA6
:106940000F468046012A02D0022A06D002E0052026
:106950006871EE810020BDE8F8836879052814D1BC
:10696000E889A04209D26846FBF783FEEA891DF850
:10697000020088F80000501CE88180B2A04204D1D7
:10698000EE8101203870032068710120BDE8F88392
:1069900010B403F00701DFF810C3012906D013F08B
:1069A000070FC24B08D0022910D00CE00020ACF831
:1069B0000E00ACF8100006E0BCF80E0019680A548E
:1069C000401CACF80E0010BC00207047BCF8101042
:1069D0001A68525C0270481CACF8100010BC012010
:1069E0007047F0B583B003F0070201270025AF4CD4
:1069F000AD4EDDF820C0012A04D0022A00F0C68086
:106A000000F09DB8FCF751FE012202A91220029568
:106A1000FBF744FB0520707121687A20087020681C
:106A20004770216821208870A14822680168897C0C
:106A3000D17000682268017C1171017E11F0040F91
:106A40000ED0C18A2268090A51712268817D917134
:106A5000818A2268090AD1712168007D08720DE0DF
:106A6000818A2268090A51712268017D9171C18A67
:106A70002268090AD1712168807D08720422694662
:106A800010460095FBF70AFB2168009848722268BF
:106A9000010A91722268010C000ED1722168042251
:106AA0000873694614200095FBF7F8FA21680098EE
:106AB00048732268010A91732268010C000ED17399
:106AC000216808740298009500283BD0042201A98F
:106AD00048200195FBF7E2FA01980422503001901A
:106AE00069461C30FBF7DAFA21680098487422687E
:106AF000010A91742268010C000ED17421680422ED
:106B00000875009501A948200195FBF7C7FA01987F
:106B100004225030019069462C30FBF7BFFA2168FF
:106B2000009848752268010A91752268010C000ED0
:106B3000D175216808762168FF204876F58103B079
:106B40000020F0BD042269465A48FBF7A7FA2168E5
:106B5000009848742268010A91742268010C000EA2
:106B6000D174216804220875694653480095FBF7E3
:106B700095FA2168009848752268010A9175226883
:106B8000010C000ED17521680876D4E77279052AC8
:106B90000ED1F289624504D223689B5C0370501CBD
:106BA000F081F089604503D1F5810F700320707189
:106BB00003B00120F0BD30B403F007043B4B3A4D65
:106BC000029A4FF0000C012C02D0022C38D034E095
:106BD000022068713948A5F80EC00168880A44424D
:106BE00011EB842418BF401C404201EB8000C01C04
:106BF00020F003003249B0F5003F014414D8CC78AE
:106C0000086864F31F602F4CA0420DD10020002AB9
:106C100013D901EB000C1C689CF804C004F800C0F8
:106C2000401C8242F5D808E00020002A05D91968E6
:106C300001F800C0401C8242F9D830BC00207047E7
:106C40006C79022C10D1EC89944204D21B681B5D34
:106C50000370601CE881E889904205D1A5F80EC058
:106C6000012008700320687130BC0120704738B5DE
:106C700003F007020D4C00250B4BDDF810C0012A74
:106C800002D0022A7ED086E0022058710E48DD81B3
:106C900000680E49884245D10D480168226811708C
:106CA00001682268090A15E0EC0500204082110005
:106CB000E80600205CC001006CC0010000FE11006D
:106CC000E8FF0F0034CD12ABEC15002054464953B9
:106CD000F8150020517001682268090C9170016854
:106CE0002268090ED17041682268117141682268DA
:106CF000090A517141682268090C91714168226842
:106D0000090ED17181682268117281682268090AAE
:106D1000517281682268090C917280682168000EA6
:106D2000C87238E00422694620200095FBF7B6F9C6
:106D3000216800980422087000982168000A4870B1
:106D400000982168000C887000982168000EC870B7
:106D500069462420FBF7A2F921680098087122688F
:106D6000010A51712268010C000E91712168042200
:106D7000C87169462820FBF791F9216800980872CC
:106D8000010A00E009E0226851722268010C000E3D
:106D900091722168C872002038BD5A79022A0FD139
:106DA000DA89624504D22468A45C0470501CD8813E
:106DB000D889604504D1DD81012008700320587115
:106DC000012038BD70B503F007020025FA4CFB4BDB
:106DD000DDF810C0012A03D0022A0DD0002070BDBA
:106DE00002205871DD8103F0D9FE002814BF8020F5
:106DF000402021680870F1E75A79022A0FD1DA8918
:106E0000624504D22468A45C0470501CD881D889DF
:106E1000604504D1DD8101200870032058710120F4
:106E200070BD70B503F007020025E34CE34BDDF8BD
:106E300010C0012A02D0022A10D00DE002205871A1
:106E4000DD810020FBF77DFF05460120FBF779FF80
:106E5000216845EA00100870002070BD5A79022AA6
:106E60000FD1DA89624504D22468A45C0470501CF6
:106E7000D881D889604504D1DD81012008700320C4
:106E80005871012070BD30B403F007020024CA4DD0
:106E9000CA4BDDF808C0012A02D0022A09D005E059
:106EA00002205871DC8129685520087030BC002010
:106EB00070475A79022A0FD1DA89624504D22D68C7
:106EC000AD5C0570501CD881D889604504D1DC8147
:106ED000012008700320587130BC012070472DE953
:106EE000F84303F007020026B34DDFF8D082089C78
:106EF0004FF00109012A02D0022A2CD028E003F029
:106F00008EFE8769022088F80500A8F80E6004222A
:106F100069460020FBF7C2F8A948009981420FD1C9
:106F2000286880F8009029680420487028688770D5
:106F30002968380AC870286846712868867107E091
:106F40000020002C04D929680E54401C8442FAD831
:106F50000020BDE8F88398F80520022A14D1B8F87B
:106F60000E20A24205D22B689B5C0370501CA8F82F
:106F70000E00B8F80E00A04206D1A8F80E6081F805
:106F80000090032088F805000120BDE8F883F8B5DB
:106F900003F00702884C0025884EDDF818C0012A4E
:106FA00002D0022A70D06CE003F039FE00282ED007
:106FB000844801682268117001682268090A5170CA
:106FC00001682268090C917001682268090ED1706D
:106FD00041682268117141682268090A517141684B
:106FE0002268090C917141682268090ED17181688B
:106FF0002268117281682268090A517281682268C8
:10700000090C917280682168000EC87236E0042273
:1070100069466D480095FBF741F821680098042205
:10702000087000982168000A487000982168000CD8
:10703000887000982168000EC87069466348FBF7A5
:107040002DF82168009808712268010A51712268A0
:10705000010C000E917121680422C87169465C48D8
:10706000FBF71CF82168009808722268010A517227
:107070002268010C9172010E2068C17202207071A9
:10708000F5810020F8BDFFE77279022A0FD1F2895D
:10709000624504D223689B5C0370501CF081F08928
:1070A000604504D1F5810120087003207071012032
:1070B000F8BD38B503F007023F4C00253F4BDDF823
:1070C00010C0012A02D0022A4FD04CE00220587191
:1070D0004048DD8101683A4A91421ED141682268E8
:1070E000117041682268090A517041680A0C2168D0
:1070F0008A7041682268090ED17081682268117116
:1071000081682268090A517181682268090C9171AD
:1071100080682168000EC87125E004226946104687
:107120000095FAF7BBFF21680098042208700098C8
:107130002168000A487000982168000C8870009847
:107140002168000EC87069460820FAF7A7FF216879
:10715000009808712268010A51712268010C000E22
:1071600091712168C871002038BD5A79022A0FD167
:10717000DA89624504D22468A45C0470501CD8816A
:10718000D889604504D1DD81012008700320587141
:10719000012038BD2DE9F04F85B0934603F007027A
:1071A000DFF81890DDF838C0012A15D013F0070F6A
:1071B00019D0022A76D070E040821100EC05002040
:1071C000544649530416002068C001006CC00100F9
:1071D00070C00100EC150020022089F80500002095
:1071E000A9F80E0059E0002440274FF001081BF0D9
:1071F000010F28D0BA46042203A95046FAF74EFFE1
:10720000042201A94820FAF749FFFB490398884264
:1072100040D101980025B5EB900F10D20AEB850004
:1072200004226946FAF73AFF0098032D044408BF88
:1072300006466D1C0198B5EB900FEFD304B93446A8
:10724000B8F1000F26D01BF0020F1DD00020042241
:1072500002A9FBF771FAE949029888421AD1002580
:10726000B5EB970F0DD2A80004226946FBF764FA2C
:107270000098062D044408BF06466D1CB5EB970F19
:10728000F1D3002C08BF3446B8F1000F18BFC9F87D
:107290002C4002D10020C9F82C0005B00020BDE828
:1072A000F08FFFE799F80520022A1AD1B9F80E20CD
:1072B00062450AD2C2F10303D9F82C40DB0024FA5C
:1072C00003F30370501CA9F80E00B9F80E006045D6
:1072D00007D10020A9F80E0001200870032089F8CA
:1072E000050005B00120BDE8F08F10B503F00700E0
:1072F000012804D1002211461C2001F070FE00205C
:1073000010BD70B5044603F00700BD4D0E460128C0
:1073100004BF0020E88119D013F0070F02D0022823
:1073200016D013E0E889B74B03283CBF19680A540C
:10733000401C80B2E881032808D1186890F9022027
:1073400090F9011090F90000FCF7E7FE002070BDF5
:10735000FCF72CFE0246E88930B101280AD0022849
:107360000ED0032812D018E014211046FCF727FE97
:10737000207012E015211046FCF721FE20700CE071
:1073800016211046FCF71BFE207006E01721104660
:10739000FCF715FE207001203070E889401CE88160
:1073A000012070BD13F0070F04D003F00702022A7A
:1073B00005D002E092490020C88100207047924A1F
:1073C0001268027001200870704730B403F00703A0
:1073D0000024DFF82CC2029A012B02D0022B0BD022
:1073E00007E005208CF80500ACF80E4020208CF852
:1073F000060030BC002070479CF80530052B14D1E6
:10740000BCF80E30934205D29CF806500570581C0B
:10741000ACF80E00BCF80E00904206D1ACF80E405D
:107420000120087003208CF8050030BC0120704753
:107430002DE9F04383B003F00705724E704FDDF87D
:1074400028C04FF00008012D0AD013F0070F3B466B
:10745000DB8903F10104A4B211D0022D22D01DE07A
:1074600001A9684601F08CFF052078713168019808
:107470000870316800984870A7F80E800EE06345E8
:1074800002D23068C254FC81F889604506D1A7F861
:107490000E8030680178407801F069FF03B0002069
:1074A000BDE8F0837A79052A0ED1634503D23268AC
:1074B000D25C0270FC81F889604505D1A7F80E8086
:1074C000012008700320787103B00120BDE8F0832B
:1074D00070B503F007000024494D4A4EDDF810C096
:1074E000012803D013F0070F06D043E0EC81306889
:1074F0000470306844703DE0E889604503D2336829
:107500001A54401CE88180B2604533D13FA001226B
:107510000068EC810A703168C2B20978914229D1C1
:107520003168C0F307204978814223D11C2600240A
:107530004FF4801505EB0430FAF72EFF022808BF40
:1075400070BD601CC4B2B442F4D3032600244FF4CF
:107550008E1505EB0430FAF71FFF022808BF70BD37
:10756000601CC4B2B442F4D32948FAF715FF0228CC
:1075700008BF70BD002070BD10B503F007000128E2
:1075800008BF02F0CFF9002010BD70B503F007046A
:107590001B4D012C09D013F0070F2B46D3F82CC03C
:1075A000DB8908D0022C17D014E00020E88104F019
:1075B000BAFDE8620EE0002B04BF1002E86206D0BC
:1075C000012B04D14CEA0200E86204F0A5FDE88931
:1075D000401CE881002070BD002B04BF4FEA1C2135
:1075E000017005D0012B03D180F800C00120087084
:1075F000581CE881012070BD5446435354464953FA
:10760000EC050020408211007005002055AC000000
:1076100000FE110070B5064603F00700FB4C0D4656
:10762000012808BF00200DD013F0070F02D0022858
:107630000BD008E0E089002804BF104606F07DFF6B
:10764000E089401CE081002070BD06F073FF3070BF
:107650000120287070BD70B503F0070CEB4D0E468D
:107660000446BCF1010F06D013F0070F07D0BCF1A0
:10767000020F17D014E00020E881288210E0E8898A
:10768000002804BF1002E86207D0012805D1E86A8B
:107690001043E86280B2FDF73CFCE889401CE881B9
:1076A000002070BD288A02280CD2FEF740FC2A8AEE
:1076B000002A04BF000A207004D0012A02D12070E1
:1076C00001203070288A401C2882012070BD10B52E
:1076D00013F0070F04D003F00702022A08D005E0D8
:1076E000002A14BF0120002006F013F8002010BD6E
:1076F000C74A92F85420D20802700120087010BDC9
:107700000020704770B503F007020026C14CBF4D42
:10771000DDF810C0012A02D0022A15D012E005F0CF
:1077200026F921680870FDF78FF82168487003F08A
:10773000F5F821688870FDF78AF82168C87005207F
:107740006871EE81002070BD6A79052A0FD1EA893F
:10775000624504D223689B5C0370501CE881E88971
:10776000604504D1EE81012008700320687101207A
:1077700070BD70B5064603F007000D4602281CBF19
:10778000002070BD01F045FC002814BF0124002436
:1077900001F042FC002814BF022200222243327072
:1077A0000120287070BD30B403F00703994A00240B
:1077B000964DDDF808C0012B02D0022B4AD046E0DE
:1077C00095490868954B98422FD14868B0F5887F55
:1077D0002BD8C868FF282EBFFF20C868C0B2136826
:1077E00018700869FF283ABF0869C0B2FF20136803
:1077F00058704869FF283ABF4869C0B2FF20136833
:10780000987088681368000AD870886913681871BE
:1078100088691368000A58718869030C10688371BD
:1078200088691168000EC87110E010680470106853
:107830004470106884701168FF20C8701168087166
:1078400011684871116888711168C871EC8130BC89
:1078500000207047EB89634504D21268D25C027045
:10786000581CE881E889604502D1EC81012008704C
:1078700030BC012070472DE9F04103F007010025DD
:10788000624C0646012904BFE561E58101D0022969
:1078900002D00020BDE8F081207F5E4F00F007019C
:1078A000E1812078084304D1386802F0B9F801205A
:1078B0002070E189052928BF25703868405C307048
:1078C000E069401CE0610120BDE8F08170B503F083
:1078D000070200254F4B4D4CDDF810C0012A02D0A5
:1078E000022A08D005E0186802F09AF805206071B5
:1078F000E581002070BD6279052A0FD1E2896245D9
:1079000004D21B689B5C0370501CE081E0896045D9
:1079100004D1E5810120087003206071012070BD51
:1079200070B503F007020025384C012A02D0022A64
:1079300011D00EE0052060710021E581084601F0BC
:107940001FFD4FF6FF7101EA4000608201F024FD47
:10795000A061002070BD6279052A16D1E289B4F8D1
:1079600012C0624507D212F0010F1CBFA379037049
:107970000DD0501CE081E089604506D1E5810120F1
:1079800008700320607101F015FD012070BDA6692B
:1079900022F00103F35A1E0A0670A371E9E77FB5CE
:1079A0001C460E46054613F0070F08D103F0F6F803
:1079B00028B1012202A91D2001F011FB03E004F00F
:1079C0000700022802D004B0002070BD01F0B1FD14
:1079D00028700120307004B070BD2DE9F04103F033
:1079E00007020027094E88460546012A02D0022ACE
:1079F00016D007E005207071F7810A20708201F02F
:107A0000CBFCB0610020BDE8F0810000EC05002057
:107A1000F40F0020408211001016002054435246FB
:107A20007079052818D1F289708A824208D212F042
:107A3000010F1CBFB079287010D0F089401CF08174
:107A4000F089718A884207D1F781012088F8000007
:107A50000320707101F0AEFC0120D4E7002401F096
:107A600068FD012804D1F089B16920F001000C5AA9
:107A7000200A2870B471E0E77FB50D46044613F084
:107A8000070F04D003F00700022808D004E0012209
:107A900002A90A2001F0A3FA04B0002070BD04F08E
:107AA00066FF20700120287004B070BDF8B503F0A7
:107AB00007020025FF4C0E460746012A02D0022A83
:107AC0000ED00BE00520607103F075FA20630028EA
:107AD0001ABF44F26440A082A582E5810020F8BD6F
:107AE0006079052822D1E289A08A6946824214D2AF
:107AF00012F0030F08D10422206BFAF7CFFA009896
:107B0000E062206B001D206394F82C003870E06A5E
:107B1000000AE062E089401CE081E089A18A884295
:107B200004D1E58101203070032060710120F8BD8F
:107B300010B513F0070F04D003F00702022A0DD08E
:107B40000AE0012A05D0002A04BF0120FBF7CFF884
:107B500002E00120FBF7C0F8002010BDD64A1268F1
:107B6000126802F0020202700120087010BD70B5A8
:107B70000D46044613F0070F04D003F00700022857
:107B800008D005E0002A14BF0120002001F0BCFE4F
:107B9000002070BD01F0BFFE002814BF01220022AA
:107BA00022700120287070BD70B503F00700C14D30
:107BB0001446012808BF002016D013F0070F14D177
:107BC000E889002808BFAA710CD001280AD1A87939
:107BD000FBF7BFF8A8792040FBF77EF8A879A0430F
:107BE000FBF785F8E889401CE881002070BD2DE98D
:107BF000F00103F00704AF4E059F012C04BF0020E5
:107C0000F08135D013F0070FAA4BAC4DDB8903F19F
:107C1000010C1FFA8CFC02D0022C2DD028E0A849C0
:107C20000868C254781E834220D10868007830B1B9
:107C300001280AD002280ED0032812D016E00868C6
:107C40002968407881F8800110E008682968407848
:107C500081F881010AE008682968407881F882018A
:107C600004E008682968407881F88301A6F80EC00E
:107C7000BDE8F00100207047904A126813B1012B53
:107C80000AD014E092F8801101F00F0392F88111EC
:107C900063F31F1101700AE092F8823192F8832198
:107CA00003F00F0363F31F12027001200870A6F89F
:107CB0000EC0BDE8F0010120704710B4DFF804C227
:107CC00013F0070F04D003F00702022A18D014E0C3
:107CD000012A01D04AB110E0DCF80000806ADCF82B
:107CE000001020F00300886207E0DCF80000806AE2
:107CF000DCF8001040F00300886210BC00207047E0
:107D0000DCF80020926A02700120087010BC7047F5
:107D100070B503F007000025664C0E46012806D01A
:107D200013F0070F04BF6079022805D019E0022084
:107D30006071E581E56214E0E089A18A884207D29A
:107D4000614811460068FBF742FCE089401CE08175
:107D5000A18A80B2884204D1E581012030700320DD
:107D60006071002070BD2DE9F04103F0070200258D
:107D7000504C0E460746012A02D0022A06D002E0E5
:107D800002206071E5810020BDE8F0816079022861
:107D900014D1E189A08A814207D24B480068FBF7E1
:107DA00044FC3870E089401CE081E089A18A884267
:107DB00004D1E58101203070032060710120BDE80D
:107DC000F08110B503F007023A4C012A02D0022AD2
:107DD00027D024E003F0F2F80023002804BF236337
:107DE000A3821BD000F1540121634168B1F5887F63
:107DF00090F820100CD390F8212001EB020C01FB2D
:107E000002C190F8222090F823001044084404E0B6
:107E100090F822000A1801FB0020A082E3810020D4
:107E200010BDE289A38A9A4207D2D4F830C01CF868
:107E300002C080F800C0501CE081E089984204BF75
:107E400001200870012010BD10B513F0070F04D0F9
:107E500003F00702022A05D002E0104601F0B7FA4B
:107E6000002010BD194A127802700120087010BD60
:107E70001FB513F0070F04D1012202A9092001F058
:107E8000AEF804B0002010BD70B503F0070009493A
:107E9000012804BF0020C88130D013F0070F2DD176
:107EA000C889074C03283CBF23681A54401C80B281
:107EB000C8810DE0EC05002008821100E8060020D2
:107EC00040821100108211002C8211003106002026
:107ED000032813D1F9F796F82068B0F8010045BAE5
:107EE000F8F7AEFE040018BFF9F7C8F929460020DC
:107EF000F8F7FDFD002C18BFF9F7C2F9002070BD9E
:107F000070B503F00700F949012804BF0020C881BB
:107F100024D013F0070F21D1C889F54D02283CBFAA
:107F20002B681A54401C80B2C881022816D1F9F778
:107F300069F8F8F785FE040018BFF9F79FF928687B
:107F4000007818B128684078F8F7D5FD286840789F
:107F5000F8F7D1FD002C18BFF9F792F9002070BD99
:107F600013F0070F04BFE148C270002070477FB5CF
:107F70000D46044613F0070F04D003F00700022853
:107F800008D004E0012202A90E2001F028F804B074
:107F9000002070BD04F0B2FC002814BF01220022B2
:107FA00022700120287004B070BD7FB50D460446D4
:107FB00013F0070F04D003F00700022808D004E0F4
:107FC000012202A90F2001F00AF804B0002070BDC0
:107FD00004F085FC20700120287004B070BD10B53D
:107FE00003F00700DFF804C30299012804BF002052
:107FF000ACF80E001AD013F0070F17D1BCF80E0022
:10800000BB4B03283CBF1C682254401C80B2ACF818
:108010000E0088420AD118681968B0F80100097882
:1080200040BA00B2002908BFFCF770FF002010BD65
:1080300010B503F00700DFF8B4C20299012804BFAD
:108040000020ACF80E0017D013F0070F14D1BCF8C5
:108050000E00A74B03283CBF1C682254401C80B272
:10806000ACF80E00884207D11868B0F8010041BA98
:1080700018680078F9F780FC002010BD70B503F097
:1080800007029A4CDDF810C0012A02D0022A07D05C
:1080900004E00020E081FBF7EDF8E062002070BD15
:1080A000E289624506D2C2F10303E56ADB0025FAE4
:1080B00003F30370501C80B2E081604504BF0120CF
:1080C0000870012070BD70B5044603F0070C002055
:1080D000864DBCF1010F06D013F0070F07D0BCF19D
:1080E000020F13D010E0E8812882A8710CE0E88923
:1080F000002808BFAA7104D001227E49102000F098
:108100006EFFE889401CE881002070BD2A8A3AB1E0
:10811000207001200870288A401C2882012070BD30
:1081200004F071FC2070F6E770B50D46044613F0BC
:10813000070F04D003F00700022805D002E0104624
:1081400005F07CFF002070BD05F07BFF2070012052
:10815000287070BD10B513F0070F1FD1500048F6FE
:10816000B801B1FBF0F4644903200968C86101213A
:108170007F20F8F769F9E1B24FF48470F8F764F9F9
:1081800020460FF0F4F95D4A5D4B0FF057FA0FF0FF
:10819000C1F9C1B24FF48570F8F756F9002010BD4F
:1081A00010B513F0070F4ED1122A4CD2DFE802F0BF
:1081B000090E132B2B2B2B303336393C4B4B4B3FBB
:1081C000424750490020096808773CE04D490120AA
:1081D0000968087737E0484903200968C861012128
:1081E0007F20F8F731F915214FF48770F8F72CF953
:1081F00075214FF48470F8F727F94D214FF48570FD
:10820000F8F722F91FE00021D01E04F046FC1AE026
:10821000F9F783FE17E0F8F7E6FF14E0F8F7E0FE61
:1082200011E004F0F0FA0EE004F000FB0BE0FDF7C3
:108230001BFE08E0334902200968088603E0314943
:10824000002009680886002010BD10B5144613F000
:10825000070F16D1072C14D8274903200968C861D5
:1082600002217F20F8F7F0F8052040EA041140F2DF
:108270000220F8F7E9F804F188014FF40170F8F7EB
:10828000E3F8002010BD7FB50C46054613F0070F3C
:1082900004D003F00700022808D004E0012202A95C
:1082A000062000F09CFE04B0002070BDFCF7CCFA64
:1082B000022808BF00200BD0032808BF022007D0E7
:1082C000042808BF032003D0052814BFFF20012085
:1082D00028700120207004B070BD10B5104613F056
:1082E000070F08BF04F025FB002010BDEC0500209F
:1082F00040821100F2050020148211001F85EB510D
:10830000B81EE53FE806002010B5104613F0070F31
:1083100008BF04F01AFB002010BD70B5044603F03E
:1083200007000D4602281CBF002070BD04F01AFB98
:1083300020700120287070BD70B403F00702002483
:10834000FE4BDDF80CC0012A05D0022A04BF5A7981
:10835000022A0AD01BE002205871F948DC816FF034
:108360007F410068081AD86211E0DA89624506D2B6
:10837000DE6AD50026FA05F50570501CD881D8892B
:10838000604504D1DC81012008700320587170BC65
:108390000120704713F0070F04BFEA480270002065
:1083A000704710B5944603F00700E449029A01288B
:1083B00004BF0020C88112D013F0070F0FD1C88965
:1083C000E14B90423CBF1C6804F800C0401C80B2E6
:1083D000C881904203D10D20196800F000FE0020F2
:1083E00010BD70B503F00704D44D012C0AD0AC4683
:1083F00013F0070FBCF81230DCF830C006D0022CA6
:1084000021D01EE00020E88128821AE0E8890028B7
:1084100008BF2A6312D0012804BF501C68820DD007
:10842000022816BFC11EAA82994207D2297D08449C
:10843000C01EC1B20CF0FF00F9F751FCE889401CE6
:10844000E881002070BDFF22027093B12A8A944413
:10845000521CBCF5807F0BD20CF5801C0CF5F83C4F
:108460009CF800C080F800C09A4204BF0120087048
:108470002A82012070BD2DE9F04103F00705002696
:10848000AE4C9446012D04BFE681268224D013F021
:10849000070FAA4B5A8A1B6B02D0022D28D01BE073
:1084A000E089002808BFC4F830C012D0012816D0D7
:1084B000A549801E90423CBF0D6805F800C0401CD5
:1084C000904206D103F58010096800F5F830FAF7FC
:1084D000E1F9E089401CE0810020BDE8F0810CF169
:1084E000010060821844B0F5807F88BF6682F0E7A3
:1084F0004FF0FF0C80F800C09AB1258A03EB050C01
:108500006B1CBCF5807F0BD20CF5801C0CF5F83C85
:108510009CF800C080F800C0934204BF012008709E
:1085200023820120BDE8F08110B5944603F00700D6
:108530008249029A012804BF0020C88112D013F09A
:10854000070F0FD1C889804B90423CBF1C6804F8CC
:1085500000C0401C80B2C881904203D1022019683B
:1085600000F03DFD002010BD10B5944603F007005B
:108570007249029A012804BF0020C88112D013F06A
:10858000070F0FD1C889704B90423CBF1C6804F89C
:1085900000C0401C80B2C881904203D103201968FA
:1085A00000F01DFD002010BD13F0070F05D003F0F3
:1085B0000700022804BF01207047002070471FB544
:1085C00013F0070F04D1012202A9112000F007FDCA
:1085D00004B0002010BD03F00701DFF860C100986F
:1085E000012907D013F0070F04BF9CF805100129DB
:1085F00009D01FE001208CF805000020ACF80E0027
:10860000CCF8280014E0BCF80E10814208D2DCF847
:108610002830491C42EA0322CCF82820ACF80E107E
:1086200089B2814206D103208CF80500DCF82800CD
:10863000CCF830000020704703F007003F494FF0AE
:10864000010C012806D013F0070F04BF4879012858
:1086500007D014E081F805C00020C8810871486285
:108660000DE0C889002804BF0A71A1F80EC006D029
:10867000012806D00323022818BF4B7106D0002022
:108680007047100248620220C881F8E7486A104328
:1086900048624B71F3E770B5154613F0070F0FD121
:1086A0002A49264C09682079C861A08CC0F30721AB
:1086B0007F20F7F7C9FE94F824002946F7F7C4FE97
:1086C000002070BD70B5044603F007000D46022877
:1086D0001CBF002070BD1948818C007989B2F7F762
:1086E00067FE20700120287070BD03F00701134859
:1086F000012904BF0021C18103D013F0070F08BF77
:10870000827200207047F8B503F0070200230E4E76
:108710000A4F012A02D0022A2FD02CE00024022086
:1087200000937871FB81B87A4FF44835834222DA9E
:10873000042269462846F9F7B1FC09E0EC0500205F
:10874000A005002032050020408211001482110093
:10875000316800980855316800982144000A487033
:108760000098000C88700098000EC870B87A241D1C
:108770002D1D8442DCDB0020F8BD7A79022A15D158
:10878000FA8997F80AC0624507D2D6F800C01CF8EB
:1087900002C080F800C0501CF881F889BA7A904273
:1087A00004D1FB8101200870032078710120F8BDFD
:1087B00010B503F00700FC49012804BF0020C88160
:1087C00018D013F0070F15D1C88991F80AC0F74BDC
:1087D000604505D2D3F800C00CF80020401CC881C9
:1087E0008A7A80B2904205D18A7A4FF4483019686B
:1087F000FAF750F8002010BD70B54FF444324FF432
:10880000407101FB00240120F8F72DFAFDF72CFB45
:10881000FCF778F90546F8F7E6FCE34B4FF41072E5
:1088200020461C639A822946BDE87040FAF732B8A8
:1088300070B513F0070F18D14FF444314FF4407066
:1088400000FB02140120F8F70EFAFDF70DFBFCF710
:1088500059F90546F8F7C7FCD34B4FF41072204680
:108860001C639A822946FAF715F8002070BD13F0B0
:10887000070F04BFCC48427200207047F8B503F0E0
:1088800007020027C94EDFF820C3012A02D0022ABE
:108890002DD02AE09CF80900002400EB40004FF4A2
:1088A000443101EB0025022000978CF80500ACF85C
:1088B0000E704FF41070ACF814000422694628467C
:1088C000F9F7ECFB316800982D1D085531680098C8
:1088D0002144000A48700098241D000C88700098FC
:1088E000000EC870B4F5107FE7DB0020F8BD9CF8DF
:1088F0000520022A16D1BCF80E20BCF814309A428A
:1089000005D23468A45C0470501CACF80E00BCF8AE
:108910000E00984206D1ACF80E70012008700320BA
:108920008CF805000120F8BD03F00701DFF878C2DC
:108930000098012907D013F0070F04BF9CF8051019
:10894000022909D01FE002208CF805000020ACF8B5
:108950000E00CCF82C0016E0BCF80E10814208D2B4
:10896000DCF82C30491C42EA0322CCF82C20ACF86D
:108970000E1089B2814206D1BCF82C00ACF814006C
:1089800003208CF805000020704770B503F0070045
:108990000025854C0E46012806D013F0070F04BFB2
:1089A0006079022805D023E002206071E581E5624C
:1089B0001EE0E089A18A884211D2E16A090A41EAEF
:1089C0000261401CE162E08110F0030F07D1042234
:1089D0007749206BF9F75EFF206B001D2063E0896B
:1089E000A18A884204D1E5810120307003206071A2
:1089F000002070BDF8B503F0070200256A4C0E4652
:108A00000746012A02D0022A05D002E00220607146
:108A1000E5810020F8BD6079022822D1E289A08A90
:108A2000824215D212F0030F09D104226946206B4D
:108A3000F9F734FB0098E062206B001D206394F886
:108A40002C003870E06A000AE062E089401CE08196
:108A5000E089A18A884204D1E58101203070032099
:108A600060710120F8BD70B403F0070200254E4C80
:108A7000012A02D0022A06D002E002206071E581BC
:108A800070BC002070476279022A1CD1E289B4F8D8
:108A900014C062450FD212F0030F04D1236B53F8B8
:108AA000046BC4E90B6394F82C300370E06A000A8D
:108AB000E062501CE081E089604504D1E58101203D
:108AC00008700320607170BC0120704730B403F05F
:108AD00007000024DFF8D0C0012807D013F0070FEB
:108AE00004BF9CF80500022808D025E002208CF87D
:108AF0000500ACF80E40CCF82C401DE0BCF80E0090
:108B0000BCF8143098420CD2DCF82C502D0A45EAFF
:108B10000262401CCCF82C20ACF80E0010F0030FC1
:108B20000DD0BCF80E00984206D1ACF80E400120E2
:108B3000087003208CF8050030BC00207047DCF87A
:108B40003000B0F5002F28BF0260001DCCF83000C7
:108B5000E7E730B403F007040025DFF84CC0012C30
:108B600008BFACF80E503ED013F0070F02D0022C15
:108B70003CD038E0042A08BF4FF42C3031D01DDC43
:108B8000002A08BF4FF480102BD0012A08BF0948E3
:108B900027D0022A08BF4FF48E1022D0032A08BF24
:108BA00005481ED01AE00000EC05002040821100AC
:108BB0001806002000FE110000F81100052A08BF69
:108BC000F8480ED0F848102A00680AD0112A08BFC9
:108BD000F64806D0202A08BFB43002D0CCF828507E
:108BE00001E0CCF8280030BC00207047BCF80E2013
:108BF000042A07D2C2F10303DCF82840DB0024FA80
:108C000003F30370501C80B2ACF80E00042824BF9C
:108C100001200870012030BC704710B503F0070038
:108C2000012804D1002211460C2000F0D8F90020C0
:108C300010BD2DE9F04103F0070CDD4E069D0F46F7
:108C40000446BCF1010F04BF0020F08117D0D849C1
:108C500013F0070FCB8903D0BCF1020F12D00EE046
:108C6000D449022B3CBF0868C254581C80B2F08122
:108C7000A84204D102220968052000F0B0F90020C2
:108C8000BDE8F08113B1012B04D008E0FBF7DCFD57
:108C9000207004E0FBF7DBFD207001203870F089C4
:108CA000401CF0810120BDE8F08170B503F00700A1
:108CB000BF4D012803D013F0070F05D024E000209A
:108CC000A862E862A8711EE0B949EC8991F806C073
:108CD000886A0CEB0201CBB2022C03D242EA0020DC
:108CE000A86206E0B249042CC96A04D242EA012013
:108CF000E862AB7105E0052C03D2624508BF00F0C5
:108D000055FFE889401CE881002070BD10B503F0D4
:108D100007011046012905D013F0070F08BF00F026
:108D20001BF904E0A249002088628871C8810020F4
:108D300010BD10B5104613F0070F08BF00F00CF976
:108D4000002010BD70B5032600244FF48E1505EBEE
:108D50000430F9F721FB022808BF70BD601CC4B2C3
:108D6000B442F4D3012070BD30B403F007030024F3
:108D7000DFF83CC2029A012B02D0022B0CD008E093
:108D800005208CF80500ACF80E409CF808008CF823
:108D9000060030BC002070479CF80530052B14D12C
:108DA000BCF80E30934205D29CF806500570581C52
:108DB000ACF80E00BCF80E00904206D1ACF80E40A4
:108DC0000120087003208CF8050030BC012070479A
:108DD0002DE9F04778A0DDF820C0006803F0070512
:108DE0000027734E734C012D03D013F0070F06D0EC
:108DF00034E0F78120680770206847702EE0F3891F
:108E0000634503D22568EA545A1CF281F28962450F
:108E100024D1F7814FF0010881F800802168C2B2A7
:108E2000097891421AD12168C0F30720497881421C
:108E300014D1032500244FF48E1909EB0430F9F7FF
:108E4000ABFA022804D0601CC4B2AC42F5D3404651
:108E5000012806BF86F80880F77137720020BDE848
:108E6000F0872DE9F0414FF0000C03F00700534E5E
:108E70004F4C6546012803D013F0070F0CD068E073
:108E80006570A5812562A570002046F82050401C21
:108E9000C0B24028F9D35CE0607805283CBF401C94
:108EA0006070C0B2012808BF100222D040490228D9
:108EB000CB8A08BF98181CD024BFA1898B4248D9FF
:108EC0003F4F01F0030001F101083A54A7F13400CB
:108ED0004FF48E12006A984502EB002008BF002173
:108EE00009D1491CC9B20429FBD33449F9F7F5FA71
:108EF00026E0E0822DE0032232EA010120D17A5CF3
:108F0000CB009A40491CC9B242EA0C0C0429F6D3A2
:108F1000A17801F03F02491CC9B246F822C0A170F5
:108F200040290DD12549F9F7D8FAA570206A401CCF
:108F30002062002046F82050401CC0B24028F9D3DF
:108F4000A089401C80B2A081E18A884204BF012030
:108F5000E0710020BDE8F08110B5154C2146E28992
:108F60008B6A8979022A05D240EA03220844A26268
:108F7000A07112E0B2F5817F08D20E490968114450
:108F800001F8020CA1790844A07106E008BF8842EC
:108F900003D10A49184600F023FEE089401CE08115
:108FA00010BD000000F01100E8060020F40F0020C2
:108FB000EC0500204082110055AC00001038002064
:108FC00020060020D948002101704170C170017154
:108FD000D74A08461154401C0428FBD3704710B4EC
:108FE000D24C6378002B1EBF002010BC7047E0708D
:108FF00022710020002A88BFCD4B06D911F800C08D
:1090000003F800C0401C8242F8D80120607010BCF8
:109010007047C64840787047C44880787047C34955
:1090200000208870704770B50024FAF7E0FBBF4D50
:109030006878012806D100F012F804461E20E87076
:1090400000206870FBF700FC022802D101F062FDED
:1090500018B9002C04BF002070BD012070BD2DE99F
:10906000F05FB2480024C0781E2880F05B81DFE802
:1090700000F0121E2C350F41FD4597A0A6ABE4FC75
:10908000B9C7CCD197979797979797979797FBFAE8
:10909000FBF739FC16E0FBF7D7FBA44C6071A01D71
:1090A00001780120FBF7E2FB0120A0700AE0A04854
:1090B000007801F07DFF01210320FBF7D7FB9B49DE
:1090C00001208870012400F02DB99948417800787A
:1090D00041EA002003F0C6FA00F024B99448007871
:1090E00003F0C5FA04210320FBF7C0FB8F490120E0
:1090F0008870E7E78E48417800789BE0DFF82C82A3
:1091000000264FF0010A08F1060BB146012788F846
:1091100002A088F8019098F80000D0BB9BF800509E
:1091200088F800A015F0100F11D00120F7F79BFD73
:10913000FBF78DFBA8B3F8F71BFAFF210F20FBF715
:109140000CFF074645F001050020F7F7E6FD15F096
:10915000010F1CD0FAF786FC0020FAF70BFF012064
:10916000F7F781FDFAF7D8FD01460220FBF776FDFF
:109170000220FBF751FDF8F736F8FAF7CDFDFAF7C4
:10918000DCFEFAF7C9FD4FF490610DF01CFD88F884
:10919000009088F80290002F1CBF761C032EB5DBD0
:1091A000C0E0FFE7F8F7E4F9FF210F20FBF771FFBC
:1091B000C7E75F480078401E01F012FC82E75C4878
:1091C000007803F0D9FB7DE759480078002804BFF8
:1091D0000021032003D003F0A6FB01460220FBF789
:1091E00045FB9FE0524D2878002818BF012003F06E
:1091F0007BFB2878002818BF012000F00FFD91E0CC
:109200004B48007803F061FB5CE74948007803F0C5
:10921000C6FB87E04648007820B1012856D00228D6
:1092200004D07FE04348F9F73FF87BE001F0F3FC1E
:1092300000210420FBF71AFB44E73C484FF00008EC
:1092400080F801804646454672B6FAF7CFF848B135
:10925000FAF78AF90646FAF767F9FAF78BF905463D
:10926000FAF772F903E059E055E043E02FE0F7F731
:10927000C9FEF7F7E5FC8146F8F783F8F9F7ECFF4C
:10928000070018BFF9F7E7FF4FF41870F9F7BFFFB1
:1092900062B62948C0F80080F8F7C4FC72B6B9F18C
:1092A000000F03D0F7F7AEFEF7F79DFFFAF79EF831
:1092B00038B1002E18BFFAF79BF8002D18BFFAF747
:1092C000D6F8002F18BFF9F7C4FF62B62AE0184895
:1092D0000078012804BF02210520ABD0022804BF7A
:1092E00000210320A6D0032819BF0221084600212F
:1092F00004209FE70E480178427841EA02218278F3
:10930000C078120442EA006041EA000262210720AC
:1093100002F00FFF06E0FAF73BFFD3E604480078BF
:1093200000F0F3F82046BDE8F09F0000240600207E
:109330002A06002000FE11006405002002460020DD
:10934000022928BF704752B1012A18BF704701EBAC
:10935000810000EBC100FE4901EB0010704701EBFA
:10936000410000EBC100FB4901EBC010704700FB5E
:1093700001F2B2F5307F9CBFF74AC2E902017047A3
:109380000028F54A926818BF0260F3480029C068B7
:1093900018BF086050437047EF4801210171007801
:1093A00080F0010000EB400101EBC000E94901EB56
:1093B000C0107047E8488278002132B1C27822B9E3
:1093C000027882F001020270817001717047E249F7
:1093D00010B54C7848701E2808BF002008D01F2800
:1093E00008BF012004D00E2808BF812002D000E071
:1093F0000870012003F0D3FA204610BDF0B4D64E19
:1094000096F800C0B5680CEB4C0404EBCC0CD14CC6
:109410008D4204EBCC1C03FB05F40CEB440C34BF75
:109420002C460C46F768FE1A964228BF16461A4488
:10943000974224BF0023002E9CBFF0BC704700223F
:10944000002C06D930F812702CF81270521C94427D
:10945000F8D85B1C0CEB450C00EB4100B342EED39B
:10946000F0BC70472DE9F041BB4F14468C460146D5
:109470007A7806981D468A4218BFBDE8F08101211E
:10948000F970012802D0022825D02AE03878BE6879
:1094900000EB400101EBC000AE49A64201EBC01158
:1094A00034BF32462246F868A84238BF054600233A
:1094B000002D16D90020002A06D91CF8007021F8CA
:1094C0001070401C8242F8D85B1C01EB4601A4449A
:1094D000AB42EFD305E000232A4621466046FFF762
:1094E0008DFFBDE8F04100F0EBB910B5002808BFD2
:1094F00010BD01229849CA70497800230821FFF75E
:109500007DFFBDE8104000F0DBB9934A0128114609
:10951000D071497808D000280CBF2429704730202A
:109520005070012003F03BBA24205070012003F05A
:1095300036BA8948C079704770B4DFF820C2DCF8C9
:1095400000C0DCF818C01CF0040F1ABF012424EA84
:109550000C060CF0010605680C68002E1CBF1B1BD6
:109560005C1E1CF0020F1CBF521B551E1CF0040F8A
:1095700019BF04600D6005600C6070BC704710B5C9
:10958000002808BF10BD01227349CA704A78744987
:10959000DFF8D0C102220B789CF80010FFF72EFFF5
:1095A000BDE8104000F08CB92DE9F0436A498BB05A
:1095B0000122CA706C4A49781578694A25291478BD
:1095C00024BF0BB0BDE8F083DFE801F0134D4D4D33
:1095D000134D4D4D4D4D4D4D4D4D4DFD4D5555552D
:1095E000FDFDFDFDFDFDFDFDFD4DFDFDFD7D7DFD5B
:1095F0008500002800F0028106460027F7F7D0FE1C
:109600005FEA000C16D0544908788F6800EB4002DE
:1096100002EBC0004F4ABD4202EBC01094BF2B4684
:109620003B46C968A14238BF0C460021002C06D831
:1096300000F0E4B83B4622462946304648E0002286
:10964000002B08D91CF9028036F8188020F8128007
:10965000521C9342F6D8491C00EB470006EB450626
:10966000A142ECD3CAE0002870D00023224629464C
:10967000FFF7C4FEC2E03D480078012884BF3C48A3
:109680000478F7F73FFD10F0020F18BF641CFBF7DA
:1096900039FA002205FB04F3002BC4BFDFF8B8C081
:1096A0002C4C53DD10F8015B9CF8001001EB4106D7
:1096B00006EBC10104EBC11121F81250511C8AB212
:1096C0009342EFDC9AE0002840D00023A21C2946F8
:1096D000FFF794FE92E0002838D006461F48006845
:1096E000007E10F0040F0EBFA946A1462C464FEA9B
:1096F0009902A1080591A9EB9900069100924FEA01
:109700005901401ECDE9010161080791A4EB9401C4
:10971000491E08910991CDE9032023464A4605A92F
:109720006846FFF709FF23464A4605AF06A9E84603
:1097300001A8FFF701FF23464A4607F1080108F197
:109740000800FFF7F9FE23464A4613E056E0000002
:1097500010470020103C002030060020E8060020C2
:10976000BF050020C5050020BE050020C005002063
:10977000C205002007F10C0108F10C00FFF7DCFE28
:1097800023464A4607F1100108F11000FFF7D4FE06
:1097900058480078002200EB400101EBC000564918
:1097A000914601EBC01020F8129058F82210A1F158
:1097B000010C491C61451ED357F822104B1E491C51
:1097C000994211D300E01EE003FB05C136F91140B8
:1097D00030F912108C42C8BF20F8124057F82210FE
:1097E0005B1C491C9942EDD258F822100CF1010C77
:1097F000491C6145E0D2521C052AD4D30BB0BDE808
:10980000F04300F05DB80BB0BDE8F08339491E2885
:109810008A79887108BF002003D01F2808BF012063
:1098200000D148711046704770B50D46314901228C
:10983000CA70324A49781678314A212914781EBFF5
:109840002229232970BD002818BF002D11D0002324
:1098500022463146FFF7D2FD631C012221462846ED
:10986000FFF7CCFD05EB4400A31C01223146FFF7B6
:10987000C5FDBDE8704000F023B810B51D4C6178FF
:10988000002904BF4068FFF78FFE6078112804BFED
:109890000020FFF789FE6078122804BF0020FFF740
:1098A00083FE6078132803D1FCF79EFBFFF77CFE54
:1098B00060781D2818BF10BD1248BDE8104073E63F
:1098C00070B5F9F7A0FC00F008060820F9F796FC3F
:1098D000084C20790025002801BF207880F0010085
:1098E0002070A5701CBF0120A0703046F9F782FCE3
:1098F000E57070BD30060020103C0020BE05002041
:10990000BF05002080680020A549002814BF002062
:10991000012008707047A248007800280CBF012081
:109920000020704710B59E4C207800281CBF0120F5
:10993000F9F7D2F900206060A060E060206160610A
:1099400010BD10B5964C207800281CBF0120F9F7F7
:10995000C3F900206060A060E0602061606110BD1C
:1099600070B50446F9F74FFC00F008050820F9F738
:1099700045FC8B4A8B490023106901EBC001401C58
:109980001061B0F5807F28BF13612078087060787F
:109990004870A0788870E078C87020790871607984
:1099A0004871A0798871E079C8715069B0F5807FFD
:1099B0003CBF401C506116D31D2008700120487028
:1099C000207888706078C870A0780871E078487155
:1099D000207988716079C871D068401CD060B0F57A
:1099E000807F28BFD360506840F00100506010783D
:1099F00000281CBF0120F9F77AF92846F9F7FAFB8D
:109A0000012070BD10B50178022211F003011CBFC6
:109A10000129022902D1FFF7A3FF0246104610BD1B
:109A20002DE9F0415E4E0446304672680378002509
:109A3000002A1CBF00204FF0010C54D0B1680CFA72
:109A400001F7174207D1491CB1600D2928BFB56045
:109A5000401C0D28F2D3B16809B3534800EBC10094
:109A60000CFA01F122EA010108387160317D0278B7
:109A70002270427862708278A270C278E2700279B5
:109A80002271427962718279A271C07901F03F013D
:109A900000F0C0000843E0717068D8B915E0716942
:109AA00009B34048D6F80CC000EBCC000CF1010C17
:109AB000C6F80CC0BCF5807F28BFF560491E7161F7
:109AC00004BF22F001017160D0E7002B1CBF012010
:109AD000F9F702F9B068401CB0600D2828BFB560E6
:109AE0000120BDE8F081002B1CBF0120F9F7F4F83C
:109AF00025706570A570E57025716571A571E571BA
:109B00000220BDE8F081264910B44A6800204C6963
:109B1000002A19BF01210B4610BC704703FA01FC53
:109B20001CEA020F18BF401C491C0D29F6D312F085
:109B3000010F18BF204410BC704700B5B0F90410E5
:109B400083B0B1F5A06FA8BF40F2FF41027843781F
:109B5000920103F0070342EA83028DF80020428855
:109B600012098DF801200A098DF80220827802F08E
:109B70000F0262F31F118DF80310017A8DF80410A3
:109B8000417A8DF80510807900F03F008DF80600CD
:109B900000208DF807006846FFF7E2FE03B000BD25
:109BA0004006002010490020B048002070B50E4645
:109BB00080280CD28119491E802908D2050300246F
:109BC000002E04D92846F8F7E7FB012801D0002031
:109BD00070BD641C05F58055B442F3D3012070BDFF
:109BE000B0F5006F24BF0020704710B50002F8F7F1
:109BF00074FC012818BF002010BD10B5064CFFF7FB
:109C000012FA012808BF10BD206801F0CFF8002823
:109C100018BFFAF753FEF2E7E8060020FC4A0028D6
:109C2000516814BF41F0010021F0010050607047FD
:109C3000F74B59680A0E120721F07F4142EA006093
:109C4000084358607047F2484068C0F303607047AB
:109C500070B5EF4DAA68521CAA604FF0000C0028A6
:109C6000C8BFC5F80CC00ED06A6812F0010F40D012
:109C7000E84BC2F3036214001B6808D0022A18BF25
:109C8000002413D028E0EA68521CEA60ECE70028C0
:109C9000C8BF022422DC93F81601A96888421BD8A9
:109CA00002240120C5F808C0286117E0002918BF68
:109CB0000A2402D004F03CFC10E068B9B3F81201A9
:109CC000E968884238BF0024F4D32869012804BF1A
:109CD0000024C5F810C001D094420AD06868010E73
:109CE000090720F07F4041EA0461084368600120D1
:109CF00070BD002070BD2DE9F041C54D0446002621
:109D0000E8693746012806D16068FAF709F8286A39
:109D1000032808BFEF616068B0B103F09EFB002824
:109D2000C8BF01260FDC2888401C2880B94800687D
:109D3000017F11F0010F07D0807F2988814203D96C
:109D40006068F9F7EDFF2F803046BDE8F041002153
:109D50007EE72DE9F04F06468DB00020AC4F059010
:109D600000247868A046C0F303654FF0FF308246B8
:109D7000049070680DF11809A346D8B1CDE902BA74
:109D8000CDF800B000234A4604A9CDF804B000F095
:109D9000C3FB804600F0BAFB04469F4800780128C8
:109DA00004BF2046FFF700FC04980028C8BFA7F8AE
:109DB00000B002DC3888401C388096480068017F7B
:109DC00011F0010F15D0B0F814013988814202D882
:109DD000386901280DD15B46A7F800B0CDE900B481
:109DE000CDF808B042465146CDF80CB00498FAF7C9
:109DF000FCFC84B1022D04D0042D04BF049801287A
:109E000009D13068CDE90004CDF80C90684604997A
:109E100004F096FB05900498012818BF00200599CE
:109E2000FFF716FF0DB0BDE8F08F7C4801680969A7
:109E3000006841F0010101617948016849690268DF
:109E400041F40071516101680969026841F004013F
:109E5000116101680969006841F0100101617148F0
:109E600001680968006841F0010101606E480078EE
:109E70000022674900281CBF4A8070474888B0F517
:109E80007A7F87BF4A8030BF401C488070472DE9E9
:109E9000F04F87B004460025052700F0CFFE0028CC
:109EA00004BF07B0BDE8F08FFAF7CEFC8146FAF7A1
:109EB000CEFC80460F212046FAF792FD002804BF11
:109EC00007B0BDE8F08F0420DFF860A1DAF80010D9
:109ED0008860DAF80010486002212020F7F784FA41
:109EE0000020F6F71AFF524C2068406C216840F4BD
:109EF00000604864012002F0C4FB2068406C2168C7
:109F000020F400604864F7F76EF9DAF800000068A2
:109F1000DAF8001040F00100086030BF3C4C01202E
:109F200000262662E061DFF8ECB0FFF77CF801283C
:109F300044D0FAF789FC484540D1FAF788FC4045FF
:109F40003CD16846F7F70DFC002833D0206A401C4E
:109F500020626846FFF791FCE0690025012806D1E0
:109F60000198F9F7DDFE206A032808BFE661019831
:109F7000B0B103F072FA0028C8BF01250FDC2088B9
:109F8000401C2080DBF80000017F11F0010F07D09A
:109F9000807F2188814203D90198F9F7C1FE26808C
:109FA00000212846FFF754FE0546F7F7F7FBFAF7BE
:109FB0009BFC01E0FAF777FC002DB6D0DAF8000040
:109FC0000068DAF8001020F0010008600020F7F7C0
:109FD0007DF9F6F761FBFAF737FC052805D0FAF7AB
:109FE00033FC07460520FAF73EFCFAF77CFD052F07
:109FF0001CBF3846FAF737FCFBF7ABFE0D4801787B
:10A000000D480078F7F7F0F907B0BDE8F08F0000D1
:10A0100058060020E80600203106002010821100BA
:10A02000FC811100308211003406002018821100DA
:10A0300014821100BF050020BE0500202DE9F04F5D
:10A0400087B0F6F7CDFFF9F761F95C4D0124A869F7
:10A0500010B9F7F7E2FEAC61DFF864A1DAF80000AE
:10A06000B0F90E11B0F90C0100F002FA04F05CFA3C
:10A070006C61FAF7E9FB052804BF4FF0000B514F64
:10A0800026D1DAF800006A68C2F30361D0F8F8005C
:10A090008B00D84000F00F00C5F808B0C5F80CB030
:10A0A000002970D0022918D004296DD00A2922F085
:10A0B0007F404FEA017118BF41F0007108436860AA
:10A0C000FEF7B1FF012803D0FAF7BEFB0528D8D070
:10A0D00007B0BDE8F04F04F029BA064600244FF05F
:10A0E0000508FAF7B4FB81460F213046FAF778FCF1
:10A0F0000028E5D000F0F3FB3968702088603968EB
:10A1000002204860304E3068406C316840F4006096
:10A110004864012002F0B5FA3068406C316820F4E0
:10A1200000604864F7F75FF838680068396840F005
:10A130000100086030BFFEF776FF012806D068688E
:10A14000C0F30360484508BF002C1ED000F0C7FBD9
:10A15000FAF77AFB052805D0FAF776FB804605204A
:10A16000FAF781FBFAF7BFFCB8F1050F1CBF4046B8
:10A17000FAF779FB38680068396820F00100086058
:10A18000FBF7B0FD9CE713E015E06846F7F7E9FA46
:10A1900058B16846FFF771FB6846FFF7DAFD0446E1
:10A1A000F7F7FCFAFAF7A0FBC5E7FAF77CFBC2E782
:10A1B000FFF76DFE84E702F0F6FE81E75806002007
:10A1C000E80600201882110014821100F0B4FF4E3E
:10A1D000DDE905C43668049DB66916F0010F04D0A8
:10A1E0001F464B1BCD1BDBB2EDB216F0020F06D0A3
:10A1F0006746A2EB040CD21B0CF0FF0CD4B216F095
:10A20000040F08D080F800C04A1B84704270C91A3D
:10A21000C170F0BC70470370857080F801C0C470D5
:10A22000F0BC70472DE9F043164601FB06F90D46D8
:10A23000014685B01F464A46E5480CF045FCE44C13
:10A2400002F007FC4FF0000818B103F0FAFE0128F5
:10A250001AD002F0FEFB18B103F0F3FE082842D03A
:10A26000B7F5805F1CBF0020B9F1000FDCBF05B05F
:10A27000BDE8F0832156794309132154401C8145E0
:10A28000F8DC05B0BDE8F08300210B46002ECEBF00
:10A29000DFF838C305B0BDE8F0830020002D1CDDD9
:10A2A000DCF8002092F83E919945DCBF92F83F918E
:10A2B0004B450CDC92F83C918145DCBF92F83D2186
:10A2C000904204DC62567A431213625401E004F8AF
:10A2D0000180401C491CA842E2DB5B1CB342DCDB72
:10A2E00005B0BDE8F083AE428CBF701E681EC2B2DE
:10A2F000B54234BF681E701EC1B20420CDE9000211
:10A30000002303A80292FFF761FF00210A46002EF6
:10A31000DCBF05B0BDE8F0830020002D19DD9DF8FD
:10A320000D309342DCBF9DF80F309A4209DC9DF856
:10A330000C308342DEBF9DF80E30984204F8018055
:10A3400003DD63567B431B136354401C491CA84226
:10A35000E5DB521CB242DFDB05B0BDE8F0832DE93E
:10A36000F0411C4615460E460746F8F741FD2146CA
:10A370002846F8F75CFD0623954A31463846F8F73B
:10A380006CFEBDE8F041F8F734BD924A5060916030
:10A3900070472DE9F00F0024DDE90875B7F5805FFF
:10A3A00008BF642D2AD00026002B87BFA5F16409C1
:10A3B000C5F16408BDE8F00F70470020002A17D9E6
:10A3C000B0FBF2FA31F914C0642D0CFB07FC4FEA24
:10A3D0002C3C27BF0AFB09FA0CFB0ACC0AFB08FA43
:10A3E0000CFB1ACC21F814C0401C641C9042E7D32B
:10A3F000761C9E42E1D3BDE8F00F7047884204BF4F
:10A40000BDE8F00F70475A43BDE8F00F52000CF062
:10A410005BBB2DE9F04180466C4882B00F46006876
:10A420001D46164690F84C10ADF8001090F84D10EF
:10A43000ADF80210B0F84A10ADF80410B0F84800BA
:10A440000024ADF80600F8F7D3FC6846F8F7C4FD21
:10A4500029463046F8F7E2FC39464046F8F7CEFD8B
:10A46000F8F7C7FC5B48C46002B02046BDE8F08145
:10A470005849088070472DE9F041574E8AB005468B
:10A480005448CDE90056A6F148080C46CDF808809E
:10A49000B0F9001003913F29C8BF3F2005DC11F13E
:10A4A000400FB8BF6FF03F0000DA03900020049027
:10A4B000F8F79EFC49484A4F01783878F8F7AEFC27
:10A4C0006846F8F742FD0890F8F793FCC4E9006885
:10A4D000BDF814002081BDF816006081BDF8180099
:10A4E000A081BDF81A00E081BDF81C002082BDF8F3
:10A4F0001E006082BDF81C00BDF81E103A7801FBFA
:10A50000020035F910000AB0BDE8F0813148006959
:10A5100070473048406970472DE9FF4FADF2A44DB8
:10A5200000208A46CDF89C04ADF88C048346471E73
:10A530009146DDF8E0844FF4906102A80CF065FBD1
:10A54000B8F1000F18BF98F800B02548254E0578DF
:10A55000224804781D480068008ECDF8940406F562
:10A560009060CDF89804DDF8A404CDF89004F9F7D4
:10A57000E2FA0190B0B1DDF8A4242B460094104615
:10A580000199F9F7B5FA18480078022804BF019834
:10A59000FFF70AF814480078092804BFDDF8A4047E
:10A5A000FFF702F8DDF89004CDF888040948066149
:10A5B000F9F7B2FBCDE9004002462B4602A8DDF8D0
:10A5C0008814F9F795FA084800780FE0E8060020AB
:10A5D000105100207C06002098530020BF05002069
:10A5E000BE0500201854002031060020032804BFB7
:10A5F0000198FEF7D9FFBB480078052804BF02A8E0
:10A60000FEF7D2FFB7480078062804BF02A8FEF77D
:10A61000CBFF02A8CDF88804B2480078222803D1E5
:10A62000002102A8FFF700F9DDF8940410F0010FF3
:10A6300015D0DDF888040090F8F7DAFB21462846AB
:10A64000F8F7F5FB0623A84A30460099F8F705FD10
:10A65000F8F7CFFBA3480078082810D012E0642157
:10A660004FF48050CDE9000123462A463046DDF8FC
:10A670008814FFF78EFE9B480078082802D13046E8
:10A68000FEF792FFDDF8940410F0060F31D002F0CF
:10A69000ADF870BB0020CDF894049448006890F8A1
:10A6A0004C10ADF8001090F84D10ADF80210B0F855
:10A6B0004A10ADF80410B0F84800ADF80600F8F7FD
:10A6C00097FB6846F8F788FC21462846F8F7A6FB72
:10A6D00031460846F8F792FCF8F78BFB8449DDF821
:10A6E0009404C8607F4800780A2804BF3046FEF70B
:10A6F0005BFFBAF1000F23D0B9F1000F29D0DDF8CC
:10A700009C0400900DF28C433046DDF88824DDF87F
:10A710009814F9F775FE0746BDF88C04072807D191
:10A72000680000FB04F23046DDF888140CF0CCF928
:10A73000B7F1FF3F12BF002F0020ADF88C0402E0FC
:10A74000B9F1000F05D049463046FFF794FEA9F84D
:10A75000140064480078072804BF3046FEF724FF41
:10A76000BAF1000F18BFCAF80070DDF8D80400284D
:10A770001CBFBDF88C140180B8F1000F18BF88F819
:10A7800000B0DDF890040DF2B44DBDE8F08F5948EB
:10A7900070472DE9F05F8146574817468846007894
:10A7A000544C4600F9F7DEFBDFF838B1824600254D
:10A7B0009BF80000042804BF4846FEF7E0FE9BF823
:10A7C0000000052804BF4846FEF7D9FE9BF80000AC
:10A7D000032804BF5046FEF7D2FE9BF80000232852
:10A7E00004BF4846FEF7CBFE0020002E09D939F8F9
:10A7F00010103AF81020891A24F81010401C8642D4
:10A80000F5D89BF80000062804BF2046FEF7B7FEE7
:10A810009BF80000222804BF2046FEF7B0FE00206F
:10A82000711E18BF0A4612D004EB400134F81030F4
:10A830004988C91A09B224F810100029B8BF494242
:10A8400009B2A942C8BF0D46401C9042ECD304EBAC
:10A85000460020F8025C9BF800000A2804BF20464E
:10A86000FEF78DFE9BF80000082804BF2046FEF787
:10A8700086FE9BF80000072804BF2046FEF77FFEF7
:10A880009BF80000012804BF2046FEF778FE9BF8E5
:10A8900000000E2804BF2046FEF771FE9BF8000062
:10A8A000212804BF2046FEF76AFEB8F1000F10D041
:10A8B0000E494FF0FF300968B1F97220AA42B8BFC3
:10A8C000012004DBB1F970108D42B8BF0020C8F838
:10A8D0000000002F18BF3D804846BDE8F09F70473C
:10A8E000704700003106002010510020E8060020CB
:10A8F0007C060020185D0020C505002008283CBF0C
:10A900009C490870704700209A49C8609A480068BE
:10A9100090F88100082838BF087070479548007883
:10A92000704710B50446F6F75BFB944A03211268A2
:10A93000D161052C4ED2DFE804F0031221303F0034
:10A9400001217F20F5F780FD8C214FF48470F5F70D
:10A950007BFD5C214FF48570F5F776FD3AE001212F
:10A960007F20F5F771FD87214FF48470F5F76CFDBA
:10A9700059214FF48570F5F767FD2BE001217F2009
:10A98000F5F762FD75214FF48470F5F75DFD4D21FB
:10A990004FF48570F5F758FD1CE001217F20F5F795
:10A9A00053FD67214FF48470F5F74EFD43214FF4BA
:10A9B0008570F5F749FD0DE001217F20F5F744FD95
:10A9C00058214FF48470F5F73FFD3A214FF485701C
:10A9D000F5F73AFDF9F76BF9F6F705FC012010BD24
:10A9E00001207047644863490068B0F8760042422D
:10A9F000C8688242BCBF401EC86070472DE9F04F56
:10AA0000A1B09346884604464FF0000901F0AFFF1D
:10AA1000594E8246574D3068B0F96E00A0420DDAAB
:10AA2000A868401EA86009D26420A860686803284E
:10AA30000CBF0020401C6860FFF773FF504F387850
:10AA4000072829D14F4859460078820068460CF003
:10AA50003BF8ADF80040ADF80280ADF804A0A8893D
:10AA6000ADF80600A888ADF808003068B0F872109C
:10AA7000ADF80A10B0F87410ADF80C10B0F86E1004
:10AA8000ADF80E10B0F87600ADF810003878072851
:10AA900004BF6846FEF773FD484621B0BDE8F08F5D
:10AAA00034488078002818BF012070470020DFF864
:10AAB000C4C09CF80210002914BF012200229CF897
:10AAC0000110002918BF01218A4208BF70470A1CE3
:10AAD00018BF012210B48CF80220274A1368D3F85B
:10AAE000A42012F0040F0FD021B1C2F303100828E4
:10AAF00009D206E00020CCF80C0093F88100082869
:10AB000001D28CF80000012012F0020F18BF0120C2
:10AB100010BC70472DE9F041174F00263868D0F877
:10AB2000A40010F4807F21D0124D69780C1C18BF4E
:10AB30000124C0F30330012101FA00F0F8F701F914
:10AB40003968B1F8A41011F4007F01D028B103E0F6
:10AB5000002818BF002000D10120844206D0002820
:10AB600018BF01206870FFF7A1FF06463046BDE818
:10AB7000F081000094060020E806002014821100F5
:10AB800031060020C50500207148006800F54070BE
:10AB900070476F48006800F58070704770B56C4C66
:10ABA0006C4922681068884204BF5068B0F5087F7D
:10ABB00024D1D2F808C0BCF5405F1FD86649D068E0
:10ABC00088420DD0002311461846B3EB9C0F07D2E4
:10ABD00051F8045B401C6B40B0EB9C0FF8D36BB991
:10ABE00002F5807000F0E2F840B1206800F5407096
:10ABF00000F0EBF800281CBF012070BD002070BDE4
:10AC0000534910B54FF48E100860FFF7C7FF0028B6
:10AC100018BF012010BD4FF48E10F7F745BB4C480C
:10AC20004C4A00680168914206BF4168B1F5087F4F
:10AC30000020704746480068006970474449096829
:10AC40000A6982429CBF00207047C0EBC00001EB44
:10AC5000C00000F5806070473D4A126802EB800337
:10AC60005B6A1A443D4B53F82000FF3020F0FF0090
:10AC700000FB012070472DE9F0010022344D1746FA
:10AC80002E1D831893F92840002CB8BF41F822707C
:10AC900010DBD5F800C0D3B20CEB830856F8233094
:10ACA000D8F82480FF33C44423F0FF0303FB04C31C
:10ACB00041F82230521C102AE3D3BDE8F00170475E
:10ACC0002DE9F0410025174604460029B8BFBDE82C
:10ACD000F081042C02D0052C10D014E0F9F7B4FD5B
:10ACE000052810D1FEF7AFFF022808BF03250AD0C0
:10ACF000FEF7A9FF002808BF022504E0F9F7A4FD2C
:10AD0000052808BF01251248144E006856F8241083
:10AD100000EB8400FF31406A21F0FF0100F5E030D4
:10AD2000503005FB0105F9F78FFD022808D101F02D
:10AD3000F5FD28B956F82400FF3020F0FF00054447
:10AD400056F8242039462846BDE8F041F7F7A2BD61
:10AD5000A406002054465053EFBEADDEA8060020E6
:10AD600010B51F4CFFF74CFFA0B1FFF70DFF0146D8
:10AD7000AC221C480BF0EDFEFFF70BFF01464FF431
:10AD8000C47220680BF0E5FE2068406DBDE81040FD
:10AD900001F025BD4FF4C47120680BF036FF00218F
:10ADA0000420F9F763FDFEF728FFDBE758B10E4AF0
:10ADB0000168914207D1406820F00F00B0F5087F8C
:10ADC00004BF012070470020704738B1006820F0B0
:10ADD0000F00B0F5907F04BF01207047002070473E
:10ADE000E8060020F40F002041505352002808BF0D
:10ADF0007047401E00BF00BF00BF00BF00BF00285B
:10AE0000F7D1704770B5614D82B0002428680466A0
:10AE10005F480168D1F82C13006841F00801C0F8C0
:10AE20002C13F8F75FFA28680069296840F00100E0
:10AE30000861601EF8F7E2F9564880234FF480124B
:10AE4000002152F821C040F821C0491CB1EB930FFA
:10AE5000F7D3F8F7E5F9F8F783FCF8F7ADFC002035
:10AE6000F8F77FFC2320F8F770FCF7F79CFFF8F762
:10AE700023FCF8F79BFAF7F7BDFFF6F77BFFF5F732
:10AE80002BFFF8F762F9F8F71DF9434E009401948F
:10AE90000423002207213068F8F77CFB3068F8F7BC
:10AEA000F4FB0420CDE900043C4C034600220721BA
:10AEB0002068F8F76FFB2068F8F7E7FBF7F72DF845
:10AEC000F7F7F8F8364800683649884218BFF7F7B0
:10AED000F1F8F8F761FDFEF775F8FEF732FD62B69E
:10AEE000FFF73EFF304803F088F9304C2068B0F996
:10AEF0000C0103F017FBF8F7B5FDF9F785FE2068A4
:10AF0000418A008AFEF733FA2068806EC0F34E0152
:10AF100061F35F0001F000F9FFF7E2FC0022114647
:10AF2000022001F006F900226421072001F001F956
:10AF300029680120086602B0002070BD01F0F3FC12
:10AF400001460220F9F792FCF9F77EFC06281AD296
:10AF5000DFE800F019090313160602F0F8F8F3E72A
:10AF6000FFF76CF8F0E7FAF7DAFAF9F76DFC012869
:10AF700004BF0220F9F777FCE6E701F0FCFAE3E70B
:10AF8000FEF73BFEE0E7F9F7B6FCDDE710821100C3
:10AF900014821100006800202C8211002882110008
:10AFA000EC15002054464953F40F0020E806002019
:10AFB000FE49087070474FF42C30704770B54FF45D
:10AFC0002C3044F264422146F7F768F8F84A2168C9
:10AFD000204691421BD16168B1F5007F17D3D4F8A8
:10AFE00008C0002344F264418C4588BF44F2644C9D
:10AFF0000022B2EB9C0F28BF70BD54F82250521CA7
:10B000002B44B2EB9C0FF8D3002B08BF70BD00207F
:10B0100070BDE74901604FF40071416044F2644142
:10B0200081600021C16080F8201080F8211080F834
:10B03000221080F8231040F2FF72C0E904218161E0
:10B04000C161016500F580404FF6FF71A0F854140E
:10B05000A0F85614A0F85814A0F85A14A0F85C14DC
:10B06000A0F85E14A0F86014A0F8621401207047E4
:10B0700070B50021C1600B46D0F808C044F26441AD
:10B0800004468C4588BF44F2644C0022B2EB9C0F0E
:10B0900006D254F82250521C2B44B2EB9C0FF8D32A
:10B0A0005942C1604FF42C3044F264422146F7F714
:10B0B000F1FB012818BF002070BD2DE9F04F0546B7
:10B0C0008FB00E460020F6F789F90C90F9F71AFDBB
:10B0D0008046B848DFF8E4B2032490F800A0B648F0
:10B0E0000778DBF80000C46102217F20F5F7ACF996
:10B0F00040F20220F5F7C1F9C0F30219012E7DD00C
:10B1000000200690AE480390AE480890AE480490E8
:10B11000AE48002601960090DBF80000C4610121D2
:10B120007F20F5F791F94FF48770F5F7A6F9C0B2D3
:10B130000D9002217F20F5F787F940F20720F5F7FF
:10B140009CF9C4B24FF40270F5F797F90CF012FEB7
:10B1500007909F4814F0100F50F8290002909D4866
:10B1600050F82900059018BF974E14F0200F04D016
:10B17000304604990CF0ACFC064614F0400F04D0A5
:10B18000304600990CF0A4FC0646E00904D0304695
:10B1900000990CF09DFC064614F0010F1CBF8A4874
:10B1A000019014F0020F04D0049901980CF090FC67
:10B1B000019014F0040F04D0DDE900100CF088FCBD
:10B1C000019014F0080F04D0DDE900100CF080FCB1
:10B1D000019016F1FF4F2CBF86F0004030467E4CA8
:10B1E000A042D8BF2646314601980CF0E5FC0190FC
:10B1F0004FF0FF3103980CF0E6FF00E018E08146C5
:10B2000008990CF003FE8346594648460CF060FC52
:10B210000B90594648460CF001FF0A900AFB07F0D4
:10B220004FF00009049000281ED80FB0BDE8F08F41
:10B2300000240AFB07F6002E8EBF684F0FB0BDE852
:10B24000F08FB5F900000CF095FD57F829100CF0BF
:10B25000DDFD0CF073FD25F8020B601C84B2A642E4
:10B26000EFD80FB0BDE8F08F002000900C98B0F937
:10B27000000009900C98801C0C9018F801BB1BF082
:10B28000800F1CBF4FF07E50069000242BFA04F074
:10B2900010F0010F13D00120A0400CF068F9504AC3
:10B2A000504B0CF0CBF907468A4600980CF0E4FBB3
:10B2B0003A4653460CF072F80CF03EF80090601CD1
:10B2C000C4B2072CE2D3059902980CF0A7FE0446FD
:10B2D000DDE90A100CF0A2FE089009980CF04AFD76
:10B2E0006FF00A010CF06FFF4FF07E510CF096FEEC
:10B2F0008346DDE902100CF0EBFB06990CF086FDAD
:10B3000007464FF07E5006990CF088FE824605995C
:10B3100003980CF0DDFB51460CF078FD39460CF03B
:10B320007DFE82460D98401E0CF024FD074610F16C
:10B33000FF4F28BF87F0004027498842D8BF264FDB
:10B340004FF0804107980CF0C3FB099039460898EC
:10B350000CF032FC09990CF059FD59460CF056FDE1
:10B3600003990CF050FE834614F1FF4F2CBF84F07C
:10B370000040204618498842D8BF0C4616F1FF4FBE
:10B380002CBF86F0004030468842D8BF0E46DDE92B
:10B3900001010CF03BFD0CF06FFBCDE908013146DB
:10B3A00000980CF009FC51461EE00000F006002059
:10B3B00053454C46BE050020BF05002014821100F5
:10B3C0000000B040CDCC4C3FC3F5A04048E1DA408E
:10B3D0001C8611003C8611000AD7233C5C861100B4
:10B3E0009A9999999999A93F0CF010FD0CF044FB9A
:10B3F00007468A4658460CF03FFB4FF0FF320CF0F0
:10B40000B4FE3A4653460BF0C9FFDDE908230BF0C2
:10B41000C5FF07468A4621464FF07E500CF0CCFB14
:10B420000CF02AFB3A4653460CF008F90022FE4B7A
:10B430000CF038FA04460F4630460CF01DFB22464D
:10B440003B460CF0FBF80BF077FFF8490CF0DEFC04
:10B45000F7490CF03DFB0CF071FC25F8020B09F1EB
:10B4600001001FFA80F9049848453FF6FDAE0FB081
:10B47000BDE8F08F2DE9F043ADF2844D0C468146D6
:10B480004FF000084FF4906168460BF0BEFBE94FA7
:10B49000F5F75BFC0020F5F74BFC0020F5F73DFCD1
:10B4A000F5F72FFC6846F8F748FDE3480578E348D0
:10B4B0000678002E18BF002D47D02068002119F013
:10B4C000030F80F8205080F8216080F8221080F867
:10B4D000231038D0F5F787FE0020F8F74BFD012048
:10B4E000F5F7C1FB2046F5F778FDFAF7BDFC2468B7
:10B4F0000020F5F773FF0146754343F254006A00DC
:10B5000020440BF0E1FAF9F7FDFA014643F6540046
:10B510002A4620440BF0D8FAC948807810F0010F71
:10B5200011D0F6F714FD002104F15400FFF7C5FD1A
:10B53000386890F8EB00012805D1C20204F15401EB
:10B54000C0480BF0C1FA4FF00108F5F7D3FD0DF23A
:10B55000844D4046BDE8F0832DE9F04FADF5117DF7
:10B560000E46044617464FF4107168460BF04DFB2B
:10B57000B3484FF000084FF0FF39807810F0020F09
:10B5800043F2540007EB000504FB06F090904ED008
:10B590006946AC46C246002E88BFA4F1010B2ED9E5
:10B5A0000020002C25D9584508BF81F800801CD008
:10B5B0003CF91020002AD8BF81F8009015DD0CEB73
:10B5C0004003B3F90230934207DCD31A4FF0640E04
:10B5D00003FB0EF393FBF2F206E09A1A4FF0640EAF
:10B5E00002FB0EF292FBF3F20A70401C491CA042CF
:10B5F000D9D30AF1010A0CEB440CB245D0D342F680
:10B600005400384469468246909A0BF0A2FA894861
:10B61000006890F8EB00012804D1C2025146894825
:10B620000BF052FA4FF4107168460BF0EEFA8448B2
:10B63000807810F0040F04BF0DF5117DBDE8F08F88
:10B6400068464FF0000A002C88BF06FB04FB36D981
:10B6500000221146BBF1000F05D829E0112A08BFCE
:10B6600080F800801FD00AEB010C35F91C30002B4C
:10B67000D8BF80F8009016DDA44435F91CC09C4565
:10B6800008DCA3EB0C0C4FF0640E0CFB0EFC9CFBD7
:10B69000F3F307E0ACEB03034FF0640E03FB0EF390
:10B6A00093FBFCF303702144521C20448B45D5D8F6
:10B6B00004FB1600401C0AF1010A5445C8D842F6A2
:10B6C0005440384469460446909A0BF042FA59486F
:10B6D000006890F8EB00012804D1C20221465948C5
:10B6E0000BF0F2F90DF5117DBDE8F08F2DE9F04179
:10B6F000504D0646144628680F4690F8E8205248F8
:10B70000028000F0EAFD002306FB07F1002984BF58
:10B71000DFF838C14E4A12D9DCF8000041F6540770
:10B7200030F8136004EB43003E52166800F50050F9
:10B7300036F813605B1CA0F854609942ECD8286876
:10B7400090F8EB0001280ED1C20241F654002118F6
:10B750003C480BF0B9F942F2540021184FF4006252
:10B760003C480BF0B1F9364901204860BDE8F08152
:10B7700030B5054691B000240120F5F774FA204653
:10B78000FFF75CFA6946FFF776FA00990798F5F734
:10B790000DF9314901200968C1F814032846FAF768
:10B7A00059F9FF20F9F7B5FBF5F7CFFA0020F5F7C7
:10B7B000BFFA0020F5F7B1FAF5F7A3FA0020F8F781
:10B7C000F4FA0020FAF70FFC0120F8F7D3FB11B0D0
:10B7D00030BDF0B5ADF2C44D0D4606461446002707
:10B7E0004FF4906168460BF010FA2020F9F791FBB6
:10B7F0000120F5F738FA3846FFF720FA070008BFAE
:10B80000F9F75CF80DF590613846FFF734FADDF88A
:10B810008014DDF89C04F5F7C9F80F490120096888
:10B82000C1F814031AE000000000F03F00007A4461
:10B830000080CE43E8060020BE050020BF050020A2
:10B84000F0060020006D0020040700200C070020F7
:10B85000080700200075002014821100FAF7FAF89A
:10B86000F5F773FA0020F5F763FA0020F5F755FABB
:10B87000F5F747FA0120F8F77DFB6846F8F75DFB1E
:10B880000020FAF7B0FB0020F5F7A8FD06FB05F154
:10B890004A00014641F25400204404460BF014F9DA
:10B8A000FE48006890F8EB0001281CBF0DF2C44D63
:10B8B000F0BD4FF400622146F9480BF005F90DF296
:10B8C000C44DF0BD70B515460E460446F8F724FA8F
:10B8D00004FB06F14C0021460BF075F90220FFF73E
:10B8E00047FFFAF7FFF90320FFF742FFFAF707FADD
:10B8F000F8F712FA0146224605F654000BF0E4F878
:10B90000E648006890F8EB00012805D1C20205F670
:10B910005401E3480BF0D8F8F8F7FEF92146BDE8EA
:10B9200070400BF050B92DE9F14FADF5065D4FF0C9
:10B930000109C8464FF410610DF6D8500BF065F9B7
:10B9400014204FF0000A1490139012901190544656
:10B95000CDF840A00120F5F786F92046FFF76EF9F3
:10B960006946FFF788F900990798F5F71FF8DFF89F
:10B9700034B30120DBF80010C1F81403122720248F
:10B980007D010020F5F7C9F9F5F708FFDBF8001095
:10B990000320C86101217F20F4F756FD11210E20FC
:10B9A000F4F752FD5A210820F4F74EFD36210A2003
:10B9B000F4F74AFD02217620F4F746FD02217F20AC
:10B9C000F4F742FD6A210220F4F73EFD8E210420A7
:10B9D000F4F73AFDF1210720F4F736FD072108209E
:10B9E000F4F732FD00211620F4F72EFD03217F200D
:10B9F000F4F72AFD89210520F4F726FD67210620AA
:10BA0000F4F722FD45210720F4F71EFD232108202D
:10BA1000F4F71AFDF1210920F4F716FD68004FEA4A
:10BA2000570B04FB07F6009002E0B8F1000F50D06E
:10BA30000120F5F718F9F5F79BFD0020F9F769FAF1
:10BA4000F5F7D1FB0120F5F70EF9F5F791FD119807
:10BA5000F9F75FFAF5F7C7FBB9F1000F34D042F2FE
:10BA600060106844F5F77DFE58B30020F5F755F9EE
:10BA7000F5F794FEB8F1000F26D00AF101001FFA85
:10BA800080FABAF1010F4FF000000BD0F5F7A6FCD9
:10BA9000014641F658306844009A0BF015F84FF013
:10BAA000000811E0F5F79AFC014641F2D8606844BD
:10BAB000009A0BF009F814991198084480B211907B
:10BAC00002E0B9F1000FCAD14FF00109B8F1000F3F
:10BAD000AED10020002D18D941F2D8636B4403F594
:10BAE00090620DF59B6C32F9101033F91080A1EBC8
:10BAF00008014FF0640801FB08F101EBD171491016
:10BB00004CF82010401CA842EDD34FF000084346EB
:10BB1000002C25D941F6D87A0DF59B69EA4409F540
:10BB2000DC5E00210A464046B8EB560F0BD259F8AE
:10BB300020C0624400EB560C204459F82CC0B0EBF6
:10BB4000560F6144F3D3B2FBFBF04AF82300B1FB7C
:10BB5000FBF04EF823005B1C08F10108A342E0D380
:10BB60000020002D1FD941F6D8730DF59B626B4460
:10BB700002F5DC5C0DF15808B0FBF4F104FB110197
:10BB8000B0EB550F34BF53F821105CF8211052F878
:10BB90002090A1EB09010029B8BF494228F81010F4
:10BBA000401CA842E8D34FF00008002F82BF42F2A9
:10BBB0002019E944A9F1480A23D916A800EB8811F5
:10BBC000402248460AF080FF0020002F15D90021AE
:10BBD000002C09D939F811305AF82020491C1A4490
:10BBE0004AF820208C42F5D85AF8201091FBF4F145
:10BBF0004AF82010401CB842E9D308F10108B845C2
:10BC0000DBD30020002D82BF42F2D808E8440DF1BA
:10BC1000580C0CD941093CF8103058F82120D11AA1
:10BC200048BF991A2CF81010401CA842F2D30020EB
:10BC3000002D84BF16AA0DF6D85109D951F820302D
:10BC400032F810C0634441F82030401C8542F5D8DA
:10BC500010981399401CC0B210901298119010982F
:10BC60004FF001084FF0000AC14681423FF6DDAEB9
:10BC70000024002D21D9DFF8308016AE0DF6D857FC
:10BC8000109857F82410B1FBF0F00BF087FC4FF040
:10BC9000663243460BF0D2FC08E00000E8060020C4
:10BCA000006D0020148211006666E63F0BF032FC46
:10BCB00026F81400641CAC42E2D30DF5005316A91B
:10BCC000D3F8800143F654431844009A04460AF01E
:10BCD00040FFFE48006890F8EB0001281EBF61B0ED
:10BCE0000DF5005DBDE8F08F4FF400622146F84885
:10BCF0000AF0EAFE61B00DF5005DBDE8F08F2DE9B8
:10BD0000F05FADF5924D44F270476F444FF490618F
:10BD100038460AF07AFF03ADFF2244F26441284618
:10BD20000AF049FFDFF8AC834FF0FF300290D8F8FB
:10BD300004000DF1080A4FF0FF0928B9FF224FF463
:10BD40000061E5480AF037FF28460295FFF761F9E0
:10BD5000DE4E346894F8EA00A8F80200B4F9D8007E
:10BD60000CF008F8019094F8EB00032804D10120AE
:10BD700088F80000A8F802900120F4F774FF5146FB
:10BD800098F80000FFF776FB3846F8F7D6F89DF8EC
:10BD90002C409DF82D70002C12BF002F0DF5924DF8
:10BDA000BDE8F09F4FF0000B2A4639462046CDF8FB
:10BDB0001CB0FFF7D1FB98F8020010F0080F04D078
:10BDC0002A4639462046FFF791FC98F8000010F00B
:10BDD000010F39D098F8020010F0200F04D02A4645
:10BDE00039462046FFF7F5FC98F8020010F0400FA6
:10BDF0002AD0F7F791FF04FB07F14FEA41094946C2
:10BE00000AF0E1FE0220FFF7B3FCF9F76BFF032015
:10BE1000FFF7AEFCF9F773FFF7F77EFF01464A46DE
:10BE200005F654000AF050FE306890F8EB00012847
:10BE300005D1C20205F65401A5480AF045FEF7F700
:10BE40006BFF49460AF0BFFE98F8020010F0800F21
:10BE50001CBF2846FFF767FD98F8000010F0400F60
:10BE600040F025810898401C08900798002814BFCE
:10BE70000A98099800F1010014BF0A90099004FB88
:10BE800007F0441E58BFDFF854A27CD498F8020093
:10BE900010F0010F2FD0924901980BF08DFE4FF05A
:10BEA0007E5100900CF0AFF851460BF0AFFF05EB60
:10BEB00044078146B7F954000BF05CFF49460BF08C
:10BEC00071FF10D34FF07E5100980BF001FE5146E8
:10BED0000BF09CFF8146B7F954000BF04BFF49462D
:10BEE0000CF060F807D217980DF5804140F0010082
:10BEF0001790A1F86844B8F8020010F0020F15D0AE
:10BF00002919326801F5005191F95418B2F9C83075
:10BF10008B4203DCB2F9CA208A4207DA17990DF581
:10BF2000804241F002011791A2F8604410F0040F22
:10BF300015D02919326801F5005191F9541CB2F954
:10BF4000CC308B4203DCB2F9CE208A4207DA179953
:10BF50000DF5804241F004011791A2F8624410F0FF
:10BF6000080F18D005EB4401326801F58051B1F992
:10BF70005418B2F9D0308B4203DCB2F9D2208A4295
:10BF800009DA179900E06EE041F008010DF58042F2
:10BF90001791A2F8644410F0100F16D005EB44017D
:10BFA000326801F50051B1F95410B2F9D4308B4226
:10BFB00003DCB2F9D6208A4207DA17990DF58042E0
:10BFC00041F010011791A2F8664410F0200F16D02E
:10BFD00005EB4401326801F58051B1F95410B2F912
:10BFE000DC308B4203DCB2F9DE208A4207DA179993
:10BFF0000DF5804241F020011791A2F86A4410F03B
:10C00000400F14D0326805EB4401B1F95418B2F96D
:10C01000E0308B4203DCB2F9E2208A4207DA17995A
:10C020000DF5804241F040011791A2F86C4410F0E8
:10C03000800F15D005EB440043F65441415E306853
:10C04000B0F9E4208A4203DCB0F9E600884207DA5E
:10C0500017980DF5804140F080001790A1F86E44CC
:10C06000641E7FF513AF306890F8EB00F8B90598BF
:10C07000002144F264422B46CDF818B0904294BFA0
:10C08000024644F264420020B0EB920F06D255F80B
:10C0900020C0401C6144B0EB920FF8D34842D860F6
:10C0A0004FF42C3044F264422946F6F7F3FB306833
:10C0B00090F8EB00032802D10549179808801D204D
:10C0C0008DF8000041208DF801000BE0E80600200B
:10C0D000006D0020F00600200075002000803B4528
:10C0E0000000C8429DF85C008DF802009DF85D00DC
:10C0F0008DF803009DF85E008DF804009DF85F0048
:10C100008DF8050006226946072000F03BF80DF582
:10C11000924DBDE8F09F00005149C2B2C0F3072024
:10C120000A80488070474E484188008861F31F208C
:10C13000704710B54A4C012303FA00FC248882B0F2
:10C140001CEA040F04BF02B010BD00F00F0043EA68
:10C1500080008DF800008DF801108DF80220100A83
:10C160008DF80300100C8DF80400100E8DF80500FA
:10C1700000208DF806008DF807006846FDF742FCA8
:10C1800002B010BD012303FA00F000B5344B83B0B8
:10C190001B88184204BF03B000BD072A88BF0722CE
:10C1A00000206B46002A08D911F800C003F800C02F
:10C1B000401C9042F8D3082804D200211954401C96
:10C1C0000828FBD31846FDF71DFC03B000BDDFF8BF
:10C1D00090C001238340BCF802C013EA0C0F08BFD3
:10C1E000704710B582B000F03F0040F080008DF83D
:10C1F0000000072A88BF072200206B46002A09D9C1
:10C2000011F800C01C18401C84F801C09042F7D3FC
:10C21000072805D200211A18401C51700728FAD3AC
:10C220001846FDF7EFFB02B010BD10B40C4C40EA0D
:10C2300001230228A288944602D0052805D009E0EF
:10C24000002918BF022905D103E0002918BF0229DF
:10C2500000D11A46944518BFA28010BC7047000058
:10C26000F8060020F74908707047F64800B5C07816
:10C2700048F6B80183B0484301218DF80110002130
:10C280004A1E8DF807108DF80010ADF804208DF8C7
:10C290000810ADF802208DF806108DF80910F7F798
:10C2A00014FAFCF7C0FE01280DD00120F6F714FDAA
:10C2B000F7F722FA0028F4D06846FDF73EFC00208C
:10C2C000F7F717FAEDE7F7F70FFA03B000BDDD490E
:10C2D00048707047DB48407870472DE9F04FADF269
:10C2E000F44D4FF4906104A80AF08FFCDFF85483FA
:10C2F0000221002088F80110FEF7A0FC040008BF0E
:10C30000F8F7DCFAF4F76CFE0DF592612046FEF7C3
:10C31000B2FCDDF89014DDF8AC04F4F747FBCA4931
:10C3200001200968C1F81403F4F70FFD0020F4F7A9
:10C33000FFFC0020F4F7F1FCF4F7E3FC04A8F7F7A6
:10C34000FCFDF4F7DFFECDF8EC0498F8020010F0E5
:10C35000100F18BFF5F761FBBC4890F80090BC487F
:10C360000778BC48002F0578BB48067818BFB9F19C
:10C37000000F0ED0FEF7B3FA0020F7F716FD98F87D
:10C38000020010F0100F0AD00120F7F7F3FD012092
:10C3900009E0002E18BF002DECD100F0E6B8002017
:10C3A000F7F7E8FD0020F7F7E5FD0120F4F799FB2A
:10C3B000F4F719FF1E20FDF70AF800210846FCF7E4
:10C3C000BDFFC8F8080001210020FCF7B7FFC8F83E
:10C3D0000C00002009FB07F4DFF880A2002C88BFC6
:10C3E00047F6FF710AD9D8F8082022F810A0D8F82B
:10C3F0000C2022F81010401C8442F4D81E20FDF7B7
:10C4000005FA00210120FCF799FF83460121084627
:10C41000FCF794FF01460020AB1918BF47F6FF72E6
:10C4200006D02BF810A021F81020401C8342F8D829
:10C43000B8F804000026864238BF4FF0000B6FD2D8
:10C44000FCF7F1FD01286BD00DF59A60F5F789F93D
:10C4500000285FD0DDF8D404002857D098F80200F7
:10C4600010F0100F0BD0DDF8D454F7F755FC2A4626
:10C4700001464B4610460097F7F73AFB22E00023AF
:10C48000CDF800B0CDF804B0CDF808B0CDF80CB0C0
:10C490001A461946DDF8D404FEF73EF8054698F82A
:10C4A000020010F0200F03D0FEF730F8054608E038
:10C4B000F7F732FC2A4601464B4610460097F7F73D
:10C4C00017FB1DB30021002C88BF53461ED935F938
:10C4D0001100B0F5004FA8BF47F6FF7003DA10F562
:10C4E000004FB8BF1846D8F8082032F911C084456B
:10C4F000B8BF22F81100D8F80C2032F911C08445D9
:10C50000C8BF22F81100491C8C42E0D8F5F746F963
:10C51000761C01E0F8F7D2F9B8F8040086428FD310
:10C520000120F4F7A0FBFEF7DAF9B8F80400B042F6
:10C530001BD8DDF8EC0410F0020F16D000234FF6E4
:10C54000FF721846002C88BFD8E902C50DD93CF906
:10C55000101035F91060891B9942C8BF0B469142F3
:10C56000B8BF0A46401C8442F1D8F4F7C3FD0DF26F
:10C57000F44DBDE8F08F2DE9F041324D002484B038
:10C580006C70374F4FF00108661EFCF74CFD012818
:10C5900006D1F8F759F903281CBF04B0BDE8F081B3
:10C5A000287810F0010F05D0FFF7A9FB3C702C7024
:10C5B000FCF735FD287810F0020F07D0FFF78DFE4D
:10C5C000287820F002002870FCF729FD287810F068
:10C5D000040F2FD0E8788DF801808DF8074048F6D9
:10C5E000B8018DF80040ADF804608DF8084048436C
:10C5F000ADF802608DF806408DF80940F7F765F850
:10C60000FCF711FD01280DD00120F6F765FBF7F7C7
:10C6100073F80028F4D06846FDF78FFA0020F7F78A
:10C6200068F8EDE7F7F760F8287820F00200287046
:10C63000FCF7F5FCF8F708F90328A6D004B0BDE82C
:10C64000F08100000007002014821100BE050020C8
:10C65000BF050020C3050020C40500200080FFFFA7
:10C660001607002003490968A1F8E800704702494D
:10C67000C8707047E806002000070020F748C0791E
:10C68000704700220028D8BF7047002100BF491C16
:10C690000829FBDB521C8242F7DB70472DE9F04F83
:10C6A000002283B0EE490092019291F804904F8AE3
:10C6B000B1F810804E79B7FBF9FEB8FBF6FBB1F983
:10C6C0000E5094461446B9F1000F18DD0021002EDB
:10C6D00011DD01EB421330F91330AB4207DD0CEBF7
:10C6E000441A30F91AA05345C4BF14468C46491C5D
:10C6F00009B28E42EDDC511C0AB29145E6DC5CEADF
:10C7000004004FF0010355D0611CD54A0CF1010023
:10C7100000FB0BF0948A00B201FB0EF1D58A09B23E
:10C7200004FB00FC9CFBF8F005FB01F292FBF7F127
:10C7300000B209B28045DCBFA8F1010000B2B942E5
:10C74000A4BF791E09B2C74A1268926912F0040F99
:10C7500014BF23EA020C02F0010CBCF1000F02D05E
:10C76000691A491E09B212F0020F02D0201A401EA7
:10C7700000B212F0040F12BF0A46024608464121D9
:10C780008DF800108DF8013011098DF802100109A3
:10C790008DF8031002F00F0161F31F108DF80400F3
:10C7A0000A208DF805006846FDF72CF903B001203A
:10C7B000BDE8F08F43208DF8000000208DF8013097
:10C7C0008DF802008DF804008DF803008DF8050047
:10C7D0006846FDF717F903B00020BDE8F08F9F49C8
:10C7E00082B26FF30F00C1E9040270479B484078A2
:10C7F00070479A4A0028516914BF41F0020021F0A5
:10C8000002005061704710B55A20F5F71CFB8022DA
:10C810000021B620F5F763FA00220121B620F5F7D2
:10C820005EFABDE81040A520F5F70DBB10B55A2003
:10C83000F5F709FB11220021B620F5F750FA062280
:10C840000121B620F5F74BFABDE81040A520F5F719
:10C85000FABA854810B50068C068804910F0040F26
:10C86000487A16D0022808BF10BD022048725A200C
:10C87000F5F7E9FA80220021B620F5F730FA002218
:10C880000121B620F5F72BFABDE81040A520F5F7F9
:10C89000DABA022818BF10BD012048725A20F5F7F5
:10C8A000D2FA11220021B620F5F719FA0622012149
:10C8B000B620F5F714FABDE81040A520F5F7C3BA85
:10C8C0006648007DC0F340007047644AF02303EAE5
:10C8D0000010516921F0F0010843506170475F4832
:10C8E000007DC0F3031070475C4A0028516914BFF3
:10C8F00041F0010021F00100506170475748007D70
:10C9000000F001007047554B19690A0E120721F01B
:10C910007F4142EA00600843186170474F48006950
:10C92000C0F3036070474F480068406DC0F3036078
:10C930007047012101FA00F04FF47F0101EA004144
:10C9400046480269114301617047012101FA00F074
:10C950004FF47F0101EA00414048026922EA0101E7
:10C96000016170473D480069C0F3074070473B488C
:10C97000008AC0F303307047384A4FF4704C0CEA19
:10C9800000301169C1F3033321F470410843106191
:10C99000184670473148808AC0F38020704770B5D0
:10C9A0002E4E0446C0F380007569C5F3002188420D
:10C9B00018BFF7F7ACF914F0040F14BF45F48070FA
:10C9C00025F4807014F0080F14BF40F4007020F4B8
:10C9D000007014F0200F14BF40F4806020F48060D9
:10C9E00014F0100F14BF40F4006020F4006014F045
:10C9F000800F14BF40F0800020F080007061BDE81F
:10CA00007040FEF753B815484169002011F0400FFF
:10CA100018BF012011F4807F18BF40F0040011F40A
:10CA2000007F18BF40F0080011F4806F18BF40F07D
:10CA3000200011F4006F18BF40F0100011F0800FBB
:10CA400018BF40F0800070470448007DC0F34010DC
:10CA500070470248808AC0F300207047100700200A
:10CA6000F40F0020E806002010821100FE48808AA2
:10CA7000C0F300307047FC484069C0F3003129B171
:10CA8000C0F34010002804BF012070470020704709
:10CA9000F5498A691043886170472DE9F04188465D
:10CAA0000446F5F73AFAF4F79BFAF04A03211268C4
:10CAB000D1611F26EE4D4A271CB1012C12D0022C49
:10CAC00026D001217F20F3F7BFFC1F210E20F3F7B2
:10CAD000BBFC4A210820F3F7B7FC85F8EE6685F821
:10CAE000E87615E001217F20F3F7AEFC15210E203A
:10CAF000F3F7AAFC75210820F3F7A6FC152085F8AA
:10CB0000EE067520D84985F8E80601208870C870BF
:10CB1000B8F1010F04BF0020F7F72CFAF4F763FB1C
:10CB2000BDE8F041F5F7DCB92DE9F04F8246002071
:10CB3000A1B04FF0FF3B1590CDE906BBADF84C001E
:10CB40008DF850001890CDF844B0DAF804501990E0
:10CB50000590DAF8089006468046109020900490E0
:10CB6000C14C1AA81690B9F1000F08D012AA11A949
:10CB70004846FDF70EFE1790FDF709FE10909DB197
:10CB8000BC4A14A913A8069B8DE80F0094F9003045
:10CB900007A92846169AFDF7BFFC0590FDF7B6FCDD
:10CBA0001990FDF7B6FC804661690127C1F340008A
:10CBB000002800F0C880B0480196806811F0400F4E
:10CBC000C0F3072BDAF8000009901998CDE90A089C
:10CBD00016980C96CDE90E6010980D90BDF87C006B
:10CBE000ADF82000A069A66140F400701CBF11F0F0
:10CBF000040F40F0010011F4807F18BF40F00400E2
:10CC000011F4007F18BF40F0080011F4806F18BFC6
:10CC100040F0200011F4006F18BF40F0100011F434
:10CC2000805F18BF40F0400011F0800F18BF40F047
:10CC30008000218AC1F3033140EA0140002918BF76
:10CC400040F48060002D08BF20F001000799B1F189
:10CC5000FF3F04BF01211591E178012904BF0421A0
:10CC6000ADF84C1005D0BDF84C10072908BF67710E
:10CC700002D06179012902D10721ADF84C10159934
:10CC80000091BDF84C3001AA08A901F0D2FB824600
:10CC90000198806820F0080110F0080FE16114BFCE
:10CCA0006770667075490968C96811F0040F05D18D
:10CCB0007349096891F8831177291FD1BBF1A10F3E
:10CCC00004BF6178002919D110F0100F16D0A07898
:10CCD00018B1E07801280BD010E02079E178084302
:10CCE0000CD100210120FFF7D8FEA770E77005E006
:10CCF00000210846FFF7D1FEA67027710198007A3F
:10CD000010F0200FE07A07D070B9E7720122642199
:10CD10000720FFF70EFA07E0012805D1E67200228E
:10CD200064210720FFF705FA019801680029CCBFAC
:10CD300027702670BAF1000F06BF41680029A6725D
:10CD400021D0D0F800B007980028C4BFE681267330
:10CD500006DCE189B0F1FF3F0CBF891C491CE18171
:10CD6000DFF81CA1DAF800100A7F12F0010F64D07E
:10CD7000497FE2898A421CD8E26A012A18BFB0F1D1
:10CD8000FF3F5AD115E0017A4FF0C80211F0400F71
:10CD900002D00796A272D4E7A17A29B1491CC9B280
:10CDA000A172C829F5D2CCE70799012908BFA7725B
:10CDB000C7E7E681E67026716671E089814204D298
:10CDC000012299210720FFF7B4F9E06A012804D174
:10CDD000022299210720FFF7ACF90798B0F1FF3F35
:10CDE00004D1032299210720FFF7A3F965B1209907
:10CDF000CDE900181898DDE90432CDE902B0DDE98B
:10CE00000610F7F7F2FCA672179820B1626A014685
:10CE10001198F7F7D1FC207B401CC0B22073042886
:10CE20000BD905202073A078012806D1012100200C
:10CE3000FFF733FEE670A6702671124D287824287D
:10CE400004BF1998FCF7B0FB2878012804BF199893
:10CE5000FCF7AAFB28780E2804BF1998FCF7A4FB5E
:10CE6000B9F1000F10E0000010070020148211003B
:10CE7000985D00201D070020101600201082110070
:10CE8000E8060020310600201CBF607B022812D07B
:10CE9000DAF8000090F86C0010F0010F0BD0DDE91B
:10CEA0001021BDF94800FDF7A9FD00281EBF012093
:10CEB00021B0BDE8F08F0798216A491C2162002843
:10CEC000C8BF66620ED0217D11F0010F67D02169C5
:10CED000C1F30365A846062D54D2DFE805F0070F1D
:10CEE00016533535616A491C6162ECE700284ADD5A
:10CEF000022000F02BFB30B3022546E0002842DD83
:10CF0000022000F023FBF0B1F6E7002818BFE6622C
:10CF100039D1012000F01AFB002818BF012534D1B7
:10CF2000DAF80000616AB0F85C00884204D3E06A75
:10CF3000012808BFE66226D1002000F007FB002888
:10CF400018BF002521D11EE0002806DD022000F0D8
:10CF5000FDFA002818BF022515D1B8F1040F0DD134
:10CF60006069C0F3003149B1C0F3401030B9052009
:10CF700000F0ECFA002818BF052506D1002000F0CB
:10CF8000E5FA00B10025454509D020693E46010E6D
:10CF9000090720F07F4041EA05610843206121B084
:10CFA0003046BDE8F08FF0B587B00746F7F74CFC88
:10CFB0000546F7F74CFCFF490646052D0CBFFE4C15
:10CFC000AFF29B444869C0F3031118BF052E08D186
:10CFD000C0F300322AB1C0F34010002808BF41F06E
:10CFE00002013846F7F7FCFC002804BF07B0F0BD8B
:10CFF000F6F75DFE07460020F3F773FDF4F7F3F84C
:10D00000FCF711F8012809D0F7F71EFCA84205D15A
:10D01000F7F71DFCB04208BF002F05D0F3F7E0FF83
:10D02000F7F761FD07B0F0BD6846F4F79AFB40B131
:10D030006846FCF722FC6846A0470746F4F7AEFBBB
:10D04000DEE7F7F730FCDBE72DE9F047D94D88B094
:10D05000002628690227C0F30364F3F7C1FFD7490C
:10D0600003200968C86100217F20F3F7EDF9012151
:10D070000320F3F7E9F9F4F7B6F8DFF844834FF04B
:10D0800002094FF0010AFBF7CEFF01280AD0F7F79B
:10D09000DBFB022806D12869C0F30360A04208BF69
:10D0A000002E13D0F4F739FFF7F7CEFB022805D096
:10D0B000F7F7CAFB07460220F7F7D5FB022F1CBF84
:10D0C0003846F7F7D0FB08B0BDE8F0876846F4F7BC
:10D0D00048FB0028D7D06846FCF7CFFBD8F8000003
:10D0E000C06810F0040F687A14D0022826D085F8A2
:10D0F00009905A20F4F7A7FE80220021B620F4F709
:10D10000EEFD00220121B620F4F7E9FDA520F4F799
:10D110009AFE13E0022811D185F809A05A20F4F7ED
:10D1200092FE11220021B620F4F7D9FD062201213A
:10D13000B620F4F7D4FDA520F4F785FE6846FFF786
:10D14000F3FC0646F4F72AFBF4F701FF9BE72DE911
:10D15000F04F87B0F6F7C6F8FDF7D5FB994C20687D
:10D16000B0F93610B0F93400FDF782F996484FF067
:10D17000010A80F8C0A6954880F8C0A62068B0F8DB
:10D180005800C0F303200F2818BFF6F7AAFDDFF8F8
:10D190002482D8F8140040F00100C8F81400F7F712
:10D1A00053FB022840F04481D8F810004FF00009EA
:10D1B000C0F303658348A9000068806DC8F820901B
:10D1C000C84000F00F00C8F82490C8F82890062D39
:10D1D00080F02581DFE805F0D5030303D8D8834626
:10D1E000D8F8140000260227C0F30314022D0BD137
:10D1F000C0F3003131B1C0F34010002808BF44F043
:10D20000020401D024F0020498F80600012817D087
:10D2100021465846F7F7E4FB002800F00081F8F7B4
:10D2200023FEF8F7FDFE0020F6F7A4FE88F806A01E
:10D23000FDF755FB98F8080001280CD058B33AE0E8
:10D2400098F808000128F3D1F7F774FB21465846F7
:10D25000F7F78AFBECE7D8F8140040F00200C8F8B2
:10D260001400D8F8180040F00100C8F81800002099
:10D27000F3F753FDF4F734FE5548016889680068F8
:10D2800041F002018160F3F7AEFF88F8009000F0F2
:10D290009DFF88F80890F3F7A3FE4849032009682A
:10D2A000C86100217F20F3F7CFF800210320F3F7B6
:10D2B000CBF8F3F798FF424C4FF00209FBF7B3FEAF
:10D2C00001280BD0F7F7C0FA022807D1D8F81000D0
:10D2D000C0F30360A84208BF002E11D0F4F71DFE72
:10D2E000F7F7B2FA022805D0F7F7AEFA07460220A0
:10D2F000F7F7B9FA022F1CBF3846F7F7B4FA8EE0F9
:10D300006846F4F72EFA0028D8D06846FCF7B5FA3C
:10D310002068C06810F0040F98F8090014D00228A3
:10D3200026D088F809905A20F4F78DFD802200213C
:10D33000B620F4F7D4FC00220121B620F4F7CFFC8C
:10D34000A520F4F780FD13E0022811D188F809A088
:10D350005A20F4F778FD11220021B620F4F7BFFC23
:10D3600006220121B620F4F7BAFCA520F4F76BFDE4
:10D370006846FFF7D9FB0646F4F710FAF4F7E7FD25
:10D380009CE7FFF761FE4AE00746F7F75DFA0546BE
:10D39000F7F75DFA0646052D0CBF074CAFF677048C
:10D3A000D8F81400C0F3031118BF052E19D1C0F32B
:10D3B00000320FE010070020039D100014821100BE
:10D3C00010821100E8060020985D0020DE07002092
:10D3D000308211002AB1C0F34010002808BF41F08C
:10D3E00002013846F7F7FCFAC8B1F6F760FC0746C9
:10D3F0000020F3F776FBF3F7F6FEFBF714FE0128A7
:10D4000009D0F7F721FAA84205D1F7F720FAB04280
:10D4100008BF002F11D0F3F7E3FDF7F764FBFBF72C
:10D4200002FE012804D0F7F70FFA02283FF4BCAE41
:10D4300007B0BDE8F04FFDF766BA6846F4F791F91A
:10D4400040B16846FCF719FA6846A0470746F4F76A
:10D45000A5F9D2E7F7F727FACFE72DE9F04F002437
:10D4600085B04849049423460E78009401940294B0
:10D47000224604A90394FDF74FF8FDF747F8054647
:10D48000002700940194F7F7DFF93F490528096860
:10D4900051D0888FB1F83EA0C0F30B09000BB9FB47
:10D4A000F0F80020711E04468446EE4602910021E9
:10D4B0000CFB06F3002E2ED935F913203EF91CB0D3
:10D4C000934505DA0DF1040B2EF81C202BF81C10E7
:10D4D0004A451BDD3A4431B105EB430737F9027C7D
:10D4E0003A44474500DD0120029FB94206D205EBD0
:10D4F0004307B7F902703A44474500DD012401288B
:10D500000CBF012C5245A4BF012204920027491CE4
:10D510005B1CB142D0D30CF1010CBCF1020FC6D39D
:10D520001A480078012804BF2846FCF73DF8049803
:10D5300005B0BDE8F08FB1F80001B1F802A1C0F369
:10D540000B09000BB9FBF0F8ABE77047104A022853
:10D55000117D1269C1F30311C2F3074205D00128FE
:10D5600008BF11F0020F0AD002E011F0040F06D03C
:10D57000012101FA00F0104018BF0120704700207F
:10D5800070470000BE050020E8060020310600209C
:10D5900010070020FE487047FE487047FE4800789C
:10D5A0007047FD4840787047034600200246002936
:10D5B000D8BF704753F822C0521C60449142F9DC36
:10D5C00070472DE9F05F0E46054600F0D7FC044693
:10D5D00000F0D0FC310291FBF0FC290291FBF4F346
:10D5E000DFF8B4E3EB4D5E12BEF80490BEF806809F
:10D5F00000214FEA6C2705F5907A002C0BDD01FB2A
:10D6000003F206EB222245F821204AF82120491C8A
:10D6100009B28C42F3DCDE4E002106F5907B002837
:10D620000BDD01FB0CF207EB222246F821204BF820
:10D630002120491C09B28842F3DC0CFB09FC03FBE6
:10D6400008F34FEA6C315A135F13CEF80C102B68B5
:10D650004FEA6C3C9B1A2B6005EB840353F8045C87
:10D66000154443F8045C33685B1A336006EB8003AF
:10D6700053F8045C0D4443F8045C9EF80330002B1F
:10D68000DAF8003017D09B1ACAF800300AEB84038E
:10D690000BEB800053F804CC624443F8042CDBF815
:10D6A0000020521ACBF8002050F8042C114440F806
:10D6B000041CBDE8F09F9A1ACAF800200AEB840205
:10D6C0000BEB800052F8043C3B4442F8043CDBF88E
:10D6D0000020511ACBF8001050F8041C6144E6E712
:10D6E000AE4930B40968AC4A4FF00A0C4C8A098A3A
:10D6F0001423A2F804C0D380A020108140005081E0
:10D70000204630BC5DE7A448C078012818BF00203F
:10D7100070475FEA000C30B4A0489F4B0268508A03
:10D72000118A14D092F854C0528B4FEADC0404FBE7
:10D7300000FCBCFBF2F21A705A700A229A80142282
:10D74000DA80A0221A8152005A8130BC39E70022C7
:10D750001A705A70F1E79148026892F85430508A72
:10D76000B2F81AC0DB084343B3FBFCF3118A8A4AC0
:10D77000137053700A2393801423D380A023138142
:10D780005B005381C0EB0013B3FBFCF393700023E9
:10D79000D37016E72DE9F04FB3B00D460446CC2206
:10D7A0007F49684609F0D5F97C48B5F90220006840
:10D7B000012A90F805C090F80480478A068A6878A4
:10D7C00000FB0CF109B2D8BF01222B78DFF8D4E1BD
:10D7D000EB4683B1ACF101094B45194417D104EB79
:10D7E000410131F9021C0129D8BF0121C902494276
:10D7F00091FBF2F140E004EB4101B1F90210012983
:10D80000D8BF0121C90291FBF2F109B235E004EB66
:10D81000410939F9021C0129D8BF0121B9F9029047
:10D82000B9F1010FD8BF4FF001094FF0640A01FBB5
:10D830000AF109FB0AF901EB620109EB620991FBAC
:10D84000F2F199FBF2F93BF911103BF919904945B6
:10D8500008BF002111D001EB090A1AF5004FB8BF2B
:10D86000F24604DBBAF5004FA8BF47F6FF7AA1EBFA
:10D870000901C90291FBFAF109B2A0B1A8F10109AD
:10D880004845A0F1010909FB0CF90FFA89F99944FF
:10D8900015D134F91940012CD8BF0124E4026442A7
:10D8A00094FBF2F246E003EB0C0934F91940012C29
:10D8B000D8BF0124E40294FBF2F212B23BE034F947
:10D8C0001990B9F1010FD8BF4FF0010900F1010A19
:10D8D0000AFB0CFA0FFA8AFA9A4434F91AA0BAF140
:10D8E000010FD8BF4FF0010A642409FB04F404EBD4
:10D8F000620494FBF2F44FF064090AFB09F909EBA6
:10D90000620999FBF2F23BF914403BF91220944270
:10D9100008BF00220FD004EB020919F5004F05DB08
:10D92000B9F5004FB4BFCE4647F6FF7EA21AD20229
:10D9300092FBFEF212B21B04000403EB011100EB98
:10D94000021201F5004002F5004190FBFCF091FB52
:10D95000F8F1704301FB07F100144FEA21414CBF7D
:10D9600000220246B242C8BF304602DC0028B8BFDF
:10D9700000200029B4BF00220A46BA42C8BF394677
:10D9800002DC0029B8BF0021A5F880000CE00000EF
:10D99000007D0020907D0020440700205C070020CF
:10D9A0007C8611000080FFFFA5F8821033B0BDE82F
:10D9B000F08F70B5A4B00D46044616469021684617
:10D9C00009F023F90023002CC8BF684609DD55F88B
:10D9D000231056F82320514340F823105B1C9C422F
:10D9E000F5DC002368461A46002C05DD50F82210AD
:10D9F000521C0B449442F9DC4FF0000C6246002CA0
:10DA000005DD55F82200521C84449442F9DC93FB56
:10DA1000FCF024B070BD2DE9FF4FADF54F7D0D46F4
:10DA2000064690469021684609F0EFF8902124A818
:10DA300009F0EBF8902186A809F0E7F89021AAA850
:10DA400009F0E3F800F070FA00F07FFA00F09AFABB
:10DA5000074600F08FFA044600F090FA7190FA48F9
:10DA60000068418A8591008ACE9098F8012098F844
:10DA70000000F649729102FB040090394891285C3D
:10DA800000F03F0A98F80C00499098F80D3098F88B
:10DA90000FB098F80E105B459CBFE8460DF1900E54
:10DAA00023D8499A03FB04F01FFA80F98A4218D858
:10DAB00009EB020036F910C0285C00F03F00504529
:10DAC0000BD1BC4509DB58F82200604448F822001D
:10DAD0005EF8230060444EF82300501C82B28A4254
:10DAE000E6D9581C83B25B45DBD900216A4608465B
:10DAF000002C7CDD52F82030401C1944A042F9DB98
:10DB0000002974DD0021719A24AB0846002A6EDDDD
:10DB100053F820C0401C61448242F9DC002966DDD4
:10DB200069462046489AFFF744FFDFF824930546EC
:10DB300099F80300D8BB489EA04606EB8804EB4644
:10DB400054F804ACA422C34948A8376809F001F886
:10DB500048A9CB2D0ADC7B2D01DC282015E0C5F17E
:10DB6000CB0000EBD07040101ED40EE042F23470B7
:10DB7000A84219DC42F284708542EEDAA5F51C5009
:10DB8000343800EBD07040100ED451F820003246EB
:10DB9000391A316054F8041C084444F8040C5946FE
:10DBA0004046FFF706FF0546376044F804AC24A959
:10DBB000729A7198FFF7FDFE99F80310E9BBDDF842
:10DBC000C491729E044606EB89070DF1900B57F83D
:10DBD00004ACF422A04948A8D6F8008008F0B9FFA8
:10DBE00048A9642C08DC282C02DC3C2010E037E03B
:10DBF000D4F164001CD40BE041F21460A04217DCA5
:10DC000041F250608442F0DAA4F5B05014380FD4D9
:10DC100051F820003246A8EB0001316057F8041C8F
:10DC2000084447F8040C59464846FFF7C2FE04462C
:10DC3000C6F8008047F804AC2046002DB8BF002588
:10DC40000028B8BF0020CE99491E8D42C4BFCE998E
:10DC50004D1E8599491E8842C4BF8598401E01E02B
:10DC600000252846D2990D80DC9908800DF5537D5A
:10DC7000BDE8F08F10B4794992B0B1E81C108DE87E
:10DC80001C10B1E81C10CDE90423CDE9064C51F875
:10DC9000042B0892B1E81C10CDE90923CDE90B4C07
:10DCA000B1E81C10CDE90D23CDE90F4C09681191A5
:10DCB0000479B0F8802041786B460DF1240C012CDA
:10DCC00005D0B0F93640B4F5E17F18DD07E0B0F9D2
:10DCD0003440B4F52F7F02DC0478142C07D833F8D5
:10DCE00011101144A0F8801012B010BC70473CF81D
:10DCF00011101144A0F8801012B010BC70470478C5
:10DD0000142CF4D8EBE72DE9F74F4F488B4684B03D
:10DD10000168144691F8560091F8551000F07F0AFA
:10DD200001F07F08C709CE0900F0FEF800F00DF9F8
:10DD300000F016F994F85B1001EB011202EB4111AF
:10DD400000EB810500F01AF9814602A8009001ABB2
:10DD5000224659460498FFF75EFE0AEB8A00C1B2DC
:10DD600008EB8800C2B2002F1CBF4842C1B2002E8F
:10DD70001CBF5042C2B2BDF804000844A4F88000A1
:10DD8000BDF808001044A4F8820095F8AC00012802
:10DD900004BF287800280AD1687800281CBFA9F1A0
:10DDA0000101884203DA94F8AD00012807D095F804
:10DDB000BC0001280BD1E088E988884207D3B5F878
:10DDC0008000A4F88000B5F88200A4F8820094F8DE
:10DDD000BF0001210222022813D003281CBF07B074
:10DDE000BDE8F08F84F8C11095F8C100012820D05B
:10DDF000022812BF0328032084F8C10007B0BDE841
:10DE0000F08F84F8C11094F8AC0000281CBF07B054
:10DE1000BDE8F08F94F8B60000281FBF94F8B90051
:10DE2000002807B0BDE8F08F84F8C12007B0BDE836
:10DE3000F08F94F8B600002804BF94F8AC000028D6
:10DE4000F2D007B0BDE8F08F5C070020B07E002064
:10DE50004407002048871100EC871100E08811007A
:10DE600010B5044600F060F800F07AF8014694F826
:10DE70005B0000EB001202EB401001EB800101207F
:10DE800084F8C00094F8C100022202280FD00328B1
:10DE900018BF10BD91F8C000022811BF032803204D
:10DEA00084F8C00010BD94F8AE0028B110BD94F8FD
:10DEB000AE00002818BF10BD84F8C02010BD10B5FA
:10DEC0001446FFF720FF00F02FF800F049F894F80F
:10DED0005B1001EB011202EB411100EB810101200B
:10DEE00084F8C00094F8C100022202280FD0032851
:10DEF00018BF10BD91F8C000022811BF03280320ED
:10DF000084F8C00010BD94F8AE0028B110BD94F89C
:10DF1000AE00002818BF10BD84F8C02010BD00005E
:10DF2000A4487047A4487047A44840F231110078D3
:10DF30004843A34901EB40007047A048F5214078D1
:10DF40004843A04901EBC00070479C4840F23111A2
:10DF5000007880F001004843994901EB4000704788
:10DF60009648F521407880F001004843954901EB3F
:10DF7000C000704791488068407970478F4880683A
:10DF8000007970478D488068B0F90C00704710B474
:10DF90008D4991B0B1E81C108DE81C10B1E81C103F
:10DFA000CDE90423CDE9064CB1E81C10CDE90823E6
:10DFB000CDE90A4C91E80E100CAC84E80E103DF946
:10DFC000100011B010BC70477C480079C0F3C0004D
:10DFD00070477A480179C1F3C001002912BF1920A6
:10DFE0008068B0F90E0070477448017881F0010133
:10DFF000017070477148417881F0010141707047AC
:10E000004FF4F56108F001BE40F2622108F0DBBD7B
:10E010002A2108F0D8BD694910B58860FFF79BFB3D
:10E02000BDE8104001F0B9B96448017881F0010100
:10E030000170417881F00101417070475F4988703B
:10E0400070475E48807870475C49C87070475B488D
:10E05000C0787047594948607047584840687047D1
:10E0600056488168497A11F0010F12BF00204068BC
:10E07000C0F30070704751480079C0F380007047CA
:10E080004E484068C0F3806070474C480079C0F348
:10E09000C010704749480079C0F3001070474749E5
:10E0A00000200A7912F0040F08BF70478978092907
:10E0B00014BF0A290120704740F2311200203F4965
:10E0C000097851433E4A02EB4101897A022908BF8F
:10E0D000012204D00022032908BF012300D000231D
:10E0E0001A4305290CBF01210021114318BF01204B
:10E0F00070472DE9F041054630484FF410718068B3
:10E10000067944792B4808F080FD0027002E8CBF4B
:10E11000DFF8A080BDE8F0810121012C1ED907FBAA
:10E12000041082B205EB420035F912C030F9020C3E
:10E13000B0EB0C0348BFACEB00031BB2C82BC8BF4D
:10E14000C823DBB208F80230012904BF08EB020043
:10E1500000F8013C481CC1B2A142E0D3781CC7B210
:10E16000B742D9D3BDE8F08170B5044613480D46D7
:10E17000F52140784843134901EBC0004FF4F561A5
:10E1800008F043FD2046FFF7B4FF2946204602F081
:10E19000EAFD05F004FE204604F094FF29462046DF
:10E1A00003F0A3FC0146204600F06FFFBDE870407D
:10E1B00004F0E8B880930020407F0020540700203E
:10E1C0006A7F0020308400202889110070B5FFF795
:10E1D000ABFE0446FFF7B9FE0546FFF7A3FE064671
:10E1E00002F0E8FD2046FFF70FFF2846FFF70CFF7F
:10E1F0003046BDE87040FFF70BBF2DE9F041044603
:10E20000FFF792FE0546FFF7A0FE0646FFF78AFEDF
:10E2100007462046FFF7FFFE02F0CCFD2846FFF739
:10E22000F3FE3046FFF7F0FE3846BDE8F041FFF759
:10E23000EFBE70B5FFF778FE0446FFF786FE054691
:10E24000FFF770FE06462046FFF7DEFE2846FFF782
:10E25000DBFE3046FFF7DCFEBDE8704002F0AABDF1
:10E2600070B50446FFF78AFE0646FFF783FE0546B3
:10E27000FFF75AFE237AA27A217B94F80EC000247D
:10E28000934298BF614507D98471691E0172C471B8
:10E29000711E4172C47406E083710272C17180F80C
:10E2A00009C00121C1748472C4730474447470BDC4
:10E2B00010B50446FFF75EFE14234FF0000C002C4F
:10E2C0001CBF002100280ED934F91120002AB8BF44
:10E2D000524292B29A4202DD4FF0020C03E0491C16
:10E2E000C9B28142F0D3604610BD2DE9F047002647
:10E2F0001746884681463546FFF716FE0446FFF767
:10E3000024FE034609F0FF00022818BF012807D0A9
:10E31000042818BF072803D0987A022815D021E0D6
:10E320000221A1720121E172042808BFA173012812
:10E3300008BF84F85812072808BF84F86112012624
:10E34000187B20733046BDE8F087587C48B9187BAD
:10E35000012806D07B484068B84203D2D87A012809
:10E3600000D10225A572002D0CBF0020D87AE072E2
:10E3700018BF012684F85882E2E770B50546FFF71A
:10E38000D3FD0446FFF7E1FD29886180E969097C36
:10E390002170E969897C617090F85A1284F85A12E8
:10E3A000017D217590F85D1284F85D12407D28B1E1
:10E3B000644909783C293CBF607570BD00206075D8
:10E3C00070BD2DE9F04115460E460746FFF7ACFD3E
:10E3D0000446FFF7A7FD0023002F04BF84F85A323C
:10E3E00080F82830207C574A002818BF93600FD04F
:10E3F000A07D012804BF1370BDE8F0811078401C97
:10E40000C0B210703C2824BF3C201070BDE8F081E1
:10E410009068401C9060A842EAD99560237584F802
:10E420005D32012EE4D1A372E37284F85832237373
:10E43000DEE72DE9F84F8146002514209B469246E1
:10E440000E462C464FF03C080090FFF76DFD074646
:10E450004846FFF7FFFD3846FFF7D6FD0BF0FF00FB
:10E46000042808BF4FF05A0819F0010F4FF00009B7
:10E4700048D0F069FFF7F4FE5846009A0A99FFF772
:10E4800034FF8346FFF750FD0546FFF75EFD3188F8
:10E490006980F169097C2970F169897C697090F85B
:10E4A0005A1285F85A12017D297590F85D1285F887
:10E4B0005D12407D28B1234909783C2938BF687531
:10E4C00001D385F81590D6E90201FFF74DFE054608
:10E4D0005946009AFFF775FF787D002818BF082479
:10E4E000B87A022808BF44F02004787B012808BFCE
:10E4F00044F0100497F86002012808BF44F040047B
:10E50000FFF792FD10480560B7F902104145C6BFFC
:10E51000397C4160C0F804908460CAF80000284645
:10E52000BDE8F88F01207047012070470120704737
:10E53000012070470348407870470249487070478F
:10E540000020704760070020C09500204FF6FF7143
:10E55000A0F88010A0F88210A0F88410A0F886100F
:10E56000A0F88810A0F88A10A0F88C10A0F88E10DF
:10E5700070472DE9F04F85B0FFF7DFFC0490FFF7FF
:10E58000D3FC00252C460090FFF7F4FC0098007D9A
:10E5900001280CBF4FF4DE71DE210098FE4A4FF0D7
:10E5A0000008407C012888BF82F800801CBF05B0AD
:10E5B000BDE8F08F4FF000070098007C00289CBF5A
:10E5C00005B0BDE8F08F07EB071000EB4712049889
:10E5D00000EB820090F8C0C0BCF1020F18BFBCF184
:10E5E000030F40F08681EC4E3278039252B3EB4B2E
:10E5F000F278029233F822B0B0F88230BBEB030914
:10E6000054BF4A46A3EB0B028A42B8BF0124DFF88D
:10E6100090A3E14A127901923AF822A0B0F8802042
:10E62000BAEB02064CBFA2EB0A0EB6468E45B8BF47
:10E630000125BCF1020F1ED0BCF1030F00F0FB80DE
:10E6400000F0F4B8BCF1020F40F053810122D34B2B
:10E650003270B0F882C0A3F800C05A80B0F88030A1
:10E66000CF48038042807270B27086F8038086F8CB
:10E67000048000F03EB954EA050C04D0002C6DD0A3
:10E68000002D7DD0D2E0C44E4FF0000AD44696F85B
:10E690000190B9F1000F88BFDFF800E328D93EF8F8
:10E6A0002CB0BBEB030648BFA3EB0B068E4216DA79
:10E6B000B94E86F803C0019A521CD3B23371B278B6
:10E6C000521CD2B2B2700F2A2EBF86F80080B44A14
:10E6D00002EB830280F00D81A2F80280A6E00CF12B
:10E6E000010C0CF0FF0CCC45D9D3BAF1000F4FD17F
:10E6F000DFF8A4C200239CF802B0BBF1000F88BF72
:10E70000DFF89CE226D93EF82360B6EB020C48BF46
:10E71000A2EB060C8C4516DADFF87CC28CF80430CC
:10E72000029A09F10103521CD2B2DBB28CF8032029
:10E730008CF801300A2B3CBF984B03EB8202CBD301
:10E740008CF80080D5E05B1CDBB25B45DBD3BAF113
:10E75000000F6BD1904880F80080CAE0DFF838E203
:10E760004FF0000A52469EF80190B9F1000F88BFA1
:10E77000DFF828B214D93BF82260B6EB030C00E0B6
:10E7800023E048BFA3EB060C8C4502DA8EF8032089
:10E790004CE0521CD2B24A45EDD3BAF1000F45D13C
:10E7A000029A09F10103521CD2B2DBB28EF80320A7
:10E7B0008EF801300A2B02D38EF8008099E0774B57
:10E7C00003EB8202A2F8028030E0DFF8CCE14FF0E8
:10E7D000000A53469EF80290B9F1000F88BFDFF897
:10E7E000C0B112D93BF82360B6EB020C48BFA2EBD4
:10E7F000060C8C4502DA8EF8043017E05B1CDBB2A5
:10E800004B45EFD3BAF1000F10D1019A09F1010382
:10E81000521CD2B2DBB28EF804208EF802300F2BDD
:10E82000CAD25F4B03EB8202A2F80280039A5A4ECF
:10E83000012A12D05DE0DFF860C1B9F1000F48BFD6
:10E84000A3EB0B098945BFF67BAF002E48BFA2EBB7
:10E850000A068E42BFF674AFE8E7DFF84091F2781F
:10E8600009EB820CBCF80230F3B342F2107A534544
:10E870000DD2B0F882A039F822B00BFB03AA5B1CC2
:10E880009BB2ACF80230BAFBF3F329F8223039F826
:10E890002230B0F882209B1A03EBD37302EB6302A1
:10E8A000A0F88220DFF8F890327909EB820CBCF8EE
:10E8B000023083B342F21076B3420DD2B0F88060DA
:10E8C00039F822A00AFB03665B1C9BB2ACF802304D
:10E8D000B6FBF3F329F8223039F82230B0F8802063
:10E8E0009B1A03EBD37300E00DE002EB6302A0F888
:10E8F0008020781CC7B20098007CB8423FF663AE17
:10E9000005B0BDE8F08FB0F8823029F8223001223E
:10E91000ACF80220C6E7FFE7B0F8800029F8220033
:10E920000120ACF80200E4E72DE9F047FFF705FB12
:10E930000446FFF7F9FA0246007D01280CBF4FF4A8
:10E94000DE707820517C174D0026A5F10C070129B7
:10E9500007D098BFBDE8F0873E722E806E80BDE87C
:10E96000F08792F810C04FF00001BCF1000F98BF83
:10E97000BDE8F08701EB011202EB411204EB8202C9
:10E9800092F8C030022B18BF032B0DD0491CC9B21E
:10E990008C45EFD8BDE8F0876C070020CC950020AF
:10E9A000F4950020780700203B7A012B14D0002B2F
:10E9B000F0D101EB011000EB411004EB800090F866
:10E9C000C0000228E6D101203872B2F88000288009
:10E9D000B2F882006880DDE701EB011303EB41131D
:10E9E00004EB8303B5F80090B3F88030B5F80280EB
:10E9F000A9EB03030FFA83FCB2F88230BCF1000FDD
:10EA0000A8EB03031BB2B4BFCCF1000AE2465045A9
:10EA100038DB002BB4BFC3F1000A9A46824531DCD3
:10EA200092F8C000022815D042F6AB200CFB00F093
:10EA30000114A1EBE07142F6AB2058430314A3EBA1
:10EA4000E070A9EB0101A2F88010A8EB0000A2F889
:10EA500082009FE746F267600CFB00F04114A1EBD7
:10EA6000E07146F2676058434314A3EBE073A9EBEF
:10EA70000100A2F88000A8EB0301A2F88210288010
:10EA8000698087E73E722E806E8092E72DE9F04F15
:10EA900083B0FFF752FA0446FFF746FA0746FFF73E
:10EAA00069FA0190FFF76AFA0090787CFF4E012521
:10EAB0004FF0000A01280DD09CBF03B0BDE8F08FD5
:10EAC000757186F807A003B04FF00100BDE8F04F64
:10EAD000FEF706BE7079B8B1397C002000299CBFD2
:10EAE00003B0BDE8F08F00EB001202EB401204EB24
:10EAF000820292F8C020022A6FD0401CC0B281422C
:10EB0000F1D803B0BDE8F08F97F810B00023BBF147
:10EB1000000F9CBF03B0BDE8F08F4FF0020EDFF88E
:10EB2000908308F1060903EB031000EB431204EB9A
:10EB3000820191F8BF00022805D0032804BFB079F4
:10EB4000022832D078E003EB031000EB431014F8F6
:10EB50002000012816D9019B9B1E984212DA04EB73
:10EB60008200407801280DD9009B9B1E984209DA4B
:10EB7000757186F807A00120FEF7B2FDB57103B0EC
:10EB8000BDE8F08F04EB820086F806E0B0F8800064
:10EB9000A9F80000B1F88200A9F8020088F800A0E6
:10EBA00088F801A003B0BDE8F08FB9F80000B1F813
:10EBB0008070B1F882C0C21BB9F80200A0EB0C0152
:10EBC0004CBF50421046F02818DD98F8000028B1DC
:10EBD00001280AD002280CD00EE035E0002AB4BF8C
:10EBE00088F8005088F800E006E0002A3FF768AF98
:10EBF00002E0002AFFF664AFA9F800700029B4BF54
:10EC000048420846F02817DD98F8010020B1012895
:10EC100009D002280BD00DE00029B4BF88F80150BC
:10EC200088F801E006E000293FF74AAF02E000293A
:10EC3000FFF646AFA9F802C0581CC3B29B453FF689
:10EC400072AF03B0BDE8F08F86F807A003B0BDE84F
:10EC5000F08F2DE9F041044696480068C68A858AFF
:10EC6000FFF77EF9024694F8C0000023022823D063
:10EC7000032818BFBDE8F081207903281CBFB4F831
:10EC80008C000A2898BFBDE8F081A6F10B0C604506
:10EC9000A8BFBDE8F081B4F88E000A2898BFBDE88F
:10ECA000F081A5F10B018842A8BFBDE8F08194F87E
:10ECB000B300012842D064E07C4901224879002851
:10ECC000B4F88C0019D00A280DD9A6F10B0C6045B8
:10ECD00009DAB4F88E000A2805D9A5F10B0C6045B5
:10ECE000B8BFBDE8F0810B7284F8B3204A71CB71D4
:10ECF000BDE8F0410120FEF7F3BC0A280DD3A6F1D0
:10ED00000B0C604509DCB4F88E000A2805D3A5F188
:10ED10000B0C6045D8BFBDE8F0810B7284F8B320BE
:10ED20002079032808BFBDE8F08184F8B4204A7137
:10ED3000CB71BDE8F0410120FEF7D2BC94F85B0036
:10ED400000EB001707EB401002EB80000B27B0F838
:10ED50008C200A2A98BFA4F88C7005D96245A4BFFC
:10ED6000A6F10C02A4F88C20B0F88E000A2898BFF7
:10ED7000A4F88E7005D98842A4BFA5F10C00A4F8B0
:10ED80008E0084F8B330BDE8F0812DE9F04FADF589
:10ED9000197DFFF7D2F89390FFF7C6F80646FFF704
:10EDA000D4F80446FFF7DCF8929006F1170004F15E
:10EDB00017059090FFF7DEF800279190307C3C46D5
:10EDC0003B46002871D903EB031000EB43119398E5
:10EDD00000EB810191F85B0000EB001202EB4012A6
:10EDE000929800EB820991F8AF00012868D191F860
:10EDF000BF00022818BF032862D1601CC4B291F87A
:10EE000059202D4800EB820C3CF8048CA8F57F407B
:10EE1000FF381FBF3CF8022CA2F57F40B0F1FF0085
:10EE2000404604BFB9F80600B9F80820B1F80690CA
:10EE3000CDF8549209F1050ADFF88090A9FB0ABACF
:10EE4000CAF3CF0ECDF860E2B1F808E0CDF850E299
:10EE50000EF1050AA9FB0ABACAF3CF0ACDF85CA2E3
:10EE600000F1050AA9FB0ABACAF3CF0B02F1050AA1
:10EE7000A9FB0AA9C9F3CF0ADDF854924CF6CD4E8E
:10EE800009FB0EF94FEAD949CDF85892DDF850E266
:10EE90004CF6CD490EFB09F94FEAD949CDF8549209
:10EEA0004CF6CD4900FB09F90BE040E06C0700206F
:10EEB000760700205C07002030960020CDCCCCCC1B
:10EEC0002DE04CF6CD4E02FB0EFE4FEADE4ECDF8A5
:10EED00050E2DDF860E24FEAD949DE4504BFDDF8D3
:10EEE0005CB2D34507D0DDF858A2CA4504BFDDE9BE
:10EEF000949ACA4513D17F1CDFF8A0924FF6FF7A8F
:10EF0000FFB2D04504BF3CF8028CD04507D12CF8A5
:10EF1000040C91F8590009EB800020F8022C581CD1
:10EF2000C3B2307C98423FF64EAFA7427ED1707C90
:10EF300002287BD39A49487A401CC0B248721E28E6
:10EF40003CBF0DF5197DBDE8F08F1E2048724FF4CF
:10EF500010726846909907F0B7FD307C4FF0000BB7
:10EF6000002874D90BEB0B1000EB4B11939800EBBE
:10EF7000810191F85B0000EB001202EB40129298C5
:10EF800000EB820291F8AF00012859D191F8BF003F
:10EF9000022818BF032853D10B7891F801C091982B
:10EFA0000CFB00339098C05C0B7B00F03F0A107B99
:10EFB000984238BF0873507B4B7B984238BF4873E8
:10EFC000907B8B7B984288BF8873D07BCB7B9842A9
:10EFD00088BFC873087B95904C7B9494137892F803
:10EFE00001C0919A91F80F800CFB0232887BAA5CD9
:10EFF000444502F03F091CD8919A624397B2959A12
:10F00000824210D8BB1815F803C00CF03F0ECE4555
:10F0100005D12CF03F0C4CEA0A0C0DF803C0521C31
:10F0200092B28242EED9621C94B200E019E04445EB
:10F03000E2D9959A0A73949A4A73887381F80F807B
:10F040000BF1010000F0FF0B307C58458AD84FF4DB
:10F0500010726946909807F037FD0DF5197DBDE8EF
:10F06000F08F4F4800214D4A417208464FF6FF711C
:10F0700022F8201002EB8003401CC0B259800A28FD
:10F08000F6D30DF5197DBDE8F08F2DE9F0470F4659
:10F090008246FEF752FF0646FEF746FF0446002F63
:10F0A00057D1207C04F11709002852D0FFF76DFEDC
:10F0B000207C0025002888BF4FF6FF7822D905EB79
:10F0C000051000EB451006EB800292F8AF00012816
:10F0D00013D1A2F88080A2F88280A2F88480A2F8DE
:10F0E0008680A2F88880A2F88A80A2F88C80A2F894
:10F0F0008E8049465046FEF7E2FE681CC5B2207C71
:10F10000A842DCD8002510F0FF0F22D005EB051037
:10F1100000EB451006EB800090F8C010022918BFE4
:10F12000032906D090F8C110022918BF032903D083
:10F130000AE000F0F4FE07E0B0F88010A0F88410B8
:10F14000B0F88210A0F88610681CC5B2207CA842D6
:10F15000DCD8207C0025002898BFBDE8F08705EBAF
:10F16000051000EB451006EB800090F8AF10012968
:10F170000CD190F8BF10022918BF032906D190F8CE
:10F18000B810002904BF394601F0B4F9681CC5B2B3
:10F19000207CA842E3D8BDE8F0870000309600202C
:10F1A0006C070020F8484078002818BF01207047FD
:10F1B000F648006890F8580000F001007047F349E5
:10F1C00009688A6D60F300028A657047EF4B10B4DE
:10F1D000D3F800C0BCF8123003FB00F4BCF81A00EE
:10F1E0005943B4FBF0FCB1FBF0F10CFB0CF4DFF87D
:10F1F000A0C34943CCE9084103FB02F1B1FBF0F0A5
:10F200004043CCF8280010BC70474FF6FF7202EA6A
:10F210000023DF4802EA0121C38501864FF4A05193
:10F2200041864910818670472022D94906280ED28E
:10F23000DFE800F00D030D05080A102000E0402073
:10F24000888570478020FBE74FF48070F8E78A8557
:10F25000704700B502220A210C20FFF7B7FFDFF844
:10F260002CC30A231422DCF8000090F85C00C0F3E1
:10F27000031100F00F00FFF7C8FFDCF80000B0F842
:10F280005C005DF804EBC0F30330CDE72DE9F041FD
:10F2900090460D460446FEF747FEBE48BB4E471952
:10F2A0000A380544BCB1012C3AD0022C4DD0032CB5
:10F2B00018BFBDE8F08104220E210F20FFF786FF62
:10F2C00030680A231422B0F85C00C0F30320014622
:10F2D000FFF79BFF1CE002220A210C20FFF776FFBC
:10F2E00015F8010C002801BF17F8010C002898F848
:10F2F000BF00032830684FF00A034FF0140290F863
:10F300005C00C0F3031100F00F00E1D1FFF77DFFB7
:10F310003068B0F85C00BDE8F041C0F3033083E72B
:10F3200002220E210F20FFF751FF30680A2314221A
:10F33000B0F85C00C0F3032100F00F00491CFFF798
:10F3400064FFBDE8F04104206EE715F8010C0128C8
:10F3500004BF17F8010C01284FF0040219BF112156
:10F3600012200C210D20FFF731FF15F8010C0228A7
:10F370003068C06D18BFC0F30351C0F303404FF0B5
:10F380000A034FF0140208BF0321FFF73EFF306865
:10F39000C06DBDE8F041000F46E730B57B4C7A4DBB
:10F3A00002222068418A408B8900B1FBF0F0404383
:10F3B000A8600A210C20FFF709FF20680A23142205
:10F3C00090F85C00C0F3031100F00F00FFF71DFF81
:10F3D0002068B0F85C00C0F30330FFF725FF05F1AB
:10F3E00010014FF6FF700880488005F10C004FF0C7
:10F3F000FF31018041800020287030BD644B03EB59
:10F40000400003898B4288BF991A38BF991808BFFA
:10F410007047018170472DE9F04F83B09B460D4640
:10F420000446FEF781FD0190FEF79AFD024657481B
:10F4300094F859A0DFF850E10068554B418A408BA1
:10F44000C1EB0111890091FBF0F094F8C01040432A
:10F45000022911D0A3F1500101EBCA0151E9026761
:10F4600094F85810B5F800800229B5F8029094F885
:10F47000A81014D041B335E0002103EB0A0C2E880C
:10F480006F880CF8011C03EB4A08B3F834C0A8F8E5
:10F4900008C0BAF1010F08BF8EF80110E0E709B308
:10F4A00094F85B1001EB011C0CEB411102EB8101A4
:10F4B00091F8A810B1B903EB4A02198EB2F808C04E
:10F4C0008C4588BF11810DE0834524BF94F8C0109E
:10F4D000032907D103EB4A011A8EB1F808C09445FD
:10F4E00088BF0A812179022918BF032906D094F820
:10F4F000A81019B9834538BF998E00D3598E598603
:10F5000094F8A8C0BCF1000F08D1834594F8C0005E
:10F5100002D2032813D101E0022810D061469A6A72
:10F520005A4588BF022100919EF80110012200294E
:10F5300004BFBAF1010FBCF1030F0BD101E00221AE
:10F54000EDE713488EF801204189188E814284BF6F
:10F550000F4948810E4B0C990098D3F820C0DC4528
:10F5600003D8022801D0012908D0094B4FF0020E20
:10F570005A6A5A4510D902281ED10DE00448504459
:10F5800000F8012C24E00000800700205C07002028
:10F59000A8960020EA96002071B15A4598BFE3452D
:10F5A0000FD202280FD003EB0A0010F8011C032928
:10F5B00008BF00F801EC0BE003EB0A0000F801ECD7
:10F5C00006E0022804D103EB0A00032100F8011C25
:10F5D000FEF7AAFCFE4B864603EB0A02988D12F852
:10F5E000012C198EB3F82EB0B3F832C0022A04D021
:10F5F000012A1CD0032A6DD032E003EB4A0201EB52
:10F60000410CB2F808B0E34506D99EF80AB0BBF148
:10F61000000F08BFA2F808C0B2F808C08C4588BF28
:10F62000ACEB000038BF60441AD0108118E003EB47
:10F630004A0CBCF8082091420AD2501AA2EB600092
:10F64000000A4FF6FF7101EA0020ACF8080007E05D
:10F650005A4588BF101A38BF104401D0ACF80800D2
:10F6600003EB4A000289002A04BF002001461FD094
:10F670001046B2F5807F36BF4FF4807101464FF4DB
:10F680008072D448009B022B2ED094F859C00023DE
:10F690000CF80030A1F58070704300EB0820B0FB3F
:10F6A000F1F0A2F58071794301EB0921B1FBF2F190
:10F6B00094F85930C84A02EBC30343F8080C94F895
:10F6C000593002EBC30242F8041CA880E98003B061
:10F6D000BDE8F08F03EB4A021189614588BF081A23
:10F6E00038BF0844A1D1BBE794F859C01CF80030DA
:10F6F000FA2B3CBF5B1C0CF8003094F85930185CB6
:10F700003C28C7D30198090A120A407C0228B34852
:10F71000006818D3B0F818A0B0F81AC00AFB08F3B4
:10F72000B0F810800CFB09F9408AB3FBF8F30AFB30
:10F7300006FA0CFB07FCB9FBF0F9BAFBF8F8BCFBC6
:10F74000F0FCB34617E0B0F814A0B0F816C00AFBFE
:10F7500008F3B0F810800CFB09F9408AB3FBF8F30A
:10F760000AFB06FA0CFB07FCB9FBF0F9BAFBF8F848
:10F77000BCFBF0FCB346A1F1010000FB0830B0FB7C
:10F78000F1F3A2F1010000FB0C90B0FBF2F2934800
:10F790000168B1F8109009FB03F009D3B1F8189093
:10F7A000B1F812A0B0FBF9F00AFB02F9498B08E0AE
:10F7B000B1F81490B1F812A0B0FBF9F0C98A0AFBB5
:10F7C00002F9B9FBF1F1434518BF62457FF470AF10
:10F7D000434508BF5846624508BF394668E72DE9EA
:10F7E000F04F90F859C08FB04FF4806300290CBFE0
:10F7F0007B4C7C4C04EB4C147B4D029205EB4C177C
:10F8000005F5A5756544203C15F8015C07EB051668
:10F8100006EBC10858F8206C921B039290F8C000C8
:10F8200002287CD058F81C8C04EB051206EB080962
:10F83000CDF83090D2F80490D6689568106809EB3E
:10F840000602DFF8A89128441044D9F800A03544F6
:10F850005044D9F804A05244D9F808A0D9F80C9023
:10F8600055444E44DDF808A0DDF83090AAEB0909B4
:10F87000CDF82090DDF80C90DFF874A1A9EB080911
:10F88000CDF82C90DAF8009009EB000ECDF828E0C6
:10F89000DAF80490DAF808B0DAF80CA09144B2442F
:10F8A000AB440EFB0AFE09FB1BEE9EFBF3FEBEF112
:10F8B000000F08BF4FF0010E4FEA8A2A9AFBFEFAAA
:10F8C0004FEA892999FBFEF9CDF838A0C9F1000A61
:10F8D0004FEA8B29CDF834A0DDF828A099FBFEF97A
:10F8E0004FEA8A2A9AFBFEFBDDF838A0C9F100092D
:10F8F00000FB0AFA02FB09AA9AFBF3FEDDF834A02A
:10F90000CDF828E000FB0AFA02FB0BAA9AFBF3FEF3
:10F91000CDF824E0DDF838A005FB0AFA00E073E03A
:10F9200006FB09A999FBF3F9DDF834A0CDF838906E
:10F9300005FB0AF906FB0B9999FBF3FADDF828E0C1
:10F94000DDF820900EFB09FBDDF824E0DDF82C90BB
:10F950000EFB09BEDDF820B0DDF838909EFBF3FE0B
:10F9600009FB0BFBDDF82C900AFB09B999FBF3F9B5
:10F97000C844DDF830B0DDF83890F344CDE900B884
:10F98000DDF828E0C9F10009CEF58068DDF824E053
:10F99000CAF5806ACEF1000B08FB00FE0BFB05EEFA
:10F9A00008FB02F809FB00F00BFB06880AFB0500C8
:10F9B0009EFBF3FE98FBF3F890FBF3F0CDF810E01C
:10F9C000CDE9058009FB02F00AFB060012E0000009
:10F9D000A89600209D970020589600205C070020E4
:10F9E000A8970020E8980020289A0020BC07002053
:10F9F000CC07002090FBF3F00022E84604AE07900D
:10FA0000FE4800EB0C0315E0FC4A00206244039022
:10FA100012F8012C02AB07EB021202EBC10253F801
:10FA2000204002EB8005401C00B245F8204C022823
:10FA3000F5DB20E013F8015C58F8220007EB051510
:10FA400005EBC10505EB820545F8200C002006EB0F
:10FA5000C20513F801AC55F8209004EB0A1A0AEB22
:10FA6000C20A4AF82090401C00B20228F1DB501C68
:10FA700002B2022ADEDBE148604410F8010C07EB19
:10FA8000001000EBC10050F8200C0FB0BDE8F08F63
:10FA900070B4012803BF022401204FF0000C04249D
:10FAA0001CBF03204FF0010C0026D54D0029C8BF14
:10FAB000204609D00CEB8C0105EB810101EB4201E2
:10FAC00021F8026C70BC7047CE480CEB8C0100EB47
:10FAD0004100104405EB810101EB420210F8010CDA
:10FAE00032F8021C642924BF70BC7047491C22F8FC
:10FAF000021C0121197070BC70472DE9F00101282A
:10FB0000DDE9055614BF0120002000EB8000DFF87E
:10FB1000F4C20CEB400C8C441CF801CCBCF1000F7F
:10FB200004BFBDE8F0017047DFF8DC82002408F173
:10FB30003C07944531D1A7F1280202EB800202EB89
:10FB4000410232F8022C9A4207D908EB40000844DF
:10FB500000F8014CBDE8F001704708EB40020A4490
:10FB600012F8013C642B24BFBDE8F0017047002E61
:10FB70001CBFBDE8F00170475B1CDBB202F8013C22
:10FB80000A2B3CBFBDE8F001704707EB400008447A
:10FB900000F8014CBDE8F001704708EB40020A4450
:10FBA00007EB400012F8013C0844052B36BF10F863
:10FBB000011C00F8014C642904D20A2DA4BF491C81
:10FBC00000F8011C02F8014CBDE8F00170472DE976
:10FBD000F04F89B082460888ADF810004888894601
:10FBE000ADF81400FEF7A0F900909AF8C0009AF85A
:10FBF0005940022804BF204600F0D3FC8348874ABE
:10FC00002044089010F8015C81488349204402F1A7
:10FC1000080C00F8015C7F4800EB040818F8010CA0
:10FC2000D8B1681CC0B2142821D304EB840001EBC6
:10FC3000C00000EB450330F828EC33F828BCAEEBED
:10FC40000B0B02EB840E4EF804BC1B8D008DC01A0A
:10FC50000CEB840343F8040C20E002EB8403002047
:10FC600043F8040C0CEB840343F8040C16E004EB9B
:10FC7000840301EBC30303EB400030F8283C30F869
:10FC80002ABCA3EB0B0302EB840B4BF8043C038D63
:10FC9000C08C181A0CEB840343F8040C04EB8400AA
:10FCA00001EBC000079000EB4500BDF8103020F8D4
:10FCB000283CBDF814B0A0F828B0132D04BF0120D3
:10FCC00008F8010C9AF8C00003284FD1002D1CBF82
:10FCD000681EC0B25AD0079901EB400030F8281CCA
:10FCE000008DA3EB010118F8013CABEB0000019380
:10FCF000002B52D04A4B002903EB840656F8047CB3
:10FD0000ACBF0B464B4207EB030B464B46F804BC1B
:10FD100003EB8403002853F804ECB4BF47420746C2
:10FD2000774402EB840243F8047C52F8042C002A46
:10FD3000B8BF5242ABEB020246F8042C0CEB840233
:10FD400052F8042C002AB8BF5242BA1A43F8042CC5
:10FD5000354A1268138B5943138A91FBF3F6518B82
:10FD60004843518A90FBF1F7019878B32F4802215C
:10FD70002044069000F8011C2D4800EB040B0BF802
:10FD8000011C9AF8A800032861D15DE018F8010C65
:10FD900001280CBF132028469DE7214A002902EBC9
:10FDA000840252F804CCB4BF4B420B46634442F881
:10FDB000043C1C4A002802EB840252F804CCB4BF75
:10FDC00043420346634442F8043CC1E7FFE7194855
:10FDD000002E00EB440030F8022CB4BF71423146D3
:10FDE0008A4205DA002EACBF3146714220F8021C6F
:10FDF0004288002FB4BF794239461DE0689B00203D
:10FE0000669D00203E9D0020529D0020820700201C
:10FE10008407002086070020F49600209407002025
:10FE2000AC070020B40700205C070020E09600200B
:10FE3000EA960020A40700208A4297DA002FACBF80
:10FE400039467942418091E7FEF715F968B12046BD
:10FE500000F0A7FBBDF81000A9F80400BDF81400DD
:10FE6000A9F8060009B0BDE8F08F18F8010C0128C8
:10FE700003D0D8B9691C072918D3282ED8BF282F3A
:10FE800009DCFD4901EB440131F8022C282A9CBF12
:10FE90004988282919D9009890F85A02012805D1D3
:10FEA0000699032001F8010C0BF8010C0898089939
:10FEB00010F8010C401CC0B201F8010C1428C9D381
:10FEC0000899002001F8010CC4E7EC494FF0000C40
:10FED00001EB840151F8042CE94901EB840151F84C
:10FEE000041C8A42C8BF4FF0010C05A904AA1423C0
:10FEF000CDE90003CDE9022107982B4600F1280245
:10FF0000A0F12801604600F074FB01280CBF01201D
:10FF10000020069901F8010C0BF8010CC6E72DE949
:10FF2000F04F8DB00446FDF739FB0490FDF739FB27
:10FF30000890FEF715F88146FDF7F6FF079094F854
:10FF40005960FDF7F1FF827A94F859100127002AD1
:10FF500004BF427D002A06D1027D012A1CBF90F811
:10FF60005D22012A01D180F85A7200258DF81950BE
:10FF70008DF818708DF8175090F85A02DFF8048346
:10FF80000028D8F800007DD0826DC2F3C0438DF800
:10FF90001430C2F340428DF81520806D2246C0F324
:10FFA00080408DF816000220FFF770F9B548D0F8B0
:10FFB000008098F8580010F0010F00F0468294F885
:10FFC0005B10B4F8800001EB0112ADF8080002EB01
:10FFD0004111B4F8823009EB8101ADF80A300B9180
:10FFE00094F8591094F8C0C0A74A01EB4101BCF144
:10FFF000020F02EB81017CD031F80AAC21F808AC89
:020000021000EC
:1000000031F80C2C21F80A2C21F80C0C31F8049C46
:1000100021F8029C31F806CC21F804CC21F8063CEA
:1000200081B261F30F0062F31F40914284BF62F31B
:100030000F0061F31F40010C514588BF6AF31F4058
:1000400081B2020C914284BF62F30F0061F31F4042
:10005000000C63F30F016CF31F41634584BF6CF325
:100060000F0163F31F410A0C4A4588BF69F31F4122
:100070008AB20B0C9A4284BF63F30F0162F31F41F3
:100080000B0C00E010E09DF81410ADF80C00ADF87A
:100090000E30012904BFADF80800ADF80A3094F81D
:1000A000C00002283AD0B0E090F85820C2F3C00354
:1000B0008DF81430C2F340028DF8152090F85820C6
:1000C000C2F380028DF816202279022A1EBF032A6D
:1000D000224600207FF468AF826DC2F3C0438DF8E2
:1000E0001430C2F340428DF81520806DC0F380407B
:1000F00000E006E08DF8160022460220FFF7C6F861
:1001000054E721F8080C21F80A0C21F80C0C21F80E
:10011000023C21F8043C21F8063CB2E75B484FF072
:10012000000C304400F8015C59480195304400F857
:10013000017C584800EB46100A90574800EB4610E7
:100140000990564800EB461000900999002001EBF9
:100150000C1E009901EB0C1B0A9901EB0C190021F4
:100160000EEBC0020BEBC00309EBC00702EB810AE8
:100170004AF8205C03EB810A4AF8205C07EB810A0D
:10018000491C09B24AF8205C0229EFDB401C00B28E
:100190000228E4DB0CF101000FFA80FCBCF1020F35
:1001A000D3DB099A0198DFF8F8E002EB001ADDE9E9
:1001B0000002002100EB02193A4A002002EBC107BD
:1001C0000AEBC10C09EBC1050EEBC103814207D15B
:1001D000B8F8622043F82020B8F8602047F82020C3
:1001E00053F820200CEB800B02EB820252004BF8FC
:1001F000202C05EB800B401C00B24BF8202C022871
:10020000E4DB481C01B20229D6DBBDF8082000213E
:100210002046FFF7E4FA0546BDF80A2001212046F2
:10022000FFF7DDFA002DB8BF00250028B8BF002079
:10023000144F3968B1F91020531EAB42B8BF1D46A8
:10024000B1F912104A1E8242B8BF1046AAB283B258
:100250000E48ADF80C2081190A30ADF80E3030444C
:1002600011F801CC10F8015C01F8015C00F801CC38
:100270009DF81600012817E0A4070020AC07002015
:10028000B40700205C0700207C9B0020689B0020B6
:10029000729B0020289A0020A8970020E898002050
:1002A000BC070020CC07002004BFADF80820ADF843
:1002B0000A3020460B9900F08BFA94F858100B98EE
:1002C000022918BF002529D0C4F89050B4F8801036
:1002D000B0F88020DFF86C84891AC4F89410B4F860
:1002E0008210B0F8820008F10A09081AC4F89800D0
:1002F000022E9CBF9DF81700012823D008EB0601B1
:10030000022001F8010C09EB060101F8010C08EBD1
:100310000601002011F8011CB1BB36E0B4F88010D2
:10032000B0F88030CA1A48BF5A1AB4F88230B0F810
:1003300082C0B3EB0C0148BFACEB0301524301FB9D
:100340000125C1E72A4602A92046FFF740FC07988D
:1003500090F85A020028DAD1FB48304410F8010C1A
:10036000012808D00028D2D1F848304410F8010CF8
:10037000401C1428CBD9BDF80C00ADF80800BDF81E
:100380000E00ADF80A00C2E704E009EB060111F81F
:10039000011C01B10120009007982B4602A9427C64
:1003A0002046FFF738F89DF81500012840D0BDF829
:1003B0000800A4F88400BDF80A00A4F88600BDF87F
:1003C0000810049ABDF80A009142B8BF1146089A75
:1003D0009042B8BF10463B68049AB3F910C0ACEB2A
:1003E0000202A2F1010C8C45B8BF6146B3F912308C
:1003F000089A9A1A531E8342B8BF184689B2A4F8C5
:10040000841080B2A4F886000B9AB2F88420891A6E
:10041000C4F8A0100B9AB2F88620801A4943C4F899
:10042000A40000FB0010C4F89C000DB0BDE8F08FE4
:10043000BDF80C00ADF80800BDF80E10ADF80A10BC
:10044000A4F88400BDF80E00B7E7B4F88000A4F863
:100450008400B4F88200A4F886000DB0BDE8F08FE7
:10046000BB4A30B4146894F8542012F0040F1ABF39
:10047000012323EA020502F00105B0F900C0B1F939
:1004800000301DB1E58AEB1A5B1E1BB212F0020FA1
:1004900006D0A48AA4EB0C0CACF1010C0FFA8CFC76
:1004A00012F0040F19BF0380A1F800C0A0F800C02B
:1004B0000B8030BC7047A64A30B41268B2F898304E
:1004C00013F0FF024FEA132308BF6422002B08BF7A
:1004D00064230488B1F800C062439E4CA4FB02521E
:1004E000520902800CFB03F0A4FB002040090880A5
:1004F00030BC70472DE9F0470446954882B000684B
:10050000B0F818A0B0F81A90858AC68A078AB0F8A1
:1005100012800020ADF80000ADF80400FDF704FDE6
:10052000B4F88410B4F8860001FB0AF292FBF7F2EB
:10053000A4F8882000FB09F292FBF8F269437043AB
:1005400091FBF7F190FBF8F0A4F88A20ADF80010C9
:10055000ADF8040001A96846FFF782FFBDF900006D
:10056000711E8842A8BF084600B2BDF904106A1E79
:10057000ADF800009142A8BF114609B2ADF80410D1
:100580000028D8BF0020ADF800000029D8BF002106
:10059000ADF80410A4F88C00A4F88E1002B0BDE8E9
:1005A000F0876A4A0021024402F8011C6A4A0244A8
:1005B00002F8011C644A024402F8011C674A02EB7B
:1005C000800242F8041C664A02EB800242F8041CD6
:1005D000644A02EB800242F8041C634A02EB800288
:1005E00042F8041C614A02EB400020F8021C4180E2
:1005F00070472DE9F0439BB01F468C46DDE923355B
:100600000021DDF888800646259C129113911491F3
:10061000159116911791189138461991B8F1000F5C
:1006200014BFA3F10A07471C052F40F2CD804FFAF3
:1006300080F909F1010189B28B4298BF0021B8F11C
:10064000000F6FD03CF81180CDF8488032F81110BF
:100650001391A9EB530109B2002901DA194409B237
:100660003CF81180CDF8508032F811101591F9B294
:10067000CDE900310DF1100813460146CDF8088090
:100680006246304600F005FA16902A8803923049F7
:100690002088069009684B8AB1F81AC0C3EB03138F
:1006A000B3FBFCF317934B8AB1F81AC0C3EB0313E7
:1006B000B3FBFCF318934B8A498B03EB83035B007A
:1006C000B3FBF1F11991DDF85CC0002E4FF0000191
:1006D0004ED0129B059A5A43049B03EB2242139B74
:1006E000D31A44BF139B9B1A634569D2149B059A86
:1006F000DDF860C05A43049B03EB2242159BD31ADA
:1007000044BF159B9B1A63455AD2169A199B821AAD
:1007100044BF169A121A9A4252D2169880B2069084
:100720004DE0FFE7BCF80080CDF84880B2F80080CB
:1007300021F00101CDF84C803CF80180CDF85080CB
:10074000515A93E7E0960020860700208407002096
:100750005C0700201F85EB5182070020AC070020BA
:10076000B4070020940700209C070020A407002065
:10077000139B05985843049B03EB2040129BC31A1C
:1007800044BF129B1B1A63451AD2159B0598DDF8CE
:1007900060C05843049B03EB2040149BC31A44BF22
:1007A000149B1B1A63450BD21698199B101A44BF51
:1007B0001698801A984203D2169880B203900121AD
:1007C00003982880069820801BB00846BDE8F08377
:1007D0002DE9FF4F8BB09B468A460546FDF7A4FBEB
:1007E00090F85A22BAB114204FF0020802902879EA
:1007F00095F85940FE49022818BF032815D0012A50
:100800001CBFFC4886681AD095F8C000FA4A002739
:10081000022840D11DE03C210291407C02282CBFDF
:100820004FF003084FF00F08E1E708686423428A9D
:10083000408B5A43B2FBF0F000FB00F6E4E7086897
:10084000428A408BC2EB0212B2FBF0F000FB00F6D2
:10085000DAE7101900F8017CE848204400F8017C30
:100860004772E748204400F8017C4772E54800EBF6
:10087000440020F8027C4782E34885F8A8702044B1
:1008800000F8017C4772E148204400F8017CE04810
:10089000204400F8017CDF4802EB040900EB04135C
:1008A00019F8010CDDF834C003EB400222F810CC3B
:1008B000A2F890B095F8C020032A46D1C01D00F0E0
:1008C00007008DF8207003EB40008DF8247030F89D
:1008D000102C0D9BB0F890009A1AABEB000308683F
:1008E000018B5143028A91FBF2F10791418B408ABF
:1008F000594391FBF0FB08AB224601200799FFF713
:10090000C7F8059009AB224659460220FFF7C0F808
:1009100003909DF820100798CDE9000121460120A1
:10092000029B059AFFF7E9F89DF82400DDE9023201
:10093000CDE900B021460220FFF7DFF8B048059965
:10094000204400F8011C0399417219F8010C01229E
:10095000401CC0B209F8010C082808D309F8017C32
:100960009AF8A800002808BF8AF8A82002E09AF8A0
:10097000A80018B195F85800022809D085F8A87089
:10098000A148204400F8017C47720FB0BDE8F08F09
:10099000A04B0021084603EB041C0CEB4003401C59
:1009A00033F8103C80B219440828F6D34FEAD10A34
:1009B00000210846E9460CEB400333F8103CA3EB5A
:1009C0000A035B4349F82030401C80B219440828D0
:1009D000F1D34FEAD109904B0021084603EB041CE8
:1009E0000CEB4003401C33F8103C80B2194408283B
:1009F000F6D34FEAD10A00210846EB460CEB400340
:100A000033F8103CA3EB0A035B434BF82030401C47
:100A100080B219440828F1D3C80803234E4528BFE3
:100A2000864208D37548204410F8011C08299CBF51
:100A3000407A082811D9754885F8A830204400F874
:100A4000017C7348204400F8012C95F8A800032885
:100A500004BF0FB0BDE8F08F92E76C48204410F857
:100A6000011CC8293CBF491C00F8011C68492144ED
:100A700011F8011C012908D110F8010C40459EBF56
:100A800085F8A8300FB0BDE8F08F022085F8A800E7
:100A900076E72DE9F04FAFB00FFA81F9DDE9388C38
:100AA0000124CA466946002848D032F81A002B9023
:100AB000BCF1010011D441F8204001EB800632F86E
:100AC0001A503565AAF101050FFA85FABAF1000F3F
:100AD000B8BFA8F1010A401EEDD5002425464846BE
:100AE000BCF101020FD433F8107051F82260401E9F
:100AF0007E43341900B245EBE6750028B8BFA8F173
:100B00000100521EEFD500263746BCF101005DD42E
:100B100001EB800233F819A0126DA9F1010902FB63
:100B20000AF296190FFA89F947EBE277B9F1000F4B
:100B3000B8BFA8F10109401EEAD547E033F81A0012
:100B40002B90BCF1010011D441F8204001EB80064C
:100B500033F81A503565AAF101050FFA85FABAF192
:100B6000000FB8BFA8F1010A401EEDD500242546AC
:100B70004846BCF101030FD432F8107051F82360DD
:100B8000401E7E43341900B245EBE6750028B8BF1D
:100B9000A8F101005B1EEFD500263746BCF101002D
:100BA00014D401EB800332F819A01B6DA9F10109DF
:100BB00003FB0AF39E190FFA89F947EBE377B9F1C2
:100BC000000FB8BFA8F10109401EEAD54FF0000898
:100BD0004046CDF8A080BCF1000F24DD51F8202064
:100BE000289B524312EB080843EBE27216E0000028
:100BF0005C07002080070020349D0020529D0020CB
:100C00003E9D0020669D00208E9D0020A29D00201C
:100C100094970020F49B0020949C002000F1010098
:100C200028928445DADC0022964610462992BCF1CF
:100C3000000F11DD01EB800351F820201B6DDDF862
:100C4000A4905A434FEAE27A12EB0E0E4AEB0903E4
:100C5000401C29938445EDDC4FF00009CA46484604
:100C6000BCF1000F0DDD01EB800251F82030126D58
:100C700000F101005A4312EB09094AEBE27A84457C
:100C8000F1DC002003460246BCF1000F0CDD694692
:100C900001EB8001096D49434FEAE17B8A184BEB78
:100CA0000303401C8445F2DC1046A8FB002C289965
:100CB000CDE92C0301FB00C0AEFB09CB29992E9195
:100CC00008FB030301FB09B10EFB0A10B2EB0C0198
:100CD00063EB0000CDE92901084333D0DDE92C02A4
:100CE000A0FB0413AEFB06CB02FB04322E9B00FBE1
:100CF000052203FB06B30EFB0733B1EB0C0062EBDE
:100D00000301DDE9293205F0BBFE3A990860A8FB32
:100D10000602289901FB0621A9FB04230AFB0433E0
:100D200008FB071109FB0533801A61EB0301090475
:100D3000DDE9293241EA1041000405F0A1FE3A99AB
:100D4000486004E03A99002008603A9948603A986F
:100D5000D0E900122B98504311EB204048BF0020EF
:100D60002FB0BDE8F08F70B5ADF5166D0E46054697
:100D7000FDF7DAF80446FDF7E8F84FF41661684627
:100D800005F043FF6A463146284605F02FFE02462D
:100D9000E0736946284603F0FDFB20740DF5166DDF
:100DA00070BD0000F84A0020411C1154C8B205284B
:100DB000FAD37047F54910B50020C1F88400C1F896
:100DC0008800A1F88C0081F88E00C1F89A00C1F863
:100DD0009E00A1F8A20081F8A400C1F88F00C1F81C
:100DE0009300A1F8970081F8990008604860088195
:100DF0008872C1F80B00C1F80F00A1F81300487504
:100E000002F0A0F9E04A0020411C1154C8B20528A4
:100E1000FAD310BDDC49084410F8011C21F0800110
:100E200000F8011C70470020D74A0146535C13F0BC
:100E3000800F04D0491CC9B20529F7D37047535C11
:100E400003F00F0043F080035354704770B50D4614
:100E50000446FDF767F800231A46A05CA95C8842A7
:100E600001D0012303E0501CC2B20A2AF5D3184670
:100E700070BD2DE9F0418AB00020009001900290F1
:100E8000039004900590069007900890FDF74CF8A9
:100E90000446FDF75AF80546FDF74FF80746FDF7FB
:100EA0005FF80646FDF73EF80346B4F90200B0F5D8
:100EB000FA7F7FDC94F85802012802D1607C002878
:100EC00078D1A07A032818BF052873D094F85E0261
:100ED000012804BF0AB0BDE8F0810021207C4FF05A
:100EE000010C002888BF0DF1FF3813D901EB011068
:100EF00000EB411007EB800292F8BF00022812BFFE
:100F0000032892F8590000F808C0481CC1B2207CA0
:100F10008842EBD8297C0020002988BF0DF10B0402
:100F200013D900EB001101EB401106EB810191F8A0
:100F3000BF20022A12BF032A91F8591001F804C0F9
:100F4000401C297CC0B28142EBD8002006A933F9AD
:100F50002020002AC8BF01F800C0401CC0B20A28E7
:100F6000F5D3687C002804BF0AB0BDE8F08193F88F
:100F7000280003AC6D4608B3FCF7D4FF00231846E5
:100F8000215C2A5C914204D1401CC0B20A28F7D3EC
:100F900013B306AC6D46FCF7C5FF00231846215C71
:100FA0002A5C914206D1401CC0B20A28F7D300E067
:100FB00000E08BB10AB00120BDE8F081FCF7B2FF80
:100FC00000231846215C2A5C9142F3D1401CC0B238
:100FD0000A28F7D3002BEDD10AB00020BDE8F0813C
:100FE0002DE9F0410026FCF7A8FF0746FCF79CFF1F
:100FF0000446FCF797FF0546B4F90200B0F5CD7F33
:1010000006DD0221A172B0F5FA7FC4BF0120607332
:1010100094F85E0201281FBF94F85702012894F843
:101020005A02012809D0FDF71BF830B9FDF744F842
:1010300018B994F85802012802D1FFF71AFF0646A2
:101040000020411E25F8201005EB8002401CC0B294
:1010500051800A28F6D3012E22D1207C00210028BD
:101060001ED901EB011000EB411007EB800090F856
:10107000BF20022A18BF032A0DD190F85930C28828
:1010800005EB830323F8042C028990F8590005EB43
:10109000800020F8022C481CC1B2207C8842E0D895
:1010A00094F8580268B900223949002E08BF4A70E6
:1010B00007D04878401CC0B24870052884BF4A70E9
:1010C000002685F828603046BDE8F0812DE9F05F04
:1010D00030480025006890F85260FCF74BFFFCF7A1
:1010E00023FF0446FCF729FF8446B4F902004FEAC7
:1010F000600E207C002898BFBDE8F09F264B4FF083
:10110000010B4FF0000A05EB051000EB45170CEB47
:10111000870191F85900401EC2B291F8BF00022821
:1011200002D0032854D040E003EB420080F801A035
:1011300091F8AC00012836D0B1F90200B0F5C87FB3
:1011400031DC94F81480B8F1010F03D1B4F90280B6
:10115000404528D1B4F9028040451FD1B1F818802C
:10116000B4F80490C84519D103F812A081F8AEB0C4
:10117000B1F90200C82818DA1CF82700002808BFB7
:1011800081F8BCB011E00000519E0020AC9D002011
:10119000DC0700205C0700205B9E00207045C8BF74
:1011A00003F812B022DC03F8126013F8120040B307
:1011B00003EB420013F812804778474516D380F8B6
:1011C00001A003F812A081F8ACA081F8ADB011E045
:1011D00013F81200A8B1B4F90200B0F5C87FE7DA3D
:1011E00003EB420047787F1C4770E1E781F8ACB021
:1011F00081F8ADA0681CC5B2207CA84283D8BDE8A8
:10120000F09F81F8ACA0F3E770B5FCF78DFE0646C1
:10121000FCF793FE0546307C0024002814D904EB2B
:10122000041000EB441005EB800090F8AF1001298A
:1012300005D190F85900002818BF01F071FF601C1B
:10124000C4B2307CA042EAD8002070BD70B5FCF773
:101250006BFE0446FCF771FE227C0021002A84BF4D
:101260004FF0020C032315D901EB011202EB4112DE
:1012700000EB820292F8AF50012D01BF92F8BF50EF
:10128000022D82F8BF3082F858C0491C227CC9B2B6
:101290008A42E9D8002070BD2DE9F041FCF744FEF8
:1012A000867AC57AFCF7A0FEFCF7A4FE01F04AFF9F
:1012B000FCF73AFE0746FCF740FE8046387C0024E7
:1012C000002814D904EB041000EB441008EB800054
:1012D00090F8AF10012905D190F85900002818BFE7
:1012E00001F01EFF601CC4B2387CA042EAD8FCF7B3
:1012F0001BFE0446FCF721FE8446207C00210028CA
:1013000084BF0223032015D901EB011202EB411225
:101310000CEB820292F8AF70012F01BF92F8BF7000
:10132000022F82F8BF0082F85830491C227CC9B2D3
:101330008A42E9D8FCF7F8FD8672C572BDE8F081F3
:1013400010B5FFF74DFE0446012804D0002C08BF5D
:10135000FFF7BCFE01E0FFF79FFF204610BD70477E
:10136000022180F86C100022826680F8642001213E
:10137000A0F86E1000EB4103491CC9B2A3F86E201F
:101380000929F7D3C388A0F85C300189A0F85E1062
:10139000A0F86030A0F8621080F8B72080F86520CF
:1013A00070472DE9F047FCF7E9FDFCF7BDFD044669
:1013B000FCF7C3FD0546FCF7D3FD8046207C0023E7
:1013C000002898BFBDE8F0874FF0030901200226EE
:1013D0004FF0040A002703EB031101EB431105EB67
:1013E000810191F85B2002EB021C0CEB421208EB2E
:1013F000820C91F8AF20012A1BD191F8BD20012A5F
:1014000018BF032A02D0022A28D012E091F85820EF
:10141000012A20D0022A0CD19CF8BF20012A18BF33
:10142000042A18D0022A08BF81F8BF9001D081F8A1
:10143000BF20227D012A08BF81F8B90091F8582009
:10144000022A04BF9CF8B92081F8B92091F8BF2086
:10145000022A17D035E081F8BF60EAE791F85820FA
:10146000012A04BF81F8BF0081F8B970E1D0022AD7
:10147000DFD19CF8BF20022A14BF032A81F8BFA045
:10148000D5D1D6E781F86C608F6681F86470A1F8D9
:101490006E00012201EB420C521CD2B2ACF86E700D
:1014A000092AF7D3B1F806C0A1F85CC00A89A1F8EF
:1014B0005E20A1F860C0A1F8622081F8B77081F8C1
:1014C0006570591CCBB2217C994284D8BDE8F08765
:1014D0002DE9F04714460F4680460025FCF724FD11
:1014E0000646FCF72AFD8146FCF73AFD014600203E
:1014F00020706070307C002898BFBDE8F08705EB55
:10150000051000EB451009EB800292F8AF000128AE
:1015100022D192F85800022802D0012817D01BE0EF
:1015200092F86C00022817D092F85B0000EB0012D2
:1015300002EB401001EB800090F8BF0003280BD1B4
:10154000207808F800502078401C207004E0607873
:101550003D546078401C6070681CC5B2307CA84265
:10156000CDD8BDE8F0872DE9F0471D4616460F4659
:101570000446FCF7FFFC94F802C0E378014663459B
:1015800020D3227894F801904FF0C008104681458E
:1015900012D30CFB0104A4B217F804A038EA0A0A1B
:1015A00006D136F91440AC4202DB0120BDE8F087D9
:1015B000401CC0B28145ECD20CF1010000F0FF0CE0
:1015C0006345E3D20020BDE8F08770B50C460546C0
:1015D000FCF7B3FC05EB051101EB451100EB8102B3
:1015E00004EB041101EB441100EB8100137B017B40
:1015F0008B4288BF1173937B817B8B4238BF917381
:10160000537B417B8B4288BF5173D37BC17B8B4221
:1016100038BFD173137C017C8B4288BF1174937CDB
:10162000817C8B4238BF9174537C417C8B4288BF54
:101630005174D37CC17C8B4238BFD174137D017D42
:101640008B4288BF1175937D817D8B4238BF917528
:10165000537D417D8B4288BF5175D17DC07D8142D4
:1016600038BFD07570BD2DE9F041012516460F46F3
:101670002C46FCF762FC07EB071101EB471100EB6E
:10168000810106EB061202EB461200EB82000B7D95
:10169000027D934284BF90F816C0634505D88B7DC8
:1016A00093423CBF827D934200D200254B7D427D18
:1016B000934284BF90F817C0634505D8C97D914215
:1016C0003CBFC07D814200D20024002D16BF002CFB
:1016D00000200120BDE8F0812DE9FF4F87B01F46B3
:1016E0000E460546FCF729FC0446FCF743FC8246FF
:1016F00005EB051000EB451004EB80090390B9F8E9
:1017000006000590B9F80800049003984FF000080F
:10171000454614F82000029099F80110009101FB51
:101720000A00B9F902200192385C00F03F000690EF
:101730000998002873D9705D00EB001101EB40108F
:1017400014F8201004EB80004278437B02FB0A115E
:10175000C07B795C984201F03F0131D3705D00EBB2
:10176000001202EB401004EB8000027B807B904271
:101770001AD303FB0A201FFA80FC17F80C0000F0B4
:101780003F0B8B451CBF4FF0C00E3EEA000E7DD0D4
:10179000501CC2B2705D00EB001C0CEB401004EB5F
:1017A0008000807B8242E4D9581CC3B2705D00EB9C
:1017B000001202EB401004EB8000C07B8342CDD9C5
:1017C000705D00EB001101EB401204EB8200059903
:1017D000C388194489B2059103890499194489B2CF
:1017E0000491B0F90210019B994205DD14F8222002
:1017F00002924278CDE90021002180F8AF10705D9F
:1018000000EB001101EB401004EB800090F8590050
:1018100001F0A0FC681CC5B2099885428BD30599DC
:10182000401CB1FBF0F1A9F806100499B1FBF0F0EF
:10183000A9F80800DDE9020104F82100009889F800
:1018400001000198A9F80200B9F8180001244044E9
:10185000A9F8180089F8B740FCF72EFC002818BF3B
:1018600089F8BD40B9F86E0001280EBF0920401E5E
:10187000C0B209EB4000B0F86E10002904BF14217B
:10188000A0F86E100BB0BDE8F08FFFE78B4508BFE6
:1018900008F101088843DDF818B040EA0B0007F8AA
:1018A0000C0075E72DE9FF4F89B0054600208B46F7
:1018B0000090019002900390FCF73FFB07460B98C5
:1018C000002400289CBF0DB0BDE8F08F285D00EB20
:1018D000001101EB401007EB8000007D8DF8000047
:1018E000285D00EB001101EB401007EB8000807DCC
:1018F0008DF80100285D00EB001101EB401007EBB3
:101900008000407D8DF80200285D00EB001101EBA6
:10191000401007EB8000C07D8DF80300FCF7CCFB86
:10192000002818BF0A2009D1285D00EB001101EB47
:10193000401007EB8000B0F9020040100590002035
:10194000064604900C98002875DD1BF806200A2A2C
:101950007BD2295D6846FFF786FE002875D0DDE959
:1019600016A9DDF81480FCF705FB08909DF802101D
:101970009DF803000790884267D39DF800009DF80A
:1019800001300690069883425AD3089A4FF0C00C53
:1019900001FB020292B21AF802E03CEA0E0C4BD1B3
:1019A00039F91220424547DB1BF80610285DFFF786
:1019B0000CFE049901A81BF8062042540498401C10
:1019C000C0B204900A200BF80600285D4FF0FF36E5
:1019D00000EB001101EB401007EB8000007D8DF85B
:1019E0000000285D00EB001101EB401007EB8000C8
:1019F000807D8DF80100285D00EB001101EB4010A7
:101A000007EB8000407D8DF80200285D00EB00119F
:101A100001EB401007EB8000C07D8DF80300285DCE
:101A200000EB001101EB401007EB8000B0F9020061
:101A30004010059009E016E0401CC0B28342A4D2D9
:101A4000481CC1B2079888429CD2701C06B20C9800
:101A50008642FFF67AAF049828B1285D01A9169B4B
:101A6000049AFFF739FE601CC4B20B988442FFF45D
:101A70002DAF0DB0BDE8F08F70B58AB006460020DE
:101A80000290039004900590069007900890FCF750
:101A90004BFA0446FCF759FA0146607C04F117053D
:101AA000052824BF0AB070BD607D00281CBF0AB0A5
:101AB00070BD207C497C88429CBF0AB070BD08AADA
:101AC00005A902A8FFF704FD9DF821309DF820200C
:101AD000002B12BF002A0AB070BD05A9CDE900563F
:101AE00002A8FFF7DFFE0AB070BD10B5FFF7C4FF14
:101AF000FFF757FCFFF774FA0446012804D0002CC6
:101B000008BFFFF7E3FA01E0FFF7C6FB204610BD70
:101B10002DE9F34F4FF0000893B00546CDF8008053
:101B2000CDF80480CDF808804046CDF80C80CDF883
:101B30001080CDF81480CDF81880CDF81C80CDF839
:101B40002080CDF82480CDF82880CDF82C80CDF8E9
:101B500030804746CDF83480CDF838801090CDF8ED
:101B60003C801190FCF7E0F98146FCF7E6F9064667
:101B7000FCF7EBF91290FCF7F3F982461298F94B57
:101B8000C07C68B91878401CC0B21870012884BFA6
:101B90000020F54A06D9411C1154C8B20528FAD3D1
:101BA00000201870F1480DF1180B4FF0010CD0F81F
:101BB0008820D0F88410D0F88C30CDE90C120E9328
:101BC000D0F89A100991D0F89E100A91D0F8A2008E
:101BD0000B9099F810000021EE4600283FD901EB48
:101BE000011000EB411006EB800090F8AF20012AB5
:101BF0002FD190F8C020022A18BF032A0ED190F8E6
:101C0000B320002A04BF90F8B420002A06D190F82F
