:100000005446495300010000200702003A8404C30B
:1000100009470107190121164136503009470202EC
:100020001901211641365030094701011901071500
:100030004136504F030000000000000000000000A7
:100040005446435300200000B8EE010000000000B9
:1000500000000210012100002521000005270100F9
:10006000292100002B2100002D2100003D2100004E
:100070003D2100003D2100003D2100002F21000016
:10008000312100003D21000033210000C157000054
:10009000A7580000372100003D210000B1A8001042
:1000A000372100007D3C0000833C00003D21000022
:1000B0003D210000F7530000414B0000893C000047
:1000C00069510000372100003D2100003D21000062
:1000D0000000000000000000000000000000000020
:1000E0000000000000000000000000000000000010
:1000F0000000000000000000000000000000000000
:1001000000000000000000000000000000000000EF
:1001100000000000000000000000000000000000DF
:1001200000000000000000000000000000000000CF
:1001300000000000000000000000000000000000BF
:1001400000000000000000000000000000000000AF
:1001500000F003F800F020F8FEE70D480168890878
:100160008900002001C101C101C101C17047000027
:1001700068C60010FEE7FEE7FEE7FEE7FEE7FEE7E3
:10018000FEE7FEE7FEE703480047FEE7FEE7000064
:10019000202100003D21000000F002F800F068F886
:1001A0000AA090E8000C82448344AAF10107DA45D2
:1001B00001D100F05DF8AFF2090EBAE80F0013F0BC
:1001C000010F18BFFB1A43F0010318475025010027
:1001D000B02501000A444FF0000C10F8013B13F069
:1001E000070408BF10F8014B1D1108BF10F8015B90
:1001F000641E05D010F8016B641E01F8016BF9D183
:1002000013F0080F1EBF10F8014BAD1C0C1B09D1D9
:100210006D1E58BF01F801CBFAD505E014F8016B4B
:1002200001F8016B6D1EF9D59142D6D370470000DD
:10023000103A24BF78C878C1FAD8520724BF30C812
:1002400030C144BF04680C607047000000230024E4
:1002500000250026103A28BF78C1FBD8520728BFD6
:1002600030C148BF0B6070471FB51FBD10B510BD32
:10027000DFF80CD0FFF7F8FF04F04FFD10F05CFA48
:100280000000021003B4FFF7F1FF03BC10F05CFAAA
:1002900008B5002103200B460A4600910FF006F92D
:1002A00008BD38B5F84D0024AC80EC802C810FF0EF
:1002B000D6F86861FF20A870F448234622460460FF
:1002C000446004720120E8700320214600940FF07E
:1002D000EDF8012038BD38B5EB4D0228AC78224648
:1002E0000DD0052810D0A24208BF38BD002003461B
:1002F0000246214600900FF0D9F8AC7038BD0229B3
:1003000014BF01240224EEE7022914BF64246524EB
:10031000E9E738B513460A464FF0010C00240146C0
:10032000604600940FF0C2F838BDD749012008702C
:100330007047D54800787047D3490020087070474F
:100340002DE9F04104460127002503F00700CE4EB9
:100350008846012804BF0020308146D0022844D1BD
:10036000308904280BD2002818BF306902D10FF061
:10037000C5F9306110F8011B217030612EE00628AC
:1003800008D20FF0BDF93189C1F10501C900C8409B
:10039000207023E0082808D20FF0B6F93189C1F1A6
:1003A0000701C900C840207018E00C2808D20FF0DF
:1003B00056F83189C1F10B01C900C84020700DE029
:1003C0000E2808D20FF04DF83189C1F10D01C90096
:1003D000C840207002E0FF20207000273089401CB8
:1003E00080B230810E2828BF012588F80050384699
:1003F000BDE8F08130B403F007000024DFF888C2C4
:1004000001280BD06046BCF808308088022B0CD243
:10041000120242EA1020ACF8040010E0ACF80440EC
:10042000ACF80640ACF808400CE01844851EB5F561
:10043000806F04DADCF81450284400F8022C581CB1
:10044000ACF808000C7030BC00207047F0B40746D0
:10045000002003F007048C4D0646012C04BF2E81BA
:10046000EE6025D0DFF820C2022CBCF806C003D015
:1004700013F0070F0DD01BE02A890CEB0203B3F534
:10048000806F15D26869C05C3870501C28810120CB
:100490000EE0120242EA1C22EA80EB68012B05D131
:1004A000B2F5806F24BF40F2FF32EA805A1CEA6046
:1004B0000E70F0BC704738B503F0070000240D46FD
:1004C00001280AD1704821460B4604818480C480EB
:1004D00002200A4600940EF0E9FF2C70002038BD7F
:1004E00030B50C006AA183B009684FF00002029198
:1004F00008BF03250AD0217802AB5D5C002D18BF30
:10050000022D41D0012D7ED0032D0DD10F21017080
:100510000321417042808280C280028142818281B7
:10052000817B21F001018173002D1EBF012D03B0DD
:1005300030BD04F007FC05281CBF03B030BD09F036
:10054000C0FB042804BF03B030BD002D0CBFC02089
:10055000C1208DF8000060788DF8010060880123CB
:10056000000A8DF80200A0788DF80300A08806220A
:10057000000A8DF8040020798DF8050069460720EF
:100580000CF04AFA03B030BD617800EB011202F8BA
:10059000101C617800EB011101F80F5C6278618832
:1005A00000EB021222F80E1C6278A18800EB021206
:1005B00022F80C1C6278A17900EB021222F80A1CC6
:1005C0006278217A00EB021222F8081C6278617AC4
:1005D00000EB021222F8061C6278217B00EB02126B
:1005E00022F8041CE1790529617800EB011010F86C
:1005F000021C0EBF41F0010121F0010100F8021CB4
:1006000092D132E0FFE7617800EB011303F8101C90
:100610006378012100EB031303F80F1C63786188F2
:1006200000EB031323F80E1C6378A18800EB03137F
:1006300023F80C1C617800EB011121F80A2C617879
:1006400000EB011121F8082C617800EB011121F871
:10065000062C617800EB011121F8042C617800EB85
:10066000011010F8021C21F0010100F8021C5BE7E8
:100670000549002048707047034840787047024998
:100680000120487070470000000401103C07011071
:1006900003000201154A1154704700B583B0017878
:1006A0008DF8001041788DF8011081788DF80210D6
:1006B000C1788DF8031001798DF8041041798DF817
:1006C000051080798DF8060000208DF80700684637
:1006D00010F050F803B000BD70470549002818BF5E
:1006E0000120C87070470248C07870473C0701106D
:1006F000000401107047FE48D0F8C00000F001006F
:10070000704770B5FA4C05000AD001F05DFA38B9AF
:10071000D4F8C00010F0010F1CBF0020A06005D16C
:100720000120A060002D08BF002000D00120206221
:10073000002D18BF70BDD4F8D410D4F8D00011F03B
:10074000010F18BF11F0600F24D0D4F8B02222F4AA
:100750008032C4F8B02241F0610242F0FF22C4F8B6
:10076000D42040F0610242F0FF22C4F8D02021F0F2
:100770006102C4F8D42020F06102C4F8D020D4F87B
:10078000B02242F48032C4F8B022C4F8D410C4F8C5
:10079000D00070BD10F0010F18BF10F0600FD4D161
:1007A00070BDD348006A002818BF01207047C00000
:1007B00000F1804000F5A04041637047C00000F1A7
:1007C000804000F5A040006B00F48070704710215D
:1007D000C00000F1804000F5A04041637047C4496B
:1007E000D1F8402160F30D22C1F840217047C04884
:1007F000D0F84001C0F3052070470207520DC0F346
:10080000031002EB401000F1804000F5A0400029E9
:10081000D0F8401114BF41F0010121F00101C0F8EE
:10082000401170470107490DC0F3031001EB401060
:1008300000F1804000F5A040D0F8400100F0010038
:100840007047AB4900230B6202680A6042684A6045
:1008500082688A60C268CA60426A0A64826A4A64BC
:1008600002698A614269CA61426B0A66826B0A67E1
:10087000C26B4A67026C8A67426CC1F88020826C46
:10088000C1F88420C26CC1F88820026DC1F88C20A8
:10089000026EC1F89C20426EC1F8A020826EC1F8A1
:1008A000A420C26EC1F8A820C26FC1F8C020D0F841
:1008B0008020C1F8C420D0F88420C1F8C820D0F826
:1008C0008820C1F8CC20D0F88C20C1F8D020D0F8F6
:1008D0009C20C1F8E020D0F8A420C1F8F020D0F886
:1008E000A820C1F8F420D0F8AC20C1F8F820D0F846
:1008F000B020C1F8FC2021224A63CA63C2694A625F
:10090000C26A8A64026BCA64026FC1F8AC20D0F874
:100910009020C1F8D420D0F89420C1F8D820D0F885
:10092000A020C1F8E420426FC1F8B020826FC1F866
:10093000B420D0F8F821C1F88022D0F8FC21C1F809
:100940008422D0F80022C1F88822D0F80422C1F80D
:100950008C22D0F80822C1F89022D0F80C22C1F8DD
:100960009422D0F81022C1F89822D0F81422C1F8AD
:100970009C22D0F8182222F48032C1F8B022D0F89C
:10098000B420C1F80021D0F8B820C1F80421D0F873
:10099000BC20C1F80821D0F8C020C1F80C21D0F843
:1009A000C420C1F81021D0F8C820C1F81421D0F813
:1009B000CC20C1F81821D0F8D020C1F81C21D0F8E3
:1009C000D420C1F82021D0F8D820C1F82421D0F8B3
:1009D000DC20C1F83021D0F8E020C1F84021D0F867
:1009E000E420C1F84421D0F8E820C1F84821D0F82B
:1009F000F020C1F85021D0F8F420C1F85421D0F8EB
:100A0000F820C1F85821D0F8FC20C1F85C21D0F8BA
:100A1000EC20C1F84C21D0F82021C1F88021D0F879
:100A20002421C1F88421D0F82821C1F88821D0F8E8
:100A30002C21C1F88C21D0F83021C1F89021D0F8B8
:100A40003421C1F89421D0F83821C1F89821D0F888
:100A50003C21C1F89C21D0F84021C1F8A021D0F858
:100A60004421C1F8A421D0F84821C1F8B021D0F820
:100A70004C21C1F8C021D0F85021C1F8C421D0F8D0
:100A80005421C1F8C821D0F85C21C1F8D021D0F898
:100A90006021C1F8D421D0F86421C1F8D821D0F860
:100AA0006821C1F8DC21D0F86C21C1F8E021D0F830
:100AB0007021C1F8E421D0F87421C1F8E821D0F800
:100AC0007C21C1F8F021D0F88021C1F8F421D0F8C0
:100AD0008421C1F8F821D0F88821C1F8FC21D0F890
:100AE0005821C1F8CC21D0F87821C1F8EC2101E0DF
:100AF00000500040D0F88C21C1F80022D0F890219D
:100B0000C1F80422D0F89421C1F80822D0F8982125
:100B1000C1F80C22D0F89C21C1F81022D0F8A021F5
:100B2000C1F81422D0F8A421C1F81822D0F8A821C5
:100B3000C1F81C22D0F8AC21C1F82022D0F8B02195
:100B4000C1F82422D0F8B421C1F83022D0F8B8215D
:100B5000C1F84022D0F8BC21C1F84422D0F8C0210D
:100B6000C1F84822D0F8C821C1F85022D0F8CC21D1
:100B7000C1F85422D0F8D021C1F85822D0F8D4219D
:100B8000C1F85C22D0F8D821C1F86022D0F8DC216D
:100B9000C1F86422D0F8E021C1F86822D0F8E82139
:100BA000C1F87022D0F8EC21C1F87422D0F8F021FD
:100BB000C1F87822D0F8F421C1F87C22D0F8C42101
:100BC000C1F84C22D0F8E421C1F86C22FB4A12682B
:100BD00032F0FF0C05D1D1F890C062F3030CC1F8DC
:100BE00090C0F74A5370C36F13F0010F1CBF01236D
:100BF0005370D1F8C03023F00103C1F8C030D0F8F1
:100C00008C3013F0010F03D0537843F0020353707C
:100C1000D1F8D03023F00103C1F8D030D0F89000E3
:100C200010F0010F03D0507840F004005070D1F85C
:100C3000D40020F00100C1F8D4007047E0480078EB
:100C40007047DF4880787047DD49C8707047DC48DE
:100C5000C0787047DB490028D1F8C00014BF40F0CD
:100C6000010020F00100C1F8C0007047D54951F8DB
:100C7000C42F60F309020A607047D248D0F8C4005C
:100C8000C0F309007047CE4948607047CD48C0683E
:100C900070472DE9F047DFF82893054615F4003F2B
:100CA00099F8010099F8031000EA010418BF24F034
:100CB000010415F4802F18BF24F0020415F4002F4E
:100CC00018BF24F0040415F4801F18BF24F0080492
:100CD000DFF8F082D8F8B00220F48030C8F8B00213
:100CE00014F00F0F59D0D9F80460D8F8B8020027D3
:100CF00040F00100C8F8B802D8F8B80220F00100AE
:100D0000C8F8B802D8F8B00240F48030C8F8B00291
:100D10004FF0630A0DE002F0E4FD5046D8F8B81237
:100D200011F0010F01D0012703E0011EA0F1010025
:100D3000F4DC301EA6F1010601DD002FEBD067B315
:100D4000D8F8C00014F0010F0CBF20F0010040F0F3
:100D50000100C8F8C000D8F8D00014F0020F14BF8A
:100D600040F0010020F00100C8F8D000D8F8D4000D
:100D700014F0040F14BF40F0010020F00100C8F887
:100D8000D40089F80240012089F80000D8F8B002A8
:100D900040F48030C8F8B00233E0D8F8C00020F04A
:100DA0000100C8F8C000D8F8D00020F00100C8F851
:100DB000D000D8F8D40020F00100C8F8D4000020FA
:100DC00089F80200ACB1022089F80000D8F8B0021E
:100DD00040F48030C8F8B002D8F8B80240F0010002
:100DE000C8F8B802D8F8B80220F00100C8F8B80274
:100DF00007E0D8F8B01221F48031C8F8B01289F8B1
:100E00000000D8F8400115F0020F20F00D0018BFC7
:100E100040F0010015F0080F18BF40F0040015F075
:100E2000040F18BF40F00800C8F8400115F0010F8A
:100E300021D001F0B9F8044601F0B9F80146D8F81C
:100E40000C0000280EBF2046084621460028D8F88E
:100E5000C00114BF40F0010020F00100C8F8C0013B
:100E6000D8F8E001002914BF40F0010020F0010093
:100E7000C8F8E0010BE0D8F8C00120F00100C8F884
:100E8000C001D8F8E00120F00100C8F8E00115F039
:100E9000200F18BF002417D0204601F08FF800283B
:100EA0004FEA441000F1804000F5A040D0F8401215
:100EB00014BF41F0010121F00101C0F84012641C8F
:100EC000022CE9D3BDE8F087D8F8400220F00100F9
:100ED000C8F84002D8F8600220F00100C8F86002AB
:100EE000BDE8F0872DE9F0030246002011074C0D04
:100EF000C2F3031104EB411101F1804101F5A0415E
:100F0000D1F8401111F0010F11D142F01001C1F3DD
:100F1000031104EB411101F1804101F5A041D1F829
:100F2000401111F0010F04BFBDE8F0037047D60176
:100F300006F1804101F5A041D1F81C31C3F3080945
:100F4000204BDB69D1F8001103F008071FFA81F884
:100F5000002142EA0113C3F3031304EB431303F12B
:100F6000804303F5A043D3F8403113F0010F18D0AC
:100F700006EB411303F1804303F5A043D3F844C1CA
:100F8000CCF3080517F1000C1CBFD3F844C1CCF317
:100F9000023CD3F8403105FA0CFCC3F3054360442E
:100FA0001844491C0229D4D300FB08F0C9EB0911ED
:100FB000BDE8F00300EB410070470000E0FE0300D5
:100FC000180401100050004010B50120FFF78AFFFF
:100FD00004460220FFF786FF044400F0EFFB2044A4
:100FE0004FF47A71484347F23051B0FBF1F010BD35
:100FF0002DE9F041FE4E0546306810F01F0408BF91
:1010000001240120FFF76EFF07460220FFF76AFF69
:10101000074400F0D3FB3918F64F002D18BF002904
:101020004DD0D6F8C000002210F0010F34D0782047
:10103000B0EB151F08D9D6F8CC0020F00F0040F017
:101040000100C6F8CC002CE0D6F8C400EA4BC0F38F
:1010500009006043A0EB001003EB4003E748A0FB4E
:1010600005C04FEA502CB3FBF1F0102828BF0F2029
:10107000844598BF6046002808BF012005D001289C
:1010800084BF00FB1132B2FBF0F2D6F8CC3060F333
:101090000303C6F8CC3004E0B7FBF5F0884288BF04
:1010A000421AC4EB04104000B2FBF0F0B0F5005F50
:1010B00028BF41F6FF70726860F30C0272607068BE
:1010C000C0F30C006043C0EB001001EB4000B7FB25
:1010D000F0F0BDE8F081C648D0F8C01011F0010F63
:1010E00007D0D0F8CC0000F00F00C0EB001080015A
:1010F000704770B50168406801F01F05C0F30C0629
:101100000120FFF7EFFE04460220FFF7EBFE044448
:1011100000F054FB06FB05F1C1EB011104EB4101AA
:101120000844B449B1FBF0F070BDB148D0F8CC0030
:1011300000F00F007047AE494A684B68C2F30C02DA
:1011400060F30C034B6010467047A9484068C0F339
:101150000C007047C00100F1804000F5A040D0F8BD
:1011600000014EF6602180B2B1FBF0F0401C400857
:10117000704730B44EF6602331B1B3FBF1F1491C36
:101180004A08B2F5804F01D343F6FF72B3FBF2F188
:10119000491C4D08C101530801F1804101F5A041EE
:1011A000002807BF981FA3F10C0CD1F8040180B2EE
:1011B00018BFA2F1060C2CF0010CD1F8004162F32B
:1011C0000F04C1F80041D1F8002163F31F42C1F8B8
:1011D0000021D1F8042160F30F02C1F80421D1F8F5
:1011E00010016CF30F00C1F81001284630BC7047A5
:1011F000C00100F1804000F5A040D0F80001000CD3
:101200007047C20102F1804202F5A042D2F80031DB
:1012100061F31F43C2F80031002818BF70478A1FCE
:10122000901F20F001017248D0F8043162F30F03DF
:10123000C0F80431D0F8102161F30F02C0F810217A
:1012400070470107490DC0F3031001EB401000F196
:10125000804000F5A040D0F84401C0F3080070477A
:101260000207520DC0F30310654B02EB401000F172
:10127000804000F5A0409B58D0F84421CB1A61F380
:101280000802C0F84421D0F844119B1E63F31841B2
:10129000C0F8441170475649C9695A4A11F0100FF5
:1012A0004FEA00714FEA5151C0F3031001EB4010B7
:1012B00000F1804000F5A0405258D0F84401D2B26D
:1012C000C0F3080008BF0022801A0004000C08BF09
:1012D000012070470309DB0103EB810101F140515B
:1012E00001F5C0410007C00E0B6802FA00F0184378
:1012F000086070470209D20102EB810101F14051FF
:1013000001F5C04100070968C00E21FA00F000F0A5
:10131000030070470207520DC0F3031002EB4010A8
:1013200000F1804000F5A040C0F84C117047010763
:10133000490DC0F3031001EB401000F1804000F5AF
:10134000A040D0F84C017047294A0021D26912F020
:10135000080F0DD00107490DC0F3031001EB401039
:1013600000F1804000F5A040D0F84401C0F3023104
:10137000084670471E4AD36943F00803D361020749
:10138000520DC0F3031002EB401000F1804000F555
:10139000A040D0F8442161F30E32C0F844217047D8
:1013A000134A0021D26912F0080F0DD00107490D30
:1013B000C0F3031001EB401000F1804000F5A040A5
:1013C000D0F84801C0F30241084670470207520DA9
:1013D000C0F3031002EB401000F1804000F5A04084
:1013E000D0F8482161F31242C0F84821704700004C
:1013F0000050004000389C1C1B81070089888888A9
:101400001451004020510040042988BF704710B497
:101410000023FE4CE26912F0080F4FEA00724FEA17
:101420005252C0F3031002EB401000EB04021CBF49
:10143000D2F84401C0F302330020D4F81CC01CF0E1
:10144000080F1CBFD2F84801C0F30240C91A084473
:10145000042803DD081A011D042003E00028BCBF96
:10146000014400201944E36943F00803E361D2F822
:10147000443161F30E33C2F84431D2F8481160F3BD
:101480001241C2F8481110BC7047E0490028886931
:1014900014BF40F0080020F0080088617047DB4866
:1014A0008069C0F3C00070470207520DC0F30310FB
:1014B00002EB401000F1804000F5A040D0F8482138
:1014C00061F30F02C0F8482170470107490DC0F3CE
:1014D000031001EB401000F1804000F5A040D0F86F
:1014E000480180B27047C94AD2F8CC10022903D112
:1014F00010F0010F18BF7047D2F8400110F0010F33
:1015000008BF7047D2F84801D2F844110304C1F370
:1015100002311B0C14BF002970474FF6FF71484081
:10152000C2F848017047B94A0021D26912F0080F89
:101530000DD00107490DC0F3031001EB401000F17D
:10154000804000F5A040D0F84801C0F300510846A3
:1015500070470120704710B4022ADDF804C026BF8E
:10156000921E52080022022B26BF9B1E5B080023FE
:10157000A74CA4FB0C4C4FEA1C144FEA007C4FEA2A
:101580005C5CC0F303100CEB401000F1804000F5F0
:10159000A040D0F854C161F31B6C62F3134C63F3A9
:1015A0000B2C64F3070CC0F854C110BC704770B426
:1015B0000407640DC0F3031004EB401000F18040F9
:1015C00000F5A040DDF80CC0D0F854010029C0F3AC
:1015D0000366C0F30345C0F30324C0B218BF0E6016
:1015E00012B16900891C116013B16100891C196076
:1015F000BCF1000F04BF70BC704700EB800080009E
:10160000CCF8000070BC704780490028C86914BF3E
:1016100040F0200020F02000C86170477B48C0697E
:10162000C0F34010704770B491B000224FF4804571
:101630006C10EC4601E0082A05D2531C03EB83032F
:10164000B5FBF3F304E0D31F03EB8303B4FBF3F325
:101650005B1A48BF5B424CF82230521C102AEAD376
:101660000026009B01215CF821209A42BCBF134652
:101670000E46491C1029F6D30107490DC0F303108B
:1016800001EB401000F1804101F5A041D1F8580173
:10169000D1F8582100F00F0066F30302C1F8582179
:1016A000082807D2401C00EB8000B5FBF0F011B019
:1016B00070BC7047C01F00EB8000B4FBF0F011B0AD
:1016C00070BC70470107490DC0F3031001EB4010D7
:1016D00000F1804000F5A040D0F8580100F00F0064
:1016E000082834BF401CC01F00EB800034BF4FF4FB
:1016F00080414FF40051B1FBF0F0704710F00F0F34
:1017000008BF70470007400D00F1804000F5A04081
:101710000029D0F824110CBF21F4803141F480312C
:10172000C0F824117047002110F00F0F0BD00007F4
:10173000400D00F1804000F5A040D0F8240110F4E5
:10174000803F18BF012108467047304AD2F8AC00EC
:1017500011F0010FD2F8AC10C0F3C00014BF41F07B
:10176000080121F00801C2F8AC107047274A506701
:101770009167704725490028D1F8AC0014BF40F0AC
:10178000020020F00200C1F8AC0070471F49002899
:10179000D1F8AC0014BF40F0010020F00100C1F806
:1017A000AC0070471948D0F8DC0070471749C1F801
:1017B000E00070471548D0F89800704770B4134E99
:1017C0000020D6F8401111F0010F04BF70BC704723
:1017D00011F0040FD6F81C3101F00805D6F800C14D
:1017E000C3F308031FFA8CF4D6F844C1CCF3080CF9
:1017F00018BFC1F30740F269C1F3052112F00802D6
:101800001CBFD6F84421C2F3023203E0005000406E
:10181000CDCCCCCC002D18BF491C0CFA02F201FB38
:101820000200604370BCC3EB031100EB4100704742
:10183000FEF7B7BF10B5FEF7B4FF012818BF10BD03
:101840000020FEF75EFF21210020FEF7B0FF2121DE
:10185000BDE810400120FEF7AABF10B5FEF74AFF11
:10186000FEF79FFF01280AD10020FEF74AFF212141
:101870000020FEF79CFF21210120FEF798FF0121A7
:10188000052001F06CFB0121052001F068FBFC49FB
:101890000020087110BD10B54FF4066001F0B5FBD3
:1018A000BDE810404FF4066001F0A0BBF44A0146C9
:1018B000107B002818BF0120002918BF01211173D7
:1018C0007047EF4A516A506208467047EC49002061
:1018D000C872887048707047E9490020C8728870E3
:1018E000487070470007C00EE64A801E02EBC01029
:1018F0004FF480720EF043BF70B50646FEF777FFD7
:10190000E14D0446C6B1A201314628460EF037FF2C
:1019100005EB84100021016041608160C1600161BC
:1019200041618161C161016241628162C1620163A1
:1019300041638163C16370BD800100F140012846AD
:10194000BDE870400EF020BF10B5CD4CE061FFF750
:10195000A0F9FFF773F9A1696FF30F01A161A26903
:10196000C1B242EA0121A161022818BF10BDA069DD
:1019700040F00100A06110BDC4488168C44A114311
:1019800081600168521C1143016000F0D4BD2DE953
:10199000F047BE4A0D4606469368BD48184390601E
:1019A0001068BC490843106000F0C5FD0024002DFC
:1019B0006FD00020FEF7A5FE286820B1FEF741FF9A
:1019C0000020FEF79EFE3046FFF7BEFF0020FEF728
:1019D00029FF002852D0D5F80480FEF708FFDFF871
:1019E000A89201260746B8F1000F1ED0BA01414661
:1019F00048460EF0C4FE09EB871004604460846022
:101A0000C460046144618461C461046244628462AC
:101A1000C462046344638463C4639F48E96859B142
:101A20004FF480720EF0ABFE21E0800100F1400126
:101A300048460EF0A9FEF0E7984F4FF480710EF083
:101A4000A3FE0020395600290EDB0A09D20102EB61
:101A5000800202F1405202F5C0420907C90E136824
:101A600006FA01F119431160401C2028EAD38C4882
:101A7000696949B14FF480720EF081FE0120FEF7D2
:101A8000D1FE804E50B905E04FF480710EF07CFE1F
:101A9000F4E719E01120FEF7C5FE30B1A96821B1C5
:101AA00030464FF480720EF06AFE0220FEF7BAFE56
:101AB00018B91220FEF7B6FE30B1296921B1794874
:101AC0004FF480720EF05BFE6D48C47284704470F7
:101AD0004462017B002101734FF4066001F095FA26
:101AE000BDE8F0474FF4066001F080BA10B5002061
:101AF000FEF707FE00F00CFD6148C078002808BF23
:101B000010BD6248016821F0030141F00D7141F000
:101B100080510160816821F0020141F00D7141F0B6
:101B20008051816010BD4FF4066001F064BA10B5B9
:101B30004FF4066001F05FFAFEF733FE01280AD188
:101B40000020FEF7DEFD21210020FEF730FE2121DE
:101B50000120FEF72CFE5448D0F8B01221F4803159
:101B6000C0F8B0120020FEF7CCFD00F0D1FC4448D4
:101B7000C078002808BF10BD4448016821F0030167
:101B800041F00D7141F080510160816821F0020146
:101B900041F00D7141F08051816010BD10B501F030
:101BA0002FFA10F0600018BF012010BD3448C06942
:101BB000704733488069704772B631498A6922EAB2
:101BC0000000886162B670472D480078002818BF71
:101BD0000120704770B5FEF7E4FD002818BF70BD06
:101BE0000024274DEC72AC706C7021212046FEF76A
:101BF000DEFD21210120FEF7DAFD2C70BDE87040EA
:101C00000120FEF77EBD70B50446FEF7CAFD002830
:101C100018BF70BD00211A4DE972A97069702121A9
:101C20000020FEF7C4FD21210120FEF7C0FD022C9B
:101C30003CBF0120FEF7CBFD012028702C62BDE8DF
:101C40007040FEF75EBD10B5FEF7ABFD002818BF73
:101C500010BD00200A4CE072A07060702121FEF7D8
:101C6000A6FD21210120FEF7A2FD0120FEF7AFFD18
:101C7000012020702062BDE81040FEF742BD000048
:101C80002004011040480030004000300080004037
:101C900002003412030034120060003045070110C6
:101CA0000080003040490030005000400020FEF726
:101CB00028BDFF490020887048700120FEF721BD33
:101CC000FB4988627047FA48806A7047002000F03C
:101CD00068BB012000F065BB10B5FFF763FD04464B
:101CE000FFF764FDF348044208BF10BDF048816966
:101CF00041F0040181610E2101EAD43104F00102B6
:101D00000A43816962F31F418161EB48016841F038
:101D10002001016010BD002818BF0120E449C870EF
:101D20007047E6487047E6487047E148C06A704728
:101D3000DF484179C279914214BF006B406B704714
:101D4000DB48406B70472DE9F00FDC4E4FF0000C84
:101D500088B006F14007E1464FF0FF3806F80C80E6
:101D600007F80C900CF1010CBCF1200FF6DB4FF0E2
:101D7000000C002807DD12F80C4006F80C400CF1AE
:101D8000010C6045F7DC002422464FF0010A0028D0
:101D90000EDD16F902C0BCF1000F06DBBCF1200F0E
:101DA0003CBF0AFA0CFC4CEA0404521C8242F0DBF1
:101DB000002294466D460AFA02FB1BEA040F1ABF82
:101DC00005F802C00CF1010C05F80280521C202A13
:101DD000F1DB0022002810DD16F902C0BCF1000F73
:101DE00008DBBCF1200F3ABF15F80CC007F802C0A1
:101DF00007F80280521C8242EEDBAD4C0022002824
:101E0000C4F82C9008DD17F902C0944501D0E762B0
:101E100002E0521C8242F6DBAA4F0020A7F1600CC0
:101E2000A7F120060CF8008006F8009007F8009053
:101E3000401C2028F6DB0020002905DD1A5C0CF888
:101E40000020401C8142F9DC0022104600290BDDF5
:101E50001CF90030002B04DB202B3CBF0AFA03F3F3
:101E60001A43401C8842F3DB002003460AFA00FBB9
:101E70001BEA020F1ABF2B545B1C05F80080401CA4
:101E80002028F3DB002000290ADD1CF90030002B9C
:101E900003DB202B3CBFEB5C3B54401C8842F4DB53
:101EA0000020C4F83490002907DD3B56834201D05E
:101EB000676302E0401C8842F7DB11F0010F18BF96
:101EC0001F2009D00AFA00F3134203D10AFA00F0E6
:101ED000024301E0401EF5D5002003460AFA00F750
:101EE00017421ABF2B545B1C05F80080401C2028A9
:101EF000F4DB002000290ADD1CF90020002A03DBA6
:101F0000202A3CBFAA5C3254401C8842F4DB0020EB
:101F1000C4F830900029DEBF08B0BDE8F00F70476C
:101F20003256824204D0266308B0BDE8F00F7047F5
:101F3000401C8842F4DB08B0BDE8F00F70476249EE
:101F400000EB401001EB8010704700EBC0005F49D0
:101F500000EB400001EB80007047DFF854C1012B1B
:101F60008CF805008CF8061003D9401C20F0010005
:101F700011468CF807008CF8081000FB01F24FF6B0
:101F8000FF7101EA4202ACF8122001EA4000ACF80D
:101F9000140070474648007A70474548C07970473A
:101FA000434A5072917270474148807A7047404866
:101FB000407A7047464A1070517070474449085C37
:101FC00070472DE9F047DFF8E890044699F80C00D7
:101FD000002804BF99F801000EF0DBFB99F80B0014
:101FE000002808BFBDE8F0874FF00008D9F81C00B2
:101FF00047464646454610F0020F1CBFDFF8C88032
:1020000010F0040F05D0B9F812102F4A21F0010189
:102010008F1810F0010F18BF2C4E10F0200F18BFB2
:102020002C4DD9F828002060FEF70BFE10F0010FB0
:1020300006D0FFF77AF8022828BF99F8020000D2EC
:102040000020E760C4E90108C4E904650120BDE897
:10205000F08717490020C872704710B50446FEF794
:10206000C6FB82012046BDE810401B490EF087BB2D
:102070002DE9F041FEF7BBFB04460020FFF757F9BE
:102080000022002C84BF012541F6F07635D90021CD
:102090004FEA821C05FA01F3034228D04B080CEBEF
:1020A000830303F1405303F58043CF071B6815E01A
:1020B00020040110010007005C0401104507011015
:1020C00065070110C5070110BC950110FC9D0110AA
:1020D0002D040110D49E011000400030FF0EFB4083
:1020E000C3F30C03B34202D90020BDE8F081491CC0
:1020F0002029CFD3521CA242C9D30120BDE8F081D0
:102100000B460007C00EC549801E01EBC0114FF4FD
:10211000807218460EF033BB2DE9F05F00F00F0619
:1021200070000025A0F1020B012741F6F07846EA85
:1021300005194846FEF776FB002835D04846FFF7DC
:1021400003F907FA00F4022C88BF02244846FFF77F
:10215000EEF80022002C84BF0BEB05014FEAC11AF8
:1021600022D900210AEB821907FA01F3034215D0A4
:102170004B0809EB830303F1405303F580434FEA17
:10218000C17CD3F840384FEADC6C23FA0CF3C3F37C
:102190000C03434502D90020BDE8F09F491C2029CB
:1021A000E2D3521CA242DCD36D1C022DBFD301200E
:1021B000BDE8F09F2DE9F05F0026994C4FF6FF75C2
:1021C00000280F4644D000F00F01C0F3031001298E
:1021D0000EBF00210229BDE8F09F022828BFBDE8FC
:1021E000F09F01EB0009FEF7DCFA5FEA00081CBF74
:1021F0000020FEF786FA00204FEAC919002209EBF9
:102200008011530801EB830303F1405CD307DB0E1D
:102210000CF5804C05FA03FBDCF840A807FA03F341
:102220002AEA0B0A4AEA0303521CCCF84038202A57
:10223000E7D3401C0228E1D3B8F1000F08BFBDE886
:10224000F09FA6706670BDE8F05F0120FEF759BAF6
:10225000FEF7A7FA5FEA00081CBF0020FEF751FA5C
:10226000002000228101530801EB83034FEAC27C66
:1022700003F140534FEADC6C03F5804305FA0CFA96
:10228000D3F8009007FA0CFC29EA0A0949EA0C0C79
:10229000521CC3F800C0202AE5D3401C2128E0D3FB
:1022A000B8F1000FCDD1BDE8F09F10B5FEF7F3FFF8
:1022B0005B49088210BD5A4AC1B200F4F853128A31
:1022C000914288BF11464FF0640C01FB0CF1B1FB49
:1022D000F2F11A0A02FB0C1110F4005F12BF08B2EF
:1022E000484200B2704710B54FF480714D4C4E48D3
:1022F0000EF04AFA002001232156002910DB0A09BA
:10230000D20102EB800202F1405202F5C0420907FD
:10231000C90ED2F800C003FA01F14CEA01011160C4
:10232000401C2028E8D310BD10B53E4C4FF48071FE
:102330003D480EF029FA002001232156002910DB28
:102340000A09D20102EB800202F1405202F5C042BA
:102350000907C90ED2F800C003FA01F14CEA0101E5
:102360001160401C2028E8D3BDE810404FF42461E0
:102370002E480EF009BA2A4810B5808B00F48170FF
:10238000FFF7E2FA4FF4807127480EF0FDF94FF4A1
:10239000046126480EF0F8F9BDE810400020FEF771
:1023A000CABE70B51E4C0546A06A401CA0622078CB
:1023B00050B1206A10B1206A401E2062206A0028B5
:1023C00004BF0020FEF79DF920212846FEF7EFF913
:1023D000616A00291CBF28468847FEF72FFC0228A7
:1023E00015D11348D0F8B81211F0010F0FD0D0F862
:1023F000B81241F00101C0F8B812D0F8B81221F0BB
:102400000101C0F8B812A06940F00200A0610948BB
:10241000016841F02001016070BD000040480030BB
:10242000200401104507011000600030004000301A
:10243000005000405C0401102DE9F0410027634D7D
:102440000126002808BF2E701FD001282F7018BF4A
:102450006F701AD0DFF87881D8F800005D49084322
:10246000C8F8000029785C4C002914BF4BF60830EE
:102470005A48E06014BF5A484FF0BB70A0605948FA
:10248000006830F0FF0206D101E06E70E2E7E2681A
:1024900060F30302E26051B1A06840F01800A06050
:1024A000012000F071F8A06840F48050A060012085
:1024B00000F06AF8687818B1E06840F03000E06039
:1024C000D4F8B00040F00100C4F8B000012000F0E2
:1024D0005BF8E6674FF4E0602061C4F88870287804
:1024E000002818BFC4F89460E06820F03000E06075
:1024F000A06820F48050A060D8F8000020F004000C
:1025000040F00D7040F08050C8F80000BDE8F08148
:102510003148C16821F03001C160816821F48051E7
:1025200081602B48016821F0040141F00D7141F0F8
:1025300080510160704726480268264911430160B6
:10254000224925480A783AB1826842F0180282602E
:10255000826842F480528260497819B1C16841F0C2
:102560003001C160D0F8B01041F00101C0F8B010E6
:1025700070471D49C0B241EA0020174908647047FE
:1025800015491A480864704782B040F24C420090E6
:1025900013E000BF00BF00BF00BF00BF00BF00BF0F
:1025A00000BF00BF00BF00BF00BF00BF00BF00BF33
:1025B00000BF0198411E0191EBD20098411E00918D
:1025C00028BF0192F5D202B07047000058040110F4
:1025D00000800040040034120060004005F4010057
:1025E0002000BB00D0FE030013005FA000005FA02E
:1025F000414840498161891CC161491E41630268AB
:1026000022F0030242F00D7242F0805202604269F1
:1026100022F0010242F00D7242F0805242610269E2
:1026200011430161354981603549C1603549002058
:102630000860704710B501F04CF932480468002C6E
:1026400008BF30BFFAD00021016001F046F92046F2
:1026500010BD10B501F03DF926482A4B2649421C11
:102660001C682CB10020186001F037F9204610BD1D
:1026700072B648638A6120BF88614A6362B6BFF35D
:102680006F8FBFF34F8FEBE71B48016821F0030109
:1026900041F00D7141F0805101601B498160016979
:1026A0001A4A1143016130BF704772B6114912488E
:1026B0004163C91CC161891E816162B670470E48C1
:1026C0000168134A1143016070470B48016821F00B
:1026D000030141F00D7141F080510160704772B605
:1026E000044905488161891CC161491E416362B684
:1026F0007047000000003412008000403C0034129B
:10270000280034125C040110080034120100341255
:10271000030034127047002818BF01204FF4E02155
:10272000486070470022B2EBD10F26D20368B3F1A4
:10273000FF3F04BF4368B3F1FF3F17D18368B3F194
:10274000FF3F04BFC368B3F1FF3F0FD10369B3F18B
:10275000FF3F04BF4369B3F1FF3F07D18369B3F182
:10276000FF3F04BFC369B3F1FF3F01D000207047B2
:102770002030521CB2EBD10FD8D30120704710B4D7
:102780000023B3EBD20F30D2D0F800C00C68A445C0
:1027900022D1D0F804C04C68A4451DD1D0F808C09F
:1027A0008C68A44518D1D0F80CC0CC68A44513D1CE
:1027B000D0F810C00C69A4450ED1D0F814C04C69F3
:1027C000A44509D1D0F818C08C69A44504D1D0F82B
:1027D0001CC0CC69A44502D010BC0020704720303A
:1027E00020315B1CB3EBD20FCED310BC012070475D
:1027F0002DE9F041054601F074F8002021264FF440
:10280000825784464FF4E0221660C5F800C0116874
:1028100041F004011160116811F0040FFBD1176041
:1028200040232C460021D4F80080B8F1FF3F04BFBC
:10283000D4F80480B8F1FF3F1DD1D4F80880B8F176
:10284000FF3F04BFD4F80C80B8F1FF3F13D1D4F898
:102850001080B8F1FF3F04BFD4F81480B8F1FF3FF7
:1028600009D1D4F81880B8F1FF3F04BFD4F81C8018
:10287000B8F1FF3F08D0C2F800C0401CC0B2082821
:10288000C2D30220BDE8F081491C2034B1EBD30F44
:10289000C9D3C2F800C00120BDE8F0812DE9F041A4
:1028A000054601F01EF80020092684464FF4E02377
:1028B0001E60C5F800C0196841F00401196019686C
:1028C00011F0040FFBD12C464FF4806200212768E1
:1028D000B7F1FF3F04BF6768B7F1FF3F17D1A768A3
:1028E000B7F1FF3F04BFE768B7F1FF3F0FD127699A
:1028F000B7F1FF3F04BF6769B7F1FF3F07D1A76991
:10290000B7F1FF3F04BFE769B7F1FF3F08D0C3F855
:1029100000C0401CC0B20328CAD30220BDE8F08129
:10292000491C2034B1EBD20FD1D3C3F800C0012031
:10293000BDE8F0812DE9F05F0F46804604264FF098
:10294000020A4FF0000B4FF4E02900F0CAFF4446A2
:102950003846C9F800A00F21B0E82C10A4E82C10CC
:10296000491EF9D2D9F8000040F00400C9F800006F
:10297000D9F8000010F0040F06D000BF00BFD9F84E
:10298000000010F0040FF8D1C9F800B045463846F1
:102990000F21D5E90023D5E902C4D0F800E096451F
:1029A00004BF42689A4205D18268624504BFC2688A
:1029B000A24208D0761E03D34046FFF719FFC4E7B2
:1029C0000220BDE8F09F10301035491EE1D20120F1
:1029D000BDE8F09F70B50D46044600F082FF4FF44D
:1029E0008072214628460DF0CAFE012070BD2DE9F7
:1029F000F041C0B014460E46054610F0FF0F23D03C
:102A000025F0FF086F4600F06CFF4FF480724146DE
:102A100038460DF0B4FEE8B2C0F58077A74288BF13
:102A2000274668443A4631460DF0B8FE4046FFF767
:102A3000DFFE022843D069464046FFF77BFF0228AD
:102A400041D03D443E44E41BB4F5807F19D34FF49C
:102A50008072314668460DF0A1FE2846FFF7C8FE99
:102A600002282CD069462846FFF764FF02282AD0A6
:102A7000A4F5807405F5807506F58076B4F5807F41
:102A8000E5D2C4B16F4600F02CFF4FF480722946A6
:102A900038460DF074FE2246314668460DF07EFE43
:102AA0002846FFF7A5FE022809D069462846FFF709
:102AB00041FF022807D040B00120BDE8F08140B0BE
:102AC0000A20BDE8F08140B00B20BDE8F081000095
:102AD0002E490860086100F010B82C490860486170
:102AE00000F00BB829494867704728498867704744
:102AF000264801210166016570474FF04022116BA5
:102B000010F0010F18BF21F4404110F0020F1CBF5C
:102B100021F4405141F4805110F0040F18BF21F40A
:102B2000406110F0080F18BF41F4407110F0100F11
:102B300018BF41F0C00110F0200F18BF41F0300164
:102B400010F0400F18BF41F00C0110F0800F18BFBB
:102B500041F0030141F4BE0141F020411163D2F87C
:102B6000901010F4807F1CBF21F0030141F002019E
:102B700010F4007F1CBF21F00C0040F0080141F46C
:102B8000BE0040F02040C2F89000704700100040A6
:102B90007047D0488268D0490A438260C2681143B6
:102BA000C1604169CD4A114341617047C9484169DB
:102BB00021F0010141F00D7141F080514161C16886
:102BC00021F0400141F00D7141F08051C1608168F8
:102BD00021F0400141F00D7141F08051816070475A
:102BE00010B5BC4CA168BC480143A160E168084332
:102BF000E0606069B94908436061B94843F63F71D4
:102C0000C160002181638164C0F8B01003210A20F3
:102C100000F0A5F90A2000F0C5F9606920F0010074
:102C200040F00D7040F080506061E06820F040009E
:102C300040F00D7040F08050E060A06820F040004F
:102C400040F00D7040F08050A06010BDA44A1060AC
:102C50005160484390607047A14A106051604843FA
:102C600010F0010F18BF401C906070479C49C1F8DC
:102C7000B00070479A49002818BF01208864704747
:102C800097498863C86840F00200C8607047DFF861
:102C900050C2CCF82000CCF82410CCF82820CCF876
:102CA0002C300120CCF83000DCF8340010F0010F9B
:102CB00005D020BFDCF8340010F0010FF9D110F07E
:102CC000020018BF4FF0FF3070478548C16821F0FF
:102CD0000201C16070478248C16841F00101C160D2
:102CE00070477F4B186259629A6201201864586CD1
:102CF00010F0010F04D020BF586C10F0010FFAD172
:102D000010F0060018BF4FF0FF3070477448C168DC
:102D100021F00101C16070477148C16841F00401B0
:102D2000C1607047027C017B02F03F0241EA024130
:102D30006B4A916501685162416891628168D16214
:102D400001211165516D11F0010F04D020BF516DAB
:102D500011F0010FFAD1D36D8382D36D1B0CC382A6
:102D6000136E0383136E1B0C4383536E8383526E67
:102D7000C2F30E42C28311F0020018BF4FF0FF30C1
:102D800070475748C16821F00401C160704754483A
:102D9000C16841F00801C1607047DFF844C1CCF858
:102DA0007820CCF82000CCF82430CCF82810012072
:102DB000CCF87000DCF8740010F0010F05D020BFD3
:102DC000DCF8740010F0010FF9D110F0060018BF04
:102DD0004FF0FF3070474248C16821F00801C160E0
:102DE000704701684FEA31423D49C1F89C20406874
:102DF000C1F8A000C86840F02000C86070470168B2
:102E00004FEA31423649C1F89C208088C1F8A000C1
:102E1000C86840F02000C8607047314B18625A62A1
:102E200099620120C3F89400D3F8980010F0010FC4
:102E300005D020BFD3F8980010F0010FF9D110F0A1
:102E4000060018BF4FF0FF307047254A10625162EC
:102E50000120C2F89000D2F8980010F0010F05D0C0
:102E600020BFD2F8980010F0010FF9D110F0060041
:102E700018BF4FF0FF3070471948C16821F020019A
:102E8000C16070471648C16841F01001C1607047C9
:102E9000A3F1050C124BC3F888C018625A629962FC
:102EA0000120C3F88000D3F8840010F0010F05D092
:102EB00020BFD3F8840010F0010FF9D110F0060004
:102EC00018BF4FF0FF3070470548C16821F010016E
:102ED000C16070470080004040003412010034128D
:102EE000009000401B4810B5022140F8501F0121FE
:102EF00001611021416241F20601416100218161BD
:102F00000421816390214163416B41F001014163E0
:102F10004FF4817101610161032000F043F8002149
:102F2000032000F01CF8002010BD10B5032000F0B5
:102F300045F808484FF480710166002101661021B0
:102F4000816702214165002010BD034900200870FF
:102F5000704700000030004060040110704700F02E
:102F60000303DA004FF0FF0C0CFA02F24FF0050CED
:102F70000CEBC30301FA03F300F00C0101F1E021B3
:102F8000002807DAD1F8140D90431A401043C1F815
:102F9000140D7047D1F8000490431A401043C1F853
:102FA0000004704700F01F01012202FA01F14009FC
:102FB000800000F1E020C0F80011704700F01F0110
:102FC000012202FA01F14009800000F1E020C0F87E
:102FD0008011704700F01F01012202FA01F140093F
:102FE000800000F1E020C0F8801270474FF0E0212F
:102FF000C1F8000170474FF0E021C1F8800170472F
:103000004FF0E020D0F8000170474FF0E021C1F808
:1030100080027047084800687047074A11681060CE
:1030200008467047044A126800F1100352F8230062
:1030300042F823107047000008ED00E002210C2048
:10304000FFF78DBFB8488268B8490A438260C268FA
:103050001143C1607047B448816821F4805141F048
:103060000D7141F080518160C16821F4805141F0BF
:103070000D7141F08051C1607047AD4881B0016F62
:1030800011F4007FFBD1816E11F0010F1CBFD0F84D
:103090008410009104D0D0F88410009A9142FAD0A4
:1030A000016F11F4007F04BF4CF27101016642F21E
:1030B0004131816601B070479D4981B04FF40D5296
:1030C0008A660A6FCA66012898BF012005D9401E8A
:1030D000B0F5803F28BF4FF6FF7082B24FF05C50D2
:1030E00040EA022048664FF01140C1F88000086FA6
:1030F00010F4007FFBD1886E10F0010F1CBFD1F8D7
:103100008400009004D0D1F88400009A9042FAD054
:10311000086F10F4007F04BF4CF27100086642F2A1
:103120004130886601B07047814881B0016F11F469
:10313000007FFBD1816E11F0010F1CBFD0F884100D
:10314000009104D0D0F88410009A9142FAD04FF444
:103150000D51816601B070477348806810F480504B
:1031600008BF70477248806E00F0010070477048D9
:10317000406EC0F30F2070476D48D0F88400704750
:1031800010B50C20FFF726FF0C20FFF70BFF684956
:103190000220486710BD664910B5032088670C20DF
:1031A000FFF70CFFBDE810400C20FFF713BF614A8A
:1031B00011681060084670475D4810B5016FC16620
:1031C0005C480068002818BF80475B48016841F4EC
:1031D0008051016010BD574840687047524810B593
:1031E000826852490A438260C2681143C1605049F3
:1031F000032088670C20FFF7E1FE0C20FFF7EAFEB2
:1032000000F066F94D4B0420C3F888004FF6FF70BC
:10321000C3F88C0072B66033FFF74EFF4FF40070B6
:10322000186062B610BDF8B572B64148016F11F46E
:10323000007FFBD1816E11F0010F1CBFD0F884100C
:10324000009104D0D0F88410009A9142FAD04FF443
:103250000D51816639494FF400320A6662B6D1F8E1
:103260000412314D002946D0324C4FF6FF73591AE3
:10327000A160AA69D5F81CC002F00F020CF00F0C77
:103280006244121D01FA02F2A2F5EA41DFF8B0C071
:10329000313961452FD2D0F88400191AE160B1F5B7
:1032A000803F28D2274B4FF0000CA1FB03070CFBFB
:1032B000037301FB0C3163460DF075FA401C4008A6
:1032C0002061B0F57A7F38BF4FF47A701E4B996851
:1032D000002908BF98605A681A609968C3E901100C
:1032E0008A421BD9824205D9814201D9616002E03C
:1032F000606000E0626000F0F7F8A86820F4805099
:1033000040F00D7040F08050A860E86820F48050D4
:1033100040F00D7040F08050E860F8BD8242E9D87E
:103320008142E5D8E2E7000000800040001034123E
:1033300000C00040640401105C04011000A00040C3
:103340002F6E160000879303E80701100F4881686D
:103350000F4A114381600F48016841F40471016014
:10336000001F016841F004010160016841F0100193
:1033700001607047084908607047BFF34F8F0849E4
:1033800006480860BFF34F8FFEE700000080004052
:103390000400341214ED00E008ED00E00400FA052A
:1033A0000CED00E018488168184A11438160100351
:1033B000416941F001014161016A21F00F021449A4
:1033C0000A430262134B8A1EC3F8C420016570478A
:1033D0004FF04020006900F0700070474FF040202F
:1033E0000D4940F8301F0D4941600D4901660D49F6
:1033F000416670474FF0402148680B4A904202BF37
:10340000496C0029094870470080004004003412CC
:1034100003005FA000600040C0845FA050995FA0DF
:103420000A005FA000005FA061A5650561B66505A3
:10343000022824BF00207047DE4B53F8202043F8B9
:1034400020101046704770B5DB4C206FD94D10F03E
:10345000010F05D00120E0662868002818BF8047CA
:10346000206F10F0020F08BF70BD0220E066686890
:10347000002808BF70BDBDE870400047CF4810B5B8
:103480008268CF490A438260C2681143C160CA4959
:1034900002220A6501230B660323CB664A65816815
:1034A00021F0800141F00D7141F080518160C168CF
:1034B00021F0800141F00D7141F08051C16009207F
:1034C000FFF770FD0221BDE810400920FFF747BD5E
:1034D000BA488268BA490A438260C2681143C1602F
:1034E000B549022008657047B34902204865B348D2
:1034F000816821F0800141F00D7141F080518160BF
:10350000C16821F0800141F00D7141F08051C1602E
:103510007047AA488068C0F3C0107047A648016F82
:1035200011F4007F14BF4FF440714FF480710166B5
:10353000704710B5A04CE06F10F0020F4FF0010083
:1035400018BF0320606700F068F99C498A69C9695F
:1035500002F00F02D04001F00F01C8400521B0FB7E
:10356000F1F04FF405710009C4F880109549A1FBF2
:1035700000104009C4F88400206F10F4007F14BFCD
:103580004FF440704FF48070206610BD8A48016F80
:1035900011F4807F14BF4FF440714FF40071016645
:1035A0007047854B30B4DA6F12F0010F14BF03225D
:1035B00002225A6700EB4005C5EBC0104FF4967429
:1035C000C1EBC0004C4300EB80007F4904EB40108E
:1035D000A1FB0010794900224FF0020C8C69C00851
:1035E000C96904F00F0401F00F012144C84005210E
:1035F000B0FBF1F0B0F5803F05D3511C4008CAB2D2
:10360000B0F5803FF9D242EA0C2141F01001C3F835
:103610008810C3F88C00186F10F4807F14BF4FF42B
:1036200040704FF40070186630BC70476248016FFC
:1036300011F4003F14BF4FF440314FF48031016664
:1036400070475D48016F11F4803F14BF4FF4403163
:103650004FF40031016670475748006FC0F30020F7
:1036600070475548006FC0F3402070475349896840
:10367000C1F3C011002904BF002070474E49002843
:103680000CBFD1F80002D1F8040270474B4B9A6886
:10369000C2F3C012002A04BF00207047464A002827
:1036A0000CBFD2F88000D2F88800C0F30A200CBF0B
:1036B000D2F88020D2F8882002F00F02D3F818C088
:1036C000DB690CF00F0C03F00F0363441A449140C4
:1036D000012202EB400048433C49A1FB00100009D5
:1036E00070473B4901200870704770B4334BC1EB01
:1036F000011149009A69D3F81CC002F00F020CF0C6
:103700000F0C6244121DD14008BF012104D0B1F555
:10371000803F28BF4FF6FF719A68C2F3C012002A9B
:103720001CBF70BC7047D3F808C0254A4CEA020C95
:10373000C3F808C0D3F80CC04CEA0202DA601E4A93
:103740004FF0020CC2F850C04FF400341466042548
:10375000C2F88850C2F88C101E4DD566C2F874C0ED
:103760001D4902283CBF134E46F82010002118487E
:1037700001704FF400711166017819B920BF01780A
:103780000029FBD014669567D566C2F854C09868C6
:1037900020F0800040F00D7040F080509860D868B4
:1037A00020F0800040F00D7040F08050D86070BC78
:1037B000704700007C04011000A000400080004021
:1037C000800034121F85EB51CDCCCCCC8988888801
:1037D0007804011002000202935600004FF0E0212D
:1037E0000020886108611F494860704710B54FF09C
:1037F000E02460610020A0610221401EFFF7AFFBC2
:103800000720206110BD4FF0E021002008617047C3
:1038100014480188491C018070471248806870472D
:103820002DE9F0410F4C002705462780A0684FF492
:103830007A71B0FBF1F04FF0E026401E7061B76185
:103840000221C81EFFF78BFB072030612188A942A7
:10385000FCD33761BDE8F0810349484301498860E2
:10386000704700008404011040420F00704770B59B
:1038700005464FF40D500406A0660320E066264876
:1038800060664CF2710020662448C4F8800042F261
:103890004630A06602210020FFF761FB0020FFF701
:1038A00081FB002D08BF70BDA06E42F2413108437C
:1038B000A06670BD012110B5880781674FF40D51D6
:1038C00081660020FFF77AFBBDE810400020FFF77B
:1038D00081BB012081074867704701208107886705
:1038E00070474CF271008107086670470C4A1168F6
:1038F0001060084670470A4808B5006818B180474C
:10390000002818BF08BD4CF2710188070166016FDD
:10391000C166006F009008BD07383937009C1C91C4
:103920009004011070B5FF4D00244FF4A0612C707D
:103930006C70EC70FC480CF027FF4FF4A061FB4862
:103940000CF022FFFA48AC602C71C0F80043C0F8BC
:103950000443C0F80843C0F80C43C0F81043C0F853
:103960001443C0F81843C0F81C43C0F82043C0F803
:103970002443C0F82843C0F82C43C0F83043C0F8B3
:103980003443C0F83843C0F83C43C0F84043C0F863
:103990004443C0F84843C0F84C43C0F85043C0F813
:1039A0005443C0F85843C0F85C43C0F86043C0F8C3
:1039B0006443C0F86843C0F86C43C0F87043C0F873
:1039C0007443C0F87843C0F87C436C716821D948CF
:1039D0000CF0DAFE6821D8480CF0D6FEEC6070BD21
:1039E000D049002048707047CE4840787047CD4895
:1039F0000079002818BF01207047CA484079002884
:103A000018BF01207047C748C078002818BF0120A0
:103A10007047C448407800EB800101EBC000C54905
:103A200001EBC00070472DE9F041BE4D0446C1498D
:103A30006A78C24F02EB820000EBC200C04E01EB7D
:103A4000C0033A78307821461044420018460CF002
:103A5000A5FE6A78B84902EB820000EBC20001EBD8
:103A6000C0033A78307821461044420018460CF0E2
:103A700095FE01206871BDE8F081AA48C0687047D2
:103A8000A848A949407800EB800001EB002070476E
:103A90002DE9F041A34E07463078002814BFA9480D
:103AA000A948047814BFA948A948057804FB05F87B
:103AB000FFF76FF829462046FFF7C8F870789B4C4F
:103AC00000EB8000984904EB002201EB00203B460C
:103AD0000146FFF7DCF8FFF769F870784FEA480213
:103AE00000EB800004EB002039460CF057FE01206B
:103AF000F070BDE8F0812DE9F0478A4D04468A490F
:103B00006878DFF8408200EB800001EB002C287819
:103B1000DFF834928D4E8E4F2146002815BF98F85D
:103B2000002099F8002033783B7802FB03F04FEA3D
:103B3000400260460CF032FE68787C4900EB800061
:103B400001EB002C28782146002815BF98F80020AA
:103B500099F8002033783B7802FB03F04FEA4002EB
:103B600060460CF01BFE0120E870BDE8F0876D4850
:103B70008068704770B5774C0546014622787648D4
:103B800052000CF00BFE22782946520073480CF0CC
:103B900005FE64490120087170BD2DE9F04FADF2BA
:103BA0003C5DDFF880910120CDF8240599F80300F1
:103BB000CDF8200599F80400CDF81C0599F805000A
:103BC000CDF81805FDF734FECDF83805FDF7FCFFFC
:103BD000CDF83405FDF7B9FACDF83005FDF731F829
:103BE0000446FDF727FED9F814000428BCBF0420C2
:103BF000C9F8140099F80200B9F81410000240EA5C
:103C0000014040F0010200239121072008F0D4FE7A
:103C100014F0010F05D0FDF7DDFF0020CDF82405DD
:103C200004E00020FDF787FAFEF70DF8002637467E
:103C3000B3464FF0010A04F068FF01281DD00DF5CE
:103C4000A060FEF7BEF9002800F0FB810DF5A06032
:103C500005F062FD002089F80100D9F81400C01EAB
:103C60008642CABF874201250025DDF80C050028E1
:103C700036D0DDF81C0520B132E04FF0010B00F02A
:103C8000CAB96846DDF80C150CF092FD80467DB18E
:103C9000304C4146207842002F480CF07FFD2078C0
:103CA000414642002D480CF079FD89F804A017E048
:103CB000FEF76FFF274C01212078FEF7C7FF274A48
:103CC0004346A2F140010846FEF7E1FFFEF76EFF12
:103CD00020784146420021480CF060FD89F804A09C
:103CE000DDF80805002800F0EA80DDF8200500284E
:103CF00040F0E58099F80000DDF80845002861D122
:103D0000D9F80880B8F1000F43D00E480078CDF8FC
:103D10002C050E480078CDF82805FEF73AFFDDF8AF
:103D200028151DE094040110189F0110F4070110DC
:103D3000F413011018A4011074170110CB04011022
:103D4000CC040110C9040110C6040110CA040110FA
:103D5000C7040110CD040110F4160110341701102E
:103D6000DDF82C05FEF778FF214642460846FEF7AF
:103D7000B8FFFEF71BFFFC480078022804BF40464E
:103D800005F09DFAF8480078092804BF204605F0A0
:103D900096FAF6480078012814D9DFF8CC8398F811
:103DA0000000042804BF204605F089FA2146684631
:103DB0000CF003FD044698F80000052804BF2046D7
:103DC00005F07DFAADB399F8010099F8002000EBF9
:103DD0008001E748002A00EB012021460CBFE54A9C
:103DE000E54A137814BFE54AE54A127803FB02F26C
:103DF0004FEA42020CF0D2FC99F8010000EB80017E
:103E0000E04800EB012399F800002146002814BF88
:103E1000D948D848007814BFD84AD94A127800FB4C
:103E200002F04FEA400218460CF0B8FC89F803A0F3
:103E300038E0FFE7CDF8284599F80000002814BFC6
:103E4000CD48CC4890F8008014BFCC48CC480478CA
:103E500008FB04F0CDF82C05FEF79BFE21464046FA
:103E6000FEF7F4FE99F80100C64C00EB8000C04953
:103E700004EB002201EB00200146DDF82835FEF7B7
:103E800006FFFEF793FEDDF82C05DDF8281542004D
:103E900099F8010000EB800004EB00200CF07EFCA0
:103EA00089F803A0B0480078032808D199F80100E8
:103EB00000EB8001AE4800EB012005F000FADDF8D0
:103EC000100500287DD0DDF81805002879D199F873
:103ED0000000DDF8104548BBD9F80C80B8F1000FA0
:103EE00024D0A9480178A94800780844401C40081B
:103EF000019002200090FEF74CFEDDE90010FEF775
:103F0000ABFE214642460846FEF7EBFEFEF74EFEAC
:103F10009F480078022804BF404605F0E2FA9C481A
:103F20000078092804BF204605F0DBFA45B399F86C
:103F30000100954D00EB800101EBC0019548DFF8D1
:103F40004C8200EBC1032A7898F800002146104407
:103F5000420018460CF022FC99F801002A7800EB88
:103F6000800101EBC0018C4898F8003000EBC100E3
:103F70001A44214652000CF011FC89F805A02EE0ED
:103F80008148A0460178814800780C18FEF701FEB0
:103F9000601C40080221FEF759FE99F801007E4D91
:103FA00000EB800101EBC0007A4905EBC00201EB98
:103FB000C00108464346FEF76AFEFEF7F7FD6200C1
:103FC00000E01BE099F8010000EB800101EBC0006C
:103FD00005EBC00041460CF0E1FB89F805A06C48F8
:103FE000007803280AD199F8010000EB800101EB69
:103FF000C001684800EBC10005F073FAFEF729F82C
:10400000D9F81400761C7F1C8642A8BF874211DBBA
:10401000D9F8100070B1FDF70DFCDDF83005FDF7A3
:104020008AF8DDF8380588B1DDF8340560B1FDF7B0
:104030000AFE0BE0DDF82405002818BFFDF703FE9B
:10404000F9E500F0CCFEF6E5FDF7C4FDBBF1000F8D
:1040500004BF0420C9F814000BD0DDF8200589F84E
:104060000300DDF81C0589F80400DDF8180589F85F
:104070000500B9F814104FEA0B2040EA0142002372
:104080009121072008F098FC0DF23C5D5846BDE8F0
:10409000F08F10B50024FDF789FD404910F0020FA4
:1040A0000AD0CA78002A08BF012410F0040F03D0F8
:1040B0000A79002A08BF012410F0010F03D04879C3
:1040C000002808BF01240020002C08BF10BD0020DC
:1040D0000870BDE8104060E508B50F2100F047FF0B
:1040E000012804D1FFF7D5FF009001F088F82B4894
:1040F000C17800291CBF4179002904D0007900282B
:104100001CBF012008BD002008BD08B50F2100F02C
:104110002EFF012804D1FFF7BCFF009001F06FF8DB
:104120001E48C17800291CBF4179002904D00079BC
:1041300000281CBF012008BD002008BD704717499A
:104140000020C8700871487109F066B810B54FF4C6
:10415000A06107480CF018FBBDE810404FF4A061C7
:1041600008480CF011BB000039050110C80401100B
:10417000189F0110C6040110C9040110CA040110DF
:10418000C7040110F4070110CB040110CC04011086
:104190003E05011018A401107417011094040110B9
:1041A000FE487047FE480178FE48007848434100C9
:1041B000FA480CF0E9BA70B50646F9480478F948AF
:1041C0000578FEF7E6FC29462046FEF745FDF64851
:1041D000F649407800EB800001EB00223146EF48C1
:1041E000FEF77FFDFEF7E2FCF1480078152818BFC6
:1041F00070BDEA48BDE8704005F061B8002818BFFE
:104200000120E949C870704710B5E74C002804BF89
:10421000A06010BDDFF89CC3E7490B78E7490A7836
:1042200001465A43520060460CF0B8FAE148A060DB
:1042300010BDE3490020C1F80003C1F80403C1F830
:104240000803C1F80C03C1F81003C1F81403C1F846
:104250001803C1F81C03C1F82003C1F82403C1F8F6
:104260002803C1F82C03C1F83003C1F83403C1F8A6
:104270003803C1F83C03C1F84003C1F84403C1F856
:104280004803C1F84C03C1F85003C1F85403C1F806
:104290005803C1F85C03C1F86003C1F86403C1F8B6
:1042A0006803C1F86C03C1F87003C1F87403C1F866
:1042B0007803C1F87C037047C2487047002818BFD4
:1042C0000120B9490871704710B56821BE480CF04B
:1042D0005BFABDE810406821BC480CF055BA0028D4
:1042E00018BF0120B0494871704710B5AE4C002886
:1042F00004BFE06010BD68220146B5480CF04EFADC
:10430000B348E06010BD70B5A74C00210546E170D0
:104310002171617108F080FF002D14BF0120002081
:104320002070BDE8704038E42DE9F04F89B04FF4BB
:10433000A061A0480CF028FA6821A5480CF024FAE6
:10434000FDF734FC0446FDF773FA0890FDF73CFCDA
:104350000790FCF7FAFE0690FDF76CFA0020FCF7D8
:10436000EAFEFDF770FC00252E4604F0CEFB012886
:1043700053D06846FDF725FE00285BD0684605F05F
:10438000CBF914F0020F1CD08B48DFF828B2DDF80F
:10439000089090F800808948DA460778FEF7F9FB24
:1043A0000120FEF767FC39464046FEF755FC5246B1
:1043B00049465846FEF795FC0020FEF75BFCFEF7E9
:1043C000F5FB14F0010F20D08248DFF804B24FF063
:1043D000020801788048DA46DDF810900078084439
:1043E000401C4708FEF7D5FB0120FEF743FC414681
:1043F0003846FEF731FC524649465846FEF771FCF6
:104400000020FEF737FCFEF7D1FBFDF722FE6D1C06
:10441000102D03D2FDF717FCA7E70126FDF70AFAD6
:104420000698FCF788FE089848B1079828B1FDF770
:104430000AFC04E000F0D3FC97E7FDF7CBFBCEBB12
:10444000594F14F0020F19D05B48DFF868C10178AA
:104450005A486346007801FB00F210200021002A30
:104460000AD933F9118008EB5008B8FBF0F52CF8A5
:104470001150491C8A42F4D84E48B86014F0010F1C
:1044800018D05448524B017853489C4600780A187B
:104490004FF010014FF000000AD03CF9105005EB2E
:1044A0005105B5FBF1F423F81040401C8242F4D8CA
:1044B0004748F86009B03046BDE8F08F01207047EA
:1044C0004648704745480068704744490A68B2F159
:1044D000FF3F15D0052804BFC87A704728DC0128A3
:1044E00004BF08797047022804BF087A7047032880
:1044F00004BF487A7047042804BF887A704727E0D1
:10450000052813D007DC012822D002281CBF03286D
:1045100004280BD01CE0142812BF15282D2070474A
:10452000162804BF28207047172811D10020704793
:10453000142804BF087B7047152804BF487B7047C8
:10454000162804BF887B7047172804BFC87B7047B4
:10455000FF20704730B5C1B000244FF48071684629
:104560000CF012F9FF221D4D511C68460CF02AF97F
:10457000FF21224661F307022D23214663F3070141
:1045800063F30F21282363F3174164F31F61CDE91F
:1045900002414BF6BB30049422E00000F40C011001
:1045A000C6040110C704011094040110189F0110E3
:1045B00039050110F4110110C9040110CA040110D9
:1045C000F4130110F416011018A40110741701104F
:1045D000DC170110CB040110CC04011000AE020066
:1045E000CDE900022846FEF703F969462846FEF7A2
:1045F000A1F941B030BD2DE9FF4FDFF8E882C1B02D
:104600008346D8F800004E9F91468A464446B0F152
:10461000FF3F08BFFFF79EFFD4E901106BF30701CE
:104620008B466AF30700449969F30F2061F3174042
:104630002568D4E9036467F31F600746FF22511C15
:1046400068460CF0BFF80297CDE90364CDE9005B42
:104650004046FEF7CDF869464046FEF76BF9012863
:1046600018BF002045B0BDE8F08F2DE9F74FDFF807
:10467000749283460020D9F80060C0B08A464C4648
:10468000B6F1FF3F04BF43B0BDE8F08FD4E9028527
:104690006768FF22511C6846D9F810400CF092F868
:1046A0006BF3070542986AF30F2560F31745012065
:1046B00060F31F65CDF80880CDE903544846CDE985
:1046C0000067FEF795F869464846FEF733F943B0B0
:1046D000BDE8F08F2DE9F04F8248834E0025036836
:1046E000C1B074422F461720FFF7EFFE8446142016
:1046F000FFF7EBFE40B2B3F1FF3F04D0BCF1000F77
:1047000003D12D2801D0FFF725FF1420FFF7DDFE90
:1047100040B202901520FFF7D8FE4FFA80F916201C
:10472000FFF7D3FE40B201901620FFF7CEFE4042C5
:1047300040B20090FDF73AFADFF8B0A183460020BE
:104740008AF803008AF804008AF8050008F064FD7E
:1047500000208AF80000FFF720FA1BF0010F04D0B8
:104760000CF035F8012808BF01251BF0020F7DD0A1
:104770005F489AF80110604A90F800C05D4801EB6C
:10478000810102EB012200784FF000080028C8BF29
:10479000ACF1010A1EDD0021BAF1000F16DD01F1B6
:1047A000010B01FB00830BFB008B32F8133032F856
:1047B0001BB0A3EB0B031BB2002BB8BF5B421BB2B9
:1047C000BB42C8BF1F46491C5145E8DB08F1010840
:1047D0008045E0DBB945B8BF45F002054FF0000861
:1047E000C146BCF1000FC8BFA0F1010A1BDD0021CA
:1047F000BAF1000F13DD09FB001332F813B002EB1E
:1048000043035B88ABEB03031BB2002BB8BF5B42D7
:104810001BB24345C8BF9846491C5145EBDB09F123
:104820000109E145E3DB02994145B8BF45F00405C4
:104830004FF00009BCF1000F13DD002300280CDD50
:1048400009FB003132F91110B142C8BF0E46A14236
:10485000B8BF0C465B1C8342F2DB09F10109E1455C
:10486000EBDB0198B04204DB009800E003E0A042DB
:1048700001DD45F0080560421A4C08F0FF0B00F01E
:10488000FF08206807F0FF0A06F0FF09B0F1FF3FBC
:1048900008BFFFF75FFED4E901106BF307006AF36E
:1048A0000F20266869F31740D4E9037465F3070104
:1048B00068F31F600D468046FF22511C68460BF0CE
:1048C00081FFCDF80880CDE90374064CCDE9006581
:1048D0002046FDF78DFF69462046FEF72BF841B0D4
:1048E000BDE8F08F00AE0200F1D8FFFF9404011084
:1048F000C7040110C6040110189F0110F848C078C1
:104900007047F74840797047F54920F07E400861CC
:104910007047F34800697047F14880897047F04854
:10492000C08970477047084318BF7047EC4800695A
:1049300010F0807F1CBF0020107070472DE9FF5FD2
:104940008346E8480027DDF838A005780398109ED4
:10495000B9463C4650452CD006FB050E0F983BF956
:104960001EC006FB05093BF91900BCEB000348BF5C
:10497000A0EB0C0306FB05A83BF91840B4EB000CB8
:1049800048BFA0EB040C03EB0C0004B231F91EC0CD
:1049900031F91900BCEB000348BFA0EB0C0331F95F
:1049A00018C0BCEB000148BFA0EB0C0158180FFA6F
:1049B00080F9012A2DD04FF001080BF00DFFCA49F4
:1049C000002C0A782EDD0F9906FB05113BF911101A
:1049D0001431282926D9039902EB0A0C11448C457D
:1049E00020D9119B129D13442A448B421CBF8D1A5F
:1049F00015F1020F30F9115000EB4106B6F90260D3
:104A0000A5EB060508D01E353C2D08D94FF000084F
:104A100008E0A1450CDD0AE00A35142DF6D8491C42
:104A20008C45E2D8A14503DDB8F1000F00D0012785
:104A300004B03846BDE8F09FAC4A028042800021B5
:104A40008280C1800181534243818181C181018281
:104A500041828182C18202837047A1480078002888
:104A600018BF0120704710B54FF4A061A0480BF0AB
:104A70008BFE4FF4A0619F480BF086FE9849002002
:104A8000087010BD2DE9FF4F85B09846DDE913A6EB
:104A900091460446DDF848B008F0CFFB0025904F62
:104AA000002840F0CF8000F04DF9052800F0CA80C2
:104AB0000698CDE902060A2004908F481E26007849
:104AC0000090894800780190B88910B97878012859
:104AD0001FD108F0EDFBE0B9BAF1010F19D0BBF11D
:104AE000010F02D1F889C82813D8F889002804BF1B
:104AF000B88900280DD008F08CFB01280BD0DDE927
:104B000000210020521812D0029931F91010B14240
:104B100009DDFD711BE0052004900398012814BFF6
:104B20003C264626EBE7401C80B28242ECD838692E
:104B300010F4803F0BD0F879401CC0B2F871049992
:104B4000884204D9012078714FF0FF34FD7108F0DC
:104B500060FB012876D1BBF1000F2BDCBAF1010F0D
:104B600028D0386910F4003F0AD0B879401CC0B290
:104B7000B8710A2804D9012078714FF0FF34BD7153
:104B80000A2001905C48002690F800B0564890F842
:104B900000A01E2000900BF024FE01460020AAF188
:104BA000010CBCF1000F17DD31F91020C82A03DD1C
:104BB0003D7247E0BD71E3E701EB4003B3F902301A
:104BC000002BB8BF002A03DAD21AB242C8BF16B20D
:104BD000401C80B26045E7DB31F91000C828E7DCF3
:104BE0000AEB0B00431E534515DD31F91A00C828A6
:104BF000DEDC01EB4A02B2F90220002AB8BF00282D
:104C000003DA801AB042C8BF06B20AF101001FFAE7
:104C100080FA5345E9DC31F91A00C828C8DC386944
:104C200010F4002F0ED000988642C1DD387A401C67
:104C3000C0B238720199884204D9012078714FF0CE
:104C4000FF343D72B4F1FF3F28D0002C07BFF87845
:104C5000012809B0BDE8F08FFD704FF4A061244831
:104C60000BF092FD4FF4A06122480BF08DFD3D70DA
:104C700000F06EF8042841D0B9F1000F1CBF48467F
:104C8000FEF739FFB8F1000F04BF09B0BDE8F08F9F
:104C9000404609B0BDE8F04FFEF7C5BE787901285F
:104CA0001CBF09B0BDE8F08F4846FFF784FA7D715C
:104CB0004FF4A0610E480BF067FD4FF4A0610D4862
:104CC0000BF062FD3D70B9F1000F1CBF4846FEF7C6
:104CD00012FFB8F1000FDBD109B0BDE8F08F000082
:104CE000AC040110C6040110CC040110F1D8FFFF80
:104CF000441D011044180110CB040110B9F1000F3C
:104D00001CBF4846FEF7C4FEB8F1000FE4D009B05E
:104D10004046BDE8F04F0BF069BD10B505F0E2FE6E
:104D200005F08BFF002010BDFB4988707047FA48E2
:104D30008078704704283CBFF749C8707047F64830
:104D4000C0787047F44800787047F348407870475F
:104D5000F1480078022805D005281CBF00207047C4
:104D600004F0AFBF08F038BAEB490870704770B56F
:104D7000E94E04460D463078A04212D002281AD0DF
:104D8000052814BF002004F09CFF44EA0521327876
:104D9000002341EA024141EA00626121072007F055
:104DA0000BFE7570072C28BF70BDDFE804F01607F6
:104DB0000B13160F160008F00FFAE6E7284600F06E
:104DC0002BFA0AE0284608F0A8FA06E0284604F084
:104DD0006DFF02E0284607F0A7FE347070BDCF4992
:104DE00000200968B1F8641011F4807F08BF704793
:104DF000FDF720BCC94900200968B1F8641011F41E
:104E0000807F08BF7047FDF724BCC44900200968B3
:104E1000B1F8641011F4007F08BF70470BF0EBBCD1
:104E2000BE4900200968B1F8641011F4806F08BF12
:104E300070470BF0E5BCB849087900281CBF401E3C
:104E40000871704770B5B649D1F8CC00B24C10F07B
:104E5000030F0AD040F4BE0040F02040C1F8C80063
:104E60002079002804BF01202071AE488068AB4D36
:104E700010F0020F296807D14FF04020406910F070
:104E8000010F01D0207940B1B1F86410002011F475
:104E9000807F18BFFDF7DDFB07E0B1F8641000204C
:104EA00011F4806F18BF0BF0ABFC9F49084208BF9C
:104EB00070BD2968496E090C217170BD10B572B6BC
:104EC000FEF7F8FCBDE81040FEF757BA10B5012810
:104ED00002D0022805D008E04FF42F30FDF788FCFF
:104EE00003E04FF040219148086772B6FEF7E2FCFC
:104EF000BDE81040FEF741BA874900284A7918BF3B
:104F000001204871C0B2824208BF704700220028C9
:104F100018BF012200230121022007F04DBD7E4869
:104F20004079002818BF012070477B4840697047CE
:104F300079480069704778480069002818BFC07A2E
:104F40007047754988617047734880697047724936
:104F5000C86170477048C06970477048026802F5C0
:104F6000C073118A508A02F5A072FCF7ECBE2DE9DD
:104F7000F04FDFF8A49197B00E46C9F8140005F081
:104F8000D2FCC9F8100000287ED090F800C089F843
:104F900006C0417889F80710837804460CF10100B7
:104FA00089F8083000F0FE0089F80900E27889F8F5
:104FB0000A20207989F80B00607989F80C0009F142
:104FC0000E004FF0000B80F800B080F801B02078A0
:104FD00089F80D006046FCF7C0FF99F80C1099F8AD
:104FE0000B00FCF7DDFF6946204605F0C5FC608A32
:104FF000D9F8185000281CBF6843050B678BD9F8F7
:105000001C80002F08BF4FF480574FF4805A0020B7
:1050100016F0040F18BF4FF4857016F0080F18BF74
:1050200040F0040016F0020F1CBF40F201210843BB
:1050300016F0010F18BF40F48460616A6FF30F0629
:1050400008406FF30F01084306430098109004983E
:105050001190089812900198139007981590CDF828
:1050600050B010A93046FCF792FC16F0020F7ED02B
:1050700004F0DFFF5FEA000B34D004F0F1FF684377
:10508000050B5946002000E01FE0FCF772F8218A6A
:1050900000291CBF0020FCF7E3F805F001F808FB2D
:1050A00000F0000B8030010A0820012202FA00F310
:1050B0000B4201D1401EF9D5A0F10408A07B0028C5
:1050C00018BFA0F1010B17D112E014480068B0F826
:1050D000640010F4807F18BFFDF7BBFA002017B002
:1050E000BDE8F08FB4F80CB0BBF1000FC9D1CEE72A
:1050F0000020FCF729F98346E07B002814BF401EFE
:10510000FCF74EF90BEB0801042911DDA8EB0101B6
:1051100001F10408042110E0C0040110E8050110A9
:10512000006000400080004008000300AD2007B090
:105130000029BCBFA8EB010800218044B8F1040F8E
:1051400006DDA8F10400C5404FF0040808E00EE0B9
:10515000B8F1000F04DAC8F1000085404FF00008F4
:105160000020FCF707F941460020FCF72FF916F064
:10517000010F23D0A18A00291CBF0120FBF7F9FFF2
:10518000268B3EB131460120FCF76AF831461120EA
:10519000FCF766F8A67D3EB1711E0120FCF7EAF827
:1051A000711E1120FCF7E6F8E67D3EB1711E01206C
:1051B000FCF70CF9711E1120FCF708F9E07A0028C1
:1051C0001CBF0001FBF714FF029804F00EFF0398C8
:1051D00030B12B4699F8072099F806100BF015FB13
:1051E0005246394628460BF015FB0598FFF70CF898
:1051F0000998FFF77AF817B00120BDE8F08F10B5D5
:10520000FCF795FC04F0F9FE02490020086101203A
:1052100010BD0000C0040110FB4908707047FA4837
:1052200000787047F94810B4F94A0168914218D1E2
:105230004168B1F5907F14D80022D0F808C0034629
:105240001146B2EB9C0F24BF10BC704753F82140AD
:10525000491C2244B1EB9C0FF8D3002A04BF10BCB8
:105260007047002010BC7047E848FDF7C1BAE64916
:1052700001200870704770B50E4605461024FFF7F0
:1052800057FE15F0020F18BF052403D115F0010FCA
:1052900018BF09243246102C28BF70BD002A08BF51
:1052A00070BD204490F928102046BDE8704005F0FC
:1052B00096BBF0B5ADF6040D0446FFF739FE054682
:1052C00014F0020F0AD06F4604263846FCF7C5FEDC
:1052D00095F92C103A46304605F081FB14F0010F89
:1052E00004BF0DF6040DF0BD08246E4631460120C2
:1052F000FCF706FF95F930103246204605F06FFBAB
:105300000DF6040DF0BD2DE9F34F8BB00020079092
:105310000868089008790290487901908879B1F975
:105320000890B1F90AA08A6904928A89D1E90784B0
:10533000C0F5807602EA00070B98096910F0010FAA
:1053400009914FF0000016D000900198002840F21B
:10535000FF800098012101FA00F20998104018BF5F
:1053600001200390009A0499002001EB82118346EA
:10537000059100F0E3B8FCF7ECF88346DDE90101A4
:105380004843032101EB400020F003024146204640
:105390000BF004FA5846FCF7DCF801984FF0000BCC
:1053A000002840F2D5800122099802FA0BF108404A
:1053B00018BF01200021039004988C4600EB8B104D
:1053C00005904DE0012000FA01F20898024244D015
:1053D00038F9020B039AA0EB0A000CF1010C002A29
:1053E0000CBF09EB0004A9EB00044808059A0690DD
:1053F00052F82000CA07D50E0090E84082B2C2F3EE
:105400000420D3B212F4005F02D0002C02DB03E0D0
:10541000002C01DD9C1B00E09C19BC4205DD1F280F
:105420003ABF0024401C3C4606E0002C04DA002869
:10543000C6BF3C46401E002402F4005242EA00204F
:105440004FF6FF73009AAB4020439A43A84042EACC
:105450000003DDE9050240F82230491C202902D270
:1054600002988445AED301980BF1010B83459AD382
:105470006EE0012101FA00F208990A425BD034F98A
:10548000021B039AA1EB0A010BF1010B002A0CBFCE
:105490004944A9EB010138F9022BA2EB0A0214BF1F
:1054A000A9EB02024A440029B4BF4B420B46002A32
:1054B000B8BF52429A423ED9059B4208069253F821
:1054C0002220C3074FEAD36E0A9222FA0EF293B259
:1054D000C3F3042203F0FF0C13F4005F02D0002991
:1054E00002DB04E0002902DD0CEB060501E0ACEB79
:1054F0000605BD4205DD1F2A3ABF0025521C3D4668
:1055000006E0002D04DA002AC6BF3D46521E0025E3
:1055100003F4005141EA022129434FF6FF730A9A2E
:1055200003FA0EF39A4301FA0EF142EA0103DDE9B0
:10553000051241F82230401C202802D202998B45E6
:1055400097D300980199401C00908842FFF401AF66
:105550000B98032826BF0120079007980DB0BDE8DF
:10556000F08F2DE9F04F8BB0002205920D794E7926
:1055700091F806C00C68CDF808C0B1F90830B1F94F
:105580000A2006928A690392D1F810C0CA69CDF840
:105590001CC08989DDF808C001EA0C07C0F10801C8
:1055A0000091F0B1081EC0F2DF804FF0000A002E1B
:1055B0007DD9012101FA00F004900098401E01FA03
:1055C00000F00A904FF00108079808FA0AF1084025
:1055D00018BF01200021019003988C4600EB8A1B24
:1055E000B4E04FF0000A002E61D94FF0010807988F
:1055F00008FA0AF1084018BF012000210190039821
:105600008C4600EB8A1B4FE0E004011000AF020063
:105610005443524601208840204242D032F9028B46
:1056200006980CF1010CA8EB0000DDF80480B8F13D
:10563000000F0CBF03EB0008A3EB0008480808901C
:105640005BF820004FEAC1794FEAD969049020FA4B
:1056500009F080B210F4005F0AD0B8F1000F0FDA41
:1056600010F4F85018BFA0F5807040F4005007E027
:10567000B8F1000F04DD10F4F85018BFA0F58070E9
:1056800040F080004FF6FF7EDDF810800EFA09FE34
:1056900028EA0E0800FA09F048EA000808984BF8D2
:1056A0002080491C202901D2AC45B3D300E054E04E
:1056B0000AF1010AB24598D34FE001208840204208
:1056C00041D032F9028B06980CF1010CA8EB0000D6
:1056D000DDF80480B8F1000F0CBF03EB0008A3EB6A
:1056E0000008480809905BF820004FEAC1794FEAAA
:1056F000D969089020FA09F080B210F4005F03D055
:10570000B8F1000F07DA02E0B8F1000F03DDDDF8B1
:10571000108020EA0800DDF80080B8F1000FC4BF57
:10572000DDF8288048EA00004FF6FF7EDDF8208093
:105730000EFA09FE28EA0E0800FA09F048EA000805
:1057400009984BF82080491C202901D2AC45B4D3DC
:105750000AF1010AB245FFF435AF00980028C2BF34
:1057600005980BB0BDE8F08F4FF0000B002E45D927
:105770000298C0F580700090029840F4807001900B
:10578000039A0020014602EB8B1A31E001224FEA16
:10579000184C82404FEA0C4C224226D04FEA500966
:1057A000C2075AF82980D20E28FA02F39BB2DDF81C
:1057B00000E003F0FF0C0CEB5E0EDDF804C0491CAA
:1057C0000EEA0C0CBC4588BFBC4623F0FF0343EA3D
:1057D0000C034FF6FF7C0CFA02FC28EA0C0C03FACF
:1057E00002F24CEA02024AF82920401C202801D289
:1057F000A942CBD30BF1010BB345C1D301200590D6
:105800000BB0BDE8F08F2DE9F04F89B00022029275
:105810000A790F6804924A790092B1F90830B1F917
:105820000A608A690592CA6909690391FE49896813
:10583000A0EB010CCCF1050881424AD84AD100986E
:105840004FF0000A002844D90121039801FA0AFC0C
:105850001CEA000018BF0120019005990020844631
:1058600001EB8A1B2DE001218140394226D032F91B
:10587000021B019C891B4FEA19454FEA05450CF1B3
:10588000010C002C0CBF5D185D1A4FEA500EC107C9
:105890005BF82E90CC0E29FA04F189B2002DC8BF16
:1058A00041F4005141F480514FF6FF75A54029EABB
:1058B0000505A14045EA01044BF82E40401C202874
:1058C00002D204998C45CED300980AF1010A824590
:1058D000BAD35BE0B8F1000F5DDB00984FF0000930
:1058E000002853D908F10800012101FA00FB401EED
:1058F00001FA00F008900124039804FA09F1084025
:1059000018BF01200021019005988C4600EB891AF0
:1059100034E00120884038422DD032F9020B019C3E
:10592000801B0CF1010C002C0CBF1C181C1A480821
:1059300007905AF82000CD07ED0E0690E84080B29F
:1059400010F4005F02D0002C04DA01E0002C01DD2D
:1059500020EA0B00B8F1000FC4BF089C20434FF6AB
:10596000FF7E0EFA05FE069CA84024EA0E040443BE
:1059700007984AF82040491C202902D204988445FF
:10598000C7D3009809F101098145B4D3B8F1000FDC
:1059900004BF01200290029809B0BDE8F08F2DE904
:1059A000F04FD5B08346002088464990489072B6A3
:1059B000FCF7FCF80646FDF7ACFD48B1FDF74CFEE0
:1059C0004990FDF733FEFDF74CFE4890FDF739FE98
:1059D000FBF7D2FFFBF72CFF4D90FCF7F5F84C904E
:1059E000FBF728FF0120FBF770FD50901120FBF71B
:1059F0006CFD5190FDF7B0FB4B90FDF795FB4FF41C
:105A00009350FDF702FB62B6FBF749FD4A90012077
:105A1000FBF73BFD0120FBF79CFD52900020FBF7BC
:105A200050FF4F900020FBF741FF4E900020FBF706
:105A300082FB53900020044636AF47F82040401CBC
:105A40000628FAD3DFF8E49116F0020F4FF00105B3
:105A500005D04FF40461484636950AF095FE16F0DD
:105A6000010F10D04FF4807171480AF08DFE0120B3
:105A7000FAF7D8FE002818BF38951120FAF7D2FEA1
:105A8000002818BF3995DFF8ACA1674E369850B39F
:105A90000020FBF74CFC00909AF800008DF8040001
:105AA00065480078012894BF6448654800788DF8FF
:105AB00005000020FBF737FD002818BF4FF0FF302E
:105AC00004908DF806807088ADF80800ADF80A40A3
:105AD0000020FBF7E0FBADF80C004FF04050CDE9A3
:105AE00006905848089037984FF0FF0838B30020C8
:105AF000FBF71DFC09909AF800008DF828008DF83E
:105B000029500D948DF82A807088ADF82C00ADF8DE
:105B10002E400020FBF7BFFBADF830009DF80500DC
:105B200009EB80110F919DF8041048434FF040514C
:105B300001EB40011091434901EB40001190DFF867
:105B40000891DFF808A1389858B30120FBF7EFFB64
:105B50001290FBF79BF800280CBF9AF8000099F808
:105B600000008DF84C000120FBF7EEFB05FA00F079
:105B70008DF84D000120FBF7A8FCC04316908DF86E
:105B80004E80B088ADF85000ADF852400120FBF7D0
:105B900082FBADF85400264818902D4819902D48E6
:105BA0001A90399858B31120FBF7C1FB1B90FBF7F3
:105BB0006DF800280CBF99F800009AF800008DF8E5
:105BC00070001120FBF7C0FB05FA00F08DF87100A2
:105BD0001120FBF77AFCC0431F908DF87280B088CB
:105BE000ADF87400ADF876401120FBF754FBADF82A
:105BF00078001948219019482290194823909DF85F
:105C00004D000221022809D9042805D99DF84C200D
:105C1000199800EB820019908DF84D109DF87100D5
:105C2000022828D904281DE0E004011000400030BB
:105C300040480030C9040110C8040110C704011015
:105C4000CA04011000200030CB040110CC04011064
:105C50004008003040280030C0480030C00A003002
:105C6000C02A003005D99DF87020229800EB8200F0
:105C700022908DF871100120FBF727FC4FF055346E
:105C800020B161000120FBF70FFC16941120FBF7F7
:105C90001CFC28B14FF0AA311120FBF705FC1F9422
:105CA000BDF8520000F58060ADF85200BDF87600F6
:105CB00000F58060ADF87600FBF7C5FF0026B24620
:105CC000B1463446B04642AF02F01FFF01287BD0F8
:105CD000BAF1800F78D83CA8FCF773F900287BD084
:105CE0003CA803F019FD19F1010971D04FF000092A
:105CF00048460AF1010A012147F82010401C0628F5
:105D0000F9D3002C08BF00250CD0012C08BF0025BA
:105D10001AD0022C08BF002528D0032C08BF01266A
:105D200035D05EE036A850F8250048B105EBC50136
:105D3000684600EB81014046FFF765FD47F8250006
:105D40006D1C062DEED322E036A850F8250048B190
:105D500005EBC501684600EB81014046FFF701FCF9
:105D600047F825006D1C062DEED310E036A850F83C
:105D7000250048B105EBC501684600EB81014046AE
:105D8000FFF7C1FA47F825006D1C062DEED301215F
:105D9000002057F82020CAB1401C0628F9D3A9B129
:105DA0001F2C0ED20120641C00FA04F111EA0B0F23
:105DB00007D1641C032C9CBF00FA04F111EA0B0FFD
:105DC000F7D04FF0000803E00BE005E008F1010810
:105DD0003EB9FBF738FF77E7FFF70CF8002E3FF4EA
:105DE00073AFFBF727FD01205099FBF75DFB1120F6
:105DF0005199FBF759FB4A98FBF747FB5298FBF781
:105E0000A8FB4F98FBF75DFD4E98FBF74FFD5398AD
:105E1000FBF791F94D9830B14C9810B1FBF713FF97
:105E200001E0FBF7D7FEFDF774FB48B14998002865
:105E300018BFFDF773FB4898002818BFFDF7A6FBB5
:105E40004B98002818BFFDF718F9002E0CBF012051
:105E5000002055B0BDE8F08F2DE9F04FF048ADF6C9
:105E60003C0D01270678FEF76DFF012840F0718197
:105E7000EC480068B0F93610B0F934000AF0CFFCF5
:105E800016F0020F00F05C810DF50065FFF7CAF90E
:105E90000024A0B1B0E80E1085E80E10B0E80E1096
:105EA000103585E80E10B0E80E10103585E80E109C
:105EB000D0E90010CDF83018CDF8340827E0FF22E3
:105EC000382128460AF07EFCD748CDF800084FF468
:105ED0009070CDF804083820CDF808085020CDF88F
:105EE00010084FF0FF30CDF80C48CDF81448CDF82D
:105EF0001848CDF81C48CDF83448CDF82C08CDF81A
:105F00002808CDF82408CDF83048CDF82008C74837
:105F1000FCF76EFCDDF8140840F27778401C002591
:105F2000CDF83848CDF8140880E0284604F0FBFC92
:105F300000287AD0008900EA080424F0CC0030F46C
:105F40007C4072D00F212846FFF711F800286CD052
:105F5000FBF72CFEDDF83818002964D1FBF7F4FCC0
:105F6000FF210F20FFF71BFDCDF83808FBF762FC7F
:105F7000DDF83808002856D13FB314F0010F0ED0D9
:105F8000FEF7D6FF8146EA464FF0040B5046FCF779
:105F900064F899F92C105246584604F020FD14F08C
:105FA000100F0FD0FEF7C4FF8346E9464FF0080AF2
:105FB00049460120FCF7A4F89BF930104A465046A8
:105FC00004F00DFDDDF8380868BB14F0660F08D04A
:105FD000FEF7AAF9CDF83808FBF72CFCDDF83808F5
:105FE00008BB07B314F0020F0DD0FDF7C0FD8146CA
:105FF000FEF79EFF05235FEA090204D090F92D10F9
:10600000184604F0ECFC14F0200F0CD0FDF735FD21
:106010000446FEF78DFF0923220004D090F93110C9
:10602000184604F0DCFCFFF7EAF86D1C04F077FC7E
:10603000A842DDF8380803D900283FF476AF03E022
:10604000002808BF012000D0002018B1FEF736FA62
:10605000012827D0DDF81C080023401CCDF81C08BF
:106060005020CDF810081A462121072006F0A4FC84
:1060700000200346024601460090FE20FEF7BBFAD0
:106080000DF5006404F02FFCC8B18169CDF820182B
:10609000C169CDF824184169CDF82818C068CDF839
:1060A0002C0816E016F0080F14BFA220A120CDF88E
:1060B0001008DDF81808401CCDF81808E0E74FF08C
:1060C000FF30CDF82C08CDF82808CDF82408CDF8FD
:1060D00020085548CDF800084FF49070CDF804081A
:1060E0003820CDF808080020CDF80C08A368224617
:1060F000014652F820C0401C6144B0EB930FF8D326
:106100004D42FF22511C6846E5600AF05BFBA26825
:10611000F4E804018DE827000FCC04AD85E80F00FA
:106120000FCC08AD85E80F00D4E900013F4CCDE964
:106130000C012046FCF75CFB69462046FCF7FAFBA5
:106140000020FDF7FCFF002332464021072006F027
:1061500033FC0DF63C0DBDE8F04F02F093BC304A25
:10616000002804BF51807047012808BF9180704704
:1061700001004FF000002A4A04BFB2F90200704744
:10618000012908BFB2F90400704770B50126FFF776
:1061900049F820B10069A12818BFA22801D0002029
:1061A00070BD002404F0BBFB002833D9204604F066
:1061B000BAFB00281EBF058925F0CC0030F47C40D6
:1061C00023D00F212046FEF7D2FEF0B115F0010FCB
:1061D0000AD0FBF74DFF38B944F480720023202128
:1061E000072006F0E9FB002615F0100F0BD0012068
:1061F000FBF792FF38B944F4805200232021072096
:1062000006F0DAFB0026FEF7FAFF641C04F087FBB9
:10621000A042CBD8304670BD0020704700207047A8
:10622000E0040110E80501105443524600AF02009B
:1062300070470020704710B503F00700042808BF1E
:10624000FEF73CFE002010BD70B503F007020025EC
:10625000F84CF94B012A02D0022A14D011E0052093
:1062600018709D60FDF7C6F82268532111702268EE
:10627000452151702268010A91702168C870206818
:106280000571002070BD1A78052A13D19A68052A75
:1062900028BF104607D2D4F800C01CF802C080F80E
:1062A00000C0501C9860052804D101209D60087032
:1062B00003201870012070BD2DE9F04103F00702A2
:1062C00001260025DB4CDC4B012A02D0022A3BD000
:1062D00037E0052018709D60FDF78CF82168AC2729
:1062E0000F702268010A51702168887004F0CEFA9C
:1062F000DFF8488380B1D8F8000004F0B5FB58B14E
:10630000D8F8000090F8200010F0020F04D02068A8
:1063100047702168432088702068C6702068057126
:1063200004F0B4FA50B1D8F8000004F09DFB28B195
:10633000D8F800002168007E487102E02168FF2043
:1063400048710020BDE8F0811A78052A12D19A68B8
:10635000062A28BF104607D2D4F800C01CF802C095
:1063600080F800C0501C9860062803D19D600E7014
:10637000032018700120BDE8F08103F00702022A13
:106380001CBF002070472022027001200870704757
:106390002DE9F041A84F0D46064613F0070F04D033
:1063A00003F00700022808D004E012F0040F1CBF1D
:1063B0000020B8700020BDE8F08102F05DFB0028ED
:1063C00014BF0124002402F05AFB002814BF02224B
:1063D000002242EA0403B878002814BF04220022F5
:1063E00042EA0300307001202870BDE8F08170B5EA
:1063F00003F0070C0026904C8E4DBCF1010F0AD023
:10640000204613F0070F00780DD0BCF1040F08BF31
:10641000062818D029E0A66028680670286846700B
:106420000520207021E005281FD1A068022803D292
:106430002B681A54401CA060022816D10120A660C7
:106440000870062010E02868007855280BD12868CD
:106450004078AC2818BFBC2805D128680122411C0F
:10646000062002F0EFFA03202070002070BD70B506
:1064700003F0070200256F4C6F4B012A02D0022A5D
:1064800024D021E0052018709D6002F0AAFA41F6A0
:10649000E8710144B0F5283F10D8CA78086862F363
:1064A0001F60674A904208BF002007D10A1823687E
:1064B00012791A54401C1428F8D305E000202168F2
:1064C0000D54401C1428FAD3002070BD1A78052AF8
:1064D00013D19A68142A28BF104607D2D4F800C0F6
:1064E0001CF802C080F800C0501C9860142804D129
:1064F00001209D60087003201870012070BD70B5E8
:1065000003F0070200254B4C4B4B012A02D0022A14
:106510003FD03CE0052018709D6002F062FA41F621
:10652000E8710144B0F5283F2BD8CA78086862F3B7
:106530001F60434A904224D12268087C1070226870
:10654000487C50702268887C90702068CA7CC27039
:1065500020680A7A02712268487A50712268887A23
:1065600090712268C87AD0712268087D1072226802
:10657000487D50722268887D9072C87D2168C872FB
:1065800005E0002021680D54401C0C28FAD300209F
:1065900070BD1A78052A13D19A680C2A28BF1046B4
:1065A00007D2D4F800C01CF802C080F800C0501C0C
:1065B00098600C2804D101209D6008700320187099
:1065C000012070BD70B503F007020025194C1A4E6A
:1065D000012A02D0022A3FD03CE004F084F940B303
:1065E000D0E906212368C0681A70D4F800C0130AE5
:1065F0008CF80130D4F800C0130C120E8CF8023065
:106600002368DA702268117123680A0A5A712368B4
:106610000A0C090E9A712268D171216808722268E9
:10662000010A51722268010C9172010E2068C17238
:106630000DE007E02C420100F4040110E805011010
:1066400034CD12AB21680D54401C0C28FAD3052020
:106650003070B560002070BD3278052A10D1B26864
:106660000C2A28BF104604D223689B5C0370501C80
:10667000B0600C2804D10120B56008700320307090
:10668000012070BD70B503F007020024FA4DFB4BEA
:10669000012A02D0022A3ED03BE0052018700026D5
:1066A0009C6002F09EF900F50051B0F5283F98BFBC
:1066B00011F0030F27D1F24A0868904204BF00226C
:1066C000104620D151F82030401C1A440728F9D335
:1066D00002B1C6B128680A7C02702A68487C5070F2
:1066E0002A68887C90702A68C87CD0702A68087DE7
:1066F00010712A68487D50712A68887D9071C87D24
:106700002968C87105E0002029680C54401C08283D
:10671000FAD3002070BD1A78052A13D19A68082A86
:1067200028BF104607D2D5F800C01CF802C080F878
:1067300000C0501C9860082804D101209C6008709B
:1067400003201870012070BD2DE9F04103F0070C03
:106750000027CA4E4FF00508BCF1010F0DD013F011
:10676000070F0FD03246BCF1020F127810D0BCF1E7
:10677000040F08BF062A26D058E086F800807770FC
:10678000B76053E07270BF48B062062030704DE0D1
:10679000052A15D1B268042A28BF104609D2C2F1D1
:1067A0000303D6F828C0DB002CFA03F30370501C57
:1067B000B060042804D10120B76008700320307055
:1067C0000120BDE8F08170780125002410F0010F50
:1067D00011D002F006F9B0F5283F23D86A03002152
:1067E000B1EB900F07D252F8043B491C1C44B1EBAB
:1067F000900FF8D3B5B1707810F0020F0ED004F0FE
:1068000072F878B182680021B1EB920F06D250F88D
:10681000043B491C1C44B1EB920FF8D3002D18BF68
:10682000B46200D1B762777086F800800020BDE8BE
:10683000F081F0B503F0070C00268F4D8F4C83B02C
:10684000BCF1010F0ED013F0070F1DD02246032715
:106850001278BCF1020F26D0BCF1040F08BF062A43
:1068600036D03CE002AA01A9684602F0EFFB052001
:106870002070296801980870296800984870296874
:1068800002988870A6602AE0A068032803D22968CD
:106890000A54401CA060022821D30621217003283D
:1068A00008BFA6601BE0052A0FD1A268032A28BFF3
:1068B000104604D22B689B5C0370501CA060032818
:1068C00003D10120A6600870277003B00120F0BD3D
:1068D000286882780178407802F0ADFB277003B019
:1068E0000020F0BD08B503F0070001280AD103F02D
:1068F000CDFF38B101208DF80000024669460D2019
:1069000002F0A0F8002008BD08B503F00700012838
:106910000AD103F0BBFF38B100208DF8000001223E
:1069200069460D2002F08EF8002008BD08B503F07E
:106930000700012809D103F0A9FF30B103208DF829
:1069400000000122694602F07DF8002008BD002009
:10695000704708B503F0070001280AD103F096FF3D
:1069600038B10B208DF8000001226946032002F0A7
:1069700069F8002008BD1FB513F0070F0ED103F012
:1069800085FF58B19DF80800F0280AD003F07EFF7B
:1069900020B1012202A9092002F054F804B000201D
:1069A00010BDFEF761FCF9E70020704770B503F0F9
:1069B0000700314C314D012808D013F0070F12D0D9
:1069C000042804BF2878062816D01FE00020A860FD
:1069D0002168087021684870216888702168C87033
:1069E0000520287012E0A86804280FD221680A54F4
:1069F000401CA860062008E003F048FF30B10422E4
:106A00001046216802F01EF803202870002070BD97
:106A100010B503F00700012804D102F0BFFF1749A9
:106A200000200871002010BD70B5054603F0070076
:106A30000C4601280AD013F0070F02D0022807D015
:106A400004E0012200211B2001F0FCFF002070BDAA
:106A500003F08EF928700120207070BD10B503F08E
:106A6000070C064CBCF1010F0ED013F0070F11D02C
:106A7000BCF1020F20D01DE02C420100F4040110F3
:106A800054464953EFBEADDE0020A06005F08BFFF9
:106A9000A0610FE0A068002804BF1002A06106D02A
:106AA000012804D1A0691043A06105F07BFFA06814
:106AB000401CA060002010BDA26812B1012A04D0C1
:106AC00007E0218B090A017003E0237E0370012097
:106AD0000870501CA060012010BD10B503F0070C19
:106AE000FE4CBCF1010F06D013F0070F09D0BCF12A
:106AF000020F18D015E00020A06005F057FFA0613C
:106B00000FE0A068002804BF1002A06106D0012891
:106B100004D1A0691043A06105F04BFFA068401CA0
:106B2000A060002010BDA26812B1012A04D007E0C5
:106B3000218B090A017003E0237E03700120087095
:106B4000501CA060012010BD70B503F0070CE34D90
:106B50000E460446BCF1010F06D013F0070F07D014
:106B6000BCF1020F18D015E00020A860E86011E029
:106B7000A868002804BF1002A86108D0012806D127
:106B8000A869104381B2A861E88809F04DFEA868A1
:106B9000401CA860002070BDE86802280ED2E8887A
:106BA00009F047FEEB6882B2002B04BF100A207088
:106BB00004D0012B02D1227001203070E868401C03
:106BC000E860012070BD10B403F0070CC34CBCF1A9
:106BD000010F08BF00200BD013F0070F03D0BCF14A
:106BE000020F09D005E0A068002808BFE280401C21
:106BF000A06010BC00207047A2681AB9A379037086
:106C000001200870501CA06010BC012070472DE9C5
:106C1000F047064603F00700B04F8946012808BF39
:106C2000002039D0DFF8B882AE4D13F0070F02D044
:106C3000022835D031E0B868002808BF7A7029D022
:106C4000012804BF1002B86124D0022822D1B869FB
:106C50001043B8617E7884B203F018FED0B1062EDE
:106C600018D2DFE806F00306090C1014A8F80E404D
:106C700010E0A8F80C400DE0286884860AE0286837
:106C8000A0F80C4106E02868A0F8504002E028680F
:106C9000A0F85240B868401CB8600020BDE8F087FA
:106CA000F86802282CD297F801A0002403F0EEFD2A
:106CB000D8B1BAF1060F18D2DFE80AF00306090CC2
:106CC0001014B8F80E4010E0B8F80C400DE0286839
:106CD000848E0AE02868B0F80C4106E02868B0F815
:106CE000504002E02868B0F85240F868002804BF1D
:106CF000200A307004D0012802D1347089F80000D5
:106D0000F868401CF8600120BDE8F0872DE9F041EB
:106D10001C4617460E46054603F0B8FD68B114F050
:106D2000070F04D004F00700022809D005E0002F67
:106D300014BF0120002009F081FD0020BDE8F08192
:106D4000674890F86C00C008287001203070BDE8DA
:106D5000F0812DE9F0411C4615460F46064613F01A
:106D6000070F08D103F092FD28B1022D3CBF284641
:106D700009F069FD03E004F00700022802D00020BA
:106D8000BDE8F08109F064FD307001203870BDE885
:106D9000F08170B503F007020026534C4F4D012AD5
:106DA00002D0022A15D012E006F0D7FA2168087046
:106DB000FDF7C8FF2168487003F038F92168887032
:106DC000FDF7C6FF2168C87005202870AE6000205E
:106DD00070BD2A78052A10D1AA68042A28BF104657
:106DE00004D223689B5C0370501CA860042804D163
:106DF0000120AE60087003202870012070BD70B5BE
:106E000003F00702384C0025344E012A02D0022A32
:106E100054D051E0FEF706FA002836D04169FF2928
:106E20002CBFFF21C9B2226811708169FF2934BFCC
:106E3000C9B2FF2122685170C169FF2934BFC9B2AC
:106E4000FF21226891702268017CD170226890F83D
:106E500020101171018C2268090A5171016A22689F
:106E6000090C9171016A2268090ED171016BFF2929
:106E700034BFC9B2FF2122681172406BFF2834BFB2
:106E8000C0B2FF202168487215E0206805702068B4
:106E900045702068857021685020C8702168FF20E7
:106EA000087121684871216888712168C87120685B
:106EB000057220684572B560002070BDB2680A2A6C
:106EC00028BF104604D223689B5C0370501CB0603E
:106ED0000A2802D10120B560087007E0F40401100F
:106EE00028AA0110E80501102C420100012070BD04
:106EF00003F00702FE4B4FF0000C012A08BFC3F855
:106F000008C001D0022A01D0002070479A68022AE6
:106F10003DBF80F800C0501C98601046022803D185
:106F20000120C3F808C00870012070472DE9F04720
:106F3000064603F00700EE4F8A464FF0000801288E
:106F400008BFC7F8088001D0022802D00020BDE8A1
:106F5000F087B868A0BB0024254601F042FD014639
:106F600000F5005018384FF400524FF04009B1F5C9
:106F7000283F20D890F803C003686CF31F63DFF844
:106F800074C3634517D1091FB4EB910F06D252F8B1
:106F9000043B641C5D40B4EB910FF8D3C17D4069A4
:106FA00061F31F60A84206D103F036FC012804BF3C
:106FB0008020307001D086F80090B868401CB8601E
:106FC000012803D1C7F808808AF800000120BDE835
:106FD000F0872DE9F04103F007020026C64CC44DAE
:106FE000012A02D0022A56D052E0FCF703FA05200B
:106FF000287003F04BFC002849D0C04F386803F0DC
:1070000033FD002843D009F028FC804609F02AFC13
:1070100039680A7E12F0040F11D0C98A2268090A61
:10702000117039682268897D517039682268898AAF
:10703000090A917039682268097DD17010E0898A47
:107040002268090A117039682268097D517039680F
:107050002268C98A090A917039682268897DD170CD
:1070600022684FEA18211171216881F80580226891
:10707000010A91712168C87138682268817C117297
:107080002268017C5172008B2168000A8872AE6010
:107090000020BDE8F0812A78052A10D1AA680B2AC1
:1070A00028BF104604D223689B5C0370501CA86064
:1070B0000B2804D10120AE60087003202870012045
:1070C000BDE8F0812DE9F04703F0070200268A4D64
:1070D000874B012A02D0022A5DD059E005201870A2
:1070E00000249E6001F07DFC00F50053B0F5283FC0
:1070F00098BF13F0030F45D1814A1968914204BF2C
:107100000022114608D153F821C0491C62440729C6
:10711000F9D3002A08BF01249F7C93F8138084B31D
:1071200041F6E8710144B0F5283F07D8CA780868ED
:1071300062F31F606F4A904208BF012491F81290D9
:1071400091F813A0002C08BF002014D003F0CBFB53
:107150002968806981F80090296881F801A02A686F
:10716000010C000E91702968C870286807712868A2
:1071700080F805800CE029680E54401C0628FAD3DC
:1071800006E0FFE7002029680E54401C0628FAD3C9
:107190000020BDE8F0871A78052A13D19A68072ADB
:1071A00028BF104607D2D5F800C01CF802C080F8EE
:1071B00000C0501C9860072804D101209E60087010
:1071C000032018700120BDE8F08710B503F0070C0C
:1071D000474CBCF1010F06D013F0070F0AD0BCF1E9
:1071E000020F1AD017E00020A060E06009F03FFB1A
:1071F000A06110E0A068002804BF1002A06107D0C1
:10720000012805D1A0691043A06180B209F034FBC8
:10721000A068401CA060002010BDE268022A0BD2CA
:1072200012B1012A04D007E0218B090A017003E0A2
:10723000237E037001200870501CE060012010BD07
:1072400070B503F007010026294D0446012908BF47
:10725000EE6201D0022901D0002070BDE86A00284A
:1072600004BF284809F00DFBE96A082928BF2670E9
:1072700002D22448405C2070481CE862012070BDA6
:107280002DE9F04103F007010026194D07460129B9
:1072900008BFEE6201D0022902D00020BDE8F081D3
:1072A00095F82C0000F007042879204304D11548F4
:1072B00009F0E7FA01202871052C28BF2E7111482A
:1072C000005D3870E86A401CE8620120BDE8F0818A
:1072D00070B5044603F007000D4602281CBF0020CD
:1072E00070BD09F0D3FA20700120287070BD000035
:1072F000F404011034CD12AB2C420100E80501105A
:10730000544649532405011070B503F007020025C7
:10731000F94C012A02D0022A12D00FE00520207079
:10732000002211461046A56001F090FE4FF6FF7155
:1073300001EA4000206101F09CFE6062002070BD07
:107340002278052A17D1D4F810C0A268624528BF58
:10735000104607D212F0010F1CBF637803700CD0E7
:10736000501CA060604506D10120A5600870032074
:10737000207001F08CFE012070BD666A22F00103CE
:10738000F35A1E0A06706370EAE770B503F007024D
:107390000025D94C012A02D0022A11D00EE0D7488C
:1073A00005220068B0F91210B0F9100022700844EC
:1073B0004000A560206102F05FF86062002070BDAF
:1073C0002278052A17D1D4F810C0A268624528BFD8
:1073D000104607D212F0010F1CBF637803700CD067
:1073E000501CA060604506D10120A56008700320F4
:1073F000207002F04FF8012070BD666A22F0010390
:10740000F35A1E0A06706370EAE70020704770B5F1
:107410000D46044613F0070F04D003F007000228BE
:1074200005D002E01046FDF785FC002070BDFDF799
:1074300086FC20700120287070BD70B503F0070233
:107440000325AD4C012A02D0022A11D00EE0FDF72F
:1074500076FC03F0A2FCE06100281ABF0520207032
:10746000257003F092FC20620020A060002070BD17
:107470002278052A0BD1E369A2689B5C0370501C3B
:10748000A060226A904202D301200870257001207A
:1074900070BD7FB51C460E46054613F0070F08D198
:1074A00003F0F4F928B1012202A92A2001F0CAFA56
:1074B00003E004F00700022802D004B0002070BDF1
:1074C00001F08FFE28700120307004B070BD2DE9EE
:1074D000F04103F007020027874E88460546012A3F
:1074E00002D0022A0BD007E0052030700A20B760D6
:1074F000306101F0BEFD70620020BDE8F08130789F
:10750000052819D1B2683069824228BF104608D2D6
:1075100012F0010F1CBF7078287010D0B068401CAA
:10752000B0603169884207D10120B76088F8000057
:107530000320307001F0ABFD0120BDE8F081002494
:1075400001F04FFE012804D1B068716A20F00100FB
:107550000C5A200A28707470E0E77FB51C460E466E
:10756000054613F0070F08D103F090F928B1012266
:1075700002A9242001F066FA03E004F007000228C3
:1075800002D004B0002070BD05F0CEFF28700120AD
:10759000307004B070BD7FB51C460E46054613F032
:1075A000070F08D103F072F928B1012202A90C20BB
:1075B00001F048FA03E004F00700022802D004B00A
:1075C000002070BD05F0C9FE28700120307004B0A5
:1075D00070BD7FB51C460E46054613F0070F08D157
:1075E00003F054F928B1012202A90F2001F02AFA70
:1075F00003E004F00700022802D004B0002070BDB0
:1076000002F0BFFF00F00F0040F0100028700120D2
:10761000307004B070BD2DE9F04103F0070C364D19
:107620000E460746BCF1010F07D0354C13F0070F8B
:1076300007D0BCF1020F1BD017E00020A860E86063
:1076400013E0A86804283CBF21680A54032809D124
:10765000206821680068C97800BA20F0FF0008435C
:10766000FDF752F9A868401CA8600020BDE8F08131
:10767000E86870B9FDF74DF9216820F07E42100EE0
:1076800008702168100C48702168100A8870206802
:10769000C270EA68042A06D22068032A805C387027
:1076A00004BF01203070501CE8600120BDE8F0816B
:1076B0007FB51C460D46064613F0070F08D103F0B0
:1076C000E5F828B1012202A9102001F0BBF903E07E
:1076D00004F00700022802D004B0002070BD02F0C0
:1076E00092FF00F00F0402F04CFF64F31F103070A3
:1076F0000120287004B070BDF4040110E8050110E9
:107700002C42010010B503F00702FE4C012A02D002
:10771000022A0DD00AE003F0D9FB0021E061002825
:107720001ABF4FF4056020622162A160002010BDE5
:10773000236AA2689A4228BF104607D2D4F81CC018
:107740001CF802C080F800C0501CA060984204BF22
:1077500001200870012010BD10B413F0070F4FF086
:10776000402C04D003F00702022A13D00FE0012AB4
:1077700004BFDCF8140040F0010006D0002A04BF6A
:10778000DCF8140020F0010001D1CCF8140010BC8A
:1077900000207047DCF81430002213F0010F18BFEE
:1077A0000122D94BD3F83CC0D84B1B68B3F8A430A6
:1077B000C3F30334012303FA04F41CEA040F18BFD3
:1077C00042F0020202700B7010BC0120704770B5CD
:1077D00014460E46054613F0070F04D003F00700C9
:1077E000022813D010E0002C14BF0120002002F06A
:1077F000C7F84CB14FF04020016B21F4405141F4E7
:10780000BE0141F020410163002070BD02F0BFF8CD
:10781000002814BF012200222A700120307070BDA0
:107820002DE9F04103F0070CB64C0F468046BCF141
:10783000010F12D0B44E13F0070F4FF0030510D014
:107840002046BCF1020F027822D0BCF1040F02BF27
:10785000A0680128062A2FD032E0052020700020E1
:1078600014E0A06810B1012804D00DE06270062079
:10787000207009E0607800EA0201316320EA020129
:107880007163FBF725F92570A068401CA06017E024
:10789000A068012808BF062A03D16078FBF71DF90C
:1078A0002570F06B88F8000001203870A068401C3B
:1078B000A0600120BDE8F0816078FBF70EF925702B
:1078C0000020BDE8F08170B5044603F007000D46C6
:1078D00002281CBF002070BDFDF721FB002814BF4B
:1078E0000122002222700120287070BD70B50D4663
:1078F000044613F0070F04D003F00700022805D058
:1079000002E0104605F05AFC002070BD05F059FC5D
:1079100020700120287070BD70B50D46044613F02C
:10792000070F04D003F00700022805D002E010463C
:10793000F9F78AF9002070BDF9F789F92070012064
:10794000287070BD70B503F007026E4D0E460446F8
:10795000012A04BF0020A86001D0022A01D0002023
:1079600070BD08F098FFAA68002A04BF000A2070C2
:1079700004D0012A02D1207001203070501CA86070
:10798000012070BD70B5044603F007000D460228C3
:1079900007D013F0070F04BF1046FDF7C5F900200C
:1079A00070BDFDF7C4F920700120287070BD002063
:1079B000704700207047002070470020704710B5C6
:1079C00003F007024F4C012A02D0022A27D024E0FC
:1079D00003F07CFA0023002804BFE36123621BD07C
:1079E00000F15001E1614168B1F5887F90F8201005
:1079F0000CD390F8212001EB020C01FB02C190F89E
:107A0000222090F823001044084404E090F822005B
:107A10000A1801FB00202062A360002010BD236A29
:107A2000A2689A4228BF104607D2D4F81CC01CF89E
:107A300002C080F800C0501CA060984204BF012022
:107A40000870012010BD03F00702012A02D0022AAB
:107A500005D002E02B4900208860002070470122F9
:107A600002700A701046704710B513F0070F04D06B
:107A700003F00702022A05D002E0104601F014FBD1
:107A8000002010BD224A127802700120087010BD3B
:107A900010B513F0070F04D003F00702022A05D037
:107AA00002E0104601F003FD002010BD194A1278D3
:107AB00002700120087010BD002070471FB513F040
:107AC000070F07D102F0E2FE20B1012202A90B202C
:107AD00000F0B8FF04B0002010BD70B503F007003F
:107AE000084C1546012804BF0020A06032D013F0D6
:107AF000070F2FD102F0CAFE60B3A068064E03281C
:107B00000CE00000F404011000100040E805011032
:107B1000390501103E0501102C4201003CBF3168BF
:107B20000D54401CA060032814D1F9F725FF3068DC
:107B3000B0F8010045BAF9F77BFE040018BFFAF768
:107B4000B5F8306829460078F9F713FB002C18BF08
:107B5000FAF7AFF8002070BD70B503F00700F94CDC
:107B60001646012804BF0020A06029D013F0070F9B
:107B700026D102F08BFE18B3A068F34D02283CBF5B
:107B800029680E54401CA060022819D1F9F7F4FEB0
:107B9000F9F74EFE040018BFFAF788F82868007855
:107BA00080B129684978F9F75BFB2868417800784B
:107BB00040F01000F9F754FB002C18BFFAF779F8E1
:107BC000002070BD286841780020F3E77FB51C468F
:107BD0000E46054613F0070F08D102F057FE28B1F4
:107BE000012202A91A2000F02DFF03E004F0070093
:107BF000022802D004B0002070BD05F089FB0028E7
:107C000014BF012200222A700120307004B070BD20
:107C10007FB51C460E46054613F0070F08D102F04B
:107C200035FE28B1012202A91C2000F00BFF03E061
:107C300004F00700022802D004B0002070BD05F057
:107C400054FB28700120307004B070BD2DE9F04164
:107C500003F0070CBB4C0E460746BCF1010F07D0E2
:107C6000B94D13F0070F07D0BCF1020F19D015E082
:107C70000020A060E06011E0A06803283CBF2968F4
:107C80000A54401CA060032808D12868B0F80100FD
:107C900040BA01B228680078FEF761FA0020BDE81A
:107CA000F081E268022A12D242B928680078FEF711
:107CB0005FFA2A68010A5170296888702868E268AA
:107CC0001044012A4078387004BF01203070E06809
:107CD000401CE0600120BDE8F08170B503F00700B2
:107CE000984C1546012804BF0020A06017D013F05F
:107CF000070F14D102F0CAFD88B1A068924B032887
:107D00003CBF19680D54401CA060032807D11868B7
:107D1000B0F8010041BA18680078FAF74BFA002071
:107D200070BD10B503F00702864C012A02D0022A6A
:107D300007D004E00020A060FBF74DFAA06100200E
:107D400010BDA268042A07D2C2F10303D4F818C0F8
:107D5000DB002CFA03F30370501CA060042804BF5E
:107D600001200870012010BD10B503F007000128A4
:107D700007D102F08BFD20B100221146202000F037
:107D800061FE002010BD2DE9F04103F007056D4EA6
:107D9000174688460446012D04BF0020B0601BD062
:107DA00013F0070F16D102F071FD98B1B068664B61
:107DB00003283CBF19680F54401CB06003280BD146
:107DC000186890F9022090F9011090F90000FCF772
:107DD0004CFC01E0022D02D00020BDE8F081B0682B
:107DE00030B1012809D002280CD003280FD015E0AB
:107DF0001420FCF76AFB207010E01520FCF765FBEF
:107E000020700BE01620FCF760FB207006E01720C6
:107E1000FCF75BFB2070012088F80000B068401C74
:107E2000B0600120BDE8F08170B50D46044613F046
:107E3000070F04D003F00700022805D002E04149F3
:107E400000208860002070BD0120FCF73EFB207000
:107E50000120287070BD70B503F0070C00263A4C65
:107E6000384DBCF1010F06D013F0070F0CD0BCF158
:107E7000020F1FD01CE005F02EFBAE6021680870D9
:107E80002168000A487013E0A868022803D221681C
:107E90000A54401CA86002280AD1AE60206800780D
:107EA00010F0010F04D002221D20216800F0CAFD4D
:107EB000002070BDAA68022A28BF104604D2236899
:107EC0009B5C0370501CA860022804D10120AE60A6
:107ED000087003202870012070BD7FB51C460E4637
:107EE000054613F0070F08D102F0D0FC28B101229B
:107EF00002A9272000F0A6FD03E004F007000228F5
:107F000002D004B0002070BD08F0CAFC2870012027
:107F1000307004B070BD7FB51C460E46054613F0A8
:107F2000070F08D102F0B2FC28B1012202A92220D9
:107F300000F088FD03E004F00700022806D00020CE
:107F400004B070BDF40401102C42010008F0ADFC37
:107F5000287001203070F3E77FB51C460E460546B9
:107F600013F0070F08D102F091FC28B1012202A9F9
:107F7000262000F067FD03E004F00700022802D08D
:107F800004B0002070BD08F095FC2870012030700E
:107F900004B070BD7FB51C460E46054613F0070FB2
:107FA0000ED102F073FC58B19DF80800002818BFEC
:107FB00008F085FC012202A9212000F043FD03E026
:107FC00004F00700022802D004B0002070BD08F0C1
:107FD0007BFC28700120307004B070BD2DE9FF419A
:107FE000FF4E1C460F46054613F0070F1CD102F04A
:107FF0004DFCC8B19DF80800002818BF012802D028
:10800000022807D014E0F070012202A9082000F035
:1080100019FD0DE0F07004208DF80800012202A97E
:10802000082000F00FFD03E004F00700022803D051
:1080300004B00020BDE8F081F0782870012038708D
:1080400004B0BDE8F0817FB51C460D46064613F02E
:10805000070F08D102F01AFC28B1012202A908205A
:1080600000F0F0FC03E004F00700022802D004B0A6
:10807000002070BDFCF766FE801E05280ED2DFE8EA
:1080800000F0030709050B00002008E0012006E0CE
:10809000022004E0032002E0042000E0FF20307012
:1080A0000120287004B070BD2DE9F0411C46174630
:1080B0000E46054613F0070F0BD102F0E7FB40B167
:1080C000384605F075F800221146012000F0BAFC90
:1080D00003E004F00700022802D00020BDE8F08190
:1080E00005F069F8287001203070BDE8F08110B506
:1080F000104613F0070F08BF05F01DF9002010BD52
:1081000010B5104613F0070F08BF05F01BF900204B
:1081100010BD70B5044603F007000D4602281CBFD1
:10812000002070BD05F016F920700120287070BD88
:1081300003F0070230B4AA4B4FF0000C012A05D01F
:10814000022A04BF1A78022A0BD01EE002201870FF
:10815000A448C3F808C06FF07F410068081A98610E
:1081600013E09A68042A28BF104606D29D69D400FD
:1081700025FA04F40470501C9860042805D10120ED
:10818000C3F808C008700320187030BC0120704785
:1081900013F0070F04BF944802700020704710B519
:1081A00003F007008E49012804BF0020886013D027
:1081B00013F0070F10D188688C4B04283CBFD3F80C
:1081C00000C00CF80020401C8860042804D1042260
:1081D0001220196800F036FC002010BD2DE9F04790
:1081E0008C4603F0070100247D4F1646012904BF89
:1081F000BC60FC6062D013F0070F7D4BDFF8F481A8
:1082000007D0022932D0042904BF387806284DD07F
:1082100055E0BD68002D08BFFE6124D0012D06D0B9
:10822000D7F81090AC1E4C4515D27CB908E0701CF4
:108230003861F9690844B0F5807F88BF3C6112E07D
:108240004FF4807219466C4808F099FA6749F8694A
:10825000096820440E54601C484504D16648C0F8A3
:10826000FC8006203870681CB86028E0FF2101708F
:108270003B69C3B1FA69F9680A44B2F5807F10D24C
:108280005E4D2D68454518BF047004D102F52832B3
:1082900092F8002A0270481C984204BF01208CF812
:1082A0000000481CF8600120BDE8F0871D46184614
:1082B000FAF79EFA50492846FAF73CFB3C7000203A
:1082C000BDE8F0870020704770B503F00700444C0C
:1082D0001546012804BF0020A06014D013F0070F3A
:1082E00011D102F0D3FA70B1A068404902283CBF16
:1082F0000A681554401CA060022804D102220968B3
:10830000052000F09FFB002070BD2DE9F0410546DF
:1083100003F00700354C324E0F4601280AD013F007
:10832000070F14D002281BD0042804BF3078062879
:1083300034D03FE00020B0602168087021684870A8
:10834000216888702168C8700520307032E0B068FC
:1083500004282FD221680A54401CB060062028E06F
:10836000B06860B904F017FF216808702268010A3C
:1083700051702268010C000E91702168C870B068BD
:1083800004283ABF2168095CFF21297024BF01211C
:108390003970401CB0600120BDE8F08102F076FA2F
:1083A00040B12068C178006861F31F6004F0EEFE00
:1083B000032030700020BDE8F081002070477FB5B9
:1083C0001C460E46054613F0070F19D102F05EFA5F
:1083D000B0B1012202A9112000F034FB14E000002A
:1083E000F404011088040110240401102C4201003F
:1083F00000AA0200554E564D44220110FCAA02006C
:1084000004F00700022802D004B0002070BD08F07C
:1084100060FA28700120307004B070BD00207047F1
:108420001FB513F0070F04D1012202A91E2000F08E
:1084300009FB04B0002010BD03F00700F849012833
:1084400006D013F0070F04BF0878012806D014E007
:10845000012008700020886048610DE088680428C9
:1084600005D24B69401C42EA03224A618860042815
:1084700003D1032008704869C8610020704703F0E9
:108480000700DFF89CC3012807D013F0070F04BFD3
:108490009CF80000022809D01EE002208CF80000A1
:1084A0000020CCF80800CCF8180015E0DCF8080033
:1084B000022808D2DCF81810401C42EA0121CCF84E
:1084C0001810CCF80800022806D1DCF81800CCF807
:1084D000200003208CF800000020704770B403F0E7
:1084E00007020025CE4C012A02D0022A06D002E063
:1084F00002202070A56070BC002070472278022AFC
:108500001CD1D4F820C0A268624528BF10460ED204
:1085100012F0030F04D1E36953F8046BC4E9066356
:10852000237E0370A069000AA061501CA060604512
:1085300004D10120A56008700320207070BC0120C8
:10854000704770B503F007000025B54C0E460128B2
:1085500006D013F0070F04BF2078022805D02BE0C7
:1085600002202070A560A56126E0216AA0688842EB
:1085700019D2A169090A41EA0262401CA26110F005
:10858000030FA0600FD1E069B0F5303F28BF026053
:1085900006D2B0F5005F03D30422A249FAF727FA06
:1085A000E069001DE061216AA068884204D10120D1
:1085B000A560307003202070002070BD70B503F0FE
:1085C000070C0025964CBCF1010F08BFA56039D0FF
:1085D00013F0070F03D0BCF1020F35D032E0052AAB
:1085E00008BF91482DD005DC16D2DFE802F0171A3B
:1085F0001D2022008D48202A006808BFB43020D0FA
:1086000006DC102A1DD0112A08BF894819D003E0C2
:10861000302A11D0312A12D0656113E04FF4005096
:108620000FE04FF42F300CE04FF41C3009E081488C
:1086300007E04FF42C3004E001F088FA01E006F086
:10864000FFF96061002070BDA268042A07D2C2F160
:108650000303D4F814C0DB002CFA03F30370501C9E
:10866000A060042824BF01200870012070BD70B4F0
:1086700003F0070C6A4DBCF1010F07D06E4C13F0EC
:10868000070F07D0BCF1020F21D01DE00020A86029
:10869000E86019E0A86805283CBF21680A5404284E
:1086A00010D123682268D4F800C0D3F8013069697A
:1086B00012781BBA9CF804C023F0FF0343EA0C03B2
:1086C00041F82230401CA86070BC00207047EB6865
:1086D00073B1042B07D22268032B1A44527802701C
:1086E00004BF01200870581CE86070BC012070476E
:1086F0002268D5F814C012785CF8222026684FEA68
:10870000126C86F801C026684FEA124C86F802C047
:1087100026684FEA122C86F803C0D4F800C08CF803
:108720000420D8E710B503F00700012804D1002287
:1087300011460E2000F086F9002010BD2DE9F04111
:1087400003F00704364E174688460546012C04BF41
:108750000020B06017D013F0070F12D102F096F886
:1087600078B1B068344902283CBF0A681754401CED
:10877000B060022807D102220968072000F062F9E0
:1087800001E0022C02D00020BDE8F081B26812B1F5
:10879000012A04D009E0FCF7D5FA287005E0FCF7BF
:1087A000D7FA2870012088F80000B068401CB0603B
:1087B0000120BDE8F08170B503F007000025184CDA
:1087C000012808D013F0070F0BD0042804BF20782D
:1087D000062833D03BE06561A5616570A560257012
:1087E00035E0A068022807D2616942EA012161618F
:1087F00061781144617010E0042807D2A16942EA4F
:108800000121A16161781144617006E0052804D25C
:1088100061788A4204BF06212170401CA06016E0E6
:10882000F40401100C05011000AA0200E805011073
:1088300028AA011000AF02002C420100D4E9050172
:1088400001F0E2F9002804BF0120A070257000208B
:1088500070BD10B56B4C13F0070F07D003F0070085
:10886000042804BF207806281FD028E0A06802282A
:1088700007D2616942EA0121616161781144617046
:1088800010E0B0F5817F08D25F490968014401F822
:10889000022C61781144617004E001BF61788A4262
:1088A00006212170401CA06009E05849606901F070
:1088B000CDF9002804BF0120A07000202070002006
:1088C00010BD03F0070CBCF1010F00D0C1E74D490A
:1088D00000204861487088600870704730B403F029
:1088E00007050024DFF81CC1012D07D013F0070F86
:1088F0000DD0022D3CD0042D54D06FE0CCF81440A4
:10890000CCF81840CCF808408CF8004066E0DCF861
:10891000080002280BD2DCF8141042EA0121CCF83E
:1089200014109CF8011011448CF8011019E004286F
:1089300017D2DCF81810032842EA0121CCF81810ED
:108940009CF801301A448CF801200AD106228CF8D8
:108950000020DCF81420114304BF4FF43071CCF830
:1089600018102B49401CCCF82810CCF8080035E032
:10897000DCF80820042A28BF10460AD2C2F10303FB
:10898000DCF82850DB0025FA03F30370501CCCF808
:108990000800042803D10120CCF80840087030BC3E
:1089A000012070479CF80000062815D1DCF814005F
:1089B00000220102DCF8180003021046B2EB930F0C
:1089C00006D251F8045B401C2A44B0EB930FF8D355
:1089D000CCF828208CF80040CCF8084030BC0020AF
:1089E00070474FF42F300168880A424211EB82220F
:1089F00018BF401C404201EB8000C01C20F0030067
:108A000070470000F40401102C42010044220110C0
:108A1000EFBEADDEF7480022027042708270027134
:108A20004271C270DFF8D0C3114601EB4103002050
:108A30000CEB43031A54401C0628FBD3491C202985
:108A4000F3D3704707F04ABF2DE9F04115460E46B3
:108A50000746FAF7D5FA00F008040820FAF7CBFA2F
:108A60002A463146384607F039FF05462046FAF7D0
:108A7000BDFA2846BDE8F081DE4880787047DD48C1
:108A800040787047DB49002048707047D94908207A
:108A90008871704770B50026F9F78BF8044610F01E
:108AA0000F052DD02846F9F787F8012D17D0FCF7D0
:108AB0004FF944EA0064002322460321072003F013
:108AC0007BFF14F0060F1BD00126FCF73BF9044690
:108AD00004F082FB022C18BF052C09D010E0FCF733
:108AE00031F9C4498A79904218BF8871DFD1E8E72B
:108AF000022805D0022C4FF0020003D001F0D6F876
:108B0000304670BD04F009FCFAE72DE9F84F002764
:108B1000FAF7E7FEFCF716F9022804D101F0EFFCA2
:108B2000002818BF0127FFF7B5FF002818BF01274D
:108B3000DFF8C09299F80200002800F03B82D9F8D3
:108B400008006D464FF0FF34002640B1D9F80820E8
:108B500000230121084603F02FFFC9F80860FAF747
:108B60004FFA00F0080A0820FAF745FA99F80300CE
:108B7000DFF884B200B399F8050000EB4001401C17
:108B8000C0B20BEB410189F80500202828BF89F805
:108B9000056099F80300401E89F803004C7891F8AD
:108BA00000800020002C05DD0A1892782A54401C11
:108BB0008442F9DC0E704E705046FAF717FA002C1A
:108BC000C0F2E88108F0FF0000242B2880F09F818C
:108BD000DFE800F0A638F01F2A3B1648EF4FA68CBE
:108BE00092CDEE97B0B5EDA6A6A6A6A6A6A6F1EBE9
:108BF000EAE9E8A6E7E6E5A6E4A6E3E2A6A6E10040
:108C00009DF80000AC280CBF01200220FCF75EF9A3
:108C100018E09DF800100120FCF7A9F8012089F860
:108C20000100044600F073B99DF80310009861F349
:108C30001F6002F0A7F801210320FCF798F801203B
:108C400089F80100012400F062B9BDF8000040BAC3
:108C500004F0A4FA02210320FCF789F8012089F826
:108C60000100EFE79DF801109DF80000FCF77FF888
:108C7000E8E74FF0010A89F801A099F8000088BBE5
:108C8000F8F78CFF70B39DF8005089F800A0FCF74E
:108C900059F8012808BF002515F0040F18BFFDF78B
:108CA000BBFA15F0020F07D0FF210F20FCF777FE6B
:108CB000FBF73AFB45F0010515F0010F10D0FCF76A
:108CC00041F8022802D104F087FA48B1FCF73AF8DB
:108CD000052802D100F0F5FF10B10020FBF713FBCF
:108CE00089F8006089F8016000F011B99DF8000072
:108CF000401E01F03BFAA5E79DF8000004F030FBB0
:108D0000A0E79DF8000010F00F0F0AD0012001F03D
:108D100065FC9DF80000102100F00F0001F035FC0B
:108D2000F5E0002001F05AFC9DF80000002100F061
:108D30000F00F3E79DF8000001F056FCE7E09DF816
:108D4000000010B1012808D0E1E0002007F0CBFDC1
:108D5000002005F077FE002006E0012007F0C3FDAB
:108D6000032005F06FFE012005F08FFECFE09DF897
:108D7000000058B1FBF7E6FF022818BF012404F0F9
:108D8000D4FA01460220FBF7F2FFC0E000210620E2
:108D9000FBF7EDFF56E7B6E0AEE0A8E089E08DE036
:108DA0007AE076E02FE029E01FE013E003E065E0E1
:108DB0003BE04CE079E09DF80000002818BF01205E
:108DC00004F09CFA9DF80000002818BF012000F074
:108DD00063FF9CE0002000F05FFF00210520FBF70F
:108DE000C6FF012000F0BFFF91E09DF8000004F0F5
:108DF00071FA8CE02C05011044230110BDF800002D
:108E000004F008FB1EE79DF8000020B101287ED089
:108E1000022805D07BE04FF42F30F9F7E9FC76E02B
:108E200001F05AFD00210420B2E7FAF7E9F800F05A
:108E300008040820FAF7DFF899F80300002808BFB3
:108E400089F802602046FAF7D1F801219FE79DF8E2
:108E50000000012804BF0221052099D0022804BF88
:108E60000021032094D0032804BF002104208FD0C8
:108E700004281CBF0221084688D089E79DF803001A
:108E8000009A002360F31F626221072003F094FD23
:108E90003DE0FBF71FFCD5E69DF8000007F00FFD55
:108EA0009DF8000000287FF4CDAE0020FBF747F9C5
:108EB000C8E69DF8000004F034FBC3E607F0F5FCBB
:108EC0009DF8004004F007FB012C0AD0022C08BFDB
:108ED00040F0805005D0042C14BF082C40F0005006
:108EE00001D104F076FA204607F002FDAAE69DF8CB
:108EF000000007F002FD0AE09DF8000007F002FD07
:108F000004F0A0F903E09DF8000000F05BF90CB15B
:108F100001273FE0D9F808006D464FF0FF3440B11B
:108F2000D9F8082000230121084603F045FDC9F8BF
:108F30000860FAF765F800F0080A0820FAF75BF80D
:108F400099F8030000B399F8050000EB4001401CBC
:108F5000C0B20BEB410189F80500202828BF89F831
:108F6000056099F80300401E89F803004C7891F8D9
:108F700000800020002C05DD0A1892782A54401C3D
:108F80008442F9DC0E704E705046FAF72FF8002C30
:108F9000BFF618AEFAF734F800F008040820FAF724
:108FA0002AF899F80310002908BF89F802602046C2
:108FB000FAF71CF8002F14BF01200020BDE8F88F3D
:108FC00002460020022928BF704752B1012A18BF6B
:108FD000704701EB810000EBC100FE4901EBC000CE
:108FE0007047C1EBC100FC4900EB400001EB801071
:108FF000704770B5FAF704F800F008060820F9F792
:10900000FAFFF64C00256078FF2806D24FF428615D
:10901000F14807F0B9FBA570E570A079FF2805D2EB
:10902000D021EC4807F0B0FBE57125723046BDE871
:109030007040F9F7DBBF00FB01F3B3F5287F88BF71
:109040007047E64B9A61C3E904017047DFF88CC3AF
:109050000028DCF8103018BF0360E04800294069A0
:1090600018BF0860002A1CBFDCF8181011605843B4
:109070007047DA48012101710078D74980F001007A
:10908000C0EBC00000EB400001EB80107047D348FC
:109090008278002132B1C27822B9027882F00102CE
:1090A0000270817001717047CC491E284A7848705F
:1090B00008BF002003D01F2808BF012000D108707E
:1090C00010467047C5480078C34980F00100C0EBE6
:1090D000C00000EB400001EB80107047F0B4BF4EC1
:1090E00096F800C0BC4CCCEBCC0C35690CEB4C0CAE
:1090F00004EB8C1C03FB05F40CEB440C8D4234BFD9
:109100002C460C467669F31A934238BF1A4600265D
:10911000002A9CBFF0BC70470023002C06D930F811
:1091200013702CF813705B1C9C42F8D8761C0CEB67
:10913000450C00EB41009642EED3F0BC70472DE9A0
:10914000F041A64F14468C4601467A7806981D4693
:109150008A4218BFBDE8F0810121F970012802D0D0
:10916000022825D02AE038789B49C0EBC0003E6930
:1091700000EB400001EB8011A64234BF324622468C
:109180007869A84238BF05460023002D16D9002073
:10919000002A06D91CF8007021F81070401C824289
:1091A000F8D85B1C01EB4601A444AB42EFD305E0C9
:1091B00000232A4621466046FFF790FFBDE8F041B4
:1091C00000F079BB854A012811469072497808BFA2
:1091D000242004D0002806BF2429FF2070475070A7
:1091E00070477E48807A70472DE9F04F7B4B8AB0FC
:1091F0001B78DFF8E4C1C3EBC30303EB43030CEBC1
:10920000831593088C08A2EB920C05945208ACF1DC
:10921000010C0093CDE901C24A08CDE90642A1EB59
:109220009102521E08920992CDE9033C00239E460A
:109230000DF1140AE94625F813E059F82320A2F1AC
:10924000010C02F10108E04524BF5AF823707E1C8E
:1092500013D37A1E96420CD30CFB012435F913B0BC
:1092600030F914405C45C8BF25F81340521C9642A3
:10927000F2D20CF1010CE045EBD25B1C052BDAD3EA
:109280000AB0BDE8F08F002808BF70475349544B1F
:109290004A7854491B78002A097818BF022A05D059
:1092A000042A18BF092A01D0012217E74E4A127872
:1092B000012A84BF4D4A1378012200F016BB2DE924
:1092C000F04F464C83B00121E17049496278464D28
:1092D0000F784349454E122A91F800A02CD00CDC9F
:1092E000042A1AD004DC002A18BF022A0DD114E087
:1092F000092A12D0112A1FD007E0132A1CD0212AD4
:1093000018BF222A7AD0242A79D0002878D00023C6
:1093100052463946FFF7E2FEA9E02978012903D930
:10932000344996F800A00F78002869D000235246EF
:10933000394600F0DAFA9AE0F8F71EFBF8F778FA07
:109340000090002818BFF8F7B1FC2878012888BFE2
:1093500096F800A0F8F72AFC10F0040F18BF0AF1E5
:10936000010A254801906078A0F1110920781A4976
:10937000C0EBC00000EB400001EB80152069B84253
:1093800038BF07466069504538BF8246F8F7CBFCC6
:1093900083460020F8F789FF0026BAF1000F4CDD64
:1093A0000024002FC4BF019800EB86183EDD1BF996
:1093B0000400202824BF002025F8140033D200EB3D
:1093C000D0714910C00758F82110C00E21FA00F0E2
:1093D00081B216E0842E011004240110380501101A
:1093E000C7040110CD040110C8040110CA04011003
:1093F000C6040110C9040110004000302AE031E029
:1094000035E04FF0FF30B9F1000F1CD0B9F1010F7A
:1094100008BFC8B205D0B9F1020F04BF0846F8F77B
:109420004AFF25F81400641CBC42C0DBFE48761CD1
:109430005645006905EB4005B2DB0098002818BFCF
:10944000F8F737FC13E011F4005FC1F3042018BFF4
:109450004042E6E758B100230AF102023946FFF71D
:109460003DFE04E018B152463946FFF7BDFE03B099
:10947000BDE8F04F00F01FBAEB480121417240797E
:1094800080F0010000EB800101EBC000E74901EB37
:10949000C0007047E448C279002132B1027A22B993
:1094A000427982F001024271C17141727047DE4916
:1094B0001E288A79887108BF002003D01F2808BFA2
:1094C000012000D1487110467047D748407980F09C
:1094D000010000EB800101EBC000D44901EBC000AA
:1094E00070472DE9F04FD24985B0012291F80080F4
:1094F000D04991F80090CC490A728979CB4C112956
:109500001CBF1229132936D0F8B1C749497901EB9C
:10951000810202EBC10104EBC102002119EB080C2E
:1095200018BFC54C11D02368B9F1000F5B8A03BF87
:1095300030F811500B4422F8135030F8113018BF96
:1095400022F81130491C8C45EDD8F9F759FD00F08F
:1095500008050820F9F74FFDB34C607A002818BFC2
:1095600001217CD0E1712846F9F740FD00202072EE
:1095700005B0BDE8F08FF8F7FFF9F8F759F9019059
:10958000002818BFF8F792FBA7488179A1F11105CF
:10959000C1690091407900EB800101EBC00004EB50
:1095A000C006F7F773FBA54FA5494FF0110A002835
:1095B00004BF8B46012004D0BB4650460F464FF0F7
:1095C000010AF8F772FEF8F7ACFB00240390B9F13A
:1095D000000F29D900988001029003980057202895
:1095E00024BF002026F814001BD200EBD072029991
:1095F000521001EB8201C00751F80B10C00E21FA86
:1096000000F081B24FF0FF30002D48D0012D08BF8F
:10961000C8B204D0022D04BF0846F8F74CFE26F865
:109620001400641C4C45D8D306EB49065046F8F7A5
:109630003CFEF8F778FB00248246B8F1000F28D9E9
:109640000098A3464FEA80191AF90400202828BF81
:1096500026F814B01AD200EBD071491000E02CE0CB
:1096600009EB8101C007C959C00E21FA00F081B28F
:109670004FF0FF30D5B1012D08BFC8B204D0022D84
:1096800004BF0846F8F717FE26F81400641C44458A
:10969000DAD30198002818BFF8F70BFB55E711F44F
:1096A000005FC1F3042018BF4042B8E711F4005F27
:1096B000C1F3042018BF4042E6E7607980F0010062
:1096C000607100214EE770B50D4657490122CA70FE
:1096D0005C4A497816785C4A212914781EBF2229F1
:1096E000232970BD002818BF002D11D00023224669
:1096F0003146FFF7F3FC631C012221462846FFF7A1
:10970000EDFC05EB4400A31C01223146FFF7E6FC0B
:10971000BDE8704000F0CFB870B5434D044668789E
:1097200090B9E06868B149490978012994BF464970
:1097300047490B7847490122097800F0D6F8687844
:1097400010B9A068FFF7BBFD6878112804BF00209E
:10975000FFF7B5FD6878122804BF0020FFF7AFFDC2
:109760006878132804BF0020FFF7A9FD206920B105
:10977000A979002908BFFFF7B4FEA879112804BF12
:109780000020FFF7AEFEA879122804BF0020FFF7E3
:10979000A8FEA879132818BF70BD0020BDE870404E
:1097A0009FE62DE9F74F804626480D46002690F8A3
:1097B00000A025481C49344690F80090BAFBF5F00B
:1097C00000FB09F70120C870C87A0978DFF888B073
:1097D000884211D0144AC0EBC00000EB40000BEBF4
:1097E000801110784FF4A862C0EBC00000EB40007D
:1097F0000BEB801006F0D2FF0298002888BFDFF83C
:1098000028B048D99BF80CC00022BCFBF9F009FB3A
:1098100010C101FB0AF100FB0510002D2DD938F80D
:1098200014309BF8001019E038050110842E011047
:10983000CB040110CC040110E8050110C048003031
:1098400040480030C6040110C7040110C8040110CC
:10985000CA040110CD04011004240110C1EBC101A0
:1098600001EB410E4449641C01EB8E1100EB020E2A
:10987000521C21F81E309542D1D80CF10100C0B223
:109880008BF80C00B84224BF00208BF80C00761C2B
:1098900002988642B6D33949087B401EC0B208738D
:1098A00087429CBF781E08730878C87203B0BDE871
:1098B000F04FAFF3008070B5F9F7A2FB00F0080697
:1098C0000820F9F798FB2D4C20790025002801BFCE
:1098D000207880F001002070A5701CBF0120A070CE
:1098E0003046F9F783FBE57070BD2DE9F0479946E6
:1098F00016460D460446F8F71BFA5FEA000C1DD029
:109900001E4908781C4AC0EBC000D1F8108000EB5B
:10991000400002EB801009FB08F200EB42004545D5
:1099200094BF2F4647464969A1EB0901B14238BFB0
:109930000E460021002E09D8BDE8F0874B4632467E
:1099400029462046BDE8F047FFF7C8BB0023002F9B
:1099500008D91CF9032034F8122020F813205B1CCE
:109960009F42F6D8491C00EB480004EB4504B14285
:10997000ECD3BDE8F0870000042401103805011085
:109980006849002814BF002001200870704765480E
:10999000007800280CBF0120002070476148017842
:1099A00079B14FF040214A6942F001024A618A6967
:1099B00012F0010F05D00A6B5B4B22F440521A43A0
:1099C0000A63002141608160C160016170475548B0
:1099D000017879B14FF040214A6942F001024A61B1
:1099E0008A6912F0010F05D00A6B4F4B22F44052E6
:1099F0001A430A63002141608160C16001617047C0
:109A000070B50446F9F7FCFA00F008050820F9F7EC
:109A1000F2FA444A45490023D06801EBC001401CDA
:109A2000D060B0F5807F28BFD36020780870607860
:109A30004870A0788870E078C870207908716079E3
:109A40004871A0798871E079C8711069B0F5807F9C
:109A50003CBF401C106116D31D20087001204870C7
:109A6000207888706078C870A0780871E0784871B4
:109A7000207988716079C8719068401C9060B0F559
:109A8000807F28BF9360506840F0010050601078DC
:109A900088B14FF04020416921F001014161016B23
:109AA00011F4405F07D0016B21F4405141F4BE0135
:109AB00041F0204101632846F9F798FA012070BD72
:109AC00000B50178427883B0890141EA82018DF8BE
:109AD0000010418809098DF80110818809098DF865
:109AE0000210817801F00F02017962F31F118DF8E5
:109AF0000310017A8DF80410417A8DF805108179F0
:109B0000C27901F03F0102F00C0241EA02118DF826
:109B10000610C07980018DF807006846FFF770FFD6
:109B200003B000BD5805011000205FA0542F0110A4
:109B3000002818BF2D482E49886370472C48806B39
:109B40002A4988420CBF01200020704728487047EE
:109B5000284B4FF0000C1D681B1F1C68244B19601C
:109B60005A602549D963DD6215F0804F22D0210C5F
:109B70005985210A83F8291083F82840598D19B195
:109B80005A8D012141EA024C93F8291039B193F81A
:109B90002910022242EA014C18490968196393F816
:109BA000281039B193F82810032242EA014C1449D5
:109BB000096859634FF04021C1F878C08269CA67CB
:109BC000B0E834109A60DC601D61C3F814C090E8FE
:109BD00015109861DA611C62C3F824C0986B034ABF
:109BE000904204BF07480867FEE70000504D554407
:109BF00000DF01102CED00E0544C414638ED00E050
:109C000034ED00E0AD2007B070B50E460446FBF71A
:109C100099F8042811D1A4F51C7050280DD2A01970
:109C2000A0F27120502808D225020024002E04D969
:109C30002846F8F7DDFD012801D0002070BD641C26
:109C400005F58075B442F3D3012070BD70B50D46A3
:109C50000446FBF777F804280AD1A4F51C705028B5
:109C600006D220022946F8F765FE012808BF70BD1C
:109C7000002070BD10B5074CFEF747FF012808BF54
:109C800010BD206800F0F0FE002818BFFBF7B2F806
:109C9000F2E70000E8050110CD4A0028516814BF22
:109CA00041F0010021F0010050607047C84B596835
:109CB0000A0E120721F07F4142EA00600843586013
:109CC0007047C3484068C0F303607047C0484068AD
:109CD000000F7047BE4840697047BD490120486188
:109CE0007047BB490020486170472DE9F041AEB094
:109CF000002706F00CFE0646A02102A806F044FD4F
:109D0000002425464FF00308305D10F0800F18D076
:109D1000601C8DF8A9008DF8AF508DF8A880ADF8C3
:109D2000AC508DF8B050ADF8AA508DF8AE508DF80B
:109D3000B1508DF8B450355501272AA902A8F6F77D
:109D4000CFFB601CC4B20A2CDED3012F06D1102336
:109D500002AA06210120009505F0A8FB06F0DCFD13
:109D60002EB0BDE8F0819A49FF220A7088617047E1
:109D70009748007870472DE9F04FDFF8588287B098
:109D8000D8F80000B0F90E11B0F90C0106F047FD4B
:109D9000F6F76EFC0120FAF7D2F906F0C2FDD8F80A
:109DA00000008B4FD0F8F800C0F30344C0F3032148
:109DB000C0F303358C420DD10F2D0BD003F0FAFA0E
:109DC00020B106F072FD082818BF2C46B86AA042E0
:109DD00018BFBC622046FAF798F9FAF7B3FF0528D6
:109DE0004CD1DFF8F4B14FF000094FF0402A786809
:109DF000C7F80890C7F80C90C0F30365C7F8109037
:109E0000D8F80000A900D0F8F80020FA01F101F01C
:109E10000F04C0F30321C0F303368C420DD10F2E83
:109E20000BD003F0C7FA20B106F03FFD082818BF99
:109E30003446B86AA04218BFBC622946052002F029
:109E400049FE002D7ED0022D1FD0042D7BD07868D6
:109E50000A2D4FEA106120F07F404FEA017118BFD0
:109E600041F0007108437860FEF74FFE012805D0ED
:109E700006F052FDFAF766FF0528B8D0FAF75EF94A
:109E800007B0BDE8F04F06F051BD0D212046FBF7AD
:109E90006EF80028E8D006F04EFD06F051FDFAF706
:109EA000F8F8040065D1F7F746F94C48F7F709FDD3
:109EB0000120F7F7FBFCF9F7C5F84948F9F777F9FE
:109EC000F9F75EF9F9F787F9D8F800104000B1F812
:109ED0000621B0FBF2F0401CC0F34F00788091F8EF
:109EE0000811797059B1F9F776F9D8F800104000E7
:109EF000B1F80411B0FBF1F0401CC0F34F00F9F7CA
:109F0000DBF83848CAF81800F7F736FDF7F79BFE7C
:109F1000787838B1401E10F0FF00787004BF788860
:109F2000F9F7CAF87868C0F3036529460520F6F703
:109F3000D2F9FEF7EAFD012809D07868C0F3036082
:109F4000A84201E03BE03EE008BF002C18D0CAF870
:109F500018B0F9F7E9F8F9F71EF90020F9F727F931
:109F6000F9F779F8F7F708FDF7F764FC0020F7F741
:109F7000A8FC06F0E5FC06F0E8FCFBF740F973E707
:109F80006846F8F71EF870B16846FFF7C5FB019800
:109F9000F9F726FD684606F0DDFC0446F8F759F8A7
:109FA000FAF749FFC5E7D8F80000406E10F0704F8F
:109FB00002D0FAF71FFFBCE7FAF744FFB9E72046E3
:109FC00006F0CDFC50E7204603F08FFB4CE7000085
:109FD0006C050110E805011000005FA0EF9500106E
:109FE0007590001007005FA07047002808BF7047F9
:109FF00080220146014806F0C2BB70475437011069
:10A00000704708283CBFFE49087070470020FC4993
:10A0100088604860FB48006890F88100082838BFD5
:10A02000087070470020F64948607047F44800788F
:10A03000704770B5F34D0024286890F86C0010F05C
:10A04000020F0BD0FAF77EFE022807D1EC482968F0
:10A05000007801EB8000B0F8840084B2204670BD27
:10A0600070B5E84D4FF48054286890F86C0010F0FB
:10A07000020F0DD0FAF766FE022809D1E0482968E0
:10A08000007801EB8000D0F88400000CC0F31304CA
:10A09000204670BDDA488078002818BF012070473C
:10A0A0002DE9F041FAF74EFE022803D103F094F8AF
:10A0B000022803D04FF48050BDE8F0814FF4805562
:10A0C0002E4603F04AF9CF4F0446DFF83483386850
:10A0D00090F86C1011F0010F0ED0B0F87600D8F89F
:10A0E00008104042814207DC34B10020641EC8F8E9
:10A0F0000800204603F034F9396891F86C0010F03C
:10A10000040F18BF002C0AD0B1F87C00621E9040EA
:10A11000B1F87E20824238BF1046C0F31306D1F852
:10A12000A40010F0020F1CBF98F80210002902D002
:10A13000000CC0F31305B54298BF354606F014FC79
:10A1400010F4817F0FD0FAF7F0FE01463868B0F8BE
:10A150005800C0F3033081421CBF4FF40050B5F5E6
:10A16000005F38BF05462846BDE8F0812DE9F04F75
:10A17000DFF890A287B0DAF8001091F86C2012F0A6
:10A18000020F0DD09E4A91F88090DFF87CB21778CC
:10A19000002809DB484503D2B84218BF064643D120
:10A1A00007B00020BDE8F08F3E464FF0FF38F7F7CC
:10A1B00041FBF8F7E0F80025B9F1000F34D9DAF8DF
:10A1C0000000002400EB8500B0F8840081B2204636
:10A1D000F6F7CFFFF7F737FD6846F7F7F2FE0028EE
:10A1E00066D0029878B1014688489BF80020007834
:10A1F0005043421E07D331F9020B0028B8BF40423A
:10A200000444521EF7D2F7F724FFF7F713FB00239D
:10A2100022469221072002F0CFFBA04584BF2E46A4
:10A22000A0466D1C4D45CAD3B74244D0082E3CBF52
:10A2300073490E70DAF80000B0F8821039B300EB01
:10A24000870200EB8600B2F88420B0F8840092B256
:10A2500080B2801A484340F30F34F9F711FC6C4B7D
:10A260009BF80020002193F800C002FB0CF2002AAA
:10A270000DD930F81120224420F811209BF800203D
:10A2800093F800C0491C02FB0CF28A42F1D84FF44B
:10A29000800003F04FF9DAF80000002300EB86009D
:10A2A0008021B0F8840082B2072002F085FB09E02B
:10A2B000FAF7A0FD90E703F050F803283CBF401CDC
:10A2C00003F04EF8012007B0BDE8F08F4D484C492F
:10A2D0000068B0F87600424288688242BCBF401EE7
:10A2E000886070472DE9F04F91B093460E460446C2
:10A2F0004FF0000A03F031F8DFF80881404F050005
:10A30000D14610D106F035FBD8F80010B1F878101E
:10A31000884208D30120C7F8089003F021F811B053
:10A320000120BDE8F08F002E1FDDB8680028B8BFFF
:10A33000C7F8089007DBD8F80010B1F8741088420D
:10A34000BCBF401CB860D8F80000B968B0F8740011
:10A35000884215DC032D13D2681CC7F8089002F060
:10A36000FFFF11B00120BDE8F08F09D1D8F800003F
:10A37000B0F876004142B8688842C4BF401EB86059
:10A38000B87850B1D8F8000090F8A40010F0040F8D
:10A390001EBF002011B0BDE8F08FD8F80000B0F962
:10A3A00072108C420EDD796821447960B0F86E003D
:10A3B000884210DC4FF0FF30C7F80490FFF7D6FE5C
:10A3C000824608E07868002805DD002CD4BF012112
:10A3D0002146401A7860DFF83C9099F80000072881
:10A3E0003AD10D48594600784200684606F0D6F941
:10A3F000ADF80040ADF80260ADF8045038890DE0CA
:10A40000C8050110E8050110C6040110CA040110B6
:10A41000C704011039050110CD040110ADF8060084
:10A42000B888ADF80800D8F80000B0F87210ADF8A0
:10A430000A10B0F87410ADF80C10B0F86E10ADF84A
:10A440000E10B0F87600ADF8100099F8000007285B
:10A4500004BF6846FEF717FF504611B0BDE8F08F05
:10A460003D4810B50068D0F8A40010F4807F06D0F5
:10A47000C0F30330012101FA00F0F8F72EFB374951
:10A4800000204870887010BD70B5344D0024A87845
:10A49000002814BF01260026687828B902F06CFF56
:10A4A000002808BF002100D001218E4225D00A1CBF
:10A4B00018BF0122AA7028480068D0F8A43013F011
:10A4C000040F0ED021B1C3F30310082808D206E010
:10A4D0000021A960696090F88100082800D22870E6
:10A4E000012413F0020F18BF0124002A18BF012213
:10A4F00000238221072002F05FFA204670BD164932
:10A5000000200968D1F8A41011F4807F08BF7047BB
:10A51000DFF848C09CF80120131C18BF012330B499
:10A520000F4CC1F30332E46B012505FA02F222401D
:10A5300011F4007F01D00AB102E00AB1002100E06D
:10A5400001218B4204BF30BC7047081C18BF01209A
:10A550008CF8010030BC97E7E8050110C805011030
:10A5600000100040AB48C079704710F5167FA8BFB7
:10A5700070470120A749C8717047A6490020C871DB
:10A580007047A44890F90100704770B5A14E044689
:10A590000D4696F90100A04218D0FAF7D3FB022825
:10A5A0000FD1B4F1FF3F0CD0357096F90100B0F136
:10A5B000FF3F06D044EA052200236421072002F071
:10A5C000FBF97470002C04BF0020F071FAF7BAFB9D
:10A5D00005281CBFB4F1FF3FB47070BD8D49C87031
:10A5E00070478C48C0787047024600F00F00112178
:10A5F0000228A8BF7047874B1209002818715A71AA
:10A6000008BF0021C1E7834840797047814800793D
:10A61000704710B50446FAF77FF901467D4A204697
:10A62000012982BF0021917110BD9179142905D8AB
:10A63000491CC9B29171142938BF10BD002010BD4A
:10A6400070B50C46054606F099F900214FF0140C40
:10A650000DB30022401E00281DDD35F91230002BFD
:10A66000B8BF5B429BB2634511D90221B3EBCC0F5B
:10A6700088BF032009D8B3EB8C0F88BF022004D811
:10A68000B3EB4C0F8CBF01200020207003E0521C64
:10A69000D2B28242E1DB084670BD2DE9FF4F81B0A6
:10A6A00092468046CCB200270E9D06F06CF90090D1
:10A6B00006F06EF9DFF85C910646BB4699F9010099
:10A6C000B0F1FF3F04BF99F80200012808D1FAF762
:10A6D00039FB052804D002240127CAF800B069E03C
:10A6E00054EA050006D0002C64D096F8EC0401284A
:10A6F00060D14DE0307B80B196F8420000281CBF4D
:10A7000002242746F1D196F8EC04012819BF96F8E7
:10A71000EE04012802240327E7D05D46D8F8148010
:10A7200006F02CF9002414220146B8F1000F20D0C5
:10A7300000204B1E002B1CDD38F910100029B8BF7B
:10A74000494289B2914210D90224B1EBC20F88BFAD
:10A7500003250ED8B1EB820F88BF022509D8B1EBD3
:10A76000420F8CBF01255D4603E0401CC0B29842F9
:10A77000E2DB002C18BF45F0A007B6D1DAF80000E4
:10A780002C2817D2307B002818BF022412D0ACE747
:10A79000FAF7C2F8012888BF89F806B00AD899F8F4
:10A7A0000600142805D8401CC0B289F806001428F9
:10A7B00000D3002499F80300012804BF002C0224D0
:10A7C0000098007D012808BF002406F0E6F8012863
:10A7D00008D10498022441F28831884202D906F057
:10A7E000E1F8002499F80500012808D07CB1394629
:10A7F0000120FFF7CAFE05B02046BDE8F08F99F8AA
:10A80000040010F0FF0F14BF02240024EFD1002138
:10A810000846EEE7D40501107F4880494FF0000C50
:10A8200042681068884204BF5068B0F5087F03D1C1
:10A830009068B0F5485F01D90020704770B478493E
:10A84000D5688D421FD0002413462146B4EB900FEB
:10A8500007D253F8046B491C7440B1EB900FF8D346
:10A8600074B9116A79B10021B1EB900F06D252F898
:10A87000043B491C9C44B1EB900FF8D3654502D0D2
:10A8800070BC0020704770BC01207047624800789F
:10A8900070476148406800F5407070475E48406806
:10A8A00000F58070704710B55B4C4FF41C30606051
:10A8B000FFF7B2FF70B1606800F5807000F0D4F867
:10A8C00040B1606800F5407000F0DDF810B1012083
:10A8D000207010BD002010BD4F49002008704FF4BB
:10A8E0001C30F7F785BF4C48017841B140684B4AAE
:10A8F0000168914202BF4168B1F5087F70470020AE
:10A900007047454B5B6803F580731844F8F76FB8E0
:10A91000414B5B6803F540731844F8F768B83E484C
:10A920004068006970473C4949680A6982429CBF97
:10A9300000207047C0EBC00001EBC00000F5806054
:10A940007047354A526802EB80035B6A1A44354B04
:10A9500053F820C0403333F810000CEB0003401EC6
:10A960005B1E23EA000000FB012070472A49886033
:10A9700070472948806870472DE9F00F264B002268
:10A98000DFF8A080D3E90145012708F14006914690
:10A99000831893F928C0BCF1000F18DB07FA02F303
:10A9A0002B4214D0D3B204EB830A58F823B036F804
:10A9B0001330DAF824A09B445B1EABF1010BA244D8
:10A9C0002BEA030303FB0CA341F8223001E041F81A
:10A9D0002290521C102ADBD3BDE8F00F70470029EB
:10A9E000B8BF704730B494460B4A0F4C526802EB24
:10A9F00080035B6A13440B4A52F8202034F810009D
:10AA00001418401E641E24EA000001FB003030BC14
:10AA10006146F7F7ECBF0000DC05011054465053C7
:10AA2000EFBEADDE304201007042010010B5FFF70D
:10AA30003AFFA8B1FFF72DFF0146D022174805F0D5
:10AA40009EFEFFF72BFF164C01464FF4E272206882
:10AA500005F095FE2068406DBDE8104002F008BC8E
:10AA60000220FAF733FAE2E758B10E4A0168914240
:10AA700007D1406820F00F00B0F5187F04BF012017
:10AA800070470020704730B1006820F00F00702838
:10AA900004BF0120704700207047000028AA011061
:10AAA000E805011041505352AD4810B5806810F0D0
:10AAB000020F15D0F6F7BCFE90B1F6F77BFE04024C
:10AAC000FAF740F944EA0044FAF742F944EA006030
:10AAD0004EF2AF0108434FF04021C867012010BD7E
:10AAE000002010BD10B572B60120F7F781FDF8F710
:10AAF0002DFCF8F757FC4FF0FF30F8F77CFA994837
:10AB000080234FF40052002152F821C040F821C0A8
:10AB1000491CB1EB930FF7D3F8F77FFAF8F7A6FECD
:10AB2000F8F7C8FE9048F8F7E1FE0120F8F79FFE1D
:10AB3000F7F7F0FD1E20F8F78FFEF8F74FFCF7F758
:10AB4000D7FFF8F74BFEF8F799FCF8F777FAF8F724
:10AB500047F8F6F782FEFFF769FFF8F7F6F9F8F71E
:10AB6000C1F9FDF757FFFBF763FBFEF730FF62B655
:10AB7000FAF7F3F97D4C206890F8640000F00F00BC
:10AB8000F7F75AFC2068018BC1F30722418A008A3B
:10AB9000FEF751FA2068806E000C01F00AFF74483D
:10ABA00005F005FF2068B0F90C0105F005FFF5F789
:10ABB00078FBFFF725FAF8F7B5FEFAF758FBFFF731
:10ABC00013FA05F0FEFE206890F8200010F0010F47
:10ABD00004BF0021032003D002F0A7FB014602209E
:10ABE000FAF7C5F84FF040242069002300F0700206
:10ABF0001946022001F0E0FE206910F0200F17D066
:10AC0000226F00230521072001F0D6FE626F00238A
:10AC10000521072001F0D0FEA26F002305210720A7
:10AC200001F0CAFEE26F00230521072001F0C4FEF7
:10AC3000FFF716FC0020206710BD02244D4DFDF7E4
:10AC400064FF012806D0FAF77DF8032802D101F04D
:10AC50006EFF58B3002D05DC02F067FB01460220B1
:10AC6000FAF785F8DFF814914FF00108424FDFF84A
:10AC700010A14FF04026A9F1030BFAF763F805463F
:10AC8000FAF766F80146284601F024FFFAF760F863
:10AC900001462846F5F71FFBFDF7F8FE072D5BD2AE
:10ACA000DFE805F05A1D08272A192D006D1E002D1A
:10ACB000C5DCD1E7387850B9FBF767FA38B900231B
:10ACC0001A462021072001F077FE87F8008002F065
:10ACD0005BFF0224D1E7FFF74EF80524CDE7FBF731
:10ACE000BBF8FAF72FF8012804BF2046FAF73CF822
:10ACF000C3E702F003FAC0E7FEF7BCFFBDE7C6F802
:10AD00001890F8F79FF9F8F73BFAF8F764FA400063
:10AD1000AAFB00104009401C4008F8F7CDF9FDF7E8
:10AD2000F4FE01280CD1FAF70DF8062808D0F8F740
:10AD3000FBF9F8F730FAF8F78EF9C6F818B09CE787
:10AD4000FAF703F80546FAF776F815B1FAF77AF844
:10AD5000E5E7FAF74FF8E2E70220FAF7B7F88CE7F1
:10AD6000008000400070011059CA0000E805011081
:10AD700028AA0110FF700200EC05011003005FA07B
:10AD8000CDCCCCCCFE4908607047FE480821006855
:10AD9000428A008A02FB00107047401E022884BFCE
:10ADA000002070470822F74909684B8A098A03FB8B
:10ADB0000121484300F5003000F5224070472DE99D
:10ADC000F043ADF20C4D05460124F9F7B8FFA0F1B0
:10ADD000010CBCF1020F82BF00200DF20C4DBDE84A
:10ADE000F08395F82190E749082095F820800A68BB
:10ADF000002605F15007518A138A01FB030000FB6E
:10AE00000CF0E14B00F5003010F5224006D001684F
:10AE1000994204BF4068CDE9001001D0CDE9003669
:10AE2000B5F92600B5F9241009FB08F8084400EB31
:10AE3000D07043100021B8F1000F88BF6D4614D9BF
:10AE400037F91100C01A7F28C8BF7F2005DC10F138
:10AE5000800FB8BF6FF07F0000DA002405EB010916
:10AE6000491C89F808008845EAD88DF804409DF807
:10AE70000500FF283CBF401C8DF80500ADF80630EA
:10AE80006946BCF1020F88BF00200AD8538A148A91
:10AE9000082003FB040000FB0CF000F5003000F577
:10AEA000224058B1B2F812C0128A08230CFB0232B9
:10AEB000F7F79DFD01280CBF0126002630460DF254
:10AEC0000C4DBDE8F083AE4948607047AC4810B403
:10AED0004068002808BF4FF42C30AC4A016891420A
:10AEE0001CD14168B1F5007F18D3836800228446E5
:10AEF000B3F5056F88BF4FF405630021B1EB930FE5
:10AF000024BF10BC70475CF82140491C2244B1EBBF
:10AF1000930FF8D3002A04BF10BC7047002010BC68
:10AF2000704770B505460020E860D5F808C00121DB
:10AF30002C460346BCF5056F88BF4FF4056C002214
:10AF4000B2EB9C0F06D254F82200521C0344B2EB21
:10AF50009C0FF8D35842E8608948007810F0800FC1
:10AF60000AD12046FFF72BFF4FF42C304FF4056237
:10AF70002946F7F73CFD014601290CBF01200020BE
:10AF800070BDFF2270B50025044605614FF40061D5
:10AF9000503005F017FCA584E584E562A562656381
:10AFA0002563E563A56365642564E5640120A56404
:10AFB00070BD2DE9F0414FF42C310446734E086802
:10AFC000B04218D14868B0F5007F14D38A680023D6
:10AFD0000D46B2F5056F94BF94464FF4056C002002
:10AFE000B0EB9C0F26D255F82070401C3B44B0EBD0
:10AFF0009C0FF8D3F3B1FF224FF40561204605F012
:10B00000E1FB4FF40870C4E900604FF40560A060F4
:10B010000020E06084F8200084F8210084F82200F9
:10B0200084F8230020616061A061E0612046FFF7A1
:10B03000A8FF07E0B2F5056F88BF4FF40562204610
:10B0400005F09DFB0120BDE8F08170B402684FF46B
:10B0500008715160016801F1500291F821C091F826
:10B0600020300CFB03F102EB41010022BCF1000F88
:10B0700008D900EB4204521CB4F8EA4021F8024B14
:10B080009445F6D80022002B08D900EB4204521C4C
:10B09000B4F82A4121F8024B9342F6D80022BCF1C1
:10B0A000000F08D900EB4204521CB4F8644021F8A8
:10B0B000024B9445F6D80022002B08D900EB42043D
:10B0C000521CB4F8A44021F8024B9342F6D8B0F8D1
:10B0D000E62021F8022BB0F8E82021F8022BB0F886
:10B0E000E42021F8022B00240022BCF1000F88BFCD
:10B0F00000EB841508D905EB4206521CB6F86A61CC
:10B1000021F8026B9445F6D80022002B88BF00EB93
:10B11000841508D905EB4206521CB6F86A6221F87C
:10B12000026B9342F6D8641C042CDDD370BC7047CC
:10B130002DE9F74F88B000250A992C462E4609685C
:10B14000049101F150030999002984BF0D49D1F8F8
:10B15000008025D90022002888BFB8F9CE700DD90B
:10B1600033F9021B0029B4BFC1F1000C8C46BC4569
:10B17000BCBF0D44641C521C8242F1D3761C07E014
:10B18000F0050110E80501104654525953454C464C
:10B1900009998E42DED3002CC8BF95FBF4FA08DC77
:10B1A0004908414301EB5002049901EB4201B1F916
:10B1B00050A0002102910191049950310091002189
:10B1C0000391099900296DD9FF49009E06960968E7
:10B1D0004FF0000B4FF00109B1F9C0E0D1F8B41005
:10B1E0005F46C1F30741D846CDF814B00791002857
:10B1F00029D9B6F900204FF0000C06999344634614
:10B2000000280DD9B1F90040A51A48BF151B754596
:10B21000B8BF0CF1010C01EB49015B1C8342F1D377
:10B2200007998C4503D305997F1C1144059108F1BA
:10B23000010806EB49068045DBD3002FC4BF059902
:10B2400091FBF7F101DC9BFBF0F1039B0A9A09B239
:10B2500002EB4302A2F86410DB4A1268B2F9BA307A
:10B26000AAEB030399420ADDB2F9B82052448A429C
:10B2700005DD019A114401910299491C029100993E
:10B28000099A01EB400100910399491C03919142F5
:10B290009AD30299002905DDDDE9011291FBF2F153
:10B2A000019102E05146CDF804A00A9AA2F8E610F6
:10B2B00000210291039104995031009100210491E1
:10B2C000002868D9C049009F069709684FF0000B15
:10B2D000099EB1F9BCE0D1F8B410D846090ED946A0
:10B2E000CDF814B00791002E2BD9B7F900204FF0FC
:10B2F000000C069993446346002E0DD9B1F9004025
:10B30000A51A48BF151B7545B8BF0CF1010C01EB20
:10B3100040015B1CB342F1D307998C4504D30599D6
:10B3200008F101081144059109F1010907EB4007F3
:10B33000B145DAD3B8F1000FC4BF059991FBF8F11C
:10B3400001DC9BFBF6F1049B0A9A09B202EB430273
:10B35000A2F8A4109C4A1268B2F9BA30AAEB03030F
:10B3600099420ADDB2F9B82052448A4205DD039AB7
:10B37000114403910299491C02910099891C009182
:10B380000499491C049181429CD302980028C4BFAF
:10B39000039991FBF0FA0A98A0F8E8A001980A999D
:10B3A000504400B200EBD0704010A1F8E4000BB0A4
:10B3B000BDE8F08F2DE9F04F146889B015460E46B0
:10B3C0000746A1F12008202928BF4FF0FF3A05D2F7
:10B3D0004FF0010000FA06F0A0F1010A38BF4FF06B
:10B3E000000B05D34FF0010000FA08F0A0F1010BAB
:10B3F000202F3DBF0120B840401E4FF0FF3038BF26
:10B40000002207D3A7F120024FF0010101FA02F157
:10B41000A1F10102C6F12009202E34BF20FA09F162
:10B4200000FA08F1B2401143B040CDE900012069B3
:10B4300020F4FE6020616548007810F0010F7DD097
:10B440002A463146384601F097F90020A861686124
:10B45000002F84BFDFF870E101221BD905EB40010A
:10B46000B1F9A4100029B8BF494209B2DEF8003092
:10B47000B3F9CC308B420ADD410905EB810100F0C4
:10B480001F0C4B6902FA0CFC43EA0C034B61401C95
:10B49000B842E3D30020012F18BFA7F1010E3BD023
:10B4A00005EB4001B1F9A630B1F9A420991A48BFC3
:10B4B000D11A09B2DFF810C1DCF800C0BCF9C4C071
:10B4C0008C4526DAB5F9E810B2EB010C48BFA1EBC8
:10B4D000020C0FFA8CFC5A1A48BFCA1A11B28C45DA
:10B4E0000BDB420905EB820100F01F0C01224B69C6
:10B4F00002FA0CF21A434A610BE0411C4B0905EBBE
:10B50000830201F01F0C0121536901FA0CF1194368
:10B510005161401C7045C3D36969E869B140084373
:10B520002063A969286AB140014361636869202EDC
:10B5300034BF20FA09F000FA08F000E001E0084307
:10B54000606322480068079010F0040F00F0BC818F
:10B5500000202863E862002E88BFDFF86CE01BD96A
:10B56000DEF8002005EB4001B1F96A11B2F9D830DC
:10B570008B4203DCB2F9DA208A420ADA420905EB8F
:10B58000820100F01F0C0122CB6A02FA0CF21A436E
:10B59000CA62401CB042E3D30020A8626862002F58
:10B5A00088BFDFF824E020D9DEF8002005EB400159
:10B5B000B1F96A12B2F9D8308B4203DCB2F9DA2061
:10B5C0008A420FDA420903E0E8050110F005011094
:10B5D00005EB820100F01F0C01224B6A02FA0CF20B
:10B5E0001A434A62401CB842DED300202864E86354
:10B5F000002E88BFDFF8D4E71BD9DEF8002005EB6A
:10B600004001B1F9AA11B2F9DC308B4203DCB2F986
:10B61000DE208A420ADA420905EB820100F01F0CA3
:10B620000122CB6B02FA0CF21A43CA63401CB042EF
:10B63000E3D30020A8636863002F88BFDFF88CE79E
:10B640001BD9DEF8002005EB4001B1F9AA12B2F9CE
:10B65000DC308B4203DCB2F9DE208A420ADA42098E
:10B6600005EB820100F01F0C01224B6B02FA0CF279
:10B670001A434A63401CB842E3D300202865E864BB
:10B68000A8646864002E88BFDFF840E71CD9DEF8A4
:10B69000003005EB4001B1F9EA11B3F9E0208A422C
:10B6A00003DCB3F9E2208A420BDA410905EB810C95
:10B6B00000F01F030121DCF84C2099401143CCF825
:10B6C0004C10401CB042E2D30020002F88BFDFF8AE
:10B6D000FCE61BD9DEF8002005EB4001B1F9EA12C7
:10B6E000B2F9E0308B4203DCB2F9E2208A420ADA96
:10B6F000420905EB820100F01F0C01224B6C02FA9B
:10B700000CF21A434A64401CB842E3D3696AE86AFF
:10B71000B14040EA010EC4F838E0A96A286BB14094
:10B720000843E063696A202E34BF21FA09F101FA67
:10B7300008F141EA0000E0630590696BE86B01FAEB
:10B7400006F140EA01022264A96B286C01FA06F1B5
:10B7500040EA01006064696B34BF21FA09F101FA23
:10B7600008F141EA000161646B6CE86C03FA06F3CE
:10B7700040EA0300A0640490AB6C286D03FA06F362
:10B7800040EA0300E0646B6C34BF23FA09F303FA68
:10B7900008F343EA0000E0640290059832EA0E05DF
:10B7A00021EA000C4EEA05022564069240EA0C00EC
:10B7B000C4F844C006EB0701039008BFBCF1000FBA
:10B7C00042D000231A461846002988BF01273BD9DA
:10B7D0004FEA501804EB880800F01F09D8F84080A1
:10B7E00007FA09F918EA090F03D0864294BF521CE0
:10B7F0005B1C401C8142EBD8012B0FD105EA0A00EB
:10B8000040EA0E00A06305980CEA0B031843E063BE
:10B8100025EA0A0020642CEA0B006064012A13D197
:10B82000226C0098A36B10401843A063606C019BCE
:10B83000D4F83CC0034043EA0C03E363009B9A4303
:10B840002264019A90436064069A049830EA0202E6
:10B85000A264069840EA020CDDE9020320EA030034
:10B86000E064039B43EA000508BF002821D00023C1
:10B870001A461846002988BF012717D94FEA5018E1
:10B8800004EB880800F01F09D8F8488007FA09F986
:10B8900018EA090F03D0864294BF521C5B1C401C5F
:10B8A0008142EBD8002B18BF002A02D10020A064EF
:10B8B000E064079810F0010F06D0206B20EA0C001E
:10B8C0002063606BA8436063206B0099084203D13A
:10B8D000626B01990A4203D0216941F01001216194
:10B8E00010EA0A0F04BF606B10EA0B0F03D0206947
:10B8F00040F020002061A06B0099084203D1E26B68
:10B9000001990A4203D0216941F04001216110EA06
:10B910000A0F04BFE06B10EA0B0F03D0206940F060
:10B9200080002061206C0099084203D1626C01996B
:10B930000A4203D0216941F48071216110EA0A0FA3
:10B9400004BF606C10EA0B0F03D0206940F4007054
:10B950002061A06C002804BFE06C002803D020699F
:10B9600040F48060206109B00120BDE8F08F2DE92E
:10B97000F04FB9B015460E460446F5F75BFFF5F7F4
:10B9800085F9112100284FF0010014BFCDE9021004
:10B99000CDE90201CDE93464F6F7C3F90022002EA7
:10B9A00088BF1EA904D9835C8B54521C9642FAD8D6
:10B9B000F6F7B9F90021002C88BF1EAA07D9435C0D
:10B9C00002EB010C491C8CF820308C42F7D8F6F7BA
:10B9D000EDF83890FE48007810F0200F65D0F5F7AC
:10B9E00055F9FC49FC4A00280CBFCDE90021CDE9FE
:10B9F000001205F1EA00369040300026EA460DF1CB
:10BA0000D8090DF1D00B379002A85BF8267050F8DA
:10BA10002600F6F74AFC0024002F84BF1EA800EB86
:10BA200046181AD918F90400202828BF00200DD282
:10BA30005AF8261000EBD072521051F82210C007AD
:10BA4000C00E21FA00F080B2F6F735FC59F8261046
:10BA500021F81400641CBC42E4D3761C022ED3D31C
:10BA6000DE4C26781D2E20D100210A4604AF5BF85B
:10BA700022300020002B88BF59F822C007D93CF89B
:10BA8000108027F81180401C491C8342F7D8521CB3
:10BA9000022AECD31D2E08D13846FDF722FD20786E
:10BAA0001D2804BF04A8FDF71CFDC94E307810F016
:10BAB0000C0F00F0AA82F5F7E9F8C949C94A002835
:10BAC0000CBFCDE90C21CDE90C12C748F5F73CFFBE
:10BAD0000120F5F73FFB19900120F5F789FB17903E
:10BAE0000120F5F720FE0F900298F5F7AAFB1090C1
:10BAF0000398F5F7A6FB0E900120F5F725FC36908C
:10BB00001120F5F721FC13900120F5F749FC1C905A
:10BB10001120F5F745FC119004A8009008AB06AA87
:10BB20000AA90298F5F743FD05A8009009AB07AAFA
:10BB30000BA90398F5F73BFD0298F5F7C3FD1A90A2
:10BB40000298F5F7BFFDA14C01902068B0F8E41011
:10BB50000120F5F70EFB00210120F5F7CFFD20684D
:10BB600090F8E6100298F5F77BFB206890F8E61055
:10BB70000398F5F775FB00210120F5F7FBFB002189
:10BB80001120F5F7F7FB00210120F5F71FFC00213C
:10BB90001120F5F71BFC2068B0F8E8100298F5F7C3
:10BBA00042FD2068B0F8E8100398F5F73CFD00214D
:10BBB0000120F5F7CAFD15908548007810F0040FB4
:10BBC00000F0258126463068B0F8EC10009190F81E
:10BBD000EB3090F8EA200B210298F5F7BCFC3068B6
:10BBE000B0F8EC10009190F8EB3090F8EA200B21BF
:10BBF0000398F5F7B0FC00210120F5F7A6FD2EAC67
:10BC0000F6F721F8FCF781FF012805D02046F6F76A
:10BC1000D8F9002800F04781F5F70CFE3299002290
:10BC200034AC002054F822C0BCF1000F88BF05EBF3
:10BC3000022308D931F8027B03EB4008401CA8F826
:10BC40006A718445F6D8521C022AEAD30298F4F7A6
:10BC5000E9FD18900398F4F7E5FD16900298F5F7C2
:10BC600066FB14900398F5F762FB584E129030680B
:10BC7000B0F8EE10009190F8EB3090F8EA200B212C
:10BC80000298F5F768FC3068B0F8EE10009190F873
:10BC9000EB3090F8EA200B210398F5F75CFC0026C6
:10BCA00000210120F5F751FD00210298F4F7A5FDD0
:10BCB00000210398F4F7A1FD0DF10808012158F8BF
:10BCC0002600F4F79AFD34A8002450F826700CA83A
:10BCD000002F50F826A030D91EA800EB461905EB1E
:10BCE0000628002119F804B00846F5F73FFD0120A9
:10BCF00000FA0BF102A88B4650F82600F5F70AFB74
:10BD00006FEA0B010920F5F731FD0DF1B80BF5F7DE
:10BD10009AFFFCF7FAFE012804D05846F6F751F9CD
:10BD200000287CD0F5F786FDBAF8000008EB440146
:10BD3000641CA1F8AA01BC42D3D300210846F5F740
:10BD400015FD761C022EABD318990298F4F755FD19
:10BD500016990398F4F751FD14990298F5F7DAFA59
:10BD600012990398F5F7D6FA184C2068B0F8F0103D
:10BD7000009190F8EB3090F8EA200B210298F5F74B
:10BD8000EAFB2068B0F8F010009190F8EB3090F8E2
:10BD9000EA200B210398F5F7DEFB01210846F5F7B1
:10BDA000D4FC2EACF5F74FFFFCF7AFFE012804D012
:10BDB0002046F6F706F900287BD0F5F73BFD3299CF
:10BDC000002234AC002054F822300FE0E8050110C6
:10BDD000F0050110C0480030404800303E05011019
:10BDE000C00A00304008003001000E00002B88BF60
:10BDF00005EB022C08D931F8026B0CEB4007401C14
:10BE0000A7F8EA618342F6D8521C022ADAD3FE4828
:10BE1000007810F0080F7AD0FC4F386800E045E059
:10BE2000B0F8F210009190F8EB3090F8EA200B2176
:10BE30000298F5F790FB3868B0F8F210009190F88E
:10BE4000EB3090F8EA200B210398F5F784FB0021F2
:10BE50000B4634AC002054F821C0BCF1000F88BF61
:10BE600005EB012206D902EB4006401CA6F82A3257
:10BE70008445F8D8491C0229ECD33868002690F88C
:10BE80002401B6EB400F42DA386890F82401B04242
:10BE9000D4BF012100210120F5F757FC2EACF5F7A6
:10BEA000D2FE09E005E0F8F7A5FFABE6F8F7A2FF40
:10BEB0002FE7F8F79FFF77E7FCF727FE012803D06D
:10BEC0002046F6F77EF818B3F5F7B4FC32994FF038
:10BED00000090DF1D00E00235EF829201846002A33
:10BEE00005D931F910C0401C63448242F9D8B3FB34
:10BEF000F2F3501E18BF05EB092A37D031F910C0F4
:10BF000001EB400434F9028CBCEB080C01E03CE08E
:10BF100021E048BFCCF1000C31F91080B8EB0308E8
:10BF200031F910804CBFA3EB0808A8EB030834F9E3
:10BF300002BC34F9024CBBEB030B4CBF1C1BE41AD4
:10BF4000A0450AEB400409DDB4F92A82C445C8BF04
:10BF5000A4F82AC208E0F8F74DFFADE7B4F928824B
:10BF6000E045B8BFA4F828C2401EC7D109F10109B5
:10BF700001EB4201B9F1020FADD33868761C90F89D
:10BF80002401B6EB400FFFF67FAF01201999F5F7BA
:10BF9000F0F801201799F5F734F901200F99F5F71A
:10BFA000ADFB10990298F5F75BF90E990398F5F738
:10BFB00057F901203699F5F7DDF911201399F5F7B6
:10BFC000D9F901201C99F5F701FA11201199F5F71B
:10BFD000FDF904980090089B069A0A990298F5F7D3
:10BFE000BAFA05980090099B079A0B990398F5F700
:10BFF000B2FA1A990298F5F716FB01990398F5F72A
:10C0000012FB01201599F5F7A0FB3898F5F79CFC79
:10C0100039B0BDE8F08F2DE9F04FADF5637D1D20FF
:10C02000FDF742F8DF901D20FDF741FA764DE090D4
:10C03000FF224FF45B7168466C6804F0C3FB009408
:10C04000288810F4804F1CBF2046FEF79AFF6A46EE
:10C05000009890F8203090F821C050300CFB03F18C
:10C0600000EB41000021BCF1000F08D902EB4107B1
:10C0700030F8026B491CA7F8EA608C45F6D800211D
:10C08000002B08D902EB410730F8026B491CA7F8D6
:10C090002A618B42F6D80021BCF1000F08D902EBCF
:10C0A000410730F8026B491CA7F864608C45F6D84C
:10C0B0000021002B08D902EB410730F8026B491C24
:10C0C000A7F8A4608B42F6D830F8021BA2F8E6105D
:10C0D00030F8021BA2F8E81030F8021BA2F8E410B6
:10C0E00000260021BCF1000F88BF02EB861708D99B
:10C0F00007EB410930F8028B491CA9F86A818C458D
:10C10000F6D80021002B88BF02EB861708D907EB71
:10C11000410930F8028B491CA9F86A828B42F6D893
:10C12000761C042EDDD361461846FFF701F8364829
:10C130000127056815F4004F40F0078133486E462B
:10C140000027006890F8B40000F00F0800F0F5FC3C
:10C1500001280AD00F214046F8F709FF012813D023
:10C16000002000F0E7FC00F0F0B800210846F5F7E9
:10C170000EFCF4F766FD50B12548D0F8B01241F43A
:10C180008031C0F8B01202E0012000F0D3FC214859
:10C1900090F80090204890F800A0BAF1000F18BF66
:10C1A000B9F1000F7ED00098002180F8209080F82F
:10C1B00021A080F8221080F82310F6F7B5F8F5F7E3
:10C1C000F5FC0746002015F0030F18BF4FF48170EF
:10C1D00015F0200F1CBF40F20121084300285CD05D
:10C1E0003840F5F7B1FB0020F9F7C2FF8346002184
:10C1F0000846F9F7B4FF0120F9F7BAFF804600219D
:10C200000120F9F7ACFF09E0F0050110E805011085
:10C2100000500040C6040110C70401100020F4F7CC
:10C2200099FFE2900020F4F7E3FFE1900020F5F79A
:10C2300008F8DE900020F5F787F8DD900020F5F78C
:10C24000AFF8DC90F5F7EAF9DB90FF210F20F9F762
:10C25000A6FBF5F7EFFA0020E299F4F78AFF002039
:10C26000E199F4F7CEFF0020DE99F4F7F9FF002002
:10C27000DD99F5F77FF80020DC99F5F7A7F8DB9852
:10C28000F5F7C2F959460020F9F769FF4146012048
:10C29000F9F765FF3846F5F757FB15F02C0F06D078
:10C2A000324600E04FE051464846FFF760FB15F08C
:10C2B000030F47D0DC96DDF800B00BF15006F5F720
:10C2C00032FDDB90F5F7B6FA0020F5F7EEFF002718
:10C2D000BAF1000F22D900254FEA871817E0DB9842
:10C2E0004057202812D200EBD071491008EB810191
:10C2F00001F1405101F58041C0070968C00E21FAE3
:10C3000000F080B2F5F7D7FF26F8020B6D1C4D4503
:10C3100038BF202DE3D37F1C5745DCD3FE4D287852
:10C320001D280AD10BF15000FCF7C9FF28781D2801
:10C3300004BF0BF15000FCF7C2FF51464846DC9A9F
:10C34000FEF7F6FE0127F5F7F2FB94F82000DD90EA
:10C3500094F82100DE90002F1FBFDD980028DE98A2
:10C36000002804BF0DF5637DBDE8F08FEB48006841
:10C37000E19010F0020F00F00281009DDDE9DD2761
:10C3800028696E4620F00F00286147F6FF706FEABB
:10C390000009DB90002005F1500804900390029002
:10C3A00082460190002F4DD90AFB02F04FF0010C9C
:10C3B00038F9101000208B465B46DC90012A1BD90F
:10C3C0000AFB02C038F910009842C8BF03468842F1
:10C3D000B8BF0146B0EB0B0E48BFABEB000E0FFA37
:10C3E0008EFBDDF870E3F345C8BFCDF870B383462C
:10C3F0000CF1010C9445E3D34B45C8BF9946DB983B
:10C400008142B8BFDB91581A48BFC81A01B2C4486C
:10C410000068B0F9C0308B4204DBB0F9C210DC9880
:10C4200088420BDD4FEA5A1006EB80000AF01F0C21
:10C430000121C36801FA0CF11943C1600AF1010A34
:10C44000BA45B1D34FF0000A002A4BD938F91A0087
:10C45000002183465B464FF0010CDC91012F1BD974
:10C460000CFB02A138F911109942C8BF0B4681425A
:10C47000B8BF0846B1EB0B0E48BFABEB010E0FFA8D
:10C480008EFBDDF870E3F345C8BFCDF870B38B4683
:10C490000CF1010CBC45E3D34B45C8BF9946DB9971
:10C4A0008842B8BFDB90191A48BFC11A09B29C482C
:10C4B0000068B0F9BC308B4204DBB0F9BE10DC98E8
:10C4C00088420BDD4FEA5A1006EB80000AF01F0C81
:10C4D0000121436801FA0CF1194341600AF1010A94
:10C4E0009245B3D3F068002804BF3069002803D018
:10C4F000286940F0080028617068002804BFB0680F
:10C50000002803D0286940F0040028617168F068B1
:10C51000B9400843A862B1683069B9400143E96293
:10C520007068202F39BFC7F12002D040A7F1200248
:10C5300090400843E862DB98A884A5F82690B6F9F5
:10C54000E410B9EB010048BFA1EB09007449096888
:10C55000B1F9B820904203DD286940F0020028615B
:10C56000B6F9E420DB98101A44BFDB98801AB1F9C1
:10C57000BA10884203DD286940F001002861E19883
:10C58000664D10F0050F04D0DDE9DD016A46FEF7C7
:10C5900011FFD5F800A01AF0080F7CD0009ADDE951
:10C5A000DD9311694FF0000B21F4C0511161684611
:10C5B000CDF860B05946CDF85CB0002B84BFDFF8F1
:10C5C00060E101261AD9DEF8007000EB410CBCF9DD
:10C5D0002AC2B7F9267167450DDA4FEA511C00EB04
:10C5E0008C0C01F01F08DCF85C7006FA08F847EACA
:10C5F0000807CCF85C70491C9942E4D3C0F858B0E5
:10C600000021C0F854B0B9F1000F84BF444E012797
:10C610001AD9D6F8008000EB410CBCF92AC3B8F94E
:10C620002681E0450DDA4FEA511800EB880C01F045
:10C630001F0BDCF8548007FA0BFB48EA0B08CCF818
:10C640005480491C4945E4D3916BD0F85CC041EA61
:10C650000C01D0F854C00CFA03FC41EA0C019163C0
:10C66000D16BD0F860C041EA0C01D0F858C00CFA88
:10C6700003FC41EA0C0CC2F83CC0416D202B39BFD1
:10C68000C3F12003D940203B994041EA0C01D1631A
:10C69000416D002900E011E004BF816D002903D045
:10C6A000116941F400611161C16D002904BF006E80
:10C6B000002803D0106940F4805010611AF0400F38
:10C6C0000FD16069401C60612069002814BFE069D7
:10C6D000A06900F1010014BFE061A0616846FEF7A7
:10C6E000B4FC0020E060A26801462346B2F5056F65
:10C6F00088BF4FF405620020B0EB920F06D253F8CA
:10C700002060401C3144B0EB920FF8D34942E16005
:10C71000287810F0800F05E039050110F0050110B0
:10C72000E805011009D12046FEF749FB4FF42C30F3
:10C730004FF405622146F6F75AF941208DF86C0353
:10C74000207C8DF86D03607C8DF86E03A07C8DF8E5
:10C750006F03E07C8DF8700300230522DBA907201E
:10C7600000F05AF9DF98FCF79FFCE098FCF79FFE79
:10C770000DF5637DBDE8F08F2DE9F74F84B04FF0E4
:10C780000008C2F82080C2F81C80059B844E012757
:10C790004146002B1ED902EB4103B3F96430002B54
:10C7A000B8BF5B421BB2D6F800C0BCF9CCC09C45F8
:10C7B0000CDD4B0902EB830301F01F04D3F81CC00E
:10C7C00007FA04F44CEA040CC3F81CC0059B491C8E
:10C7D0009942E0D30021012B1CBF059BA3F1010965
:10C7E00040D002EB4103B3F96640B3F964C0B4EB47
:10C7F0000C0348BFACEB04031BB23568B5F9C65057
:10C800009D422CDAB2F9E630BCEB030548BFA3EB3E
:10C810000C052DB2B4EB030C48BFA3EB040C0FFACC
:10C820008CF39D420DDB4B0902EB830301F01F04E7
:10C83000D3F81CC007FA04F44CEA040CC3F81CC07B
:10C840000DE04B1C4FEA531C02EB8C0C03F01F0352
:10C85000DCF81C4007FA03F32343CCF81C30491CD6
:10C860004945BED3316891F8CA30002B7DD091F88C
:10C87000CB1014688B4288BF19460023DDF814C022
:10C88000BCF1000F84BF491C00916ED94FF0010E1E
:10C89000DDF800C04FF000090121CA46BCF1010FCC
:10C8A00052D9DFF8FCC003FB0005DCF800C0CDF86E
:10C8B0000CC0BCF9CEC002950EFB0005019503FB30
:10C8C000001504EB4505B5F95080B8F1000FB4BF71
:10C8D000C8F100054546AC4536DB0EFB001504EB00
:10C8E0004505B5F95070002FB4BF7D423D46AC45BB
:10C8F0002ADB029D6D1A04EB4505B5F94E60002E4A
:10C90000B4BF75423546AC451EDB019D6D1A04EB84
:10C910004505B5F94E50002DB4BFC5F1000BAB462F
:10C92000E34511DCA7EB0808039FB7F9C87047453A
:10C93000B8BF09F10109AD1BBD42C8BF0AF1010A28
:10C94000491C009DA942BAD3BAEB090148BFA9EB23
:10C950000A01DFF84CC0DCF800C09CF8CAC0614591
:10C960000FDB590902EB810100E015E003F01F061F
:10C970004FF0010CCD690CFA06FC45EA0C0CC1F82D
:10C980001CC005995B1C8B4206D2002B18BFA3F17B
:10C99000010E7FF47DAF79E707B00120BDE8F08F8D
:10C9A000E805011070474FF0FF3070475D48406860
:10C9B00070475C494860704710B582B007280BD1BA
:10C9C0004FEA111C012404FA0CFC564C64681CEA62
:10C9D000040F04BF02B010BD9B0100F00F0043EA3A
:10C9E000800040F001008DF800008DF801108DF8F6
:10C9F0000220100A8DF80300100C8DF80400100EB0
:10CA00008DF8050000208DF806008DF807006846B7
:10CA100003F0B0FE02B010BD10B582B007280DD1F2
:10CA200091F800C001244FEA1C1C04FA0CFC3D4C98
:10CA300064681CEA040F04BF02B010BD9B0100F043
:10CA40000F0043EA800040F001008DF80000072A43
:10CA500088BF072200206B46002A09D911F800C0C0
:10CA60001C18401C84F801C09042F7D3072805D257
:10CA700000211A18401C51700728FAD3184603F0F9
:10CA800079FE02B010BD10B59B0100F00F0082B01E
:10CA900043EA800040F002008DF80000072A88BFBA
:10CAA000072200206B46002A09D911F800C01C1883
:10CAB000401C84F801C09042F7D3072805D200211A
:10CAC0001A18401C51700728FAD3184603F052FE7A
:10CAD00002B010BD70B5134E40EA0125022834881B
:10CAE000224618BF052803D1002918BF022900D10A
:10CAF0002C46A24209D051B17088002344EA00427A
:10CB000090210720FFF758FF3480758070BDF6F73D
:10CB100062FB44EA0042002390210720FFF74CFF0C
:10CB2000F2E70000F8050110FE4908707047FD4863
:10CB300000787047FB4948707047FA484078704762
:10CB40002DE9F04FF848F74CADF6640D00686178B8
:10CB5000836D0229C3F303201AD0626812F4007FA8
:10CB60001EBFC3F303310F29084612F0800F1EBF0A
:10CB7000C3F303110F29084602F00701F8F7F7F98C
:10CB8000012814BF00200220607040F0B1820DE047
:10CB900000210846F4F7FBFEF4F753F830B1E34800
:10CBA000D0F8B01241F48031C0F8B012F4F7FEFFB3
:10CBB000CDF85008207910F0100F18BFF5F793FB4F
:10CBC000207910F0080F03D1FF210F20F8F7E7FEBE
:10CBD000D7480078CDF84808D6480078CDF84C08FA
:10CBE000D5480778D5480078CDF82C08DDF84C08F2
:10CBF00000281CBFDDF84808002813D003F09BFE76
:10CC000003F09EFE0020F7F7FFFA0020F7F76DFB18
:10CC1000C448007910F0100F0CD00120F7F773FB17
:10CC200001200BE0DDF82C08002818BF002FE5D10B
:10CC300000F05EBA0020F7F766FB0020F7F763FB11
:10CC4000F3F7FFFF10F0010F04BF0120F4F773FAB0
:10CC5000F4F7C0FF1E20FCF727FA00210846FCF776
:10CC6000AFF9834601210020FCF7AAF9DDF84C2832
:10CC7000DDF848188246002001FB02F9B9F1000FE7
:10CC800084BF47F6FF72D14306D92BF810102AF85B
:10CC90001020401C8145F8D81E20FCF708FC00211C
:10CCA0000120FCF78DF9054601210846FCF788F9BB
:10CCB0000446DDF82C1800207E181CBF47F6FF72D2
:10CCC000D14306D025F8101024F81020401C8642CD
:10CCD000F8D894484FF000084088002840F2478177
:10CCE000DDF82C18701C491ECDF85C18DDF82C18E6
:10CCF00040083944491ECDF85418CDF85808FBF7C0
:10CD000004FF012800F033810DF50360F5F759F9B0
:10CD1000002800F02581DDF83408F6F761FEDDF823
:10CD2000380800284FD003F051FE07467D480079AF
:10CD300010F0100F0AD03846DDF8381803F04BFE1B
:10CD40000190B84208BFDDF8387810E000200023D9
:10CD50000090019002901A461946DDF8380803F059
:10CD60003FFE01906F48007910F0200F0BD1F6F7CD
:10CD700087FEDDF84C28009201463846DDF8483839
:10CD8000019A03F032FE6748808810F4804F1EBF7E
:10CD900001980028F6F7AFFE002F1CBF0020B9F164
:10CDA000000F10D937F910103BF910208A42B8BF94
:10CDB0002BF810103AF910208A42C8BF2AF8101038
:10CDC000401C8145EED8DDF8500810F0010F1CBF63
:10CDD000DDF8400800287DD003F0FEFC07465148EE
:10CDE000007910F0400F07D000231A461946DDF8ED
:10CDF000400803F0FFFD0DE0F6F70BFE0222009263
:10CE000001463846DDF85838DDF8402803F0EDFDDE
:10CE1000DDF840084349898811F4005F1CBF0028F1
:10CE2000F6F701FE002F55D03E48426812F4806F9D
:10CE300033D0DDF82C180020012911D007EB400178
:10CE400037F910C0B1F90230B3EB0C0148BFACEBBD
:10CE5000030127F81010DDF85C18401C8842EDD360
:10CE60004FF0000C27F810C0DDF85418401C884221
:10CE700011D207EB400137F91030B1F902E0BEEBF7
:10CE8000030148BFA3EB0E0127F81010DDF854187A
:10CE9000401C8142EDD827F810C00020002E10D988
:10CEA00037F9101035F910308B42B8BF25F8101043
:10CEB00034F910308B42C8BF24F81010401C864251
:10CEC000EED812F4806F46D01D4A08F10100A2FB93
:10CED000003100E03FE08908494201EB8101C14295
:10CEE00039D1A2FB08108008A2FB002109094942A0
:10CEF00001EB810100EB810000EB800101EBC0013F
:10CF000003A800EBC1020020002E84BF47F6FF7C7F
:10CF10006FEA0C031FD935F8101034F81070C91BD4
:10CF200010E0000000060110E8050110005000406C
:10CF3000C6040110C7040110CB040110CC04011079
:10CF4000CDCCCCCC22F8101025F8103024F810C02D
:10CF5000401C8642DFD8F5F77CF808F1010801E0B3
:10CF6000F7F748FF8F4840888045FFF4C8AEF4F7D4
:10CF700061FC03F0E5FC03F0E8FC8A4F788880450B
:10CF800076D3DDF8500810F0020F28D000224FF6BB
:10CF9000FF731046B9F1000F0ED93BF910103AF9A2
:10CFA00010C0A1EB0C019142C8BF0A469942B8BF1C
:10CFB0000B46401C8145F0D842208DF80000100A35
:10CFC0008DF801008DF80220180A8DF803008DF805
:10CFD00004300023052269460720FFF71DFDDDF818
:10CFE000500810F0010F7DD0B88810F4806F51D038
:10CFF0006D48A0FB08108308142B88BF14234FF042
:10D00000000847464146002E84BF0DF10C0BA3F1EA
:10D01000020E53D94FF0000CDFF8909147F6FF7ADB
:10D020006246002B11D902EB820000EBC2000BEB31
:10D03000C00030F9110084444845C8BF81465045BE
:10D04000B8BF8246521C9A42EDD3002B04BF002089
:10D0500025F811000DD09CFBF3F025F81100022BF0
:10D0600007D9ACEB0900A0EB0A0090FBFEF001E051
:10D0700038E0002024F8110035F91100B842C8BF8B
:10D08000074634F911004045C8BF8046491C8E420E
:10D09000C0D813E000274FF6FF783846002E0DD990
:10D0A00035F9101034F91020891AB942C8BF0F465B
:10D0B0004145B8BF8846401C8642F1D843208DF8D0
:10D0C0000000380A8DF801008DF802704FEA182030
:10D0D0008DF803008DF8048000230522694607209F
:10D0E000FFF79AFCFF20FBF7DFFFFF20FCF7DFF9DB
:10D0F000F4F71DFD0DF6640DBDE8F08F10B5ADF52C
:10D10000056D4FF0FF30FDF731FC264C00206070BC
:10D11000F4F701FEFF224FF40561684603F052FB6D
:10D120006846FDF746FF6846FDF7CDFEFBF7EDFCD0
:10D13000012803D1F7F706FE03281BD1207810F051
:10D14000010F07D0FEF767FF207820F00100207064
:10D15000FBF798FC207810F0020F07D0FFF7F0FCE7
:10D16000207820F002002070FBF78CFCF7F7EAFD36
:10D17000032808D00020FDF7A6FE0120F4F7CBFD20
:10D180000DF5056D10BDF7F735FECFE70549486091
:10D190000020487070470348406870470149488044
:10D1A0007047000000060110CDCCCCCC0080FFFF02
:10D1B000FD4908707047FC4800787047FA49C8710B
:10D1C0007047F948C0797047F7488069B0F5B47F77
:10D1D0002CBF012000207047F34840787047F24987
:10D1E000002280B1012818BF7047487802280CD06F
:10D1F000042818BF886906D0B0F5B47F84BF4FF407
:10D20000B470886170478A6170478869401C886182
:10D21000F2E7E64800787047E348C07910F0010F64
:10D2200018BF704710B50020E0490870F7F764FE9A
:10D23000BDE810400020F7F752B8DC488088C0F302
:10D2400000207047D94910B589880020C1F300211A
:10D2500051B103F025FB64280FBF4FF0C0400121FE
:10D2600001FA00F040F08040BDE8104003F0C7BB79
:10D27000CE4A10B581B25160CB4AC0F30743C0F328
:10D2800003601361507090700020C1F30021506161
:10D2900051B103F005FB64280FBF4FF0C0400121DE
:10D2A00001FA00F040F08040BDE8104003F0A7BB59
:10D2B000BD4840797047BD4A0028516814BF41F00D
:10D2C000020021F0020050607047B8480079C0F3B6
:10D2D00040007047B54A10F0010F506814BF40F08D
:10D2E000020020F0020050607047B0490020097928
:10D2F000C1F34001002918BF012070470028AB4A44
:10D30000516814BF41F0010021F0010050607047E6
:10D31000A648007900F001007047A3494A788A7056
:10D3200048707047A04880787047A1480068406DF9
:10D33000C0F303607047012181409B48026911409E
:10D3400001617047012181409748026922EA010189
:10D35000016170479448006970479348406970477D
:10D36000914910B54C69486102460023812107208C
:10D37000FFF722FB204610BD8C488088C0F3802038
:10D38000704789488079704788480079C0F38000E9
:10D39000704786480079C0F3C00070478348808892
:10D3A000C0F34020704781480079C0F3C010704737
:10D3B000FCF770BE7D488088C0F3403070477B48E2
:10D3C0008088C0F3C020704778488088C0F3003060
:10D3D0007047764A10F0805F516814BF41F4806155
:10D3E00021F4806110F0005F14BF41F4005021F47B
:10D3F00000505060FDF748B86C484168002011F4B7
:10D40000806F18BF4FF0805011F4005F18BF40F0DC
:10D410000050704770B56549044610F0040F4D6820
:10D42000284614BF40F4807020F4807014F0080F78
:10D4300014BF40F4007020F4007014F0100F14BFFB
:10D4400040F4006020F4006014F0400F14BF40F47A
:10D45000805020F4805014F0200F14BF40F0800062
:10D4600020F0800048600021C0F3002050B103F09C
:10D4700017FA64280FBF4FF0C041012101FA00F0F4
:10D4800040F08041084603F0BAFAC4F38000C5F3C7
:10D490000021884208BF70BD03F066FA04460120EF
:10D4A000F6F74DFE14F0020F07D0022001F0CAFA81
:10D4B000BDE87040002003F0C1B914F4807018BFBB
:10D4C000012001F0BFFA3B4890F86C00BDE87040C5
:10D4D000C00803F0B3B935484168002011F0040FCB
:10D4E00018BF012011F0080F18BF40F0020011F41E
:10D4F000807F18BF40F0040011F4007F18BF40F097
:10D50000080011F4006F18BF40F0100011F4805FA4
:10D5100018BF40F0400011F0800F18BF40F020000D
:10D5200070472149C87270471F48C07A70471E482B
:10D53000406A70471C49CA691043C861704770B59A
:10D54000194EF06940F000740020F06117484568FA
:10D5500015F0040F18BF44F0010415F0080F18BFB0
:10D5600044F0020415F4807F18BF44F0040415F45D
:10D57000007F18BF44F00804FCF78CFD002818BF9A
:10D5800044F0805415F4006F18BF44F0100415F0F7
:10D59000800F18BF44F0200415F4805F18BF44F0DA
:10D5A000400415F4005F07E008060110BCAC011050
:10D5B000E805011028AA011018BF44F00054716951
:10D5C00044EA0140002918BF40F0806070BDFE4968
:10D5D00008627047FC4890F8200000F00100704796
:10D5E000F94890F82000C0F340007047F64890F8E2
:10D5F0002000C0F380007047002818BF0120F249C6
:10D600004872704770B5002486B02646F7F79AFB3B
:10D61000EE49052808680CBF90F8F80090F858000B
:10D6200000F00F052846FDF77EF9002818BF406A74
:10D6300010F0010F14BF0220042040F400312846EE
:10D64000F7F795FC002804BF06B070BD0120F3F782
:10D6500072FDF4F7F8FAFBF758FA012838D068465B
:10D66000F4F7AFFC00282FD00198F6F7B9F902982B
:10D67000B8B10146D64803F0C7F9D54A904209D05F
:10D68000D44AD54B014612781B7852005A43D048F1
:10D6900003F084F8D1480078492804BFCC48FBF750
:10D6A0000EFE049848B1CE48CE4900780978084467
:10D6B0004200CD48049903F071F8C3490120487233
:10D6C000F4F7C7FC012603E0F7F794FB002CC2D067
:10D6D000F4F7B0F8F7F793FD06B0304670BDBA48DE
:10D6E000407A002818BF012070472DE9F04387B029
:10D6F00005460F24F7F726FB0646F7F729FBDFF868
:10D70000C8828146052E07D1FCF7E4FA002804BF41
:10D71000002088F8090002D098F8090058B9F7F7F6
:10D7200019FC07464FF48050F7F711FCFFF76AFF2A
:10D730003846F7F70CFC052E0CBFAC4FAC4F21461A
:10D740002846F7F714FC002804BF07B0BDE8F083B3
:10D7500003F0F1F803F0F4F8F6F79BFC040006D0B0
:10D7600003F0F3F8F7F74BFD07B0BDE8F0830125B0
:10D770000020F3F7E0FC2846F4F745FAC8F83050EB
:10D78000F5F72CFDA5F10108FBF7BFF9012809D039
:10D79000F7F7D8FAB04205D1F7F7DAFA484508BFEB
:10D7A000002C0DD0F4F746F892488088C0F3402052
:10D7B00000281CBF012001F0F5F8F5F734FDCFE794
:10D7C0006846F4F7FEFBC0B16846FBF7A5FF019879
:10D7D000F6F706F96846B8470446F4F73AFC002C19
:10D7E000D2D115B901984045CED1F4F721F80028DF
:10D7F00004BF2846F4F707FAC6E7F7F7F0FAC3E7DD
:10D800002DE9F14F88B04FF000097248CDF80C9027
:10D81000CDF80890CDF81890CDF81490CDF8109070
:10D8200004786D48DFF8B4B1C84606789BF800006C
:10D830004F4604FB06FA462804BF0898FBF73FFD55
:10D840000898089900EB4A0003F0DEF801909BF875
:10D8500000004B2804BF0198FBF731FD08982346D0
:10D8600000EB8A0500965A492846019A03F0BDF854
:10D870009BF80000492804BF5548FBF720FD574896
:10D8800000784C2804BF2846FBF719FD05EB4A0336
:10D890009B464FF0000C002E22D90020611E13D0B1
:10D8A00005EB410E35F811203EF802ECA2EB0E021A
:10D8B00012B2002AB8BF524212B223F8112082429B
:10D8C000C8BF1046491EEBD1188005EB440503EB99
:10D8D00044034045C8BF80460CF1010CB445DCD37D
:10D8E0003948B0F90C0000908045A4BF4FF0010901
:10D8F000CDF80C900BEB4A034FF0000C002E25D90D
:10D900000021601E022812D90BEB40023BF8105098
:10D9100032F802EC32F8042C75442A4412B223F88F
:10D9200010208A42C8BF1146401E0228ECD80020B1
:10D930001980588098800BEB440B03EB4403B942E9
:10D94000C8BF0F460CF1010CB445D9D31E4BB3F937
:10D950000E209742A4BF4FF00109CDF80890B9F10D
:10D96000000F14BF586B986B00F1010014BF58638F
:10D9700098631A480078FF285BD008990AEB8A0060
:10D9800021F81090DDF820C003990CEB4000418095
:10D99000029981800599C18006990181596B4FEAEE
:10D9A000E17C01EB1C5C6FF30B0CA1EB0C014181E2
:10D9B000996BCB1701EB13536FF30B03C91A8181DA
:10D9C000A0F80E80078217E008060110E805011094
:10D9D00080700110C6040110C70401103905011040
:10D9E000CC040110CB04011080760110ED8E0010E4
:10D9F000E9920010BCAC0110049941820099818227
:10DA0000C282022506EB86000899B9F1000F00F1E9
:10DA10000103224600950CBF4E204D20FBF78FFBE3
:10DA200006EB8600431C2246009547200899FBF729
:10DA300086FB09B04846BDE8F08FF84870472DE9ED
:10DA4000F84F8346F748F9490025B0F90C80F648AD
:10DA50000978F34C00782E46AA464718F4F7A6F842
:10DA60000090F348A4F168090078492804BF4846AB
:10DA7000FBF737FD0020002F09D93BF8101039F8CB
:10DA80001020891A24F81010401C8742F5D8DFF8BE
:10DA9000A09399F800004C2804BF2046FBF721FD15
:10DAA000009810F4007FA7F1010012D000281CBFDD
:10DAB000DC49B1F90E3026D034F910100029B4BF7A
:10DAC0004A420A469A42BCBF0D44761C401EF3D11E
:10DAD00019E000281CBFD349B1F90E3013D004EB74
:10DAE000400234F8101032F8022C891A09B224F8D6
:10DAF00010100029B4BF4A420A469A42BCBF0D44E6
:10DB0000761C401EEBD1002EC8BF95FBF6F52EB259
:10DB1000268099F800004F2804BF2046FBF7E1FC5F
:10DB20000025781E0ED034F81010891B09B224F895
:10DB300010100029B8BF494209B28D42B8BF0D4646
:10DB4000401EF0D1258002F00FFF10F4817F18BF36
:10DB50004FF00508454506DD99F800004FF0010A31
:10DB60004D2807D103E099F800004E2802D1204645
:10DB7000FBF7B7FC99F80000472804BF2046FBF7E5
:10DB8000B0FC5046BDE8F88F2DE9F04F87B0FCF7A8
:10DB90003DFAA84C2068B0F93610B0F9340002F014
:10DBA0003EFE0120F6F7CBFADFF878A29AF81000D3
:10DBB00010F0100F06D0042000F0CEF80F2818BF88
:10DBC000F6F7A3FAFF208AF808000021481EFCF7A8
:10DBD000DCFC02F01EFFF7F7B5F8022808BF4FF093
:10DBE000000B7BD19AF801609248CAF828B0CAF8B5
:10DBF0002CB00068B100806D20FA01F101F00F0433
:10DC0000C0F30325C0F30319C0F30338C0F303576F
:10DC1000AC4220D10F2F05D002F0A6FE10F4817F78
:10DC200018BF3C46AC420CD1B8F10F0F09D0824866
:10DC30008088C0F3403020B102F037FE082818BFBA
:10DC40004446AC4207D1B9F10F0F04D0F7F767F99A
:10DC5000002818BF4C4631460220FEF73BFF052E38
:10DC60005FD2DFE806F0570303035B000F219AF849
:10DC700001502046F7F77BF9002852D002F05BFEF6
:10DC800002F05EFEF6F705FA040020D19AF80000D3
:10DC900000281CBF0001F3F7ABF9F3F79BFF8AF8EC
:10DCA00003B0F6F77FFAF6F7DEFE644F4FF0E0269A
:10DCB000DFF88C81FAF729FF012808D0F7F742F83E
:10DCC000022802BF9AF80100A842002C07D002F0F7
:10DCD00037FE02F03AFEF7F792FA22E02EE06846AD
:10DCE000F4F76FF998B16846FBF716FD0198F5F760
:10DCF00077FE684602F092FE0446387820B1B0699B
:10DD0000C8F80000C6F810B0F4F7A3F9D2E7F7F7A7
:10DD100071F8CFE7204602F022FE02E02046FFF72E
:10DD2000E4FCFAF7F2FE012803D1F7F70BF802281A
:10DD300004D1F7F707F802283FF454AF02F0ECFDE6
:10DD4000F6F7FCF907B0BDE8F04FFCF75FB94A0001
:10DD50000146324802F022BD2DE9F04135498000EC
:10DD60000968896D21FA00F000F00F04C1F3032562
:10DD7000C1F30317C1F30336C1F30358AC421FD1FB
:10DD8000B8F10F0F05D002F0EFFD10F4817F18BF3E
:10DD90004446AC420BD10F2E09D027488088C0F3EF
:10DDA000403020B102F081FD082818BF3446AC4253
:10DDB00006D10F2F04D0F7F7B2F8002818BF3C4661
:10DDC0002046BDE8F08110B581680446B1B11D4818
:10DDD00002F01AFE1B4A904209D01B4A1B4B014617
:10DDE00012781B7852005A43164802F0D7FC1848A4
:10DDF0000078492804BF1348FBF761FA216941B153
:10DE000009480A4A0078127810444200034802F098
:10DE1000C5FC04490120487210BD00008076011045
:10DE2000E876011008060110CC040110CB040110A3
:10DE30003E050110E8050110BCAC011024040110DE
:10DE40008804011080700110C6040110C70401107D
:10DE500039050110FE490A78104308707047FC48E4
:10DE600000787047FA4900200870704710B50446E2
:10DE700002F0D9FDF64AF7492CB9137891F800C0A1
:10DE800013EA0C0F06D1401E844205D11078497860
:10DE9000084201D0012010BD002010BD2DE9F0077F
:10DEA000ED48EB4B4FF0010C00684FF004084FF0C9
:10DEB000400490F86C10E74811F0040F4FF0100583
:10DEC0004FF002024FF008094FF080064FF0200794
:10DED00007D011F0010F0CBF00210121996013D070
:10DEE00001E0996881B180F800C080F8028080F874
:10DEF00004C084710572427080F803904271C6714B
:10DF00004772BDE8F0077047027080F80290027116
:10DF10008671077280F801C080F8038080F805C020
:10DF2000C4714572BDE8F00770472DE9F04702F073
:10DF30002FFD0446C74E90F8EC04DFF81483002749
:10DF4000A6F12005C0B9B078F178727A0843317A29
:10DF5000114340EA010902F016FD02F00FFD010035
:10DF6000384607D02A5C22EA09022A54401CC0B273
:10DF70008142F7D8A8F8017094F8EE04A0B930797E
:10DF8000717940EA010902F0FEFC02F0F7FC002181
:10DF9000002807D96A5C22EA09026A54491CC9B2FE
:10DFA0008842F7D8A8F8037094F8F004002818BF46
:10DFB000BDE8F087B079F17940EA010402F0E3FCB2
:10DFC00002F0DCFC0021002898BFBDE8F0876A5C05
:10DFD000A2436A54491CC9B28842F8D8BDE8F08708
:10DFE0002DE9F04F91B01C4691468846054602F057
:10DFF000CFFC23464A464146284600F05FF9464694
:10E000004D4602F0C0FC029002F0C2FC9349019020
:10E01000881C0A780378497840781A440844C1B2C9
:10E020000198D2B290F8EC04012845D1002A18BF1B
:10E03000002941D002990120274681F8EC040020F4
:10E04000009002F0A0FC02F0EEFC824602F096FC8A
:10E0500083494FF0280CBD42498CADF800102BD8F5
:10E06000AAF1010EAAF1020B9DF800309DF801A063
:10E0700036F9152041196245BCBF36F911106145CA
:10E0800003DA77494A5D9A434A550EFB005189B23B
:10E090000BFB005236F9111092B26145BCBF36F944
:10E0A0001210614504DA6E494A5D22EA0A024A55B5
:10E0B000691CCDB2BD42DBD9019890F8EE0401286D
:10E0C00030D1684F387879780144CEB288B9614848
:10E0D000057902F058FC02F051FC0021002888BFAD
:10E0E0005F4A06D9535CAB435354491CC9B28842BA
:10E0F000F8D8787888B95748457902F044FC02F09E
:10E100003DFC0021002888BF554A06D9535CAB432B
:10E110005354491CC9B28842F8D81EB10299012053
:10E1200081F8EE040020009001900290039004908A
:10E13000059006900790089009900A900B900C901B
:10E140000D900E900F9002F01EFC90F8EC14012937
:10E150001FBF90F8EE14012990F8F00401281CBFAD
:10E1600011B0BDE8F08F6E4608AD02F007FC07461F
:10E1700002F059FC864628214FF0020A4846A14584
:10E180009CBFA7F1010C012213D80AFB070338F941
:10E1900013308B4209DB325400281CBF331803F8BC
:10E1A000012C6045BCBF33185A70401CC0B2A0425D
:10E1B000EBD9AEF10300C3B24846A1459CBFA7F11D
:10E1C000010C012214D803FB0706B6B238F9166019
:10E1D0008E4209DB2A5400281CBF2E1806F8012C99
:10E1E0006045BCBF2E187270401CC0B2A042EAD974
:10E1F0006E4608AD02F0CCFB02F015FC824602F040
:10E20000BDFBA14584BF11B0BDE8F08F144F0022C3
:10E2100007F1200CAAF1010A9CF802309CF804B026
:10E2200009EB000143EA0B0317F809B013EA0B0FDF
:10E2300007D028F8192016F80930002B08BF28F855
:10E2400011200AFB009189B20B1A9BB20CE000006E
:10E25000B8060110B8800110D0060110B9060110EF
:10E2600098800110BB0601109CF803B09CF805E0F3
:10E270004BEA0E0B17F809E01BEA0E0F07D028F83F
:10E28000112015F80910002908BF28F8132009F1FA
:10E29000010101F0FF09A145BED911B0BDE8F08F21
:10E2A00070B5054602F06FFB0446284600F088F979
:10E2B00094F8EE14084384F8EE0470BD2DE9FF4F86
:10E2C0008BB01E46884602F05EFB02F061FB90F8C0
:10E2D000EE14FE48012900687FD090F8CC00322768
:10E2E000400802900620039002F09DFB099002F086
:10E2F00045FB01900020834605460446844681463E
:10E3000004900D98B04267D8F149F24B8A78089290
:10E310000A781B781A4007920B79897941EA03023F
:10E320000692019A521E05920B9A125C42B338F97A
:10E3300010A0029A924523DBE74A125C1A4214D1DC
:10E3400038B1DFF894A382441AF801AC1AEA030F3B
:10E350000BD1DDF814A0504509DADFF87CA3824424
:10E360009AF801A01AEA030F01D06D1CEDB2DDF896
:10E3700020A012EA0A0F03D0049A521CD2B20492CF
:10E3800038F91020BA4207DBB9F1000F08BF844604
:10E3900009F1010909F0FF09BA4201DBB0424FD18E
:10E3A000039A914533D3079AF2B1BCF1060F45D9D0
:10E3B00062460CEB090E964588BFDFF81C933DD9E9
:10E3C00019F802A04AEA010A09F802A0521CD2B2C6
:10E3D0009645F5D832E000E037E0B0F90E00029043
:10E3E0000420142703907FE762460CEB090E964544
:10E3F00088BFDFF8E49221D919F802A04AEA010A9D
:10E4000009F802A0521CD2B29645F5D816E0E144B4
:10E410006246CDF80090CC4538BFDFF8BCE20DD2A3
:10E420001EF802A0DDF818902AEA09090EF80290F9
:10E43000521CDDF80090D2B24A45F1D34FF00009EA
:10E44000401CC0B2B0427FF66FAF00220D989146DB
:10E45000B04278D80999491E00910199491E099145
:10E460009B49CB7808939B4B93F800C04B780CEA00
:10E470000303079391F805C0CB7943EA0C01069199
:10E48000DDE9001A01FB0A01DDF82CA089B21AF8B7
:10E4900001A0BAF1000F2CD038F911E0DDF808A086
:10E4A000D64526DBDFF830A21AF800A01AEA0C0FD6
:10E4B00014D138B1DFF820E286441EF801EC1EEAE0
:10E4C0000C0F0BD1DDF824E0704509DADFF808E223
:10E4D00086449EF801E01EEA0C0F01D0641CE4B2F1
:10E4E000DDF820E01AEA0E0F1CBF0BF1010A0AF05A
:10E4F000FF0B38F91110B94207DBB9F1000F08BF63
:10E50000024609F1010909F0FF09B94201DBB042F5
:10E5100046D1039989452AD30799A9B1062A3DD93D
:10E52000114602EB090E8E4588BFDFF8AC9135D954
:10E5300019F801A04AEA030A09F801A0491CC9B266
:10E540008E45F5D82AE030E0114602EB090E8E45E3
:10E5500088BFDFF8849121D919F801A04AEA030A9B
:10E5600009F801A0491CC9B28E45F5D816E09144BE
:10E570001146CDF814904A4538BFDFF85CE10DD262
:10E580001EF801A0DDF818902AEA09090EF801909A
:10E59000491CDDF81490C9B24945F1D34FF0000988
:10E5A000401CC0B2B0427FF66BAF4C48049901707A
:10E5B00080F801B0801C057044700FB0BDE8F08F8A
:10E5C0002DE9F14F86B00020009002F0DCF90446FE
:10E5D00002F02EFA049094F841A002F024FA0022EE
:10E5E0003C491646BAF1000F0A7040F21881C21E6B
:10E5F0000392821E401FDFF8D880CDE90102A8F106
:10E600002009049806EB460B00EB8B14D4F8940019
:10E61000042818BF062800F0FD80D4F8B4000228B2
:10E6200018BF032840F0F680002160780A460228CF
:10E6300007D8237898F806C019F8033013EA0C0FAE
:10E640000AD1039B984222DB237898F807C019F877
:10E65000033013EA0C0F1AD0237898F804C0012273
:10E6600019F8033013EA0C0F04D0012802D898F8E7
:10E67000000009E098F805C013EA0C0F07D0029BD0
:10E68000834204DC98F8010084F89B0031E094F8A0
:10E690009B30002B08BF002A7ED0A27B94F80CC0D0
:10E6A000657BA2EB0C0294F80FC0D2B2ACEB050C68
:10E6B000B4F846500CF0FF0C232D04D2A2EB0C0250
:10E6C000921D0C2A00D901218BB909E0D006011056
:10E6D000B8800110B806011098800110B906011029
:10E6E00029B10428C3D901998842CBDA01E0002975
:10E6F00052D0069D02F097F9074602F03FF9024614
:10E70000E0884CF6CD414843A1884CF6CD435943AF
:10E71000D4F8B430C0F3C740C1F3C741022B4ED187
:10E72000431E012B20D8237898F804C019F8033031
:10E7300013EA0C0F18D000FB021189B2401E8C4660
:10E7400001283CDB891A89B235F911303BB135F922
:10E750001C7003EB8303FF00B7EB430F5ADC401E32
:10E7600000B20128EEDA2AE0FB1E9842A4BF7B1E0D
:10E77000834224DD237898F805C019F8033013EAA2
:10E780000C0F1CD000FB02111FFA81FCA7F1020E36
:10E79000401C6146704500E03CE010DC114489B249
:10E7A00035F911303BB135F91C7003EB8303FF00E1
:10E7B000B7EB430F2EDC401C00B27045EEDD0920A4
:10E7C000C4F8940094F89B5002F0D8F802F0DBF8FB
:10E7D00002F02EF90021012D08BF412102D0022DA7
:10E7E00008BF822100EB8B12107B937B834209D3FD
:10E7F00019F800300B4309F80030401C937BC0B27D
:10E800008342F5D2084994F89B000A7810430870B7
:10E8100001200090701CC6B25645FFF4F2AE00987D
:10E8200007B0BDE8F08F0000B80601102DE9F04FE9
:10E83000E5B00C4605464FF4C871684601F0A4FFE8
:10E8400002F0A1F800273946002D87BFEA464FF0B5
:10E85000010B65B0BDE8F08F01EB810204EBC20251
:10E86000137F13F0010F3AD092F824C092F82530AC
:10E870000CEB8C0C0AEB8C0C1CF80380B8F1000F2D
:10E8800021D008EB880804EBC808D2F808E058F853
:10E89000209CF14505DB1CD138F8148C928A9045F8
:10E8A0001DD280F8EBB41CF8032002EB820204EBCB
:10E8B000C20252F80C8C28F0010842F80C8C4A1C59
:10E8C0000CF803200BE04A1C0CF803207A1CD7B28A
:10E8D00005E080F8EBB4D36923F00103D361491C50
:10E8E00089B28D42B8D8022F8EBF002165B0BDE835
:10E8F000F08F4FF0FF32002303EB830C0AEB8C0CFC
:10E900001CF801C0BCF1000F0CD00CEB8C0504EB23
:10E91000C50535F9265C954204DDACF1010C2A46AB
:10E920000CF0FF065B1C9BB2142BE5D306EB860CA8
:10E93000002304EBCC0903EB830C0AEB8C0818F8DA
:10E94000015025B305EB850504EBC50799F801C017
:10E9500017F8275CBCEB050E48BFA5EB0C0EBEF10B
:10E96000020FCCBF4FEA620C944637F9265C65452E
:10E970000DDA80F8EBB418F801C00CEB8C0C04EB4A
:10E98000CC0C5CF80C5C25F001054CF80C5C5B1CB5
:10E990009BB2142BCFD3491C89B21429A9D365B0DB
:10E9A000BDE8F08F002818BF0120FE49486070477D
:10E9B000FC484068704730B44FEA216C4FF47A74D9
:10E9C0000CFB04FCC0F80CC041F3072C0CFB04FC4E
:10E9D000C0F804C04FFA81FC0CFB04FC40F808CBE3
:10E9E00041F30741614340F8081B92E83210A0E868
:10E9F00032101169C0E9001330BC704770B5EC4C9F
:10EA0000E94BEA4A2068816CEA48FFF7D4FF2068A6
:10EA1000E84DE94B416DE94A05F12800FFF7CBFFCE
:10EA2000206890F8401011F0100F08BF70BDE44B43
:10EA3000D0F8841005F15000BDE87040E14ABAE713
:10EA4000DC487047DA49DFF86CC3096860B1012817
:10EA50000FD0022813D0032818BF7047D24BD34AD7
:10EA6000D1F890106046A6E7CF4BD04A896C60463B
:10EA7000A1E7D54BD54AD1F8881060469BE7D24B29
:10EA8000D24AD1F88C10604695E7C949DFF840C3F7
:10EA9000096840B1012818BF7047C74BC74AD1F871
:10EAA0009410604687E7C44BC44A496D604682E7CC
:10EAB000BF4810B50068BC4BBC4A446D816C6FF018
:10EAC0007F0060F3174160F31744BA48FFF773FF04
:10EAD0002146BDE81040B84BB84ABD486BE7B54A7F
:10EAE000C06A92689042A5BFC86A90420120002087
:10EAF00070472DE9F04FDFF8B88204468DB0D8F8A2
:10EB000000304FF0010793F8400010F0080F1CBFD1
:10EB1000D4E90250D4F810C037D050F8141CC038D3
:10EB200011F0010F2FD011F4805F06D011F4005FB7
:10EB300018BF21F4805126D023E0026D022A22D191
:10EB400090F8552002EB42020CEB8212B2F8AC6056
:10EB500016F4805F17D092F8B86007FA06F616F040
:10EB6000060F10D0D2F89020032A18BF042A06D02E
:10EB700011F4007F03D190F84A20022A03D941F40E
:10EB80008051C0F8AC10A842C7D88649D4E9030622
:10EB9000D4F800C0D4F808900D6810F8141CC038E0
:10EBA00011F0010F29D090F85520D0F850A0012184
:10EBB00002EB420206EB8212BAF1020F08D09CF877
:10EBC0004120012A04BF9CF8EA24002A10D010E05A
:10EBD00092F8B8A007FA0AFA1AF0060F18BF022135
:10EBE00007D192F8382007FA02F212F00C0F00D089
:10EBF0000321002D18BF002181634845CDD893F82B
:10EC0000440010F0010F04D0724A2C21204601F07C
:10EC100014FFD4E902C0674A50F8143CC03813F01E
:10EC2000010F26D0C16A13F4805F18BFC0F8B0701E
:10EC30001BD1D5688D42B8BF01210EDB55688D42CE
:10EC4000B8BF032109DB15688D42B8BF042104DB7E
:10EC500095688D42B4BF05210221C0F8B01001298A
:10EC600004BF43F40051C0F8AC1090F8B01080F825
:10EC70004F106045D0D8D8F8000090F8400010F050
:10EC8000100F7BD0DFF82C91D4E902A509F15006D2
:10EC900015F8140CC03D10F0010F13D0726A29460C
:10ECA00068469047316A049BEC4606F11002042046
:10ECB0001944401E5CF8203052F820B003FB0B11C1
:10ECC000F7D169635545E3D8D8F8000090F8800083
:10ECD00010F0010F04D0404A3421204601F0ADFE6F
:10ECE00001F0B0FE002849D02E484068012845D1E7
:10ECF0002068A368D4F810C090F84100D9F80C50EF
:10ED000000EB400003EB801151F8140CC03910F0F7
:10ED1000010F11D00A6D022A18BF40F480407AD04A
:10ED200010F4804FC1F8AC001CBFCA6AAA42C4BF2D
:10ED300020F48040C1F8AC009942E5D81B4909F1A4
:10ED4000500201F16005D4E9023095E860128DE8C7
:10ED50006012D1F870C04D6F896FCDE904C506917E
:10ED6000EC4650F8141CC03811F0010F18BF11F414
:10ED7000804F3DD0416BD568A94200E03AE0C8BF62
:10ED800001210EDC5568A942C8BF032109DC1568C2
:10ED9000A942C8BF042104DC95688D42B4BF052197
:10EDA00002211BE0F80601105DC30010504601006F
:10EDB000D0060110D49401109DC3001064460100D8
:10EDC000BFC300108C46010081C3001078460100CB
:10EDD000FC9401108F0A0100C93E0100D0F8B06018
:10EDE0005CF821505CF82660B54238BFC0F8B0101E
:10EDF0009842B6D8FE48D8F80020D4E9001CD0E9E3
:10EE0000145692F84020D0E9169012F0010F08AB8A
:10EE10004FF0FF3200E03CE01FBF91F847A0BAF18D
:10EE2000010F91F814A0BAF1010F08BF04203CD0E3
:10EE3000CDE90A90CDE908569CF84300042822BF8A
:10EE400091F8410004280A921E46D4E90250D4F8F1
:10EE500010C0D8F800404FF0020810F8141CC03859
:10EE600011F0010F36D090F8551094F8449001EB52
:10EE700041010CEB8112D0F8B030816B19F0020F18
:10EE80001ED0D0F85090B9F1020F08BF012913D05D
:10EE900016E091F8552002EB42020CEB8212B2F818
:10EEA000AC20920B62F38E303AE703EB8001401EF8
:10EEB00041F8042CF9D1C7E7926B002A08BF002162
:10EEC00056F8211007FA03F2114214BFC0F8B070CF
:10EED000C0F8B080A842C0D80DB0BDE8F08F10B522
:10EEE000044601F050FD206001F0A2FDA060216801
:10EEF00091F8411001EB410100EB8110E06001F05D
:10EF000047FD606001F0A3FD206110BDF0B5A7B022
:10EF1000044600297ED001F036FD219001F088FDE5
:10EF20002199239091F8411001EB410100EB8110F0
:10EF3000249001F02DFD229001F089FD259021A85B
:10EF4000FFF7D7FD214621A800F079F8A9480078FD
:10EF500030286BD18421684601F016FCDDE92110D0
:10EF6000DDE9234791F841106E46002958D090F80A
:10EF70004100354630B9F5F7EBFE4FF47A7148435E
:10EF8000ADF800009C4994F8AC0010F0010F35D0AA
:10EF9000B5F9000094F854200244206D012818BFF0
:10EFA000002000EBC00303EB001002EB800025F80B
:10EFB000020B208F25F8020B94F84F00B4F8B02014
:10EFC00000EB800002EB400025F8020BE06A81FBB9
:10EFD00000204211A2EBE07025F8060B206B81FBAC
:10EFE00000204211A2EBE07025F8040C606B81FB5D
:10EFF00000204211A2EBE07025F8020CC034BC42A4
:10F00000C1D37E49A81B81FB00104110B1EBE07019
:10F0100006D000E00AE04FF618412980421C00E0CB
:10F0200000221AB106216846FAF7BBFBF5F769FC26
:10F03000002818BF01207249086027B0F0BD2DE9F3
:10F04000F04F8BB00F46064601F08EFC10F4807F27
:10F0500045D0D6F800C03769B4689CF841600021FB
:10F0600006EB460004EB80104FF00208012510F873
:10F07000142CC03812F0010F1ABFD0F8B020022AA9
:10F08000491C22D090F85520036D02EB420207EB99
:10F090008212022B0CBFD2F8B830002305FA03F31A
:10F0A00013F0060F07D0B0F90230B2F90220B3EB2B
:10F0B000620F0ADA06E090F84C2090F84D30B2EB7F
:10F0C000430F02D3491CC0F8B080A042CFD8701AB9
:10F0D0008CF842008CF845100BB0BDE8F08F10F0B2
:10F0E000020F3ED0D6F800C03769B4689CF8416082
:10F0F000002106EB460004EB80104FF002080125CA
:10F1000010F8142CC03812F0010F1ABFD0F8B0203C
:10F11000022A491C22D090F85520036D02EB4202CE
:10F1200007EB8212022B0CBFD2F8B830002305FA8D
:10F1300003F313F0060F07D0B0F90230B2F9022042
:10F14000B3EB620F0ADA06E090F84C2090F84D30ED
:10F15000B2EB430F02D3491CC0F8B080A042CFD815
:10F16000B5E73568D6F808A030690790B5F9020010
:10F170004FF0000B4010099095F8418001F0FEFB24
:10F18000814601F050FC08901E480068069090F8F7
:10F19000400010F0020F69D0B16830460591316827
:10F1A000D0E9034604911849426891E80A508DE875
:10F1B0000A5092F84310042907D3049991F841109A
:10F1C000042924BF4FF000410291069991F8501094
:10F1D00011F0010F03D00D4A302101F02EFC094837
:10F1E000026854F8140CC03C10F0010F3BD00FE043
:10F1F00050460100390501101F85EB51ABAAAA2A20
:10F20000F8060110D0060110FC9401103DC5001055
:10F2100010F4804F27D194F855106B4601EB410153
:10F2200006EB811C116D10F4805F1CD1B4F8460010
:10F23000C1F3072E704513D3D4F830E0A06B11F062
:10F24000020F09D0216D022908BF012804D1DCF882
:10F250003810002908BF002053F82000704502DD57
:10F260000220C4F8B00005988442BAD801F0F4FB3B
:10F2700020B1287B022808BF4FF0010B002108EBCA
:10F2800048000AEB80104FF0020C012450F8143CA7
:10F29000C03813F0010F1ABFD0F8B020022A491C61
:10F2A0003DD090F8552002EB4206079A02EB8612F9
:10F2B000066D022E0CBFD2F8B42000222E7B1EB1A8
:10F2C00012B913F4807F27D1B8F1010F27D904FABE
:10F2D00002F212F0030F18BFBBF1000F1FD0B0F9FC
:10F2E0000230099A93421ADD42784AB10678A2F1B7
:10F2F000010E0EFB096637F91660B6EBE30F0BDD66
:10F30000089E521CB2420AD2067802FB096237F903
:10F310001220B2EBE30F02DC491CC0F8B0C050452C
:10F32000B4D8B8EB010085F8420085F8451004BF59
:10F330000BB0BDE8F08F297B29B9297D01291CBFBD
:10F340000BB0BDE8F08F95F80F14814208BF85F827
:10F35000114495F8D514814208BF85F8D7440BB005
:10F36000BDE8F08F2DE9F0410F4606460A2501F071
:10F3700005FB044601F057FB5FEA000C06EB4C016D
:10F380004FF0000314BF0020BDE8F0810022002CE4
:10F390000ED936F91380A84503DB31F912804545B3
:10F3A00003DD03FB042827F81800521CA242F0D307
:10F3B0005B1C6345EAD3BDE8F0812DE9F0410646C8
:10F3C00001F036FB00254FF0FF3C07462C46634614
:10F3D0002946002E13DD01EB410007EB8010426A45
:10F3E000AA4204DD2C46634615B28C4603E09442E3
:10F3F000BCBF14B20B46481C01B2B142EBDB002289
:10F40000002ED8BFBDE8F081624518BF9A4209D0EE
:10F4100002EB420007EB8010D0F8AC1021F00101A4
:10F42000C0F8AC10501C02B2B242EDDBBDE8F08176
:10F430000846022998BF7047BFE70000002808D09F
:10F44000002906D0002B04D08B4202D8194601F0C7
:10F45000B9B970472023002219461248EEE7114837
:10F46000704720207047F1F70AB9F1F713B9F1F7A7
:10F4700014B9F1F731B9F1F730B930B414460028B6
:10F480000CD000290AD0002C08D0002B06D08B42CB
:10F4900004D8214630BC1A4601F080B930BC704710
:10F4A000F1F7E6B8000001100020704730B41D46A7
:10F4B000029B144658B101280DD0022811D0032810
:10F4C00013D1C8B22A46214630BC00F035BA30BC50
:10F4D000C8B200F025B9C8B2AAB2214630BC00F0CB
:10F4E0005EB930BC084600F0F0B930BC70477CB55E
:10F4F00014460D460646FFF7B2FF002200929DF823
:10F500000010019241F040018DF800104470A007F6
:10F510000ED4600704D59DF8000040F0040005E01B
:10F52000200705D59DF8000040F010008DF8000080
:10F530009DF8000040F002008DF8000030098DF8C1
:10F54000020028098DF8030006F00F0060F31F1574
:10F550008DF804506846FFF78AFF7CBD70B50546FC
:10F56000FFF77DFF0446FFF77AFF024669484FF632
:10F57000FF73022D4575018803EA4106A4F8F06186
:10F5800006D0032D13D003260023042D20D031E014
:10F5900024F81130018804EB41014B80018804EB11
:10F5A00041018B80018804EB4101CB809BE04EF64A
:10F5B000EE6224F81120018804EB41014A800188A1
:10F5C00004EB41018A80018804EB4101CA808AE092
:10F5D0005278550701D501220AE0950701D502228C
:10F5E00006E0950901D0067505E0120702D5042250
:10F5F000027500E00375427C032A00D9467424F8A2
:10F600001130018804EB41014B80018804EB41017A
:10F610008B80018804EB4101CB800188837C34F826
:10F620001120C3F3100342EAC33224F81120C17C35
:10F6300003888903C1F3803142EA813124F8131031
:10F64000438902889B00C3F38B0341EA830124F8BA
:10F650001210037D028803F00303194324F81210EB
:10F660000188458804EB41026FF47023518803EA56
:10F670000515294351800288C57B04EB420205F041
:10F680000F05294351800188858804EB410203EA74
:10F6900005159188294391800288857B04EB4202FD
:10F6A00005F00F0529439180017D0329018804EBB2
:10F6B0004101CA881DD0058903EA05131A43CA808F
:10F6C0000188037C04EB41029B00D188C3F38103D2
:10F6D00041EA8301D1800288437C04EB420203F0BB
:10F6E00003031943D1800188B1F5F77F03D9FA21CB
:10F6F00002E0C588E0E7091D018070BD06A07047E3
:10F7000004207047162070470420704770477047E8
:10F71000704700007A950110413630350000000036
:10F7200070B5B44D00260446642801D0652C1CD168
:10F73000287818B1012801D0022805D1AE488421CB
:10F7400001807220FFF7E4FF642C01D0652C0CD1FE
:10F75000287818B1012801D0022806D1A74846818F
:10F76000067346730220FFF7F9FEA5482C70068049
:10F77000204600F063F9204600F058F9204600F0DA
:10F7800059F9204600F04EF9204600F047F920468E
:10F7900000F058F92046BDE8704000F01BBC2DE990
:10F7A000F04789460446014690462120FFF7B0FF06
:10F7B000FFF755FEB0F94800B0F5704F01DB0120AE
:10F7C00004E0FFF74CFEB0F94800401C01B22420D1
:10F7D000FFF79EFF8A4D5020B5F90010FFF798FF04
:10F7E000844E3078652817D1062C15D1B5F9002044
:10F7F000501C11D0521C11B229802320FFF788FF22
:10F80000B5F90000C62807DBE01F2880012122206F
:10F81000FFF77EFFFFF727FE784D00276889B0F5D8
:10F82000616F03D16F810320FFF798FE3078642861
:10F8300002D0652816D10BE0287B401CC0B228738B
:10F84000282803D16889401C68812F73BDE8F087A0
:10F85000687B401CC0B268733C2803D16889401C97
:10F8600068816F73082CF1D2DFE804F0050B1117E3
:10F870001D042329EAE741464846BDE8F04700F069
:10F88000DEB841464846BDE8F04700F0D0B84146F2
:10F890004846BDE8F04700F0CEB841464846BDE8CE
:10F8A000F04700F0C0B841464846BDE8F04700F0D8
:10F8B000B6B841464846BDE8F04700F0B8BA414600
:10F8C0004846BDE8F04700F086BB70B50546FFF737
:10F8D000C6FD0478FFF7C3FD4A4A0078C4F340012F
:10F8E000494B1170C4F380021A70484BC0F380106A
:10F8F00011431870C4F3C003454C0143237004D175
:10F90000481E3F490880FFF7AEFD284600F098F8F2
:10F91000284600F08DF8284600F08EF8284600F0C2
:10F9200083F8284600F07CF8284600F0DDFA2846E7
:10F93000BDE8704000F050BB2DE9F0411E4617466F
:10F940008846050029D12B493220002408702C4814
:10F9500030490480062008702B4804702948047040
:10F960002D48047024480480FFF774FDFFF777FDED
:10F9700002462248FA214FF4F773018002210174F4
:10F980004475FA2002EB400122F810404C80001D23
:10F990008C8080B2CC809842F4D933463A464146B6
:10F9A000284600F04EF833463A464146284600F0D5
:10F9B00040F833463A464146284600F03EF8334682
:10F9C0003A464146284600F030F833463A4641462A
:10F9D000284600F026F833463A464146284600F0CD
:10F9E0009CFA33463A4641462846BDE8F04100F0CD
:10F9F000F4BA0000110701101A0701107A950110DE
:10FA00001207011014070110150701101607011045
:10FA100018070110100701101707011070477047F1
:10FA2000704770477047704770477047704770471E
:10FA3000704770477047704770477047704770470E
:10FA40007047704710B5044601B25720FFF760FEBB
:10FA5000FFF705FDB0F8B000401C01B25820FFF7D9
:10FA600057FE642C06D0652C09D100F05FFBFF49DE
:10FA700000200880BDE81040FD4800F0AFBA10BD7E
:10FA800010B5FFF7ECFCFA49448810310C808388EC
:10FA90004B80C2888A800089C8800A8148812244BC
:10FAA0008A811844C88110BD2DE9F04F0027DDE997
:10FAB0000AA9DDF824B03E4642F2107E00EB06159E
:10FAC00042F21074698842F210786143090B4FF4D6
:10FAD00087646143AC88B1FBFEF104FB08F4240B9E
:10FAE00040F6AC0804FB08F4B4FBFEF495F801C042
:10FAF00089B2A4B2BCF1010F0ED0994214D95C4571
:10FB000012D9514502D3B1F5876F0DD94C4503D3B6
:10FB100040F6AC08444507D9214302D1BCF1010F9E
:10FB200002D17F1CFFB21560761C0A2EC6DB4FF097
:10FB3000FF30002F07D0012F07D004D94FF000006D
:10FB400010606FF00100BDE8F08F4FF00000FAE7A1
:10FB50004178A9BB418842F210725143090B4FF41E
:10FB60008762514342F21072808840F6AC035043E2
:10FB7000000B5843B0FBF2F0B1FBF2F1BC4A89B282
:10FB8000103280B213898B4208D293898B4205D9F7
:10FB90005389834202D2D289824212D8B1F5C97FF9
:10FBA0000BD940F2A620814207D940F2F27081427F
:10FBB00003D940F6AC00814203D84FF0FF307047C4
:10FBC000FFE70020FBE72DE9FF47AA4E002481460E
:10FBD000039430788846002873D0A748007800281E
:10FBE0006FD1A34810300189502901D250210181E1
:10FBF00082894FF47A718A4200D981814189C3890F
:10FC000082898DE80E00038903AA41464846FFF722
:10FC10004BFF9A499B4D47F6FF77CC74984C10F1F7
:10FC2000020F14D0B0F1FF3F01D0D8BB12E040F674
:10FC3000AC0240F2A62140F2F2708DE807004FF4CA
:10FC4000C97303AA41464846FFF72EFF10B127802B
:10FC50002F8027E00398407808B9FFF721FC03982C
:10FC6000417801291BD009B1022918D1418842F2FB
:10FC7000107251430A0B4FF487614A4342F21071EC
:10FC8000B2FBF1F22A80828840F6AC034A43120BA1
:10FC90005A43B2FBF1F17C4A2180018911807B49F2
:10FCA00040780870307800280BD0FFF7D8FB807BB5
:10FCB0004009012805D16E4842464946103000F0FF
:10FCC0009DFABDE8FF877FB5002540F6AC024FF4F2
:10FCD0007A7303950095CDE90132502303AAFFF70B
:10FCE000E3FE044610F1020F04D0B0F1FF3F01D053
:10FCF0008CBB03E05E4800F071F92CE0FFF7AFFB2E
:10FD00000398407808B9FFF7CBFB039841780129A5
:10FD100021D042F21072F1B9418813465943090BC0
:10FD20004FF487635943808813465843000B40F6CD
:10FD3000AC03B1FBF2F15843B0FBF2F089B2A1F28F
:10FD4000691180B2B1F5B37F05D840F60B01884246
:10FD500001D9474845804E480078002822D04D48B8
:10FD6000008800281ED1002C1CD14148039900F0C6
:10FD70003BF9002816D0012814D0022812D1FFF731
:10FD80006EFB4570FFF76BFB417841F0020141705B
:10FD9000FFF765FB427800210846FFF7A8FB042027
:10FDA000FFF7DCFB7FBD7FB5002640F6AC024FF4C9
:10FDB0007A7303960096CDE90132502303AAFFF728
:10FDC00073FE354C354D10F1020F04D0B0F1FF3FFA
:10FDD00001D070B902E026802E800AE0FFF73FFBD9
:10FDE00003984178012904D042F2107241B10229EE
:10FDF00006D00398002802D02949407808807FBDAA
:10FE0000418842F210735943090B4FF487635943F9
:10FE1000B1FBF2F12180808842F210714843000B5F
:10FE200040F6AC014843B0FBF2F02880E1E770B542
:10FE300006461C4800240D460278002A53D0012AA9
:10FE400051D0022A4FD0652A4DD1304600F01DFC1A
:10FE500029463046FFF7B7FE0E49088800B1401E1C
:10FE6000088001B27220FFF753FC1DE01207011059
:10FE70009095011015070110180701107A950110CF
:10FE800028070110260701102C0701102A0701106E
:10FE9000140701101A0701101C0701101E0701109A
:10FEA000200701101107011029463046FFF70BFF0C
:10FEB00029463046FFF777FF2946304600F03AF8EA
:10FEC0003C4801882520FFF722FC3B48018826207A
:10FED000FFF71DFC394801882720FFF718FC204652
:10FEE000BDE8704034E670BD70B5354D287808B176
:10FEF000FFF7C6FD334C34492078087010B108462E
:10FF000000F071F829782078014330480078BDE886
:10FF1000704001430620FFF7A8BA10B5002808D1A9
:10FF2000FFF79DFA2021817325490020087026499A
:10FF3000087010BD70B50446002939D0244E002544
:10FF40002078707461783174207AF073A07AB0737D
:10FF5000608800B3A288F2B142F210725043000BE5
:10FF60004FF48762504342F21072B0FBF2F070809F
:10FF7000A08840F6AC035043000B5843B0FBF2F0AE
:10FF8000B080608838B1A08828B121B9707B3081F9
:10FF90000120FFF7E3FA307C012804D1707B308127
:10FFA0000120FFF7DBFA6D1CADB210340A2DC7D368
:10FFB00070BD000022070110240701102007011066
:10FFC0001507011014070110909501101707011073
:10FFD0007A95011070477047704770470021418043
:10FFE00081814170704770472DE9F05F0446487881
:10FFF000DFF82C810D4600276FF00B094FF0010A46
:020000021000EC
:1000000020B16188884601293CD134E0688801F03C
:10001000E5FF494602F0F4F8424901F0F3FF01F030
:10002000BDFF86B2A88801F0D9FF494602F0E8F882
:100030003D4901F0E7FF01F0B1FFA6F2691180B27E
:10004000B1F5B37F66D840F60B01884262D961886A
:1000500000295FD1298954295CD8A680E0802681B7
:100060006081A4F802A06770A781E7815046A8F8D4
:100070000070BDE8F09F2A490228B1F9006002D063
:1000800001283CD046E0688801F0A8FFCB464946ED
:1000900002F0B6F8234901F0B5FF01F07FFF814679
:1000A000A88801F09BFF594602F0AAF81E4901F00A
:1000B000A9FF01F073FFA4F808906081E0886189CE
:1000C000401A00B2A081B4F90E10884200DD01464A
:1000D000E1816278012A04D0A0F24312B2F5077FD1
:1000E0000BD23C2E05DC4039884202DB288954289B
:1000F00001D9677001E084F801A04046B9E7607853
:1001000040B1032E06DD3C2E04DA6780A7816770BC
:100110000220AEE76780A78167703846A9E7000034
:10012000120701100000874400C00A450020FF4B61
:10013000024600EB4001401C23F8112003EB410173
:1001400002284A808A80F4DBF948427042800270BB
:100150007047F84910B50A88F749038900240988CF
:10016000934208D88389934205D343898B4202D8AE
:10017000C089884201D24FF0FF34104600F037FAB0
:1001800000B90024204610BD30B5E94903460020DF
:10019000497801EB4102E54901EB420419B2E54B14
:1001A000B4F902201B88551A1BB29D420DDC0A448B
:1001B0009A420ADBE04BB4F904201B88541A1BB2A4
:1001C0009C4202DC1144994201DA4FF0FF3030BD0D
:1001D000D74A10B55378012199435170D34B01EBA5
:1001E0004101548823F81140D24C03EB4101D24B1A
:1001F00024884C801B888B80107010BD2DE9F05F27
:100200000746CC480024DFF834B3028847F6FF7075
:10021000DFF824A30E46824245D3BAF8002082427A
:1002200041D3C34800250078012801D002283AD1E3
:1002300006EB0511487890BB488842F21072504393
:10024000000B4FF48762504342F21072898840F6E7
:10025000AC0301FB02F14FEA1131B0FBF2F001FBFC
:1002600003F1B1FBF2F10004000C89B202D03A892B
:10027000824210D211B17A898A420CD2BA89824262
:1002800002D8B0F5876F06D9FA898A4207D840F6B6
:10029000AC02914203D800F0AAF9401C2ED06D1C8C
:1002A000EDB20A2DC4D3A648008846287DD8A04EBA
:1002B000A449DFF894923078012508B3012838D09A
:1002C000DFF86882022859D0032855D10878012820
:1002D0006CD0022850D10F214720FFF718FA707810
:1002E000454600EB400008EB40079248B7F9022072
:1002F000008801B2501A75D58B1A31E1142189E0BA
:100300000878002838D101214720FFF700FA384645
:10031000FFF71FFF002848DB02214720FFF7F7F90E
:10032000A9F8004074803078401CC0B2FFF750FF3D
:1003300020E00878012802D002280ED01AE003211C
:100340004720FFF7E4F94F20FFF71EFF0028E2DB0C
:1003500004214720FFF7DBF969E005214720FFF77B
:10036000D6F94F20FFF710FF0028D4DB06214720E5
:10037000FFF7CDF98BF81350BDE8F09F08780028FF
:10038000FAD107214720FFF7C2F97078424600EB07
:100390004001684808EB41030088B3F902800FFA76
:1003A00080FCB8EB0C0004D501E0B2E043E0ACEB1C
:1003B000080000B24F2823DCBAF80000B3F904C0EB
:1003C00003B2BCEB030001D5A3EB0C0000B24F2835
:1003D00016DC32F91120B9F90010501A03D5A1EB3F
:1003E000020C01E0BBE084460FFA8CFCBCF1030F69
:1003F00006DBC846002800D5881A00B221280DDD8A
:1004000008214720FFF783F93846FFF7A2FE0028AE
:100410007EDA09214720FFF77AF9E0E00A21472038
:10042000FFF775F9B8F800107180A8F8004030782F
:10043000401C30709EE7B9F900004F46401C68D060
:100440000B214720FFF763F94F20FFF79DFE00289F
:100450005FDB0C214720FFF75AF970883988084480
:1004600070803078FFF7B4FE7078C14600EB400131
:1004700025EA000C0CEB4C0008EB410208EB4003B2
:10048000B2F90270B3F902C0B7EB0C0801D5ACEBBE
:1004900007080FFA88F74F2F43DAB2F90420B3F9AF
:1004A00004304F46B2EB030C01D5A3EB020C0FFA5C
:1004B0008CF24F2A35DA37F9111037F91020881AE3
:1004C00001D5531A00E003461BB2032B29DD002897
:1004D00000D5501A00B2212823DA0D214720FFF75A
:1004E00016F910214720FFF712F90020FFF770FEE0
:1004F00070780422854305EB450007EB40008188B6
:100500004088FEF7F4FF3C807C80BC80FC8001E0EA
:1005100055E064E03C817C81BDE8F05F0420FFF79A
:100520001DB80E214720FFF7F2F80FE0B09501103B
:100530002E07011026070110280701107A950110D7
:100540002C0701102A07011012070110FFF7EEFD1A
:10055000022030707480FEF7A3FF30783CE0034641
:100560001BB24F2B0EDCBAF80030B7F904700FFA4B
:1005700083FCB7EB0C0301D5ACEB07031BB24F2B8D
:100580007FF7FAAE002800D5881A01B25420FFF791
:10059000BFF8707800EB400005EB4000B0F90410A4
:1005A000BAF8000002B2881A00D5501A01B25520DC
:1005B000FFF7AEF84F215620FFF7AAF80FE0112100
:1005C0004720FFF7A4F83846FFF7C3FD002806DBF5
:1005D000A9F8004074800120BDE8F05FF8E50D48FF
:1005E0008BF8134044800470BDE8F05F9EE5A0F5F1
:1005F000C970B0F58A7F07D840F2F270814203D308
:1006000040F6AC00814202D94FF0FF307047002025
:10061000704700002E0701102DE9F041424D43497B
:100620000024287830B3012822D16878B1F900205D
:10063000022826D001281BD16888E98803B20EB2AF
:10064000991B00D5F11A09B24A291CDCA9882B890B
:100650000EB21FB2F31B00D5BB1B1BB24A2B12DC20
:10066000142A10DC2C700822FEF741FF6C80AC804D
:10067000BDE8F08168780028FAD10C80012028704C
:10068000F6E7142AF4DD2C70F0E77FB5284A1278DB
:10069000002A47D0274A1278002A43D0002440F687
:1006A000AC024FF47D7303940094CDE901324423EE
:1006B00003AAFFF7F9F940B21B4B10F1020F04D067
:1006C000B0F1FF3F01D058BB04E047F6FF70D8807F
:1006D000188125E00398417801291FD009B102292A
:1006E0001CD1418842F210725143090B4FF48762CA
:1006F000514342F21075B1FBF5F189B2D98082887D
:1007000040F6AC066A43120B7243B2FBF5F292B2AA
:100710001A81457815B91C7059809A8040785870B4
:10072000FFF77AFF7FBD00003207011012070110AA
:1007300015070110180701100446AFF3008020468A
:10074000EFF7A0FD7047000001491820ABBEFEE79F
:10075000260002001EF0040F0CBFEFF30880EFF339
:1007600009800249024AF9F7F3B90000BC9501106B
:10077000E0C5011048F6853CC1F2000C604748F224
:100780005F0CC1F2000C604748F2171CC1F2000C6C
:10079000604748F2F97CC1F2000C604747F6D57C0F
:1007A000C1F2000C604747F68D7CC1F2000C604737
:1007B0004AF2DB4CC1F2000C604749F2BD0CC1F2B9
:1007C000000C604748F2C30CC1F2000C604740F6D1
:1007D000451CC1F2000C604741F6494CC1F2000CC7
:1007E000604741F64D4CC1F2000C604748F6492C79
:1007F000C1F2000C604748F6F10CC1F2000C6047F2
:1008000048F6571CC1F2000C604740F2590CC1F287
:10081000000C604740F2691CC1F2000C604740F6D2
:10082000870CC1F2000C604745F6531CC1F2000C66
:10083000604745F65B1CC1F2000C604744F2470C70
:10084000C1F2000C604741F69F7CC1F2000C60478A
:1008500041F6917CC1F2000C604745F6191CC1F2CB
:10086000000C604745F6211CC1F2000C604745F6BC
:10087000192CC1F2000C604745F6132CC1F2000C94
:10088000604748F6A13CC1F2000C604748F6974C1F
:10089000C1F2000C604746F2453CC1F2000C6047D3
:1008A00045F6F71CC1F2000C604745F60D2CC1F26D
:1008B000000C604747F6D30CC1F2000C604745F6C8
:1008C0001F2CC1F2000C604745F6252CC1F2000C2C
:1008D000604747F2D35CC1F2000C604748F6FD2C3C
:1008E000C1F2000C604747F2CD5CC1F2000C6047DA
:1008F00045F6032CC1F2000C604747F6D90CC1F253
:10090000000C604745F6F11CC1F2000C604747F649
:10091000071CC1F2000C604747F2236CC1F2000CC7
:10092000604747F6BB0CC1F2000C604747F6C50CA8
:10093000C1F2000C604741F63D6CC1F2000C60470B
:1009400041F6296CC1F2000C604741F6676CC1F2B8
:10095000000C604748F6ED6CC1F2000C604749F2AC
:100960005B6CC1F2000C604745F6291CC1F2000C1B
:10097000604740F2AD1CC1F2000C604745F6F10C37
:10098000C1F2000C604745F6A50CC1F2000C6047AF
:1009900045F6C70CC1F2000C604741F67F7CC1F2FE
:1009A000000C604746F6F12CC1F2000C604747F29C
:1009B000D95CC1F2000C604747F6B70CC1F2000CDD
:1009C000604741F6336CC1F2000C604740F60B3CC7
:1009D000C1F2000C60474AF2414CC1F2000C604782
:1009E00040F6753CC1F2000C60474BF63D7CC1F20D
:1009F000000C604741F6514CC1F2000C604745F6CF
:100A0000FD1CC1F2000C60474AF2914CC1F2000C8F
:100A1000604746F24B3CC1F2000C604749F2E92CBA
:100A2000C1F2000C604745F6F90CC1F2000C6047BA
:100A300045F6B70CC1F2000C60474CF2635CC1F2A2
:100A4000000C604745F6712CC1F2000C604745F67A
:100A5000DD0CC1F2000C604745F6432CC1F2000CDE
:100A6000604745F6A10CC1F2000C60472DE9F0414A
:100A70000D460446FFF78CFF0646FFF784FF03464A
:100A800094F8220194F8201104EB8000B0F93E00A4
:100A90004FEAA00C0020002986BF02210327BDE8F1
:100AA000F08196F84220022A1AD204EB8002B2F9B1
:100AB0004220624514DA012D0FD193F8EC84B8F18D
:100AC000010F1CBF93F8EE84B8F1010F05D1322A53
:100AD000C4BF221882F8001102DC221882F80071CB
:100AE00004EB800292F84020A25C002A04BF221886
:100AF00082F8007194F82021401C8242D1D8BDE8D0
:100B0000F0812DE9F05F994690460D4604464FF07E
:100B1000FF360027FFF73CFFFFF735FF0021824635
:100B2000B9F1000F88BF4FF0020C3AD901EB810BED
:100B300008EBCB00027F12F0010F2FD0C37942796E
:100B40009B1A02EB6302D2B2437814F802E0BEF1C2
:100B5000000F2FD0A25C22F01002224492F8FF3046
:100B6000032B18BF82F8FFC083790279B0F9020025
:100B70009B1A02EB630218F83B30D2B2B842C4BFF2
:100B8000C7B256B2A85CD8B1A85C20F010002844C7
:100B900090F8FF20032A18BF80F8FFC0491C494580
:100BA000C4D395F82001B8B19AF80000295C01205F
:100BB00061B10FE0E25C002A18BF1A46CAD1D3E740
:100BC000E85C002818BF1A46DED1E7E7002E03DBF9
:100BD000A95D09B185F823019AF80C00002808BF27
:100BE000BDE8F09F95F82301002818BFBDE8F09FED
:100BF00094F8220104EB8000B0F93E001E28A8BF43
:100C0000BDE8F09F002094F8201100298CBF03213B
:100C1000BDE8F09F2218401C82F8001194F82021B2
:100C20008242F7D8BDE8F09F2DE9F05F1F461646D7
:100C30000C468046FFF7A7FE8146FFF79FFE03465E
:100C400096F8200100220028C8BF4FF0010E44DDB5
:100C500006EB020A9AF80001002818BF022837D1D3
:100C60002078401C20709AF80001002830D106EB53
:100C70008200002590F84000294600FB03FB002B72
:100C80001CDD0BEB010038F910C0BCF1000FB4BF44
:100C9000CCF100006046854206DABCF1000FACBF23
:100CA0006046CCF1000005B21CF1280FB8BF89F8EE
:100CB000DAE4491C9942E4DB282D06DA03208AF89D
:100CC00000012078401E207002E0A078401CA07037
:100CD00096F82001521C9042BADC97F820110020AF
:100CE000002914DD3A1892F80011002918BF0229D2
:100CF00008D16178491C617092F8001111B9E1784E
:100D0000491CE17097F82011401C8142EADC2078F0
:100D100086F821016078E178401A87F82101BDE862
:100D2000F09F2DE9F05F1F460C4605460026DDF8D2
:100D30002880FFF728FE84460020B8F1000FC6BFC8
:100D400005F1080B05F12609BDE8F09F00EB8003D3
:100D500007EBC3010A7F12F0010F5DD091F807A0E5
:100D60004A79AAEB020A02EB6A02D2B291F801A018
:100D700014F802E0BEF1000F05D114F80AE0BEF14C
:100D8000000F18BF5246A25C9CF80CA022F0100283
:100D9000BAF1000F1ED017F83330022B1AD8FAB16F
:100DA00004EB420393F8BFA093F8BE30AAEB030311
:100DB0005B1C092B03D994F82231934210D104EB28
:100DC000820393F83C300F2B24BF94F82131012B80
:100DD00006D800E022B1224492F8FF20022A0DD06A
:100DE000AA79531CAB7102F80B00B1F90210BCF9DF
:100DF0000220914204BF012169710DE0EB79C2B27A
:100E000003F1010A85F807A003F80920B1F90210DF
:100E1000B142C4BF0E462A71401C404596DBBDE876
:100E2000F09F2DE9F05F994614460F460646FFF7FE
:100E3000AAFD0546FFF7ACFD8246FFF7F4FD8046AC
:100E4000FFF79CFDB9F1000F01BF297B00299AF83B
:100E50004710002918BFBDE8F09FF979012998BF14
:100E6000BDE8F09F00230029D8BFBDE8F09F4FF0F8
:100E700002094FF0010AA8F10108FA1892F8262099
:100E800002EB820204EBC20C9CF801C0BCF1000F23
:100E900012D014F832B0ACF1010E0EFB00BB1FFAF9
:100EA0008BFB36F91BB01BF11E0F05DA85F80C9091
:100EB00085F8E9A4BDE8F09FC4450BDA14F83220A8
:100EC0000CF1010C0CFB002292B236F9122012F147
:100ED0001E0FEBDB5B1C9942CFDCBDE8F09F2DE9D8
:100EE000F04190460D460446FFF74DFD0646FFF7DC
:100EF0004FFD0746FFF742FD0146307BB8F1000F7A
:100F000018D000284FF0000051D0A1790029D8BF97
:100F1000BDE8F0812118401C097A01EB810105EB45
:100F2000C101CA6922F00102CA61A1798142F1DCE2
:100F3000BDE8F08180B3E179012914D900200029AE
:100F400011DD2118227991F82610914207D001EB8A
:100F5000810105EBC101CA6922F00102CA61E17990
:100F6000401C8142EDDCA079002818BF0020D8BFCA
:100F7000BDE8F08104EB000100F10100097A01EB0A
:100F8000810105EBC101CA6922F00102CA61A179A0
:100F90008142EFDCBDE8F081FFE797F842000028CE
:100FA00006BF97F8EC040028BDE8F081C3E7A279FA
:100FB000002ACCBF4B1EBDE8F0812118B6F90270A3
:100FC000097A01EB810205EBC201B1F902C0BC450F
:100FD00009DA15F832209A4218BF002A03D1CA69EB
:100FE00022F00102CA61A179401C8842E5DBBDE81C
:100FF000F0812DE9F04F93B08146002000900190E0
:101000000290039004900590069007900890099034
:101010000A901F46154688460B900C900D900E9036
:101020000F90FFF7B0FC0646FFF7B2FC1190FFF7F8
:10103000FAFC0446FFF7A2FC034695F820210020A5
:10104000EE46002A05DD411C0EF80010401C8242CD
:10105000F9DC97F8202100200DF1200C002A05DD95
:10106000411C0CF80010401C8242F9DC1C98002244
:101070000028C4BF601E10906FDD02EB820B08EBEE
:10108000CB0CDCF81CA01AF0010F62D09CF8071002
:101090009CF805009CF80140091A00EB6100C0B201
:1010A000295C19B3285C20F01000704410F8010C82
:1010B0008CF824009CF806109CF80400091A00EB38
:1010C0006100C1B218F83B0017F801B0BBF1000F86
:1010D00012D0795C0DF1200B21F01001594411F868
:1010E000011C8CF82510317B79B90BE0285D0028B4
:1010F00018BF2046D6D1DDE7395C002918BF01466C
:10110000E7D1F0E7317D012923D195F8201101299C
:101110001FD964B1611E01FB030189B239F91110B5
:1011200011F11E0FBCBF4AF48071CCF81C1010994D
:101130008C420EDA611C01FB030080B239F9100009
:1011400010F11E0F05DADCF81C0040F48070CCF8BA
:101150001C001C98521C82428FDB307B002804BF8D
:10116000002086F83F0007D0119890F8E904012884
:101170001CBF13B0BDE8F08F86F8E90413B0BDE8DA
:10118000F08F2DE9F047984614460D460646FFF7C6
:10119000FAFB0746FFF7FCFB8146FFF762FC397B51
:1011A00000291ABF99F842C0BCF1000FBDE8F087D2
:1011B000B27801212AB995F8212152B994F8212158
:1011C0001AB180F82910BDE8F087B7F902205A2A31
:1011D000F7DCACF10102032A02D27279012A10D0A5
:1011E00095F82021002A1ABF94F82021002ABDE892
:1011F000F087BCF1010F08BFB8F1000FE1D0BDE8E6
:10120000F087BCF1010F04BF95F82021012AD8D145
:1012100094F82021012A04BF002180F82910D0D1A0
:10122000BDE8F0872DE9F04792B0984691460C460C
:10123000824601251A9FFFF7ABFB0646442101A811
:10124000FFF7A2FA3B46424601A95046FFF7ECFCE5
:101250004B463A46414601A80094FFF762FD96F8D6
:10126000420002280ED29DF804009DF80610401A94
:10127000022807DA9DF805009DF80710401A022899
:10128000B8BF002523463A46414601A8FFF779FF3B
:101290002B464A4601A95046FFF7C3FD2A46494658
:1012A00001A8FFF71CFE9DF80B00002804BF12B038
:1012B000BDE8F0873B464246494650460094FFF75A
:1012C00098FE12B0BDE8F0872DE9F84F9846164613
:1012D0000F4681460A9DFFF756FB0446FFF758FB71
:1012E000824601214046FFF7C1FB00212846FFF757
:1012F000BDFB33463A4629464046FFF702FC4346CB
:101300003A46314648460095FFF78CFF207B00287F
:101310001CBF9AF84200002801D0032802D9207D82
:10132000012803D139463046FDF780FA012084F8C0
:101330004D03BDE8F88F2DE9F047984691460E46DB
:10134000089FFFF725FB90F8430040B198F8220171
:10135000002802BF97F822010028BDE8F08700208E
:10136000B9F1000F98BFBDE8F08700EB800206EBF3
:10137000C205E96911F0010F1CBF16F83240002CBC
:1013800012D0212C10D295F801C0BCF1000F18BF6B
:10139000BCF10F0F08D218F80C20002A01BF3A5DEB
:1013A000002A21F00101E961401C4845DDD3BDE878
:1013B000F08700002DE9F04FA1B005460020009015
:1013C0000190029003900490059006900790089079
:1013D00009900A900B900C900D900E900F90109029
:1013E00011901290139014901590169017901890D9
:1013F00019901A9014460E461B901C901D901E903A
:101400001F90FFF7C0FA0746FFF7C2FA01463A7B82
:1014100094F82001002A1CBF91F84220012A04D927
:10142000012884BF6323032105D83A7D012A1CBF0C
:101430004B2314217DD00022EB460DF1600E0DF1FF
:10144000200C002811D904EB820797F8407014F89B
:10145000078028F010080BF802800CF808800EF8BE
:101460000270521CD2B29042EDD80122012888BFEE
:1014700001227CD90EEB02081EF802C018F8017C8C
:1014800035F91CC035F91770BC45A8BFBC46A71874
:10149000FF7F35F91790B9F1000F29DD4FF0640A8D
:1014A00009FB0AFA9AFBFCFA9A4506DCB9EB0C0A2E
:1014B00048BFACEB090A8A451AD20BEB020C1BF8A9
:1014C00002A00DF120091CF801CC09F80AC00BF8A4
:1014D00002C004F807C01EF802C018F8017C35F9F4
:1014E0001C9035F91780C145C8BF67460EF80270D9
:1014F000521CD2B29042BDD80021002E88BF08AB4A
:1015000012D9625C62B112F0100F08BF13F802C06A
:1015100004D022F010029A5C42F0100C04F801C0D2
:10152000491CC9B2B142ECD394F8401014F801C080
:1015300000E021E08DF8401001224FF0000E84F809
:1015400040E011460DF1400A012829D904EB810839
:1015500098F84030E75C674517D10AEB020735F988
:1015600013B017F8019C35F91990D94500E045E012
:10157000B8BF07F8013C0DE091F84210012987BF80
:101580005523052146231E2155E70AF80230521C37
:10159000BC46D2B2491CC9B288F840E08142D5D3DA
:1015A0000020002A2DD91AF8001004EB800383F8DC
:1015B000401035F811C0A3F842C0615C431C21F013
:1015C000100C63451CBF0020002E13D9D9B241F086
:1015D000100703F0FF08215C21F01009E14505D157
:1015E00011F0100F14BF275404F80080401CC0B243
:1015F000B042F0D3D8B29042D5D302E0002808BF61
:10160000002284F8202121B0BDE8F08F2DE9F047B9
:1016100014460E460546FFF7B6F9814694F82001B8
:101620004FF0000CE046002873DD04EB4C0099F805
:10163000142090F8C11090F8C0A0A1EB0A01491C39
:10164000C9B2012A17D004EB8C0191F8401035F98A
:1016500011100B111E2BB8BF1E23002104EB8C07A9
:1016600097F84020924536DC35F912A09A4529DBDF
:1016700001292AD126E0A1F10802032A0DD204EBA8
:101680008C0145F2565291F8401035F91110514332
:101690000A14A2EBE1710BB2DFE70B2907D304EBCD
:1016A0008C0191F8401035F911104B10D5E7042941
:1016B00004EB8C0191F8401035F9111094BFCB1058
:1016C0008B10CAE7012104F80280521E90F8C0A0D6
:1016D00012B29245C8DD97F8401090F8C170002210
:1016E000B9420EDC35F911709F4201DB012A02D1AB
:1016F000012204F80180491C90F8C17009B28F42A0
:10170000F0DA0CF101000FFA80FC94F8200160453A
:101710008BDC0020002E08DD215C002908BF25F8A5
:101720001080401C00B2B042F6DB94F8200100218A
:101730000028D8BFBDE8F08704EB810604EB410325
:1017400096F8400093F8C1C0225C844522F0100254
:101750000CDB255C25F01005954203D0401E83F874
:10176000C10003E0401C00B28445F2DA96F8400064
:1017700093F8C0C060450CDB255C25F01005954250
:1017800003D0401C83F8C00003E0401E00B2844533
:10179000F2DD481C01B294F820018842CCDCBDE89F
:1017A000F0872DE9F00391F820710024002FC7BFC6
:1017B0004FF00008461EBDE8F003704701EB8402BD
:1017C00092F840208B5C23F0100C131EA8BF01EB95
:1017D00044051BDB11F8039029F01009E1450AD0FC
:1017E00001EB030999F80190B9F1000F1CBF5B1CD4
:1017F00085F8C0300AE03BB991F8009029F0100953
:10180000E14508BF85F8C0805B1EE3D58242B8BFC2
:1018100001EB44030EDA8D5C25F0100565450FD011
:1018200001EB020C1CF801CCBCF1000F1CBF521ED6
:1018300083F8C120641CBC42C0DBBDE8F0037047E4
:10184000B24208BF83F8C120521C8242E3DBF1E7B9
:1018500070B514460E460546FFF79AF801466E48E5
:101860000022002E07D935F912308342C8BF18462E
:10187000521CB242F7D391F84210012906D946F220
:10188000676148434114A1EBE07006E045F2565110
:1018900048430114A1EBE07000B294F8201100223B
:1018A00000298CBF4FF0000C70BD04EB8201B1F930
:1018B0004210814210DA04EB420393F8C01093F80F
:1018C000C1608E4208D304F801C025F811C093F816
:1018D000C160491C8E42F6D294F82011521C9142EC
:1018E000E3D870BD10B490F820414FF0000C4FF0D9
:1018F000FF336146002C0CD900EB8102B2F9422083
:101900009A4203DD13464A1C0FFA82FC491C8C42A2
:10191000F2D880F822C110BC70472DE9F05F144660
:101920000D460746FFF72FF80646FFF731F88046C9
:10193000FFF779F88146FFF721F8824695F82001F4
:1019400007EB490B20B12A4649463846FFF732FDDE
:1019500094F8200120B1224651465846FFF72AFD4F
:1019600029464846FFF71DFF21465046FFF719FF5D
:10197000307D012814D198F8EC0401281CBF98F898
:10198000EE0401280ED02A4649463846FFF760FF8C
:10199000224651465846FFF75BFF307D012801D0B3
:1019A000307B48B12A4649463846FFF72FFE22468B
:1019B00051465846FFF72AFE002395F820C14FF004
:1019C000FF321846BCF1000F0BD905EB8001B1F9CD
:1019D0004210914202DD0A46411C0BB2401C844574
:1019E000F3D885F82231002394F820C14FF0FF325C
:1019F0001846BCF1000F0BD904EB8001B1F942107D
:101A0000914202DD0A46411C0BB2401C8445F3D8CA
:101A100084F82231BDE8F09F18FCFFFF2DE9F04F5C
:101A200000270124B0F900301126B846A4463D46EF
:101A3000BE46002BCCBF147082F800E0012301F1F8
:101A40000109B9F1010F70DD8B4208D100EB430AA7
:101A50003AF902ACAA45A8BFCAF1000A0CDA30F97B
:101A600013B0AB4562DB00EB430A3AF902ACAA457E
:101A7000A8BFABEB0A0A59DB0FFA8AFABAF1000FDA
:101A800035DABCF1010F03D0BCF1020F4ED051E0AA
:101A900002EB030CA3F1010A0CF8016C02EB870CBA
:101AA000012B8CF840A000EB430A3AF802BCACF8DA
:101AB00042B007F1010C0CF0FF0715DDA3F1020C99
:101AC0003AF902AC0FFA8CFCBCF1000F0CDB30F9D8
:101AD0001CB0D34508D102F80C60ACF1010C0FFA30
:101AE0008CFCBCF1000FF2DA4FF0020C22E018BFC0
:101AF000BCF1010F1AD0BCF1020F1BD104F1010C93
:101B00000CF0FF0402EB030C02EB080B0CF8014C89
:101B1000A3F1010A08F1010844F010064FF0010C8E
:101B20008BF820A008F0FF0804E012E002EB030AA3
:101B30000AF8014C00EB430A3AF902ACAA45DCBFB3
:101B400002EB030A0AF801EC5B1C1BB24B45FFF6E3
:101B50007BAF82F82071BDE8F08F2DE9F047904609
:101B60000F460446FEF75FFF0546FEF707FF814676
:101B700004EB45063A4629462046FFF74FFF42460A
:101B800049463046BDE8F04748E700002DE9F0013E
:101B90004FF0000CDE4FE046002819BF0029002B53
:101BA000BDE8F00170479A4284BFBDE8F00170477C
:101BB00030F912400A2C0FDD00EB4205B5F9025056
:101BC000A54209DC81F8402030F812C0A1F842C0DB
:101BD0004FF0010C01F802C0521C9A421CD230F99D
:101BE00012400A2C15DD00EB420535F9026CB442B7
:101BF0000FDDB5F90250A5420BDC01EB8C040CF1B2
:101C0000010C84F8402030F81250A4F8425001F83A
