:1000000000000000000000000000000000000000F0
:1000100000000000000000000000000000000000E0
:1000200000000000000000000000000000000000D0
:1000300000000000000000000000000000000000C0
:1000400000000000000000000000000000000000B0
:1000500000000000000000000000000000000000A0
:100060000000000000000000000000000000000090
:100070000000000000000000000000000000000080
:10008000FFFFFFFFFFFFFFFFFFFFFFFFFFFFFFFF80
:10009000FFFFFFFF0000010002000300040000005A
:1000A000000000000000000000000000ADDEADDE3A
:1000B0000000000000000000000000000000000040
:1000C0000000000000000000000000000000000030
:1000D0000000000000000000000000000000000020
:1000E0000000000000000000000000000000000010
:1004C0000101656E0000000064000000640000008F
:1004D000FCFF030064000000030000001027000080
:1004E00053616D73756E67006D756C7469627569C3
:1004F0006C645F67706170690000000000000000BC
:1005000000000000000000000000000000000000EB
:1005100000000000000000000000000000000000DB
:1005200000000000000000000000000000000000CB
:1005300000000000000000000000000000000000BB
:101AF000000000006669766500000000000000003C
:101B000000000000000000000000000000000000D5
:101B100000000000010000000000000000000000C4
:101B200000000000000000000000000000000000B5
:101B300000000000000000000000000000000000A5
:101B40000000000000000000000000000000000095
:101B50000000000000000000000000000000000085
:101B60000000000000000000000000000000000075
:101B70000000000000000000000000000000000065
:101B800098030000000000000000000000000000BA
:101B90000000000000000000000000000000000045
:101BA0000000000000000000000000000000000035
:101BB0000000000000000000000000000000000025
:101BC0000000000000000000000000000000000015
:104C800000000000000000000000000015C3030049
:104C90000000000000000000000000000000000014
:104CA0000000000000000000000000000000000004
:104CB000000000FFFFFFFFFF0000000000000000F9
:104CC00000000000000000000000000000000000E4
:104CD00000000000000000000000000000000000D4
:104CE00000000000000000000000000000000000C4
:104CF000828F0400888F04008E8F0400948F04003C
:104D00009A8F0400A08F0400A68F04005C15050094
:104D10005415050058150500C8E403000100000003
:104D2000010000000000000002000000010000007F
:104D300010000000B4C205000200000000000000E6
:104D400008000000BBA00400A30100001000000048
:104D5000100000001000000002500000CD1D0100F6
:104D60005520010000000000FC00000000000000D1
:104D7000000000000000000000000000A201000090
:104D800010000000100000000000000001500000B2
:104D9000CD1D01001920010000000000FC000000F2
:104DA0000000000000000000000000000000000003
:104DB000A40100000100000010000000100000002D
:104DC00004500000CD1D0100F11F01000000000093
:104DD000FC000000000000000000000000000000D7
:104DE00000000000A501000001000000100000000C
:104DF0001000000003500000CD1D0100C11F010084
:104E000000000000FC0000000000000000000000A6
:104E100000000000000000008A0200000100000005
:104E2000100000001000000003400000CD1D010034
:104E3000011F010000000000FC0000000000000055
:104E40000000000000000000000000008D020000D3
:104E500001000000100000001000000003400000EE
:104E6000CD1D0100D11E010000000000FC0000006B
:104E70000000000000000000000000000000000032
:104E80008803000001000000100000001000000076
:104E900005400000CD1D0100711E01000000000052
:104EA000FC00000000000000000000000000000006
:104EB00000000000A7010000100000001800000022
:104EC0001000000002500000CD1D0100552001001F
:104ED00000000000FC0000000000000000000000D6
:104EE0000000000000000000A6010000100000000B
:104EF000180000000000000001500000CD1D01005E
:104F00001920010000000000FC000000000000006B
:104F1000000000000000000000000000A8010000E8
:104F20000100000018000000100000000450000004
:104F3000CD1D0100F11F010000000000FC00000079
:104F40000000000000000000000000000000000061
:104F5000A90100000100000018000000100000007E
:104F600003500000CD1D0100C11F01000000000022
:104F7000FC00000000000000000000000000000035
:104F8000000000008B02000001000000180000007B
:104F90001000000003400000CD1D0100011F0100B2
:104FA00000000000FC000000000000000000000005
:104FB00000000000000000008E0200000100000060
:104FC000180000001000000003400000CD1D01008B
:104FD000D11E010000000000FC00000000000000E5
:104FE0000000000000000000000000008903000035
:104FF0000100000018000000100000000540000043
:10500000CD1D0100711E010000000000FC00000029
:105010000000000000000000000000000000000090
:10502000AB01000010000000200000001000000094
:1050300002500000CD1D01005520010000000000BD
:10504000FC00000000000000000000000000000064
:1050500000000000AA010000100000002000000075
:105060000000000001500000CD1D010019200100CA
:1050700000000000FC000000000000000000000034
:105080000000000000000000AC0100000100000072
:10509000200000001000000004500000CD1D0100A1
:1050A000F11F010000000000FC00000000000000F3
:1050B000000000000000000000000000AD01000042
:1050C000010000002000000010000000035000005C
:1050D000CD1D0100C11F010000000000FC00000008
:1050E00000000000000000000000000000000000C0
:1050F0008C020000010000002000000010000000F1
:1051000003400000CD1D0100011F01000000000050
:10511000FC00000000000000000000000000000093
:10512000000000008F0200000100000020000000CD
:105130001000000003400000CD1D0100D11E010041
:1051400000000000FC000000000000000000000063
:1051500000000000000000008A03000001000000C1
:10516000200000001000000005400000CD1D0100DF
:10517000711E010000000000FC00000000000000A3
:1051800000000000000000000000000095A20400E4
:105190009BA204000000000001000000B80F040002
:1051A00000000000A5A20400ACA204000100000061
:1051B00006000000B90F040000000000C4A20400B3
:1051C000C9A204000200000007000000BF0F040095
:1051D0000000000000A30400E6A204000300000099
:1051E00008000000C60F0400000000001DA304001A
:1051F00044EE04000400000008000000CE0F04008C
:105200000000000056AF0400EAA204000500000000
:1052100008000000D60F040000000000EEA2040009
:10522000EEA204000600000009000000DE0F0400EA
:1052300000000000FCA2040004A30400070000001A
:1052400009000000E70F04000000000019A304009B
:1052500021A304000800000009000000F00F040072
:105260000000000036A3040042A30400090000006F
:1052700009000000F90F04000000000057A304001B
:1052800063A304000A0000000900000002100400EB
:105290000000000078A304007DA304000B000000C0
:1052A000010000000B1004000000000098A304009F
:1052B00098A304000C000000020000000C10040081
:1052C000000000009DA30400A0A304000D00000046
:1052D000030000000E100400000000007AE3040048
:1052E000ABA304000E000000030000001110040036
:1052F00000000000A0F80400B7A304000F000000A5
:10530000030000001410040000000000C4A3040007
:10531000C7A30400100000000300000017100400E1
:105320000000000042B20400DBA3040011000000F2
:10533000030000001A10040000000000ECA30400A9
:10534000EFA3040012000000030000001D10040081
:1053500000000000CDF7040006A4040013000000C4
:105360000400000020100400000000000AA4040053
:105370000AA4040014000000080000002410040027
:105380000000000010A4040010A404001500000098
:10539000090000002C100400000000001BA4040001
:1053A0001BA40400160000000900000035100400D2
:1053B000000000002CA404002CA40400170000002E
:1053C000090000003E1004000000000040A404009A
:1053D00040A4040018000000090000004710040069
:1053E000000000005DA404005DA40400190000009A
:1053F0000900000050100400000000006EA404002A
:105400006EA404001A0000000900000059100400F6
:105410000000000082A4040082A404001B0000001D
:1054200008000000621004000000000088A40400CE
:1054300088A404001C000000090000006A10040099
:105440000000000097A404009FA404001D000000B9
:10545000050000007310040000000000A7A4040071
:10546000AFA404001E000000050000007810040036
:105470000000000090B10400B7A404001F00000069
:10548000050000007D10040000000000BFA404001F
:10549000C7A40400200000000500000082100400E2
:1054A00000000000CFA40400D8A4040021000000E4
:1054B000000000000000000000000000E1A4040063
:1054C000EAA40400220000000B0000008710040082
:1054D00000000000F3A40400FCA40400230000006A
:1054E00000000000000000000000000005A504000E
:1054F0000EA50400240000000000000000000000D1
:105500000000000096A7040017A504002500000075
:105510000800000092100400000000001FA5040015
:1055200027A5040026000000000000000000000085
:10553000000000002FA5040037A50400270000008C
:105540000000000000000000000000003FA5040073
:1055500047A5040028000000000000000000000033
:10556000000000004FA704004FA504002900000020
:10557000050000009A1004000000000053A504007C
:105580005BA504002A000000050000009F10040035
:105590000000000070A504007CA504002B000000A2
:1055A00000000000000000000000000088A50400CA
:1055B00095A504002C00000008000000A4100400C1
:1055C00000000000A2A50400AAA504002D00000010
:1055D00005000000AC10040000000000B2A50400AB
:1055E000BBA504002E000000000000000000000029
:1055F00000000000C4A50400C4A504002F000000A2
:1056000008000000B110040000000000CAA504005A
:10561000CAA504003000000009000000B910040011
:1056200000000000D7A50400D7A504003100000049
:1056300009000000C210040000000000E8A50400FA
:10564000E8A504003200000009000000CB100400AF
:1056500000000000F4A50400F4A5040033000000DD
:1056600009000000D41004000000000002A604009D
:1056700002A604003400000009000000DD10040050
:10568000000000000EA604000EA604003500000075
:1056900009000000E6100400000000001FA604003E
:1056A0001FA604003600000009000000EF100400EF
:1056B0000000000031A6040031A6040037000000FD
:1056C00009000000F81004000000000045A60400D6
:1056D00045A6040038000000090000000111040084
:1056E0000000000063A604006CA60400390000005E
:1056F000070000000A110400000000008AA6040050
:1057000094A604003A0000000800000011110400F3
:1057100000000000B3A60400BEA604003B00000089
:10572000080000001911040000000000D1A60400C8
:10573000DDA604003C0000000000000000000000A6
:1057400000000000E9A60400F6A604003D000000E9
:1057500000000000000000000000000003A704009B
:105760000FA704003E000000000000000000000041
:10577000000000001BA7040028A704003F00000051
:105780000000000000000000000000001AAC04004F
:1057900029A20400400000000500000021110400BF
:1057A0000000000039A2040035A7040041000000F9
:1057B0000900000026110400000000004BA70400AF
:1057C00053A7040042000000050000002F11040050
:1057D000000000005EA7040066A70400430000006C
:1057E00005000000341104000000000078A7040048
:1057F00088A70400440000000900000039110400DB
:10580000000000009EA704009EA7040045000000C1
:10581000090000004211040000000000A5A70400D8
:10582000B2A7040046000000050000004B11040070
:1058300000000000C2A70400CDA70400470000003C
:10584000090000005011040000000000E0A704005F
:10585000EAA70400480000000900000059110400F4
:1058600000000000FCA704000CA804004900000090
:1058700009000000621104000000000024A80400D8
:1058800036A804004A000000090000006B11040063
:105890000000000051A804005EA804004B000000B6
:1058A00009000000741104000000000073A8040047
:1058B00081A804004C000000090000007D110400D4
:1058C0000000000098A80400A8A804004D000000F3
:1058D000090000008611040000000000C1A80400B7
:1058E000CBA804004E000000090000008F11040046
:1058F00000000000DCA80400EBA804004F0000003A
:1059000009000000981104000000000009A904002B
:1059100012A9040050000000000000000000000078
:10592000000000001BA904001BA904005100000096
:1059300002000000A11104000000000021A90400E1
:1059400036A904005200000003000000A311040067
:105950000000000054A904005DA9040053000000E9
:1059600003000000A6110400000000006EA904005E
:1059700084A904005400000003000000A9110400E1
:1059800000000000A4A90400B3A904005500000011
:1059900003000000AC11040000000000D3A90400C3
:1059A000E1A904005600000003000000AF1104004C
:1059B0000000000000AA040011AA04005700000023
:1059C00003000000B2110400000000002AAA040035
:1059D00034AA04005800000003000000B5110400C0
:1059E0000000000046AA04005AAA04005900000062
:1059F00003000000B81104000000000076AA0400B3
:105A00008DAA04005A00000003000000BB1104002E
:105A100000000000ADAA0400B4AA04005B0000006E
:105A200009000000BE11040000000000BBAA040031
:105A3000C2AA04005C00000000000000000000009A
:105A400000000000C9AA0400D0AA04005D00000004
:105A5000000000000000000000000000D7AA0400C1
:105A6000DEAA04005E00000000000000000000004C
:105A700000000000EEAA0400E5AA04005F00000098
:105A800004000000C711040000000000EAAA04009E
:105A9000F3AA04006000000004000000CB11040021
:105AA000000000003CAF0400FFAA040061000000F9
:105AB00000000000000000000000000006AB040031
:105AC00011AB0400620000000000000000000000B4
:105AD000000000001CAB04001FAB040063000000CA
:105AE00003000000CF1104000000000029AB0400F7
:105AF0002CAB04006400000003000000D21104007D
:105B00000000000034AB040034AB0400650000006A
:105B100003000000D5110400000000000000000098
:105B20000000000000000000000000000000000075
:105B3000000000003DAB040053AB04006700000010
:105B400003000000D81104000000000072AB040044
:105B50007DAB04006800000005000000DB110400BC
:105B60000000000088AB040088AB0400690000005E
:105B700003000000E01104000000000095AB0400E9
:105B800095AB04006A00000003000000E31104006C
:105B900000000000009B0400009B04006B0000005C
:105BA00003000000E6110400000000009BAB0400AD
:105BB000A5AB04006C00000009000000E91104001E
:105BC00000000000AFAB0400B9AB04006D000000A2
:105BD000000000000000000000000000C3AB040053
:105BE000CDAB04006E0000000000000000000000CB
:105BF00000000000D7AB0400E1AB04006F00000020
:105C0000000000000000000000000000EBAB0400FA
:105C1000EBAB04007000000009000000F21104006A
:105C20000000000001AC04000AAC04007100000098
:105C300007000000FB1104000000000016AC040087
:105C40001FAC040072000000000000000000000013
:105C5000000000002EA2040028AC04007300000025
:105C600005000000021204000000000021C804002A
:105C700034AC0400740000000700000007120400A8
:105C80000000000050AC040042AC040075000000AD
:105C9000050000000E1204000000000000000000DB
:105CA00000000000000000000000000000000000F4
:105CB000000000004CAC04005AAC04007700000067
:105CC0000600000013120400000000006BAC04008A
:105CD00073AC0400780000000800000019120400F2
:105CE000000000007BAC040083AC040079000000DD
:105CF0000000000000000000000000008BAC040069
:105D000093AC04007A0000000000000000000000D6
:105D1000000000009BAC0400A3AC04007B0000006A
:105D2000000000000000000000000000ABAC040018
:105D3000AFAC04007C00000006000000211204004B
:105D400000000000C6AC0400CBAC04007D000000E5
:105D50000B0000002712040000000000DCAC04006F
:105D6000EDAC04007E0000000300000032120400CD
:105D70000000000007AD040007AD04007F00000034
:105D80000600000035120400000000000CAD040005
:105D90000CAD040080000000070000003B1204006E
:105DA0000000000012AD04001DAD040081000000E1
:105DB0000800000042120400000000003BAD040097
:105DC00046AD040082000000080000004A120400F2
:105DD0000000000064AD0400EAAD04008300000090
:105DE00008000000521204000000000070AD040022
:105DF00080AD040084000000080000005A12040076
:105E00000000000092AD0400FEC004008500000008
:105E10000800000062120400000000009FAD0400B2
:105E2000A9AD0400860000000A0000006A12040008
:105E300000000000CBAD0400D5AD040087000000D9
:105E40000A0000007412040000000000F7AD040016
:105E500001AE0400880000000A0000007E12040069
:105E6000000000001EAE040024AE04008900000003
:105E70000A000000881204000000000042AE040086
:105E800048AE04008A0000000A00000092120400DC
:105E90000000000068AE04006EAE04008B0000003D
:105EA000090000009C120400000000008BAE0400FA
:105EB00094AE04008C00000003000000A512040052
:105EC00000000000AFAE0400B9AE04008D00000079
:105ED00003000000A812040000000000D0AE04007F
:105EE000DFAE04008E00000003000000AB120400CF
:105EF00000000000EFAE0400F7AE04008F000000C9
:105F000005000000AE120400000000000AAF04000B
:105F10001BAF0400900000000A000000B312040050
:105F20000000000033AF040043AF04009100000004
:105F30000A000000BD120400000000005AAF040077
:105F400068AF0400920000000A000000C7120400BD
:105F50000000000089AF040097AF04009300000028
:105F60000A000000D112040000000000B8AF0400D5
:105F7000C9AF0400940000000A000000DB12040016
:105F800000000000E5AF0400F5AF0400950000003C
:105F90000A000000E51204000000000010B0040038
:105FA00010B00400960000000B000000EF12040087
:105FB0000000000017B0040017B0040097000000B4
:105FC0000B000000FA120400000000002BB00400D7
:105FD0002BB00400980000000B0000000513040023
:105FE0000000000033B0040033B00400990000004A
:105FF0000B00000010130400000000003AB0040081
:106000003AB004009A0000000B0000001B130400CB
:106010000000000044B0040044B004009B000000F5
:106020000B000000261304000000000054B0040020
:1060300054B004009C00000009000000311304006B
:106040000000000061B0040061B004009D00000089
:10605000090000003A130400000000006CB00400C6
:106060006CB004009E0000000A000000431304000E
:10607000000000007CB004007CB004009F00000021
:106080000A0000004D130400000000008CB0040062
:106090008CB00400A00000000A00000057130400A8
:1060A0000000000094B0040094B00400A1000000BF
:1060B0000900000061130400000000009AB0040011
:1060C0009AB00400A2000000090000006A13040056
:1060D00000000000A1B00400A1B00400A300000073
:1060E000080000007313040000000000AEB00400BC
:1060F000B8B00400A4000000080000007B130400F6
:1061000000000000CDB00400DBB00400A5000000DA
:10611000080000008313040000000000F8B0040031
:1061200003B10400A6000000000000000000000011
:10613000000000000EB1040019B10400A700000027
:10614000090000008B130400000000002DB10400C2
:106150003CB10400A80000000900000094130400F2
:106160000000000051B1040060B10400A90000006B
:10617000090000009D1304000000000075B1040038
:1061800082B10400AA00000009000000A613040068
:106190000000000098B10400A1B10400AB000000B1
:1061A0000A000000AF13040000000000BDB10400AD
:1061B000ABB10400AC00000009000000B9130400FA
:1061C000000000004E9504004E950400AD00000054
:1061D00003000000C213040000000000C4B104006A
:1061E000C4B10400AE00000003000000C5130400A9
:1061F00000000000D0B10400D0B10400AF000000E6
:1062000007000000C813040000000000D6B104001D
:10621000D6B10400B000000007000000CF13040056
:1062200000000000DCB10400F0B10400B100000087
:1062300008000000D6130400000000000DB20400A6
:106240000DB20400B200000008000000DE130400DC
:106250000000000012B204001CB20400B3000000F1
:1062600008000000E61304000000000027B204004C
:1062700033B20400B400000008000000EE13040074
:106280000000000040B2040044B20400B500000069
:1062900001000000F61304000000000048B20400F2
:1062A00054B20400B600000001000000F71304001F
:1062B0000000000064B204006BB20400B7000000EC
:1062C00003000000F8130400000000007EB2040088
:1062D00084B20400B800000005000000FB130400B5
:1062E000000000008AB204008FB20400B900000070
:1062F0000600000000140400000000009AB2040030
:106300009AB20400BA00000008000000061404005D
:1063100000000000A0B20400A0B20400BB00000016
:10632000080000000E14040000000000A6B20400E3
:10633000ACB20400BC000000090000001614040008
:1063400000000000B3B20400B3B20400BD000000BE
:106350000A0000001F14040000000000C0B2040086
:10636000C0B20400BE0000000A00000029140400AE
:1063700000000000CCB20400CCB20400BF0000005A
:106380000A0000003314040000000000D8B204002A
:10639000D8B20400C00000000A0000003D14040050
:1063A00000000000E5B20400E5B20400C1000000F6
:1063B0000A0000004714040000000000F1B20400CD
:1063C000F1B20400C20000000A00000051140400F1
:1063D00000000000FEB20400FEB20400C300000092
:1063E0000A0000005B140400000000000BB304006E
:1063F0000BB30400C40000000B000000651404008F
:10640000000000001CB304001CB30400C500000021
:106410000B00000070140400000000002DB3040005
:106420002DB30400C60000000B0000007B14040024
:10643000000000003EB304003EB30400C7000000AB
:106440000B000000861404000000000052B304009A
:1064500052B30400C80000000B00000091140400B7
:106460000000000071B3040071B30400C900000013
:106470000B0000009C1404000000000090B3040016
:1064800090B30400CA0000000B000000A714040031
:1064900000000000AFB30400AFB30400CB00000065
:1064A0000B000000B214040000000000CEB3040092
:1064B000CEB30400CC0000000B000000BD140400AB
:1064C00000000000E2B30400E2B30400CD000000CD
:1064D0000B000000C814040000000000F7B3040023
:1064E000F7B30400CE0000000B000000D31404003A
:1064F000000000000FB404000FB40400CF0000003F
:106500000B000000DE1404000000000023B40400AF
:1065100023B40400D00000000B000000E9140400C4
:106520000000000037B4040037B40400D1000000BC
:106530000B000000F4140400000000004FB404003D
:106540004FB40400D20000000B000000FF14040050
:10655000000000006BB404006BB40400D300000022
:106560000B0000000A1504000000000088B40400BD
:1065700088B40400D40000000B00000015150400CE
:1065800000000000A3B40400A3B40400D500000080
:106590000B0000002015040000000000BDB4040042
:1065A000BDB40400D60000000B0000002B15040051
:1065B00000000000D9B40400D9B40400D7000000E2
:1065C0000B0000003615040000000000F1B40400C8
:1065D000F1B40400D80000000B00000041150400D5
:1065E000000000000AB504000AB50400D90000004C
:1065F0000B0000004C1504000000000027B504004B
:1066000027B50400DA0000000B0000005715040055
:106610000000000045B5040045B50400DB000000A3
:106620000B00000062150400000000005AB50400D1
:106630005AB50400DC0000000B0000006D150400DA
:106640000000000077B5040077B50400DD0000000D
:106650000B000000781504000000000094B5040051
:1066600094B50400DE0000000B0000008315040058
:1066700000000000AEB50400AEB50400DF0000006D
:106680000B0000008E15040000000000CDB50400D2
:10669000CDB50400E00000000B00000099150400D7
:1066A00000000000EBB50400EBB50400E1000000C1
:1066B0000B000000A41504000000000006B6040052
:1066C00006B60400E20000000B000000AF15040055
:1066D0000000000022B6040022B60400E30000001F
:1066E0000B000000BA1504000000000041B60400D1
:1066F00041B60400E40000000B000000C5150400D2
:106700000000000060B6040060B60400E500000070
:106710000B000000D0150400000000007BB6040050
:106720007BB60400E60000000B000000DB1504004F
:106730000000000098B6040098B60400E7000000CE
:106740000B000000E615040000000000B9B60400CC
:10675000B9B60400E80000000B000000F1150400C9
:1067600000000000D9B60400D9B60400E90000001A
:106770000B000000FC15040000000000F8B6040047
:10678000F8B60400EA0000000B0000000716040041
:106790000000000013B7040013B70400EB00000072
:1067A0000B000000121604000000000034B70400C3
:1067B00034B70400EC0000000B0000001D160400BC
:1067C0000000000051B7040051B70400ED000000C4
:1067D0000B000000281604000000000072B704003F
:1067E00072B70400EE0000000B0000003316040036
:1067F0000000000093B7040093B70400EF0000000E
:106800000B0000003E16040000000000ADB70400BD
:10681000ADB70400F00000000B00000049160400B2
:1068200000000000C2B70400C2B70400F10000007D
:106830000B0000005416040000000000DCB7040048
:10684000DCB70400F20000000B0000005F1604003B
:1068500000000000F5B70400F5B70400F3000000E5
:106860000B0000006A160400000000000BB80400D2
:106870000BB80400F40000000B00000075160400C3
:106880000000000020B8040020B80400F50000005B
:106890000B000000801604000000000032B8040065
:1068A00032B80400F60000000B0000008B16040054
:1068B000000000004BB804004BB80400F7000000D3
:1068C0000B000000961604000000000063B80400EE
:1068D00063B80400F80000000B000000A1160400DB
:1068E0000000000074B8040074B80400F90000004F
:1068F0000B000000AC160400000000008DB804007E
:106900008DB80400FA0000000B000000B716040068
:1069100000000000AAB80400AAB80400FB000000B0
:106920000B000000C216040000000000C9B80400FB
:10693000C9B80400FC0000000B000000CD160400E4
:1069400000000000E9B80400E9B80400FD00000000
:106950000B000000D8160400000000000AB9040073
:106960000AB90400FE0000000B000000E31604005A
:106970000000000029B9040029B90400FF0000004C
:106980000B000000EE160400000000004AB90400ED
:106990004AB90400000100000B000000F9160400D1
:1069A0000000000084C304006BB904000101000072
:1069B0000800000004170400000000006FB9040084
:1069C0006FB9040002010000070000000C1704006A
:1069D000000000007BB904007BB904000301000043
:1069E00007000000131704000000000081B9040034
:1069F00081B9040004010000070000001A17040018
:106A00000000000087B9040087B9040005010000F8
:106A10000700000021170400000000008FB90400E7
:106A20008FB90400060100000700000028170400C9
:106A30000000000096B9040096B9040007010000A8
:106A4000070000002F170400000000009DB904009B
:106A50009DB904000801000007000000361704007B
:106A600000000000A3B90400A3B90400090100005C
:106A7000070000003D17040000000000AAB9040050
:106A8000AAB904000A01000007000000441704002E
:106A900000000000B1B90400B1B904000B0100000E
:106AA000070000004B17040000000000B8B9040004
:106AB000B8B904000C0100000700000052170400E0
:106AC00000000000BFB90400BFB904000D010000C0
:106AD000080000005917040000000000D4B90400A9
:106AE000D4B904000E010000080000006117040082
:106AF00000000000E9B90400E9B904000F0100003A
:106B0000080000006917040000000000FEB904003E
:106B1000FEB9040010010000080000007117040015
:106B20000000000013BA040013BA040011010000B1
:106B30000800000079170400000000001FBA0400DC
:106B40001FBA0400120100000800000081170400B1
:106B5000000000002ABA04002ABA04001301000051
:106B600008000000891704000000000040BA04007B
:106B700040BA04001401000008000000911704004E
:106B80000000000056BA040056BA040015010000C7
:106B900008000000991704000000000061BA04001A
:106BA00061BA04001601000008000000A1170400EB
:106BB000000000007ABA04007ABA0400170100004D
:106BC00008000000A91704000000000093BA0400A8
:106BD00093BA04001801000008000000B117040077
:106BE00000000000A9BA0400A9BA040019010000BD
:106BF00008000000B917040000000000C3BA040038
:106C0000C3BA04001A01000008000000C117040004
:106C100000000000CFBA0400CFBA04001B0100003E
:106C200008000000C917040000000000DBBA0400DF
:106C3000DBBA04001C01000008000000D1170400AA
:106C400000000000EABA0400F8BA04001D010000C8
:106C500008000000D91704000000000007BB040072
:106C600007BB04001E01000008000000E11704003B
:106C70000000000014BB040014BB04001F0100004E
:106C800008000000E91704000000000023BB040016
:106C900023BB04002001000008000000F1170400DD
:106CA0000000000030BB040030BB040021010000E4
:106CB00008000000F9170400000000003BBB0400BE
:106CC0003BBB040022010000080000000118040082
:106CD000000000004CBB04004CBB0400230100007A
:106CE00008000000091804000000000062BB040056
:106CF00062BB040024010000080000001118040019
:106D00000000000078BB040078BB040025010000EF
:106D100008000000191804000000000083BB0400F4
:106D200092BB0400260100000800000021180400A6
:106D300000000000A3BB0400AFBB0400270100005B
:106D4000080000002918040000000000BCBB04007B
:106D5000C6BB040028010000080000003118040030
:106D6000000000000FC1040017C104002901000049
:106D7000080000003918040000000000D1BB040026
:106D8000D1BB04002A0100000800000041180400E3
:106D900000000000E5BB0400E5BB04002B0100007F
:106DA000080000004918040000000000FCBB0400BB
:106DB000FCBB04002C010000080000005118040076
:106DC0000000000012BC040012BC04002D010000F1
:106DD00008000000591804000000000029BC04004D
:106DE00029BC04002E010000080000006118040006
:106DF000000000003FBC04003FBC04002F01000065
:106E000008000000691804000000000050BC0400E5
:106E100050BC04003001000008000000711804009C
:106E20000000000066BC040066BC040031010000E4
:106E300008000000791804000000000080BC040075
:106E400080BC04003201000008000000811804002A
:106E5000000000009BBC04009BBC04003301000048
:106E6000080000008918040000000000B1BC040004
:106E7000B1BC0400340100000800000091180400B7
:106E800000000000C7BC0400C7BC040035010000BE
:106E9000080000009918040000000000DBBC04009A
:106EA000DBBC04003601000008000000A11804004B
:106EB00000000000F1BC0400F1BC04003701000038
:106EC00008000000A91804000000000007BD04002D
:106ED00007BD04003801000008000000B1180400DC
:106EE000000000001CBD04001CBD040039010000AE
:106EF00008000000B91804000000000027BD0400CD
:106F000027BD04003A01000008000000C118040079
:106F10000000000032BD040032BD04003B0100004F
:106F200009000000C91804000000000046BD04006C
:106F300046BD04003C01000009000000D218040016
:106F4000000000005FBD04005FBD04003D010000C3
:106F500009000000DB180400000000007DBD0400F3
:106F60007DBD04003E01000009000000E41804009B
:106F7000000000009ABD04009ABD04003F0100001B
:106F800009000000ED18040000000000AFBD04007F
:106F9000AFBD04004001000009000000F618040025
:106FA00000000000CABD0400CABD04004101000089
:106FB00009000000FF18040000000000DFBD04000D
:106FC000DFBD0400420100000900000008190400B0
:106FD00000000000F2BD0400F2BD04004301000007
:106FE000080000001119040000000000FFBD0400AB
:106FF000FFBD04004401000008000000191904004E
:107000000000000012BE040012BE04004501000092
:107010000800000021190400000000002ABE04003E
:107020002ABE0400460100000800000029190400DF
:107030000000000038BE040038BE04004701000014
:107040000800000031190400000000004ABE0400DE
:107050004ABE04004801000008000000391904007D
:107060000000000060BE040060BE04004901000092
:1070700008000000411904000000000075BE040073
:1070800075BE04004A010000080000004919040010
:107090000000000087BE040087BE04004B01000012
:1070A0000800000051190400000000009CBE04000C
:1070B0009CBE04004C0100000800000059190400A7
:1070C00000000000AFBE0400AFBE04004D01000090
:1070D000080000006119040000000000C5BE0400A3
:1070E000C5BE04004E01000008000000691904003C
:1070F00000000000DABE0400DABE04004F01000008
:10710000080000007119040000000000EEBE040039
:10711000EEBE0400500100000800000079190400D0
:107120000000000002BF040002BF04005101000083
:1071300008000000811904000000000017BF0400CF
:1071400017BF040052010000080000008919040064
:107150000000000026BF040026BF04005301000009
:1071600008000000911904000000000034BF040072
:1071700034BF040054010000080000009919040005
:107180000000000049BF040049BF04005501000091
:1071900008000000A11904000000000058BF04000E
:1071A00058BF04005601000008000000A91904009F
:1071B000000000006CBF04006CBF04005701000019
:1071C00008000000B11904000000000080BF0400A6
:1071D00080BF04005801000008000000B919040035
:1071E0000000000095BF040095BF04005901000095
:1071F00008000000C119040000000000ABBF04003B
:10720000ABBF04005A01000008000000C9190400C7
:1072100000000000C8BF0400C8BF04005B010000FC
:1072200008000000D119040000000000DBBF0400CA
:10723000DBBF04005C01000008000000D919040055
:1072400000000000EEBF0400EEBF04005D0100007E
:1072500008000000E1190400000000000000000028
:10726000000000000000000000000000000000001E
:107270000000000002C0040002C004005F01000022
:1072800008000000E91904000000000010C004001C
:1072900010C004006001000008000000F1190400A3
:1072A000000000002CC004002CC00400610100009C
:1072B00008000000F91904000000000046C00400A6
:1072C00046C004006201000008000000011A04002A
:1072D0000000000060C0040060C004006301000002
:1072E00008000000091A04000000000076C0040035
:1072F00076C004006401000008000000111A0400B8
:10730000000000008EC004008EC004006501000073
:1073100008000000191A0400000000009BC00400CF
:107320009BC004006601000008000000211A040050
:1073300000000000A7C00400A7C00400670100000F
:1073400008000000291A040000000000BEC004006C
:10735000BEC004006801000008000000311A0400EB
:1073600000000000C9C00400C9C004006901000099
:1073700008000000391A040000000000D8C0040012
:10738000D8C004006A01000008000000411A04008F
:1073900000000000EBC00400FBC004006B01000013
:1073A00008000000491A0400000000000CC104009D
:1073B00014C104006C01000008000000511A040010
:1073C000000000001CC104002EC104006D0100007B
:1073D00009000000591A04000000000047C1040021
:1073E00042C104006E01000009000000621A04009E
:1073F000000000004DC1040053C104006F010000F3
:10740000090000006B1A0400000000005FC10400C6
:1074100073C104007001000009000000741A040028
:10742000000000008DC1040095C10400710100003E
:10743000090000007D1A040000000000A3C1040040
:10744000B1C104007201000009000000861A0400A6
:1074500000000000C5C10400D4C104007301000095
:10746000090000008F1A040000000000E9C10400B8
:10747000F8C104007401000009000000981A04001B
:10748000000000000DC204000DC2040075010000E0
:1074900009000000A11A04000000000013C204004B
:1074A00013C204007601000009000000AA1A0400BB
:1074B0000000000018C2040022C20400770100008E
:1074C00009000000B31A0400000000002DC20400EF
:1074D0002DC204007801000004000000BC1A040062
:1074E0000000000037C2040037C204007901000028
:1074F00005000000C01A04000000000044C204009F
:1075000053C204007A01000002000000C51A040002
:107510000000000073C2040077C204007B01000079
:1075200001000000C71A0400000000007BC2040034
:107530007FC204007C01000002000000C81A0400A1
:107540000000000083C2040088C204007D01000026
:1075500003000000CA1A0400000000008DC20400ED
:1075600097C204007E01000004000000CD1A040050
:1075700000000000A1C20400A6C204007F010000B8
:1075800004000000D11A040000000000B1C2040091
:10759000BEC204008001000004000000D51A0400EF
:1075A00000000000CBC20400D3C20400810100002F
:1075B00004000000D91A040000000000DBC204002F
:1075C000E4C204008201000004000000DD1A04008F
:1075D00000000000EDC20400F4C2040083010000BA
:1075E00004000000E11A040000000000FBC20400D7
:1075F000FBC204008401000004000000E51A04003E
:107600000000000000C304000CC30400850100005A
:1076100005000000E91A04000000000018C304007F
:1076200021C304008601000009000000EE1A0400D6
:10763000000000002AC304002DC3040087010000DD
:107640000A000000F71A0400000000003DC3040017
:10765000CAC70400880100000A000000011B0400E2
:10766000000000009DF804009DF80400890100005E
:10767000010000000B1B04000000000044C30400D4
:107680005DC304008A010000030000000C1B04001D
:107690000000000076C3040076C304008B010000E4
:1076A000040000000F1B04000000000080C3040061
:1076B00088C304008C01000009000000131B0400B3
:1076C000000000009DC304009DC304008D01000064
:1076D000080000001C1B040000000000A9C30400F7
:1076E000BBC304008E01000008000000241B04003E
:1076F00000000000D6C30400D6C304008F010000C0
:10770000080000002C1B040000000000A2C00400C0
:10771000A2C004009001000003000000341B04001C
:1077200000000000E6C30400F8C30400910100005B
:1077300003000000371B04000000000012C4040016
:1077400024C4040092010000030000003A1B04005E
:107750000000000038C4040043C40400930100008A
:10776000030000003D1B0400000000009DF8040021
:107770009DF804009401000001000000401B04007B
:107780000000000062C404006DC404009501000004
:1077900005000000411B04000000000078C4040044
:1077A00078C404009601000007000000461B040096
:1077B0000000000084C4040084C404009701000099
:1077C000070000004D1B0400000000009DC40400E1
:1077D0009DC404009801000007000000541B040031
:1077E00000000000ACC40400ACC404009901000017
:1077F000080000005B1B040000000000B7C4040088
:10780000B7C404009A01000008000000631B0400D4
:1078100000000000C2C40400C2C404009B010000B8
:10782000080000006B1B040000000000CDC4040031
:10783000CDC404009C01000008000000731B04007C
:1078400000000000D8C40400D8C404009D0100005A
:10785000080000007B1B040000000000E3C40400DB
:10786000E3C404009E01000008000000831B040024
:1078700000000000EEC40400EEC404009F010000FC
:10788000080000008B1B040000000000F9C4040085
:10789000F9C40400A001000007000000931B0400CD
:1078A0000000000009C5040011C50400A10100008A
:1078B000090000009A1B04000000000024C5040019
:1078C00030C50400A201000009000000A31B040051
:1078D000000000003CC5040048C50400A3010000EE
:1078E00009000000AC1B04000000000054C50400A7
:1078F00060C50400A401000009000000B51B0400DD
:10790000000000006CC5040078C50400A50100005B
:1079100009000000BE1B04000000000084C5040034
:1079200090C50400A601000009000000C71B040068
:10793000000000009CC50400A8C50400A7010000C9
:1079400009000000D01B040000000000B4C50400C2
:10795000C0C50400A801000009000000D91B0400F4
:1079600000000000CCC50400D8C50400A901000037
:1079700009000000E21B040000000000E4C5040050
:10798000F0C50400AA01000009000000EB1B040080
:1079900000000000FCC5040008C60400AB010000A4
:1079A00009000000F41B04000000000014C60400DD
:1079B00020C60400AC01000009000000FD1B04000B
:1079C000000000002CC6040038C60400AD01000011
:1079D00009000000061C04000000000044C604006A
:1079E00058C60400AE010000030000000F1C040094
:1079F000000000006EC6040082C60400AF01000053
:107A000007000000121C04000000000098C60400DB
:107A1000B2C60400B001000007000000191C0400F9
:107A200000000000CFC60400E5C60400B10100005C
:107A300007000000201C04000000000016A4040041
:107A400016A40400B201000001000000271C04007D
:107A500000000000FDC60400FDC60400B3010000E4
:107A600003000000281C04000000000001C70400FF
:107A700001C70400B4010000070000002B1C040033
:107A80000000000005C7040005C70400B5010000A0
:107A900008000000321C0400000000000BC70400B6
:107AA0000BC70400B6010000090000003A1C0400E6
:107AB000000000001EC704001EC70400B70100003C
:107AC00009000000431C04000000000033C704004C
:107AD00033C70400B8010000090000004C1C04007A
:107AE0000000000044C7040044C70400B9010000BE
:107AF00009000000551C04000000000050C70400ED
:107B000050C70400BA0100000A0000005E1C040017
:107B10000000000060C7040060C70400BB01000053
:107B20000A000000681C0400000000007AC704007E
:107B30007AC70400BC0100000A000000721C0400A7
:107B40000000000086C7040086C70400BD010000D5
:107B50000A0000007C1C04000000000092C7040022
:107B600092C70400BE0100000A000000861C040049
:107B7000000000009AC704009AC70400BF0100007B
:107B80000A000000901C040000000000A3C70400CD
:107B9000A3C70400C00100000A0000009A1C0400F2
:107BA00000000000A8C70400A8C70400C10100002D
:107BB0000A000000A41C040000000000B7C7040075
:107BC000B7C70400C20100000A000000AE1C040098
:107BD00000000000C7C70400C7C70400C3010000BD
:107BE0000A000000B81C040000000000D1C7040017
:107BF000D1C70400C40100000A000000C21C040038
:107C000000000000E5C70400E5C70400C50100004E
:107C10000A000000CC1C040000000000F5C70400AE
:107C2000F5C70400C60100000A000000D61C0400CD
:107C3000000000000AC804000AC80400C7010000D0
:107C40000A000000E01C0400000000001CC8040042
:107C50001CC80400C80100000A000000EA1C04005F
:107C60000000000025C8040025C80400C901000068
:107C70000A000000F41C04000000000097960400B5
:107C800039C80400CA0100000A000000FE1C0400FC
:107C90000000000040C8040040C80400CB01000000
:107CA0000A000000081D04000000000055C8040080
:107CB0005AC80400CC0100000A000000121D040094
:107CC0000000000068C8040068C80400CD0100007E
:107CD0000A0000001C1D0400000000006DC8040024
:107CE0006DC80400CE0100000A000000261D04003B
:107CF000000000007CC804007CC80400CF01000024
:107D00000A000000301D04000000000087C80400C5
:107D100087C80400D00100000A0000003A1D0400DA
:107D2000000000008DC804008DC80400D1010000CF
:107D30000A000000441D04000000000097C8040071
:107D400097C80400D20100000A0000004E1D040084
:107D5000000000009CC804009CC80400D30100007F
:107D60000A000000581D040000000000A4C8040020
:107D7000A4C80400D40100000A000000621D040031
:107D800000000000B7C80400B7C80400D501000017
:107D90000A0000006C1D040000000000C5C80400BB
:107DA000C5C80400D60100000A000000761D0400CA
:107DB00000000000D5C80400D5C80400D7010000A9
:107DC0000A000000801D040000000000E4C8040058
:107DD000E4C80400D80100000A0000008A1D040065
:107DE00000000000F5C80400F5C80400D901000037
:107DF0000A000000941D04000000000009C90400EE
:107E000009C90400DA0100000A0000009E1D0400F8
:107E10000000000013C9040013C90400DB010000C6
:107E20000A000000A81D04000000000020C9040092
:107E300020C90400DC0100000A000000B21D04009B
:107E40000000000031C9040031C90400DD01000058
:107E50000A000000BC1D04000000000040C904002E
:107E600040C90400DE0100000A000000C61D040035
:107E70000000000048C9040048C90400DF010000F8
:107E80000A000000D01D0400000000005DC90400CD
:107E90005DC90400E00100000A000000DA1D0400D2
:107EA0000000000066C9040066C90400E10100008A
:107EB0000A000000E41D0400000000006FC9040077
:107EC0006FC90400E20100000A000000EE1D04007A
:107ED0000000000079C9040079C90400E301000032
:107EE0000A000000F81D04000000000085C904001D
:107EF00085C90400E40100000A000000021E04001D
:107F00000000000096C9040096C90400E5010000C5
:107F10000A0000000C1E040000000000A5C90400B7
:107F2000A5C90400E60100000A000000161E0400B6
:107F300000000000B7C90400B7C90400E701000051
:107F40000A000000201E040000000000C5C9040053
:107F5000C5C90400E80100000A0000002A1E040050
:107F600000000000DBC90400DBC90400E9010000D7
:107F70000A000000341E040000000000F0C90400E4
:107F8000F0C90400EA0100000A0000003E1E0400DF
:107F90000000000004CA040004CA0400EB01000051
:107FA0000A000000481E04000000000019CA040076
:107FB00019CA0400EC0100000A000000521E04006F
:107FC0000000000026CA040026CA0400ED010000DB
:107FD0000A0000005C1E0400000000003BCA040010
:107FE0003BCA0400EE0100000A000000661E040007
:107FF0000000000048CA040048CA0400EF01000065
:108000000A000000701E04000000000053CA0400B3
:1080100053CA0400F00100000A0000007A1E0400A8
:108020000000000066CA040066CA0400F1010000F6
:108030000A000000841E0400000000007CCA040046
:108040007CCA0400F20100000A0000008E1E040039
:108050000000000092CA040092CA0400F30100006C
:108060000A000000981E040000000000A4CA0400DA
:10807000A4CA0400F40100000A000000A21E0400CB
:1080800000000000B0CA0400B0CA0400F5010000FE
:108090000A000000AC1E040000000000B6CA040084
:1080A000B6CA0400F60100000A000000B61E040073
:1080B00000000000C8CA0400C8CA0400F70100009C
:1080C00003000000C01E040000000000DDCA040020
:1080D000E6CA0400F801000005000000C31E040009
:1080E00000000000EFCA0400EFCA0400F90100001C
:1080F00006000000C81E04000000000001CB0400C0
:1081000001CB0400FA01000006000000CE1E0400AE
:108110000000000011CB040011CB0400FB010000A3
:1081200007000000D41E04000000000028CB04005B
:1081300028CB0400FC01000007000000DB1E040047
:108140000000000041CB040041CB0400FD01000011
:1081500003000000E21E04000000000055CB0400F4
:1081600055CB0400FE01000003000000E51E0400E2
:1081700000000000000000000000000000000000FF
:108180000000000000000000000000005FCB0400C1
:1081900066CB04000002000002000000E81E04009C
:1081A0000000000085CB04008FCB0400010200001A
:1081B00003000000EA1E0400000000009DCB040044
:1081C000A8CB04000202000003000000ED1E040022
:1081D00000000000BBCB0400BBCB04000302000086
:1081E00003000000F01E040000000000C4CB0400E7
:1081F000C4CB04000402000003000000F31E0400CE
:1082000000000000CFCB0400DBCB0400050200001F
:1082100003000000F61E040000000000F2CB040082
:10822000F2CB04000602000003000000F91E040067
:1082300000000000FCCB0400FCCB0400070200009F
:1082400004000000FC1E0400000000000ACC040032
:108250000ACC04000802000004000000001F040013
:108260000000000019CC040019CC04000902000031
:1082700004000000041F04000000000027CC0400DC
:1082800027CC04000A02000004000000081F0400BC
:108290000000000034CC040034CC04000B020000C9
:1082A000040000000C1F0400000000003DCC04008E
:1082B0003DCC04000C02000004000000101F04006C
:1082C000000000004ACC04004ACC04000D0200006B
:1082D00004000000141F0400000000005FCC040034
:1082E0005FCC04000E02000004000000181F040010
:1082F000000000006ECC04006ECC04000F020000F1
:10830000040000001C1F04000000000083CC0400D7
:1083100083CC04001002000004000000201F0400B1
:10832000000000009BCC04009BCC04001102000064
:1083300004000000241F040000000000B3CC04006F
:10834000B3CC04001202000004000000281F040047
:1083500000000000C5CC0400C5CC040013020000DE
:10836000040000002C1F040000000000D8CC040012
:10837000D8CC04001402000004000000301F0400E8
:1083800000000000E5CC0400E5CC0400150200006C
:1083900004000000341F040000000000F4CC0400BE
:1083A000F4CC04001602000004000000381F040092
:1083B0000000000005CD040005CD040017020000F8
:1083C000040000003C1F04000000000016CD040063
:1083D00016CD04001802000004000000401F040035
:1083E0000000000028CD040028CD04001902000080
:1083F00004000000441F0400000000003BCD040006
:108400003BCD04001A02000004000000481F0400D5
:10841000000000004ECD04004ECD04001B02000001
:10842000040000004C1F04000000000060CD0400A8
:1084300060CD04001C02000004000000501F040076
:108440000000000075CD040075CD04001D02000081
:1084500004000000541F04000000000089CD040047
:1084600089CD04001E02000004000000581F040013
:10847000000000009ECD04009ECD04001F020000FD
:10848000040000005C1F040000000000B2CD0400E6
:10849000B2CD04002002000004000000601F0400B0
:1084A00000000000C2CD0400C2CD04002102000083
:1084B00004000000641F040000000000D3CD04008D
:1084C000D3CD04002202000004000000681F040055
:1084D00000000000E4CD0400E4CD0400230200000D
:1084E000040000006C1F040000000000F7CD040031
:1084F000F7CD04002402000004000000701F0400F7
:10850000000000000BCE04000BCE0400250200008A
:1085100004000000741F0400000000001FCE0400CF
:108520001FCE04002602000004000000781F040093
:108530000000000030CE040030CE0400270200000E
:10854000040000007C1F04000000000042CE040074
:1085500042CE04002802000004000000801F040036
:108560000000000054CE040054CE04002902000094
:1085700004000000841F04000000000068CE040016
:1085800068CE04002A02000004000000881F0400D6
:10859000000000007DCE04007DCE04002B02000010
:1085A000040000008C1F04000000000092CE0400B4
:1085B00092CE04002C02000004000000901F040072
:1085C00000000000A5CE0400A5CE04002D0200008E
:1085D00004000000941F040000000000B7CE040057
:1085E000B7CE04002E02000004000000981F040013
:1085F00000000000CFCE0400CFCE04002F02000008
:10860000040000009C1F040000000000E7CE0400EE
:10861000E7CE04003002000004000000A01F0400A8
:1086200000000000FDCE0400FDCE04003102000079
:1086300004000000A41F04000000000013CF040089
:1086400013CF04003202000004000000A81F040041
:108650000000000027CF040027CF040033020000F1
:1086600004000000AC1F04000000000039CF04002B
:1086700039CF04003402000004000000B01F0400E1
:10868000000000004ACF04004ACF04003502000079
:1086900004000000B41F0400000000005CCF0400D0
:1086A0005CCF04003602000004000000B81F040084
:1086B0000000000070CF040070CF040037020000FB
:1086C00004000000BC1F0400000000007FCF040075
:1086D0007FCF04003802000004000000C01F040027
:1086E0000000000095CF040095CF0400390200007F
:1086F00004000000C41F040000000000A9CF040013
:10870000A9CF04003A02000004000000C81F0400C2
:1087100000000000BACF0400BACF04003B02000002
:1087200004000000CC1F040000000000CBCF0400B8
:10873000CBCF04003C02000004000000D01F040066
:1087400000000000DDCF0400DDCF04003D0200008A
:1087500004000000D41F040000000000F0CF04005B
:10876000F0CF04003E02000004000000D81F040007
:108770000000000002D0040002D004003F0200000C
:1087800004000000DC1F04000000000015D00400FD
:1087900015D004004002000004000000E01F0400A7
:1087A000000000002DD004002DD004004102000084
:1087B00004000000E41F04000000000041D0040099
:1087C00041D004004202000004000000E81F040041
:1087D0000000000055D0040055D004004302000002
:1087E00004000000EC1F0400000000006AD0040038
:1087F0006AD004004402000004000000F01F0400DE
:10880000000000007AD004007AD004004502000085
:1088100004000000F41F0400000000008BD00400DE
:108820008BD004004602000004000000F81F040082
:10883000000000009BD004009BD004004702000011
:1088400004000000FC1F040000000000AED0040083
:10885000AED0040048020000040000000020040024
:1088600000000000C2D00400C2D004004902000091
:10887000040000000420040000000000D5D0040023
:10888000D5D004004A0200000400000008200400C3
:1088900000000000E6D00400E6D004004B02000017
:1088A000040000000C20040000000000F8D00400C8
:1088B000F8D004004C020000040000001020040066
:1088C0000000000009D1040009D104004D0200009D
:1088D0000400000014200400000000001DD104006A
:1088E0001DD104004E020000040000001820040006
:1088F0000000000032D1040032D104004F02000019
:10890000040000001C2004000000000046D1040008
:1089100046D10400500200000400000020200400A2
:10892000000000005DD104005DD104005102000090
:1089300004000000242004000000000074D10400A2
:1089400074D104005202000004000000282004003A
:108950000000000088D1040088D104005302000008
:10896000040000002C2004000000000099D1040045
:1089700099D10400540200000400000030200400DB
:1089800000000000ABD10400ABD104005502000090
:10899000040000003420040000000000BCD10400EA
:1089A000BCD104005602000004000000382004007E
:1089B00000000000D5D10400D5D10400570200000A
:1089C000040000003C20040000000000F1D104007D
:1089D000F1D104005802000004000000402004000F
:1089E000000000000AD204001AD20400590200005C
:1089F0000400000044200400000000002DD2040008
:108A00003BD204005A020000040000004820040089
:108A10000000000053D2040053D204005B020000A7
:108A2000040000004C2004000000000064D2040098
:108A300064D204005C020000040000005020040026
:108A40000000000072D2040072D204005D02000037
:108A500004000000542004000000000080D2040044
:108A60008AD204005E0200000400000058200400C6
:108A700000000000A2D20400A2D204005F020000A5
:108A8000040000005C20040000000000B2D20400DA
:108A9000B2D2040060020000040000006020040064
:108AA00000000000C5D20400C5D20400610200002D
:108AB000040000006420040000000000D6D204007E
:108AC000D6D2040062020000040000006820040006
:108AD00000000000E8D20400E8D2040063020000B5
:108AE000040000006C20040000000000FED204001E
:108AF000FED20400640200000400000070200400A4
:108B00000000000010D3040010D304006502000030
:108B10000400000074200400000000001FD30400C3
:108B20001FD3040066020000040000007820040047
:108B30000000000030D3040030D3040067020000BE
:108B4000040000007C2004000000000049D3040061
:108B500049D30400680200000400000080200400E3
:108B60000000000061D3040061D30400690200002A
:108B700004000000842004000000000074D30400FE
:108B800074D304006A02000004000000882004007E
:108B90000000000086D3040086D304006B020000AE
:108BA000040000008C20040000000000A1D3040099
:108BB000A1D304006C020000040000009020040017
:108BC00000000000AED30400BED304006D0200001C
:108BD000040000009420040000000000DBD3040027
:108BE000DBD304006E0200000400000098200400A3
:108BF00000000000EDD30400FCD304006F0200006D
:108C0000040000009C2004000000000010D40400B8
:108C100010D404007002000005000000A020040031
:108C20000000000021D4040021D4040071020000DF
:108C300005000000A5200400000000002FD404005F
:108C40002FD404007202000005000000AA200400D6
:108C50000000000041D4040041D40400730200006D
:108C600005000000AF2004000000000057D40400FD
:108C700057D404007402000005000000B420040072
:108C8000000000006AD404006AD4040075020000E9
:108C900005000000B9200400000000007CD404009E
:108CA0007CD404007602000005000000BE20040011
:108CB000000000008FD40400A3D404007702000059
:108CC00006000000C320040000000000B7D4040028
:108CD000C5D404007802000006000000C92004008A
:108CE00000000000D7D40400EAD404007902000098
:108CF00006000000CF20040000000000FCD40400A7
:108D00000ED504007A02000006000000D520040001
:108D10000000000025D5040037D504007B020000C8
:108D200006000000DB200400000000004FD5040016
:108D30004FD504007C02000004000000E120040084
:108D40000000000062D5040062D504007D0200002E
:108D500004000000E52004000000000073D50400BA
:108D600073D504007E02000004000000E920040026
:108D7000000000008DD504008DD504007F020000A6
:108D800004000000ED200400000000009BD504005A
:108D90009BD504008002000004000000F1200400C4
:108DA00000000000AAD50400AAD50400810200003A
:108DB00004000000F520040000000000BFD50400FE
:108DC000BFD504008202000005000000F920040065
:108DD00000000000CFD50400D8D5040083020000B5
:108DE00008000000FE20040000000000E1D504009F
:108DF000E1D50400840200000900000006210400FF
:108E00000000000000D6040010D604008502000017
:108E1000010000000F21040000000000F6D504004E
:108E200006D60400860200000100000010210400A4
:108E30000000000016D6040032D6040087020000AD
:108E40000100000011210400000000004ED60400C3
:108E50005FD60400880200000A000000122104000E
:108E60000000000078D604007ED6040089020000CD
:108E70000A0000001C21040000000000A1D604002C
:108E8000AED604008A0200000000000000000000CE
:108E900000000000BBD60400C8D604008B0200000E
:108EA000000000000000000000000000D5D6040013
:108EB000E2D604008C020000000000000000000068
:108EC00000000000EFD60400FCD604008D02000074
:108ED00000000000000000000000000009D70400AE
:108EE00016D704008E020000000000000000000001
:108EF0000000000023D7040030D704008F020000D8
:108F00000000000000000000000000003DD7040049
:108F100046D704009002000000000000000000009E
:108F2000000000004FD7040058D704009102000051
:108F300000000000000000000000000061D70400F5
:108F40006FD7040092020000000000000000000043
:108F5000000000007DD704008BD7040093020000BE
:108F600000000000000000000000000099D704008D
:108F7000A0D7040094020000030000002621040092
:108F800000000000AED70400AED704009502000038
:108F9000030000002921040000000000B9D70400EC
:108FA000B9D7040096020000070000002C2104003D
:108FB00000000000C0D70400CED7040097020000D4
:108FC000080000003321040000000000ECD704007A
:108FD000FFD7040098020000080000003B210400B5
:108FE000000000000CD804001ED804009902000004
:108FF0000800000043210400000000002AD80400FB
:109000003AD804009A020000030000004B2104003B
:109010000000000052D8040065D804009B02000044
:10902000080000004E2104000000000071D8040078
:109030007CD804009C0200000900000056210400B6
:109040000000000094D804009FD804009D02000096
:10905000090000005F21040000000000B7D80400F0
:10906000C2D804009E02000009000000682104002C
:1090700000000000DAD80400E5D804009F020000D8
:1090800009000000712104000000000075D80400F0
:10909000FDD80400A0020000090000007A210400AD
:1090A0000000000098D8040004D90400A1020000C8
:1090B000090000008321040000000000BBD8040068
:1090C0000BD90400A2020000090000008C2104005A
:1090D00000000000DED8040012D90400A302000042
:1090E00009000000952104000000000019D90400C7
:1090F00019D90400A4020000010000009E21040010
:109100000000000031D9040031D90400A50200009C
:10911000030000009F210400000000003ED904006D
:109120003ED90400A602000002000000A2210400B3
:109130000000000042D9040042D90400A702000048
:1091400003000000A4210400000000004AD904002C
:109150004AD90400A802000008000000A72104006A
:109160000000000066D9040066D90400A9020000CE
:1091700009000000AF210400000000006ED90400C7
:109180006ED90400AA02000009000000B821040002
:109190000000000076D9040076D90400AB0200007C
:1091A00009000000C1210400000000007ED9040075
:1091B0007ED90400AC02000008000000CA210400AF
:1091C0000000000089D9040089D90400AD02000024
:1091D00008000000D22104000000000094D904001F
:1091E00094D90400AE02000008000000DA21040057
:1091F000000000009FD904009FD90400AF020000C6
:1092000008000000E221040000000000AAD90400C8
:10921000AAD90400B002000008000000EA210400FE
:1092200000000000B5D90400B5D90400B102000067
:1092300008000000F221040000000000C0D9040072
:10924000C0D90400B202000008000000FA210400A6
:1092500000000000CBD90400CBD90400B302000009
:10926000080000000222040000000000D6D904001B
:10927000D6D90400B4020000080000000A2204004D
:1092800000000000E1D90400E1D90400B5020000AB
:10929000080000001222040000000000ECD90400C5
:1092A000ECD90400B6020000080000001A220400F5
:1092B00000000000F7D90400F7D90400B70200004D
:1092C00008000000222204000000000002DA04006E
:1092D00002DA0400B8020000080000002A2204009C
:1092E000000000000DDA04000DDA0400B9020000ED
:1092F00008000000322204000000000018DA040018
:1093000018DA0400BA020000080000003A22040043
:109310000000000023DA040023DA0400BB0200008E
:109320000800000042220400000000002EDA0400C1
:109330002EDA0400BC020000080000004A220400EB
:109340000000000039DA040039DA0400BD02000030
:1093500008000000522204000000000044DA04006B
:1093600044DA0400BE020000080000005A22040093
:10937000000000004FDA04004FDA0400BF020000D2
:109380000800000062220400000000005ADA040015
:109390005ADA0400C0020000050000006A2204003E
:1093A0000000000064DA040064DA0400C102000076
:1093B000050000006F220400000000006EDA0400C7
:1093C0006EDA0400C20200000500000074220400EE
:1093D0000000000078DA040078DA0400C30200001C
:1093E00005000000792204000000000082DA040079
:1093F00082DA0400C4020000050000007E2204009E
:10940000000000008CDA04008CDA0400C5020000C1
:1094100005000000832204000000000096DA04002A
:1094200096DA0400C602000005000000882204004D
:1094300000000000A0DA0400A0DA0400C702000067
:10944000050000008D22040000000000AADA0400DC
:10945000AADA0400C80200000500000092220400FD
:1094600000000000B4DA0400B4DA0400C90200000D
:10947000050000009722040000000000BEDA04008E
:10948000BEDA0400CA020000050000009C220400AD
:1094900000000000C8DA0400C8DA0400CB020000B3
:1094A00005000000A122040000000000D2DA040040
:1094B000D2DA0400CC02000005000000A62204005D
:1094C00000000000DCDA0400DCDA0400CD02000059
:1094D00005000000AB22040000000000E6DA0400F2
:1094E000E6DA0400CE02000005000000B02204000D
:1094F00000000000F0DA0400F0DA0400CF020000FF
:1095000005000000B522040000000000FADA0400A3
:10951000FADA0400D002000005000000BA220400BC
:109520000000000004DB040004DB0400D1020000A2
:1095300005000000BF220400000000000EDB040054
:109540000EDB0400D202000005000000C42204006B
:109550000000000018DB040018DB0400D302000048
:1095600005000000C92204000000000022DB040006
:1095700022DB0400D402000005000000CE2204001B
:10958000000000002CDB04002CDB0400D5020000EE
:1095900005000000D32204000000000036DB0400B8
:1095A00036DB0400D602000005000000D8220400CB
:1095B0000000000040DB040040DB0400D702000094
:1095C00005000000DD220400000000004ADB04006A
:1095D0004ADB0400D802000005000000E22204007B
:1095E0000000000054DB040054DB0400D90200003A
:1095F00005000000E7220400000000005EDB04001C
:109600005EDB0400DA02000005000000EC2204002A
:109610000000000068DB040068DB0400DB020000DF
:1096200005000000F12204000000000072DB0400CD
:1096300072DB0400DC02000005000000F6220400DA
:10964000000000007CDB04007CDB0400DD02000085
:1096500005000000FB2204000000000086DB04007F
:1096600086DB0400DE020000050000000023040089
:109670000000000090DB040090DB0400DF0200002B
:10968000050000000523040000000000A7DB040023
:10969000A7DB0400E0020000050000000A2304002C
:1096A00000000000BEDB0400BEDB0400E10200009D
:1096B000050000000F23040000000000D5DB0400BB
:1096C000D5DB0400E20200000500000014230400C2
:1096D00000000000ECDB0400ECDB0400E30200000F
:1096E00005000000192304000000000003DC040052
:1096F00003DC0400E4020000050000001E23040057
:10970000000000001ADC04001ADC0400E50200007E
:1097100005000000232304000000000031DC0400E9
:1097200031DC0400E60200000500000028230400EC
:109730000000000048DC040048DC0400E7020000F0
:10974000050000002D2304000000000060DC040080
:1097500060DC0400E8020000050000003223040081
:109760000000000078DC040078DC0400E90200005E
:1097700005000000372304000000000090DC040016
:109780009ADC0400EA020000040000003C2304000C
:1097900000000000ACDC0400BBDC0400EB020000B5
:1097A000030000004023040000000000D2DC04009D
:1097B000E3DC0400EC02000003000000432304008B
:1097C00000000000FDDC04000BDD0400ED020000E1
:1097D00000000000000000000000000012DD040096
:1097E00020DD0400EE020000000000000000000088
:1097F0000000000027DD040038DD0400EF02000057
:109800000B000000462304000000000049DD0400B6
:109810005ADD0400F00200000B0000005123040098
:10982000000000006BDD04007CDD0400F10200009C
:109830000B0000005C230400000000008DDD04002C
:109840009EDD0400F202000008000000672304000F
:1098500000000000AFDD0400C0DD0400F3020000E2
:10986000080000006F23040000000000D1DD0400A8
:10987000E2DD0400F4020000080000007723040089
:1098800000000000F3DD040004DE0400F502000027
:10989000080000007F2304000000000015DE040023
:1098A00026DE0400F6020000080000008723040002
:1098B0000000000037DE040048DE0400F70200006C
:1098C000080000008F2304000000000059DE04009F
:1098D0006BDE0400F8020000000000000000000041
:1098E000000000007DDE04008FDE0400F9020000AD
:1098F000000000000000000000000000A1DE0400E5
:10990000B3DE0400FA0200000000000000000000C6
:1099100000000000C5DE0400D7DE0400FB020000EA
:10992000000000000000000000000000E9DE04006C
:10993000FBDE0400FC02000000000000000000004C
:10994000000000000DDF04001FDF0400FD02000026
:1099500000000000000000000000000031DF0400F3
:1099600042DF0400FE02000008000000972304000C
:109970000000000053DF040064DF0400FF02000069
:10998000080000009F2304000000000075DF0400B1
:1099900086DF04000003000008000000A723040085
:1099A0000000000097DF0400B2DF040001030000A4
:1099B00003000000AF23040000000000D6DF040015
:1099C000EFDF04000203000003000000B2230400E4
:1099D0000000000011E0040023E004000303000085
:1099E00003000000B5230400000000000000000098
:1099F0000000000000000000000000000000000067
:109A0000000000003DE0040042E004000503000007
:109A100006000000B8230400000000000000000061
:109A20000000000000000000000000000000000036
:109A30000000000000000000000000000000000026
:109A400000000000000000000000000047E00400EB
:109A500050E004000803000008000000BE230400DA
:109A60000000000059E0040062E004000903000067
:109A700008000000C6230400000000006BE00400A2
:109A800074E004000A03000008000000CE23040074
:109A9000000000007DE0040086E004000B030000ED
:109AA00008000000D62304000000000032EE04008D
:109AB0003FEE04000C03000008000000DE23040059
:109AC0000000000080EE040096EE04000D0300008C
:109AD00008000000E6230400000000008FE00400FE
:109AE000A3E004000E03000009000000EE230400C0
:109AF00000000000B6E00400C4E004000F03000012
:109B000009000000F723040000000000DDE004006D
:109B1000DDE0040010030000080000000024040041
:109B200000000000F0E00400FDE00400110300006C
:109B30000800000008240400000000000BE10400FD
:109B40000BE10400120300000B00000010240400CD
:109B50000000000026E1040026E1040013030000D9
:109B60000B0000001B240400000000003EE1040084
:109B70003EE1040014030000090000002624040054
:109B8000000000004DE104004DE104001503000059
:109B9000090000002F240400000000005CE1040024
:109BA0005CE10400160300000900000038240400F2
:109BB000000000006BE104006BE1040017030000EB
:109BC00007000000412404000000000082E10400BE
:109BD00082E104001803000007000000482404008C
:109BE0000000000097E1040097E104001903000061
:109BF000080000004F24040000000000A9E1040058
:109C0000A9E104001A030000080000005724040022
:109C100000000000BBE10400BBE104001B030000E6
:109C2000080000005F24040000000000CDE10400F3
:109C3000CDE104001C0300000800000067240400BC
:109C400000000000DFE10400DFE104001D0300006C
:109C5000080000006F24040000000000EBE1040095
:109C6000EBE104001E03000008000000772404005C
:109C700000000000FAE10400FAE104001F03000004
:109C8000080000007F2404000000000009E2040036
:109C900009E20400200300000800000087240400FB
:109CA0000000000018E2040018E204002103000094
:109CB000080000008F2404000000000027E20400D8
:109CC00027E204002203000009000000972404009A
:109CD0000000000037E2040037E204002303000024
:109CE00009000000A02404000000000047E2040076
:109CF00047E204002403000006000000A924040039
:109D00000000000051E2040051E2040025030000BD
:109D100005000000AF240400000000005BE2040026
:109D20005BE204002603000005000000B4240400E8
:109D30000000000065E2040089E20400270300003F
:109D400006000000B924040000000000B0E2040096
:109D5000D2E204002803000006000000BF24040033
:109D600000000000F7E2040001E304002903000002
:109D700006000000C52404000000000011E30400F8
:109D800025E304002A03000006000000CB240400A1
:109D90000000000038E304009EE204002B030000F2
:109DA00006000000D124040000000000FAE20400D4
:109DB000E7E204002C03000006000000D7240400A2
:109DC0000000000041E3040048E304002D0300000C
:109DD00006000000DD2404000000000056E304003B
:109DE00056E304002E030000000000000000000005
:109DF0000000000061E304006AE304002F03000098
:109E000006000000E3240400000000007CE30400DE
:109E10008DE304003003000006000000E924040084
:109E200000000000A1E30400B5E3040031030000DA
:109E300006000000EF24040000000000CAE3040054
:109E4000DCE304003203000006000000F5240400F7
:109E500000000000EFE30400EFE304003303000020
:109E600007000000FB2404000000000014E40400CC
:109E700014E404003403000007000000022504007D
:109E80000000000034E4040034E404003503000062
:109E900007000000092504000000000051E4040050
:109EA00051E4040036030000070000001025040000
:109EB0000000000073E4040073E4040037030000B2
:109EC00007000000172504000000000090E40400D3
:109ED00090E4040038030000070000001E25040081
:109EE00000000000B5E40400B5E4040039030000FC
:109EF000070000002525040000000000DAE404004B
:109F0000DAE404003A030000070000002C250400F6
:109F100000000000FFE40400FFE404003B03000035
:109F200007000000332504000000000024E50400C1
:109F300024E504003C030000070000003A2504006B
:109F40000000000051E5040051E504003D0300005D
:109F50000700000041250400000000007EE5040029
:109F60007EE504003E0300000700000048250400D1
:109F700000000000A7E50400A7E504003F0300007F
:109F8000070000004F25040000000000C4E50400A5
:109F9000C4E504004003000007000000562504004B
:109FA00000000000E9E50400E9E5040041030000C9
:109FB000070000005D250400000000000EE604001C
:109FC0000EE60400420300000700000064250400C0
:109FD0000000000033E6040033E604004303000001
:109FE000070000006B2504000000000058E6040094
:109FF00058E6040044030000070000007225040036
:10A000000000000080E6040080E604004503000034
:10A01000070000007925040000000000A8E6040005
:10A02000A8E60400460300000700000080250400A5
:10A0300000000000D0E60400D0E604004703000062
:10A04000070000008725040000000000EFE6040080
:10A05000EFE6040048030000070000008E2504001E
:10A060000000000016E7040016E7040049030000A2
:10A070000700000095250400000000003DE70400F3
:10A080003DE704004A030000070000009C2504008F
:10A090000000000064E7040064E704004B030000D4
:10A0A00007000000A3250400000000008EE7040064
:10A0B0008EE704004C03000007000000AA250400FE
:10A0C00000000000B8E70400B8E704004D030000FA
:10A0D00007000000B125040000000000CAE70400EA
:10A0E000CAE704004E03000007000000B825040082
:10A0F00000000000DFE70400DFE704004F0300007A
:10A1000007000000BF25040000000000F1E7040084
:10A11000F1E704005003000007000000C62504001A
:10A120000000000006E8040019E8040051030000E4
:10A1300008000000CD250400000000003AE80400FB
:10A1400043E804005203000008000000D525040085
:10A15000000000005BE8040066E804005303000010
:10A1600008000000DD2504000000000080E8040075
:10A17000A5E804005403000008000000E5250400E1
:10A1800000000000D4E80400FBE8040055030000D0
:10A1900008000000ED250400000000002CE9040088
:10A1A0004AE904005603000008000000F5250400F9
:10A1B0000000000073E9040078E904005703000080
:10A1C0000000000000000000000000007DE9040025
:10A1D00089E904005803000009000000FD2504007F
:10A1E00000000000A1E90400ADE9040059030000EB
:10A1F000030000000626040000000000C1E904007E
:10A20000DBE904005A0300000800000009260400EE
:10A2100000000000F0E90400F0E904005B03000026
:10A22000030000001126040000000000FCE9040007
:10A23000FCE904005C030000030000001426040095
:10A24000000000000DEA04000DEA04005D030000B8
:10A250000300000017260400000000001BEA0400B1
:10A260001BEA04005E030000030000001A2604003D
:10A270000000000029EA040029EA04005F0300004E
:10A28000030000001D2604000000000044EA040052
:10A2900044EA0400600300000300000020260400DC
:10A2A0000000000054EA040054EA040061030000C6
:10A2B00003000000232604000000000060EA040000
:10A2C00060EA040062030000030000002626040088
:10A2D000000000007AEA04007AEA04006303000048
:10A2E00003000000292604000000000093EA040097
:10A2F00093EA040064030000030000002C2604001D
:10A30000000000009FEA04009FEA040065030000CB
:10A31000030000002F26040000000000B7EA04003C
:10A32000B7EA0400660300000300000032260400C0
:10A3300000000000C9EA0400C9EA04006703000045
:10A34000030000003526040000000000DEEA0400DF
:10A35000DEEA040068030000030000003826040061
:10A3600000000000F6EA0400F6EA040069030000B9
:10A37000030000003B260400000000000AEB04007C
:10A380000AEB04006A030000030000003E260400FC
:10A390000000000026EB040026EB04006B03000025
:10A3A0000300000041260400000000002DEB040023
:10A3B0002DEB04006C0300000300000044260400A1
:10A3C0000000000033EB040033EB04006D030000D9
:10A3D00003000000472604000000000040EB0400DA
:10A3E00040EB04006E030000030000004A26040056
:10A3F0000000000048EB040048EB04006F0300007D
:10A40000030000004D2604000000000055EB04008E
:10A4100055EB040070030000030000005026040008
:10A420000000000065EB040065EB04007103000010
:10A4300003000000532604000000000073EB04003A
:10A4400073EB0400720300000300000056260400B2
:10A45000000000008BEB04008BEB04007303000092
:10A46000030000005926040000000000A5EB0400D2
:10A47000A5EB040074030000030000005C26040048
:10A4800000000000BAEB0400BAEB04007503000002
:10A49000030000005F26040000000000CEEB040073
:10A4A000CEEB0400760300000300000062260400E7
:10A4B00000000000E2EB0400E2EB04007703000080
:10A4C000030000006526040000000000F4EB040017
:10A4D000F4EB040078030000030000006826040089
:10A4E0000000000001EC040001EC0400790300000E
:10A4F000030000006B2604000000000011EC0400C3
:10A5000011EC04007A030000030000006E26040032
:10A510000000000025EC040025EC04007B03000093
:10A5200003000000712604000000000039EC040064
:10A5300039EC04007C0300000300000074260400D2
:10A540000000000041EC040041EC04007D03000029
:10A550000B000000772604000000000051EC04000E
:10A5600056EC04007E030000000000000000000024
:10A57000000000005BEC040069EC04007F030000B5
:10A5800009000000822604000000000075EC0400B1
:10A5900083EC040080030000090000008B26040007
:10A5A000000000008FEC04008FEC04008103000029
:10A5B000090000009426040000000000A2EC040042
:10A5C000B0EC040082030000090000009D26040096
:10A5D00000000000BCEC0400CAEC0400830300008F
:10A5E00009000000A626040000000000D6EC0400CC
:10A5F000D6EC04008403000009000000AF2604002C
:10A6000000000000E9EC0400F7EC04008503000002
:10A6100009000000B82604000000000003ED04005B
:10A6200011ED04008603000009000000C1260400AB
:10A63000000000001DED04001DED04008703000074
:10A6400009000000CA2604000000000030ED0400EC
:10A650003CED040088030000000000000000000042
:10A660000000000048ED040054ED040089030000E0
:10A6700000000000000000000000000060ED040089
:10A680006CED04008A0300000000000000000000E0
:10A690000000000078ED040078ED04008B0300005A
:10A6A0000B000000D3260400000000008CED040025
:10A6B0008CED04008C0300000B000000DE2604007B
:10A6C00000000000A0ED0400A0ED04008D030000D8
:10A6D0000B000000E926040000000000B4ED0400B7
:10A6E000C8ED04008E03000004000000F4260400FE
:10A6F00000000000DFED0400E4ED04008F03000023
:10A7000009000000F826040000000000E9ED040044
:10A71000F4ED04009003000009000000012704008C
:10A7200000000000FEED04000AEE040091030000AA
:10A7300000000000000000000000000016EE040011
:10A7400022EE040092030000000000000000000060
:10A75000000000002EEE04003BEE04009303000016
:10A7600000000000000000000000000048EE0400AF
:10A770005EEE0400940300000000000000000000F2
:10A780000000000074EE04008AEE0400950300004F
:10A79000000000000000000000000000A0EE040027
:10A7A000B6EE040096030000000000000000000068
:10A7B00000000000CCEE0400D7EE04009703000078
:10A7C000090000000A27040000000000010000004A
:10A7D000100000000CC6050002000000E8B70500EC
:10A7E00008000000BDA00400000000000000000000
:10A7F00000000000000000003D4C010000000000CF
:10A800000100000010000000A8C5050005000000C0
:10A810001CB805004400000021C80400000000002E
:10A820000000000000000000000000000D4C0100CE
:10A830000000000001000000100000006CC50500D1
:10A84000030000001CB805004400000021C80400FB
:10A8500001000000100000001CC5050004000000FD
:10A86000000000004400000021C8040002000000B5
:10A8700008000000F4C40500020000001CB8050038
:10A880004400000021C80400C00200001427040096
:10A8900000000000C6F00400C10200008C27040084
:10A8A00000000000F1F00400C202000004280400CF
:10A8B0000000000017F10400C30200008828040013
:10A8C0000000000017F10400C40200004456040018
:10A8D000000000003DF10400C5020000A055040086
:10A8E000000000003DF10400C6020000FC5404001A
:10A8F0000000000063F10400C70200000C290400FE
:10A90000000000001AF20400C80200003C540400D9
:10A910000000000093F10400C9020000AC2904000B
:10A92000000000008EF10400CA020000782A040032
:10A930000000000094F20400CB020000482B040049
:10A9400000000000B9F10400CC0200008C2C0400CF
:10A9500000000000E4F10400990100003C2E040016
:10A96000000000000FF204009A010000F02E040025
:10A970000000000040F204009B010000A42F04002E
:10A980000000000040F204009C0100005830040068
:10A990000000000067F204009D0100003031040057
:10A9A0000000000067F204009E010000083204006D
:10A9B0000000000067F204009F010000E032040084
:10A9C000000000008EF20400CD020000BC53040021
:10A9D00000000000BAF20400CE0200003C53040064
:10A9E00000000000BAF20400CF020000B0520400E0
:10A9F00000000000E1F20400D00200002452040034
:10AA0000000000000DF30400D10200009451040086
:10AA10000000000034F30400D202000004510400DE
:10AA2000000000006AF30400D30200007450040028
:10AA30000000000065F30400D4020000B84F0400D9
:10AA40000000000091F30400D5020000FC4E040059
:10AA50000000000091F30400D6020000C43304009B
:10AA600000000000B8F30400D7020000883404009E
:10AA700000000000B8F30400D802000060350400B4
:10AA800000000000E9F30400D902000024360400AD
:10AA90000000000010F40400DA0200000C3704008B
:10AAA0000000000010F40400DB020000083804007D
:10AAB000000000003CF40400DC02000050390400F7
:10AAC000000000003CF40400DD020000AC3A040089
:10AAD0000000000068F40400DE0200006C3C04008A
:10AAE0000000000068F40400AC020000584E0400AE
:10AAF0000000000094F40400AD020000B44D040016
:10AB00000000000094F40400AE020000104D0400A8
:10AB10000000000094F40400AF020000744C040034
:10AB200000000000BCF40400B0020000403E04003D
:10AB300000000000E4F40400B1020000F43E040050
:10AB400000000000E4F40400B2020000A83F04008A
:10AB500000000000E4F40400B5020000C04B040053
:10AB6000000000000CF50400B60200005C40040088
:10AB70000000000034F50400B70200003441040076
:10AB80000000000034F50400B80200000C4204008C
:10AB90000000000034F50400BB020000DC4A0400A1
:10ABA000000000005CF50400BC020000E049040065
:10ABB0000000000084F50400BD020000AC48040061
:10ABC00000000000ACF50400BE0200008047040055
:10ABD00000000000D4F50400BF020000E4420400BD
:10ABE00000000000FCF50400DF0200001447040030
:10ABF0000000000024F60400E0020000945104006C
:10AC00000000000034F30400E1020000BC53040023
:10AC100000000000BAF20400E2020000584E0400F6
:10AC20000000000094F40400E30200001427040074
:10AC300000000000C6F00400E4020000FC54040020
:10AC40000000000063F10400E5020000A8460400D3
:10AC500000000000CBF00400E602000018460400EB
:10AC60000000000068F10400E7020000C4330400A3
:10AC700000000000B8F30400E8020000883404007B
:10AC800000000000B8F30400E902000038440400AA
:10AC9000000000004BF60400ED020000F044040048
:10ACA0000000000071F60400EE0200007845040088
:10ACB00000000000E2F604000000000002000000B6
:10ACC0000000000000000000000000000000000084
:10ACD00059F80400000000000A0000000000000015
:10ACE00000000000000000000000000066F8040002
:10ACF0000000000003000000000000000000000051
:10AD0000000000000000000076F8040000000000D1
:10AD1000040000000000000000000000000000002F
:10AD20000000000086F8040000000000050000009C
:10AD30000000000000000000000000000000000013
:10AD400098F8040000000000060000000000000069
:10AD5000000000000000000000000000A2F8040055
:10AD6000000000000C0000000000000000000000D7
:10AD70000000000000000000AEF804000000000029
:10AD800013000000000000000000000000000000B0
:10AD900000000000BEF804000000000014000000E5
:10ADA00000000000000000000000000000000000A3
:10ADB000D3F80400000000001600000000000000AE
:10ADC000000000000000000000000000E2F80400A5
:10ADD000000000001B000000000000000000000058
:10ADE0000000000000000000F1F804000000000076
:10ADF000170000000000000000000000000000003C
:10AE00000000000004F90400000000001800000029
:10AE10000000000000000000000000000000000032
:10AE200011F90400000000001A00000000000000FA
:10AE300000000000000000000000000026F90400EF
:10AE4000000000001C0000000000000000000000E6
:10AE5000000000000000000039F9040000000000BC
:10AE60001E000000000000000000000000000000C4
:10AE7000000000004EF9040000000000FCFFFFFF8E
:10AE800000000000000000000000000000000000C2
:10AE90005DF9040000000000100000000000000048
:10AEA00000000000000000000000000066F904003F
:10AEB00005000000173D0100000000000000000038
:10AEC000000000001000000074F9040005000000FC
:10AED00050280000000000000000000000000000FA
:10AEE0001000000083F9040005000000062900009E
:10AEF0000000000000000000000000001000000042
:10AF00008FF90400000000000100000000000000B4
:10AF10000000000000000000FFFFFFFF9FF9040099
:10AF20000000000001000000000000000000000020
:10AF30000000000001000000ACF904000000000067
:10AF40000100000000000000000000000000000000
:10AF500000000000BAF90400000000000400000036
:10AF600000000000000000000000000000080000D9
:10AF7000C8F9040000000000FFFFFFFF1CC8050027
:10AF8000000000000000000000000000DFF90400E5
:10AF900000000000FFFFFFFF08C8050000000000E0
:10AFA0000000000000000000F1F9040001000000B2
:10AFB0001000000030C80500020000000000000082
:10AFC00008000000FEF9040000000000020000007C
:10AFD000000000000000000034CD0500000000006B
:10AFE0000DFA040000000000020000000000000054
:10AFF0000000000034CD0500010000000DFA04003F
:10B00000587A04000600000006000000000000005E
:10B0100002000000D87A04000700000007000000CA
:10B020000000000002000000507B04000800000047
:10B03000080000000000000002000000507C040036
:10B040000C0000000C0000000000000002000000E6
:10B05000C47D040011000000110000000000000089
:10B0600002000000287A04000C0000000C00000020
:10B070000000000002000000A07A04000E000000A2
:10B080000E0000000000000002000000107B040021
:10B09000100000001000000000000000020000008E
:10B0A000F07B040018000000180000000000000001
:10B0B00002000000407D040021000000210000008B
:10B0C000000000000200000001000000100000006D
:10B0D00008C9050002000000000000000800000090
:10B0E0008EFA040000000000FFFFFFFFF4C8050017
:10B0F00000000000000000000000000099FA0400B9
:10B10000020000000400000058C905000200000011
:10B11000000000000C000000AFFA04000100000075
:10B120001000000030C9050002000000000000000F
:10B130000C000000AFFA0400E19A040001000000D6
:10B1400004000000F49A040000000000F89A0400D3
:10B1500001000000250000000C9B0400000000001E
:10B16000319B040005000000100000006C15050074
:10B17000A1BF0000429B0400030000000400000087
:10B18000C814050000000000659B040003000000D7
:10B1900004000000CC140500000000008E9B040099
:10B1A0000300000004000000D014050000000000AF
:10B1B000AA9B04000200000001000000C01405006A
:10B1C00000000000C39B0400030000000400000016
:10B1D000D414050000000000F79B040001000000EB
:10B1E00064000000E814050000000000209C04003A
:10B1F00004000000040000006015050000000000CD
:10B200004F9C04000100000008000000E01405004D
:10B21000000000006D9C040002000000010000001E
:10B22000C1140500000000008B9C04000100000018
:10B2300003000000C214050000000000A19C0400EF
:10B240000300000004000000D81405000000000006
:10B25000B99C04000300000004000000DC14050099
:10B2600000000000D59C0400030000000400000062
:10B270006415050000000000F49C040003000000B9
:10B28000040000006815050000000000139D040084
:10B290000200000001000000501505000000000041
:10B2A000399D040002000000010000005115050056
:10B2B000000000000000000000000000000000008E
:10B2C000FFEB040081050300000000000000000007
:10B2D00004000000458F04008105030040000000C9
:10B2E00041000000140000000C000000C50801002F
:10B2F000CD080100D508010000000000000000009A
:10B30000A5560100D95A01000600000013000000F4
:10B3100000000000000000000000000040000000ED
:10B320006400000000000000A30200009F02000073
:10B330001C0000000C000000BD080100A90801006D
:10B34000B10801000000000000000000A556010047
:10B35000D95A0100060000001300000000000000A0
:10B360000000000000000000400000007400000029
:10B3700000000000A00200009C020000200000006D
:10B380000C000000A1080100A9080100B10801009B
:10B390000000000000000000A5560100D95A01007D
:10B3A0000600000013000000000000000000000084
:10B3B00000000000400000007400000000000000D9
:10B3C000A10200009D020000300000000C000000FF
:10B3D00099080100850801008D08010000000000A7
:10B3E00000000000A5560100D95A01000600000027
:10B3F000130000000000000000000000000000003A
:10B4000080000000DC00000000000000A20200003C
:10B410009E020000400000000C0000007D080100BA
:10B42000850801008D0801000000000000000000F8
:10B43000A5560100D95A01000600000013000000C3
:10B44000000000000000000000000000800000007C
:10B45000DC000000000000007F030000010000008D
:10B46000100000000C00000076503000791A010036
:10B47000711801001D1B0100900200000000000077
:10B4800000000000451B01000000000082030000D6
:10B4900001000000180000000C0000007650300091
:10B4A000791A0100711801001D1B010090020000B3
:10B4B0000000000000000000451B0100000000002B
:10B4C0008503000001000000200000000C000000C7
:10B4D00076503000791A0100711801001D1B01001F
:10B4E000900200000000000000000000451B010069
:10B4F0000000000000000000000000001800000034
:10B5000023F00400750503000004000000000000A3
:10B510000000000000000000414B0100000000009E
:10B52000000000001800000023F00400750503006F
:10B5300000000000000000000C000000FAD304002E
:10B54000750503000000000000000000100000006E
:10B55000AFBC0400750503000000000000000000FF
:10B560001400000038B0040075050300000000005E
:10B57000000000000C000000FAD304007505030071
:10B58000000000000000000010000000AFBC04003C
:10B59000750503000000000000000000140000001A
:10B5A00038B0040075050300000000000000000032
:10B5B0000C000000FAD30400750503000000000031
:10B5C0000000000010000000AFBC0400750503007F
:10B5D00000000000000000001400000038B004006B
:10B5E00075050300000000000000000018000000C6
:10B5F00023F00400750503000000000000000000B7
:10B600001C0000002BF00400750503000000000082
:10B610000000000000000000FFEB040081050300B3
:10B62000000000000000000004000000458F04003E
:10B630008105030001000000970100002D8E01002C
:10B64000518E0100758E0100A98E0100998F0100B5
:10B6500099900100ED900100FD90010075910100AD
:10B6600095910100B5910100D99101001992010055
:10B67000000000000000000031920100B1920100C2
:10B6800000000000000000000000000045930100E1
:10B690000596010019960100599601006596010072
:10B6A000719701008598010035990100ADF2010004
:10B6B00005F9010009F90100799901008999010052
:10B6C0009999010000000000000000000000000047
:10B6D0000100000096010000B5990100CD9901001C
:10B6E000FD9901002D9A0100A99A01002D85030002
:10B6F000FD850300058603005D8703008187030045
:10B70000A1870300C5870300058803001D88030087
:10B7100059890300518A0300A18A03000000000038
:10B720000000000000000000958C030075900300ED
:10B73000BD930300E9930300F5930300ED95030027
:10B7400005980300B198030000000000000000000D
:10B7500000000000A99B0100E19B01000000000027
:10B76000159C0100519C0100899C01000100000012
:10B770009601000041830300698303008D83030069
:10B78000B5FA0100C1FA01002D850300FD85030013
:10B79000058603005D87030081870300A1870300FE
:10B7A000C5870300058803001D880300598903002D
:10B7B000518A0300A18A030000000000000000007D
:10B7C00000000000958C030075900300BD930300FA
:10B7D000E9930300F5930300ED950300059803003A
:10B7E000B19803000000000000000000000000000D
:10B7F000D5FB010071FC010000000000000000000A
:10B800000000000000000000020000000000000036
:10B8100000000000F1F9040011FA02000400000029
:10B820000000000000000000DFF9040011FA02002F
:10B8300000000000000000000000000007FA040003
:10B84000D1B303000000000000000000040000006D
:10B8500042A2040035F7020001000000960100003A
:10B8600041830300698303008D830300B1830300D8
:10B87000F98303002D850300FD8503000586030081
:10B880005D87030081870300A1870300C58703004C
:10B89000058803001D88030059890300518A0300AD
:10B8A000A18A03000000000000000000000000006A
:10B8B000958C030075900300BD930300E99303008A
:10B8C000F5930300ED95030005980300B19803007C
:10B8D000000000000000000000000000D19C0300F8
:10B8E000E19C0300000000000000000000000000D8
:10B8F0000000000004000000000000000000000044
:10B9000068C20400D1B30300000000000000000082
:10B91000000000002DC20400ADF70200010000008D
:10B920000000000004000000A5FA040011FA020063
:10B93000000000000000000000000000F69004007D
:10B94000ADF702000004000000000000000000004D
:10B950000000000021B5030002000000000000000C
:10B9600008000000BEFA040011FA02000000000006
:10B970000000000008000000C8FA040011FA0200EC
:10B980000000000080C90500F0CB050018CB0500C1
:10B9900084CB0500A0C9050094CA0500C8CC0500E9
:10B9A0009801000000000000FD6001002961010015
:10B9B00059610100000000007961010000000000F1
:10B9C0009560010000000000595F010000000000C8
:10B9D000D95F01000000000000000000000000002E
:10B9E0000000000000000000000000000000000057
:10B9F0000000000000000000000000000000000047
:10BA000019600100D9610100A1620100B9F70400C9
:10BA1000C5780200F97A0200497D020041800200E7
:10BA2000F182020025AF01003D8702004987020034
:10BA30000004000000000000000000000000000002
:10BA400000000000000000000000000000000000F6
:10BA500059FA00004DF400005DFA000059F40000AE
:10BA600055FA000059FA000065F4000055FA00008C
:10BA70006400000015A3020025A3020059A30200E0
:10BA800005A40200E5A402001DA60200418E0400E8
:10BA900051A7040057030000000000002529010001
:10BAA00065290100BD290100000000000000000020
:10BAB00000000000ED29010000000000000000006F
:10BAC0000000000000000000000000000000000076
:10BAD000152A0100452A01000000000000000000B6
:10BAE0000000000000000000000000000000000056
:10BAF0000000000000000000852A0100052B010065
:10BB0000253A0100453A01004D3A0100893A010009
:10BB1000213D0100293D01001C0000000200000041
:10BB2000D94201001543010041430100000000001B
:10BB30004D43010000000000A5430100000000008B
:10BB400000000000000000000000000000000000F5
:10BB500000000000000000000000000000000000E5
:10BB600000000000000000000000000000000000D5
:10BB70000000000000000000F54301003D4401000A
:10BB80007944010074000000020000004D470100EC
:10BB90008D470100BD47010000000000C9470100BA
:10BBA0000000000031480100000000008148010051
:10BBB00000000000CD48010000000000000000006F
:10BBC0000000000000000000000000000000000075
:10BBD0000000000000000000000000000000000065
:10BBE00000000000000000000D490100314A010082
:10BBF0000600000002000000F14C01003D4D010074
:10BC0000754D010000000000000000000000000071
:10BC1000A14D010000000000194E010000000000CD
:10BC2000794F010000000000815001000000000079
:10BC30000000000000000000000000000000000004
:10BC40007D51010000000000A9510100000000002A
:10BC500000000000D55101005553010053F70400C6
:10BC6000C5D50100B1D7010085D901000000000051
:10BC7000000000007DDB010089DB01000004000002
:10BC800000000000000000000000000066F7040053
:10BC900009DD010099DE0100C1DF01000DE00100B6
:10BCA00019E0010000040000000000000000000096
:10BCB0007CF7040005FD0100F9FF010069020200A4
:10BCC00001000000000000007E03000004000000EE
:10BCD00045BB020061BB020085BB02000000000002
:10BCE00000000000000000008DBB0200000000000A
:10BCF0000000000000000000000000000000000044
:10BD000000000000CDBB0200EDBB020000000000FF
:10BD10000000000000000000000000000000000023
:10BD2000000000000000000000000000F5BB020061
:10BD300061BC020000000000000000008D0503004F
:10BD4000A105030000000000C5050300FD05030078
:10BD5000000000007AFA040009AE030001000000B0
:04BD600000000000DF
:00000001FF
