:1000000000200C000000000000000000E02A0500B5
:10001000C15A03000C2C05007D6A0300ED63030048
:100020000CE30300AC10050008E30300416F03007C
:10003000315A0300188E04002526000061FA0000E2
:10004000A0100500A15703000C2C05001D22000084
:10005000855C0300102C0500242B0500C12800003E
:1000600011450100C19C010064ED0800842B0500CE
:1000700065410100C9230300ED2100005DB50300C7
:10008000912B000000CB0500512200002D2A00001A
:100090008CCA050080100500352100009410050071
:1000A00039AB000075610300D198020015CF030041
:1000B00080C90500E01A0500042B050064ED080066
:1000C000C01205003C2B0500FDBD020064CD0500FB
:1000D000640D0C0095660300103C050065280000C7
:1000E000002B050029290000E1220300142B050044
:0C00F000519D0200104C0500082B05007B
:00000001FF
