:1000000001100A0019000000403A0000FF00000043
:10001000021EDD122A5D22FFFFFFFF023415E4FFFE
:1000200075BE0E439F100FEFB4FFFB439F02539F1B
:10003000EFE4FF0FEFB4FFFB75BC0243B9207592EC
:1000400076E4F5BFD2D953CCFD22FF022BABAB0730
:10005000AA06D3EB9DEA9C4007EB9DFFEA9CFE229B
:10006000C3ED9BFFEC9AFE22FFFFFF0223DF90010E
:10007000EE12061B0000000020000302030FE490B4
:1000800001ECF09001F212061BFFFFFFFF9001F65A
:1000900012061B00000000E49001EDF09001EDE07D
:1000A000FFC394025051EF75F008A424ACF582E42C
:1000B0003401F583C083C0829001ECE0D082D0830C
:1000C00075F0041206651205D29001EDE075F00896
:1000D000A424A4F582E43401F583C083C082900196
:1000E000ECE0D082D08375F004120665120603900E
:1000F00001EDE004F080A59001ECE0FB25E025E0B7
:100100002494F582E43401F5831205D2EB25E02531
:10011000E024B4F582E43401F583120603E490018F
:10012000EDF09001EDE0FFC3940340030201F6EF10
:1001300075F008A424A4F582E43401F583C083C0DB
:10014000829001ECE0D082D08375F0041206651233
:1001500005D29001F61205EAC312058F502C9001CA
:10016000EDE075F008A424A4F582E43401F583C021
:1001700083C0829001ECE0D082D08375F004120637
:10018000651205D29001F61206039001EDE075F0BC
:1001900008A424A4F582E43401F583C083C08290CE
:1001A00001ECE0D082D08375F0041206651205D20E
:1001B0009001F21205EAD312058F402C9001EDE078
:1001C00075F008A424A4F582E43401F583C083C04B
:1001D000829001ECE0D082D08375F00412066512A3
:1001E00005D29001F21206039001F21205EA900185
:1001F000F61205D212044E9001FA1206039001ED98
:10020000E004F00201129001ECE0FF74017E00A80E
:1002100007088005C333CE33CED8F9FF900140E004
:10022000FDE4EF5D604FE47FC8FEFDFC9001FA1233
:1002300005EAC312058F50789001ECE0FB242BF8FF
:10024000E6FFE4FCFDFEEB25E025E02494F582E4E6
:100250003401F5831205EA12045C78071205A090B8
:1002600001ECE025E025E024BCF582E43401F583CF
:10027000120603803B9001ECE0FB242BF8E6FFE440
:10028000FCFDFEEB25E025E02494F582E43401F545
:10029000831205EA12045C78071205A09001ECE0D5
:1002A00025E025E024BCF582E43401F58312060341
:1002B0009001ECE0FB25E025E02484F582E43401A4
:1002C000F5831205D2EB25E025E024BCF582E43469
:1002D00001F5831205EAC312058F50037F022290B5
:1002E00001ECE070179001F21205EA9001F6120598
:1002F000D212044E9001E412060380159001F2120E
:1003000005EA9001F61205D212044E9001E8120699
:10031000039001ECE004F0E06402600302007390DB
:1003200001C41205D29001D4120603782DE6FFE431
:10033000FCFDFE90019C1205EA12045C7807120590
:10034000A09001C4120603782EE6FFE4FCFDFE90A7
:1003500001A01205EA12045C9001EE12060390015E
:10036000EE1205D278071205A09001EE1206039056
:1003700001C81205D29001D81206039001EE1205B1
:10038000D29001C8120603E49001ECF09001ECE079
:10039000FFC394045022EF25E025E024BCF582E45D
:1003A0003401F5831205D2EC4D4E4F70037F0222CB
:1003B0009001ECE004F080D47F0522BB0106898225
:1003C0008A83E0225002E722BBFE02E32289828A6E
:1003D00083E49322EF8DF0A4A8F0CF8CF0A428CE74
:1003E0008DF0A42EFE22BC000BBE0029EF8DF08400
:1003F000FFADF022E4CCF875F008EF2FFFEE33FEEE
:10040000EC33FCEE9DEC984005FCEE9DFE0FD5F024
:10041000E9E4CEFD22EDF8F5F0EE8420D21CFEAD2D
:10042000F075F008EF2FFFED33FD4007985006D52B
:10043000F0F222C398FD0FD5F0EA22C5F0F8A3E050
:1004400028F0C5F0F8E582158270021583E038F0D7
:1004500022EF2BFFEE3AFEED39FDEC38FC22C3EF24
:100460009BFFEE9AFEED99FDEC98FC22E88FF0A43C
:10047000CC8BF0A42CFCE98EF0A42CFC8AF0EDA42B
:100480002CFCEA8EF0A4CDA8F08BF0A42DCC38255E
:10049000F0FDE98FF0A42CCD35F0FCEB8EF0A4FE3E
:1004A000A9F0EB8FF0A4CFC5F02ECD39FEE43CFCD3
:1004B000EAA42DCE35F0FDE43CFC2275F0087582EF
:1004C00000EF2FFFEE33FECD33CDCC33CCC58233DE
:1004D000C5829BED9AEC99E58298400CF582EE9BE3
:1004E000FEED9AFDEC99FC0FD5F0D6E4CEFBE4CD01
:1004F000FAE4CCF9A88222B800C1B90059BA002D9B
:10050000EC8BF084CFCECDFCE5F0CBF97818EF2F53
:10051000FFEE33FEED33FDEC33FCEB33FB10D70382
:10052000994004EB99FB0FD8E5E4F9FA227818EF2B
:100530002FFFEE33FEED33FDEC33FCC933C910D78A
:10054000059BE99A4007EC9BFCE99AF90FD8E0E497
:10055000C9FAE4CCFB2275F010EF2FFFEE33FEED6D
:1005600033FDCC33CCC833C810D7079BEC9AE8993D
:10057000400AED9BFDEC9AFCE899F80FD5F0DAE41F
:10058000CDFBE4CCFAE4C8F922EB9FF5F0EA9E42F9
:10059000F0E99D42F0EC6480C864809845F022EB5D
:1005A0009FF5F0EA9E42F0E99D42F0E89C45F0227A
:1005B000E8600FECC313FCED13FDEE13FEEF13FF29
:1005C000D8F122E8600FEFC333FFEE33FEED33FDC9
:1005D000EC33FCD8F122E6FC08E6FD08E6FE08E66E
:1005E000FF22E0FCA3E0FDA3E0FEA3E0FF22E2FC8B
:1005F00008E2FD08E2FE08E2FF22E0F8A3E0F9A32A
:10060000E0FAA3E0FB22E2FB08E2F908E2FA08E2E2
:10061000CBF822ECF0A3EDF0A3EEF0A3EFF022EC88
:10062000F208EDF208EEF208EFF222A8828583F0DC
:10063000D083D082120632120632120632120632ED
:10064000E473E493A3C583C5F0C583C8C582C8F02D
:10065000A3C583C5F0C583C8C582C822D083D08214
:10066000E493F208740193F208740293F20874039D
:1006700093F2740473A42582F582E5F03583F58343
:1006800022FAE6FB0808E6F925F0F618E6CA3AF67B
:1006900022E493FB740193FA740293F922D083D07D
:1006A00082F8E4937012740193700DA3A393F8740D
:1006B0000193F5828883E4737402936860EFA3A3C7
:1006C000A380DFEC8EF0A4CCC5F0CCCDF8EFA4CEA7
:1006D000C5F02DFDE43CFCE8A42EC8C5F03DFDE4CA
:1006E0003CFCEFA4FFE5F028FEE43DFDE43CFC22E9
:1006F0009001ED12061B000000009000681205D268
:100700009001F11206039001F11205D2900078E0F9
:1007100025E025E02454F582E43400F5831205EA4F
:1007200012044E9001F11206039001F11205D290CD
:1007300001C81205EA1204419001F112060390016A
:10074000C81205D2900078E025E025E02454F58217
:10075000E43400F583120603900078E004F0E075BD
:10076000F00584E5F0F09001F11205D290006812D6
:1007700006039000681205D29001F9120603900159
:10078000FD7402F090006C1205D2122F0C90006CD8
:100790001206039000D81205D2AB07AA06A905A835
:1007A0000490006C1205D212044E9001901205EADA
:1007B0001204419001ED120603E4FFFEFDFC9001DE
:1007C000ED1205EAC312057950037F0222E47FFF90
:1007D0007EFFFDFC9001ED1205EAD3120579400A77
:1007E0009001ED12061B0000FFFF9001ED1205D2F3
:1007F000900070EEF0FCA3EFF0FDA3E0FEA3E0FF9D
:1008000012003EAC06AD0790346EE493C313FE7441
:10081000019313FFD3ED9FEC9E4053900226E060BE
:100820003E900072E0FEA3E0FFE4FCFDC004C005C2
:10083000C006C007900070E0FEA3E0FFE49001F95D
:100840001206039001FD7402F0D007D006D005D047
:1008500004122F0C900072EEF0A3EFF00208D99072
:100860000070E0FFA3E0A3CFF0A3EFF0807B3006A1
:100870003D900072E0FEA3E0FFE4FCFDC004C00573
:10088000C006C007900070E0FEA3E0FFE49001F90D
:100890001206039001FD7404F0D007D006D005D0F5
:1008A00004122F0C900072EEF0A3EFF0803B90004A
:1008B00072E0FEA3E0FFE4FCFDC004C005C006C07A
:1008C00007900070E0FEA3E0FFE49001F912060338
:1008D0009001FD7420F0D007D006D005D004122F6F
:1008E0000C900072EEF0A3EFF0900074E0FFA3E034
:1008F000A3CFF0A3EFF0900072E0FEA3E0FF12128E
:10090000A5900074EEF0A3EFF09000A5E0FCA3E04A
:10091000FDC3EF9DFFEE9CFEE4FCFD9001ED120691
:1009200003E47FFF7EFFFDFC9001ED1205EAC31298
:100930000579400974FF7806F208F280189000A546
:10094000E0FEA3E0FFC3900075E09F7807F29000FF
:1009500074E09E18F2E4FDFCED25E0FFEC33FE743C
:10096000FB2FF58274003EF583E0FAA3E0FB74F9F7
:100970002FF58274003EF583EAF0A3EBF00DBD0085
:10098000010CED641D4C70D07806E2FF08E2900186
:1009900033CFF0A3EFF0E4FBFAFCFDED25E0FFEC34
:1009A00033FE74F92FF58274003EF583E0FEA3E078
:1009B000D39BEE9A4016ED25E0FFEC33FE74F92F41
:1009C000F58274003EF583E0FAA3E0FB0DBD000163
:1009D0000CED641D4C70C4AF03900135EAF0A3EF39
:1009E000F07F06229001EEEEF0A3EFF0E4A3F0A377
:1009F000F0900143E07003020BE1D390015EE094BC
:100A00000090015DE09400402374FFF5F012042B88
:100A10007F101236D3900176EEF0A3EFF07816E255
:100A2000FF08E29000F5CFF0A3EFF022D39001771A
:100A3000E09400900176E09400400974FFF5F01214
:100A4000042B801B7F101236D3900176EEF0A3EFBB
:100A5000F07816E2FF08E29000F5CFF0A3EFF090F7
:100A600000F5E0C313FEA3E013FFC37817E29F185D
:100A7000E29E50187F111236D3EF7803C333CE3382
:100A8000CED8F9FF9000F7EEF0A3EFF0D39000F886
:100A9000E094009000F7E09400400774FFF5F01236
:100AA000042B9000F7E07002A3E0601AE490013B91
:100AB000F0A3F0900137F0A3F09000E01205D2907F
:100AC00000E412060322900074E0FEA3E0FFA3E01E
:100AD000FCA3E0FD12003ED3EF9432EE9400401AE6
:100AE000E490013BF0A3F0900137F0A3F09000E018
:100AF0001205D29000E412060322900076E0FEA3D5
:100B0000E0FFC3900075E09FFF900074E09E9001AD
:100B1000378FF012042B90013BE475F00112042B87
:100B20009001EEE0FEA3E0FFC390013CE09F900146
:100B30003BE09E40689000E41205D29001F6120658
:100B4000039000E01205D212362EE47B78FAF9F811
:100B5000C312058F4003020C18900137E0FEA3E09A
:100B60007802CEA2E713CE13D8F8FF7C007D0312E3
:100B700003C49001F0EEF0A3EFF09000A5EE8FF02B
:100B800012042BE490013BF0A3F0900137F0A3F0A6
:100B90009000E01205D29000E4120603229000E4D7
:100BA0001205D29001F61206039000E01205D2124F
:100BB000362EE47B78FAF9F8C312058F506A90015B
:100BC00037E0FEA3E0FF9001F0EEF0A3EFF090001D
:100BD000A5EE8FF012042BE490013BF0A3F09001FE
:100BE00037F0A3F09000E01205D29000E412060363
:100BF00022E4FF1236D390015DEEF0A3EFF0E49013
:100C0000013BF0A3F0900137F0A3F09000E0120553
:100C1000D29000E4120603E49000F5F0A3F0A3F0F4
:100C2000A3F0900176F0A3F022E49001EEF01238E8
:100C3000DCE49001ECF09001ECE0FFC3940250176B
:100C4000EF25E025E02434F812064C000000009067
:100C500001ECE004F080DF123894E49001ECF090B5
:100C600001ECE0FFC394025047EF25E025E0243477
:100C7000F8C0001205DEC004C005C006C007900120
:100C8000ECE0247CF582E43401F583E0FF1230715E
:100C9000A804A905AA06AB07D007D006D005D00442
:100CA000120441D00012060F9001ECE004F080AF76
:100CB0009001EEE004F0E0C39405409BE49001EC69
:100CC000F09001EEE0FFE4FCFDFEC004C005C006AC
:100CD000C0079001ECE025E025E02434F81205DEA1
:100CE000D003D002D001D0001204E7C004A905AAA5
:100CF00006AB079001ECE0242BF8E6FFE4FCFDFED8
:100D0000D00012045C78071205A09001ECE025E009
:100D100025E024BCF582E43401F583120603E49057
:100D200001EDF09001EEE0FFE4FCFDFEC004C00523
:100D3000C006C0079001ECE025E025E02434F8125D
:100D400005DED003D002D001D0001204E79001EDFF
:100D5000E075F008A424A4F582E43401F583C0838F
:100D6000C0829001ECE0D082D08375F00412066559
:100D70001206039001EDE004F0E0B403A69001EC4C
:100D8000E025E025E024BCF582E43401F58312057A
:100D9000D2E47B107A27F9F8C312058F50489001EE
:100DA000ECE0FB25E025E024BCF582E43401F5838A
:100DB0001205D2EF24F0FFEE34D8FEED34FFFDEC47
:100DC00034FFFCEB25E025E02484F582E43401F5D2
:100DD000831206039001ECE025E02400F87427F26A
:100DE000087410F280389001ECE0FB25E025E02447
:100DF00084F582E43401F58312061B00000000EB49
:100E000025E025E024BCF582E43401F5831205D207
:100E10009001ECE025E02400F8EEF208EFF29001FA
:100E2000ECE0FB25E025E02434F812064C0000003D
:100E300000EB25E0244CF8E4F208F29001ECE0FF2E
:100E400025E02400F8E2FC08E2FDEF25E02408F8A4
:100E5000ECF208EDF2E025E02410F8E4F208F2E00C
:100E600004F0E064026003020CB122AB07E49001DD
:100E7000F1F0A312061B00000000EB606C1238DCDE
:100E8000784012064C000000001238947840120599
:100E9000F6C00090017FE0FF123071D000120441D3
:100EA000784012060F9001F1E004F0E0C394054091
:100EB000D8782EE6FFE4FCFDFE78401205F6120419
:100EC0005CC0079001F1E0FFFBE4FAF9F8D00712EB
:100ED00004E778071205A09001F21206039001F2D0
:100EE0001205D29001C81206039001C81205D290D3
:100EF00001D8120603E49001F0F09001F0E0FBC38A
:100F00009405501F9001C81205D2EB25E025E0247E
:100F100054F582E43400F5831206039001F0E004F6
:100F2000F080D7E47F05FEFDFC9001C81205EA12AF
:100F3000045C9000681206039000681205D29000CD
:100F40006C1206039000707475F0A37430F0A374F3
:100F500075F0A37430F0A37475F0A37430F0A3742B
:100F600075F0A37430F09000D81205D2AB07AA0632
:100F7000A905A80490006C1205D212044EC3743067
:100F80009FFF74759EFEE49DFDE49CFC9001901211
:100F9000060378067475F2087430F2E49001F0F0FC
:100FA0009001F0E0FFC3941D501BEF25E024F9F5FC
:100FB00082E43400F5837475F0A37430F09001F08E
:100FC000E004F080DB9001357475F0A37430F0E438
:100FD0007816F208F2780E7475F2087430F27840E0
:100FE00012064C00000000E47852F208F29001F082
:100FF000F09001F0E0FFC39414501BEF25E024793A
:10100000F582E43400F5837475F0A37430F0900138
:10101000F0E004F080DBE49000A3F0A304F0900083
:10102000A17475F0A37430F0D20AE49000A5F0A387
:10103000F0900078F09001F0F09001F0E0FBC394A4
:1010400005501F9000681205D2EB25E025E024A78B
:10105000F582E43400F5831206039001F0E004F019
:1010600080D7E49000BBF09000681205D29000BCDD
:10107000120603E4900174F0A3F09001C01205D2AF
:101080009001BC1205EA1204419000F1120603908F
:1010900001C01205D29001BC1205EA120441900071
:1010A000ED12060322E49001ECF0A3F0A3F0FCA300
:1010B000F020CA030212A47867E670030212A4E4C7
:1010C0009001ECF09001ECE0FE2467F8E6FD741767
:1010D0002EF582E43402F583EDF0E4F69001ECE0C5
:1010E00004F0E0B40ADE900217E0FE54F0FCEE5487
:1010F0000F9001EFF0AF04EF12068D11075011228F
:1011000060113D7011478011BB90126CA011ECB0C2
:1011100012A1C0000012A47828E64401F67F0A124A
:1011200036D3EEC313FEEF13FF90017AEEF0A3EF78
:10113000F0227828E654FEF67F0A1236D3EEC31367
:10114000FEEF13FF90017AEEF0A3EFF022E4FF121E
:101150003977782AA60722900218E07F00FE9001D6
:10116000EDF0A3EFF0900219E0FDEEEDFF9001ED40
:10117000EEF0A3EFF0D3940AEE940040030212A421
:101180009001EFE0FFB40F2DE49001ECF09001EC42
:10119000E0FEC3940440030212A4A3E0FCA3E0FD1C
:1011A000EE75F008A42435F8A60408A6059001EC15
:1011B000E004F080D89001EDE0FCA3E0FDEF75F0D5
:1011C00008A42435F8A60408A605229001EFE0FF44
:1011D00070117828E6FE20E1030212A454FDF67592
:1011E0001C0222EF640160030212A47828E6FF309B
:1011F000E1030212A44402F6751C02229001EFE002
:10120000FF703A7828E654DFF6E49001ECF09001A4
:10121000ECE0FE25E02468F582E43434F583E493C1
:10122000FC740193FDEE75F008A42435F8A60408BB
:10123000A6059001ECE004F0E0B402D222EF6401D4
:1012400070727828E64420F6E49001ECF09001EC0E
:10125000E0FF25E02498F582E43434F583E493FC40
:10126000740193FDEF75F008A42435F8A60408A6D0
:10127000059001ECE004F0E0B402D2229001EFE02E
:10128000FD70157828E6FE30E22A54FBF6900161E5
:10129000E04408F0751C0222EDB401187828E6FF3E
:1012A00020E2114404F6900161E04404F0751C0250
:1012B0002212381F229001F5EEF0A3EFF0E4FFA315
:1012C000F0A3F0A3F0A3F0A3F0A3F0A3F0A20B30DF
:1012D0000601B35028E4FF9001F5E0FCA3E0FDEF28
:1012E00025E02479F582E43400F583ECF0A3EDF0F9
:1012F0000FEFB414E2E49000A3F0A304F03006086A
:101300009001F77405F080069001F77414F09001D5
:10131000F5E0FEA3E0FF9000A3E0FD25E02479F5D1
:1013200082E43400F583EEF0A3EFF0ED25E02479BC
:10133000F582E43400F583E0FEA3E0FF9000A4E032
:1013400025E02479F582E43400F583E0FCA3E0FD98
:1013500012003E9001F8EEF0A3EFF09000A3E0043D
:10136000F0E0FF9001F7E0FEEF8EF084AFF0900028
:10137000A3EFF004A3F08EF084E5F0F090014FE0CD
:101380007002A3E0600302145E9001F8E0FEA3E0A7
:10139000FFD3940AEE940050129000A1E0FDA3E068
:1013A0009001FCCDF0A3EDF002146FD3EF94C8EEE2
:1013B0009400400302144B9000A1E0FEA3E0FF90D4
:1013C00001F5E0FCA3E0FD12003E9001FAEEF0A36F
:1013D000EFF09001F5E0FCA3E0FD9000A1E0FAA39E
:1013E000E0FBD39DEA9C40319001FAE0FEA3E0FFD0
:1013F000D39464EE94004015EE13FEEF13FFC3EB9D
:101400009FFFEA9E9000A1F0A3EFF0803D9000A125
:1014100074FFF5F012042B8031C3EB9DEA9C502A37
:101420009001FAE0FEA3E0FF9464EE94004011EE18
:1014300013FEEF13FF9000A1EE8FF012042B800A31
:101440009000A1E475F00112042B9000A1E0FFA32D
:10145000E09001FCCFF0A3EFF08024D20A9001F5D8
:10146000E0FFA3E09001FCCFF0A3EFF08011D20ADF
:101470009001F5E0FFA3E09001FCCFF0A3EFF03086
:101480000A119001F5E0FFA3E09000A1CFF0A3EFD7
:10149000F0C20A9001FCE0FEA3E0FF229001ECEE16
:1014A000F0A3EFF0E49001EFF0A3F0A3F09001625D
:1014B000E0FFA3E09001F0CFF0A3EFF0E49001EEA5
:1014C000F09001EEE0FBC3940240030215C89002C5
:1014D00021E07016900147E0B4030FD3900152E071
:1014E0009400900151E0940040209001EEE0FF252F
:1014F000E0244CF8E4F208F2EF25E025E02434F88B
:1015000012064C000000000215BFEB25E0244DF947
:10151000E3700219E3701C9001EEE0FF25E0240067
:10152000F8E2FC08E2FDEF25E02444F8ECF208EDD7
:10153000F2805E9001EEE0FD25E02444F8E2FE0832
:10154000E2FFED25E02400F8E2FC08E2FD12003E97
:10155000C39001F1E09F9001F0E09E50349001EEC5
:10156000E0FF25E02400F8E2FC08E2FDEF25E0249E
:1015700044F8ECF208EDF2E0FF25E0244CF8E4F248
:1015800008F2EF25E025E02434F812064C000000B4
:10159000009001EEE0FF25E02400F8E2FC08E2FD07
:1015A000EF25E025E02434F8C0001205F6AE04AFC4
:1015B00005E4FCFD120441D00012060F9001EEE09C
:1015C00025E0244CF808E22401F218E23400F290FD
:1015D00001EEE004F00214B1E49001EEF09001EEAF
:1015E000E0FFC394025024EF25E0244DF99001EC74
:1015F000E0FEA3E0FFC3E39F19E39E40069001EFE6
:10160000E004F09001EEE004F080D29001EFE0649D
:1016100002706F9001EEF09001EEE0FFC394025073
:1016200061EF25E0244CF8E2FE08E2FF4E6053E44F
:10163000FCFDC004C005C006C007E025E025E0248D
:1016400034F81205DED003D002D001D0001204E736
:101650009001EEE0FD25E02408F8EEF208EFF2ED4F
:1016600025E0244CF8E4F208F2ED25E025E02434EE
:10167000F812064C00000000C2209001EEE004F0D9
:101680008095229001EEEEF0A3EFF0D390017BE085
:10169000940090017AE094004028900135E0FFA387
:1016A000E0780ECFF208EFF2E47852F208F27840D8
:1016B00012064C000000009001E012061B00000022
:1016C0000522900226E0FB7019900148E0B4051253
:1016D00020223AD3900154E09400900153E094000A
:1016E000402BE47852F208F2784012064C000000D9
:1016F000009000D81205D29000DC120603EB7003B4
:1017000002184EE4900155F0A3F0C20F2278401267
:1017100005F6C0007806E2FE08E2FFE4FCFDD0001A
:10172000120441784012060F7853E22401F218E2C5
:101730003400F29001EEE0FEA3E0FFC308E29F1840
:10174000E29E504F9000DC1205D29001F612060383
:101750009000D81205D212362EE47B78FAF9F8C33D
:1017600012058F501D90346EE493FE74019378023D
:10177000CEC313CE13D8F9FFD37817E29F18E29E99
:101780005011A20B300601B34009202206200F039E
:1017900002184E9001EEE0FEA3E0FFC37853E29FF3
:1017A00018E29E400C9001E012061B000000018030
:1017B000499000DC1205D29001F61206039000D881
:1017C0001205D212362EE47B78FAF9F8C312058F8F
:1017D000500C9001E012061B00000002801C302219
:1017E0000C9001E012061B00000003800D300F0A70
:1017F0009001E012061B0000000430221990013510
:10180000E0FEA3E0FFD3780FE29F18E29E4030EEA7
:10181000F208EFF280297852E2FE08E2FFE4FCFDD4
:10182000C004C005C006C00778401205DED003D052
:1018300002D001D0001204E7780EEEF208EFF2E4D5
:101840007852F208F2784012064C00000000900036
:10185000D81205D29000DC120603C222C20F22E485
:10186000FD301C26ED25E02478F582E43434F58340
:10187000E493FE740193FFED25E024EDF582E4345A
:1018800001F583EEF0A3EFF0804D301D26ED25E04D
:101890002498F582E43434F583E493FE740193FFD5
:1018A000ED25E024EDF582E43401F583EEF0A3EFBD
:1018B000F08024ED25E02468F582E43434F583E4F7
:1018C00093FE740193FFED25E024EDF582E43401ED
:1018D000F583EEF0A3EFF00DED64027084E4FD7487
:1018E000017E00A805088005C333CE33CED8F9FFAA
:1018F000900140E0FBE4EF5B70030219C8ED25E0C6
:101900002420F8E2FE08E2FFED25E02418F8E2FAD0
:1019100008E2FBD39FEA9E402ED3EB942CEA94017D
:10192000400FED25E02420F87401F208742CF280B9
:1019300016ED25E02418F8E2FE08E2FFED25E0248C
:1019400020F8EEF208EFF2ED25E02488F582E43489
:1019500034F583E493FE740193FFED25E02419F937
:10196000D3E39F19E39E50030219F0ED25E02420F4
:10197000F9E3FE09E37802CEC313CE13D8F9FFEDE5
:1019800025E024EDF582E43401F583E0FAA3E0D309
:101990009FEA9E4020ED25E024EDF582E43401F538
:1019A00083E0FEA3E0FFED75F008A42435F8A60659
:1019B00008A607804BED25E02420F9E3FE09E37833
:1019C00002CEC313CE13D8F9FFED75F008A4243569
:1019D000F8A60608A6078028ED25E024EDF582E4A8
:1019E0003401F583E0FEA3E0FFED75F008A4243593
:1019F000F8A60608A607ED25E02420F8E4F208F290
:101A00000DED640260030218CF221238DC9001F25F
:101A1000E5BAF053BA0F43BA10E49001ECF090012C
:101A2000ECE0FFC39402501DEF25E025E02494F57F
:101A300082E43401F58312061B000000009001ECE3
:101A4000E004F080D99001EC7405F075ABFF12381A
:101A500094E49001EDF09001EDE0FFC39402503D5D
:101A6000EF25E025E02494F582E43401F583C0837A
:101A7000C0821205EAC0009001EDE0247CF582E40A
:101A80003401F583E0FF123071D000120441D0829E
:101A9000D0831206039001EDE004F080B9E4F5ABC9
:101AA000123894E49001EDF09001EDE0FFC3940250
:101AB0005051EF25E025E02494F582E43401F583CC
:101AC000C083C0821205D2C004C005C006C0079002
:101AD00001EDE0247CF582E43401F583E0FF12306F
:101AE00071A804A905AA06AB07D007D006D005D077
:101AF0000412044ED082D0831206039001EDE0045C
:101B0000F080A59001ECE014F0E06003021A3BE4E1
:101B10009001EDF09001EDE0FBC394025030A31270
:101B2000061B000F7580EB25E025E02494F582E488
:101B30003401F5831205EA9001EE1205D21204E792
:101B40009001EDE0242BF8A607E004F080C6900198
:101B5000F2E0F5BA22123A20900142EFF0701790AD
:101B600000F11205D29000E9120603E490015FF043
:101B7000A3F0C20E80669000F11205D29001F61219
:101B800006039000E91205D212362EE47B207A0378
:101B9000F9F8C312058F502090015FE475F001122F
:101BA000042B7F041236D3D3900160E09F90015F35
:101BB000E09E400BD20E8007E490015FF0A3F0306E
:101BC0000E1A90346E74019325E0FFE49333FEC344
:101BD000781FE29F18E29E500312381F12373B9085
:101BE0000142E0FF1237F7EF7003021C807F021200
:101BF00036D39001ECEEF0A3EFF0D3900150E094D7
:101C00000090014FE0940040189001ECE0FEA3E04A
:101C10007805CEC313CE13D8F9F0EE9001ECF08026
:101C200021D3900179E09400900178E09400401273
:101C30009001ECE0C4F854F0C868F0A3E0C4540F7D
:101C400048F09001ECE0FEA3E0FF1216737F0E1245
:101C500036D39001ECEEF0A3EFF01209D4900143DB
:101C6000E0FFA3E06F602912337A900143E0A3F014
:101C7000A3E054F0601A7F081236D3900153EEF0BF
:101C8000A3EFF07F121236D3900155EEF0A3EFF0E0
:101C9000229001EC7407F0FBA312061B0000000069
:101CA0001238DC9001ECE0FF602074017E00A80790
:101CB000088005C333CE33CED8F9FFADACE4EF5D79
:101CC00070089001ECE014F080D9EB601B74017E89
:101CD00000A803088005C333CE33CED8F9FFADAEDC
:101CE000E4EF5D70031B80E29001ECE0FF7401A85B
:101CF00007088002C333D8FCF5AC7401A803088040
:101D000002C333D8FCFFF5AD8FAE53AACF9001F5D7
:101D1000E5BAF053BA0F43BA10123894E49001ECCC
:101D2000F09001ECE0FFC39402503B747C2FF582ED
:101D3000E43401F583E0FF1230719001F1120603E3
:101D40009001F11205D29001ED1205EAC312058F40
:101D5000500C9001F11205D29001ED120603900192
:101D6000ECE004F080BB9001ED1205EAC0009001A8
:101D7000ED1205D278041205A0D0001204419001A2
:101D8000ED1206039001ED1205D2900168120603D0
:101D90009001ED1205D278101205A08FB39001EDDD
:101DA0001205D278081205A08FB29001ED1205D26B
:101DB0008FB143AA309001F5E0F5BA75AC0375AD6B
:101DC000C075AEC022E49001ECF09001ECE0FE752D
:101DD000F008A4243BFBEE25E025E024BCF582E4DA
:101DE0003401F5831205D278041205A0AD07AC06C4
:101DF000AF03123A039001ECE0FE75F008A4243919
:101E0000FFEE25E02410F8E2FC08E2FD123A039010
:101E100001ECE0FE75F008A42437FFEE25E024185D
:101E2000F8E2FC08E2FD123A039001ECE004F0E075
:101E3000C3940240957F4BC0079000681205D2788A
:101E4000041205A0AD07AC06D007123A037F47C0C5
:101E5000079000D41205D278041205A0AD07AC0695
:101E6000D007123A037F53900074E0FCA3E0FD1208
:101E70003A037F4F7828E6FD7C00123A037F5590A5
:101E8000346EE493FC740193FD123A037F5790344F
:101E90006E74019324CEFDE49334FFFC123A037F69
:101EA000597D4B7C00123A037F5F7806E2FC08E222
:101EB000FD123A037F5D7816E2FC08E2FD123A0358
:101EC0007F5B781EE2FC08E2FD123A037F61780E28
:101ED000E2FC08E2FD123A039000681205D2780A8B
:101EE0001205A07863A6077828E6F52322439F040D
:101EF000E453C6DFE5C600B5C6F3758300758207F7
:101F000075FD0DE4E5FEF4FF75830075820675FD31
:101F10000DE4E5FEB50704F59E8003759E0078107C
:101F20000000D8FC53C6E043C60843C68075960738
:101F300075970575830075820475FD0DE5FD040434
:101F4000F58F75830075820375FD0DE4E5FEF4FFE2
:101F500075830075820275FD0DE4E5FEB50704F595
:101F600095800375958375BE0E5392FE9001007F98
:101F7000007E02E4F0A3DFFCDEFA78007F00E4F2EA
:101F800008DFFC78FFE4F6D8FD758175021FBD02FD
:101F90000000022CDEE493A3F8E493A34003F68050
:101FA00001F208DFF48029E493A3F85407240CC855
:101FB000C333C4540F4420C8834004F45680014600
:101FC000F6DFE4800B010204081020408090318F7E
:101FD000E47E019360BCA3FF543F30E509541FFE2B
:101FE000E493A360010ECF54C025E060A840B8E49C
:101FF00093A3FAE493A3F8E493A3C8C582C8CAC51F
:1020000083CAF0A3C8C582C8CAC583CADFE9DEE7B0
:1020100080BEE49001F0F0EF60601238DC783C1292
:10202000064C00000000123894783C1205F6C000FF
:1020300090017EE0FF123071D000120441783C1212
:10204000060F9001F0E004F0E0C3940540D8782D2D
:10205000E6FFE4FCFDFE783C1205F612045CC007C6
:102060009001F0E0FFFBE4FAF9F8D0071204E778FA
:10207000071205A09001C41206039001C41205D2F4
:102080009001D4120603E4FB9001C41205D2EB25A3
:10209000E025E024C0F582E43400F5831206030B4A
:1020A000EBB405E4E47F05FEFDFC9001C41205EAF3
:1020B00012045C9000D41206039000D41205D29052
:1020C00000E0120603E47F29FEFDFC9000D4120517
:1020D000EA12045C78041205A09000D8120603905E
:1020E00000D81205D29000DC1206039000D8120529
:1020F000D2EF24F0FFEE34D8FEED34FFFDEC34FFD8
:10210000FC90018C12060378047427F2087410F214
:10211000E49000E8F022E49001ECF09001ECE0FFA4
:10212000C394024003022201EF25E025E024BCF520
:1021300082E43401F5831205D2E47B107A27F9F8A2
:10214000C312058F50609001ECE0FB25E025E024F0
:10215000BCF582E43401F5831205D2EF24F0FFEEE2
:1021600034D8FEED34FFFDEC34FFFCEB25E025E038
:102170002484F582E43401F5831206039001ECE037
:10218000FF25E02400F87427F2087410F2EF25E030
:102190002410F8E4F208F2EF25E02408F87427F29E
:1021A000087410F280629001ECE0FB25E025E02449
:1021B00084F582E43401F58312061B00000000EB75
:1021C00025E025E024BCF582E43401F5831205D234
:1021D0009001ECE0FD25E02400F8EEF208EFF2EDCE
:1021E00025E02410F8E4F208F2ED25E025E024BC17
:1021F000F582E43401F5831205D29001ECE025E08C
:102200002408F8EEF208EFF29001ECE004F002216D
:102210000B227B077A079001EC12061B00000000DE
:10222000E4F5B375B28875B1B81238DCEB601B7495
:10223000017E00A803088005C333CE33CED8F9FF52
:10224000ADACE4EF5D70031B80E2EA601B74017EBD
:1022500000A802088005C333CE33CED8F9FFADAE57
:10226000E4EF5D70031A80E2AF037401A8070880F1
:1022700002C333D8FCF5AC7401A802088002C33352
:10228000D8FCFFF5AD8FAE53AACF9001F4E5BAF0BC
:1022900053BA0F43BA1012389490017FE0FF123006
:1022A000719001F01206039001F01205D29001EC3A
:1022B0001205EAC312058F500C9001F01205D2905E
:1022C00001EC1206039001EC1205EAC0009001EC4B
:1022D0001205D278031205A0D0001204419001EC3F
:1022E0001206039001EC1205D2900170120603430E
:1022F000AA309001F4E0F5BA75AC0375ADC075AEC7
:10230000C022E49001EDF09001EDE0FF25E024080B
:10231000F8E2FC08E2FDEF25E02400F8E2FE08E226
:10232000FFD39DEE9C401BE025E02408F8E2FC086A
:10233000E2FDC3EF9DFFEE9CFEE4FCFDA31206034D
:10234000800A9001EE12061B000000009001EE12C0
:1023500005D278071205B39001EE1206039001ED45
:10236000E025E02410F8E2FE08E2FFE4FCFD780737
:102370001205B39001F212060390013EE070247F33
:1023800003FEFDFC9001EE1205EA12045C9001F2DE
:102390001205EA12044178021205A09001F2120619
:1023A000038027E47F02FEFDFC9001F21205EA1291
:1023B000045C9001EE1205EA120441E47B03FAF991
:1023C000F81204E79001F21206039001F21205D20E
:1023D00078071205A09001EDE025E02410F8EEF258
:1023E00008EFF2E004F0E0640260030222F722C08A
:1023F000E0C0F0C083C082C0D075D008C2CFD20781
:1024000030CD030224C130CB3A20CC377871A6CE30
:10241000E6FFC39480402375F003EF902775120602
:10242000651206818B198A1A891B7819E475F001E7
:102430001206711203ABF5CE80097871E62518F803
:10244000E6F5CE30CC487871E6FFB4C00678677602
:10245000C0807CEFB4C106786776908072EFB4C21A
:1024600006786776918068EF64C36063EFC39480F9
:1024700040107819E475F0011206711203ABF5CE25
:10248000804D787106E62518F8E6F5CE804120CB20
:102490003E85CE1D7871E6FF7024E51DB4100990CD
:1024A0000227E0F452808027E51DB420089002271F
:1024B000E04280801A7867A61D7871068011EFC30C
:1024C000940A50087871E62467F8A61D787106D240
:1024D00005D0D0D082D083D0F0D0E0327B077A070D
:1024E0009001EC12061B000000001238DCEB601BB0
:1024F00074017E00A803088005C333CE33CED8F91B
:10250000FFADACE4EF5D70031B80E2EA601B740179
:102510007E00A802088005C333CE33CED8F9FFADC4
:10252000AEE4EF5D70031A80E2AF037401A8070800
:102530008002C333D8FCF5AC7401A802088002C342
:1025400033D8FCFFF5AD8FAE53AACF9001F0E5BABA
:10255000F053BA0F43BA1012389490017EE0FF1284
:1025600030719001EC1206039001EC1205EAC000F4
:102570009001EC1205D278041205A0D0001204419B
:102580009001EC1206039001EC1205D290016C123E
:1025900006039001EC1205D278101205A08FB390BB
:1025A00001EC1205D278081205A08FB29001EC124E
:1025B00005D28FB143AA309001F0E0F5BA75AC03B3
:1025C00075ADC075AEC022D3900150E0940090016B
:1025D0004FE09400400774FFF5F012042BD39001F4
:1025E00052E09400900151E09400400774FFF5F030
:1025F00012042BD390015CE0940090015BE0940006
:10260000401374FFF5F012042B90015BE07002A3FD
:10261000E07002D205900149E475F00112042BD359
:10262000900154E09400900153E09400400774FF3F
:10263000F5F012042BD3900156E09400900155E080
:102640009400401374FFF5F012042B900155E070D4
:1026500002A3E07002D20FD390015AE094009001DF
:1026600059E09400400774FFF5F012042BD3900159
:1026700079E09400900178E09400400774FFF5F051
:1026800012042BD390017BE0940090017AE0940037
:10269000400774FFF5F012042B229000D41205D2EB
:1026A0009001ED1206039001ED1205D29000E8E0D2
:1026B00025E025E024C0F582E43400F5831205EA24
:1026C00012044E9001ED1206039001ED1205D29016
:1026D00001C41205EA1204419001ED1206039001B3
:1026E000C41205D29000E8E025E025E024C0F58280
:1026F000E43400F5831206039000E8E004F0E0758E
:10270000F00584E5F0F09001ED1205D29000D412AE
:1027100006039000D41205D29001F912060390012D
:10272000FD7410F09000E01205D2122F0C9000E022
:10273000120603E47F29FEFDFC9000E01205EA1278
:10274000045C78041205A09000D812060390018C56
:102750001205D2AB07AA069000D81205D2C3EF9B90
:102760007805F2EE9A18F27F0622122E87123004B4
:1027700012384790013DEFF012376BEF70030228DB
:10278000287F011236D3AD07AC06D3900150E094F8
:102790000090014FE094004010ECC4F854F0C86879
:1027A000FCEDC4540F48FD802D302010ECC4F854CB
:1027B000F0C868FCEDC4540F48FD801AC37829E2C4
:1027C000941E18E29400500EECC4F854F0C868FC53
:1027D000EDC4540F48FDAE04AF0512148C90013EB9
:1027E000E060287F061236D3D390014EE09F90011F
:1027F0004DE09E400AE490013DF0A3F012210690C6
:10280000014DE475F00112042B8007E490014DF0B6
:10281000A3F090013EE0FFA3E06F601C122D7390C7
:10282000013EE0A3F0A3E054F0600D7F071236D321
:10283000900151EEF0A3EFF022E49001EEF0A3122C
:10284000061B00000000900143E0706ED3900179F8
:10285000E09400900178E0940040429000BC1205A2
:10286000D2AB07AA06A905A8049000681205D212E7
:10287000044E9001EF12060390346E74019325E02C
:10288000FFE49333FEE4FCFD9001EF1205EAD3125E
:10289000057940689001EEE04404F0805F90346E6A
:1028A000E493FE740193FFC3781FE29F18E29E40F9
:1028B0004B9001EEE04404F08042300D2090346EE5
:1028C00074019325E0FFE49333FEC3781FE29F1861
:1028D000E29E40289001EEE04404F0801F90346EA8
:1028E00074019324CEFFE49334FFFEC3781FE29F6C
:1028F00018E29E40079001EEE04404F09001EEE003
:10290000900226F022FE0000FE0008FE0008FE00F5
:1029100010FE0010FE0018FE0018FE0020010194B9
:1029200001019C0101A40101AC010221010222016B
:10293000022301013DFE0034FE0038FE004CFE0083
:102940004E01014401014001014501014D010149D0
:1029500001014B01014F01015901015B01014F01CF
:10296000018401018C010165010167010168010118
:10297000700101DC0101E401006C010070010072D2
:102980000100740100D40100D80100E001017600CB
:10299000002B00002D0101350100F901017A010130
:1029A000A40101B40101C40101BC0101CC00003546
:1029B00000003DFE0020010166E49001ECF0A3F070
:1029C00030071790014BF0A3744BF07F0D1236D3F4
:1029D000900159EEF0A3EFF0C207A206920B7828FF
:1029E000E6FF20E10330E20D90014BE4F0A3744BCD
:1029F000F0C2068038D3900150E0940090014FE07F
:102A00009400501190015AE09400900159E0940014
:102A1000500320050D90014BE4F0A3744BF0C20667
:102A2000800B90014BE4F0A37404F0D2063006084A
:102A3000E4FF12366612000EA20B300601B3501EE0
:102A4000E490015FF0A3F0900143E06004D20D80B8
:102A50000D7F031236D3900178EEF0A3EFF09001D2
:102A600043E07008300D0312381FC20D22E49001BC
:102A7000ECF0900161E054036032C2057F0B123626
:102A8000D390015BEEF0A3EFF0900161E054FCF015
:102A9000C29278657600087696786508E6161886FC
:102AA000067001164E60030080EFD292900161E043
:102AB000FF30E214900145E0540F6022782576043F
:102AC0009001EC7401F08016EF30E312900145E0C4
:102AD000540F600A782576409001EC7401F0900163
:102AE00061E054F3F09001ECE0602BC2057F0B1223
:102AF00036D390015BEEF0A3EFF0786576000876B0
:102B000096C292786508E6161886067001164E6021
:102B1000030080EFD292221238DC9001EDE5BAF08A
:102B200053BA0F43BA1090019C12061B000000001C
:102B30009001EC7405F075ABFF12389490019C1273
:102B400005EAC00090017EE0FF123071D00012044F
:102B50004190019C120603E4F5AB12389490019C5D
:102B60001205D2C004C005C006C00790017EE0FF78
:102B7000123071A804A905AA06AB07D007D006D069
:102B800005D00412044E90019C1206039001ECE063
:102B900014F0E070A17F007E3A7D207C0090019CC3
:102BA0001205EA1204E7782DA6079001EDE0F5BAC8
:102BB00090017EE090345F93F5AB22C0E0C0F0C09E
:102BC00083C082C0D075D01053B9FD900164E06419
:102BD000017038FB747C2BF582E43401F583E0FF4F
:102BE000123071EB25E025E02494F582E43401F500
:102BF000831206030BEBB402DBE4FF1232DB43B9B2
:102C000001D2D89001647402F08041900164E0B474
:102C1000022090017EE0FF12307190019C120603A9
:102C2000E4FF1234EF43B901D2D89001647403F089
:102C3000801A900164E0B4031390017FE0FF12302A
:102C4000719001A0120603900164E4F0D0D0D0820C
:102C5000D083D0F0D0E032E49001ECF07825F6FF9C
:102C60001239779001ECEFF0BFFF067826760A80E4
:102C700004782676FF78277619E408F6782A76FF16
:102C8000FFEF25E02468F582E43434F583E493FC17
:102C9000740193FDEF75F008A42435F8A60408A686
:102CA00005EF75F008A42437F8E4F608F6EF75F0A0
:102CB00008A42439F8E4F608F6EF75F008A4243BDC
:102CC000F8E4F608F60FEFB402B7E47855F608F624
:102CD00008F608F608F608F608F608F608F608F604
:102CE00008F608F608F608F608F6751825221239CF
:102CF0003B1239E0123A13122C471238BA12370736
:102D00001238FDD2AF751C01E51C24FE601F24FEA5
:102D1000603014604414604E2405705B1239CE128A
:102D200039F21239BA12398E7F02123536D2D812E0
:102D30003134900164E070FA7F011235B8751C04DB
:102D40008038D2D8900164E070FA12005E8F1C12B5
:102D500029A97F011235B8802112332C8F1C121D36
:102D6000B51225B7801430000312275A121B4512E2
:102D70003579751C048003751C011200031210952F
:102D80008086229001ECEFF0900161E06003022E5A
:102D900001F9FFFE7401A806088002C333D8FCFDC8
:102DA0009001ECE05DFC90013FE05D6C60079001FC
:102DB00061E04401F090013FE05DB50513EE2404AD
:102DC000FC7401A804088002C333D8FC49F9800DC3
:102DD0007401A806088002C333D8FC49F99001ECBD
:102DE000E05DB5050F7401A806088002C333D8FC66
:102DF0004FFF8011EE2404FD7401A805088002C372
:102E000033D8FC4FFF0EEE64027089E95F900140F9
:102E1000F0229001EE12061B0000000090006812E4
:102E200005D29000BBE025E025E024A7F582E4343C
:102E300000F5831206039000BBE004F0E075F00596
:102E400084E5F0F0A20B300601B3504AE49001EDA6
:102E5000F09001EDE0FFC394055026A31205EAEFC0
:102E600025E025E024A7F582E43400F5831205D29D
:102E70001204419001EE1206039001EDE004F0808F
:102E8000D0E47B05FAF9F89001EE1205D21204E7BE
:102E90009000BC120603227818E2FE08E2FF9001BF
:102EA000ECEEF0A3EFF0A3EEF0A3EFF07F01EF253F
:102EB000E02418F8E2FC08E2FDD39001EDE09D90DB
:102EC00001ECE09C400FEF25E02418F8E2FD08E259
:102ED000CDF0A3EDF0EF25E02418F8E2FC08E2FDC8
:102EE000C39001EFE09D9001EEE09C500FEF25E0D4
:102EF0002418F8E2FD08E2CDF0A3EDF00FEFB402E4
:102F0000AD9001ECE0FFA3E0782ACFF208EFF2A346
:102F1000E0FFA3E07828CFF208EFF2229001F5124B
:102F200006039001FE12061B000000009001F5123E
:102F300005D278041205B39001F51206039001F949
:102F40001205D278041205B39001F912060390011C
:102F5000FDE024FFFFE434FFFEE4FCFD9001F512E8
:102F600005EA12045C9001F91205EA120441C00757
:102F70009001FDE0FFFBE4FAF9F8D0071204E790B6
:102F800001FE1206039001FE1205D278041205A07C
:102F90009001FE1206039001FE1205D222E4900178
:102FA000EDF09001EDE0FFC394025065EF25E025C0
:102FB000E02484F582E43401F5831205D2AB07AA3C
:102FC00006A905A8049001EDE025E025E024BCF564
:102FD00082E43401F5831205D212044E9001EE1200
:102FE0000603E47FFF7EFFFDFC9001EE1205EAC3BD
:102FF00012058F40037F02229001EE1205D290014C
:10300000EDE025E02400F8EEF208EFF2E004F080B5
:10301000917F0622E49001ECF09001ECE0FF25E0C6
:103020002408F8E2FC08E2FDEF25E02400F8E2FEC7
:1030300008E2FFC39DEE9C503DE025E02409F8C363
:10304000E29FFF18E29EFE7C007D641206B3C0067C
:10305000C007E025E0242CF8E2FE08E2FFFBAA0608
:10306000E4F9F8D007D0061204E7D3EF940AEE94FF
:10307000004003D220229001ECE004F0E0B4029979
:1030800022EFC39404500553B9EF800343B910EF06
:103090006003B4040C7873A6B708A6B608A6B5807A
:1030A0003DEF64016004EFB4050C7873A6EB08A64D
:1030B000EA08A6E98028EF64026004EFB4060C7801
:1030C00073A6F308A6F208A6F18013EF6403600468
:1030D000EFB4070A7873A6FB08A6FA08A6F9787277
:1030E0001205C622E4FBFE900165E0FD747C2EF51E
:1030F00082E43401F583E090345F93FCED4C900161
:1031000065F00EEEB402E0900166E0FF90017EE013
:1031100090345F93FEEF4E900166F0A3E0FF9001C4
:103120007FE090345F93FEEF4EFF900167F09001D7
:1031300066E0FE900165E04E4FFB42D442F442E46B
:10314000F452DC227828E6FF30E104D2008002C28B
:1031500000EF30E204D2018002C201E4900149F0A4
:10316000A3F0900202F0A3F0A202300001B35012CB
:10317000A200920212328A30000512210680031248
:103180002106300805120C19C208A203300101B350
:103190005004A201920330090512381FC2092260AF
:1031A0003F013D00000000000000000000000000A2
:1031B000000000000000000000000000000000000F
:1031C00000000000000000000000000000000000FF
:1031D00000000000000000000000000000000000EF
:1031E000000048017C05060002FFFFFFFF0472009B
:1031F00000000000A907E4FF7E04EEC3940450140D
:10320000747C2EF582E43401F583E090345F934FB3
:10321000FF0E80E6E96005EF42D48004EFF452D45B
:10322000EFF4FE52F4EF42E4ED6005EF42EC800370
:10323000EE52ECEFF4FE52DCEB6005EF42808003CF
:10324000EE5280900227EFF022E49001EDF0900121
:10325000EDE0FFC394025041EF25E02410F8E2FEB8
:1032600008E2FF7C007D641206B3C006C007E025BB
:10327000E0242CF8E2FE08E2FFFBAA06E4F9F8D00D
:1032800007D0061204E79001EDE025E02418F8EEDF
:10329000F208EFF2E004F080B522E4FF90013EF086
:1032A000A3F0900147F090014DF0A3F0900151F090
:1032B000A3F0900140F0A3F0F524EF25E0242CF8D2
:1032C000E2FC08E2FD900162EC8DF012042B0FEF9E
:1032D000B402E7900162E0FEA3E0FF7C007D0A12E9
:1032E00003D6900162EEF0A3EFF02275AA3B53BA29
:1032F0000F43BA0843BA2043B92053B9BFEF600B5C
:10330000E4F5B375B28875B1B8800E90016DE0F543
:10331000B3A3E0F5B2A3E0F5B175BB8675A9C0E42F
:10332000F5AB75AC0375ADC075AEC0900166E0F548
:10333000B490017EE090345F93F5AB229001EC7481
:1033400006F0300016122F8D9001ECEFF0BF020551
:10335000D208E0FF221222F212323912268A90019C
:10336000ECEFF0BF0205D208E0FF221206E0900168
:10337000ECEFF0BF0205D209E0FF22122E02123755
:103380009B1237C99001ECE0FF22AA07900161E08F
:10339000F97044FCFF7E04EA540FFD900144E054B0
:1033A0000F6D600A300107E94402900161F090015D
:1033B00044E0540F6008EEC454F04CFC8003EC4E23
:1033C000FCEA540F6005EF4EFF8006EEC454F04F48
:1033D000FFEC5F900145F0229001EC12061B00000B
:1033E0000000E49001F0F09001EC1205EAC00090BA
:1033F00001F0E0242BF8E6FFE4FCFDFED00012040F
:10340000419001EC1206039001F0E004F0E0B402F8
:10341000D6E47B02FAF9F89001EC1205D21204E727
:10342000782EA60722C0E0C0F0C083C082C0D0754D
:10343000D000C000C28D758C32758AEB900202E418
:1034400075F00112042BC3900203E0941490020261
:10345000E09400400D900149E4F0A3F0900202F0E6
:10346000A3F0D000D0D0D082D083D0F0D0E0320111
:1034700002040810204080EC00370037003C00FABE
:10348000003C003C003C003C003C003C003C003C5C
:10349000003C003C003C003C00780078003C003CD4
:1034A000003C003C003C003C03E803E8003C003CDE
:1034B000003C003C003C003C75AA3B53BA0F43BAA9
:1034C0000843BA4043B92053B9BFEF600BE4F5B3EA
:1034D00075B28875B1B8800E900169E0F5B3A3E0CC
:1034E000F5B2A3E0F5B175BBFF75A908E4F5AB75BE
:1034F000AC0375ADC075AEC0900165E0F5B4227542
:10350000AA3B53BA0F43BA0843BA2043B92053B970
:10351000BFEF600BE4F5B375B28875B1B8800E905B
:103520000171E0F5B3A3E0F5B2A3E0F5B175BB8698
:1035300075A9C0E4F5AB75AC0375ADC075AEC090B0
:103540000167E0F5B4227828A607EFB40208D2029A
:10355000D200C203C201EFB40408C202C200D20307
:10356000D201EFB40608D202D200D203D2019001F8
:103570004BE4F0A3744BF07F0C1236D390014FEE66
:10358000F0A3EFF0C206C20B22E4FFFE3000109061
:103590000141E0FD900140E0FC6D6003ECFF0E3066
:1035A0000112900146E0FD900145E0FC6D6005ECE4
:1035B0004FFF7E01EE60047825A607900140E0A34E
:1035C000F0900145E0A3F0229001ECEFF0E09001D3
:1035D00064F0B40111300007E4FF1234A88013E452
:1035E000FF1232DB800C9001ECE0B40305E4FF1223
:1035F00034EF75BF0F43B92053B9FD43BA0143B946
:1036000001D2D822E4FFFEEE75F008A42436F8E6D5
:1036100024F1FD18E634FFFCEE25E02419F9C3E39C
:103620009D19E39C400D7401A806088002C333D89D
:10363000FC4FFF0EEEB402CF900223EFF022900178
:10364000F21206039001F61205D29001F21205EA79
:10365000D312058F40109001F61205EA9001F21284
:1036600005D212044E229001F21205EA9001F612E0
:1036700005D212044E22E4900164F053B9FD53B90F
:10368000DF43CC02C2D9439F10539FFD438760752F
:103690009262C28DEF700675BD0D75BC011239A521
:1036A00075BE0CD28C4387030000000022E4FFFEAD
:1036B000EE75F008A42435F8E6FC08E6FDEE25E0FA
:1036C0002419F9C3E39D19E39C400D7401A8060871
:1036D0008002C333D8FC4FFF0EEEB402D390022118
:1036E000EFF0227B017A00EFC3941340057F017E47
:1036F0000022EF25E0246FF582E43438F583E4936B
:10370000FF7E0090014BE0FCA3E0FD1203C4AA067B
:10371000AB07AE02AF032243F80875CD4053CC7F10
:1037200043CC4043CC2043CC1043CC0453CCFD438A
:10373000CB0243CB0153CBBF43E80853E5FC43E343
:103740000243F50343900343ED0322780EE2FE08A3
:10375000E2FF7806E2FC08E2FDC39FEC9E5019C32D
:10376000780FE29DFF18E29CFED3EF941EEE9400CA
:103770004003D22222C22222C222227E0390013E94
:10378000E06F6007EFF0E4900147F090013EE070D9
:10379000027E01AF06900147E004F0C39F50037F13
:1037A00000229001477403F07F0122780EE2FC08AA
:1037B000E2FD7806E2FA08E2FBD39DEA9C400F782E
:1037C0000EE2FC08E2FDEB9DFFEA9CFE8003E4FEB6
:1037D000FF7816EEF208EFF2227816E2FE08E2FF1A
:1037E0007C007D641206B3C006C0077832E2FE0892
:1037F000E2FFFBAA06E4F9F8D007D0061204E77846
:103800001EEEF208EFF2227E05900143E06F6007A2
:10381000EFF0E4900148F0AF06900148E004F0C3F7
:103820009F50037F00229001487405F07F01229091
:103830000164E070FAE4FF120E5BE4FF122002E480
:10384000900143F0900148F0900153F0A3F0A3F0F1
:10385000A3F0900145F02212184F12369D1235F454
:1038600090013EE0700A900221E09001ECF08008A7
:10387000900223E09001ECF09001ECE0FF220002C6
:1038800001010208030104050501060607010801FC
:1038900009010A010B010C030D010E0F0F041001A9
:1038A000113C120275BF0F00000000000000000074
:1038B000000000000000000000D2D853B9FD43B959
:1038C00001E5B930E1FBE4F5BF22438901C28DD2A5
:1038D000A953B8FDE4900202F0A3F0900149F0A3CF
:1038E000F0758C32758AEBD28CD2AF2253BAFEE5DA
:1038F000B920E006900164E06005E5B930E1FBE441
:10390000F5BF53B9FD53B9FE900164F022782C74D1
:1039100001F20874AEF208E4F20874DCF208E4F292
:10392000087464F208E4F2087464F222EF6005435C
:10393000D504800353D5FB53F5FB53E5FB43E30468
:1039400043ED04E4900161F0D29222E4F5E3439F59
:1039500010439F02FF0FEFB4FFFB539FEF75BE0EA6
:10396000E4F5BFF5B975927622E4900143F0A3F037
:10397000900148F0900153F0A3F0A3F0A3F0900160
:1039800045F0A3F0C20D22E4FFF582F5837440FEFA
:10399000E493F42FFFA3EEB583F6227F0022E49098
:1039A000015BF0A3F07F0D1236D3900159EEF0A326
:1039B000EFF0D20522438901C28CC28FE49002024B
:1039C000F0A3F0758CFB758AED227F011234EF12A3
:1039D00033C81222027F01120E5B123959227F0175
:1039E0001234A81219FA121C81120C1912328A22EE
:1039F0001230D47B017D01E4FF1231E47F011239E2
:103A00001C227F011232DB122B071224CC7F011201
:103A100020022220C90CC2AFA807A60408A605D21E
:103A2000AF2222C2DA53D80F43D8D0D2D8D2D9226B
:103A3000122829900226E0FF22FFFFFFFFFFFFFF71
:103A4000FFFFFFFFFFFFFFFFFFFFFFFFFFFFFFFF86
:00000001FF
