:10000000011009001E000000803D0000FF000000FC
:10001000021F3EE4FF1214C122FFFF02380230002B
:100020000D7F01123B1990017C7401F0800B7F0160
:1000300012398890017C7402F075BF0F43B92053C8
:10004000B9FD43BA0143B901D2D822022BE6AB076E
:10005000AA06D3EB9DEA9C4007EB9DFFEA9CFE229B
:10006000C3ED9BFFEC9AFE22FFFFFF02295AE490AA
:1000700001A0F09001A0E0FB25E025E024D0F5826E
:10008000E43400F583120A539001A6120AA49001E9
:10009000A6120A53EB75F014A424BCF582E43400D4
:1000A000F583C083C0829000E0E0D082D08375F0F9
:1000B00004120B06120A6B1208AD9001A6120AA4D4
:1000C0009001A6120A539001A0E025E025E0242E1D
:1000D000F8120A771208A09001A6120AA49001A0B3
:1000E000E0FB25E025E0242EF8120A5FEB75F01402
:1000F000A424BCF582E43400F583C083C082900060
:10010000E0E0D082D08375F004120B06120AA490AE
:1001100001A6120A539001A0E0FB25E025E024D0BF
:10012000F582E43400F583120AA4EB25E025E024EF
:10013000D0F582E43400F583120A53C004C005C030
:1001400006C0079001B0120ABC000100009001A097
:10015000E025E025E024A0F582E43400F583120ACE
:10016000539001B4120AA4D007D006D005D00412CF
:1001700023B69001A0E0FB25E025E024D4F582E43D
:100180003400F583120AA4EB25E025E024B8F582BB
:10019000E43400F583120A53AB07AA06A905A804A4
:1001A0009001A0E025E025E024D4F582E43400F5B8
:1001B00083120A531208AD9001A2120AA4E4FFFEB2
:1001C000FDFC9001A2120A6BC31209D850037F02F2
:1001D00022E47FFF7EFFFDFC9001A2120A6BD31286
:1001E00009D8400A9001A2120ABC0000FFFF90014A
:1001F000A2120A539001A0E0FD25E024D8F582E484
:100200003400F583EEF0A3EFF0ED25E024DAF5827B
:10021000E43400F583E0FEA3E0FFED25E024D8F50B
:1002200082E43400F583E0FCA3E0FD12003E90017F
:10023000A0E0FB25E024A6F582E43438F583C374FE
:1002400001939FE4939E50539001A0E0FF25E0248A
:10025000D8F582E43400F583E0FCA3E0FDEF25E06F
:1002600024DAF582E43400F583ECF0A3EDF0EB251D
:10027000E024D8F582E43400F583E0FEA3E0FFE457
:10028000FCFD7804120A26EB25E025E024DCF5824B
:10029000E43400F583120AA40203163006459001E7
:1002A000A0E075F004A424DCF9740035F0FA7B01B9
:1002B000E025E024D8F582E43400F583E0FEA3E0F5
:1002C000FFE4FCFD9001B37404F01232DF9001A052
:1002D000E025E024DAF582E43400F583EEF0A3EFC4
:1002E000F080439001A0E075F004A424DCF97400D0
:1002F00035F0FA7B01E025E024D8F582E43400F5FE
:1003000083E0FEA3E0FFE4FCFD9001B37420F01253
:1003100032DF9001A0E025E024DAF582E43400F534
:1003200083EEF0A3EFF0E49001A1F09001A0E0FFD4
:1003300075F040A42405F582E43401F583C083C040
:10034000829001A1E0FED082D08375F002120B06EC
:10035000E0FCA3E0FDEF75F040A42403F582E43453
:1003600001F58375F002EE120B06ECF0A3EDF090B0
:1003700001A1E004F0E0B41FB29001A0E0FF25E08D
:1003800024DAF582E43400F583E0FCA3E0FDEF75A8
:10039000F040A42441F582E43401F583ECF0A3EDB0
:1003A000F0E49001AAF0A3F09001A6120ABC0000AC
:1003B0000000E49001A1F09001A1E0FFC39420505F
:1003C000719001A0E075F040A42403F582E43401AB
:1003D000F58375F002EF120B06E0FEA3E0FFC39079
:1003E00001ABE09F9001AAE09E5005EEF0A3EFF074
:1003F0009001A6120A6B9001A0E075F040A42403BE
:10040000F582E43401F583C083C0829001A1E0D07D
:1004100082D08375F002120B06E0FEA3E0FFE4FC3D
:10042000FD1208A09001A6120AA49001A1E004F018
:1004300080859001AAE0FEA3E0FF9001A0E0FB25EB
:10044000E02443F582E43401F583EEF0A3EFF0906D
:1004500001A6120A53EB25E025E02445F582E43499
:1004600001F583120AA49001A6120A537805120915
:10047000FF9001A0E0FD25E02449F582E43401F578
:1004800083EEF0A3EFF030061DED25E024DAF582CF
:10049000E43400F583E0F8A3E0FFED25E02432C862
:1004A000F208EFF2801BED25E02449F582E43401E7
:1004B000F583E0F8A3E0FFED25E02432C8F208EF71
:1004C000F29001A0E004F0E0C39401500302006345
:1004D0009000E0E004F0E0B40502E4F07F0622AB17
:1004E00007E49001A5F0A3120ABC00000000EB7025
:1004F000030205CA123C26E49001A3F09001A3E098
:10050000FFC39401501DEF25E025E024FBF582E4B4
:100510003400F583120ABC000000009001A3E0043F
:10052000F080D9123BBBE49001A3F09001A3E0FF5F
:1005300025E025E024FBF582E43400F583C083C088
:1005400082120A6B746B2FF582E43400F583E0FFAE
:100550001235701208A0D082D083120AA49001A391
:10056000E004F0E0C3940140C29001A5E004F0E093
:10057000C3940540AEE49001A3F09001A3E0FBC357
:1005800094015056743C2BF8E6FFE4FCFDFEEB258D
:10059000E025E024FBF582E43400F583120A6B12B7
:1005A00008BBC0079001A5E0FFFBE4FAF9F8D0070B
:1005B00012094678071209FF9001A6120AA49001B9
:1005C000A6120A539001A3E025E025E0242EF8129C
:1005D0000AB09001A3E004F080A0E49001A3F0E44D
:1005E0009001A4F09001A3E0FB25E025E0242EF883
:1005F000120A5FEB75F014A424BCF582E43400F514
:1006000083C083C0829001A4E0D082D08375F004BF
:10061000120B06120AA49001A4E004F0E0B405C491
:100620009001A3E025E025E0242EF8120A5FE47B88
:1006300005FAF9F81208BB9001A3E0FB25E025E0DC
:1006400024D0F582E43400F583120AA4EB25E025DA
:10065000E024D0F582E43400F583120A53C004C0CC
:1006600005C006C0079001B0120ABC00010000904E
:1006700001A3E025E025E024A0F582E43400F58321
:10068000120A539001B4120AA4D007D006D005D0A4
:10069000041223B69001A3E0FB25E025E024D4F565
:1006A00082E43400F583120AA4EB25E025E024D48B
:1006B000F582E43400F583120A53EF24D0FFEE34C0
:1006C0008AFEED34FFFDEC34FFFCEB25E025E02451
:1006D000B8F582E43400F583120AA4EB25E024D8AF
:1006E000F582E43400F5837475F0A37430F0EB25E3
:1006F000E024DAF582E43400F5837475F0A37430F5
:10070000F0EB25E024DAF582E43400F583E0FEA383
:10071000E0FFE4FCFD7804120A26EB25E025E02446
:10072000DCF582E43400F583120AA4EB25E02432E0
:10073000F87475F2087430F2E49001A4F09001A40A
:10074000E0FFC3942050279001A3E075F040A4245B
:1007500003F582E43401F58375F002EF120B0674A1
:1007600075F0A37430F09001A4E004F080CF900104
:10077000A3E0FF25E02443F582E43401F58374759A
:10078000F0A37430F0EF25E02449F582E43401F55C
:10079000837475F0A37430F0EF25E02436F8E4F2AA
:1007A00008F2EF25E02434F87475F2087430F2EFA3
:1007B00025E025E024FBF582E43400F583120ABC31
:1007C000000000009001A3E025E02401F582E4345C
:1007D00001F583E4F0A3F09000E0F09001A4F09024
:1007E00001A3E0FB25E025E024D0F582E43400F508
:1007F00083120A53EB75F014A424E1F582E434006B
:10080000F583C083C0829001A4E0D082D08375F0CC
:1008100004120B06120AA49001A4E004F0E0B4054F
:10082000BEE49000F5F09001A3E0FB25E025E02474
:10083000D0F582E43400F583120A53EB25E025E07D
:1008400024F6F582E43400F583120AA49001A3E0B3
:1008500025E02475F582E43401F583E4F0A3F090FB
:1008600001A3E004F0E0C3940150030205CF22BBD2
:10087000010689828A83E0225002E722BBFE02E35E
:100880002289828A83E49322EF8DF0A4A8F0CF8C92
:10089000F0A428CE8DF0A42EFE22C5F0F8A3E02807
:1008A000F0C5F0F8E582158270021583E038F02279
:1008B000EF2BFFEE3AFEED39FDEC38FC22C3EF9B47
:1008C000FFEE9AFEED99FDEC98FC22E88FF0A4CCA7
:1008D0008BF0A42CFCE98EF0A42CFC8AF0EDA42C67
:1008E000FCEA8EF0A4CDA8F08BF0A42DCC3825F036
:1008F000FDE98FF0A42CCD35F0FCEB8EF0A4FEA921
:10090000F0EB8FF0A4CFC5F02ECD39FEE43CFCEA2D
:10091000A42DCE35F0FDE43CFC2275F00875820074
:10092000EF2FFFEE33FECD33CDCC33CCC58233C5B4
:10093000829BED9AEC99E58298400CF582EE9BFE45
:10094000ED9AFDEC99FC0FD5F0D6E4CEFBE4CDFAA0
:10095000E4CCF9A88222B800C1B90059BA002DEC44
:100960008BF084CFCECDFCE5F0CBF97818EF2FFFDC
:10097000EE33FEED33FDEC33FCEB33FB10D7039984
:100980004004EB99FB0FD8E5E4F9FA227818EF2F31
:10099000FFEE33FEED33FDEC33FCC933C910D70550
:1009A0009BE99A4007EC9BFCE99AF90FD8E0E4C96F
:1009B000FAE4CCFB2275F010EF2FFFEE33FEED339F
:1009C000FDCC33CCC833C810D7079BEC9AE89940CC
:1009D0000AED9BFDEC9AFCE899F80FD5F0DAE4CD2E
:1009E000FBE4CCFAE4C8F922EB9FF5F0EA9E42F072
:1009F000E99D42F0EC6480C864809845F022EB9F4A
:100A0000F5F0EA9E42F0E99D42F0E89C45F022E8CC
:100A1000600FECC313FCED13FDEE13FEEF13FFD8D4
:100A2000F122E86010ECA2E713FCED13FDEE13FEDB
:100A3000EF13FFD8F022E8600FEFC333FFEE33FE71
:100A4000ED33FDEC33FCD8F122BB010789828A83A8
:100A5000020AA45005E9F8020BB0BBFE05E9F80252
:100A60000AB022E0FCA3E0FDA3E0FEA3E0FF22E247
:100A7000FC08E2FD08E2FE08E2FF22E0F8A3E0F94C
:100A8000A3E0FAA3E0FB22E2FB08E2F908E2FA089D
:100A9000E2CBF822BB010789828A83020A6B5005E8
:100AA000E9F8020B93BBFE05E9F8020A7789828A0E
:100AB00083020BA0ECF0A3EDF0A3EEF0A3EFF02285
:100AC000ECF208EDF208EEF208EFF222A88285833C
:100AD000F0D083D082120AD3120AD3120AD3120A98
:100AE000D3E473E493A3C583C5F0C583C8C582C8A6
:100AF000F0A3C583C5F0C583C8C582C822D083D002
:100B000082E493F208740193F208740293F2087479
:100B10000393F2740473A42582F582E5F03583F51E
:100B20008322FAE6FB0808E6F925F0F618E6CA3A49
:100B3000F622E0FBA3E0FAA3E0F922EBF0A3EAF04F
:100B4000A3E9F022E493FB740193FA740293F9226F
:100B5000D083D082F8E4937012740193700DA3A334
:100B600093F8740193F5828883E473740293686048
:100B7000EFA3A3A380DFEC8EF0A4CCC5F0CCCDF81E
:100B8000EFA4CEC5F02DFDE43CFCE8A42EC8C5F0D2
:100B90003DFDE43CFCEFA4FFE5F028FEE43DFDE470
:100BA0003CFC22E6FB08E6F908E6FA08E6CBF82268
:100BB000E493F8740193F9740293FA740393FB229B
:100BC000ECF608EDF608EEF608EFF6229001A0EE3E
:100BD000F0A3EFF0E4A3F09001A2E0FFC394014082
:100BE00003020EE5900168E09400900167E0940034
:100BF0004042EF25E02432F8E2FC08E2FDEF25E078
:100C00002434F8ECF208EDF29001A2E0FF25E02494
:100C100001F582E43401F583E4F0A3F0EF25E0254B
:100C2000E024FBF582E43400F583120ABC000000E6
:100C300000020EDCD390017EE0940090017DE094F0
:100C400000404B9001A2E0FF25E02443F582E4340C
:100C500001F583E0F8A3E0FDEF25E02434C8F208B5
:100C6000EDF29001A2E0FF25E02401F582E43401D9
:100C7000F583E4F0A3F0EF25E025E024FBF582E422
:100C80003400F583120ABC00000000020EDC900163
:100C9000A2E0FA74017E00A802088005C333CE33B7
:100CA000CED8F9FF9001F2E0FBFDE4EF5D703A74FD
:100CB000782AF582E43401F583E0B4052C9001A292
:100CC000E0FF24FAF582E43400F583E06003020DCE
:100CD00051EF25E0246BF582E43401F583E0FEA3B7
:100CE000E0D39400EE940040789001A2E0FF25E06C
:100CF0002401F582E43401F583E4F0A3F0EF25E06C
:100D000025E024FBF582E43400F583120ABC0000E0
:100D10000000900090120A5390008C120AA49001D7
:100D2000A2E0FF74017E00A807088005C333CE331C
:100D3000CED8F9FFEBFDE4EF5D7003020EDC90010D
:100D4000A2E0FF25E0246DF582E43401F583E4F0B0
:100D5000A3F0745A2FF582E43401F583E4F0020E17
:100D6000DC9001A2E025E025E024FBF582E43400DC
:100D7000F583C083C082120A6BC0009001A2E025F7
:100D8000E02432F8E2FE08E2FFE4FCFDD0001208A5
:100D9000A0D082D083120AA49001A2E0FF25E02413
:100DA00001F582E43401F583E475F00112088AEF5D
:100DB00025E02401F582E43401F583E0FEA3E0FFA1
:100DC0009001A0E0FCA3E0FDC3EF9DEE9C504A9093
:100DD000008C120A539001A7120AA4900090120AE4
:100DE00053123950E47B78FAF9F8C31209EE40291E
:100DF000A20A300601B340219001A2E0FF24FAF5D7
:100E000082E43400F583E07010745A2FF582E434E4
:100E100001F583E07003020EDC9001A2E0F924FAF0
:100E2000F582E43400F583E060359001A2E0FF250F
:100E3000E02443F582E43401F583E0FCA3E0FDEF18
:100E400025E02434F8E2FE08E2D39DEE9C404C906D
:100E500001A2E025E02434F8ECF208EDF2803CE950
:100E600025E02401F582E43401F583E0FEA3E0FFF0
:100E7000FBAA06E4F9F89001A2E025E025E024FBB6
:100E8000F582E43400F583120A531209469001A258
:100E9000E025E02434F8EEF208EFF29001A2E0FF42
:100EA00025E02401F582E43401F583E4F0A3F0EFBA
:100EB00025E025E024FBF582E43400F583120ABC2A
:100EC00000000000900090120A5390008C120AA4B7
:100ED0009001A2E0FF24FAF582E43400F583E4F007
:100EE000745A2FF582E43401F583E4F09001A2E016
:100EF00004F0020BC722E490019FF090019FE0FEF6
:100F000075F008A42449FBEE25E025E02408F8123A
:100F10000A5F78041209FFAD07AC06AF03123D4625
:100F200090019FE0FE75F008A42447FFEE25E02421
:100F300018F8E2FC08E2FD123D4690019FE0FE75C4
:100F4000F008A42445FFEE25E0241CF8E2FC08E2AA
:100F5000FD123D4690019FE004F0E0C39402409BE7
:100F60007F59C0079000D0120A5378041209FFADD0
:100F700007AC06D007123D467F55C0079000D4123B
:100F80000A5378041209FFAD07AC06D007123D469C
:100F90007F61C007900090120A5378041209FFADD8
:100FA00007AC06D007123D467F5DC0079000A01237
:100FB0000A5378011209FFAD07AC06D007123D466F
:100FC000E490019FF090019FE0FEC454F02463FF81
:100FD000EE25E024A6F582E43438F583E493FC742E
:100FE0000193FD123D4690019FE0FEC454F024653C
:100FF000FFEE25E024A6F582E43438F583740193EE
:1010000024E2FDE49334FFFC123D4690019FE0C4CE
:1010100054F02467FF7D647C00123D4690019FE000
:10102000FB25E025E0242AF8120A5F780A1209FF5E
:10103000EBC454F02471F8A607300F4690019FE0EE
:10104000C454F0246DFF7D397C30123D4690019FE1
:10105000E0C454F0246FFF7D397C30123D4690018E
:101060009FE0C454F02469FF7D397C30123D4690E6
:10107000019FE0C454F0246BFF7D397C30123D4663
:10108000806490019FE0FEC454F0246DFFEE25E0E3
:101090002432F8E2FC08E2FD123D4690019FE0FE9A
:1010A000C454F0246FFFEE25E02434F8E2FC08E29B
:1010B000FD123D4690019FE0FEC454F02469FFEE0E
:1010C00025E02438F8E2FC08E2FD123D4690019F3D
:1010D000E0FEC454F0246BFFEE25E02436F8E2FC79
:1010E00008E2FD123D4690019FE004F0E0C3940148
:1010F0005003020FB57820120A5F780A1209FF78B0
:10110000A3A6077836E6F52222E49001A4F0EF606A
:101110005F123C269000A9120ABC00000000123B9E
:10112000BB9000A9120A6B900067E0FF12357012A5
:1011300008A09000A9120AA49001A4E004F0E0C362
:10114000940540DA783BE6FFE4FCFDFE9000A9122E
:101150000A6B1208BBC0079001A4E0FFFBE4FAF998
:10116000F8D00712094678071209FF7824120AB04E
:10117000E49001A3F09001A3E0FBC39405501E7816
:1011800024120A5FEB25E025E02474F582E43400A4
:10119000F583120AA49001A3E004F080D8E47F054F
:1011A000FEFDFC7824120A771208BB900088120A10
:1011B000A4900088120A53900090120AA49000880C
:1011C000120A537804120A26900094120AA490007E
:1011D00090120A5390008C120AA4E49001A3F0909C
:1011E00001A3E0FFC3940140030212C5EF25E025EF
:1011F000E024A0F582E43400F583120A53E4FBFAFC
:10120000F9F8C31209EE60030212BC900090120AB2
:1012100053900098120AA4900098120A53AB07AAA0
:1012200006A905A8049001A3E025E024CEF582E4F8
:101230003438F583E493FE740193FFEE3395E0FDBB
:10124000FC1208BB780A120A129001A3E0FB25E009
:1012500025E0249CF582E43400F583120AA4EB25F2
:10126000E025E0249CF582E43400F583120A5390D3
:101270000098120A6B1208A0C004C005C006C0077F
:101280009001A3E025E025E0249CF582E43400F5FC
:1012900083120A53900090120A6B1208A09001B0BA
:1012A000120AA49001B4120ABC00010000D007D0B9
:1012B00006D005D0041223B69001A3E025E025E076
:1012C00024A0F582E43400F583120AA49001A3E07F
:1012D00004F00211CF900090120A53EF24D0FFEED9
:1012E000348AFEED34FFFDEC34FFFC9000A4120ABA
:1012F000A478287475F2087430F2E49000A8F02203
:101300009001A0EEF0A3EFF0E49001A3F0A3F0A30E
:10131000F090017AE0FFA3E09001A4CFF0A3EFF0FA
:10132000E49001A2F09001A2E0FBC394024003020A
:1013300014499001F0E07016900177E0B4050FD3E6
:1013400090016AE09400900169E0940040209001CF
:10135000A2E0FF25E0245BF8E4F208F2EF25E025A7
:10136000E0244FF8120AED00000000021440EB25C3
:10137000E0245CF9E3700219E3701C9001A2E0FF25
:1013800025E02410F8E2FC08E2FDEF25E02457F800
:10139000ECF208EDF2805E9001A2E0FD25E024571A
:1013A000F8E2FE08E2FFED25E02410F8E2FC08E296
:1013B000FD12003EC39001A5E09F9001A4E09E5065
:1013C000349001A2E0FF25E02410F8E2FC08E2FDE1
:1013D000EF25E02457F8ECF208EDF2E0FF25E024D9
:1013E0005BF8E4F208F2EF25E025E0244FF8120A5A
:1013F000ED000000009001A2E0FF25E02410F8E2DB
:10140000FC08E2FDEF25E025E0244FF8C000120AB9
:1014100077AE04AF05E4FCFD1208A0D000120AB0BC
:101420009001A2E0FF25E0245BF808E22401F21815
:10143000E23400F2EF25E0245CF99001A0E0FEA385
:10144000E0FFC3E39F19E39E40069001A3E004F090
:101450009001A2E004F00213159001A3E064027071
:101460006F9001A2F09001A2E0FFC394025061EFDF
:1014700025E0245BF8E2FE08E2FF4E6053E4FCFD49
:10148000C004C005C006C007E025E025E0244FF8F1
:10149000120A5FD003D002D001D000120946900199
:1014A000A2E0FD25E02414F8EEF208EFF2ED25E0CD
:1014B000245BF8E4F208F2ED25E025E0244FF81271
:1014C0000AED00000000C2189001A2E004F080952F
:1014D00022E49001A1F0EF70030215AF123C26E464
:1014E0009001A0F09001A0E0FFC394025017EF25F7
:1014F000E025E0244FF8120AED000000009001A062
:10150000E004F080DF123BBBE49001A0F09001A06A
:10151000E0FF25E025E0244FF8C000120A7774634D
:101520002FF582E43400F583E0FF1235701208A035
:10153000D000120AB09001A0E004F0E0C394024091
:10154000CC9001A1E004F0E0C3940540B8E4900120
:10155000A0F09001A1E0FFE4FCFDFEC004C005C0C6
:1015600006C0079001A0E025E025E0244FF8120A0C
:101570005FD003D002D001D000120946C004A905F3
:10158000AA06AB079001A0E02439F8E6FFE4FCFDD1
:10159000FED0001208BB9001A2120AA49001A21270
:1015A0000A5378071209FF9001A0E025E025E02406
:1015B00008F8120AB09001A0E004F0E0B40293E44D
:1015C0009001A0F09001A0E0FFC394024003021636
:1015D00088EF25E025E02408F8120A5FE47B107A02
:1015E00027F9F8C31209EE503C9001A0E0FB25E07A
:1015F00025E02408F8120A5FEF24F0FFEE34D8FE4D
:10160000ED34FFFDEC34FFFCEB25E025E0243BF856
:10161000120AB09001A0E025E02410F87427F20827
:101620007410F2802C9001A0E0FB25E025E0243B23
:10163000F8120AED00000000EB25E025E02408F890
:10164000120A5F9001A0E025E02410F8EEF208EF06
:10165000F29001A0E0FB25E025E0244FF8120AED0E
:1016600000000000EB25E0245BF8E4F208F29001B2
:10167000A0E0FF25E02410F8E2FC08E2FDEF25E001
:101680002414F8ECF208EDF2E025E02418F8E4F276
:1016900008F2E004F00215B422E490019FF0A3F0F8
:1016A000A3F0FCA3F020CA03021826E5247003026D
:1016B0001826E490019FF090019FE0FE2424F8E6B4
:1016C000FD74E62EF582E43401F583EDF0E4F69046
:1016D000019FE004F0E0B40ADE9001E6E0FE54F081
:1016E000FCEE540F9001A2F0AF04EF120B4016F77E
:1016F00050171560173370173D9017EEA0176EB096
:101700001823C0000018267836E64401F67F04123C
:101710003A91EEC313FEEF13FF90017DEEF0A3EFBD
:10172000F012376A227836E654FEF67F04123A91B8
:10173000EEC313FEEF13FF90017DEEF0A3EFF01266
:10174000376A22E4FF123C9D7838A607229001A256
:10175000E0FF70117836E6FE20E10302182654FD02
:10176000F6751C0222EF640160030218267836E643
:10177000FF30E1030218264402F6751C0222900194
:10178000A2E0FF703A7836E654DFF6E490019FF06D
:1017900090019FE0FE25E0249EF582E43438F58335
:1017A000E493FC740193FDEE75F008A42443F8A6BD
:1017B0000408A60590019FE004F0E0B402D222EFF5
:1017C000640170727836E64420F6E490019FF09050
:1017D000019FE0FF25E024B6F582E43438F583E488
:1017E00093FC740193FDEF75F008A42443F8A6045C
:1017F00008A60590019FE004F0E0B402D222900117
:10180000A2E0FD70157836E6FE30E22A54FBF69031
:101810000179E04408F0751C0222EDB40118783615
:10182000E6FF20E2114404F6900179E04404F075EB
:101830001C022212376A22E49001A1F0A3120ABC12
:1018400000000000E49001A0F09001A0E0FFC3942C
:101850000140030219B9900155E060030219269076
:10186000015CE0940090015BE0940050030218E1F9
:10187000EF25E025E024F6F582E43400F583120A32
:1018800053AB07AA06A905A8049001A0E025E0250E
:10189000E024D0F582E43400F583120A531208AD37
:1018A0009001A2120AA49001A0E025E024A6F582EE
:1018B000E43438F583E493FE740193FF7C007D03E8
:1018C000120878E4FD9001A2120A6BD31209D850D5
:1018D000030219B09001A1E0FF9001A0E0FE7401A5
:1018E000A806088002C333D8FC4F9001A1F002196A
:1018F000B09001A0E0FF25E024A6F582E43438F59D
:1019000083E493FC740193FDEF25E02439F9C3E3EC
:101910009D19E39C50030219B09001A1E0FF9001D2
:10192000A0E0FE7401A806088002C333D8FC4F90E3
:1019300001A1F00219B0300D449001A0E0FD25E0B6
:1019400024A6F582E43438F58374019325E0FFE49E
:101950009333FEED25E02439F9C3E39F19E39E405C
:101960005F9001A1E0FF9001A0E0FE7401A80608CD
:101970008002C333D8FC4F9001A1F080439001A0B6
:10198000E0FF25E024A6F582E43438F58374019362
:1019900024E2FDE49334FFFCEF25E02439F9C3E3AE
:1019A0009D19E39C401A9001A1E0FF9001A0E0FE88
:1019B0007401A806088002C333D8FC4F9001A1F03F
:1019C0009001A0E004F00218399001A1E09001F22A
:1019D000F022900088120A539001A1120AA49001EB
:1019E000A1120A539000A8E025E025E02474F582B6
:1019F000E43400F583120A6B1208AD9001A1120ABB
:101A0000A49001A1120A537824120A771208A09018
:101A100001A1120AA47824120A5F9000A8E025E030
:101A200025E02474F582E43400F583120AA49000C2
:101A3000A8E004F0E0B40502E4F09001A1120A531A
:101A4000900088120AA47B017A0079949000881291
:101A50000A539001B37420F01232DF900090120A02
:101A6000A4D3900168E09400900167E09400400CDA
:101A7000900090120A53900098120AA4E49001A0DA
:101A8000F0900098120A53AB07AA06A905A8049083
:101A900001A0E025E024CEF582E43438F583E49318
:101AA000FE740193FFEE3395E0FDFC1208BB780A4B
:101AB000120A129001A0E0FB25E025E0249CF582AB
:101AC000E43400F583120AA4EB25E025E0249CF51C
:101AD00082E43400F583120A53900098120A6B12C4
:101AE00008A09001A1120AA49001A0E025E025E041
:101AF000249CF582E43400F583120A53900090127E
:101B00000A6B1208A09001B0120AA49001B4120A44
:101B1000BC000100009001A1120A531223B69001EB
:101B2000A0E025E025E024A0F582E43400F583124E
:101B30000AA49001A0E004F0E0C394015003021A4B
:101B4000719000A4120A53AB07AA06900090120AE3
:101B500053C3EF9B7829F2EE9A18F27F0622E4FD38
:101B6000301526ED25E024B6F582E43438F583E41B
:101B700093FE740193FFED25E024A1F582E4340186
:101B8000F583EEF0A3EFF08024ED25E0249EF582AE
:101B9000E43438F583E493FE740193FFED25E024EB
:101BA000A1F582E43401F583EEF0A3EFF00DEDB47E
:101BB00002AEE4FD74017E00A805088005C333CEA3
:101BC00033CED8F9FF900152E0FBE4EF5B700302E3
:101BD0001C9DED25E02447F8E2FE08E2FFED25E03C
:101BE000241CF8E2FA08E2FBD39FEA9E402ED3EBD6
:101BF000942CEA9401400FED25E02447F87401F29B
:101C000008742CF28016ED25E0241CF8E2FE08E2B0
:101C1000FFED25E02447F8EEF208EFF2ED25E02491
:101C2000AEF582E43438F583E493FE740193FFED5E
:101C300025E0241DF9D3E39F19E39E5003021CC540
:101C4000ED25E02447F9E3FE09E37802CEC313CE85
:101C500013D8F9FFED25E024A1F582E43401F583E2
:101C6000E0FAA3E0D39FEA9E4020ED25E024A1F511
:101C700082E43401F583E0FEA3E0FFED75F008A4F3
:101C80002443F8A60608A607804BED25E02447F973
:101C9000E3FE09E37802CEC313CE13D8F9FFED7546
:101CA000F008A42443F8A60608A6078028ED25E03E
:101CB00024A1F582E43401F583E0FEA3E0FFED7595
:101CC000F008A42443F8A60608A607ED25E024475B
:101CD000F8E4F208F20DED64026003021BA4229006
:101CE000019F7407F0A3F0A3120ABC0000000012C9
:101CF0003C2690019FE0FF602074017E00A8070849
:101D00008005C333CE33CED8F9FFADACE4EF5D70C0
:101D10000890019FE014F080D99001A0E0FF6020BE
:101D200074017E00A807088005C333CE33CED8F9EE
:101D3000FFADAEE4EF5D70089001A0E014F080D933
:101D400090019FE0FF7401A807088002C333D8FC0C
:101D5000F5AC9001A0E0FF7401A807088002C3332E
:101D6000D8FCFFF5AD8FAE53AACF9001A9E5BAF02C
:101D700053BA0F43BA10123BBBE490019FF090019D
:101D8000A0E02463F582E43400F583E0FF123570AF
:101D90009001A5120AA49001A5120A539001A11264
:101DA0000A6BC31209EE500C9001A5120A53900160
:101DB000A1120AA490019FE004F0E0C3940240BE87
:101DC0009001A1120A6BC0009001A1120A5378037E
:101DD0001209FFD0001208A09001A1120AA49001DC
:101DE000A1120A53785F120AB09001A1120A537827
:101DF000101209FF8FB39001A1120A53780812093B
:101E0000FF8FB29001A1120A538FB143AA30900103
:101E1000A9E0F5BA75AC0375ADC075AEC022E4FF9C
:101E200090015D75F00112088AD3900166E094007C
:101E3000900165E09400400774FFF5F012088AD322
:101E4000900168E09400900167E09400400774FFFF
:101E5000F5F012088AD390016AE09400900169E0DD
:101E60009400400774FFF5F012088AD3900172E0E5
:101E70009400900171E09400401374FFF5F0120893
:101E80008A900171E07002A3E07002D205D3900144
:101E900070E0940090016FE09400400774FFF5F04B
:101EA00012088AD390015CE0940090015BE09400FA
:101EB000400774FFF5F012088AE4FFEF25E0246B79
:101EC000F582E43401F583E0FCA3E0D39400EC94C4
:101ED000004013EF25E0246BF582E43401F58374B0
:101EE000FFF5F012088AEF25E0246DF582E4340155
:101EF000F583E0FCA3E0D39400EC94004033EF259D
:101F0000E0246DF582E43401F58374FFF5F01208E6
:101F10008AEF25E0246DF582E43401F583E0FCA32B
:101F2000E04C700D745A2FF582E43401F58374018E
:101F3000F00FEF64017084D390017EE09400900173
:101F40007DE09400400774FFF5F012088A22439F59
:101F500004E453C6DFE5C600B5C6F3758300758299
:101F60000775FD0DE4E5FEF4FF75830075820675C7
:101F7000FD0DE4E5FEB50704F59E8003759E00782F
:101F8000100000D8FC53C6E043C60843C6807596CF
:101F90000775970575830075820475FD0DE5FD04D1
:101FA00004F58F75830075820375FD0DE4E5FEF47D
:101FB000FF75830075820275FD0DE4E5FEB507042B
:101FC000F595800375958375BE0E5392FE900100C2
:101FD0007F007E02E4F0A3DFFCDEFA78007F00E4FD
:101FE000F208DFFC78FFE4F6D8FD7581A502201E1B
:101FF000020000023015E493A3F8E493A34003F633
:102000008001F208DFF48029E493A3F85407240C3C
:10201000C8C333C4540F4420C8834004F45680011D
:1020200046F6DFE4800B0102040810204080903B5C
:10203000E1E47E019360BCA3FF543F30E509541FE7
:10204000FEE493A360010ECF54C025E060A840B821
:10205000E493A3FAE493A3F8E493A3C8C582C8CA9F
:10206000C583CAF0A3C8C582C8CAC583CADFE9DE72
:10207000E780BE123C269001A5E5BAF053BA0F43A3
:10208000BA10E490019FF090019FE0FFC3940250CA
:1020900017EF25E025E02400F8120AED000000000B
:1020A00090019FE004F080DF90019F7405F075AB14
:1020B000FF123BBBE49001A0F09001A0E0FF25E0FF
:1020C00025E02400F8C000120A7774632FF582E43B
:1020D0003400F583E0FF1235701208A0D000120A18
:1020E000B09001A0E004F0E0C3940240CCE4F5AB72
:1020F000123BBBE49001A0F09001A0E0FFC394026A
:102100005047EF25E025E02400F8C000120A5FC028
:1021100004C005C006C0079001A0E02463F582E476
:102120003400F583E0FF123570A804A905AA06ABB8
:1021300007D007D006D005D0041208ADD000120A8F
:10214000B09001A0E004F080AF90019FE014F0E0B7
:10215000600302209EE49001A0F09001A0E0FBC388
:102160009402502AA3120ABC00148200EB25E02539
:10217000E02400F8120A779001A1120A53120946CE
:102180009001A0E02439F8A607E004F080CC90018B
:10219000A5E0F5BA2212325A1233D0123B6E9001EA
:1021A0004FEFF0123A61EF70030222A37F01123A5F
:1021B00091AD07AC06D3900166E09400900165E014
:1021C00094004010ECC4F854F0C868FCEDC4540FFF
:1021D00048FD802D301810ECC4F854F0C868FCEDB0
:1021E000C4540F48FD801AC3784CE2941E18E29440
:1021F00000500EECC4F854F0C868FCEDC4540F480D
:10220000FDAE04AF051212F0E490019FF090019F23
:10221000E0FFC39402507674017E00A80708800591
:10222000C333CE33CED8F9FF900150E0FDE4EF5D2B
:1022300060407F06123A9190019FE025E02461F50D
:1022400082E43401F583E0FCA3E0D39FEC9E400AD6
:10225000E490014FF0A3F012000390019FE025E00D
:102260002461F582E43401F583E475F00112088AF3
:10227000801390019FE025E02461F582E43401F5AC
:1022800083E4F0A3F090019FE004F080809001507F
:10229000E0FFA3E06F601C1231CB900150E0A3F08F
:1022A000A3E054F0600D7F07123A91900169EEF0BF
:1022B000A3EFF02290019F7407F0FBA3120ABC0069
:1022C000000000123C2690019FE0FF602074017E18
:1022D00000A807088005C333CE33CED8F9FFADACD4
:1022E000E4EF5D700890019FE014F080D9EB601B73
:1022F00074017E00A803088005C333CE33CED8F91D
:10230000FFADAEE4EF5D70031B80E290019FE0FF44
:102310007401A807088002C333D8FCF5AC7401A887
:1023200003088002C333D8FCFFF5AD8FAE53AACFAC
:102330009001A8E5BAF053BA0F43BA10123BBBE4C0
:1023400090019FF090019FE0FFC39401503B746B9C
:102350002FF582E43400F583E0FF1235709001A47C
:10236000120AA49001A4120A539001A0120A6BC38E
:102370001209EE500C9001A4120A539001A0120A07
:10238000A490019FE004F080BB9001A0120A6BC0F2
:10239000009001A0120A5378031209FFD00012081E
:1023A000A09001A0120AA49001A0120A5390014B20
:1023B000120AA443AA309001A8E0F5BA75AC0375DF
:1023C000ADC075AEC0229001AC120AA4E47BE87ADD
:1023D00003F9F89001AC120A531209469001BC129D
:1023E0000AA4E47FE87E03FDFC9001BC120A6B1294
:1023F00008BBA804A905AA06AB079001AC120A53B2
:102400001208AD9001C0120AA49001B4120A5390B0
:1024100001BC120A6B1208BB9001B8120AA4900109
:10242000B0120A6B9001B8120A531209469001C407
:10243000120AA49001B0120A539001C4120A6B123E
:1024400008BBA804A905AA06AB079001B8120A5355
:102450001208AD9001C8120AA49001B4120A539058
:1024600001C0120A6B1208BB9001B8120AA49001B5
:10247000B8120A6BC000C001C002C003E47FE87E4E
:1024800003FDFC9001C8120A6B1208BBD003D002F6
:10249000D001D0001208A09001B8120AA49001B097
:1024A000120A6B9001B8120A531209469001CC121D
:1024B0000AA4E47FE87E03FDFC9001C4120A6B12BB
:1024C00008BB9001CC120A6B1208A022E47833F604
:1024D000FF123C9DEFBFFF06783476098004783404
:1024E00076FF7835761EE408F6783876FFFFEF251C
:1024F000E0249EF582E43438F583E493FC74019380
:10250000FDEF75F008A42443F8A60408A605EF75AE
:10251000F008A42445F8E4F608F6EF75F008A424C2
:1025200047F8E4F608F6EF75F008A42449F8E4F655
:1025300008F60FEFB402B7E4FFEF25E024A6F5821A
:10254000E43438F583E493FC740193FDEFC454F054
:102550002463F8A60408A605EF25E024A6F582E486
:102560003438F58374019324E2FDE49334FFFCEFE7
:10257000C454F02465F8A60408A605EFC454F0245A
:1025800067F87600087664EFC454F02469F8E4F63E
:1025900008F6EFC454F0246BF8E4F608F6EFC454E0
:1025A000F0246DF8E4F608F6EFC454F0246FF8E474
:1025B000F608F6EFC454F02471F8E4F60FEF640166
:1025C0006003022529752E3322300072E490019FAA
:1025D000F090019FE0FB2439F8E6FFE4FCFDFEEB00
:1025E00025E025E02400F8120A771208BB780712CC
:1025F00009FF90019FE0FB25E025E02408F8120A7E
:10260000B0EB25E025E0243BF8120A5FEB25E0253E
:10261000E02408F8120A77C31209EE401490019FD3
:10262000E025E025E02408F8120A5FEC4D4E4F70DB
:10263000037F022290019FE004F0E0B40293783B14
:10264000E6FFE4FCFDFE7820120A771208BB78074B
:102650001209FF7824120AB07824120A5FEC4D4E5A
:102660004F70037F0222E490019FF090019FE0FBF6
:10267000243CF8E6FFE4FCFDFEEB25E025E0242AFF
:10268000F8120A771208BB78071209FF90019FE041
:10269000FB25E025E0242EF8120AB0EB25E025E02A
:1026A000242EF8120A5FEC4D4E4F70037F022290E9
:1026B000019FE004F0E0B401B27F0522900154E0F4
:1026C000900159F0123D63900154EFF0D3900168EE
:1026D000E09400900167E09400500E900154E0FFF8
:1026E00012313CEF7003022792122CB47F02123A8F
:1026F00091AD07AC06D390015CE0940090015BE0E3
:102700009400402030060FED7803CEC313CE13D8CB
:10271000F9FDAC06800EECC4F854F0C868FCEDC4BA
:10272000540F48FDAE04AF05120BBC900155E0FFFD
:10273000A3E06F606D122F80E490019FF090019FE5
:10274000E0FFC39401505574017E00A8070880057E
:10275000C333CE33CED8F9FF900157E0FDE4EF5DEF
:1027600060327F08123A9190019FE025E0246BF5DA
:1027700082E43401F583EEF0A3EFF07F12123A9178
:1027800090019FE025E0246DF582E43401F583EEAD
:10279000F0A3EFF090019FE004F080A1900155E0DC
:1027A000A3F0227B077A0790019F120ABC00000069
:1027B00000123C26EB601B74017E00A80308800514
:1027C000C333CE33CED8F9FFADACE4EF5D70031B5D
:1027D00080E2EA601B74017E00A802088005C33312
:1027E000CE33CED8F9FFADAEE4EF5D70031A80E2D0
:1027F000AF037401A807088002C333D8FCF5AC749A
:1028000001A802088002C333D8FCFFF5AD8FAE5398
:10281000AACF9001A7E5BAF053BA0F43BA10123B02
:10282000BB900067E0FF1235709001A3120AA490DC
:1028300001A3120A5390019F120A6BC31209EE50B2
:102840000C9001A3120A5390019F120AA490019FB9
:10285000120A6BC00090019F120A5378031209FFFD
:10286000D0001208A090019F120AA490019F120AA2
:10287000539000B1120AA443AA309001A7E0F5BA20
:1028800075AC0375ADC075AEC022E49001A0F090A8
:1028900001A0E0FF25E02414F8E2FC08E2FDEF25AA
:1028A000E02410F8E2FE08E2FFD39DEE9C401BE01E
:1028B00025E02414F8E2FC08E2FDC3EF9DFFEE9C46
:1028C000FEE4FCFDA3120AA4800A9001A1120ABC36
:1028D000000000009001A1120A537807120A269006
:1028E00001A1120AA49001A0E025E02418F8E2FE5C
:1028F00008E2FFE4FCFD7807120A269001A5120AFF
:10290000A4900150E070247F03FEFDFC9001A11211
:102910000A6B1208BB9001A5120A6B1208A078027C
:102920001209FF9001A5120AA4801A9001A1120AAF
:10293000539001A5120A6B1208A078011209FF90AA
:1029400001A5120AA49001A5120A5378071209FFE3
:102950009001A0E025E02418F8EEF208EFF2E00480
:10296000F0E06402600302287F22C0E0C0F0C08370
:10297000C082C0D075D008C2CFD20730CD03022AA2
:102980002F30CB3920CC3685CE32E532C39480400F
:102990002475F003E532902F29120B06120B348BAD
:1029A0002F8A308931782FE475F001120B1212084A
:1029B0005FF5CE8008E52E2532F8E6F5CE30CC4125
:1029C000E532B4C0057524C08073E532B4C1057525
:1029D00024908069E532B4C205752491805FE532A8
:1029E000C394804010782FE475F001120B12120886
:1029F0005FF5CE80480532E52E2532F8E6F5CE802B
:102A00003C20CB3985CE1DE5327022E51DB410097E
:102A10009001F3E0F452808024E51DB42008900179
:102A2000F3E042808017851D2405328010E532C313
:102A3000940A500774242532F8A61D0532D205D019
:102A4000D0D082D083D0F0D0E032900153E0FF901C
:102A50000152E0FE6F601D900158E0FD900157E0CB
:102A6000FC6D60103000047833A6063001337842E4
:102A7000A604802D900152E0FE6F600D3000227898
:102A800033A606E47842F68018900158E0FF9001E2
:102A900057E0FE6F600B3001087842A606E47833F9
:102AA000F6900158E0FF900157E0FE6F6016EE547B
:102AB0000F600B20060E7842E64480F680067842CE
:102AC000E6547FF6900154E0FF900159E06F6016E4
:102AD000EF540F600B20060E7842E64440F6800665
:102AE0007842E654BFF6D390015CE0940090015B1D
:102AF000E0940040087842E64408F680067842E612
:102B000054F7F63006087842E64404F68006784228
:102B1000E654FBF6900152E0A3F0900157E0A3F0D9
:102B200022E49001A0F09001A0E0FBC394014003D7
:102B3000022BD9EB25E025E024D0F582E43400F522
:102B400083120A53EB75F014A424E1F582E43400F7
:102B5000F583C083C0829000F5E0D082D08375F009
:102B600004120B06120AA49001A2120ABC00000073
:102B700000A20A300601B35067E49001A1F0900171
:102B8000A2120A539001A0E075F014A424E1F5828A
:102B9000E43400F583C083C0829001A1E0D082D0EC
:102BA0008375F004120B06120A6B1208A09001A2A2
:102BB000120AA49001A1E004F0E0B405C1E47B0591
:102BC000FAF9F89001A2120A531209469001A0E006
:102BD00025E025E024F6F582E43400F583120AA40A
:102BE0009001A0E004F0022B169000F5E004F0E064
:102BF000B40502E4F022C0E0C0F0C083C082C0D0BF
:102C000075D01053B9FD90017CE0640170459001CE
:102C1000D0F09001D0E0FFC39402502574632FF5EB
:102C200082E43400F583E0FF1235709001D0E02596
:102C3000E025E02400F8120AB09001D0E004F08012
:102C4000D17F0112398843B901D2D890017C740236
:102C5000F0806690017CE0B4021F900067E0FF12F4
:102C600035707820120AB07F01123AC043B901D200
:102C7000D890017C7406F0804090017CE06406707E
:102C8000389001D0F09001D0E0FFC394015025743A
:102C90006B2FF582E43400F583E0FF12357090016C
:102CA000D0E025E025E0242AF8120AB09001D0E017
:102CB00004F080D190017CE4F0D0D0D082D083D0D9
:102CC000F0D0E032E49001A0F09001A0E0FFC394C6
:102CD000014003022D6FEF25E0246BF582E43401FF
:102CE000F583E0FEA3E04E6003022D669001A0E0B4
:102CF00025E02434F8E2FC08E2FDEF25E02432F878
:102D0000E2FE08E2FFC39DEE9C503FE025E0243543
:102D1000F8C3E29FFF18E29EFED3EF9432EE9400D8
:102D20004015E025E02475F582E43401F583E4756F
:102D3000F00112088A80139001A0E025E02475F5C7
:102D400082E43401F583E4F0A3F07F05123A919018
:102D500001A0E0FD25E02475F582E43401F583E06F
:102D6000FAA3E0D39FEA9E400D74FA2DF582E43475
:102D700000F5837401F09001A0E004F0022CB92268
:102D8000E490019FF0900179E054036032C2057F26
:102D90000A123A91900171EEF0A3EFF0900179E000
:102DA00054FCF0C29278A4760008769678A408E6DF
:102DB000161886067001164E60030080EFD29290BE
:102DC0000179E0FF30E217900157E0540FFE602ACE
:102DD0007842F6E47833F690019F04F0801CEF30DF
:102DE000E318900157E0540FFF600FC454F078428D
:102DF000F6E47833F690019F04F0900179E054F303
:102E0000F0200F3190019FE0602BC2057F0A123A3B
:102E100091900171EEF0A3EFF078A4760008769619
:102E2000C29278A408E6161886067001164E600352
:102E30000080EFD2922290019F120ABC0000000095
:102E4000E49001A3F0123C269001A4E5BAF053BA35
:102E50000F43BA107820120AED000000009001A381
:102E60007405F075ABFF123BBB7820120A77900017
:102E700067E0FF1235701208A07820120AB0E4F55E
:102E8000AB123BBB7820120A5FC004C005C006C06D
:102E900007900067E0FF123570A804A905AA06ABE9
:102EA00007D007D006D005D0041208AD7820120A4A
:102EB000B09001A3E014F0E070A990019F120ABC49
:102EC000002247007820120A7790019F120A5312BD
:102ED0000946783BA6079001A4E0F5BA900067E0A8
:102EE00090389593F5AB22E490019FF0A3F0300762
:102EF0001790015FF0A37446F07F0D123A91900194
:102F00006FEEF0A3EFF0C207A206920A2000033092
:102F1000010D90015FE4F0A37446F0C2068038D33F
:102F2000900168E09400900167E0940050119001D6
:102F300070E0940090016FE09400500320050D9024
:102F4000015FE4F0A37446F0C206800B90015FE4D9
:102F5000F0A37403F0D206300608E4FF1239C01261
:102F60003AEDA20A300601B35017900155E0600413
:102F7000D20D800D7F03123A9190015BEEF0A3EF2A
:102F8000F0900155E07008300D0312376AC20D222F
:102F90009001A0EFF0900179E06003023014F9FF96
:102FA000FE7401A806088002C333D8FCFD9001A07E
:102FB000E05DFC900156E05D6C600D30010A200F71
:102FC00007900179E04402F0900156E05DB50513E9
:102FD000EE2404FC7401A804088002C333D8FC4921
:102FE000F9800D7401A806088002C333D8FC49F9A2
:102FF0009001A0E05DB5050F7401A806088002C32A
:1030000033D8FC4FFF8011EE2404FD7401A805089D
:103010008002C333D8FC4FFF0EEE64017083E95F7A
:10302000900157F022123C66123D34123D56122494
:10303000BC123C04123A2D1236CED2AF751C01E5FB
:103040001C24FE602224FE603114604314604D2471
:1030500005705A123C84123CCB123D0E123CE21217
:103060003CB47F021237B6D2D81234A490017CE06F
:1030700070FA12000E751C048036D2D890017CE0E4
:1030800070FA1225B98F1C122ED712000E80211251
:10309000384C8F1C120EE6121E0E801430000312E4
:1030A00021851226AC122A3A751C048003751C0176
:1030B000123D6C121689808722FE0010FE0028FE49
:1030C0000032FE0014FE0034FE0018FE0036FE0042
:1030D0001CFE0038FE0000FE0020FE002AFE000854
:1030E000FE0024FE002E0100D00100D40100D80112
:1030F00000DA0100880100900100980100A00101A0
:10310000F00101F101014F0101500101520101F2F1
:1031100001015401015501015701016101015D01E6
:10312000015F01016501016701016F010171010189
:103130007901014301014901014501010301017DBB
:1031400001017F01018701018F0101979001A0EF2B
:10315000F0E4F99001A17405F074017E00A8010863
:103160008005C333CE33CED8F9FF9001A0E0FDE453
:10317000EF5DFD900155E0FBE4EF5B6D7001E460F5
:10318000149001A0E0900155F0747829F582E434A0
:1031900001F583E4F07836E630E00C900155E070FC
:1031A000069001A1740AF0747829F582E43401F5DF
:1031B00083E004FFF09001A1E0FEEFC39E50037F87
:1031C0000022747829F582E43401F5837405F0094E
:1031D000E9640160030231437F01229001A0EFF016
:1031E000900179E06003023259F9FFFE7401A806EC
:1031F000088002C333D8FCFD9001A0E05DFC900183
:1032000051E05D6C6007900179E04401F09001515C
:10321000E05DB50513EE2404FC7401A804088002E7
:10322000C333D8FC49F9800D7401A806088002C395
:1032300033D8FC49F99001A0E05DB5050F7401A8F1
:1032400006088002C333D8FC4FFF8011EE2404FD32
:103250007401A805088002C333D8FC4FFF0EEE644A
:10326000027089E95F900152F022781CE2FE08E2C8
:10327000FF9001A0EEF0A3EFF0A3EEF0A3EFF07F3C
:1032800001EF25E0241CF8E2FC08E2FDD39001A147
:10329000E09D9001A0E09C400FEF25E0241CF8E2A7
:1032A000FD08E2CDF0A3EDF0EF25E0241CF8E2FCF0
:1032B00008E2FDC39001A3E09D9001A2E09C500FA5
:1032C000EF25E0241CF8E2FD08E2CDF0A3EDF00FBD
:1032D000EFB402AD9001A0E0FFA3E0784DCFF2087B
:1032E000EFF2A3E0FFA3E0784BCFF208EFF22290D9
:1032F00001AF120AA49001AC120B2B9001B4120A78
:10330000BC000000009001AF120A537804120A2694
:103310009001AF120AA49001B3E024FFFFE434FF50
:10332000FEE4FCFD120A841208BB9001AF120A6B86
:103330001208A0C0079001B3E0FFFBE4FAF9F8D04F
:10334000071209469001B4120AA49001B4120A535C
:103350009001AC120B22120A399001B4120A537870
:10336000041209FF9001B4120AA49001B4120A5386
:1033700022E4FBFE783AE2FD74632EF582E4340029
:10338000F583E090389593FCED4CF20EEEB402E438
:10339000900073E0FD900067E090389593FCED4C51
:1033A000900073F0E4FE9000B5E0FF746B2EF582A0
:1033B000E43400F583E090389593FDEF4D9000B52F
:1033C000F00EEEB401E0900073E0FF783AE24FFFB8
:1033D0009000B5E04FFB42D442F442E4F452DC22C8
:1033E000E49001A0F09001A0E0FF25E02414F8E2B1
:1033F000FC08E2FDEF25E02410F8E2FE08E2FFC33E
:103400009DEE9C503DE025E02415F8C3E29FFF1897
:10341000E29EFE7C007D64120B66C006C007E025BC
:10342000E02443F8E2FE08E2FFFBAA06E4F9F8D044
:1034300007D006120946D3EF940AEE94004003D257
:1034400018229001A0E004F0E0B4029922E4900177
:10345000A0F09001A0E0FFC394025055EF25E025B5
:10346000E0243BF8120A77C0009001A0E025E02597
:10347000E02408F8120A5FD0001208AD9001A112F2
:103480000AA4E47FFF7EFFFDFC9001A1120A6BC33A
:103490001209EE40037F02229001A1120A5390010B
:1034A000A0E025E02410F8EEF208EFF2E004F0804E
:1034B000A17F06227836E6FF30E104D2008002C206
:1034C00000EF30E204D2018002C201E490015DF01D
:1034D000A3F09001D1F0A3F0A202300001B3501884
:1034E000A200920212350B30000BE4FF123B190FC1
:1034F0001214C1800312000330080BE4FF123B19C1
:103500000F1214C1C208A203300101B35004A2017A
:10351000920330090512376AC20922E4FF90015074
:10352000F0A3F0900177F0900169F0A3F0900152C0
:10353000F0A3F0F523EF25E02443F8E2FC08E2FDD8
:1035400090017AEC8DF012088AEF25E02461F58273
:10355000E43401F583E4F0A3F00FEFB402D7900157
:103560007AE0C313F0A3E013F090017AE0FEA3E049
:103570007802CEC313CE13D8F9F0EE90017AF02280
:10358000EFC39404500553B9EF800343B910EF60C3
:1035900003B4040B85B71985B61A85B51B803AEFBD
:1035A00064016004EFB4050B85EB1985EA1A85E91F
:1035B0001B8026EF64026004EFB4060B85F31985C7
:1035C000F21A85F11B8012EF64036004EFB407095F
:1035D00085FB1985FA1A85F91BAF1BAE1AAD19AC1C
:1035E0001822E49001A0F09001A0E0FFC3940150E4
:1035F00047EF25E02436F8E2FE08E2FF7C007D6418
:10360000120B66C006C007E025E024B6F582E4345C
:1036100000F583E0FEA3E0FFFBAA06E4F9F8D0077B
:10362000D0061209469001A0E025E02438F8EEF219
:1036300008EFF2E004F080AF22A907E4FFFEEEC33A
:1036400094005014746F2EF582E43400F583E090FA
:103650003895934FFF0E80E6E96005EF42D4800471
:10366000EFF452D4EFF4FE52F4EF42E4ED6005EFD4
:1036700042EC8003EE52ECEFF4FE52DCEB6005EF1F
:1036800042808003EE52809001F3EFF022E490013B
:10369000A0F09001A0E0FFC394025041EF25E02488
:1036A00018F8E2FE08E2FF7C007D64120B66C0069B
:1036B000C007E025E02443F8E2FE08E2FFFBAA068B
:1036C000E4F9F8D007D0061209469001A0E025E001
:1036D000241CF8EEF208EFF2E004F080B522E4FFDB
:1036E000EF25E024BEF582E43438F583E493F874E2
:1036F0000193FDEF25E02443C8F208EDF20FEFB48B
:1037000002DEE4FFEF25E024C6F582E43438F583D9
:10371000E493FC740193FDEF25E024B6F582E434D4
:1037200000F583ECF0A3EDF00FEFB401D722E4FF36
:10373000EF25E02434F8E2FC08E2FDEF25E0243236
:10374000F8E2FA08E2FBD39DEA9C401EEF25E02454
:1037500034F8E2FC08E2FDC3EB9DFDEA9CF8EF259E
:10376000E02436C8F208EDF2800AEF25E02436F8AE
:10377000E4F208F20FEFB401B72290017CE070FA96
:10378000E4FF1204CFE4FF1210F9E4900155F09029
:103790000157F0FF74782FF582E43401F583E4F0EB
:1037A000EF25E0246BF582E43401F583E4F0A3F027
:1037B000EF25E0246DF582E43401F583E4F0A3F015
:1037C0000FEFB401CF227836A607EFB40208D20279
:1037D000D200C203C201EFB40408C202C200D20385
:1037E000D201EFB40608D202D200D203D201900176
:1037F0005FE4F0A37446F07F0B123A91900165EEFE
:10380000F0A3EFF07F0C123A91900167EEF0A3EF76
:10381000F022C0E0C0F0C083C082C0D075D000C02C
:1038200000C28D758C32758AEB9001D1E475F00180
:1038300012088AC39001D2E094149001D1E0940060
:10384000400D90015DE4F0A3F09001D1F0A3F0D021
:1038500000D0D0D082D083D0F0D0E03290019F74DD
:1038600006F030001612343D90019FEFF0BF0205C4
:10387000D208E0FF2212287A12367D1219C2900176
:103880009FEFF012005E90019FEFF0BF0205D2099A
:10389000E0FF22122B1112371E1235D2123B449038
:1038A000019FE0FF220102040810204080A20032A4
:1038B0000032003C003C00B4003C003C003C00787E
:1038C0000078003C003C03E803E8003C003C00A515
:1038D000014000640064006400640064006400004F
:1038E000000000000000E4FF900155F0A3F0A3F0F9
:1038F000A3F0C20D74782FF582E43401F583E4F06F
:10390000EF25E0246BF582E43401F583E4F0A3F0C5
:10391000EF25E0246DF582E43401F583E4F0A3F0B3
:103920000FEFB401CF22E4FFFEEE75F008A42444AB
:10393000F8E624FDFD18E634FFFCEE25E0241DF931
:10394000C3E39D19E39C400D7401A806088002C3DF
:1039500033D8FC4FFF0EEEB402CF9001F1EFF0220E
:103960009001A3120AA49001A7120A539001A31276
:103970000A6BD31209EE40109001A7120A6B900156
:10398000A3120A531208AD229001A3120A6B9001F0
:10399000A7120A531208AD2253BA0F43BA2075BBBF
:1039A0007A75A9C0900073E0F5B4EF700AF5B375AD
:1039B000B27575B130800E9000B2E0F5B3A3E0F5BA
:1039C000B2A3E0F5B1900067E090389593F5AB2293
:1039D000E490017CF053B9FD53B9DF43CC02C2D966
:1039E000439F10539FFD438760759262C28DEF70B5
:1039F0000675BD0D75BC01123CF975BE0CD28C4329
:103A000087030000000022E4FFFEEE75F008A42406
:103A100043F8E6FC08E6FDEE25E0241DF9C3E39D2E
:103A200019E39C400D7401A806088002C333D8FC3A
:103A30004FFF0EEEB402D39001F0EFF02243F808EE
:103A400075CD4053CC7F43CC4043CC2043CC104376
:103A5000CC0453CCFD43CB0243CB0153CBBF43E853
:103A60000853E5FC43E30243F50343900343ED03AE
:103A7000227E05900150E06F6007EFF0E49001773F
:103A8000F0900150E070027E02AF06900177E004F2
:103A9000F0C39F50037F00229001777405F07F01EF
:103AA000227B017A00EFC394135020EF25E0249687
:103AB000F582E4343BF583E493FF7E0090015FE000
:103AC000FCA3E0FD120878AA06AB07AE02AF032202
:103AD00053BA0F43BA2075BB7A75A9C09000B5E000
:103AE000F5B4EF7009F5B375B29C75B14022900141
:103AF0004CE0F5B3A3E0F5B2A3E0F5B122E4FF7525
:103B0000BE0E439F100FEFB4FFFB439F02539FEF86
:103B1000E4FF0FEFB4FFFB75BC0243B9207592764A
:103B2000E4F5BFD2D953CCFD2253BA0F43BA207566
:103B3000BBFF75A950783AE2F5B4EF7009F5B3759B
:103B4000B24E75B120227860E2F5B308E2F5B20812
:103B5000E2F5B122E47FD87ED6FDFC7820120A7708
:103B6000D31209EE5012E47FA87E61FDFC7820128A
:103B70000A77C31209EE5003D20F22C20F22121B82
:103B80004E1239F7123916900150E0700A9001F088
:103B9000E09001A0F080089001F1E09001A0F09089
:103BA00001A0E0FF22000201010208030504010553
:103BB0000106060701080109020A010B030C140D96
:103BC000010E0F0F041001113C120275BF0F00000F
:103BD00000000000000000000000000000000000E5
:103BE000D2D853B9FD43B901E5B930E1FBE4F5BFE3
:103BF000224400630304FFFF44006700FFFFFF440B
:103C0000006B06FFFFFF44006FFFFFFFFF0418007B
:103C100000000000438901C28DD2A953B8FDE49091
:103C200001D1F0A3F090015DF0A3F0758C32758A9C
:103C3000EBD28CD2AF2253BAFEE5B920E006900158
:103C40007CE06005E5B930E1FBE4F5BF53B9FD5315
:103C5000B9FE90017CF022EF600543D50480035348
:103C6000D5FB53F5FB53E5FB43E30443ED04E4903C
:103C70000179F0D29222E4F5E3439F10439F02FFC3
:103C80000FEFB4FFFB539FEF75BE0EE4F5BFF5B920
:103C90007592762275AA3B53BAF343BA0875AC0302
:103CA00075ADC075AEC043B92053B9BF22E4FFF56E
:103CB00082F5837440FEE493F42FFFA3EEB583F600
:103CC000227F0022E4900171F0A3F07F0D123A915F
:103CD00090016FEEF0A3EFF0D20522E4FF123B1942
:103CE000122063121CCF7F01123B191214C112352E
:103CF0000B22E4FF123AC0123D221222A47F0112CD
:103D00003AC01204CF1238D622438901C28CC28F26
:103D1000E49001D1F0A3F0758CFB758AED22E4FFED
:103D2000123988122E261227937F01123988121019
:103D3000F922E4FF783BE6FE743C2FF8A6060FEF6D
:103D4000B401F1221233617B017D01E4FF123629B7
:103D50007F01123C472220C90CC2AFA807A6040865
:103D6000A605D2AF2222C2DA53D80F43D8D0D2D878
:103D7000D2D9221218279001F2E0FF22122D7022D0
:103D8000FFFFFFFFFFFFFFFFFFFFFFFFFFFFFFFF43
:00000001FF
