:100000000008002085030000000000000000000040
:1000100000000000000000000000000000000000E0
:1000200000000000000000000000000000000000D0
:10003000000000000000000000000000BD01000002
:10004000C101000000000000ED010000B902000045
:10005000000000000000000000000000002934D073
:100060000123002210B488422CD301242407A1428A
:1000700004D2814202D209011B01F8E7E400A14247
:1000800004D2814202D249005B00F8E7884201D3E2
:10009000401A1A434C08A04202D3001B5C082243BA
:1000A0008C08A04202D3001B9C082243CC08A0422B
:1000B00002D3001BDC082243002803D01B0901D017
:1000C0000909E3E7101C10BC7047002801D000208C
:1000D000C04307B4024802A14018029003BDC046C5
:1000E000D90000000029F0D003B5FFF7B9FF0EBC1E
:1000F0004243891A1847C046002941D010B4041C55
:100100004C40A44601230022002900D54942002882
:1001100000D5404288422CD301242407A14204D2B6
:10012000814202D209011B01F8E7E400A14204D296
:10013000814202D249005B00F8E7884201D3401AAD
:100140001A434C08A04202D3001B5C0822438C08CF
:10015000A04202D3001B9C082243CC08A04202D339
:10016000001BDC082243002803D01B0901D0090929
:10017000E3E7101C6446002C00D5404210BC7047D9
:10018000002806D003DB0020C043400801E08020A7
:10019000000607B4024802A14018029003BDC04601
:1001A000190000000029EBD003B5FFF7A7FF0EBC34
:1001B0004243891A1847C0467047C046FEE7000010
:1001C00008B5074B01221A70064B00221A70064B25
:1001D0001B68187D904202D1032101F0CDFE08BDBD
:1001E000FC0300203F0000400000002038B5A0259F
:1001F000ED052B691B011B0F082B0CD12D4900238A
:100200000B604B60AA8A52BA081C8A600C3010310D
:1002100002F0CCFA40E0022B0CD1264BD968002921
:100220003AD05A681869824236DA501C58602B7DE1
:100230008B5431E0042B2AD11E4CE368002B24D0D0
:10024000226821698A4209DA9B5CAB61A3689A182B
:1002500090B202F0E9FA2368013314E0A368201C8D
:10026000211CD2180C30103102F0A0FAE368002BE8
:100270000BD0A16822688818A0601B7880B2AB619F
:1002800002F0D2FA0123236006E0AB6104E0012B07
:1002900002D1084B00225A60C046A023DB05DA6871
:1002A00001210A43DA60C0468022D96852000A431D
:1002B000DA6038BD5C02002070B500F0E3FF4369EE
:1002C000002B01D0013B43611D4BC4691B681D4DD0
:1002D000191949794426890049190D681A49426952
:1002E00009688E5703214E43B61871430919083126
:1002F00089000D50002A05D080230022DB051A70EA
:10030000012219E08169013C41611049C4610E6814
:100310001B195D791F2086430540301C802328432C
:100320000860DB050121002C03DB1A70597019707D
:1003300004E00748C17019705A701A7070BDC04649
:100340001C0400202001004000000020D4000040D8
:10035000FC030020064AA023DB051A60054A064B71
:100360001A60064A064B1A60BFF36F8F7047C0468B
:10037000010300490101020004000050010F0101C6
:1003800008000050F8B58023DB055A680F2313409E
:100390004B4A1F2111600133102B0CD08022D20553
:1003A00054680F21181C8C430840211C0143013361
:1003B0005160DBB2F0E70023424A43499A188A426F
:1003C00004D24249C95804331160F5E7404B414A11
:1003D000191D043B934203D200221A600B1CF6E75E
:1003E000EFF308823C4B191D043B9A4203D93B486A
:1003F00018600B1CF7E7FFF7ADFF3949394805399D
:1004000000F096FF384C394D01235B422371637134
:10041000A371E3712B1C3C331A782B1C3D331B78E2
:1004200080B21B021343984245D102F0B1F9304B20
:1004300030491888304A88420BD06E7D18882B7D51
:1004400036023343984204D113889BB223711B0AAE
:10045000637113888B421BD0EE7DA87D1388360212
:100460003043834214D100200423013BDBB2FF2B35
:1004700007D0224EEF18F65C3F79B742F5D1012044
:10048000F3E7002804D013889BB2A3711B0AE37121
:10049000637922791B0213438B420CD0E279A37952
:1004A00012021A43134B9A4205D0154B1B78312B7D
:1004B00001D000F0BBF8134B04221A6062B6FEE7CD
:1004C00050000040000000205C020020F42A0000E0
:1004D00060020020F503002038040020CDCDCDCDF2
:1004E000003000000000000006040020C02F0000C3
:1004F000D02D0000FFFF0000BE2F0000D22D000015
:100500007200010000E100E0014B18607047C04636
:1005100010040020014B18687047C04610040020EA
:10052000014B18607047C04614040020014B186846
:100530007047C0460000002038B5074C256801F020
:1005400075FC064A064912680968E861127C097858
:1005500023684A431A6138BD0000002010040020BF
:1005600014040020F0B585B000AF00F079FE204BF8
:1005700068461B6800215C68A400231C0E33DB085E
:10058000DB00C01A8546C01A6D4685466B46221CA4
:10059000281CFB6002F0A5FA0321002001F044FDB5
:1005A000144E231C3168043B1A1D04D0CA69F86834
:1005B000D258C250F7E7043C01F0EAFF0B2814D1EF
:1005C0000321002001F030FD3168231C1A1DF3D0F7
:1005D000F868C0587860C869C2587868821AE858C4
:1005E000904200DAEA50043BF0E7BD4605B0F0BDAA
:1005F0004C0200200000002008B500F065FC002837
:1006000000D1FEE7FFF798FF08BD08B502F00AFA2F
:1006100000F02CFE08BD08B502F054FA02F006FA0C
:1006200000F024FE01F030F808BD0000F0B58FB0F6
:1006300006AF01F0ADFFB87202F00AFA02F020FA3C
:1006400000F02EFCFFF7D8FF01F0A2FF041CF872A7
:10065000052800D1A7E010D800281AD0022800D021
:10066000C9E0FFF7D2FF01F059FF002001F090FA36
:10067000FFF762FF01F0D2FF6EE00B2800D1A9E086
:100680000D2800D1B0E0092800D0B4E001F0C6FF89
:1006900093E05A4E356801F091FF594B6A461B684A
:1006A00028755B687A609B000A33DB08DB00D01A90
:1006B000336885461A1C44324533381C1470211C9B
:1006C0001C70142206AD0C3002F00BFAFD6000F035
:1006D00019FF0524012C0AD0002C2CD0022C0CD0A0
:1006E000052C31D101F0D3F9C0B202F04BF8434BE5
:1006F00000211868483001F015FE02F0B7F8061C1A
:1007000002F0C0F8041C02F0C3F83C4BB21C1B689A
:1007100000903B48191C0068483140680190381C23
:100720000C30029000200390DB69081C0493291C04
:10073000231C00F0D3F9381C391C3A1C0B300A3149
:100740000C3200F06DF9041C01F022FFFB7A8342A9
:10075000C0D07A6895464EE001F06AFF041E062C70
:100760000BD0062804D8052810D100F07FFF0DE03B
:10077000142805D0172803D008E000F085FF05E015
:1007800001F05EFF011C201C00F0B2FA01F000FF36
:10079000FB7A8342E0D0FFF73EFF002001F0F8F93A
:1007A000FFF7CAFE27E001F039FF01F023FB01F05B
:1007B000EFFEFB7A8342FAD01DE00121002001F018
:1007C00033FC002001F050FA01F0E2FEFB7A834294
:1007D000F3D010E001F022FFFFF7C4FE01F0D8FED5
:1007E000FB7A8342F8D006E001F018FF01F0D0FE5A
:1007F000FB7A8342FAD0FB7ABB7225E70000002027
:100800004C02002038B5264C23681D7902F0D8F838
:100810000379002B02D16BB2013303D12368002589
:10082000DD600FE02368D9681A69914202DAD9685D
:100830000131D96004215956012903D0DB68934264
:1008400000DB012523681A79954200D01D711A79C1
:10085000002A03D1134A1268127804E0012A03D156
:10086000104A126852781A60186801F0FBFB23687E
:10087000051C186C01F022FC2D1A002D0ADD2368DE
:10088000186801F0EFFB2368051C186C01F016FCDA
:10089000281A00E0012000F011FF01F083F838BDB4
:1008A000000000201404002010B502F00BF901F044
:1008B00077FE041C01F08AFE0020844202D001F081
:1008C00077FE012010BD0000F0B54C4C0D1C2368D4
:1008D0004B4A197D87B0061C1268012902D1527853
:1008E0001A6003E012781A60FFF78CFF291C301C95
:1008F00000F0E2F9051C2068037D012B09D100F00E
:10090000F3FF404800F0DAFE01F04CF801F0B8F8CF
:100910004FE001F0B5F800F0E7FF00F0B3FC071C72
:1009200002F04EF8026B384B312A33DC196822682A
:10093000282926DD506D00218446344884450BDD8E
:100940009868596001309860032817DD101C012752
:100950003C300770996011E0101C99603C300778BA
:10096000012F08D15F68072F05DC2948844504DC86
:1009700001375F6002E000210170596000211960B9
:1009800003E09C373968506D411851651A6801328F
:100990001A6003E000221A6023685A6501F028F902
:1009A00023683E2130685956FFF77EFF002800D0AB
:1009B000051C184B03AE1B6800215F680C22301C1D
:1009C00002F08FF801233370FBB27370B37004230D
:1009D000737123680022DB6902200093311C131C11
:1009E00001F090FE0C4B1A680C4B9A4202D001F0B9
:1009F00001FAFEE7281C07B0F0BDC0460000002049
:100A00001404002098AB0200700200203421000082
:100A10006F1700004C02002034040020CDCDCDCD56
:100A2000F0B585B000AF061C0C1C7A6001F0CEFF5B
:100A3000274B69461B685A689200131C0A33DB086F
:100A4000DB00C91A8D46B960081C002102F049F884
:100A5000227833789A4203D001F0E0FD3378237096
:100A60001C4D00222B689A6001F086FE041C01F0E8
:100A70000EF8A04204D0201C01F028F8022423E044
:100A8000B9687868FFF720FF2B6838601B7D041C6D
:100A9000FB6001F093FDF968814205D02C6801F0FC
:100AA0008DFD207503240FE02B680B4A9968914255
:100AB00002D09A6801329A603B68002B04D101F0A1
:100AC00067FD33788342CFD0201CBD4605B0F0BD12
:100AD0004C02002000000020FFFFFF7FF0B589B02E
:100AE0000793002411AB0E1C1C57151C069001F037
:100AF000BDFE0F9B05909A000021301C01F0F1FF14
:100B0000174B201C03211F6801F094FA059A3864E2
:100B10001778201C002F09D0032101F085FA301C22
:100B200012990F9A01F0F6FE013FF2E701F014F876
:100B3000071C201C01F024F8291C01900E9A06982D
:100B40000F9B0097029401F0A9FE059A301C1378C0
:100B5000291C0093079A0F9B01F0EAFE09B0F0BD33
:100B60000000002010B50D4B0C1C1B683F331B7898
:100B7000002B01D000230370007800280CD001F076
:100B800075FE2378027C00209A4202D30133237041
:100B900003E02070012000E0207010BD0000002064
:100BA000F0B58DB00C1C079001F060FE069001F0CE
:100BB00069FE059001F06CFE071C01F0FBFE3C4B4A
:100BC000061C1B681A7D002A69D10798394D191C2B
:100BD000DB6900902868069A4068243101900598E6
:100BE0000232029078680390201C00F0E1FA2B6832
:100BF00005905D68B17823688B4213DA62688A4297
:100C000010DA0A2B0EDD0A2A0CDD0521081C5843D8
:100C1000904202DC4A43934204DA00230126236017
:100C20006360059609AE301C00210C2201F059FFCB
:100C30007C23EDB2002201205B4230707570B570EC
:100C40007371311C131C0120009401F05BFD184DE1
:100C5000069E2B68181C996A5A6A46301223F35E66
:100C600000F022F92B680026181C191C9A6A4630DD
:100C70005B6A47310096FFF775FFB04214D1059EBD
:100C8000002E0CD10B492B680968BA6849681B68AB
:100C90000091692101910798211C01F061FE201C3F
:100CA00000F03CF9002000E001200DB0F0BDC0468E
:100CB000000000204C02002038B50C1C051C01F07F
:100CC0007FFE094B002118681822243001F009FF2B
:100CD000211C2868FFF764FF041E03D100F044F9CB
:100CE00000F0DAF9201C38BD000000207047704782
:100CF000684BF0B51B688FB05B686A469C00261C89
:100D00000A36F608F60000AF921B9546F8617A6243
:100D1000101C0D1C221C00213B6201F0E2FE6B4600
:100D20009B1B9D46181CFF21221C7B6101F0D9FEF4
:100D30003B6A6A460733DB08DB00D21A95463A6104
:100D4000684600213A6A01F0CCFE6B469B1B221CD0
:100D50009D46181C0021BB6101F0C3FEFA69142AEC
:100D600002D0172A04D04AE0B869002101F0DAFA6B
:100D7000002D02D1484B1B689D7C043C2E1CBC609E
:100D8000002E3CD00020092101F04EF93D6ABC68DC
:100D9000013D6B1C31D000F06FFA3E4B1B685B6865
:100DA0009D4207DA031C2C332B301A780378D31AB0
:100DB000DBB2FB60394BF9681B68DB691859FFF738
:100DC0004DF97B6A1A59031E934200D2131C7A6AAA
:100DD00013517A691359984200D9181C7A6A7B69B1
:100DE00012591851101A7F23FD2801D84008C3B2A8
:100DF0003A69043C5355013DCBE7013EC0E7FA692F
:100E0000142A08D0172A27D1FFF771FF3A69012465
:100E10007A62251C22E03C6A013C1BD3BB69A50019
:100E2000EB580621D803800D0A235843FFF764F9D5
:100E30007A6A061C5051BA69AB5C5B065B0EEBD05C
:100E4000642058430621FFF757F97B6AC0118619C1
:100E50005E51E1E7FFF74AFF00240425381C00211A
:100E60000C222C3001F03DFE01232C22D3553A6A8E
:100E7000E401D3B22D22D355381C2E22D35525435D
:100E800031232C30796ADD5501F0E2FBBD460FB00D
:100E9000F0BDC0464C0200201004002000000020DD
:100EA00008B501F0DBFA08BD10B5002A02DD8A188A
:100EB000D40F06E00024A24203D10124994200DBB2
:100EC000141C047010BD0000114B642210B51A8070
:100ED00000F016FE00F094FB00F02EFB00F05EFA2E
:100EE00000F086FA00F004FB01F00EF9041C00F09B
:100EF0002DFA084B1B681A78074B1B68002A01D093
:100F0000032200E002221A6162B6201C10BDC04616
:100F1000BC0000401C0400205C00002038B5104BD1
:100F2000041C1D680023AB60FFF700FB037D002B52
:100F300014D10C4B1B685A68531C9B00EB180833E8
:100F4000013A0BD391006058002802DD1860615807
:100F500001E0002119601962043BF1E738BDC04689
:100F6000540200204C020020484BF7B51D6801F0E8
:100F700097FB474E0023AB6033685C68FFF7D6FAF7
:100F80003368621C9C46434B2E1D92001968B218B0
:100F900033193B330432013C76D366467668B4425B
:100FA0000DDA067D002E08D1071C3C373F780E78FD
:100FB000012F07D19626760004E0012E03D1CF78C9
:100FC000019700E001961668002E04D0019FBE42F2
:100FD00001DA002616601668002E1FD01E787F2EBC
:100FE00001D001361E7000269E574F79BE4204DCA8
:100FF000071C3C373F78002F06D0052E08DC061C66
:101000003C363678012E03D101267642166002E086
:10101000AE680136AE6000261E7132E000269E5793
:101020004F79BE4204DD071C3C373F78002F06D0C5
:10103000052E24DD061C3C363678012E1FD117699B
:101040000097002F1DD01E790136F6B21E718F79E0
:1010500076B2BE4206DD071C3C373F78002F01D137
:101060001F700EE0052E04DD061C3C363678012E7E
:1010700005D0009E1660AE680136AE6001E0002625
:101080001E70013B043A86E7F7BDC04654020020BB
:101090004C0200202C040020F0B5424B87B01E68A3
:1010A00001F0FEFA01F0F6FA3F4B03901B685F680F
:1010B000FFF73CFA7C1CA400341902907D1E083412
:1010C0000F231F40691C66D0374B1B685A68954236
:1010D00011DA0298037D002B0BD1344B3C301B6896
:1010E00000781978012801D19621490000915B7898
:1010F00006E0012B05D12D4B1B68D97800911B7997
:10110000019305AB002119809970954203DA02988A
:10111000027D012A03D11A7840210A431A7005ABD7
:101120001A780F218A433A431A70226901998A4238
:101130000DDC21680098814209DB18788022524238
:1011400002431A700A1EFF2A0CDDFF220AE00099F2
:101150008A421CDB236A0198834218DC039905ABA1
:10116000042901D15A7006E00398092803D192B2EC
:101170005A70120A9A7005A801F09CFA6B46197D04
:10118000281CC909012200F00FFD20682061013DE3
:10119000043C013F94E7B3683371F36001F09EFAB9
:1011A00007B0F0BD540200204C0200202C040020A7
:1011B000F7B5071C26480093099C08610D69013C9E
:1011C00009943DD30998009B147886009859002C07
:1011D00004D00A9B099C1B5758438009089CA459BA
:1011E000A40B201A002810DD0A24135F984222DB8A
:1011F000C31A9C460B689C448B6864469C4601233A
:101200009C440C6064468C6015E0002813D00C24CC
:10121000135F98420BDCC31A9C464B689C44CB6816
:1012200064469C4601239C444C606446CC604B69F8
:10123000984200DA4861B851A842BDDA281CBBE7E1
:101240000620135EE817DA0F9D425041C0B2FEBD82
:101250000080FFFF014B18607047C0461C0400204F
:10126000014B18687047C0461C040020014B1860F1
:101270007047C04618040020014B18687047C046EC
:1012800018040020014B18687047C0465C0000201D
:10129000F0B51E4B1E4A1F7815781E4A1E49167857
:1012A0001E4AFFB214781E4AEDB2127808781978F7
:1012B000F6B28C46191C6346E4B2D2B2C0B2AA2B75
:1012C00006D1184BED19AD191B78EDB29D4202D035
:1012D0000E4B002208E0144B121912181B78D2B2E0
:1012E0009A42F5D101200FE01878013312180F4807
:1012F000D2B28342F8D109780020AA2903D1187804
:10130000101A42425041C0B2F0BDC0465000010028
:1013100051000100520001005A0001005800010074
:1013200059000100530001005B0001005F00010053
:1013300080235B040022188059809A80198901203B
:1013400001431981C046988980B27047104BC02272
:10135000920098580F49014099509958FF208143B5
:10136000402001439950985880210002000AC90585
:1013700001439950042201211A6019600821196063
:10138000FC3300215960044B19690A431A61704704
:1013900000E100E0FFFF00FF00ED00E013B50022D8
:1013A00000920192104A6846126801AB148E2E32E8
:1013B000117842787F20824322200243684642709F
:1013C00000988022D205506218882405000B240D55
:1013D0000003204318800198044B090303400B438A
:1013E000A832136013BDC04618040020FF0FF0FFA1
:1013F0003C4B70B51E688024331CE4052A331978F1
:10140000231CC03318687F2290431140021C04251E
:101410000A43201C311C1A6018312A1CD83001F0F4
:1014200057FB201C311C2A1C1C31DC3001F050FB06
:10143000201C311C2A1C2031E03001F049FB201C0B
:10144000311C2A1C2431E43001F042FB201C311CE9
:101450002A1C1031143001F03BFB236B082293430C
:101460002363236B02222B432363236B761993435D
:101470002363236B012213432363F27FA16C013AA0
:10148000194BD2B292030B401343A364A26C802386
:10149000DB031343A364231CD4331968F022D20264
:1014A0000A431A601968FC2252040A431A601A6837
:1014B00060218A4320210A431A60A26C0B4B13401F
:1014C000802292041343A364B43423680F2293430D
:1014D0001D4325602368F022934340221343236079
:1014E00070BDC04618040020FF3FC0FFFFFFFFC0D3
:1014F0008023DB0500221A659A67012252425A6650
:101500007047000008B503480021102201F0E9FAF5
:1015100008BDC04620010040054B80221968120317
:101520000A431A601968034A0A401A607047C046A5
:10153000B4000040FFFFF7FF70B5264E0422346868
:101540002548211D01F0C4FA211C0831042223483A
:1015500001F0BEFA211C0C310422214801F0B8FA36
:10156000211C103104221F4801F0B2FA211C8025F1
:10157000143104221C48ED0501F0AAFAFFF788FE99
:10158000002823D033681B781B071B0F0F2B0AD1B1
:10159000164B1A780F2A06D81A786968144B520528
:1015A0000B4013436B60134B1A689205920F012A8C
:1015B0000CD1114A11780F2908D811780F22114047
:1015C00018680E4A490302400A431A60FFF7A4FF55
:1015D00070BDC04618040020080000400C00004008
:1015E00010000040140000401C00004051000100A9
:1015F000FFFF1FE0B400004058000100FF1FFEFF86
:1016000008B5144B144A19680A401A6019688022F8
:10161000D2020A431A601968104A0A40802149021E
:101620000A431A601968802252010A431A60196835
:101630000B4A0A401A6019680A4A0A408021490088
:101640000A431A601968084A0A401A60FFF764FFE3
:1016500008BDC046B4000040FFFFFDFFFF1FFEFFB6
:10166000FFF7FFFFFFFCFFFFFFFBFFFF05498023A4
:101670000968DB0509695A6E0120884082435A6671
:101680007047C0465C000020054A80231268DB05D5
:1016900012690120596E9040021C0A435A66704735
:1016A0005C0000208023DB055A6E034B01201B6881
:1016B0001B69DA40904370475C0000208023DB0503
:1016C000020280B2998F120E98873E3319781A70F1
:1016D0007047000072B6054B1B5C002B03D1C0465F
:1016E00062B630BFF6E762B67047C046FC03002022
:1016F00072B6044B1B5C002B02D1C04662B6F7E702
:1017000062B67047FC030020F0B587B003AF796084
:10171000191CBA609C46039001C101229300FE5837
:101720006446002023689E420DD80D1C0192019B47
:10173000043D834205DD2B686B60019B013B0193F7
:10174000F5E7266004E001300E6004349042E9DBE6
:1017500001320431032AE1D107B0F0BD30B50C49A4
:101760000C4B09681A682D310C780B4913790968FC
:10177000013B0BD301254D5710796843C0188000F9
:1017800008188C300568E5400560F1E730BDC046BB
:10179000180400201C0400205C000020F0B5802309
:1017A0008FB00122DB0500AF5A700320FFF792FFD4
:1017B0004A4B69461B6803241B795BB27B62786ADB
:1017C0000C2343430A33DB08DB00C91A8D466B4602
:1017D0003B6283009808C1006A465B425218B861B8
:1017E0007B613961FA61013C2ED37D6A013D26D3CC
:1017F0003B4B3A4A1B68126801215956127903265D
:101800004A43311C61435219891808318900C9586B
:10181000A01D3960A119714346438918B2180831D7
:10182000083289009200C958D2583B1C2C333868C2
:10183000FFF76AFF396BFA69AB00D150D6E7FB6955
:1018400078691B18FB61CEE77C6ABA69013C396A8A
:10185000A500920000234D19FA617B62204E601CA6
:1018600034D0F869396928586958B86079603B1CE8
:101870002868B9687A682C33FFF746FF174A36683C
:1018800012687378127959B24A43A2182232920030
:10189000386BB2185060002C15D1002B13D11148B1
:1018A000231C211CF218803212688A4200D9111CB4
:1018B000824200D2101C0C3B1A1C6C32F2D17B6AA3
:1018C000091A5B187B62013C043DC7E73368796AFB
:1018D0009C33BD4619600FB0F0BDC0461C0400200B
:1018E0005C000020FFFFFF7F08B5FFF757FFFFF701
:1018F00035FF064B1B6844331A78013AD1B2100603
:1019000001D4197001E002221A7008BD0000002005
:1019100010B58023DB0599681A4A0A409A60596815
:10192000194A0A405A605968184A0A405A60184AC7
:101930001268127D012A1ED15A680F21154C8A4364
:101940005A60226880231B0113432360FFF7E4FDE4
:10195000226880239B0213432360FFF7DDFD22688A
:101960000D4B13402360FFF7D7FD22680B4B13404C
:101970002360FFF7D1FD8023DB059968084A0A4000
:101980009A6010BDFFFF7FFFFFE1FFFFFF1FFEFF1B
:1019900000000020B4000040FFFFFBFFFFEFFFFF4F
:1019A000FFFFFEFF08B5044B00221A70FFF7B0FFDF
:1019B000024B01221A7008BDFC0300203F000040CA
:1019C00070B58025ED05AA6880235B021343AB60E8
:1019D000244B254E1B681B7D012B23D1234C8023D8
:1019E00022685B0113432360FFF796FD2268802382
:1019F000DB0213432360FFF78FFD22681C4B13406B
:101A00002360FFF789FD22681A4B13402360FFF71C
:101A100083FD336869681A780F2399431A400B1CB9
:101A200013436B6032680123907854781840802308
:101A3000DB056409C00020430F495C684003214076
:101A40000143596051785868C9060C4A090F490288
:101A500002400A435A609968802212040A439A603D
:101A600070BDC0460000002018040020B4000040F3
:101A7000FFFFFDFFFFF7FFFFFF1FFEFFFFE1FFFF7F
:101A800008B50020FFF726FEFFF79AFF08BD802368
:101A9000DB055868400DC0B2704730B58023DB05C8
:101AA0005A680F23134083420ED001DA013300E05D
:101AB000013B8022D20555680F211C1C8D430C4030
:101AC000291C21435160EEE730BD000030B5802372
:101AD000DB055B685B0DDBB283420DD001DA0133BD
:101AE00000E0013B8022D20555680449DCB2640560
:101AF000294021435160EFE730BDC046FFFF1FE0A2
:101B000038B5114C80232568DB051048291C0422B8
:101B10005B6800F0DDFF28780007000F0F2800DD6C
:101B20000F200B4B1B68D860C0B2FFF7B6FF2368CD
:101B30005888C004000EFFF7C9FF8023DB055968F1
:101B4000044A0A405A6038BD1804002004000040CE
:101B50005C000020FFFEFFFF044B1B681A1C2C32A8
:101B60002B3310781B78C01A0130704718040020FE
:101B7000024B1B682E3318787047C04618040020AB
:101B8000024B1B682D3318787047C046180400209C
:101B900008B5FFF7B5FFFFF7CFFCFFF7FFFBFFF737
:101BA00027FC00F0B1FA08BD10B50C4B01280AD192
:101BB000002A08D008401C68C2050948204010438C
:101BC0001860084B08E01C680120074A084000061E
:101BD000224002431A60054B197010BDB40000404A
:101BE000FFFF7FFF7D020020FFFFFFFE7C02002041
:101BF00038B5184B01251B78002B02D100F0EEFC04
:101C00000540154CEB05154A256815401D43144B3E
:101C100025601B780125002B03D100F0DFFCE84094
:101C200005402B060F4A256815401D43256000F02E
:101C3000DDFC031C20680F252B40A84318432060BF
:101C400000F0E0FC054028012568F0239D43054392
:101C5000256038BD7D020020B4000040FFFF7FFFFB
:101C60007C020020FFFFFFFEF0B58023DB05996CAE
:101C7000802212060A439A649A6C87B01A4300AF16
:101C8000041C9A6449D16D462A4BBD601A687F23B3
:101C90001A40131C0733DB08DB00EE1AB5466D460D
:101CA0003D6155002E1C0836F608F6006846801B7C
:101CB00085467A616A46FA60211C7A69386900F0C3
:101CC00010FF211C2A1CF86800F00BFF6B469B1BC1
:101CD0009D466846211C2A1C786000F002FF7E6940
:101CE000B300FE687619B446043B013C181D12D0BF
:101CF00011483D691A1811687E691268A819090B04
:101D000001551205C9B27E68120D60006546490092
:101D10002A528A53E8E7BD68AD468023DB059A6CFA
:101D2000BD46520052089A64996C044A0A409A646B
:101D300007B0F0BDC000004000000240FFFFFFBF41
:101D40000002064B000A0138002258609A60052202
:101D50001A60C0461A68D103FCD5704710E000E055
:101D6000044B054900221A6059609A6005221A60E6
:101D70007047C04610E000E0FFFFFF0010B5802272
:101D8000D20554680F21640C0C400823012C04D0A8
:101D90005468640C21405B1ADBB21C1C0A4B51686E
:101DA0001B680F229B681140591A084B8918594328
:101DB000074B4443C9180748FEF79EF9C1B2201CDF
:101DC000FEF79AF910BDC0465C000020F91600002D
:101DD0004E250000400D030010B5044C0448A368D4
:101DE000C01AFFF7CBFF0023236010BD10E000E016
:101DF000FFFFFF0008B50A4800F060F9FFF7A0FFF9
:101E0000084B094A934209D28032D21A2021832AF0
:101E100000DC9110891089005B18F2E708BDC0460C
:101E2000801A06003404002080070020014B186847
:101E30008C3070475C00002010B58024E405A26C53
:101E400080231B061343A364A36C80222343A36453
:101E500000215200054800F044FEA36C5B005B08C3
:101E6000A364A26C024B1340A36410BD00000240A7
:101E7000FFFFFFBFF7B53A4B80241D68E405AA7940
:101E8000A168D206374BD20F12050B401343071C33
:101E90000426201C291CA360321C1831D83000F005
:101EA00017FE201C291C321C1C31DC3000F010FEF7
:101EB000201C291C321C2031E03000F009FE201CBF
:101EC000291C321C2431E43000F002FE2B1C2A3382
:101ED0001978231CC03318687F2290431140021CDC
:101EE0000A431A60183B1A68298E120B0905090D5E
:101EF00012030A431A602A1C2E32186811781A4AF3
:101F0000090302400A431A602B1C32331A78A16C71
:101F10003F26164B32400B4012061343A3642B1C82
:101F20002B331B782C3501932D78FFF785FFA26C9E
:101F300080239B011343A364A36C019AB3433240F3
:101F40001343A36435400A4BA66CAD011E402E43DB
:101F5000A664381C00F014F9064B1B685F70F7BDCF
:101F600018040020FFFFEFFFFF0FF0FFFFFFFFC08F
:101F70003FF0FFFF5C000020F7B5244A244B1268B5
:101F80001B6852685961013A9961DA61051C0C1CA1
:101F900000F0FEFA002807D0092C2AD11D4B0022A0
:101FA0001B6844331A7024E01B4B1B680093009994
:101FB000184B18680B79013BEED3009E174FF218AF
:101FC0001E1C1236B60031585279C903890D920091
:101FD0000191D2191768B90A019F89020F4317604E
:101FE000375C11680E4E7F06FF0B0E403E431660B5
:101FF000E1E7281CFFF73EFF0A4B0022DA7080233E
:10200000DB051A705A7001221A70F7BD4C020020CD
:102010005C000020000000201C04002000010040A3
:10202000FF03FEFFFC03002008B5FFF7A5FFFFF745
:102030005BFC08BD38B5051C0C1CFFF791FE211C8C
:10204000281CFFF799FF80230122DB055A7003202B
:10205000FFF74EFBFFF7A2FBFFF780FBFFF7BCFE8D
:1020600038BD000038B58022D2055168051C506883
:102070000F23400C194018400824012804D052684E
:10208000520C1340E41AE4B20F23591A074B0848C4
:102090005943084BC918FEF72FF8074B211C58432A
:1020A000FEF72AF8291CFEF727F838BDF9160000BC
:1020B000400D03004E25000040420F0038B580223D
:1020C000D2055168051C50680F23400C1940184078
:1020D0000824012804D05268520C1340E41AE4B2D8
:1020E0000F23591A054B06485943064BC918FEF7EA
:1020F00003F8211C6843FDF7FFFF38BDF916000007
:10210000400D03004E25000038B50021184810226C
:1021100000F0E7FC174B19680423013BDBB2FF2BEF
:102120001ED013489A0012181468180724012409B5
:1021300020431060156807240F481C40A404284061
:10214000204310600A799A42E7D9CA1852790848A0
:102150009200121814688020800220431060DCE78F
:102160008023DB05196B054A01200A401A6338BD3C
:10217000000100401C040020FFFFE3FF1FFEFFFFE3
:10218000064B1B681A799B181979054B1F22186892
:1021900011409043021C0A431A6070471C0400203F
:1021A000D4000040104BF0B51C68013A1AD3A318B4
:1021B0005B790E4D9B005B1925794D43AD18AD0041
:1021C00045192E68F7031E68BF0DB60AB6023E43D6
:1021D0001E602E781F68064D7606F60B3D4035438F
:1021E0001D60E2E7F0BDC0461C0400200001004075
:1021F000FF03FEFF70B5041C081C0D1CFFF7ACFCB0
:10220000061C281CFFF7B4FC0C4B80211B68C90579
:102210005B8873434343DB112360896C8A0402D5D6
:102220004343DB092360236873225A43D209626067
:1022300066225343DB09A36070BDC0461C04002026
:10224000F0B585B0039300260DAB051C0C1C029263
:102250009E57FFF7EBFD071C641056D00C9A281C04
:10226000311CFFF79FFF301C0921FFF785FEFFF7A8
:1022700095FA2A4B1B68019300230C998B4241DA93
:1022800001980B9902797243D218920001291BD14F
:10229000B9580298814205D9A9180A68D003800D5F
:1022A000001B07E0039881422AD2A9180A68D003CC
:1022B000800D20188005C00B8446194A086802402A
:1022C0006046104308601BE0B9580A98814206D95D
:1022D000AA18117800924806400E001B08E00A98E0
:1022E00081420DD2AA18117800924806400E20189B
:1022F000844662467F20024081430098114301706A
:102300000133BAE7FFF792FDA6E7FFF78FFD301C18
:102310000921FFF731FE05B0F0BDC0461C040020C6
:102320007F00FEFFF0B589B00023051C05A80C1C3A
:10233000059306930793FFF75DFF164B19680E7917
:10234000331C013B0CD30A7913486243D218920024
:10235000AA18176838437F27106038431070F0E7D9
:102360000698012300900193281C059A079B02966A
:1023700003940A49FFF764FF069A079B0092022222
:10238000019202960394281C7F21059AFFF758FFBB
:1023900009B0F0BD1C04002080FF0100FF03000015
:1023A000014B18607047C0462004002070B5FEF74E
:1023B000B1F8061CFEF754FF264C311C051C1022F8
:1023C000206800F085FB2B79216800208B75224B5B
:1023D00061691A1C0832A26080226360D20592698A
:1023E0001D7E120A0A70597EE268090229439D7E09
:1023F0002D042943DD7E2D0629430D0A11705570E9
:102400000D0C090ED170597F95701D7F090229436B
:102410009D7F2D042943DD7F2D0629430D0A11716F
:1024200055710D0C090ED171191C2D331B782C31EF
:1024300009781B020B4313721B0A5372A36995712F
:102440000F229870DA70E3691A68042218601A7112
:102450005A7170BD60000020D02F000038B5FEF723
:1024600059F8FEF7FDFE134CA56A00F0D9FA686032
:10247000FFF79CFF104B226B1B681B88190A5171D8
:1024800013710221042B03D00021092B00D1032159
:10249000231C3C33917101225A7000229A7000F083
:1024A000BBFA064B58608023DB059A69236C1A70CF
:1024B00038BDC0466000002020040020200300201A
:1024C00008B5084A916C4B780749DBB20B72012BB7
:1024D00005D0022B05D1536C01225A7001E0FFF7A1
:1024E000C5F808BD6000002020030020094B10B58E
:1024F0001B7A094C012B05D0022B05D1626C0023FD
:10250000537001E0FFF7C0F8636B7F211A788A43AC
:102510001A7010BD2003002060000020F8B5194D8E
:102520000024194E337A012B07D0002B18D0022B30
:1025300017D1164B5B6C5C7813E0FFF7B3F8041C03
:10254000002D0BD1FFF7A0F82E23FF33013B002B0A
:1025500001D0C046FAE7FFF789F80A4D013D00E0D7
:102560001C1C0A4FBA6C5378327A9A4206D0FFF795
:10257000BDFFBB6C044A5B78137201E0002CD0D124
:10258000F8BDC046FF2C01002003002060000020A1
:10259000024B9B6C1878C0B27047C04660000020A8
:1025A000024B9B6C9878C0B27047C0466000002018
:1025B000014B9B6C9870704760000020024B9B6C35
:1025C000D878C0B27047C04660000020024B9B6CB8
:1025D000587AC0B27047C04660000020024BDB69E9
:1025E0001868C0B27047C04660000020044AD36932
:1025F00092691979D078814201D21879C0B27047B6
:1026000060000020044AD36992695979D0788142E8
:1026100001D25879C0B2704760000020034BA0225D
:102620005B6C1A701A78A02AFCD0704760000020FA
:10263000024B1B6D1878C0B27047C0466000002086
:10264000024B1B6D9878C0B27047C04660000020F6
:102650000E4B30B51A6DFF2414700D4C5865216077
:1026600005788478996A6C43057940796419400645
:10267000400E60430860586CA0210170996C13787B
:10268000FF2B02D10B78022BF9D030BD6000002067
:1026900020030020014B1B6818887047200400208D
:1026A00008B5FFF73BFF024B0022DA6008BDC046C9
:1026B0002003002070B5074B074C1A6BE668011C1D
:1026C0009579986B2A1C8019751900F001FAE5605C
:1026D00070BDC046600000202003002008B5074BF5
:1026E000DB68002B09D0064ADBB2506B7F21194012
:1026F00001703C329370FFF7E3FE08BD2003002019
:102700006000002073B56C46E271194A0734D56D3C
:102710002E7886422AD1FF2028709366131C9C33A2
:102720001B6820789B688000116654661871114BF5
:1027300006980C7818608878936A60430C79497918
:1027400000194906490E41431960516CA0230B70D2
:10275000D16D936C0A78FF2A02D11A78002AF9D039
:102760000A78FF2A02D11A780A2AF3D073BDC0462C
:102770006000002020030020014B5B6C98787047BC
:10278000E0000020014B5B6C98707047E000002077
:10279000024BDB689872000AD87270476000002014
:1027A000014B5B6998727047600000200023036052
:1027B0000B601B4BF7B59A4230DC1312194C122BED
:1027C0001BD89B00E418E46E002C27D0E368013B83
:1027D0005D1C23D0D5B2019565681E1CEF5C019D80
:1027E000013BED1BF4D42768B300DB59002B15D057
:1027F0005B190360A3689B5D0EE0E36A666A013BB8
:102800000CD35D00755B551BF9D4266A9B00F2580A
:1028100052190260A26AD3585D1B0D60F7BDC04615
:10282000FFEF000060000020C02208B5D2000B4B73
:10283000904206D15B6C1A78052A0DD005221A70D9
:102840000AE05B6B84221B7892005B065B0E9B1890
:10285000984201D1FFF74AFE08BDC0466000002043
:10286000014B18607047C04624040020014B1868D3
:102870007047C04624040020014B18607047C046D2
:1028800028040020014B18687047C0462804002027
:10289000014B18687047C04650020020F7B5151C60
:1028A00001900E1C1A1C0024013A11D301989100CA
:1028B00041180F680978F803800D0A277843490604
:1028C00084466444490EEFD07943C9096418EBE7A4
:1028D0007788002F02D140236B600CE0191C201C6C
:1028E000FDF7BCFBBF01011C381CFDF7B7FB6E28D0
:1028F00000DD6E2068603379642253430898099A9A
:10290000434313413278002A02D06F687B439B1106
:10291000AB60F7BD70B59300C018C9180023043B25
:10292000013A04D3C558CE58AC19C450F7E770BD6E
:10293000F7B5051C0F1C01921C1C013C0ED3A60010
:10294000A8590899FDF78AFB3B78002B03D0019A20
:102950001357584380118003A851EEE7F7BD0000DC
:10296000F8B5051C0E1C101C191CFDF7C5FB069CB8
:102970000A4B1968A300ED18F7180023043B013C2B
:102980000AD30A228E5EFA58B24200DA321C42435F
:10299000EE58B21AEA50F1E70120F8BD24040020F5
:1029A00008B5034B18600078FFF7FAFE08BDC04673
:1029B0002C040020014B18687047C0462C040020EE
:1029C000014B18687047C0465402002038B5114CBE
:1029D000102520682A1C0021103000F082F82068A1
:1029E0002A1C0021203000F07CF8206804252A1CD5
:1029F0000021403000F075F820682A1C0021443086
:102A000000F06FF8206800214019442200F069F8B6
:102A100038BDC0465402002000487047E22D000037
:102A2000B020704700487047062E00005823013040
:102A30005843014BC0187047E22D000008B5FEF75F
:102A40000FFC024B02791B685A6008BD4C02002043
:102A500010B5094C201CFEF7FDFB201C0E30FDF7C5
:102A600053FD201C2230FFF79BFCFFF7E7FF0348D4
:102A7000FFF702FF10BDC046E22D0000922E0000BD
:102A80000D4B10B51B681C78582301345C430B4B6D
:102A9000E4180B4B201C1C60FEF7E8FB201C3430B4
:102AA000FDF73EFD201C3630FFF7DAFE201C4E30CD
:102AB000FFF776FF10BDC04658020020E22D00004F
:102AC00030040020014B1B68187870475802002022
:102AD00010B50023934203D0CC5CC4540133F9E712
:102AE00010BD031C8218934202D019700133FAE71B
:102AF0007047FFFF0400002000000000FF000000FE
:102B000000000000000000000000000000000000C5
:102B100000000000000000000000000000000000B5
:102B200000000000000000000000000000000000A5
:102B30000000000000000000000000000000000095
:102B40000000000000000000000000000000000085
:102B50008002002067030020000000000000000049
:102B60005B03002041020020360200200102002009
:102B70004003002020030020280100203003002013
:102B800002000000540300205303002047030020EC
:102B9000070000003F030020340200202002002034
:102BA000100200200D02002000000000050200209D
:102BB00046030020000000000000000000000000AC
:102BC00000000000DC010020C8010020000000001F
:102BD0000000000000000000B4010020A00100205F
:102BE000000000000000000088010020000000003C
:102BF0006C01002000000000000000000000000048
:102C000054010020400100202C010020FD01002083
:102C1000F8010020000000003A03002000200060BE
:102C200024010020380300203C01002001000000A6
:102C300005000000A0000020390300205001002002
:102C400001000000010000001801002067010020C1
:102C500064010020030000000405070010200000AC
:102C6000B8000020810100207C0100200500000048
:102C700008010C010400102030310000AC000020DD
:102C80009B010020980100200300000008030C00B5
:102C90001020000078000020B2010020B0010020C8
:102CA0000200000004060010A4000020C60100205D
:102CB000C401002002000000021400109000002057
:102CC000D80100209C00002003000000001011002B
:102CD00060000020F2010020EC010020060000004E
:102CE0001708080C0A0B002030405070010000004B
:102CF000000020060100010000002010020E00006C
:102D000000FF000000200302600090001C02002071
:102D10000060090100010000000000000000000048
:102D20000000000000000000050000483248304D5F
:102D300045000000004D4950000000000003050060
:102D40008C030020A0030020AC030020F40300202B
:102D5000FFFFFFFFFFFFFFFFFFFFFFFFFFFFFFFF83
:102D6000FFFFFFFFFFFFFFFFFFFFFFFFFFFFFFFF73
:102D7000FFFFFFFFFFFFFFFFFFFFFFFFFFFFFFFF63
:102D8000FFFFFFFFFFFFFFFFFFFFFFFFFFFFFFFF53
:102D9000FFFFFFFFFFFFFFFFFFFFFFFFFFFFFFFF43
:102DA000FFFFFFFFFFFFFFFFFFFFFFFFFFFFFFFF33
:102DB000FFFFFFFFFFFFFFFFFFFFFFFFFFFFFFFF23
:102DC000FFFFFFFFFFFFFFFFFFFFFFFFFFFFFFFF13
:102DD00006014832483050415241303030303030B6
:102DE00030300000B80B020102000000200B140379
:102DF0004F6E375F4B455900000000000000000097
:102E00000A1E0A0004000F4288213000811899032D
:102E100040076000000091070000000000007C9A5D
:102E200005002F8601010101261401161428000057
:102E30001E0716038000000005000F4288213000A5
:102E4000811899034007600000009107000000000E
:102E500000007C9A05002F8601010101261401164D
:102E6000142800001E0716038000000005005A5AAF
:102E700003000100EE0B3F013200CEFF3200CEFF17
:102E8000020010FFDC0500008C3CC80000020100BD
:102E90000000402CFFFFFFFFFFFFFFFFFFFFFFFFD2
:102EA000FFFFFFFFFFFFFFFFFFFFFFFFFFFFFFFF32
:102EB000FFFFFFFFFFFFFFFFFFFFFFFFFFFFFFFF22
:102EC000FFFFFFFFFFFFFFFFFFFFFFFFFFFFFFFF12
:102ED000FFFFFFFFFFFFFFFFFFFFFFFFFFFFFFFF02
:102EE000FFFFFFFFFFFFFFFFFFFFFFFFFFFFFFFFF2
:102EF000FFFFFFFFFFFFFFFFFFFFFFFFFFFFFFFFE2
:102F0000FFFFFFFFFFFFFFFFFFFFFFFFFFFFFFFFD1
:102F1000FFFFFFFFFFFFFFFFFFFFFFFFFFFFFFFFC1
:102F2000FFFFFFFFFFFFFFFFFFFFFFFFFFFFFFFFB1
:102F3000FFFFFFFFFFFFFFFFFFFFFFFFFFFFFFFFA1
:102F4000FFFFFFFFFFFFFFFFFFFFFFFFFFFFFFFF91
:102F5000FFFFFFFFFFFFFFFFFFFFFFFFFFFFFFFF81
:102F6000FFFFFFFFFFFFFFFFFFFFFFFFFFFFFFFF71
:102F7000FFFFFFFFFFFFFFFFFFFFFFFFFFFFFFFF61
:102F8000FFFFFFFFFFFFFFFFFFFFFFFFFFFFFFFF51
:102F9000FFFFFFFFFFFFFFFFFFFFFFFFFFFFFFFF41
:102FA000FFFFFFFFFFFFFFFFFFFFFFFFFFFFFFFF31
:102FB000FFFFFFFFFFFFFFFFFFFFFFFFFFFF060118
:102FC0004D425401483248300000000000300000FB
:102FD000EEEE040306010601EEEEEEEE000B0B0C26
:102FE000002209012E0200000508162023411100CD
:102FF000000000000000000000004000EC34000071
:00000001FF
